:100000000C9405030C94EB540C941C550C944D5516
:100010000C947E550C94AF550C94E0550C941156ED
:100020000C9442560C9432030C9432030C94320319
:100030000C9432030C9432030C9432030C9432036C
:100040000C9432030C945A490C9432030C943203EE
:100050000C9432030C9432030C9432030C947356B8
:100060000C9432030C94944C0C94E04D0C94320399
:100070000C9432030C9432030C9432030C9432032C
:100080000C94C34B0C9432030C9432030C94320343
:100090000C94D44C0C941F4E0C9432030C943203E9
:1000A0000C9432030C9432030C94F34A0C943203F4
:1000B0000C9432030C9432030C9432030C942A4AAD
:1000C0000C9432030C9432030C9432030C94144DB0
:1000D0000C945E4E0C9432030C94544D0C949D4E33
:1000E0000C943203871B731B631B571B4B1B3B1B5F
:1000F000271B1A1B0A1BFF1AEB1ADF1ACB1AB31A9B
:10010000A61A961A891A781A681A591A451A2D1AAF
:10011000061A1A1A1A1A1A1A1A1A1A1A1A1A1A1A53
:100120001A1A1A1A1A1A1A1A1A1A1A1A1A1A1A1A2F
:100130001A1A1A1A1A1A1A1A1A1A1A1A1A1A1A1A1F
:100140001A1A1A1A1A1A1A1A1A1A1A1A1A1A1A1A0F
:100150001A1A1A1A1A1A1A1A1A1A1A1A1A1A1A1AFF
:100160001A1A1A1A1A1A1A1A1A1A1A1A1A1A1A1AEF
:100170001A1A1A1A1A1A1A1A1A1A1A1A1A1A1A1ADF
:100180001A1A1A1A1A1A1A1A1A1A1A1A1A1A1A1ACF
:100190001A1A1A1A1A1A1A1A1A1A1A1A1A1A1A1ABF
:1001A0001A1A1A1A1A1A1A1A1A1A1A1A1A1A1A1AAF
:1001B0001A1A1A1A1A1A1A1A1A1A1A1A1A1A1A1A9F
:1001C0001A1A1A1A1A1A1A1A1A1A1A1A1A1A1A1A8F
:1001D0001A1A1A1A1A1A1A1A1A1A1A1A1A1A1A1A7F
:1001E0001A1A1A1A1A1A1A1A1A1A1A1A1A1A1A1A6F
:1001F0001A1A1A1A1A1A1A1A1A1A1A1A1A1A1A1A5F
:100200001A1A1A1A1A1A1A1A1A1A1A1A1A1A1A1A4E
:100210001A1A1A1A1A1A1A1A1A1A1A1A1A1A1A1A3E
:100220001A1A1A1A1A1A1A1A1A1A1A1A1A1A1A1A2E
:100230001A1A1A1A1A1A1A1A1A1A1A1A1A1A1A1A1E
:100240001A1A1A1A1A1A1A1A1A1A1A1A1A1A1A1A0E
:100250001A1A1A1A1A1A1A1A1A1A1A1A1A1A1A1AFE
:100260001A1A1A1A1A1A1A1A1A1A1A1A1A1A1A1AEE
:100270001A1A1A1A1A1A1A1A1A1A1A1A1A1A1A1ADE
:100280001A1A1A1A1A1A1A1A1A1A1A1A1A1A1A1ACE
:100290001A1A1A1A1A1A1A1A1A1A1A1A1A1A1A1ABE
:1002A0001D1A821D761D6D1D5D1D471D401D371DCC
:1002B0002E1D251D1C1D071DEB1C221CE21CD91C1C
:1002C000D01C631CC71CAE1CA51C8C1C831C631C8F
:1002D000451C451C451C451C451C451C451C451C16
:1002E000451C451C451C451C451C451C451C451C06
:1002F000451C451C451C451C451C451C451C451CF6
:10030000451C451C451C451C451C451C451C451CE5
:10031000451C451C451C451C451C451C451C451CD5
:10032000451C451C451C451C451C451C451C451CC5
:10033000451C451C451C451C451C451C451C451CB5
:10034000451C451C451C451C451C451C451C451CA5
:10035000451C451C451C451C451C451C451C451C95
:10036000451C451C451C451C451C451C451C451C85
:10037000451C451C451C451C451C451C451C451C75
:10038000451C451C451C451C451C451C451C451C65
:10039000451C451C451C451C451C451C451C451C55
:1003A000451C451C451C451C451C451C451C451C45
:1003B000451C451C451C451C451C451C451C451C35
:1003C000451C451C451C451C451C451C451C451C25
:1003D000451C451C451C451C451C451C451C451C15
:1003E000451C451C451C451C451C451C451C451C05
:1003F000451C451C451C451C451C451C451C451CF5
:10040000451C451C451C451C451C451C451C451CE4
:10041000451C451C451C451C451C451C451C451CD4
:10042000451C451C451C451C451C451C451C451CC4
:10043000451C451C451C451C451C451C451C451CB4
:10044000451C451C451C451C451C451C451C451CA4
:10045000451C451C451C451C451C451C451C7B1C5E
:10046000084AD73B3BCE016E84BCBFFDC12F3D6C1B
:1004700074319ABD56833DDA3D00C77F11BED9E481
:10048000BB4C3E916BAAAABE000000803F05A84C61
:10049000CDB2D44EB93836A9020C50B9918688082D
:1004A0003CA6AAAA2ABE000000803F00002100242A
:1004B0000027002A002D0030003300010100000455
:1004C0000107010A0100002200250028002B002E50
:1004D000003100340002010000050108010B010099
:1004E0000020002300260029002C002F00320000ED
:1004F00001000003010601090105050505070508BE
:10050000080808020202020A0A0808040404040196
:1005100001010101010101030303030303030304B8
:100520000707070C0C0C0C0C0C0C0C020202020648
:10053000060606060606060B0B0B0B0B0B0B0B0138
:1005400002102020080810204010204080020102E4
:1005500001080402010102040810204080804020AC
:1005600010080402018004020180402010080402E7
:100570000108040201010204081020408001020465
:1005800008102040800000090A02080B0C0D070625
:100590000304010000000000000000000000000053
:1005A000000000000000000000000000000000004B
:1005B0000011100F0000000000000000000000000B
:1005C0000000000000000000000000494E46494EB7
:1005D0004954594E414ECDCCCC3D0AD7233C17B798
:1005E000D13877CC2B329595E6241FB14F0A000005
:1005F00020410000C84200401C4620BCBE4CCA1B23
:100600000E5AAEC59D747425105011241FBECFEF35
:10061000D1E2DEBFCDBF00E00CBF16E1A0E0B2E04A
:10062000ECEBF8EB00E00BBF02C007900D92A23B91
:10063000B107D9F71BBE1AE1A2EBB6E101C01D92CA
:10064000A834B107E1F716E0CAE0D6E004C022976B
:10065000FE010E94165CC630D107C9F70E944651C0
:100660000C945C5C0C940000CF93DF93BC0182304F
:10067000910510F462E070E0A091441AB091451A1F
:10068000ED01E0E0F0E040E050E021C08881998198
:100690008617970769F48A819B81309719F09383B5
:1006A000828304C09093451A8093441AFE0134C09B
:1006B0006817790738F44115510519F08417950723
:1006C00008F4AC01FE018A819B819C01E90120971D
:1006D000E9F641155105A9F1CA01861B970B04974C
:1006E00008F4BA01E0E0F0E02AC08D919C911197E6
:1006F00084179507F9F46417750781F412968D91A4
:100700009C911397309719F09383828304C0909340
:10071000451A8093441AFD0132964CC0CA01861BCB
:10072000970BFD01E80FF91F6193719302978D9369
:100730009C9340C0FD01828193819C01D901109757
:10074000A1F68091421A9091431A892B41F480912D
:100750000D1690910E169093431A8093421A409171
:100760000F16509110164115510541F44DB75EB763
:1007700080910B1690910C16481B590B2091421A30
:100780003091431ACA01821B930B8617970780F09A
:10079000AB014E5F5F4F8417950750F0420F531F18
:1007A0005093431A4093421AF9016193719302C026
:1007B000E0E0F0E0CF01DF91CF910895CF93DF9398
:1007C000009709F450C0EC0122971B821A82A09175
:1007D000441AB091451A109709F140E050E0AC1767
:1007E000BD0708F1BB83AA83FE0121913191E20F7D
:1007F000F31FAE17BF0779F48D919C911197280FC5
:10080000391F2E5F3F4F3983288312968D919C911B
:1008100013979B838A834115510571F4D093451A30
:10082000C093441A20C012968D919C911397AD01EC
:10083000009711F0DC01D3CFFA01D383C283219159
:100840003191E20FF31FCE17DF0769F48881998198
:10085000280F391F2E5F3F4FFA01318320838A8191
:100860009B8193838283DF91CF91089566277727B9
:100870000C948204FC0188279927E8942191203266
:10088000E9F3293010F02E30C8F32B3241F02D322D
:1008900039F4689404C00E947A04820F911D21915A
:1008A00020532A30C0F31EF4909581959F4F0895F0
:1008B000FB01DC0102C001900D9241505040D8F77D
:1008C00008956817790768F4FB01DC01E40FF51F50
:1008D000A40FB51F02C002900E9241505040D8F7AD
:1008E00008950C945804DC0101C06D9341505040B0
:1008F000E0F708957AE0979F902D879F802D910DC6
:1009000011240895A0E0B0E0E8E8F4E00C942B5C3A
:10091000EC015B016115710519F0FB019183808386
:10092000F9908F2D90E00E941A5C892BC9F7FDE2A7
:10093000FF1621F4F990EE24E39405C02BE2F216A1
:1009400009F4F990EE248E0101501040C8016BECBF
:1009500075E043E050E00E94E205892B01F58E012D
:100960000E5F1F4FC8016EEC75E045E050E00E943D
:10097000E205892B19F48E01095F1F4FA114B10400
:1009800019F0F50111830083E0FC04C070E090E0F1
:1009900080E814C070E090E080E86FEF08C1C80103
:1009A00063ED75E043E050E00E94E205892B69F4B5
:1009B000A114B10429F470E090E080EC6FE7F7C077
:1009C0002296F501D183C083F6CF8824992440E094
:1009D00050E060E070E0EF2DE053EA30A0F5F2E087
:1009E000EF2A8E2D90E09C0128703070E2FE06C048
:1009F000232B79F50894811C911C2BC0232B19F013
:100A0000089481089108DB01CA0112E0880F991F40
:100A1000AA1FBB1F1A95D1F7480F591F6A1F7B1FCA
:100A2000440F551F661F771F4E0F511D611D711D0D
:100A3000483929E9520729E9620729E1720748F094
:100A400084E0E82A06C0EE3F31F4E3FC39C098E0C8
:100A5000E92AF990C0CFE53311F0E53189F5299104
:100A60002D3219F4E0E1EE2A05C02B3219F081E0B5
:100A700090E003C0299182E090E0E22FE053EA3059
:100A800018F0C81BD90B1CC020E030E0FCE0203877
:100A90003F075CF4C901880F991F880F991F280F21
:100AA000391F220F331F2E0F311DE991E053EA3019
:100AB00068F3E4FE03C0309521953F4F820E931EEC
:100AC000CE2CDD24E1FE07C0A114B10421F0219752
:100AD000F501D183C083CB01BA010E94BD597B01CE
:100AE0008C01F3E0CF22DD2423E0C216D10421F4EF
:100AF00017FB109517F9109557016801C801B70148
:100B000020E030E040E050E00E941D59882309F4C5
:100B10004AC097FE0DC02AEEE22E25E0F22E9094F8
:100B2000819491089394C0E2D0E000E010E012C0FC
:100B300092E0E92E96E0F92EF6CFF7012591359156
:100B400045915491C601B5010E94E15A5B016C01C7
:100B50008C1A9D0A8C169D0684F7D595C7950F5F54
:100B60001F4F0630110529F08CEF9FEFE80EF91E9C
:100B7000F1CFC501D6017C018D018C2D880F8D2D03
:100B8000881F8F3F51F0C601B50120E030E040E002
:100B900050E00E941D59882331F482E290E0909346
:100BA000471A8093461A7E2D9F2D802F612F272F65
:100BB000392F482F562FB901CA01CDB7DEB7ECE067
:100BC0000C94475CFB01DC014150504088F08D9152
:100BD00081341CF08B350CF4805E659161341CF01F
:100BE0006B350CF4605E861B611171F3990B0895EF
:100BF000881BFCCF9C01245F3F4FC9010895FC0175
:100C0000EB5FFE4F80E090E0A0E0B0E08193919335
:100C1000A193B19380839183A283B3830895FC0150
:100C2000EB5FFE4F2081318142815381B901CA01BE
:100C30000895FC01E75FFE4F20813181428153819D
:100C4000B901CA010895FC01EF5FFE4F80819181D7
:100C50000895FC01ED5FFE4F808191810895FC01B4
:100C6000ED5FFE4F11821082129212920895FC01E4
:100C7000E35FFE4F81E080830895FC01E35FFE4F58
:100C8000108208950C960E94ED0A08950C960E9419
:100C9000E90A08952F923F924F925F926F927F924E
:100CA0008F929F92AF92BF92CF92DF92EF92FF927C
:100CB0000F931F93DF93CF93CDB7DEB72C970FB66B
:100CC000F894DEBF0FBECDBF1C014B0169017A0154
:100CD0000E94D93E2B013C01AA2497FCA094BA2C77
:100CE000C501B4010E94BF59AB01BC015E0108946B
:100CF000A11CB11CC501930182010E943F3FD1019B
:100D0000F5018CE001900D928150E1F7C1010C9644
:100D1000F101C080D180E280F380048115812681B9
:100D2000378140855185628573850E944A0B2C96D8
:100D30000FB6F894DEBF0FBECDBFCF91DF911F91EC
:100D40000F91FF90EF90DF90CF90BF90AF909F906A
:100D50008F907F906F905F904F903F902F9008956D
:100D6000CF92DF92EF92FF920F931F93DF93CF9377
:100D7000CDB7DEB72C970FB6F894DEBF0FBECDBF50
:100D8000C982DA82EB82FC820D831E832F8338872F
:100D900049875A876B877C87DC01FE0131962CE0FE
:100DA00001900D922150E1F70C96C980DA80EB801A
:100DB000FC800D811E812F81388549855A856B8580
:100DC0007C850E944A0B2C960FB6F894DEBF0FBEAE
:100DD000CDBFCF91DF911F910F91FF90EF90DF90EA
:100DE000CF9008952F923F924F925F926F927F9291
:100DF0008F929F92AF92BF92CF92DF92EF92FF922B
:100E00000F931F93DF93CF93CDB7DEB72C970FB619
:100E1000F894DEBF0FBECDBF1C014B0169017A0102
:100E20000E94D13E2B013C01AA2497FCA094BA2C2D
:100E3000C501B4010E94BF598B019C015E01089459
:100E4000A11CB11CC501B301A2010E943F3FD10109
:100E5000F5018CE001900D928150E1F7C1010C96F3
:100E6000F101C080D180E280F38004811581268168
:100E7000378140855185628573850E944A0B2C9687
:100E80000FB6F894DEBF0FBECDBFCF91DF911F919B
:100E90000F91FF90EF90DF90CF90BF90AF909F9019
:100EA0008F907F906F905F904F903F902F9008951C
:100EB0000F931F938C0182509F4F6CED75E00E9441
:100EC0005948C80185509F4F6CED75E00E94594804
:100ED0001F910F9108959F92AF92BF92CF92DF9290
:100EE000EF92FF920F931F93CF93DF93EC018C014E
:100EF000045F1F4FC8010E94D30A6C01C8010E9401
:100F0000DE0A5C01C8010E94D90AF82EC8010E94BD
:100F1000E40A982EFF2009F450C0B601882777FD17
:100F20008095982F0E94BF5920E030E04AEF53E4AB
:100F30000E94245920E030E04AEF53E40E94E15A35
:100F40007B018C01992009F050C0B501882777FDFD
:100F50008095982F0E94BF5920E030E04AEF53E47B
:100F60000E94245920E030E04AEF53EC0E94E15AFD
:100F7000C250DF4F0E948C599B01AC0124523A4F62
:100F8000CE01B9010E9459482397C801B7010E94B8
:100F90008C599B01AC0124523A4FCE01B9010E94F9
:100FA0005948DF91CF911F910F91FF90EF90DF9003
:100FB000CF90BF90AF909F900895B601882777FD9E
:100FC0008095982F0E94BF5920E030E04AEF53E40B
:100FD0000E94245920E030E04AEF53EC0E94E15A8D
:100FE0007B018C01992009F4B0CFB501882777FDEA
:100FF0008095982F0E94BF5920E030E04AEF53E4DB
:101000000E94245920E030E04AEF53E40E94E15A64
:10101000AFCFCF92DF92EF92FF920F931F938C018D
:101020006091B6167091B7168091B8169091B91666
:101030000E94BF59F801E151FF4F20813181428167
:1010400053810E94E15A6B017C016091B21670914C
:10105000B3168091B4169091B5160E94BF59F8014D
:10106000E551FF4F20813181428153810E94E15A35
:101070009B01AC01C701B6010E949058F801ED50E8
:10108000FF4F20813181428153810E94E15A6B01DF
:101090007C01C8010E94E13EA70196010E9491587F
:1010A000AB01BC01C8010E94E93E1F910F91FF9066
:1010B000EF90DF90CF9008952F923F924F925F92E2
:1010C0006F927F928F929F92AF92BF92CF92DF9258
:1010D000EF92FF920F931F93DF93CF9300D000D036
:1010E000CDB7DEB76C010E9409086090B21670900F
:1010F000B3164090B6165090B7161092B2161092D2
:10110000B3161092B4161092B5161092B61610922D
:10111000B7161092B8161092B916B301882777FD4A
:101120008095982F0E94BF5969837A838B839C8313
:10113000B201882777FD8095982F0E94BF594B01F7
:101140005C01C60185519F4F9E838D8369817A81A1
:101150008B819C81ED81FE8120813181428153818F
:101160000E94E15A7B018C019FEE292E312C2C0C20
:101170003D1CC501B401F1012081318142815381BF
:101180000E94E15A9B01AC01C801B7010E9491582D
:1011900020E030E040E05FE30E94E15AAB01BC0197
:1011A000C6010E94A0418601075F1E4FC501B40120
:1011B000F10120813181428153810E94E15A9B01DA
:1011C000AC01F80160817181828193810E94915804
:1011D000F801608371838283938386010B5F1E4FC6
:1011E00069817A818B819C81ED81FE8120813181B1
:1011F000428153810E94E15A9B01AC01F801608158
:101200007181828193810E949158F801608371837A
:1012100082839383F601EF5FFE4F80819181680E98
:10122000791E71826082F601ED5FFE4F80819181AF
:10123000480E591E5182408289EF90E0C80ED91E97
:101240008091B6169091B716F601918380838091B4
:10125000B2169091B3169293829326960FB6F89495
:10126000DEBF0FBECDBFCF91DF911F910F91FF90D9
:10127000EF90DF90CF90BF90AF909F908F907F9036
:101280006F905F904F903F902F900895CF92DF9294
:10129000EF92FF920F931F93CF93DF93EC018C019A
:1012A0000D511F4FC8010E9404438823B1F58E01E0
:1012B0000D521F4FC8010E940443882339F58E0147
:1012C00005521F4FC8010E9404438823B1F0C80192
:1012D0000E942343CE010C96C880D980EA80FB800F
:1012E0000C811D812E813F81488559856A857B85CA
:1012F0000E941612CE010E946B07DF91CF911F91C1
:101300000F91FF90EF90DF90CF900895C8010E9459
:101310002343CE010E945C08D2CFC8010E94234320
:10132000C35FDE4F8881CD50D140882309F4BFCF01
:1013300081EA99E16CE472E00E94EB528E01045F55
:101340001F4FC8010E94F50A0E94324781EA99E1C5
:1013500067E572E00E94EB52C8010E94F00A0E9409
:10136000324781EA99E162E672E00E940A539FCF18
:10137000AF92BF92CF92DF92EF92FF920F931F93A3
:101380008C010E942D3FC8010C960E945513C80184
:101390008D529F4F6AE070E00E943043C801855231
:1013A0009F4F6EE170E00E943043C8018D519F4F06
:1013B00064EF71E00E94304305511F4F8DEC9BE2BA
:1013C000A1ECBEE3F80181939193A193B1938CE8D2
:1013D0009FE1A2ECBEE381939193A193B1938DEF32
:1013E00099E6A3EABBE381939193A193B193119200
:1013F00011928F0111821082095F10404BEFA42ED1
:10140000B12CA00EB11EC5010E943F483EEFC32E75
:10141000D12CC00ED11EC6010E943F480F5F1E4F47
:10142000F801119211921192119280E090E0A0E0E7
:10143000B0E081939193A193B1938F0180839183C5
:10144000A283B383095011402DE0E22E21E0F22E59
:10145000E00EF11EF70110821092B2161092B31630
:101460001092B4161092B5161092B6161092B716C6
:101470001092B8161092B916C8010E946B07C601E7
:1014800066E070E00E945349C50167E070E00E9489
:101490005349C8010E945807F70110821F910F910C
:1014A000FF90EF90DF90CF90BF90AF900895CF93D3
:1014B000DF93DC01BC0167587F4FFC01E158FF4F0F
:1014C000A358BF4F208131818D919C911197AD57C9
:1014D000B040A901480F591FEB0159834883FD0112
:1014E000E558FF4F821B930B91838083CD018F576B
:1014F0009F4F20E0141615060CF053C0EC01288312
:10150000AE57BF4F20E080819181181619060CF06C
:1015100046C02C93DB012D913C91119737FD2EC0D5
:101520002081318137FD34C0EB01888199818B3F67
:10153000910524F08AEF90E09983888380819181DE
:101540008B3F910524F08AEF90E091838083DB014B
:101550008D919C9186509F4F2CF486E09FEFEB017C
:10156000998388838081918186509F4F24F486E0FF
:101570009FEF91838083DF91CF91089588279927EA
:10158000821B930B8D939C932081318137FFCCCFAD
:1015900088279927821B930B91838083C5CF21E0F5
:1015A000B8CF21E0ABCFFC01E758FF4F808191819C
:1015B0000895FC01EF57FF4F80810895FC01E55825
:1015C000FF4F808191810895FC01EE57FF4F80818C
:1015D000089521E0FC0120A30895FC0110A20895C4
:1015E0009C0124553F4FC90108959C012F563F4F40
:1015F000C9010895EF92FF920F931F937C0101EAB6
:1016000019E1C80163E672E00E940A53C70185969A
:101610000E94CF43C8016CE672E00E940A53C701E2
:10162000815B9F4F0E94CF43C80165E772E00E9433
:10163000EB52C7018F569F4F0E943247C8016CE79B
:1016400072E00E94EB52C70184559F4F0E943247BF
:101650001F910F91FF90EF900895EF92FF920F93DB
:101660001F937C0101EA19E1C80163E872E00E945E
:10167000EB52C7010E944442C8016CE872E00E942C
:10168000EB52C7010C960E9444421F910F91FF90AC
:10169000EF900895CF92DF92EF92FF920F931F93F6
:1016A000DF93CF93CDB7DEB72C970FB6F894DEBF9C
:1016B0000FBECDBFC982DA82EB82FC820D831E830E
:1016C0002F83388749875A876B877C87DC01FE0127
:1016D00031962CE001900D922150E1F7DC011C962F
:1016E000FC012CE001900D922150E1F70E942D0B9E
:1016F0002C960FB6F894DEBF0FBECDBFCF91DF9111
:101700001F910F91FF90EF90DF90CF900895CF93AE
:10171000DF93EC018BA19CA18130910591F00297A0
:1017200069F481E090E09CA38BA3CE010E942D0B75
:1017300081EA99E166E972E00E940A53DF91CF9154
:10174000089583E090E09CA38BA3CE010E942D0B13
:1017500081EA99E163EA72E00E940A531AA219A28F
:10176000DF91CF910895CF92DF92EF92FF920F9386
:101770001F93815B9F4F0E94A5431F910F91FF9084
:10178000EF90DF90CF900895CF92DF92EF92FF928B
:101790000F931F9385960E94A5431F910F91FF9071
:1017A000EF90DF90CF9008952F923F924F925F92EB
:1017B0006F927F928F929F92AF92BF92CF92DF9261
:1017C000EF92FF920F931F93DF93CF93CDB7DEB7C6
:1017D000A0970FB6F894DEBF0FBECDBF4C012E010F
:1017E0000894411C511CC2010E940D402DB73EB708
:1017F0002C5030400FB6F8943EBF0FBE2DBFE9E02D
:10180000AE2EB12CAC0EBD1EADB7BEB711967CE0AE
:10181000672E712C680C791CF3018CE001900D92FD
:101820008150E1F7C501F401C080D180E280F380EE
:1018300004811581268137814085518562857385B4
:101840000E941B40D201F50188E001900D92815069
:10185000E1F72DB73EB7245F3F4F0FB6F8943EBF78
:101860000FBE2DBFF40181A192A18130910521F11C
:10187000823091050CF4F8C18230910509F446C11B
:10188000039709F4A9C0A0960FB6F894DEBF0FBE67
:10189000CDBFCF91DF911F910F91FF90EF90DF901F
:1018A000CF90BF90AF909F908F907F906F905F9000
:1018B0004F903F902F9008956FE4A62EB12CA80C66
:1018C000B91CCE014196F401C080D180E280F38042
:1018D0000481158126813781408551856285738514
:1018E0000E946641C20109891A892B893C894D8968
:1018F0005E896F89788D0E948140AB01BC01C50172
:101900000E94A0442DE730E0820E931E0E948C5965
:10191000F4017183608323E83FEF820E931EF4018C
:1019200083A194A1019709F450C1C2010E9403410F
:101930007B018C01C3010E94E13E9B01AC01C80107
:10194000B7010E94C74020E030E040E050E00E9434
:10195000D65A18160CF0FFC0C2010E9403417B0149
:101960008C01C3010E94E13E9B01AC01C801B7019B
:101970000E94C7402BED3FE049EC5FE30E94D65A3E
:1019800018160CF0FFC0C2010E94034155E2C52E9B
:10199000D12CC80CD91C2BED3FE049E450E40E9447
:1019A0009158AB01BC01C6010E949F43F40163A1A1
:1019B00074A1C5010E948A44882309F464CFF4010C
:1019C00063A174A1C6010E948A44882309F45BCFF5
:1019D000C4010E94870B57CF2FE4222E312C280CF4
:1019E000391CCE014996F401C080D180E280F38099
:1019F00004811581268137814085518562857385F3
:101A00000E946641C201098D1A8D2B8D3C8D4D8D32
:101A10005E8D6F8D78A10E948140AB01BC01C10138
:101A20000E94A0442DE730E0820E931E0E948C5944
:101A3000F4017183608323E83FEF820E931EF4016B
:101A400083A194A1019709F4DAC0C3010E94E13E89
:101A50007B018C01C4010E94E13E9B01AC01C801E5
:101A6000B7010E94C7405B016C01C2010E940341A3
:101A70007B018C01C3010E94E13E9B01AC01C801C6
:101A8000B7010E94C7409B01AC01D7FAD094D7F8A8
:101A9000D0945058CA01B9010E9491589B01AC01E1
:101AA000C601B5010E94915820E030E040E050E0CE
:101AB0000E94C7407B018C0185E2C82ED12CC80C46
:101AC000D91CC6010E94C7439B01AC01C801B701E4
:101AD0000E949158AB01BC01C6010E94A044EFE7EF
:101AE000F0E08E0E9F1E0E948C59F401718360837A
:101AF00021E83FEF820E931EF40163A174A1C1019E
:101B00000E948A44882309F4BECE59CF84010B5D1C
:101B10001F4FC4010E94E13EAB01BC01C8010E94FD
:101B2000A0442FE730E0820E931E0E948C59F401EE
:101B300071836083129212924F0123E83FEF820E6D
:101B4000931EF40163A174A1C8010E948A448823F2
:101B500009F499CE3DCFC2010E9403417B018C0163
:101B6000C3010E94E13E9B01AC01C801B7010E9484
:101B7000C7402BED3FE049EC5FEB0E941D598823E5
:101B80000CF401CF45E2C42ED12CC80CD91CC201E3
:101B90000E940341AB01BC01C6010E949F43C401E6
:101BA0000E94E13EAB01BC01C6010E94A0442FE7A8
:101BB00030E0820E931E0E948C59F4017183608381
:101BC00021E83FEF820E931EF1CE35E2C32ED12CD9
:101BD000C80CD91CC3010E94E13EAB01BC01C60187
:101BE0000E949F43C4010E94E13EAB01BC01C601BB
:101BF0000E94A044EFE7F0E08E0E9F1EDCCFC301F1
:101C00000E94E13E7B018C01C4010E94E13E9B01E8
:101C1000AC01C801B7010E94C740905820E030E0F5
:101C200040E050E00E94915820E030E040E050E079
:101C30000E94C7407B018C0195E2C92ED12CC80CB3
:101C4000D91CC6010E94C7439B01AC01C801B70162
:101C50000E949158AB01BC01C6010E94A0442FE72D
:101C600030E0820E931E3FCF892B09F00CCE2FE778
:101C700030E0820E931EF4011182108212921292B1
:101C800002CE2F923F924F925F926F927F928F92ED
:101C90009F92AF92BF92CF92DF92EF92FF920F93FB
:101CA0001F93DF93CF93CDB7DEB764970FB6F89449
:101CB000DEBF0FBECDBF4C01A986BA86CB86DC86BF
:101CC000ED86FE860F87188B298B3A8B4B8B5C8BAE
:101CD00083E890E0880E991EF401118210828DE74E
:101CE0009FEF880E991EF40172A361A382E090E039
:101CF00094A383A3B5E24B2E512C480C591CC2016E
:101D00000E94BF43AFE46A2E712C680C791CC3019A
:101D10000E94BF43F40181A192A18130910509F491
:101D200053C0823091050CF4BFC082309105D9F0C8
:101D3000039771F164960FB6F894DEBF0FBECDBF66
:101D4000CF91DF911F910F91FF90EF90DF90CF9097
:101D5000BF90AF909F908F907F906F905F904F90CB
:101D60003F902F9008958401045F1F4FCE01099684
:101D70000E94E13EAB01BC01C8010E94E93EC801DE
:101D80000E94E13EAB01BC01C2010E949F43D2CF41
:101D90008401045F1F4FD801FE0139968CE0019049
:101DA0000D928150E1F781EA99E166ED72E00E94BF
:101DB000EB52C8010E944442C30140E050E060E0A1
:101DC00070E00E949F43DBCFFCE02F2E312C280CCB
:101DD000391CCE0109960E94D13EAB01BC01C10164
:101DE0000E94A04181EA99E166EB72E00E94EB5209
:101DF000C1010E9444428DB79EB70C970FB6F8946C
:101E00009EBF0FBE8DBFADB7BEB71196F1018CE07E
:101E100001900D928150E1F75E010894A11CB11C64
:101E2000C501F401C080D180E280F3800481158176
:101E30002681378140855185628573850E941B40CC
:101E40008401085E1F4FD801F50188E001900D92D2
:101E50008150E1F78DB79EB70C960FB6F8949EBFF0
:101E60000FBE8DBFCE0109960E94D13E20E030E02A
:101E700040E050E00E941D5988231CF4C8010E94D4
:101E80006D40C8010E941742C30140E050E060E08D
:101E900070E00E949F43C1010E94E13EAB01BC0182
:101EA000C2010E949F4346CF892B09F043CF81EAAC
:101EB00099E161EB72E00E940A533CCF6F927F92EE
:101EC0008F929F92AF92BF92CF92DF92EF92FF924A
:101ED0000F931F93DF93CF93CDB7DEB7EC970FB679
:101EE000F894DEBF0FBECDBF5C014E010894811C8B
:101EF000911CC4010E940D408DB79EB70C970FB680
:101F0000F8949EBF0FBE8DBF99E0692E712C6C0EA8
:101F10007D1EADB7BEB71196F5013C968CE00190E1
:101F20000D928150E1F7C301F501C080D180E280BC
:101F3000F380048115812681378140855185628532
:101F400073850E941B40D401F30188E001900D923B
:101F50008150E1F78DB79EB70C960FB6F8949EBFEF
:101F60000FBE8DBFCE014196F501C080D180E280C9
:101F7000F3800481158126813781408551856285F2
:101F800073850E946641C40109891A892B893C899D
:101F90004D895E896F89788D0E94814020E030E014
:101FA00040E050E00E941D5988230CF4B2C081E942
:101FB000882E912C8A0C9B1CC401F501C080D18015
:101FC000E280F38004811581268137814085518527
:101FD000628573850E940746882309F461C00CEA74
:101FE000602E712C6A0C7B1CC301F501C080D1806E
:101FF000E280F380048115812681378140855185F7
:10200000628573850E9407468823A1F0CE01499618
:10201000B3010E946945C401C98CDA8CEB8CFC8C3D
:102020000D8D1E8D2F8D38A149A15AA16BA17CA1C8
:102030000E947445C5010E942D0BC4010E94C84531
:10204000CE0185960E942D3FC50160E070E0ADA0F5
:10205000BEA0CFA0D8A4E9A4FAA40BA51CA52DA5C9
:102060003EA54FA558A90E94410E81EA99E168E07A
:1020700073E00E940A53EC960FB6F894DEBF0FBED1
:10208000CDBFCF91DF911F910F91FF90EF90DF9027
:10209000CF90BF90AF909F908F907F906F9008955A
:1020A0001CEA812E912C8A0C9B1CC401F501C08076
:1020B000D180E280F38004811581268137814085BB
:1020C0005185628573850E9407468823A1F2C50168
:1020D0000E942D0BC4010E94C845CE01C1960E94EA
:1020E0002D3FC50160E070E0A9A8BAA8CBA8DCA884
:1020F000EDA8FEA80FA918AD29AD3AAD4BAD5CAD6A
:102100000E94410E81EA99E16EE173E00E940A5358
:10211000B2CF81EA99E166EF72E00E940A53ABCF39
:102120004F925F926F927F928F929F92AF92BF92E7
:10213000CF92DF92EF92FF920F931F93DF93CF9393
:10214000CDB7DEB764970FB6F894DEBF0FBECDBF34
:102150003C0135E8432E512C480E591EC201F301B3
:10216000C080D180E280F38004811581268137818F
:1021700040855185628573850F2EFAE98F2EF9E926
:102180009F2EF9E9AF2EFEE3BF2EF02D0E94593F9E
:102190004DB75EB74C5050400FB6F8945EBF0FBEBF
:1021A0004DBFADB7BEB71196F2018CE001900D9214
:1021B0008150E1F75E010894A11CB11CC501F30137
:1021C000C080D180E280F38004811581268137812F
:1021D00040855185628573850E941B404FE750E022
:1021E000640E751EF3012081318141E85FEF640EBA
:1021F000751E37FD17C18DE790E0680E791EF3015B
:102200008081918143E85FEF640E751E97FD06C1E2
:10221000280F391F8DB79EB70C960FB6F8949EBF46
:102220000FBE8DBF2233310594F0C5010E94E941F4
:1022300020E030E040E251E40E941D598823F4F090
:1022400043E850E0640E751EF3011182108264961B
:102250000FB6F894DEBF0FBECDBFCF91DF911F91B7
:102260000F91FF90EF90DF90CF90BF90AF909F9035
:102270008F907F906F905F904F900895D62CC72CD1
:10228000C3010E94E13E7B018C01C2010E94E13E3C
:102290009B01AC01C801B7010E94905820E030E0DA
:1022A00040E050E00E94D65A18160CF08BC0C301D3
:1022B0000E94E13E7B018C01C2010E94E13E9B0134
:1022C000AC01C801B7010E9490582DEC3CEC4CE4E5
:1022D0005DE30E941D5987FFB3CF23E8822E912C26
:1022E000860C971CF40180819181019691838083F3
:1022F00081EA99E164E373E00E94EB528D2D9C2DFD
:102300000E94E13E7B018C01C2010E94E13E9B01E3
:10231000AC01C801B7010E94905820E030E040E0D5
:1023200050E00E94D65A18160CF064C08D2D9C2DDA
:102330000E94E13E7B018C01C2010E94E13E9B01B3
:10234000AC01C801B7010E94905820E030E048EC91
:1023500052E40E94E15AA62F482F692F81EA99E1A1
:102360002A2F372FE42FF62FA901BF0122E030E0FA
:102370000E945754F4018081918145970CF467CFF6
:10238000C3010E942D0B81EA99E164E473E00E948D
:102390000A53CE0109960E942D3FC30160E070E010
:1023A000A984BA84CB84DC84ED84FE840F851889EB
:1023B00029893A894B895C890E94410EF401118276
:1023C000108245CFC3010E94E13E7B018C01C20116
:1023D0000E94E13E9B01AC01C801B7010E949058E8
:1023E0002DEC3CEC4CE45DEB0E94D65A18160CF038
:1023F00027CF73CF8D2D9C2D0E94E13E7B018C0158
:10240000C2010E94E13E9B01AC01C801B7010E94DC
:10241000905820E030E048EC52EC9BCF90958195AD
:102420009F4FF6CE309521953F4FE5CEAF92BF92AC
:10243000CF92DF92EF92FF920F931F93DF93CF9390
:10244000CDB7DEB72C970FB6F894DEBF0FBECDBF69
:102450005C01C982DA82EB82FC820D831E832F83AA
:10246000388749875A876B877C87DC01FE01319664
:102470008CE001900D928150E1F7C5010E94D40BD0
:10248000C5010E94570AF50181A192A181309105F1
:10249000B9F0892B89F42C960FB6F894DEBF0FBEE5
:1024A000CDBFCF91DF911F910F91FF90EF90DF9003
:1024B000CF90BF90AF900895C5010E949010EBCFD0
:1024C00080A18823C9F3C5010E945E0FF50181A197
:1024D00092A1DFCFAF92BF92CF92DF92EF92FF92A5
:1024E0000F931F938C016130710509F469C062304C
:1024F0007105C1F1672B69F581EA99E164E573E043
:102500000E940A536FE4A62EB12CA00EB11EC50185
:1025100064E670E00E9495430B5D1F4FC80164E6BE
:1025200070E00E949543C80140E050E068E473E425
:1025300000E010E020E030E0680179010E94A5434E
:10254000C50140E050E060EC7FE3970186010E9406
:10255000A5431F910F91FF90EF90DF90CF90BF9018
:10256000AF90089581EA99E162E773E00E940A530F
:102570004FE4A42EB12CA00EB11EC5016AEF70E08D
:102580000E9495430B5D1F4FC8016AEF70E00E94E7
:102590009543C80140E050E068EC72E400E010E0D0
:1025A00020E030E0680179010E94A543C50140E0C8
:1025B00050E060E07FE3970186010E94A543C9CF08
:1025C00081EA99E162E673E00E940A535FE4A52E76
:1025D000B12CA00EB11EC50166E970E00E949543C2
:1025E0000B5D1F4FC80166E970E00E949543C8016A
:1025F00040E050E066E173E400E010E020E030E00D
:10260000680179010E94A543C50140E050E060E8FF
:102610007FE3970186010E94A5439BCFAF92BF92B3
:10262000CF92DF92EF92FF920F931F93DF93CF939E
:10263000CDB7DEB72C970FB6F894DEBF0FBECDBF77
:102640005C0160E070E00E946A12CE01019640E0F9
:1026500050E06AE774EC00E010E020E030E0680150
:1026600079010E943F3FC50161E070E0A980BA8016
:10267000CB80DC80ED80FE800F81188529853A852E
:102680004B855C850E94410E2C960FB6F894DEBFF8
:102690000FBECDBFCF91DF911F910F91FF90EF90B3
:1026A000DF90CF90BF90AF9008958F929F92AF929E
:1026B000BF92CF92DF92EF92FF920F931F93DF931F
:1026C000CF93CDB7DEB768970FB6F894DEBF0FBED5
:1026D000CDBF4C010E942D3FC4010C960E942D3F9E
:1026E000C40148960E940D40F40110A212A211A24A
:1026F00083E090E094A383A38DB79EB708970FB6AD
:10270000F8949EBF0FBE8DBF87EA97EEAEE0BEE3A2
:10271000EDB7FEB781839283A383B48387EA97EEF4
:10272000AEE8BDE385839683A783B087C401859611
:1027300061E020E030E048E453E40F2EF0E0EF2EBB
:10274000F0E0FF2EF0E00F2FF0E01F2FF02D5701EB
:1027500068010E94464380E090E0A0EAB2E4EDB751
:10276000FEB781839283A383B48380E090E0A0EFDF
:10277000B1E485839683A783B087C401815B9F4FB3
:1027800060E020E030E040EC5FE30E94464389E7F0
:1027900090E0880E991EF401119211924F0111825E
:1027A000108286E090E0880E991E81E0F40181930A
:1027B00081934F01118210828DE79FEF880E991E41
:1027C000EDB7FEB738960FB6F894FEBF0FBEEDBF5B
:1027D000C4018B579F4F0E942D3FCE01019640E0D0
:1027E00050E068EC72E400E010E02FE133E47601A1
:1027F00065010E943F3FC4018F569F4F6CE370E01C
:10280000A980BA80CB80DC80ED80FE800F811885A6
:1028100029853A854B855C850E949147CE010D96AE
:1028200040E050E068EC72E400E010E02FE133ECAF
:102830000F2EF0E0CF2EF0E0DF2EF0E0EF2EF0E0F4
:10284000FF2EF02D0E943F3FC40184559F4F6DE342
:1028500070E0AD84BE84CF84D888E988FA880B897B
:102860001C892D893E894F89588D0E949147C4014A
:1028700060E070E00E946A1268960FB6F894DEBFBE
:102880000FBECDBFCF91DF911F910F91FF90EF90C1
:10289000DF90CF90BF90AF909F908F90089585E08C
:1028A0000E9458580197A1F08091BE169091BF16D2
:1028B000A091C016B091C1160197A109B1098093EA
:1028C000BE169093BF16A093C016B093C11608957C
:1028D0008091BE169091BF16A091C016B091C116FE
:1028E0000196A11DB11D8093BE169093BF16A093B3
:1028F000C016B093C116089584E00E9458580197FD
:10290000A1F08091BA169091BB16A091BC16B0911F
:10291000BD160196A11DB11D8093BA169093BB16EA
:10292000A093BC16B093BD1608958091BA169091ED
:10293000BB16A091BC16B091BD160197A109B109B3
:102940008093BA169093BB16A093BC16B093BD1695
:10295000089587E10E945858019739F18091B61681
:102960009091B716A091B816B091B9160197A10928
:10297000B1098093B6169093B716A093B816B0938A
:10298000B9168091C6169091C716A091C816B0913D
:10299000C9160197A109B1098093C6169093C7166D
:1029A000A093C816B093C91608958091B616909159
:1029B000B716A091B816B091B9160196A11DB11D18
:1029C0008093B6169093B716A093B816B093B91625
:1029D0008091C6169091C716A091C816B091C916DD
:1029E0000196A11DB11D8093C6169093C716A093A2
:1029F000C816B093C916089586E10E9458580197E9
:102A000039F18091B2169091B316A091B416B0919D
:102A1000B5160196A11DB11D8093B2169093B31601
:102A2000A093B416B093B5168091C2169091C316B8
:102A3000A091C416B091C5160196A11DB11D809339
:102A4000C2169093C316A093C416B093C5160895EA
:102A50008091B2169091B316A091B416B091B516AC
:102A60000197A109B1098093B2169093B316A09370
:102A7000B416B093B5168091C2169091C316A0916A
:102A8000C416B091C5160197A109B1098093C21669
:102A90009093C316A093C416B093C5160895FC0175
:102AA000EA5BFF4F608308959C01235E3F4FC9019D
:102AB00008959C01205C3F4FC90108959C0129574E
:102AC0003F4FC90108959C0122533F4FC90108950A
:102AD0009C012F523F4FC901089508959C012D5D1F
:102AE0003F4FC90108959C01235C3F4FC9010895E0
:102AF000EF92FF920F931F938C0181EAE82E89E1F8
:102B0000F82EC70160E873E00E940A53C70167E925
:102B100073E00E94EB52F80160897189C7014AE0B5
:102B200050E00E94CC521F910F91FF90EF900895BA
:102B3000EF92FF920F931F93CF93DF93FC01EC0171
:102B4000CD5BDF4F8881882341F480E0DF91CF9116
:102B50001F910F91FF90EF900895FF96E080F18014
:102B6000028113810E94BB56E616F7060807190773
:102B700060F7188281E0DF91CF911F910F91FF9054
:102B8000EF900895CF92DF92EF92FF920F931F93F1
:102B90006C017B010E94BB562FE330E0C20ED31EB6
:102BA0000027F7FC0095102FE60EF71E081F191FCF
:102BB000F601E192F1920193119381E080831F91DC
:102BC0000F91FF90EF90DF90CF900895EF92FF92DA
:102BD0000F931F93CF93DF93EC018C85882341F4EF
:102BE00080E0DF91CF911F910F91FF90EF900895BA
:102BF000E884F9840A851B850E94BB56E616F70611
:102C00000807190768F71C8681E0DF91CF911F91B3
:102C10000F91FF90EF900895CF92DF92EF92FF9285
:102C20000F931F936C017B010E94BB560027F7FC9A
:102C30000095102FE60EF71E081F191FF601E086FB
:102C4000F1860287138781E084871F910F91FF909F
:102C5000EF90DF90CF900895EF92FF920F931F9324
:102C6000CF93DF93EC018F85882341F480E0DF91DF
:102C7000CF911F910F91FF90EF900895EB84FC840A
:102C80000D851E850E94BB56E616F7060807190734
:102C900068F71F8681E0DF91CF911F910F91FF9020
:102CA000EF900895CF92DF92EF92FF920F931F93D0
:102CB0006C017B010E94BB560027F7FC0095102F8A
:102CC000E60EF71E081F191FF601E386F486058736
:102CD000168781E0878781EA99E166EA73E00E94BE
:102CE000EB521F910F91FF90EF90DF90CF900895DE
:102CF000AF92BF92CF92DF92EF92FF920F931F930A
:102D0000CF93DF93EC010E94BB565B016C01EC8416
:102D1000FD840E851F85CE010E940443882359F44B
:102D2000DF91CF911F910F91FF90EF90DF90CF90A7
:102D3000BF90AF900895CE010E942343B5016E1954
:102D40007F09882777FD8095982F0E94BF597B01C6
:102D50008C0120E030E040E050E00E94D65A181686
:102D6000FCF68889882339F56091CE167091CF16CC
:102D70008091D0169091D1160E94BF5920E030E08A
:102D800048EC52E40E94E15AA80197010E9424599C
:102D9000688779878A879B871092CE161092CF1604
:102DA0001092D0161092D1160E94BB566C877D8768
:102DB0008E879F87B5CF6091CA167091CB16809190
:102DC000CC169091CD160E94BF5920E030E048EC1F
:102DD00052E40E94E15AA80197010E942459688791
:102DE00079878A879B871092CA161092CB16109209
:102DF000CC161092CD16D8CFFF920F931F938C0153
:102E0000F62E64E670E00E943043F801F08A1F91CC
:102E10000F91FF9008956CED75E00E945948089558
:102E2000FC018485882331F4CF016CE677E00E94B1
:102E300059480895CF016CE474E00E945948089500
:102E4000FC018485882331F4CF016CE474E00E9496
:102E500059480895CF016CE677E00E9459480895DB
:102E6000FC018381882331F4CF016AEF75E00E9471
:102E700059480895CF0166EF74E00E9459480895BB
:102E8000FC018381882331F4CF0168EB76E00E9456
:102E900059480895CF0166EB73E00E9459480895A0
:102EA000FC018381882331F4CF016CE974E00E9436
:102EB00059480895CF0160E476E00E94594808958A
:102EC000FC01638174810E9459480895FC0180E2ED
:102ED00093E094838383CF0160E273E00E945948BA
:102EE000089564E378E00E94594808956FE077E020
:102EF0000E945948089560E476E00E945948089578
:102F00006CEB72E00E94594808956CED75E00E94E8
:102F10005948089568E978E00E9459480895CF9388
:102F2000DF93EC01888999898430910509F488C080
:102F300085309105FCF08630910509F4A4C08630F7
:102F4000910574F18730910509F452C0089729F56D
:102F5000CE0160ED77E00E945216CE0108960E94E5
:102F6000801781EA99E162E774E00E940A53DF91D9
:102F7000CF9108958130910509F44CC082309105BC
:102F80000CF18230910509F46DC0039731F481EAA8
:102F900099E169E074E00E940A53DF91CF910895AE
:102FA000CE016CE271E00E945216CE0108960E949A
:102FB000851781EA99E16CE374E00E940A53DF917E
:102FC000CF910895892B49F7CE0105960E94761777
:102FD000CE010E947117CE0108960E94851781EAE2
:102FE00099E164EB73E00E940A53DF91CF91089559
:102FF000CE0160ED77E00E945216CE0108960E9445
:10300000851781EA99E162E774E00E940A53DF9133
:10301000CF910895CE0160E273E00E945216CE0176
:1030200005960E947B17CE0108960E948A1781EAB6
:1030300099E163ED73E00E940A53DF91CF91089507
:10304000CE0164EF71E00E945216CE0105960E94F7
:10305000761781EA99E162E274E00E940A53DF91F7
:10306000CF910895CE0164EF71E00E945216CE0117
:103070000E94661781EA99E161EF73E00E940A53AA
:10308000DF91CF910895CE0160ED77E00E94521656
:10309000CE0108960E94801781EA99E166E574E006
:1030A0000E940A53DF91CF9108950F931F93CF93FE
:1030B000DF938C01EB0181EA99E167E974E00E94FA
:1030C0000A5381EA99E168E974E00E94EB5281EACF
:1030D00099E1BE014AE050E00E94CC52CE01019736
:1030E000029708F481C0209709F458C081EA99E159
:1030F0006FEF74E00E94EB52F8016089718981EAF8
:1031000099E14AE050E00E94CC52F801808991890F
:103110008430910509F485C08530910564F18630CD
:10312000910509F490C0863091050CF44CC08730AD
:10313000910509F46DC0089761F5CD2B51F5F801A3
:10314000118A108A81EA99E168E375E00E94EB52E6
:10315000F8016089718981EA99E14AE050E00E94B2
:10316000CC52F8011786C8010E948F17DF91CF91CA
:103170001F910F9108958130910509F45BC0823051
:1031800091054CF18230910509F47BC0039709F455
:1031900063C0DF91CF911F910F91089581EA99E16A
:1031A00066EB74E00E940A5381EA99E16DED74E0E8
:1031B0000E94EB5281EA99E160E070E04AE050E061
:1031C0000E94CC5293CF229721F786E090E0F8013D
:1031D000918B808BB7CF892BE1F6C130D105C9F631
:1031E000F801D18BC08BAECF81EA99E166EB74E038
:1031F0000E940A5381EA99E168EB74E00E94EB5265
:1032000081EA99E1BE014AE050E00E94CC526BCFC6
:10321000CD2B09F0BECF88E090E0F801918B808B38
:1032200091CFCD2B09F0B5CF85E090E0F801918BDF
:10323000808B88CFCD2B09F0ACCF82E090E0F801F5
:10324000918B808B7FCFCD2B09F0A3CF87E090E0CF
:10325000F801918B808B76CF239709F09ACF84E089
:1032600090E0F801918B808B81EA99E16FE175E044
:103270000E940A53F80180899189039709F062CF6F
:1032800088CFCD2B09F085CF83E090E0F801918BBA
:10329000808B58CF0F931F93CF93DF938C01EC015A
:1032A0006296CE010E940443882329F4DF91CF91D6
:1032B0001F910F910895CE010E942343C8010E94DF
:1032C0002C168823F9F4F80180899189039771F706
:1032D00083819481F8E084339F07D1F00A96F80146
:1032E00094838383855398402CF084E398E0F8011D
:1032F00094838383C8010E946017DF91CF911F914F
:103300000F910895C80160E070E00E945518DBCF6E
:10331000C80163E070E00E945518C8CF6AE377E007
:103320000E945948089564E276E00E945948089541
:10333000FC018081882339F4CF0101966AE678E0A8
:103340000E9459480895CF0101966DE574E00E94EE
:1033500059480895FC018081882339F4CF010196F2
:1033600065E977E00E9459480895CF01019661EE22
:1033700074E00E9459480895FC018081882339F443
:10338000CF01019661EA75E00E9459480895CF0186
:10339000019668E677E00E9459480895FC01808113
:1033A000882339F4CF01019663E974E00E945948FB
:1033B0000895CF0101966AE177E00E945948089587
:1033C000FC018081882339F4CF01019669E477E01C
:1033D0000E9459480895CF0101966DE674E00E945D
:1033E00059480895CF93DF93EC01CC5BDF4FE88120
:1033F000F981C454D040EF3DF105E0F4EE58FF4FA1
:10340000EE0FFF1F0590F491E02D1994CA5BDF4F7A
:103410008881C654D040882309F490C182E090E0AE
:10342000988B8F8781E08E8781EA99E16CEE77E057
:103430000E940A53DF91CF910895CE0168EC70E0AD
:103440000E94C215CE0143960E94BC1981EA99E1FF
:1034500061E975E00E940A53EDCFCE0168EC70E09F
:103460000E94C215CE0101960E944017CE014396DC
:103470000E949819CE0147960E94CE1981EA99E1DF
:103480006EEC77E00E940A53D5CFCE0168EC70E075
:103490000E94C215CE0143960E94BC19CE014796E8
:1034A0000E94E01981EA99E16DEA77E00E940A53EF
:1034B000C1CFCE0101960E944017188A1F8681E075
:1034C0008E8781EA99E16CE877E00E940A53B2CFD7
:1034D000CE0168EC70E00E94C215CE0101960E94F8
:1034E000501781EA99E16DE677E00E940A53A2CF76
:1034F0008881882309F429C181EA99E16EE177E0A6
:103500000E940A5381EA99E16EE477E00E940A532F
:1035100091CF82E090E0988B8F8781E08E8781EA5F
:1035200099E16DEF76E00E940A5384CFCE0168ECFA
:1035300070E00E94C215CE0101960E94401781EAF8
:1035400099E16CED76E00E940A5374CF81E090E03F
:10355000988B8F8781E08E8781EA99E16BEB76E02B
:103560000E940A5367CFCE0168EC70E00E94C2153A
:10357000CE0143960E949819CE0147960E94CE191B
:10358000CE0101960E94301781EA99E16AE976E05E
:103590000E940A534FCFCE0168EC70E00E94C21522
:1035A000CE0143960E949819CE0147960E94CE19EB
:1035B00081EA99E16DE776E00E940A533BCFCE01A4
:1035C00068EC70E00E94C21581EA99E162E676E05B
:1035D0000E940A532FCFCE0168EC70E00E94C21502
:1035E000CE0143960E94BC19CE0147960E94E01975
:1035F00081EA99E16BE476E00E940A531BCF188AB6
:103600001F8681E08E8781EA99E162E376E00E947D
:103610000A5310CFCE0168EC70E00E94C215CE01B3
:1036200001960E94401781EA99E169E176E00E94E3
:103630000A5300CF81E090E0988B8F8781E08E87DE
:1036400081EA99E164E076E00E940A53F3CECE016C
:1036500068EC70E00E94C215CE0101960E943017FE
:10366000CE0143960E94AA1981EA99E16DEE75E0B8
:103670000E940A53DFCECE0168EC70E00E94C215B2
:10368000CE0101960E94301781EA99E165ED75E05F
:103690000E940A53CFCECE0162E370E00E94C215B1
:1036A00081EA99E16BEB75E00E940A53C3CECE012B
:1036B00062E370E00E94C21581EA99E167EA75E071
:1036C0000E940A53B7CECE0164E670E00E94C21594
:1036D000CE0147960E94E01981EA99E16FE775E013
:1036E0000E940A53A7CECE0168EC70E00E94C2157A
:1036F000CE0143960E949819CE0147960E94CE199A
:1037000081EA99E167E675E00E940A5393CECE0103
:1037100001960E944017188A1F8681E08E87CE018D
:1037200043960E94BC19CE0147960E94E01981EA97
:1037300099E164E575E00E940A537CCE81E090E057
:10374000988B8F8781E08E876FCE81EA99E166E35F
:1037500077E00E940A53D6CECF92DF92EF92FF928B
:103760000F931F93CF93DF937C01EB0181EA99E1E3
:1037700067E974E00E940A5381EA99E16AE078E01F
:103780000E94EB5281EA99E1BE014AE050E00E94BA
:10379000CC52C130D10561F0C330D10549F0C430FD
:1037A000D10531F0C530D10519F0C630D10599F4F5
:1037B00081EA99E166EB74E00E940A5381EA99E19B
:1037C0006DE278E00E94EB5281EA99E1BE014AE0A5
:1037D00050E00E94CC52209709F460C0C730D10558
:1037E00009F474C081EA99E16BEB78E00E94EB5236
:1037F00087010C5B1F4FF8016081718181EA99E1BB
:103800004AE050E00E94CC5281EA99E160EE78E013
:103810000E94EB52F70161AD72AD81EA99E14AE095
:1038200050E00E94CC52F801C080D180F601EF3DFB
:10383000F10558F5EF5AFE4FEE0FFF1F0590F4917A
:10384000E02D1994CD2B09F581E190E0F8019183E9
:10385000808381EA99E163ED79E00E94EB52F801FF
:103860006081718181EA99E14AE050E00E94CC5286
:1038700023E430E0E20EF31EF70110822DEB3FEF60
:10388000E20EF31EC7010E94F219DF91CF911F9142
:103890000F91FF90EF90DF90CF90089581EA99E12A
:1038A00066EB74E00E940A5381EA99E167E578E0EB
:1038B0000E94EB5281EA99E160E070E04AE050E05A
:1038C0000E94CC528FCF279701F7BECF81EA99E1B2
:1038D00066EB74E00E940A5381EA99E169E878E0B6
:1038E0000E94EB5281EA99E167E070E04AE050E023
:1038F0000E94CC5277CFCD2B41F683E090E0F801C7
:1039000091838083A6CFCD2B09F0BFCF86E190E0D5
:10391000F801918380839DCFCD2B09F0B6CFF801BC
:1039200011821082F7018081882309F41BC181EA8A
:1039300099E169EA79E00E940A53F8018081918156
:10394000C816D90609F085CFA0CF279709F09DCFDB
:1039500084E190E0F801918380837BCF269709F082
:1039600094CF83E190E0F80191838083F70112AE58
:1039700011AE8081882309F4FFC081EA99E161E8F2
:1039800079E00E940A53F80180819181D9CF25976F
:1039900009F07BCF82E190E0F8019183808359CFD9
:1039A000CD2B09F072CF80E190E0F8019183808304
:1039B00050CF279709F069CF8FE090E0F80191830D
:1039C000808347CFCD2B09F060CF8EE090E0F801E7
:1039D000918380833ECFCD2B09F057CFF70181AD86
:1039E00092AD04970CF4B8C026E430E0E20EF31E6A
:1039F000F70180812AEB3FEFE20EF31E882309F4E2
:103A0000DDC08DE090E0F8019183808322CFCD2B43
:103A100009F03BCFF80111821082F70180818823E1
:103A200009F490C081EA99E169E579E00E940A53BE
:103A3000F8018081918184CF279709F026CF8AE011
:103A400090E0F8019183808304CFCD2B09F01DCF46
:103A500089E090E0F80191838083FBCE279709F0FD
:103A600014CF88E090E0F80191838083F2CECD2BD3
:103A700009F00BCF87E090E0F80191838083E9CED5
:103A8000CD2B09F002CFF80111821082E2CECD2BAE
:103A900009F0FBCEF70181AD92AD019692AF81AFF7
:103AA00026E030E0F8013183208304970CF4D1CE76
:103AB00085E090E091838083CCCECD2B09F0E5CEDC
:103AC000C7018C960E941948882309F466C084E0D7
:103AD00090E0F80191838083BCCECD2B09F0D5CE48
:103AE0008EED90E0F80191838083B3CEC230D10592
:103AF00051F2239709F0C9CE82E090E0F80191835A
:103B00008083A7CEC130D10531F02497A9F0F80108
:103B10008081918115CFF801D183C083F701808125
:103B20008823A1F181EA99E163EF78E00E940A53CA
:103B3000F8018081918104CF8BE090E0F8019183BE
:103B40008083FECE81EA99E16DE679E00E940A5316
:103B5000F80180819181F4CE85E190E0F8019183B4
:103B6000808377CE81EA99E16EEB79E00E940A5377
:103B7000F80180819181E4CE81EA99E165E979E0FB
:103B80000E940A53F80180819181DACE81EA99E19D
:103B90006EE079E00E940A53B8CFF80111821082DA
:103BA000F7018081882381F081EA99E169E279E077
:103BB0000E940A53F80180819181C2CE8CE090E08E
:103BC000F8019183808345CE81EA99E161E479E04F
:103BD0000E940A539CCF6CED75E00E9459480895ED
:103BE0006CED75E00E945948089564ED74E00E9400
:103BF0005948089568EE73E00E945948089563E8B3
:103C000075E00E94594808950F931F938C01039605
:103C100064E175E00E945948C80164E175E00E94C2
:103C200059481F910F9108950F931F938C0103968C
:103C300068EE73E00E945948C80168EE73E00E9484
:103C400059481F910F910895FC018081882339F410
:103C5000CF01019664EC77E00E9459480895CF01A6
:103C600001966CE875E00E9459480895FC01808136
:103C7000882339F4CF0101966DE674E00E9459481B
:103C80000895CF01019661E478E00E9459480895B3
:103C9000CF93DF93EC018D859E858430910509F4E7
:103CA0008EC085309105FCF08630910509F4ABC0DB
:103CB00086309105BCF18730910509F45CC0089706
:103CC00071F5CE0164E670E00E940C16CE014796B5
:103CD0000E94141E81EA99E166EF7AE00E940A537D
:103CE000DF91CF9108958130910509F456C082305B
:103CF000910554F18230910509F473C0039779F46A
:103D0000CE0168EC70E00E940C16CE0147960E942E
:103D1000041E81EA99E16AE47AE00E940A53DF9185
:103D2000CF910895CE0164E670E00E940C16CE019A
:103D300043960E94361E81EA99E16AE87AE00E9481
:103D40000A53DF91CF910895892B49F7CE01479609
:103D50000E94141ECE0143960E94361ECE010F967D
:103D60000E94361E81EA99E167EF79E00E940A53CA
:103D7000DF91CF910895CE0164E670E00E940C16A9
:103D8000CE010F960E94361E81EA99E162ED7AE03B
:103D90000E940A53DF91CF910895CE0164EF71E044
:103DA0000E940C16CE010F960E94241E81EA99E112
:103DB00060E17AE00E940A53DF91CF910895CE012D
:103DC00060ED77E00E940C16CE0143960E94241EFF
:103DD00081EA99E166E67AE00E940A53DF91CF9189
:103DE0000895CE0164EF71E00E940C16CE01439657
:103DF0000E94241E81EA99E16DE27AE00E940A5352
:103E0000DF91CF910895CE0160ED77E00E940C160E
:103E1000CE010F960E94241E81EA99E16EEA7AE0B3
:103E20000E940A53DF91CF910895EF92FF920F9372
:103E30001F93CF93DF937C01EB0181EA99E167E95E
:103E400074E00E940A5381EA99E160E17BE00E94FC
:103E5000EB5281EA99E1BE014AE050E00E94CC5267
:103E6000CE010197039708F472C0209709F45AC055
:103E700081EA99E164E87BE00E94EB52F7016585F5
:103E8000768581EA99E14AE050E00E94CC52F70140
:103E9000058516850430110509F4D7C005301105D4
:103EA00054F10630110509F4AEC0063011050CF0CE
:103EB00062C0CD2B81F586E090E0F701968785877B
:103EC00081EA99E165EE7BE00E94EB52F70165859E
:103ED000768581EA99E14AE050E00E94CC52F701F0
:103EE0001486C7010E94481EDF91CF911F910F9148
:103EF000FF90EF9008950130110509F496C002304B
:103F000011050CF44EC00230110509F46CC00330E9
:103F1000110509F45FC0DF91CF911F910F91FF90C0
:103F2000EF90089581EA99E166EB74E00E940A53EC
:103F300081EA99E164E57BE00E94EB5281EA99E134
:103F400060E070E04AE050E00E94CC5291CF81EAFC
:103F500099E166EB74E00E940A5381EA99E16CE210
:103F60007BE00E94EB5281EA99E1BE014AE050E019
:103F70000E94CC527ACF0730110509F44DC00830A9
:103F8000110549F6CD2B39F6F7011686158681EA1B
:103F900099E163ED7BE00E940A53F70185859685E0
:103FA00014C00115110509F0B6CFC130D10509F4CF
:103FB0005BC0C230D10509F451C0239709F0ABCFE3
:103FC00081E090E0F701968785870817190709F0C7
:103FD00077CFA1CFCD2B09F09ECF84E090E0F70101
:103FE000968785876DCFCD2B09F095CFF701168683
:103FF000158681EA99E167EA7BE00E940A53F7019E
:1040000085859685E2CFCD2B09F085CF87E090E0BE
:10401000F7019687858754CFCD2B09F07CCF88E0B8
:1040200090E0F701968785874BCFCD2B09F073CFB2
:10403000F7011686158681EA99E16DEB7BE00E9417
:104040000A53F70185859685C0CFCD2B09F063CF44
:1040500085E090E0F7019687858732CFF701D68714
:10406000C58782E090E0B1CF83E090E0F7019687CA
:10407000858726CF61E070E00E94151F089563E0F8
:1040800070E00E94151F089562E070E00E94151F05
:104090000895CF93DF93EC010E94E615882329F061
:1040A000CE0160E070E00E94151FDF91CF9108956E
:1040B0000F931F938C0103966CE677E00E9459489A
:1040C000C80164ED74E00E9459481F910F91089552
:1040D0000F931F938C01039665E478E00E94594882
:1040E000C80160E374E00E9459481F910F91089540
:1040F000EF92FF920F931F93CF93DF93EC018C010C
:104100000A5F1F4FC8010E94F7478823C9F08C85BA
:104110008823D1F11092BE161092BF161092C016CD
:104120001092C116E090BE16F090BF1689858823C4
:1041300089F4DF91CF911F910F91FF90EF90089537
:104140008C85882379F7E090BA16F090BB168985A4
:10415000882379F38A859B850097F9F08130910552
:10416000E1F1029731F7C7018B599140439708F469
:1041700055C08AEAE81681E0F8060CF04AC0CE0184
:104180000E9410171D86D5CF1092BA161092BB163A
:104190001092BC161092BD16D6CFC8010E94F747E8
:1041A000882381F1CE010E940B1781EA99E163E532
:1041B0007CE00E940A53198681E08D878C858823D4
:1041C00009F440C01092BE161092BF161092C0168D
:1041D0001092C1168A859B85C1CFCE0103960E949D
:1041E000F747882341F1CE010E940B1781EA99E13C
:1041F00062E77CE00E940A53198681E08D878A85F8
:104200009B85AFCFCE010E9420171D868A859B8596
:10421000A5CFCE010E9420171D868BCFCE010E9414
:104220000B1781EA99E160E97CE00E940A53198644
:1042300081E08D877ECFCE010E9410171D868A8572
:104240009B858FCF1092BA161092BB161092BC1697
:104250001092BD168A859B8581CF0F931F93CF93B4
:10426000DF93EC018C01055E1F4FC8010E94781698
:10427000CE0105960E947820C8010E9478168E0112
:104280000F5C1F4FC8010E940443882329F4DF916B
:10429000CF911F910F910895C8010E942343CE0131
:1042A0000E949815882371F48A89882381F31A8AD9
:1042B000CE0167E070E00E94AC1BDF91CF911F91AF
:1042C0000F910895CE0160E070E00E94AC1BECCF2E
:1042D000EF92FF920F931F93CF93DF93EC01805CDB
:1042E0009F4F0E942D21CE0189579F4F0E942D2163
:1042F0008E010D5D1F4FC8010E944A19CE010E9418
:10430000492090ECE92EF12CEC0EFD1EF701808186
:104310009181039734F0FE01E652FF4F808188239C
:10432000B1F58E0107581F4FF801808191810397E5
:1043300034F0FE01E752FF4F8081882339F4DF918A
:10434000CF911F910F91FF90EF9008951082CE01B1
:10435000CD960E948E1981EA99E16AEF7CE00E9475
:10436000EB52F8016081718181EA99E14AE050E005
:104370000E94CC5281EA99E162E27DE00E940A53F8
:10438000DF91CF911F910F91FF90EF9008951082D0
:10439000C80162E070E00E94551881EA99E16CEA78
:1043A0007CE00E94EB52F7016081718181EA99E122
:1043B0004AE050E00E94CC5281EA99E164ED7CE051
:1043C0000E940A53AECFCF93DF93EC018C858823F4
:1043D00009F041C081EA99E162E17EE00E940A535E
:1043E00081EA99E163E37EE00E94EB52CE010696FA
:1043F0000E94F747682F81EA99E170E04AE050E0B7
:104400000E94CC5281EA99E162E57EE00E94EB5283
:10441000CE0103960E94F747682F81EA99E170E088
:104420004AE050E00E94CC5281EA99E160E77EE0E8
:104430000E94EB524091BA165091BB166091BC1687
:104440007091BD1681EA99E12AE030E00E94A55200
:10445000DF91CF91089581EA99E168E47DE00E94BF
:104460000A5381EA99E16DE77DE00E94EB52CE01AB
:1044700006960E94F747682F81EA99E170E04AE0CA
:1044800050E00E94CC5281EA99E160EB7DE00E940D
:10449000EB52CE0103960E94F747682F81EA99E11B
:1044A00070E04AE050E00E94CC5281EA99E162EE6D
:1044B0007DE00E94EB524091BE165091BF16609174
:1044C000C0167091C11681EA99E12AE030E00E949D
:1044D000A552DF91CF910895EF92FF920F931F9312
:1044E0008C0105960E94E32121EAE22E29E1F22EB9
:1044F000C7016CE87EE00E94EB52045D1F4FC801CB
:104500000E943A48BC01C7014AE050E00E94B952FB
:10451000C7016DE97EE00E94EB52C8010E94194874
:10452000682FC70170E04AE050E00E94CC521F9112
:104530000F91FF90EF900895CF92DF92EF92FF924C
:104540001F93CF93DF93EC01162F7A0169010E942C
:104550003F48CE010396B7010E94D747CE01069689
:10456000B6010E94D7471D861C87112399F4CE01FE
:1045700068E170E00E94534981EA99E16CEB7EE0CA
:104580000E940A53DF91CF911F91FF90EF90DF902F
:10459000CF900895CE0169E170E00E94534981EA0D
:1045A00099E16BEA7EE00E940A53DF91CF911F915F
:1045B000FF90EF90DF90CF9008951F93CF93DF93FC
:1045C000EC01162F0E943F481B83112391F4CE016A
:1045D00069E270E00E94534981EA99E162EE7EE06F
:1045E0000E940A53CE010E944017DF91CF911F9184
:1045F0000895CE016AE270E00E94534981EA99E190
:104600006DEC7EE00E940A53CE010E944017DF91BC
:10461000CF911F9108950F931F938C010E943F48E3
:1046200080E293E0F80194838383C80168E270E03C
:104630000E945349C8010E94711781EA99E167EF0E
:104640007EE00E940A531F910F9108950F931F93CC
:10465000182F092F0E943F48812F902F67E270E0AA
:104660000E945349812F902F0E94761781EA99E189
:104670006BE07FE00E940A531F910F9108950F9302
:104680001F93182F092F0E943F48812F902F66E219
:1046900070E00E945349812F902F0E94851781EA74
:1046A00099E161E27FE00E940A531F910F91089502
:1046B0000F931F938C010E940B23C80105960E9443
:1046C0002623C80108960E943F23F8011786118A05
:1046D000108AC801429662E370E00E94304381EA8A
:1046E00099E160E37FE00E940A531F910F910895C2
:1046F0000F931F93182F092F0E943F48812F902F4F
:1047000065E270E00E945349812F902F0E94931917
:1047100081EA99E163E47FE00E940A531F910F91BF
:104720000895EF92FF921F93CF93DF937C01162F92
:10473000EC012196CE010E943F48F701108311231E
:10474000A1F4CE0160E270E00E94534981EA99E150
:1047500060E77FE00E940A53C7010E94BC19DF9105
:10476000CF911F91FF90EF900895CE0161E270E02C
:104770000E94534981EA99E166E57FE00E940A536D
:10478000EBCFEF92FF921F93CF93DF937C01162F15
:10479000EC012196CE010E943F48F70110831123BE
:1047A000A1F4CE016EE170E00E94534981EA99E1E3
:1047B00064EA7FE00E940A53C7010E94E019DF917A
:1047C000CF911F91FF90EF900895CE016FE170E0BF
:1047D0000E94534981EA99E16AE87FE00E940A5306
:1047E000EBCFAF92BF92CF92DF92FF920F931F93C6
:1047F000CF93DF93EC01F62E6A01590101960E94D6
:10480000DD22CE0105966F2DA60195010E949C2206
:10481000CE0143966F2D0E949123CE0147966F2DB6
:104820000E94C123CE014B966F2D0E94FC163CE2E4
:10483000C32ED12CCC0EDD1EC601B80140E951E0DB
:104840000E940C48CE01C19662E370E00E943043A2
:104850001AAE19AE1DAE1EAECD5BDF4F1992199286
:1048600019921882C654D040F8821CAE1BAEFF20AD
:10487000B9F481EA99E160EE7FE00E940A53188A58
:104880001F8681E08E87C6010E941348DF91CF9179
:104890001F910F91FF90DF90CF90BF90AF90089540
:1048A00081EA99E16EEB7FE00E940A53E8CF0F9313
:1048B0001F93182F092F0E943F48812F902F6FE0E0
:1048C00070E00E945349812F902F0E94F01D81EAD1
:1048D00099E162E070E10E940A531F910F910895DF
:1048E0000F931F93182F092F0E943F48812F902F5D
:1048F00064E270E00E945349812F902F0E94FF1DB7
:1049000081EA99E16CE070E10E940A531F910F91D6
:104910000895EF92FF920F931F938C010E943F48DE
:1049200053E0E52EF12CE00EF11EC7010E943F4836
:10493000C70163E270E00E945349C80162E270E07F
:104940000E945349C8010E94141E81EA99E168E15E
:1049500070E10E940A531F910F91FF90EF9008950C
:10496000EF92FF921F93CF93DF937C01162FEC0100
:104970002196CE010E943F48F70110831123A1F434
:10498000CE0160E170E00E94534981EA99E166E35B
:1049900070E10E940A53C7010E94361EDF91CF9139
:1049A0001F91FF90EF900895CE0161E170E00E94A9
:1049B000534981EA99E163E270E10E940A53EBCF27
:1049C0000F931F938C0162E370E00E943043F80163
:1049D0001086118612861386148616861586C801DF
:1049E0000F9660E00E94B024C801439661E00E94E7
:1049F000B024C80147960E948924C8010E94481E1D
:104A00001F910F910895EF92FF920F931F938C01C6
:104A10000E943F4873E0E72EF12CE00EF11EC70123
:104A20000E943F48C70164E370E00E945349C801F7
:104A300062E370E00E945349C8010E94682081EA45
:104A400099E169E470E10E940A531F910F91FF9070
:104A5000EF900895EF92FF920F931F937C010E94B5
:104A6000E024C7014D960E940325C70183960E944A
:104A70005823C701CD960E947823C701805C9F4FC1
:104A800060E04BE150E029E030E00AE310E00E94F2
:104A9000F123C70189579F4F61E04DE150E02CE1C0
:104AA00030E00BE310E00E94F123C70182539F4FD7
:104AB0000E945724C7018F529F4F0E94702489ED96
:104AC00090E0E80EF91E81E0F7018193808381EA8E
:104AD00099E160E670E10E940A531F910F91FF90E7
:104AE000EF900895CB0108958EED96E16AE070E0B5
:104AF0000E94D74781EE96E16EE070E00E94D747B2
:104B000084EE96E16BE070E00E94D74787EE96E175
:104B10006CE070E00E94D74708958091D81690917C
:104B2000D9160097E9F08130910539F1833091056C
:104B300009F474C0029709F455C08091D41690917D
:104B4000D5160E942B3D8091D6169091D7160E94C3
:104B500046098091D2169091D3160E94682108953B
:104B60008EED96E10E94F747882391F48091D81644
:104B70009091D91681309105C9F68EED96E10E948B
:104B8000E247882391F48091D8169091D916CECF20
:104B900081E090E09093D9168093D81681EA99E14C
:104BA0006BE970E10E940A53089582E090E09093CF
:104BB000D9168093D81681EA99E166EA70E10E94DD
:104BC0000A538091D6169091D7160E9446060E94ED
:104BD000BB566093DA167093DB168093DC169093C5
:104BE000DD1608950E94BB562091DA163091DB162F
:104BF0004091DC165091DD16621B730B840B950BF4
:104C000020911116309112164091131650911416DE
:104C1000261737074807590708F08FCF81EA99E12F
:104C200062EB70E10E940A5383E090E09093D91602
:104C30008093D8168091D6169091D7160E94580767
:104C400008958F929F92AF92BF92CF92DF92EF9290
:104C5000FF920F931F9321EEC22E26E1D22EC601A2
:104C60000E94DC4794EEA92E96E1B92EC5010E9460
:104C7000DC4787EE882E86E1982EC4010E94DC472F
:104C800083E160E00E94605782E160E00E9460572B
:104C900083E161E00E94225882E161E00E94225893
:104CA00086E160E00E94605787E160E00E94605703
:104CB00086E161E00E94225886E161E00E9422586C
:104CC00085E06CEF74E143E050E00E946A5484E0B8
:104CD00069EA74E143E050E00E946A5482E060E0D7
:104CE0000E94605783E060E00E94605782E061E0CC
:104CF0000E94225883E061E00E94225884E060E034
:104D00000E94605785E060E00E94605784E061E0A7
:104D10000E94225884E061E00E94225880E06CE703
:104D200074E143E050E00E946A5481E06FE474E172
:104D300043E050E00E946A5401EA19E1C80140E8EA
:104D400055E260E070E00E94DC4EC8016DEB70E15E
:104D50000E940A53C8016BEC70E10E940A538BED6C
:104D600090E00E945D51F82EE92E0E942A25F092D3
:104D7000D216E092D316C8016EED70E10E940A537C
:104D80008EE091E00E945D51F82EE92E0E94B80954
:104D9000F092D616E092D716C80166EE70E10E9436
:104DA0000A538BE490E00E945D51F82EE92E609149
:104DB000D6167091D7164091D2165091D3160E94F4
:104DC000DD3DF092D416E092D516C80161EF70E196
:104DD0000E940A53C80166E071E10E940A53C801AB
:104DE00067E071E10E940A531092D9161092D8160A
:104DF0001092DA161092DB161092DC161092DD1665
:104E0000C80160E271E10E940A53C8016AE271E1DF
:104E10000E94EB528EED96E10E94F747682FC80181
:104E200070E04AE050E00E94CC52C80165E371E1B5
:104E30000E94EB52C6010E94F747682FC80170E03C
:104E40004AE050E00E94CC52C80162E471E10E9445
:104E5000EB52C5010E94F747682FC80170E04AE095
:104E600050E00E94CC52C8016FE471E10E94EB5205
:104E7000C4010E94F747682FC80170E04AE050E083
:104E80000E94CC528091D6169091D7160E9442066D
:104E90001F910F91FF90EF90DF90CF90BF90AF9058
:104EA0009F908F900895FC018EE596E19183808319
:104EB0000895FC01A081B18116978D919C918E0F70
:104EC0009F1F0E9464270895FC018CE496E1918362
:104ED00080838EE596E1978386830895DC0113969F
:104EE0008D919C911497892B91F01596ED91FC91E1
:104EF000169717968D919C911897E817F90739F036
:104F0000819190E01696FC93EE9315970895ED919C
:104F1000FC9111970488F589E02DCD01199508952C
:104F2000FC0186E896E1918380830895CF93DF9317
:104F3000EC01E881F9810288F389E02D19959C0143
:104F40008FEF2F3F380729F08D819E8101969E8338
:104F50008D83C901DF91CF910895CB0108958FEF23
:104F60009FEF089580E090E0089508950895DC0192
:104F7000242FED91FC910084F185E02D41E01995FD
:104F8000089580E090E00895FC01228933898089AA
:104F90009189281B390B86899789281B390BC901F0
:104FA0000895CF92DF92EF92FF920F931F93CF93CA
:104FB000DF93EC016B0179018A01AE89BF896889B1
:104FC00079898A899B89861B970BA817B90778F07E
:104FD00020E030E040E050E0B901CA01DF91CF911C
:104FE0001F910F91FF90EF90DF90CF9008951216D0
:104FF00013061406150664F720E030E040E050E0A8
:10500000F601E20FF31F6A0F7B1FDB018C91808397
:105010002F5F3F4F4F4F5F4FAE89BF891196BF8BB8
:10502000AE8B688979898A899B89861B970BA8171B
:10503000B90790F62E153F05400751076CF6E0CFF3
:10504000FC0126893789A089B189828993898A1BC5
:105050009B0B2817390738F4A20FB31F8C91282F08
:1050600030E0C90108952FEF3FEFC9010895CF93B4
:10507000DF93EC01E881F9810288F389E02D19952D
:105080009C018FEF2F3F380729F08E899F89019669
:105090009F8B8E8BC901DF91CF910895CF93DF93C2
:1050A000DC0156964D915C9157974115510511F1D0
:1050B0005096CD91DC91519752962D913C915397FA
:1050C0002C1B3D0B24173507B0F18FEF6F3F78078E
:1050D000B9F0FE01E40FF51F319780818617E1F4E6
:1050E0004150504057965C934E935697CB01DF91B9
:1050F000CF9108956FEF7FEFCB01DF91CF910895AE
:105100004150504057965C934E93569760E070E044
:10511000CB01DF91CF9108951F968C911F9784FF4B
:10512000E9CFCA01019757969C938E935697C80F63
:10513000D91F6883DBCF57963C932E9356976FEF1A
:105140007FEFD4CF80E090E0089580E090E0089574
:1051500080E090E0089580E090E0089560E070E0E5
:1051600080E090E008956F927F929F92AF92BF92FD
:10517000CF92DF92EF92FF920F931F93CF93DF9323
:10518000EC013B0159016A011216130614061506BB
:105190000CF050C0EE24FF24870117C0EB85FC857E
:1051A0008D859E85E817F90748F590828B859C854B
:1051B00001969C878B870894E11CF11C011D111D31
:1051C000EA14FB040C051D05ACF5F301EE0DFF1D03
:1051D00090808F8580FFE2CFE881F9810084F1859E
:1051E000E02DCE0160E070E044E020E11995EB8510
:1051F000FC858D859E85E817F907B8F2E881F9816D
:10520000028CF38DE02DCE01692D70E019958F5F32
:105210009F4F89F6B701C801DF91CF911F910F9180
:10522000FF90EF90DF90CF90BF90AF909F907F90D6
:105230006F90089586017501EDCFCB010895EF922F
:10524000FF920F931F93CF93DF937C018B01EA01B1
:1052500064177507A9F0FC01428153814F5F5F4FCE
:105260004C1B5D0BCB01BE010E94610498012C1BFD
:105270003D0BF70182819381820F931F9383828379
:10528000C801DF91CF911F910F91FF90EF9008958A
:105290000F931F938B0181E090E00E947225FC0127
:1052A0001082F80110821F910F910895FC01A081D6
:1052B000B18116978D919C918E0F9F1F0E9461293D
:1052C0000895FC018CE496E1918380838EE596E15C
:1052D00097838683CF010E945A510895FC018EE581
:1052E00096E191838083CF010E945A510895FC0179
:1052F00086E896E191838083CF010E945A510895F8
:10530000CF93DF93EC0186E696E199838883288921
:1053100039898C899D898217930719F0C9010E94E8
:10532000DE0386E896E199838883DF91CF91089523
:10533000CF93DF93EC0186E696E1998388832889F1
:1053400039898C899D898217930719F0C9010E94B8
:10535000DE0386E896E199838883CE010E945A5144
:10536000DF91CF910895FC01A081B18116978D91B5
:105370009C918E0F9F1F0E94BE290895CF93DF93AB
:10538000EC0184E296E1998388830A9699A388A325
:1053900086E696E19F838E832E893F898A8D9B8D39
:1053A0008217930719F0C9010E94DE0386E896E18F
:1053B0009F838E83E0911816F0911916F983E88384
:1053C00036970190F081E02DEC0FFD1F80911A16A9
:1053D00090911B16918380838EE596E199A388A313
:1053E000CE010E945A51DF91CF910895FC01A08116
:1053F000B18116978D919C918E0F9F1F0E94012A5B
:105400000895CF93DF93EC0184E296E1998388833A
:105410000A9699A388A386E696E19F838E832E89B8
:105420003F898A8D9B8D8217930719F0C9010E94CD
:10543000DE0386E896E19F838E83E0911816F09153
:105440001916F983E88336970190F081E02DEC0F6F
:10545000FD1F80911A1690911B16918380838EE513
:1054600096E199A388A3DF91CF910895AF92BF925F
:10547000CF92DF92EF92FF920F931F93CF93DF9320
:105480006C01DC011296ED91FC9113974D915C91AA
:10549000DF01A41BB50BCB016A177B0708F4CD0114
:1054A0005C010894A11CB11CA114B104C9F5EE243F
:1054B000FF248F01041B150BC701BA01A8010E942C
:1054C0006104E701C00FD11F81E090E0BE010E949E
:1054D0007225FC0110821882F601208131818481BD
:1054E00095818217930719F0C9010E94DE03D60146
:1054F0001196FC92EE921396DC93CE931297AE0C1B
:10550000BF1C1596BC92AE921497DF91CF911F915C
:105510000F91FF90EF90DF90CF90BF90AF900895E4
:10552000C5010E943403009779F07C01D6011296E0
:10553000ED91FC9113974D915C91BBCF1995C501ED
:105540000E943403009789F7E091EA16F091EB1678
:105550003097A1F780E090E00E945C5CFF920F938F
:105560001F93CF93DF938C01F62EDC0112962D91C1
:105570003C911397E901219614968D919C91159772
:10558000C817D907E9F081E090E0BE010E947225BA
:10559000FC0110821882D8011296ED91FC911397AC
:1055A000F08212968D919C911397019613969C937D
:1055B0008E931297DF91CF911F910F91FF900895D5
:1055C0008D919C91F901E81BF90BCF0171F461E019
:1055D00070E0680F791FC8010E94362AD801129620
:1055E000CD91DC9113972196CECFBF01F2CF0F93CF
:1055F0001F93CF93DF938C01EB018FEF6F3F780701
:1056000041F4C0E0D0E0CE01DF91CF911F910F9126
:105610000895D8011F968C9184FF1AC0F801208D3F
:10562000318D0088F189E02DD80152968D919C91A1
:1056300053978E1B9F0B2817390768F4E20FF31F4F
:105640006083F801808D918D0196918F808FDBCFE3
:10565000CFEFDFEFD8CFC80140960E94AE2AF1CF3E
:10566000CF92DF92EF92FF920F931F93CF93DF932E
:105670008C01FB0130E0C90188719070489709F4F2
:10568000DBC0C9018870907020713070413009F41E
:10569000B4C0423009F46DC0D80152964D915C916E
:1056A000539750966D917C915197DA01A61BB70BD9
:1056B000EF01CA0FDB1FAC17BD0708F479C0892BB7
:1056C00019F0F801D78BC68B232B09F48BC080E12E
:1056D000C82ED12CC00ED11E9A01261B370B2C17B9
:1056E0003D0708F068C07E01E21AF30AF8018489D8
:1056F00095890197861B970B8C179D0778F4B70146
:10570000E216F30608F496C0620F731FC6010E94EA
:10571000362AD80152964D915C915397E114F104C9
:1057200009F453C09A012F5F3F4FFA01EE0DFF1DA0
:10573000E21BF30BC90160E070E0AF010E9473044B
:10574000F801628973896E0D7F1DC6010E94482988
:10575000D8015296ED91FC915397108252964D913B
:105760005C9153974E0D5F1D53965C934E935297E9
:105770002CC02115310509F04EC0C0E0D0E0D801A1
:1057800050966D917C91519752964D915C915397A3
:10579000009739F0D8015696CD91DC915797CE0FEE
:1057A000DF1FDA01A61BB70BAC17BD0708F087CFC8
:1057B0002FEF3FEF18C06C0F7D1FC6010E941F29FD
:1057C000D80152964D915C915397F8018089918947
:1057D0009A01281B390B868997892817390710F4F5
:1057E000378B268B9E01C901DF91CF911F910F91BD
:1057F000FF90EF90DF90CF900895EF01D801509681
:105800006D917C91519752964D915C915397DA012D
:10581000A61BB70B50CFD80152964D915C91539770
:1058200050966D917C915197EA01C61BD70BCE0F14
:10583000DF1FAECFB90168CF423009F022CFB8CF19
:105840008F929F92AF92BF92DF92EF92FF920F934F
:105850001F93CF93DF935C017B01DC01CD91DC9141
:105860002697E881F9812696E80FF91F01891289A8
:105870000115110501F1D801ED91FC9136970190C8
:10588000F081E02DE00FF11FA389B489ED91FC9127
:1058900011970484F585E02DCD0119958F5F9F4FF9
:1058A00009F4E7C0F501C081D1812697E881F9812B
:1058B0002696EA0DFB1DA389B48913968D919C91C0
:1058C0001497892B09F4B2C01596ED91FC911697A7
:1058D00017968D919C911897E817F90709F4A6C0BF
:1058E000808190E00E941A5C892B09F084C0269781
:1058F00028813981F501E20FF31F83889488D7014D
:10590000ED91FC91119712968D919C911397E81748
:10591000F90771F010828D919C91119713969C93C9
:105920008E931297D501ED91FC91369720813181AC
:10593000F9013296EA0DFB1D228533854485558594
:105940001286138614861586E9012115310509F0A2
:10595000E9C00EEF1FEF1EC081E090E0BE010E9483
:105960007225FC0110821882D7011296ED91FC91EC
:105970001397D08212962D913C9113972F5F3F4F32
:1059800013963C932E9312970115110509F4B5C097
:1059900001501040C4010E946E27BFEF8F3F9B074C
:1059A00009F4C6C0D82E992787FD90950E941A5CED
:1059B000892B09F070C0F70122813381E90121961A
:1059C00084819581C817D90739F680819181A90111
:1059D000481B590BCA0109F0A3C061E070E0680FD1
:1059E000791FC7010E94362AD7011296CD91DC910A
:1059F00013972196B1CF2697E881F981EA0DFB1D17
:105A0000838994890E946E27D501CD91DC912697D8
:105A1000E881F9812696EA0DFB1DA389B4891396C6
:105A20008D919C911497892B09F04ECFED91FC91AB
:105A300011970288F389E02DCD011995BFEF8F3FB3
:105A40009B0709F0C0C0D501ED91FC9111973697E5
:105A50000190F081E02DEA0DFB1D2581322F32608F
:105A600083899489892B09F48AC03583CD91DC918F
:105A70003ECFD801ED91FC9136970190F081E02D59
:105A8000E00FF11F2581216083899489892B09F416
:105A90007CC0258307CFF401238134812115310592
:105AA00051F0858196812817390729F0FC018291F0
:105AB000D81609F474C0D401ED91FC910688F789D9
:105AC000E02DC4016D2D70E019958F5F9F4F91F40B
:105AD000D501ED91FC9136970190F081E02DEA0D12
