:100000000C947B010C9407520C9438520C94695256
:100010000C949A520C94CB520C94FC520C942D5389
:100020000C945E530C94A8010C94A8010C94A801A4
:100030000C94A8010C94A8010C94A8010C94A8019C
:100040000C94A8010C9482460C94A8010C94A8016D
:100050000C94A8010C94A8010C94A8010C948F5343
:100060000C94A8010C94BC490C94084B0C94A80166
:100070000C94A8010C94A8010C94A8010C94A8015C
:100080000C94EB480C94A8010C94A8010C94A801C2
:100090000C94FC490C94474B0C94A8010C94A801B7
:1000A0000C94A8010C94A8010C941B480C94A80172
:1000B0000C94A8010C94A8010C94A8010C9452472C
:1000C0000C94A8010C94A8010C94A8010C943C4A2F
:1000D0000C94864B0C94A8010C947C4A0C94C54B50
:1000E0000C94A8011F1B0B1BF71AEB1ADF1ACF1A6F
:1000F000BB1AB01AA01A931A7F1A731A5F1A471AFA
:100100003C1A2C1A1F1A131A031AF219DE19C619EF
:10011000AF19181C0B1C031C881C721CB11BA31CE0
:100120009A1C911C571CB11B321C2E1C251C601CD8
:10013000BC1CE61B691CAC1CC51CB11B4E1CE61B81
:10014000084AD73B3BCE016E84BCBFFDC12F3D6C3E
:1001500074319ABD56833DDA3D00C77F11BED9E4A4
:10016000BB4C3E916BAAAABE000000803F05A84C84
:10017000CDB2D44EB93836A9020C50B99186880850
:100180003CA6AAAA2ABE000000803F00002100244D
:100190000027002A002D0030003300010100000478
:1001A0000107010A0100002200250028002B002E73
:1001B000003100340002010000050108010B0100BC
:1001C0000020002300260029002C002F0032000010
:1001D00001000003010601090105050505070508E1
:1001E000080808020202020A0A08080404040401BA
:1001F00001010101010101030303030303030304DC
:100200000707070C0C0C0C0C0C0C0C02020202066B
:10021000060606060606060B0B0B0B0B0B0B0B015B
:100220000210202008081020401020408002010207
:1002300001080402010102040810204080804020CF
:10024000100804020180040201804020100804020A
:100250000108040201010204081020408001020488
:1002600008102040800000090A02080B0C0D070648
:100270000304010000000000000000000000000076
:10028000000000000000000000000000000000006E
:100290000011100F0000000000000000000000002E
:1002A00000000000000000000000006364696E6F41
:1002B00070737578585B00494E46494E4954594E03
:1002C000414ECDCCCC3D0AD7233C17B7D13877CCA3
:1002D0002B329595E6241FB14F0A00002041000003
:1002E000C84200401C4620BCBE4CCA1B0E5AAEC5BC
:1002F0009D746221384D11241FBECFEFD1E2DEBFC5
:10030000CDBF00E00CBF11E1A0E0B2E0E8E9F3EB03
:1003100000E00BBF02C007900D92A433B107D9F7DC
:100320001BBE14E1A4E3B1E101C01D92AA3CB107D8
:10033000E1F712E0C6EFD2E004C02297FE010E946E
:100340008459C23FD107C9F70E946E4E0C94CA5916
:100350000C940000CF93DF93BC018230910510F420
:1003600062E070E0A091C614B091C714ED01E0E026
:10037000F0E040E050E021C088819981861797071E
:1003800069F48A819B81309719F09383828304C03A
:100390009093C7148093C614FE0134C06817790780
:1003A00038F44115510519F08417950708F4AC018C
:1003B000FE018A819B819C01E9012097E9F64115A4
:1003C0005105A9F1CA01861B970B049708F4BA01DD
:1003D000E0E0F0E02AC08D919C9111978417950779
:1003E000F9F46417750781F412968D919C91139717
:1003F000309719F09383828304C09093C71480933D
:10040000C614FD0132964CC0CA01861B970BFD0134
:10041000E80FF91F6193719302978D939C9340C0ED
:10042000FD01828193819C01D9011097A1F68091F1
:10043000C4149091C514892B41F480918F10909130
:1004400090109093C5148093C414409191105091D2
:1004500092104115510541F44DB75EB780918D1052
:1004600090918E10481B590B2091C4143091C514E3
:10047000CA01821B930B8617970780F0AB014E5F72
:100480005F4F8417950750F0420F531F5093C514C8
:100490004093C414F9016193719302C0E0E0F0E06D
:1004A000CF01DF91CF910895CF93DF93009709F4A7
:1004B00050C0EC0122971B821A82A091C614B09101
:1004C000C714109709F140E050E0AC17BD0708F1E0
:1004D000BB83AA83FE0121913191E20FF31FAE1776
:1004E000BF0779F48D919C911197280F391F2E5FCA
:1004F0003F4F3983288312968D919C9113979B834C
:100500008A834115510571F4D093C714C093C61462
:1005100020C012968D919C911397AD01009711F018
:10052000DC01D3CFFA01D383C28321913191E20F51
:10053000F31FCE17DF0769F488819981280F391FCF
:100540002E5F3F4FFA01318320838A819B81938301
:100550008283DF91CF910895662777270C94A705B2
:10056000FC0188279927E89421912032E9F329306A
:1005700010F02E30C8F32B3241F02D3239F468944C
:1005800004C00E94F002820F911D219120532A3055
:10059000C0F31EF4909581959F4F0895FB01DC01F7
:1005A00002C001900D9241505040D8F7089568174D
:1005B000790768F4FB01DC01E40FF51FA40FB51FF8
:1005C00002C002900E9241505040D8F708950C940A
:1005D000CE02DC0101C06D9341505040E0F7089518
:1005E0007AE0979F902D879F802D910D112408957B
:1005F000AEE0B0E0EEEFF2E00C94A35985E08C831E
:100600008C899D899A8389839E01285E3F4FCE0104
:1006100001966E897F89A9010E9496042E96E2E0D8
:100620000C94BF59FC0120FD08C023FD05C022FF2A
:1006300002C073836283518340830895EF92FF92D7
:100640000F931F9344FF02C033E011C046FF02C066
:1006500034E00DC0DB01FC01AA0FBB1FEE1FFF1F22
:100660001094D1F76A0F7B1F8E1F9F1F31E0660F1A
:10067000771F881F991F3150D1F77B018C01E20E43
:10068000F11C011D111DA8019701B701CA011F919D
:100690000F91FF90EF9008950F931F93CF93DF93E7
:1006A0008C01C8010E942A07EC0197FD08C00E9436
:1006B0008859892BB1F7CE01B8010E946C07CE0191
:1006C000DF91CF911F910F910895A0E0B0E0EBE68C
:1006D000F3E00C949B59EC01C62E5A01122F0E9494
:1006E0002A07AC018B3219F08D3251F41068CA948C
:1006F00009F46DC0CE010E942A07AC0197FD67C0C6
:100700006DEFD62ED1228D2D807301F54033F1F49B
:10071000CA9409F447C0CE010E942A07AC0197FD94
:1007200041C082E0D82A483711F0483559F480E4B6
:10073000D82ACA94B9F1CE010E942A07AC019923A4
:100740002CF430C0D6FC02C080E1D82AEE24FF246D
:100750008701242F2053283088F0D4FC09C02A3088
:1007600068F0D6FE05C02F7D822F8151863028F09B
:10077000CA01BE010E946C0712C02750C801B70110
:100780004D2D0E941E037B018C0182E0D82ACA9461
:1007900061F0CE010E942A07AC0197FFDACFD1FCAD
:1007A00004C015C0EE24FF248701D7FE08C01095B1
:1007B0000095F094E094E11CF11C011D111DC50190
:1007C000B801A7012D2D0E94120381E001C080E035
:1007D000CDB7DEB7EAE00C94B759A0E2B0E0E3EFA2
:1007E000F3E00C9497596C01A62E8A017901FE0161
:1007F000319680E2DF011D928A95E9F770E030E0E2
:1008000060E040E050E04F01A1E0B0E0F6018381FC
:10081000F70183FD259183FF21917F01222309F4B4
:100820007EC02E3519F44115510569F1872F90E0EE
:100830008417950744F42D3551F12D3221F43323DB
:1008400029F431E021C0332309F4622F322F832FA2
:10085000869586958695F401E80FF11D832F8770A4
:100860003D0102C0660C771C8A95E2F7208126299B
:100870002083361711F430E007C0361710F43F5FBD
:10088000E6CF3150E4CF71E04F5F5F4FBFCF3323EE
:1008900019F08E8180628E83772359F0FE013196A4
:1008A0009E012F5D3F4F808180958193E217F30772
:1008B000D1F7BB24B3944E010894811C911CC6014E
:1008C0000E942A07AC0197FD22C0869586958695E1
:1008D000F401E80FF11D808190E09A0127703070DB
:1008E00002C0959587952A95E2F780FD05C0CA015B
:1008F000B6010E946C070BC00115110519F0D80153
:100900004D938D01AA94BB24AA20C9F602C0BB2036
:1009100031F40115110529F0F801108202C0EE240E
:10092000FF24C701A096EEE00C94B359A0E0B0E01C
:10093000ECE9F4E00C9497595C016B013A01FC017D
:10094000178216828824EAC0812F90E00E9488597D
:10095000892B21F0C5010E944C03E0C0153249F4F7
:10096000F601F3FC6591F3FE61916F01653269F464
:1009700015E2C5010E942A0797FDDCC0181709F48B
:10098000CDC0B5010E946C07DAC06A3219F0162F8B
:1009900000E006C0F3FC1591F3FE11916F0101E038
:1009A00099240FC00260692D70E080E090E040E281
:1009B0000E941E03962EF601F3FC1591F3FE119191
:1009C0006F01212F20532A3068F301FD03C09924C1
:1009D0009A9403C0992009F4B2C0183621F01C364D
:1009E00099F4F6010BC0F601F3FC6591F3FE6191F9
:1009F000683619F06F01162F07C008600460F3FC19
:100A00001591F3FE11916F01112309F498C08BEA3F
:100A100092E0612F70E00E940707892B09F48FC0D4
:100A2000802F00FF03C0EE24FF2407C0F301E08005
:100A3000F18022E030E0620E731E1E3651F4F501A3
:100A40004681578160E070E0C701202F0E941203A9
:100A500065C0133691F481FD02C099249394C501B9
:100A60000E942A0797FD66C0E114F10419F0F7010E
:100A700081937F019A9499F74FC01B3559F4C501B2
:100A8000692DA70196010E94ED036C01009709F002
:100A900043C03DC0C5010E944C0397FD4BC01F36AB
:100AA00059F1103728F4143629F1193639F527C0D1
:100AB000133719F0153711F51DC0C5010E942A071B
:100AC000EC0197FD11C00E948859892B29F0CE01B5
:100AD000B5010E946C0708C0E114F10419F0F70198
:100AE000C1937F019A9449F7E114F104A9F0F70149
:100AF000108212C0006203C0006101C00064C50121
:100B0000692DA701202F0E946503882329F4F50190
:100B10008381807379F413C000FF8394F501F3801F
:100B2000F601F3FC1591F3FE11916F01112309F009
:100B30000BCF05C0882019F42FEF3FEF02C0282DFE
:100B400030E0C901CDB7DEB7EEE00C94B359A0E0B8
:100B5000B0E0EDEAF5E00C949959EC015B01611508
:100B6000710519F0FB0191838083F9908F2D90E03E
:100B70000E948859892BC9F7FDE2FF1621F4F990EC
:100B8000EE24E39405C02BE2F21609F4F990EE246A
:100B90008E0101501040C80167EB72E043E050E065
:100BA0000E941207892B01F58E010E5F1F4FC801AD
:100BB0006AEB72E045E050E00E941207892B19F4BD
:100BC0008E01095F1F4FA114B10419F0F5011183C3
:100BD0000083E0FC04C070E090E080E814C070E0A6
:100BE00090E080E86FEF08C1C8016FEB72E043E06E
:100BF00050E00E941207892B69F4A114B10429F472
:100C000070E090E080EC6FE7F7C02296F501D183A9
:100C1000C083F6CF8824992440E050E060E070E083
:100C2000EF2DE053EA30A0F5F2E0EF2A8E2D90E0B0
:100C30009C0128703070E2FE06C0232B79F50894E1
:100C4000811C911C2BC0232B19F00894810891085A
:100C5000DB01CA0112E0880F991FAA1FBB1F1A955A
:100C6000D1F7480F591F6A1F7B1F440F551F661F7E
:100C7000771F4E0F511D611D711D483929E952071B
:100C800029E9620729E1720748F084E0E82A06C0F2
:100C9000EE3F31F4E3FC39C098E0E92AF990C0CF87
:100CA000E53311F0E53189F529912D3219F4E0E1B0
:100CB000EE2A05C02B3219F081E090E003C02991A3
:100CC00082E090E0E22FE053EA3018F0C81BD90B25
:100CD0001CC020E030E0FCE020383F075CF4C90194
:100CE000880F991F880F991F280F391F220F331F54
:100CF0002E0F311DE991E053EA3068F3E4FE03C0A2
:100D0000309521953F4F820E931ECE2CDD24E1FEBF
:100D100007C0A114B10421F02197F501D183C0834C
:100D2000CB01BA010E942B577B018C01F3E0CF224B
:100D3000DD2423E0C216D10421F417FB109517F926
:100D4000109557016801C801B70120E030E040E08C
:100D500050E00E948B56882309F44AC097FE0DC0CC
:100D600026EDE22E22E0F22E909481949108939445
:100D7000C0E2D0E000E010E012C09EEEE92E92E06A
:100D8000F92EF6CFF7012591359145915491C60181
:100D9000B5010E944F585B016C018C1A9D0A8C169C
:100DA0009D0684F7D595C7950F5F1F4F0630110537
:100DB00029F08CEF9FEFE80EF91EF1CFC501D601A7
:100DC0007C018D018C2D880F8D2D881F8F3F51F058
:100DD000C601B50120E030E040E050E00E948B56B3
:100DE000882331F482E290E09093C9148093C81470
:100DF0007E2D9F2D802F612F272F392F482F562F83
:100E0000B901CA01CDB7DEB7ECE00C94B559FC01CD
:100E10000590061621F00020D9F7C00108953197FA
:100E2000CF010895FB01DC014150504088F08D91C5
:100E300081341CF08B350CF4805E659161341CF0BC
:100E40006B350CF4605E861B611171F3990B08958C
:100E5000881BFCCFCF93DF93EC014B8140FF1AC07E
:100E600046FF0AC04F7B4B838E819F8101969F83F3
:100E70008E838A81282F2BC042FF13C0E881F9811D
:100E80008081282F332727FD30952115310529F43E
:100E900040624B832FEF3FEF1BC03196F983E8830D
:100EA00011C0EA85FB85CE0119959C0197FF0AC008
:100EB0009B812F5F3F4F11F080E201C080E1892BC1
:100EC0008B83E8CF8E819F8101969F838E8330E054
:100ED000C901DF91CF9108959C01FB01838180FFBF
:100EE00011C086FD0FC09FEF2F3F390759F02283B5
:100EF00080648F7D83838681978101979783868322
:100F000030E002C02FEF3FEFC90108959C01245F3C
:100F10003F4FC9010895FC01E350FF4F80E090E08E
:100F2000A0E0B0E081939193A193B19380839183EA
:100F3000A283B3830895FC01E350FF4F20813181E8
:100F400042815381B901CA010895FC01EF5FFE4F50
:100F50002081318142815381B901CA010895FC0188
:100F6000E750FF4F808191810895FC01E550FF4FCC
:100F7000808191810895FC01E550FF4F118210821C
:100F80001292129208950C960E94260C08950C96C7
:100F90000E94220C08952F923F924F925F926F927F
:100FA0007F928F929F92AF92BF92CF92DF92EF92F9
:100FB000FF920F931F93DF93CF93CDB7DEB72C979C
:100FC0000FB6F894DEBF0FBECDBF1C014B01690107
:100FD0007A010E94B73C2B013C01AA2497FCA09403
:100FE000BA2CC501B4010E942D57AB01BC015E01B2
:100FF0000894A11CB11CC501930182010E94643DAB
:10100000D101F5018CE001900D928150E1F7C10111
:101010000C96F101C080D180E280F38004811581BB
:101020002681378140855185628573850E94790CC0
:101030002C960FB6F894DEBF0FBECDBFCF91DF91D7
:101040001F910F91FF90EF90DF90CF90BF90AF90E6
:101050009F908F907F906F905F904F903F902F90D8
:101060000895CF92DF92EF92FF920F931F93DF9339
:10107000CF93CDB7DEB72C970FB6F894DEBF0FBE77
:10108000CDBFC982DA82EB82FC820D831E832F835F
:10109000388749875A876B877C87DC01FE01319648
:1010A0002CE001900D922150E1F70C96C980DA8076
:1010B000EB80FC800D811E812F81388549855A8502
:1010C0006B857C850E94790C2C960FB6F894DEBF58
:1010D0000FBECDBFCF91DF911F910F91FF90EF9089
:1010E000DF90CF9008952F923F924F925F926F9230
:1010F0007F928F929F92AF92BF92CF92DF92EF92A8
:10110000FF920F931F93DF93CF93CDB7DEB72C974A
:101110000FB6F894DEBF0FBECDBF1C014B016901B5
:101120007A010E94AF3C2B013C01AA2497FCA094B9
:10113000BA2CC501B4010E942D578B019C015E01A0
:101140000894A11CB11CC501B301A2010E94643D19
:10115000D101F5018CE001900D928150E1F7C101C0
:101160000C96F101C080D180E280F380048115816A
:101170002681378140855185628573850E94790C6F
:101180002C960FB6F894DEBF0FBECDBFCF91DF9186
:101190001F910F91FF90EF90DF90CF90BF90AF9095
:1011A0009F908F907F906F905F904F903F902F9087
:1011B00008950F931F938C018A509F4F6CED75E03B
:1011C0000E948145C8018D509F4F6CED75E00E94D3
:1011D00081451F910F9108959F92AF92BF92CF9238
:1011E000DF92EF92FF920F931F93CF93DF93EC0167
:1011F0008C01045F1F4FC8010E940C0C6C01C801D8
:101200000E94170C5C01C8010E94120CF82EC80144
:101210000E941D0C982EFF2009F450C0B6018827AB
:1012200077FD8095982F0E942D5720E030E04AEFFF
:1012300053E40E94925620E030E04AEF53E40E94CB
:101240004F587B018C01992009F050C0B5018827C7
:1012500077FD8095982F0E942D5720E030E04AEFCF
:1012600053E40E94925620E030E04AEF53EC0E9493
:101270004F58CA50DF4F0E94FA569B01AC012452CE
:101280003A4FCE01B9010E9481452397C801B701A9
:101290000E94FA569B01AC0124523A4FCE01B9018B
:1012A0000E948145DF91CF911F910F91FF90EF90A8
:1012B000DF90CF90BF90AF909F900895B6018827A0
:1012C00077FD8095982F0E942D5720E030E04AEF5F
:1012D00053E40E94925620E030E04AEF53EC0E9423
:1012E0004F587B018C01992009F4B0CFB5018827B4
:1012F00077FD8095982F0E942D5720E030E04AEF2F
:1013000053E40E94925620E030E04AEF53E40E94FA
:101310004F58AFCFCF92DF92EF92FF920F931F9370
:101320008C01609138117091391180913A1190912E
:101330003B110E942D57F801E951FF4F2081318167
:10134000428153810E944F586B017C01609134119E
:101350007091351180913611909137110E942D575F
:10136000F801ED51FF4F20813181428153810E946C
:101370004F589B01AC01C701B6010E94FE55F80110
:10138000E551FF4F20813181428153810E944F58A6
:101390006B017C01C8010E94BF3CA70196010E941D
:1013A000FF55AB01BC01C8010E94C73C1F910F91C2
:1013B000FF90EF90DF90CF9008952F923F924F9241
:1013C0005F926F927F928F929F92AF92BF92CF92D5
:1013D000DF92EF92FF920F931F93DF93CF9300D092
:1013E00000D0CDB7DEB76C010E948A09609034113D
:1013F000709035114090381150903911109234117D
:101400001092351110923611109237111092381136
:101410001092391110923A1110923B11B3018827A2
:1014200077FD8095982F0E942D5769837A838B834F
:101430009C83B201882777FD8095982F0E942D57B5
:101440004B015C01C6018D519F4F9E838D83698145
:101450007A818B819C81ED81FE8120813181428165
:1014600053810E944F587B018C0197EE292E312C1D
:101470002C0C3D1CC501B401F10120813181428158
:1014800053810E944F589B01AC01C801B7010E94D3
:10149000FF5520E030E040E05FE30E944F58AB0191
:1014A000BC01C6010E94C53F86010F5F1E4FC501EA
:1014B000B401F10120813181428153810E944F5852
:1014C0009B01AC01F80160817181828193810E944E
:1014D000FF55F801608371838283938386010350F3
:1014E0001F4F69817A818B819C81ED81FE812081F2
:1014F0003181428153810E944F589B01AC01F80118
:1015000060817181828193810E94FF55F80160831F
:10151000718382839383F601E750FF4F808191812D
:10152000680E791E71826082F601E550FF4F80815E
:101530009181480E591E5182408281EF90E0C80E81
:10154000D91E8091381190913911F60191838083D1
:1015500080913411909135119293829326960FB613
:10156000F894DEBF0FBECDBFCF91DF911F910F91D9
:10157000FF90EF90DF90CF90BF90AF909F908F90B3
:101580007F906F905F904F903F902F900895CF92F3
:10159000DF92EF92FF920F931F93CF93DF93EC01B3
:1015A0008C010D521F4FC8010E94BB40882339F5A2
:1015B0008E0105521F4FC8010E94BB408823B1F025
:1015C000C8010E94DA40CE010C96C880D980EA801A
:1015D000FB800C811D812E813F81488559856A855C
:1015E0007B850E943D13CE010E94EC08DF91CF91D4
:1015F0001F910F91FF90EF90DF90CF900895C80159
:101600000E94DA40CE010E94DD09D2CFCF92DF9254
:10161000EF92FF920F931F938C010E94523DC801DD
:101620000C960E942514C8018D529F4F6AE070E00D
:101630000E94E740C80185529F4F6EE170E00E9412
:10164000E7400D511F4F8DEC9BE2A1ECBEE3F8018A
:1016500081939193A193B1938CE89FE1A2ECBEE3B7
:1016600081939193A193B1938DEF99E6A3EABBE3A4
:1016700081939193A193B193119211928F01118251
:101680001082015F104033EFC32ED12CC00ED11E4B
:10169000C6010E94674526EFE22EF12CE00EF11EF6
:1016A000C7010E94674507501F4FF8011192119220
:1016B0001192119280E090E0A0E0B0E081939193CC
:1016C000A193B1938F0180839183A283B38301504F
:1016D000114010923411109235111092361110925F
:1016E0003711109238111092391110923A1110924C
:1016F0003B11C8010E94EC08C70166E070E00E943F
:101700007B46C60167E070E00E947B46C8010E94EC
:10171000D9081F910F91FF90EF90DF90CF9008951F
:10172000CF93DF93DC01BC0167587F4FFC01E15888
:10173000FF4FA358BF4F208131818D919C9111970C
:10174000AD57B040A901480F591FEB015983488399
:10175000FD01E558FF4F821B930B91838083CD01E0
:101760008F579F4F20E0141615060CF053C0EC0164
:101770002883AE57BF4F20E080819181181619064B
:101780000CF046C02C93DB012D913C91119737FD55
:101790002EC02081318137FD34C0EB0188819981D1
:1017A0008B3F910524F08AEF90E0998388838081B4
:1017B00091818B3F910524F08AEF90E091838083A3
:1017C000DB018D919C9186509F4F2CF486E09FEF1A
:1017D000EB01998388838081918186509F4F24F407
:1017E00086E09FEF91838083DF91CF9108958827D2
:1017F0009927821B930B8D939C932081318137FF16
:10180000CCCF88279927821B930B91838083C5CFE8
:1018100021E0B8CF21E0ABCFFC01E758FF4F80813A
:1018200091810895FC01EF57FF4F80810895FC01DD
:10183000E558FF4F808191810895FC01EE57FF4FDD
:101840008081089521E0FC0120A30895FC0110A2ED
:101850000895EF92FF920F931F937C0103E214E12E
:10186000C80160E072E00E942650C70185960E9480
:101870008641C80169E072E00E942650C701815B81
:101880009F4F0E948641C80162E172E00E940750AA
:10189000C7018F569F4F0E94C443C80169E172E09F
:1018A0000E940750C70184559F4F0E94C4431F9157
:1018B0000F91FF90EF900895EF92FF920F931F9377
:1018C0007C0103E214E1C80160E272E00E9407506B
:1018D000C7010E946940C80169E272E00E94075096
:1018E000C7010C960E9469401F910F91FF90EF90E5
:1018F0000895CF92DF92EF92FF920F931F93DF93A1
:10190000CF93CDB7DEB72C970FB6F894DEBF0FBEDE
:10191000CDBFC982DA82EB82FC820D831E832F83C6
:10192000388749875A876B877C87DC01FE013196AF
:101930002CE001900D922150E1F7DC011C96FC0196
:101940002CE001900D922150E1F70E945C0C2C9646
:101950000FB6F894DEBF0FBECDBFCF91DF911F91C0
:101960000F91FF90EF90DF90CF900895CF93DF938A
:10197000EC018BA19CA18130910591F0029769F453
:1019800081E090E09CA38BA3CE010E945C0C83E2DB
:1019900094E163E372E00E942650DF91CF910895B5
:1019A00083E090E09CA38BA3CE010E945C0C83E2B9
:1019B00094E16AE372E00E9426501AA219A2DF9114
:1019C000CF910895CF92DF92EF92FF920F931F93E2
:1019D000815B9F4F0E945C411F910F91FF90EF90A0
:1019E000DF90CF900895CF92DF92EF92FF920F9306
:1019F0001F9385960E945C411F910F91FF90EF907D
:101A0000DF90CF9008952F923F924F925F926F9206
:101A10007F928F929F92AF92BF92CF92DF92EF927E
:101A2000FF920F931F93DF93CF93CDB7DEB7A097AD
:101A30000FB6F894DEBF0FBECDBF4C012E01089447
:101A4000411C511CC2010E94323E2DB73EB72C50A2
:101A500030400FB6F8943EBF0FBE2DBFE9E0AE2E6A
:101A6000B12CAC0EBD1EADB7BEB711967CE0672E93
:101A7000712C680C791CF3018CE001900D9281505F
:101A8000E1F7C501F401C080D180E280F3800481D8
:101A900015812681378140855185628573850E9435
:101AA000403ED201F50188E001900D928150E1F7AE
:101AB0002DB73EB7245F3F4F0FB6F8943EBF0FBE21
:101AC0002DBFF40181A192A18130910521F18230D5
:101AD00091050CF4F8C18230910509F446C10397D1
:101AE00009F4A9C0A0960FB6F894DEBF0FBECDBF13
:101AF000CF91DF911F910F91FF90EF90DF90CF90EA
:101B0000BF90AF909F908F907F906F905F904F901D
:101B10003F902F9008956FE4A62EB12CA80CB91C0D
:101B2000CE014196F401C080D180E280F38004812F
:101B300015812681378140855185628573850E9494
:101B40008B3FC20109891A892B893C894D895E899D
:101B50006F89788D0E94A63EAB01BC01C5010E9431
:101B600057422DE730E0820E931E0E94FA56F40190
:101B70007183608323E83FEF820E931EF40183A1FB
:101B800094A1019709F450C1C2010E94283F7B0132
:101B90008C01C3010E94BF3C9B01AC01C801B7018D
:101BA0000E94EC3E20E030E040E050E00E944458CB
:101BB00018160CF0FFC0C2010E94283F7B018C0167
:101BC000C3010E94BF3C9B01AC01C801B7010E9448
:101BD000EC3E2BED3FE049EC5FE30E9444581816C1
:101BE0000CF0FFC0C2010E94283F55E2C52ED12C47
:101BF000C80CD91C2BED3FE049E450E40E94FF558E
:101C0000AB01BC01C6010E945641F40163A174A15D
:101C1000C5010E944142882309F464CFF40163A105
:101C200074A1C6010E944142882309F45BCFC4011C
:101C30000E94B60C57CF2FE4222E312C280C391CD1
:101C4000CE014996F401C080D180E280F380048106
:101C500015812681378140855185628573850E9473
:101C60008B3FC201098D1A8D2B8D3C8D4D8D5E8D64
:101C70006F8D78A10E94A63EAB01BC01C1010E94FC
:101C800057422DE730E0820E931E0E94FA56F4016F
:101C90007183608323E83FEF820E931EF40183A1DA
:101CA00094A1019709F4DAC0C3010E94BF3C7B01F3
:101CB0008C01C4010E94BF3C9B01AC01C801B7016B
:101CC0000E94EC3E5B016C01C2010E94283F7B0137
:101CD0008C01C3010E94BF3C9B01AC01C801B7014C
:101CE0000E94EC3E9B01AC01D7FAD094D7F8D09477
:101CF0005058CA01B9010E94FF559B01AC01C601B1
:101D0000B5010E94FF5520E030E040E050E00E9425
:101D1000EC3E7B018C0185E2C82ED12CC80CD91C6D
:101D2000C6010E947E419B01AC01C801B7010E941F
:101D3000FF55AB01BC01C6010E945742EFE7F0E03E
:101D40008E0E9F1E0E94FA56F4017183608321E873
:101D50003FEF820E931EF40163A174A1C1010E94A2
:101D60004142882309F4BECE59CF84010B5D1F4F39
:101D7000C4010E94BF3CAB01BC01C8010E94574294
:101D80002FE730E0820E931E0E94FA56F401718311
:101D90006083129212924F0123E83FEF820E931E4E
:101DA000F40163A174A1C8010E944142882309F48F
:101DB00099CE3DCFC2010E94283F7B018C01C30117
:101DC0000E94BF3C9B01AC01C801B7010E94EC3EE0
:101DD0002BED3FE049EC5FEB0E948B5688230CF41F
:101DE00001CF45E2C42ED12CC80CD91CC2010E94DF
:101DF000283FAB01BC01C6010E945641C4010E94AC
:101E0000BF3CAB01BC01C6010E9457422FE730E046
:101E1000820E931E0E94FA56F4017183608321E8BA
:101E20003FEF820E931EF1CE35E2C32ED12CC80CAB
:101E3000D91CC3010E94BF3CAB01BC01C6010E947A
:101E40005641C4010E94BF3CAB01BC01C6010E94C7
:101E50005742EFE7F0E08E0E9F1EDCCFC3010E94D9
:101E6000BF3C7B018C01C4010E94BF3C9B01AC01C3
:101E7000C801B7010E94EC3E905820E030E040E0FD
:101E800050E00E94FF5520E030E040E050E00E942A
:101E9000EC3E7B018C0195E2C92ED12CC80CD91CDB
:101EA000C6010E947E419B01AC01C801B7010E949E
:101EB000FF55AB01BC01C6010E9457422FE730E03D
:101EC000820E931E3FCF892B09F00CCE2FE730E016
:101ED000820E931EF401118210821292129202CE8F
:101EE0002F923F924F925F926F927F928F929F922A
:101EF000AF92BF92CF92DF92EF92FF920F931F9318
:101F0000DF93CF93CDB7DEB764970FB6F894DEBFFB
:101F10000FBECDBF4C01A986BA86CB86DC86ED8686
:101F2000FE860F87188B298B3A8B4B8B5C8B83E853
:101F300090E0880E991EF401118210828DE79FEFC8
:101F4000880E991EF40172A361A382E090E094A32D
:101F500083A3B5E24B2E512C480C591CC2010E94A0
:101F60007641AFE46A2E712C680C791CC3010E9483
:101F70007641F40181A192A18130910509F453C009
:101F8000823091050CF4BFC082309105D9F00397DF
:101F900071F164960FB6F894DEBF0FBECDBFCF913E
:101FA000DF911F910F91FF90EF90DF90CF90BF9046
:101FB000AF909F908F907F906F905F904F903F90E9
:101FC0002F9008958401045F1F4FCE0109960E944F
:101FD000BF3CAB01BC01C8010E94C73CC8010E94C4
:101FE000BF3CAB01BC01C2010E945641D2CF84016B
:101FF000045F1F4FD801FE0139968CE001900D92CD
:102000008150E1F783E294E167E672E00E940750B5
:10201000C8010E946940C30140E050E060E070E008
:102020000E945641DBCFFCE02F2E312C280C391CAE
:10203000CE0109960E94AF3CAB01BC01C1010E94D8
:10204000C53F83E294E167E472E00E940750C1015A
:102050000E9469408DB79EB70C970FB6F8949EBF4B
:102060000FBE8DBFADB7BEB71196F1018CE00190E8
:102070000D928150E1F75E010894A11CB11CC501CD
:10208000F401C080D180E280F38004811581268133
:10209000378140855185628573850E94403E840169
:1020A000085E1F4FD801F50188E001900D92815024
:1020B000E1F78DB79EB70C960FB6F8949EBF0FBE92
:1020C0008DBFCE0109960E94AF3C20E030E040E099
:1020D00050E00E948B5688231CF4C8010E94923E57
:1020E000C8010E943C40C30140E050E060E070E065
:1020F0000E945641C1010E94BF3CAB01BC01C2011C
:102100000E94564146CF892B09F043CF83E294E1E8
:1021100062E472E00E9426503CCF6F927F928F92D1
:102120009F92AF92BF92CF92DF92EF92FF920F9366
:102130001F93DF93CF93CDB7DEB7EC970FB6F8942C
:10214000DEBF0FBECDBF5C014E010894811C911C07
:10215000C4010E94323E8DB79EB70C970FB6F8941B
:102160009EBF0FBE8DBF99E0692E712C6C0E7D1E37
:10217000ADB7BEB71196F5013C968CE001900D927B
:102180008150E1F7C301F501C080D180E280F38086
:10219000048115812681378140855185628573854B
:1021A0000E94403ED401F30188E001900D928150DD
:1021B000E1F78DB79EB70C960FB6F8949EBF0FBE91
:1021C0008DBFCE014196F501C080D180E280F380C1
:1021D000048115812681378140855185628573850B
:1021E0000E948B3FC40109891A892B893C894D893A
:1021F0005E896F89788D0E94A63E20E030E040E045
:1022000050E00E948B5687FD64C081E9882E912C96
:102210008A0C9B1CC401F501C080D180E280F38050
:1022200004811581268137814085518562857385BA
:102230000E94D043882309F461C00CEA602E712CFF
:102240006A0C7B1CC301F501C080D180E280F38061
:10225000048115812681378140855185628573858A
:102260000E94D0438823A1F0CE014996B3010E9479
:102270002043C401C98CDA8CEB8CFC8C0D8D1E8D37
:102280002F8D38A149A15AA16BA17CA10E942B439B
:10229000C5010E945C0CC4010E947F43CE0185965B
:1022A0000E94523DC50160E070E0ADA0BEA0CFA08D
:1022B000D8A4E9A4FAA40BA51CA52DA53EA54FA55D
:1022C00058A90E94700F83E294E167E872E00E94CF
:1022D0002650EC960FB6F894DEBF0FBECDBFCF915F
:1022E000DF911F910F91FF90EF90DF90CF90BF9003
:1022F000AF909F908F907F906F9008951CEA812EF1
:10230000912C8A0C9B1CC401F501C080D180E28015
:10231000F38004811581268137814085518562854E
:1023200073850E94D0438823A1F2C5010E945C0CF2
:10233000C4010E947F43CE01C1960E94523DC50157
:1023400060E070E0A9A8BAA8CBA8DCA8EDA8FEA818
:102350000FA918AD29AD3AAD4BAD5CAD0E94700F21
:1023600083E294E167E972E00E942650B2CF4F9277
:102370005F926F927F928F929F92AF92BF92CF9215
:10238000DF92EF92FF920F931F93DF93CF93CDB71E
:10239000DEB764970FB6F894DEBF0FBECDBF3C0129
:1023A00035E8432E512C480E591EC201F301C0805E
:1023B000D180E280F38004811581268137814085B8
:1023C0005185628573850F2EFAE98F2EF9E99F2ECC
:1023D000F9E9AF2EFEE3BF2EF02D0E947E3D4DB7F2
:1023E0005EB74C5050400FB6F8945EBF0FBE4DBF65
:1023F000ADB7BEB71196F2018CE001900D928150FD
:10240000E1F75E010894A11CB11CC501F301C08075
:10241000D180E280F3800481158126813781408557
:102420005185628573850E94403E4FE750E0640EFF
:10243000751EF3012081318141E85FEF640E751E46
:1024400037FD17C18DE790E0680E791EF30180819A
:10245000918143E85FEF640E751E97FD06C1280F5A
:10246000391F8DB79EB70C960FB6F8949EBF0FBE5E
:102470008DBF2233310594F0C5010E940E4020E04B
:1024800030E040E251E40E948B568823F4F043E8A8
:1024900050E0640E751EF3011182108264960FB62F
:1024A000F894DEBF0FBECDBFCF91DF911F910F918A
:1024B000FF90EF90DF90CF90BF90AF909F908F9064
:1024C0007F906F905F904F900895D62CC72CC301DA
:1024D0000E94BF3C7B018C01C2010E94BF3C9B015A
:1024E000AC01C801B7010E94FE5520E030E040E099
:1024F00050E00E94445818160CF08BC0C3010E9493
:10250000BF3C7B018C01C2010E94BF3C9B01AC011E
:10251000C801B7010E94FE552DEC3CEC4CE45DE394
:102520000E948B5687FFB3CF23E8822E912C860C16
:10253000971CF4018081918101969183808383E2CD
:1025400094E167EA72E00E9407508D2D9C2D0E9455
:10255000BF3C7B018C01C2010E94BF3C9B01AC01CE
:10256000C801B7010E94FE5520E030E040E050E095
:102570000E94445818160CF064C08D2D9C2D0E94AA
:10258000BF3C7B018C01C2010E94BF3C9B01AC019E
:10259000C801B7010E94FE5520E030E048EC52E44B
:1025A0000E944F58A62F482F692F83E294E12A2FCB
:1025B000372FE42FF62FA901BF0122E030E00E945F
:1025C0007351F4018081918145970CF467CFC30169
:1025D0000E945C0C83E294E167EB72E00E9426505B
:1025E000CE0109960E94523DC30160E070E0A984CB
:1025F000BA84CB84DC84ED84FE840F851889298914
:102600003A894B895C890E94700FF4011182108213
:1026100045CFC3010E94BF3C7B018C01C2010E94D7
:10262000BF3C9B01AC01C801B7010E94FE552DECD7
:102630003CEC4CE45DEB0E94445818160CF027CF9C
:1026400073CF8D2D9C2D0E94BF3C7B018C01C2015C
:102650000E94BF3C9B01AC01C801B7010E94FE551E
:1026600020E030E048EC52EC9BCF909581959F4F55
:10267000F6CE309521953F4FE5CEAF92BF92CF92E7
:10268000DF92EF92FF920F931F93DF93CF93CDB71B
:10269000DEB72C970FB6F894DEBF0FBECDBF5C013E
:1026A000C982DA82EB82FC820D831E832F833887F6
:1026B00049875A876B877C87DC01FE0131968CE065
:1026C00001900D928150E1F7C5010E94030DC501F3
:1026D0000E94900BF50181A192A181309105B9F082
:1026E000892B89F42C960FB6F894DEBF0FBECDBFB0
:1026F000CF91DF911F910F91FF90EF90DF90CF90DE
:10270000BF90AF900895C5010E94B711EBCF80A193
:102710008823C9F3C5010E948D10F50181A192A102
:10272000DFCFCF93DF93EC016130710589F1623027
:102730007105C1F0672B99F483E294E16EEB72E0CE
:102740000E942650CE01815B9F4F64E670E00E949C
:102750004C41CE01859664E670E00E944C41DF91C9
:10276000CF91089583E294E16CED72E00E942650CF
:10277000CE01815B9F4F6AEF70E00E944C41CE0119
:1027800085966AEF70E00E944C41DF91CF910895E9
:1027900083E294E16CEC72E00E942650CE01815BF2
:1027A0009F4F66E970E00E944C41CE01859666E934
:1027B00070E00E944C41DF91CF910895AF92BF929B
:1027C000CF92DF92EF92FF920F931F93DF93CF93FD
:1027D000CDB7DEB72C970FB6F894DEBF0FBECDBFD6
:1027E0005C0160E070E00E949113CE01019640E030
:1027F00050E06AE774EC00E010E020E030E06801AF
:1028000079010E94643DC50161E070E0A980BA8051
:10281000CB80DC80ED80FE800F81188529853A858C
:102820004B855C850E94700F2C960FB6F894DEBF26
:102830000FBECDBFCF91DF911F910F91FF90EF9011
:10284000DF90CF90BF90AF9008958F929F92AF92FC
:10285000BF92CF92DF92EF92FF920F931F93DF937D
:10286000CF93CDB7DEB768970FB6F894DEBF0FBE33
:10287000CDBF4C010E94523DC4010C960E94523DB6
:10288000C40148960E94323EF40110A212A211A285
:1028900083E090E094A383A38DB79EB708970FB60B
:1028A000F8949EBF0FBE8DBF87EA97EEAEE0BEE301
:1028B000EDB7FEB781839283A383B48387EA97EE53
:1028C000AEE8BDE385839683A783B087C401859670
:1028D00061E020E030E048E453E40F2EF0E0EF2E1A
:1028E000F0E0FF2EF0E00F2FF0E01F2FF02D57014A
:1028F00068010E94FD4080E090E0A0EAB2E4EDB7FC
:10290000FEB781839283A383B48380E090E0A0EF3D
:10291000B1E485839683A783B087C401815B9F4F11
:1029200060E020E030E040EC5FE30E94FD4089E79A
:1029300090E0880E991EF401119211924F011182BC
:10294000108286E090E0880E991E81E0F401819368
:1029500081934F01118210828DE79FEF880E991E9F
:10296000EDB7FEB738960FB6F894FEBF0FBEEDBFB9
:10297000C4018B579F4F0E94523DCE01019640E00B
:1029800050E068EC72E400E010E02FE133EC7601F7
:1029900065010E94643DC4018F569F4F6CE370E057
:1029A000A980BA80CB80DC80ED80FE800F81188505
:1029B00029853A854B855C850E94EC44CE010D96B5
:1029C00040E050E068EC72E400E010E02FE133E416
:1029D0000F2EF0E0CF2EF0E0DF2EF0E0EF2EF0E053
:1029E000FF2EF02D0E94643DC40184559F4F6DE37E
:1029F00070E0AD84BE84CF84D888E988FA880B89DA
:102A00001C892D893E894F89588D0E94EC44C40150
:102A100060E070E00E94911368960FB6F894DEBFF4
:102A20000FBECDBFCF91DF911F910F91FF90EF901F
:102A3000DF90CF90BF90AF909F908F90089587E1E7
:102A40000E94C655019739F1809138119091391142
:102A5000A0913A11B0913B110197A109B10980935E
:102A6000381190933911A0933A11B0933B11809192
:102A7000481190914911A0914A11B0914B110197C1
:102A8000A109B1098093481190934911A0934A116B
:102A9000B0934B1108958091381190913911A09104
:102AA0003A11B0913B110196A11DB11D80933811CF
:102AB00090933911A0933A11B0933B118091481132
:102AC00090914911A0914A11B0914B110196A11D0D
:102AD000B11D8093481190934911A0934A11B0936E
:102AE0004B11089586E10E94C655019739F18091F6
:102AF000341190913511A0913611B0913711019692
:102B0000A11DB11D8093341190933511A0933611FE
:102B1000B09337118091441190914511A0914611C5
:102B2000B09147110196A11DB11D8093441190935E
:102B30004511A0934611B093471108958091341127
:102B400090913511A0913611B09137110197A109DB
:102B5000B1098093341190933511A0933611B0933D
:102B600037118091441190914511A0914611B09177
:102B700047110197A109B109809344119093451120
:102B8000A0934611B0934711089508959C012B5DC1
:102B90003F4FC90108959C012F5D3F4FC901089522
:102BA0009C01275D3F4FC90108959C0125593F4F66
:102BB000C90108959C0123553F4FC90108959C0107
:102BC00020553F4FC90108959C012D543F4FC90125
:102BD00008959C012A5F3F4FC90108959C01225E20
:102BE0003F4FC9010895EF92FF920F931F938C01FD
:102BF00083E2E82E84E1F82EC7016AEE72E00E94BB
:102C00002650C70161E073E00E940750F801668515
:102C10007785C7014AE050E00E94E84F1F910F916D
:102C2000FF90EF900895EF92FF920F931F93CF9331
:102C3000DF93EC018EAD882341F480E0DF91CF91EA
:102C40001F910F91FF90EF900895EAACFBAC0CAD93
:102C50001DAD0E94D753E616F7060807190768F757
:102C60001EAE81E0DF91CF911F910F91FF90EF9009
:102C70000895CF92DF92EF92FF920F931F936C0112
:102C80007B010E94D7530027F7FC0095102FE60E1A
:102C9000F71E081F191FF601E2AEF3AE04AF15AF21
:102CA00081E086AF1F910F91FF90EF90DF90CF9062
:102CB0000895EF92FF920F931F93CF93DF93EC0150
:102CC0008D85882341F480E0DF91CF911F910F9192
:102CD000FF90EF900895E984FA840B851C850E948B
:102CE000D753E616F7060807190768F71D8681E02F
:102CF000DF91CF911F910F91FF90EF900895CF92A8
:102D0000DF92EF92FF920F931F936C017B010E9461
:102D1000D7530027F7FC0095102FE60EF71E081F6B
:102D2000191FF601E186F2860387148781E0858703
:102D300083E294E160E173E00E9407501F910F91DC
:102D4000FF90EF90DF90CF900895AF92BF92CF9217
:102D5000DF92EF92FF920F931F93CF93DF93EC01DB
:102D60000E94D7535B016C01EC84FD840E851F85A6
:102D7000CE010E94BB40882359F4DF91CF911F916F
:102D80000F91FF90EF90DF90CF90BF90AF9008959C
:102D9000CE010E94DA40B5016E197F09882777FDC0
:102DA0008095982F0E942D577B018C0120E030E008
:102DB00040E050E00E9444581816FCF688898823A9
:102DC00039F560915011709151118091521190918B
:102DD00053110E942D5720E030E048EC52E40E944D
:102DE0004F58A80197010E949256688779878A8771
:102DF0009B87109250111092511110925211109203
:102E000053110E94D7536C877D878E879F87B5CFDC
:102E100060914C1170914D1180914E1190914F1114
:102E20000E942D5720E030E048EC52E40E944F58B9
:102E3000A80197010E949256688779878A879B87A5
:102E400010924C1110924D1110924E1110924F1180
:102E5000D8CFFF920F931F938C01F62E64E670E09B
:102E60000E94E740F801F08A1F910F91FF900895AA
:102E70006CED75E00E9481450895FC0184858823EE
:102E800031F4CF0168E077E00E9481450895CF01D9
:102E900068EE73E00E94814508956CED75E00E9434
:102EA00081450895FC018485882331F4CF0160EBCE
:102EB00074E00E9481450895CF0160ED77E00E94A3
:102EC00081450895FC018381882331F4CF016AEFA5
:102ED00075E00E9481450895CF0166EF74E00E947D
:102EE00081450895FC018381882331F4CF0168EB8B
:102EF00076E00E9481450895CF0160E274E00E946F
:102F000081450895FC018381882331F4CF016CE968
:102F100074E00E9481450895CF0160E476E00E944C
:102F2000814508956CE474E00E948145089562ED46
:102F300075E00E94814508956FE077E00E94814529
:102F4000089564E276E00E94814508956EED73E095
:102F50000E948145089567EE77E00E9481450895BB
:102F6000CF93DF93EC018E859F858330910509F423
:102F700086C084309105CCF08530910509F457C0A6
:102F80008530910554F5CE0160E273E00E947F1612
:102F9000CE0103960E949C1783E294E16CE873E0F3
:102FA0000E942650DF91CF9108958130910509F458
:102FB00050C0823091052CF1CE0160E273E00E9496
:102FC0007F16CE010E94921783E294E16BE573E0D5
:102FD0000E942650DF91CF9108950697D9F7CE0130
:102FE00060E273E00E947F16CE0103960E94A11753
:102FF00083E294E160EC73E00E942650DF91CF9170
:103000000895892B39F7CE0103960E949C17CE01B3
:103010000E949717CE0106960E94A61783E294E1BC
:103020006EE173E00E942650DF91CF910895CE01AA
:1030300060E273E00E947F16CE0106960E94A617FA
:1030400083E294E166EA73E00E942650DF91CF911B
:103050000895CE0160E273E00E947F16CE010396D0
:103060000E94A117CE0106960E94AB1783E294E15D
:103070006DE373E00E942650DF91CF910895CE0159
:1030800060E273E00E947F16CE010E94971783E2F0
:1030900094E163E773E00E942650DF91CF91089599
:1030A0000F931F93CF93DF938C01EB0183E294E1A5
:1030B0006CED73E00E94265083E294E16DED73E0C5
:1030C0000E94075083E294E1BE014AE050E00E9472
:1030D000E84FCE010197029708F479C0209709F4D0
:1030E00050C083E294E164E474E00E940750F80168
:1030F0006685778583E294E14AE050E00E94E84FDC
:10310000F801868597858330910509F474C0843071
:10311000910584F08530910509F476C085309105DC
:103120000CF044C0CD2B41F585E090E0F801978785
:1031300086870EC08130910509F46FC082309105F9
:10314000ECF1CD2BC9F483E090E0F80197878687F6
:1031500083E294E164E674E00E940750F80166851A
:10316000778583E294E14AE050E00E94E84FF8015D
:103170001586C8010E94B017DF91CF911F910F9162
:10318000089583E294E16BEF73E00E94265083E29E
:1031900094E162E274E00E94075083E294E160E00F
:1031A00070E04AE050E00E94E84F9BCF069721F77D
:1031B000CD2B11F7F80117861686CACF892BE1F6B9
:1031C000C130D105C9F6F801D787C687C1CF83E2E0
:1031D00094E16BEF73E00E94265083E294E16DEF7F
:1031E00073E00E94075083E294E1BE014AE050E0A0
:1031F0000E94E84F73CFCD2B09F0BECF84E090E062
:10320000F80197878687A4CF229709F0B5CF86E08B
:1032100090E0F801978786879BCFCD2B09F0ACCF44
:1032200082E090E0F8019787868792CF0F931F93F3
:10323000CF93DF938C01EC016096CE010E94BB40DE
:10324000882329F4DF91CF911F910F910895CE012A
:103250000E94DA40C8010E945916882399F3C801D8
:1032600060E070E00E945018DF91CF911F910F91A4
:1032700008956AE377E00E948145089564E276E06C
:103280000E9481450895FC018081882339F4CF0193
:1032900001966AE678E00E9481450895CF01019683
:1032A0006DE574E00E9481450895FC0180818823CA
:1032B00039F4CF01019665E977E00E9481450895D0
:1032C000CF01019661EE74E00E9481450895FC01F2
:1032D0008081882339F4CF01019661EA75E00E946C
:1032E00081450895CF01019668E677E00E94814507
:1032F0000895FC018081882339F4CF01019663E9A8
:1033000074E00E9481450895CF0101966AE177E05B
:103310000E9481450895FC018081882339F4CF0102
:10332000019669E477E00E9481450895CF010196F6
:103330006DE674E00E9481450895CF93DF93EC0120
:10334000EF96E881F981EF97E731F105E0F4EE5867
:10335000FF4FEE0FFF1F0590F491E02D1994CF5B06
:10336000DF4F8881C154D040882309F481C184E6AD
:1033700090E0988B8F8781E08E8783E294E162ED05
:1033800076E00E942650DF91CF910895CE0168EC3F
:1033900070E00E943916CE0101960E947217CE018C
:1033A00043960E944319CE0147960E94791983E201
:1033B00094E164EB76E00E942650E5CFCE0168EC04
:1033C00070E00E943916CE0143960E946719CE0123
:1033D00047960E948B1983E294E163E976E00E94AC
:1033E0002650D1CFCE0101960E9472178FEF9FEF2A
:1033F000988B8F8781E08E8783E294E162E776E0A5
:103400000E942650C0CFCE0168EC70E00E943916B1
:10341000CE0101960E94821783E294E163E576E093
:103420000E942650B0CFCE0168EC70E00E943916A1
:1034300083E294E164E376E00E942650A4CF84E620
:1034400090E0988B8F8781E08E8783E294E163E13F
:1034500076E00E94265097CFCE0168EC70E00E9483
:103460003916CE0101960E94721783E294E162EF51
:1034700075E00E94265087CF188A1F8681E08E87CC
:1034800083E294E161ED75E00E9426507CCFCE018D
:1034900068EC70E00E943916CE0143960E944319F1
:1034A000CE0147960E947919CE0101960E946217BB
:1034B00083E294E160EB75E00E94265064CFCE0178
:1034C00068EC70E00E943916CE0143960E944319C1
:1034D000CE0147960E94791983E294E163E975E091
:1034E0000E94265050CFCE0168EC70E00E94391641
:1034F00083E294E168E775E00E94265044CFCE0154
:1035000068EC70E00E943916CE0143960E9467195C
:10351000CE0147960E948B1983E294E161E675E043
:103520000E94265030CF8FEF9FEF988B8F8781E0DE
:103530008E8783E294E168E475E00E94265023CFF1
:10354000CE0168EC70E00E943916CE0101960E940F
:10355000721783E294E16FE275E00E94265013CF68
:10356000188A1F8681E08E8783E294E16AE175E024
:103570000E94265008CFCE0168EC70E00E943916F8
:10358000CE0101960E946217CE0143960E94551902
:1035900083E294E163E075E00E942650F4CECE0110
:1035A00068EC70E00E943916CE0101960E94621705
:1035B00083E294E16BEE74E00E942650E4CECE01EB
:1035C00068EC70E00E94391683E294E161ED74E0EA
:1035D0000E942650D8CECE0168EC70E00E943916C9
:1035E00083E294E16DEB74E00E942650CCCECE01D4
:1035F00068EC70E00E943916CE0143960E9467196C
:10360000CE0147960E948B1983E294E16BEA74E045
:103610000E942650B8CECE0168EC70E00E943916A8
:10362000CE0143960E944319CE0147960E94791914
:1036300083E294E163E974E00E942650A4CECE01B7
:1036400001960E9472178FEF9FEF988B8F8781E012
:103650008E87CE0143960E946719CE0147960E943D
:103660008B1983E294E160E874E00E9426508BCECF
:10367000188A1F8681E08E8780CEEF92FF920F938B
:103680001F93CF93DF937C01EB0183E294E16CED18
:1036900073E00E94265083E294E160EF76E00E949E
:1036A000075083E294E1BE014AE050E00E94E84FF7
:1036B000C130D10561F0C330D10549F0C430D10526
:1036C00031F0C530D10519F0C630D10599F483E247
:1036D00094E16BEF73E00E94265083E294E163E192
:1036E00077E00E94075083E294E1BE014AE050E097
:1036F0000E94E84F209709F454C0C730D10509F45F
:103700006DC083E294E161EA77E00E94075087018F
:10371000015C1F4FF8016081718183E294E14AE00E
:1037200050E00E94E84F83E294E166EC77E00E946B
:103730000750F70164A975A983E294E14AE050E0DB
:103740000E94E84FF80120813181F90127313105CC
:1037500008F5E757FF4FEE0FFF1F0590F491E02D9E
:103760001994CD2BB9F4F8011182108283E294E10F
:1037700069ED77E00E940750F8016081718183E272
:1037800094E14AE050E00E94E84FF70116AEC7010D
:103790000E949D19DF91CF911F910F91FF90EF90A3
:1037A000089583E294E16BEF73E00E94265083E278
:1037B00094E16DE377E00E94075083E294E160E0DA
:1037C00070E04AE050E00E94E84F9BCF279711F746
:1037D00081E190E0F80191838083C8CF83E294E196
:1037E0006BEF73E00E94265083E294E16FE677E08E
:1037F0000E94075083E294E167E070E04AE050E005
:103800000E94E84F7ECFCD2B29F683E090E0F801AF
:1038100091838083ABCFC230D10509F4A4CF239725
:1038200009F0B8CF82E090E0F801918380839ECFC9
:10383000C130D10509F4B2C0249709F0ABCF8BE0B9
:1038400090E0F8019183808391CFCD2B09F0A2CF36
:103850008EE090E0F8019183808388CFCD2B09F032
:1038600099CFB6CFCD2B09F095CFF70184A995A9B3
:1038700004970CF497C021E430E0E20EF31EF70148
:1038800080812FEB3FEFE20EF31E882309F490C0F6
:103890008DE090E0F8019183808368CFCD2B09F013
:1038A00079CF86E190E0F801918380835FCF2797FD
:1038B00009F070CF8AE090E0F8019183808356CFC1
:1038C000279709F067CF8FE090E0F801918380831C
:1038D0004DCF259709F05ECF82E190E0F80191830A
:1038E000808344CFCD2B09F055CFF70184A995A94A
:1038F000019695AB84AB26E030E0F801318320835C
:1039000004970CF433CF85E090E0918380832ECF31
:10391000CD2B09F03FCF84E090E0F80191838083C4
:1039200025CFCD2B09F036CF89E090E0F8019183C7
:1039300080831CCF279709F02DCF88E090E0F80115
:103940009183808313CFCD2B09F024CF87E090E0C3
:10395000F801918380830ACF269709F01BCF83E17A
:1039600090E0F80191838083F70115AA14AA23310E
:10397000310509F0FBCE0ECFCD2B09F00BCF80E146
:1039800090E0F80191838083F1CE279709F002CF70
:1039900084E190E0F80191838083E8CEF801D1833F
:1039A000C083E4CE85E190E0F80191838083DECE90
:1039B0008CE090E0F80191838083D8CE6CED75E0C7
:1039C0000E94814508956CED75E00E94814508953F
:1039D00064ED74E00E948145089568EE73E00E94F2
:1039E0008145089563E875E00E94814508950F932D
:1039F0001F938C01039664E175E00E948145C80124
:103A000064E175E00E9481451F910F9108950F9325
:103A10001F938C01039668EE73E00E948145C801F4
:103A200068EE73E00E9481451F910F910895FC019B
:103A30008081882339F4CF01019664EC77E00E94FD
:103A400081450895CF0101966CE875E00E9481459B
:103A50000895FC018081882339F4CF0101966DE639
:103A600074E00E9481450895CF01019661E478E0F9
:103A70000E94814508950F931F938C0103966CE675
:103A800077E00E948145C80164ED74E00E948145A1
:103A90001F910F9108950F931F938C01039665E476
:103AA00078E00E948145C80160E374E00E9481458E
:103AB0001F910F910895CF93DF93EC01898588239F
:103AC00041F08A859B852FEF8F3F920781F0892BEC
:103AD00019F0DF91CF910895CE0103960E945245CF
:103AE0008823E9F4CE010E943D171D86F2CFCE0156
:103AF00006960E9452458823F9F0CE010E9438179D
:103B0000198681E08D878C858823D9F01092401129
:103B1000109241111092421110924311DACFCE014E
:103B20000E94381783E294E16AE478E00E9426500C
:103B3000198681E08D87CDCFCE010E9452171D8658
:103B4000C8CF10923C1110923D1110923E1110926C
:103B50003F11BFCF0F931F93CF93DF93EC018C01E5
:103B6000055E1F4FC8010E94A516CE0105960E9452
:103B70005B1DC8010E94A5168E01045D1F4FC80180
:103B80000E94BB40882329F4DF91CF911F910F91B0
:103B90000895C8010E94DA40CE010E9413168823BE
:103BA00071F48A89882381F31A8ACE0167E070E074
:103BB0000E943D1BDF91CF911F910F910895CE017F
:103BC00060E070E00E943D1BECCFEF92FF920F93FC
:103BD0001F93CF93DF93EC0189960E94AA1DCE011B
:103BE00085599F4F0E94AA1D8E010A5F1F4FC80171
:103BF0000E9416199FE9E92EF12CEC0EFD1EF7012B
:103C0000808191811816190634F4FE01E154FF4FAA
:103C100080818823B9F58E01035A1F4FF8018081F6
:103C200091811816190634F4FE01E254FF4F808189
:103C3000882339F4DF91CF911F910F91FF90EF907E
:103C400008951082CE014E960E94391983E294E1C4
:103C500061EA78E00E940750F8016081718183E297
:103C600094E14AE050E00E94E84F83E294E169EC7D
:103C700078E00E942650DF91CF911F910F91FF9025
:103C8000EF9008951082C80162E070E00E94501821
:103C900083E294E163E578E00E940750F7016081D8
:103CA000718183E294E14AE050E00E94E84F83E2B0
:103CB00094E16BE778E00E942650ADCFCF93DF937D
:103CC000EC018C85882369F583E294E169E879E069
:103CD0000E94265083E294E16AEA79E00E9407504C
:103CE000CE0106960E945245682F83E294E170E06F
:103CF0004AE050E00E94E84F83E294E169EC79E009
:103D00000E940750CE0103960E945245682F83E21D
:103D100094E170E04AE050E00E94E84FDF91CF91DB
:103D2000089583E294E16FEE78E00E94265083E2EA
:103D300094E164E279E00E940750CE0106960E9469
:103D40005245682F83E294E170E04AE050E00E941F
:103D5000E84F83E294E167E579E0D2CF05960E94CF
:103D60005E1E08951F93CF93DF93EC01162F0E94E0
:103D700067451B83112391F4CE0169E270E00E9434
:103D80007B4683E294E16CEF79E00E942650CE01FD
:103D90000E947217DF91CF911F910895CE016AE2C0
:103DA00070E00E947B4683E294E167EE79E00E9436
:103DB0002650CE010E947217DF91CF911F91089576
:103DC0000F931F93182F092F0E946745812F902F63
:103DD00068E270E00E947B46812F902F0E94971727
:103DE00083E294E161E17AE00E9426501F910F91F5
:103DF00008950F931F93182F092F0E946745812F55
:103E0000902F67E270E00E947B46812F902F0E94E6
:103E10009C1783E294E165E27AE00E9426501F91AC
:103E20000F9108950F931F93182F092F0E94674534
:103E3000812F902F66E270E00E947B46812F902FA9
:103E40000E94A61783E294E16BE37AE00E94265079
:103E50001F910F9108950F931F938C010E94E01EF4
:103E6000C80103960E94F91EC80106960E94121FFF
:103E7000F801158617861686C801409664E670E03C
:103E80000E94E74083E294E16AE47AE00E942650CF
:103E90001F910F9108950F931F93182F092F0E94C0
:103EA0006745812F902F65E270E00E947B46812F4D
:103EB000902F0E943E1983E294E16DE57AE00E9422
:103EC00026501F910F910895EF92FF921F93CF9369
:103ED000DF937C01162FEC012196CE010E946745ED
:103EE000F70110831123A1F4CE0160E270E00E947B
:103EF0007B4683E294E16AE87AE00E942650C7019B
:103F00000E946719DF91CF911F91FF90EF90089564
:103F1000CE0161E270E00E947B4683E294E160E7BB
:103F20007AE00E942650EBCFEF92FF921F93CF933F
:103F3000DF937C01162FEC012196CE010E9467458C
:103F4000F70110831123A1F4CE016EE170E00E940D
:103F50007B4683E294E16EEB7AE00E942650C70133
:103F60000E948B19DF91CF911F91FF90EF900895E0
:103F7000CE016FE170E00E947B4683E294E164EA47
:103F80007AE00E942650EBCF0F931F93182F092F32
:103F90000E946745812F902F6FE070E00E947B4662
:103FA000812F902F0E94E31C83E294E168ED7AE078
:103FB0000E9426501F910F9108950F931F93182F61
:103FC000092F0E946745812F902F64E270E00E94C4
:103FD0007B46812F902F0E94F21C83E294E162EED7
:103FE0007AE00E9426501F910F910895EF92FF9260
:103FF0000F931F938C010E94674523E0E22EF12C62
:10400000E00EF11EC7010E946745C70163E270E040
:104010000E947B46C80162E270E00E947B46C801B4
:104020000E94071D83E294E16EEE7AE00E94265022
:104030001F910F91FF90EF900895EF92FF921F93C1
:10404000CF93DF937C01162FEC012196CE010E94C5
:104050006745F70110831123A1F4CE0160E170E000
:104060000E947B4683E294E16CE07BE00E94265054
:10407000C7010E94291DDF91CF911F91FF90EF9002
:104080000895CE0161E170E00E947B4683E294E1F5
:1040900069EF7AE00E942650EBCFEF92FF920F93E8
:1040A0001F938C010E94674543E0E42EF12CE00E43
:1040B000F11EC7010E946745C70164E370E00E94DA
:1040C0007B46C80162E370E00E947B46C8010E9403
:1040D0004B1D83E294E16FE17BE00E9426501F912B
:1040E0000F91FF90EF900895CF92DF92EF92FF92A1
:1040F0001F93CF93DF93EC01162F7A0169010E9481
:104100006745CE010396B7010E943245CE0106965F
:10411000B6010E9432451D861C87112341F5CE0150
:1041200068E170E00E947B4683E294E167E47BE013
:104130000E942650CE010E94521768EC70E080E089
:1041400090E00E940C54CE010E943D1764E670E09E
:1041500080E090E00E940C54CE010E944D17DF9148
:10416000CF911F91FF90EF90DF90CF900895CE01F7
:1041700069E170E00E947B4683E294E166E37BE0C4
:104180000E942650D7CFCF92DF92EF92FF921F93DB
:10419000CF93DF93EC01162F7A01690101960E94FB
:1041A000B21ECE010596612FA70196010E947420D0
:1041B000CE014396612F0E94641FCE014796612F66
:1041C0000E94941FCE014B96612F0E942917CE01A9
:1041D0008C9662E370E00E94E7401DAA1CAA18AE0C
:1041E00019AE1EAEEF96199219921882C154D040A2
:1041F00018831FAA1EAA1123A1F483E294E16AE79F
:104200007BE00E9426508FEF9FEF988B8F8781E095
:104210008E87DF91CF911F91FF90EF90DF90CF902D
:10422000089583E294E168E57BE00E942650EBCF9D
:104230000F931F938C010E944D20C80106960E9487
:104240002B1FC8014E960E944B1FC801819660E04B
:104250000E941D20C801859661E00E941D20C801B2
:10426000899660E04BE150E029E030E00E94C320F5
:10427000C80185599F4F61E04DE150E02CE130E0ED
:104280000E94C320C80183559F4F0E94C41FC801CC
:1042900080559F4F0E94DD1FC8018D549F4F0E9483
:1042A000F61F02541F4F81E0F8018193808383E25F
:1042B00094E16CE97BE00E9426501F910F910895D4
:1042C000CB01089580E691E16AE070E00E943245FA
:1042D00083E691E16EE070E00E94324586E691E16E
:1042E0006BE070E00E94324589E691E16CE070E09D
:1042F0000E943245089580915A1190915B11009768
:10430000E9F08130910539F18330910509F471C0EC
:10431000029709F452C080915611909157110E9452
:10432000593A80915811909159110E94C70A809171
:104330005411909155110E94E51D089580E691E178
:104340000E945245882341F580915A1190915B114A
:1043500081309105C9F680E691E10E943D458823B0
:10436000B1F082E090E090935B1180935A1183E268
:1043700094E162EE7BE00E9426500E94D753609346
:104380005C1170935D1180935E1190935F11809129
:104390005A1190915B11B8CF81E090E090935B113E
:1043A00080935A1183E294E167ED7BE00E942650EE
:1043B00080915A1190915B11CBCF0E94D7532091DD
:1043C0005C1130915D1140915E1150915F11621B43
:1043D000730B840B950B20919310309194104091A6
:1043E000951050919610261737074807590708F07F
:1043F00092CF83E294E16EEE7BE00E94265083E050
:1044000090E090935B1180935A1180915811909194
:1044100059110E94D90808958F929F92AF92BF922E
:10442000CF92DF92EF92FF920F931F9323E6C22E5B
:1044300021E1D22EC6010E94374596E6A92E91E1D0
:10444000B92EC5010E94374589E6882E81E1982E54
:10445000C4010E94374583E160E00E94CE5482E1AE
:1044600060E00E94CE5483E161E00E94905582E1B9
:1044700061E00E94905586E160E00E94CE5487E1A1
:1044800060E00E94CE5486E161E00E94905586E192
:1044900061E00E94905585E062E775E143E050E0FD
:1044A0000E94865184E06FE175E143E050E00E9494
:1044B000865182E061E00E94CE5483E061E00E9478
:1044C000CE5482E060E00E94905583E060E00E945C
:1044D000905584E061E00E94CE5485E061E00E9446
:1044E000CE5484E060E00E94905584E060E00E9439
:1044F000905503E214E1C80140E855E260E070E045
:104500000E94044CC80168EF7BE00E942650C8015D
:1045100066E07CE00E94265080EC90E00E94854E90
:10452000F82EE92E0E941821F0925411E0925511B4
:10453000C80169E17CE00E94265085E091E00E947C
:10454000854EF82EE92E0E94060BF0925811E0924B
:104550005911C80161E27CE00E9426508BE490E092
:104560000E94854EF82EE92E6091581170915911D4
:1045700040915411509155110E946D29F09256119D
:10458000E0925711C8016CE27CE00E942650C801FD
:1045900061E47CE00E942650C80162E47CE00E9455
:1045A000265010925B1110925A1110925C111092C9
:1045B0005D1110925E1110925F11C8016BE57CE0F5
:1045C0000E942650C80165E67CE00E94075080E604
:1045D00091E10E945245682FC80170E04AE050E026
:1045E0000E94E84FC80160E77CE00E940750C601C6
:1045F0000E945245682FC80170E04AE050E00E94D6
:10460000E84FC8016DE77CE00E940750C5010E9499
:104610005245682FC80170E04AE050E00E94E84F20
:10462000C8016AE87CE00E940750C4010E9452451C
:10463000682FC80170E04AE050E00E94E84F809186
:104640005811909159110E94C3071F910F91FF902B
:10465000EF90DF90CF90BF90AF909F908F90089594
:10466000FC0180EE90E1918380830895FC01A0819C
:10467000B18116978D919C918E0F9F1F0E944123AF
:104680000895FC018EEC90E19183808380EE90E1AF
:10469000978386830895DC0113968D919C911497DE
:1046A000892B91F01596ED91FC91169717968D91A7
:1046B0009C911897E817F90739F0819190E01696C8
:1046C000FC93EE9315970895ED91FC911197048852
:1046D000F589E02DCD0119950895FC0188E091E15F
:1046E000918380830895CF93DF93EC01E881F98172
:1046F0000288F389E02D19959C018FEF2F3F380731
:1047000029F08D819E8101969E838D83C901DF9161
:10471000CF910895CB010895DC0113968D919C9162
:104720001497892B71F01596ED91FC9116971796B9
:104730008D919C911897E817F90719F0808190E006
:104740000895ED91FC9111970288F389E02DCD0138
:10475000199508958FEF9FEF089580E090E00895F8
:1047600008950895DC01242FED91FC910084F185DA
:10477000E02D41E01995089580E090E00895FC0156
:104780002289338980899189281B390B86899789E9
:10479000281B390BC9010895CF92DF92EF92FF9247
:1047A0000F931F93CF93DF93EC016B0179018A0183
:1047B000AE89BF89688979898A899B89861B970B0D
:1047C000A817B90778F020E030E040E050E0B901E8
:1047D000CA01DF91CF911F910F91FF90EF90DF9071
:1047E000CF900895121613061406150664F720E0FC
:1047F00030E040E050E0F601E20FF31F6A0F7B1F4C
:10480000DB018C9180832F5F3F4F4F4F5F4FAE890D
:10481000BF891196BF8BAE8B688979898A899B89FC
:10482000861B970BA817B90790F62E153F05400772
:1048300051076CF6E0CFFC0126893789A089B18940
:10484000828993898A1B9B0B2817390738F4A20F9A
:10485000B31F8C91282F30E0C90108952FEF3FEF4F
:10486000C9010895CF93DF93EC01E881F9810288B3
:10487000F389E02D19959C018FEF2F3F380729F020
:104880008E899F8901969F8B8E8BC901DF91CF9175
:104890000895CF93DF93DC0156964D915C91579725
:1048A0004115510511F15096CD91DC9151975296D9
:1048B0002D913C9153972C1B3D0B24173507B0F1DC
:1048C0008FEF6F3F7807B9F0FE01E40FF51F3197C6
:1048D00080818617E1F44150504057965C934E9387
:1048E0005697CB01DF91CF9108956FEF7FEFCB010A
:1048F000DF91CF9108954150504057965C934E936D
:10490000569760E070E0CB01DF91CF9108951F963C
:104910008C911F9784FFE9CFCA01019757969C930A
:104920008E935697C80FD91F6883DBCF57963C9359
:104930002E9356976FEF7FEFD4CF80E090E00895ED
:1049400080E090E0089580E090E0089580E090E0BD
:10495000089560E070E080E090E008956F927F92AB
:104960009F92AF92BF92CF92DF92EF92FF920F93FE
:104970001F93CF93DF93EC013B0159016A0112169B
:104980001306140615060CF050C0EE24FF24870110
:1049900017C0EB85FC858D859E85E817F90748F5DE
:1049A00090828B859C8501969C878B870894E11C5F
:1049B000F11C011D111DEA14FB040C051D05ACF5CD
:1049C000F301EE0DFF1D90808F8580FFE2CFE8811F
:1049D000F9810084F185E02DCE0160E070E044E0D3
:1049E00020E11995EB85FC858D859E85E817F907F3
:1049F000B8F2E881F981028CF38DE02DCE01692DAA
:104A000070E019958F5F9F4F89F6B701C801DF915C
:104A1000CF911F910F91FF90EF90DF90CF90BF90BB
:104A2000AF909F907F906F90089586017501EDCFB4
:104A3000CB010895FC01A081B18116978D919C91C5
:104A40008E0F9F1F0E9425250895FC018EEC90E19A
:104A50009183808380EE90E197838683CF010E94CB
:104A6000824E0895FC0180EE90E191838083CF0116
:104A70000E94824E0895FC0188E091E19183808339
:104A8000CF010E94824E0895CF93DF93EC0188EE10
:104A900090E199838883288939898C899D89821737
:104AA000930719F0C9010E94540288E091E19983AB
:104AB0008883DF91CF910895CF93DF93EC0188EE47
:104AC00090E199838883288939898C899D89821707
:104AD000930719F0C9010E94540288E091E199837B
:104AE0008883CE010E94824EDF91CF910895FC0110
:104AF000A081B18116978D919C918E0F9F1F0E946E
:104B000082250895CF93DF93EC0186EA90E19983A3
:104B100088830A9699A388A388EE90E19F838E8369
:104B20002E893F898A8D9B8D8217930719F0C901C1
:104B30000E94540288E091E19F838E83E0919A1055
:104B4000F0919B10F983E88336970190F081E02D76
:104B5000EC0FFD1F80919C1090919D10918380839C
:104B600080EE90E199A388A3CE010E94824EDF914E
:104B7000CF910895FC01A081B18116978D919C91F0
:104B80008E0F9F1F0E94C5250895CF93DF93EC01E0
:104B900086EA90E1998388830A9699A388A388EE90
:104BA00090E19F838E832E893F898A8D9B8D82170A
:104BB000930719F0C9010E94540288E091E19F8394
:104BC0008E83E0919A10F0919B10F983E8833697D9
:104BD0000190F081E02DEC0FFD1F80919C109091D1
:104BE0009D109183808380EE90E199A388A3DF914B
:104BF000CF910895AF92BF92CF92DF92EF92FF9242
:104C00000F931F93CF93DF936C01DC011296ED910C
:104C1000FC9113974D915C91DF01A41BB50BCB0167
:104C20006A177B0708F4CD015C010894A11CB11C34
:104C3000A114B104C9F5EE24FF248F01041B150B48
:104C4000C701BA01A8010E94D702E701C00FD11F16
:104C500081E090E0BE010E946021FC011082188278
:104C6000F60120813181848195818217930719F0A3
:104C7000C9010E945402D6011196FC92EE9213963D
:104C8000DC93CE931297AE0CBF1C1596BC92AE92DD
:104C90001497DF91CF911F910F91FF90EF90DF90CC
:104CA000CF90BF90AF900895C5010E94AA010097D0
:104CB00079F07C01D6011296ED91FC9113974D91FC
:104CC0005C91BBCF1995C5010E94AA01009789F795
:104CD000E0916C11F0916D113097A1F780E090E0B8
:104CE0000E94CA59FF920F931F93CF93DF938C01B9
:104CF000F62EDC0112962D913C911397E901219635
:104D000014968D919C911597C817D907E9F081E009
:104D100090E0BE010E946021FC0110821882D8013F
:104D20001296ED91FC911397F08212968D919C91C1
:104D30001397019613969C938E931297DF91CF91C0
:104D40001F910F91FF9008958D919C91F901E81B9F
:104D5000F90BCF0171F461E070E0680F791FC801B1
:104D60000E94FA25D8011296CD91DC9113972196D5
:104D7000CECFBF01F2CF0F931F93CF93DF938C0160
:104D8000EB018FEF6F3F780741F4C0E0D0E0CE0138
:104D9000DF91CF911F910F910895D8011F968C91AB
:104DA00084FF1AC0F801208D318D0088F189E02D33
:104DB000D80152968D919C9153978E1B9F0B28176B
:104DC000390768F4E20FF31F6083F801808D918D3D
:104DD0000196918F808FDBCFCFEFDFEFD8CFC80167
:104DE00040960E947226F1CFDF92EF92FF920F93CE
:104DF0001F93CF93DF93EC017B01D42E888199819F
:104E0000EA81FB81E81BF90BAB014E0F5F1F2C8180
:104E10003D8121503040281B390B2417350740F4C1
:104E2000EE16FF06A0F16E0F7F1FCE010E94FA253D
:104E3000E114F10419F12A813B81C90101962E0D7B
:104E40003F1D281B390B6D2D70E0A9010E94E9025E
:104E50000A811B810E0D1F1D81E090E0B8010E94A8
:104E60006021FC011082F8011082EA81FB81D0826E
:104E70008A819B818E0D9F1D9B838A83CE01DF914A
:104E8000CF911F910F91FF90EF90DF900895BF0198
:104E9000CACF0F931F93CF93DF93EC0130E0C9018A
:104EA00088719070489709F486C0C9018870907025
:104EB00020713070413009F455C04230B1F1AA89F7
:104EC000BB89E889F989AD014E1B5F0B8B01040F8B
:104ED000151F40175107F0F1892B11F01F8B0E8B16
:104EE000232BE1F09D012E1B3F0B2017310708F00B
:104EF00042C0B801621B730BCE01409640E00E9495
:104F0000F426888999892A893B89281B390B8E893F
:104F10009F892817390710F43F8B2E8BB801CB01DE
:104F2000DF91CF911F910F91089521153105C9F59A
:104F300000E010E0E889F989AA89BB89009721F08F
:104F40000E891F89060F171FAD014E1B5F0B4017FF
:104F5000510710F66FEF7FEFCB01DF91CF911F91DB
:104F60000F9108958B01E889F989AA89BB89AD0160
:104F70004E1B5F0BAECFE00FF11FAE17BF0739F22C
:104F80008C918083EA1BFB0B8A899B898E0F9F1F64
:104F90009B8B8A8B28893989AC01421B530B9A0160
:104FA000B6CFAA89BB89E889F9898D010E1B1F0B31
:104FB000060F171FC3CF423009F077CFCBCF8F92A8
:104FC0009F92BF92CF92DF92EF92FF920F931F9327
:104FD000CF93DF936C017B01DC01ED91FC9136975F
:104FE0000190F081E02DE80FF91FC189D289209747
:104FF000F9F0E881F98136970190F081E02DEC0F0E
:10500000FD1FA389B489ED91FC9111970484F58566
:10501000E02DCD0119958F5F9F4F09F4BFC0D601D8
:10502000ED91FC9136970190F081E02DEC0DFD1D86
:10503000838994890E948C23BFEF8F3F9B0709F4DB
:105040008CC00E948859892B09F09AC0D601ED9135
:10505000FC91369720813181F601E20FF31F83889E
:105060009488D701ED91FC91119712968D919C91A6
:105070001397E817F90771F010828D919C911197A1
:1050800013969C938E931297D601ED91FC913697CF
:1050900020813181F9013296EC0DFD1D2285338589
:1050A000448555851286138614861586E9012115D7
:1050B000310509F0C6C00EEF1FEF1EC081E090E081
:1050C000BE010E946021FC0110821882D701129655
:1050D000ED91FC911397B08212962D913C9113970C
:1050E0002F5F3F4F13963C932E9312970115110596
:1050F00009F492C001501040C4010E944B23BFEF3D
:105100008F3F9B0709F4A3C0B82E992787FD909580
:105110000E948859892B09F04DC0F7012281338103
:10512000E901219684819581C817D90739F68081D4
:105130009181A901481B590BCA0109F080C061E0A7
:1051400070E0680F791FC7010E94FA25D7011296F7
:10515000CD91DC9113972196B1CFD601ED91FC91C1
:1051600036970190F081E02DEC0DFD1D2581322F49
:10517000326083899489892B09F490C0358366CF86
:10518000D601ED91FC9136970190F081E02DEC0D68
:10519000FD1D838994890E944B2341CFE881F981C9
:1051A00036970190F081E02DEC0FFD1F25812160E5
:1051B000258335CFF401238134812115310551F048
:1051C000858196812817390729F0FC018291B8164C
:1051D00009F46FC0D401ED91FC910688F789E02DA8
:1051E000C4016B2D70E019958F5F9F4F91F4D6012C
:1051F000ED91FC9136970190F081E02DEC0DFD1DB5
:105200002581322F346083899489892B09F449C020
:105210003583F70122813381F7018081918128173D
:10522000390751F1C601DF91CF911F910F91FF9086
:10523000EF90DF90CF90BF909F908F900895BA012C
:1052400080CFC701B9010E94FA258E0153CFD60144
:10525000ED91FC9136970190F081E02DEC0DFD1D54
:105260002581322F326083899489892B59F13583C6
:10527000F70122813381D0CFD601ED91FC91369791
:105280000190F081E02DEC0DFD1D2581322F346061
:1052900083899489892BF1F03583C4CF23602583DA
:1052A000D5CE25602583D70112962D913C91139779
:1052B000B3CFD4011696FC93EE931597F701228194
:1052C0003381AACF23602583D70112962D913C917B
:1052D0001397A2CF25602583A5CFCF92DF92EF92BF
:1052E000FF920F931F93CF93DF93EC017B016A0131
:1052F00062E370E00E94E740198618861B861A86D2
:105300001D861C861F861E8688E090E00E94AA01EA
:10531000009709F4BDC08A879B878C879D878A8503
:105320009B8508969F878E870C851D8581E090E080
:10533000B8010E946021FC011082F8011082BE01B8
:10534000695E7F4F41E250E01FAA18AE86E090E010
:10535000A0E0B0E089AF9AAFABAFBCAFED961992C9
:1053600019921992199280E2899319821882C25473
:10537000D0405DAB4CABCC5BDF4F79836883C454CA
:10538000D0401EAACA5BDF4F1882C654D040E091BD
:105390009A10F0919B10FA8BE98B9E012F5E3F4F84
:1053A00036970190F081E02DE20FF31F80919C1061
:1053B00090919D10918380831B8A1C8A1D8A1E8A6E
:1053C000E989FA8936970190F081E02DE20FF31F09
:1053D00054834383748B638B1582158A86EA90E12C
:1053E0009A8B898B0A969AAB89AB1B8E1A8E1D8E6F
:1053F0001C8E1F8E1E8E19A218A21BA21AA21DA2FD
:105400001CA21EA288EE90E1988F8F8B18A61FA277
:105410001AA619A61CA61BA688E090E00E94AA0165
:10542000009709F447C08FA398A789A79AA78FA1CF
:1054300098A508969CA78BA709A51AA581E090E0DE
:10544000B8010E946021FC011082F80110821EA6A2
:105450001DA618AA1FA688E08EA3C95BDF4FE9929C
:10546000F992D982C882C954D04081E0888BDF91FB
:10547000CF911F910F91FF90EF90DF90CF90089503
:10548000199588E090E00E94AA01009709F043CFA7
:10549000E0916C11F0916D11309791F780E090E000
:1054A0000E94CA59199588E090E00E94AA010097CD
:1054B00009F0B9CFE0916C11F0916D11309791F72F
:1054C000EDCF8F929F92AF92BF92CF92DF92EF92E9
:1054D000FF920F931F93CF93DF937C018B016A019F
:1054E000DC014D915C91119712962D913C9113978F
:1054F000241B350BE601C61BD70B2C173D0708F004
:1055000075C0CA01A9010E94CE02D7011296ED9181
:10551000FC9113976D917C911197AF01461B570B2E
:105520005801A40EB51ECA14DB0409F451C0E601EB
:10553000CA19DB099E01240F351F14968D919C9189
:1055400015970197861B970B8217930708F081C068
:105550009A012F5F3F4FCE01C431D10508F463C0DB
:105560004901880E991E8114910409F065C0CC246C
:10557000DD248F01061B170BC601A8010E94D7026C
:105580000C0D1D1DC801B501AE010E94D702C00F50
:10559000D11F81E090E0BE010E946021FC011082D9
:1055A0001882D7012D913C91119714968D919C9161
:1055B00015978217930719F0C9010E945402F70149
:1055C000D182C082D383C2838C0C9D1C958284823D
:1055D000C701DF91CF911F910F91FF90EF90DF9066
:1055E000CF90BF90AF909F908F900895CA01AE0169
:1055F0000E94CE02D701ED91FC911197EC0FFD1F97
:1056000012960D90BC91A02DEA17FB0709F38C911F
:105610008083EA1BFB0BE7018A819B818E0F9F1F12
:105620009B838A83D5CF84E190E04901880E991E3F
:105630008114910409F49BCFC4010E94AA01009730
:10564000C1F16C01F701608171810280F381E02D6D
:1056500090CFB5016F5F7F4FC61AD70ACF01019671
:10566000A6010E94D702D70112960D911C911397A3
:105670000C0F1D1F81E090E0B8010E946021FC0129
:105680001082F8011082D7011296ED91FC911397C8
:10569000D5018C918083F701828193818C0F9D1FAE
:1056A0009383828395CF1995C4010E94AA01009724
:1056B00041F6E0916C11F0916D113097A1F780E007
:1056C00090E00E94CA593F924F925F926F927F92F0
:1056D0008F929F92AF92BF92CF92DF92EF92FF9202
:1056E0000F931F93DF93CF93CDB7DEB728970FB6F5
:1056F000F894DEBF0FBECDBF3C018AE0482E512C8E
:10570000460C571CCE01019698878F8383E294E163
:105710000E94934C181619062CF4F301808591858C
:105720004C97C4F028960FB6F894DEBF0FBECDBFDD
:10573000CF91DF911F910F91FF90EF90DF90CF906D
:10574000BF90AF909F908F907F906F905F904F90A1
:105750003F90089583E294E10E94C54C382EFAE010
:105760008F1709F445C1D3011C960D911C911D970B
:105770001A968D919C911B97081B190B0E5F1F4F5A
:105780001A8219821C821B821E821D82BFEF0F3F6C
:105790001B0771F00115110509F00BC180E090E0C5
:1057A0009A8389839C838B83080F191F1E830D8323
:1057B0000B811C8181E090E0B8010E946021FC0116
:1057C0001082F8011082D3011A968D909C901B973D
:1057D0001C96ED91FC911D978E169F0609F403C14E
:1057E0004B815C8169817A81DA01A61BB70B6F015D
:1057F000C818D90896012A0F3B1F8D819E810197F9
:10580000861B970B8217930708F079C09D012F5FC5
:105810003F4FC601B4E1CB16D10410F484E190E00F
:105820005901A80EB91EA114B10409F0A7C0EE24B5
:10583000FF248A01061B170BC701A8010E94D7028B
:105840000E0D1F1DC801B401A6010E94D7020C0D48
:105850001D1D81E090E0B8010E946021FC011082D2
:10586000F801108229813A818D819E8182179307E8
:1058700019F0C9010E945402FA82E9821C830B8349
:10588000AE0CBF1CBE82AD82A8018A010F5F1F4F04
:105890008D819E810817190709F45CC081E090E0B2
:1058A000B8010E946021FC011082F8011082EB8196
:1058B000FC8130824B815C814F5F5F4F5C834B8307
:1058C0008F8198858415950529F069817A81C201B7
:1058D0000E94612A29813A818D819E8182179307D6
:1058E00019F0C9010E945402D30118968D919C9120
:1058F0001997019619969C938E93189707CFB40128
:105900006F5F7F4FE61BF70BCA010196AF010E9444
:10591000D7020B811C810C0D1D1D81E090E0B801A8
:105920000E946021FC011082D8011C92EB81FC8155
:10593000D4018C9180834B815C814C0D5D1D5C8317
:105940004B838A010F5F1F4F8D819E8108171907B6
:1059500009F0A4CF89819A818A01081B190B09F0EB
:1059600045C061E070E0600F711FCE0101960E949A
:10597000FA250B811C810F5F1F4F90CFC5010E943C
:10598000AA01009761F07C014B815C8169817A8179
:1059900050CF1995C5010E94AA010097A1F7E09187
:1059A0006C11F0916D113097A1F780E090E00E94AA
:1059B000CA59C8010E94AA01009709F0F1CEE091EE
:1059C0006C11F0916D11309781F31995C8010E9407
:1059D000AA01009709F0E4CEE0916C11F0916D11ED
:1059E000309799F7E2CF4B815C814FCFB801BBCFA5
:1059F000D30118968D919C911997181619061CF4CD
:105A0000F301108A8FCE81E050968C938BCEAF92AB
:105A1000BF92CF92DF92EF92FF920F931F93DF938B
:105A2000CF93CDB7DEB762970FB6F894DEBF0FBE47
:105A3000CDBF7C015B01DC01ED91FC9136970190BB
:105A4000F081E02DE80FF91F018912890115110578
:105A500001F1D801ED91FC9136970190F081E02D94
:105A6000E00FF11FA389B489ED91FC911197048493
:105A7000F585E02DCD0119958F5F9F4F09F480C109
:105A8000D701ED91FC9136970190F081E02DEE0D5C
:105A9000FF1D838994890E948C23BFEF8F3F9B0752
:105AA00009F4DDC00E948859892B09F0EBC01A82E5
:105AB00019821C821B821E821D8288E090E00E9457
:105AC000AA018C01009709F4C0C01A8309831C83C2
:105AD0000B83085F1F4F1E830D830850104081E029
