:100000000C94AB000C94EE3B0C941B3C0C94D30072
:100010000C94D3000C94D3000C94D3000C94D30014
:100020000C94D3000C94D3000C94D3000C9484361D
:100030000C94D3000C94D3000C94D3000C94D300F4
:100040000C94483C0C94D3000C9443370C94913797
:100050000C94D3000C94D3000C94D3000C94D300D4
:100060000C94D3000C94D300084AD73B3BCE016ECE
:1000700084BCBFFDC12F3D6C74319ABD56833DDAFF
:100080003D00C77F11BED9E4BB4C3E916BAAAABE0E
:10009000000000803F05A84CCDB2D44EB93836A937
:1000A000020C50B9918688083CA6AAAA2ABE000074
:1000B00000803F00000000240027002A000000000C
:1000C00000250028002B0000000000230026002946
:1000D00000040404040404040402020202020203F1
:1000E00003030303030102040810204080010204FB
:1000F000081020010204081020000000070002017F
:1001000000000304060000000000000000636469B2
:100110006E6F70737578585B00494E46494E49546E
:10012000594E414ECDCCCC3D0AD7233C17B7D138E0
:1001300077CC2B329595E6241FB14F0A0000204161
:100140000000C84200401C4620BCBE4CCA1B0E5AD0
:10015000AEC59D74FD3811241FBECFEFD8E0DEBFC1
:10016000CDBF14E0A0E0B1E0E6E1F4E802C0059004
:100170000D92A63AB107D9F715E0A6EAB4E001C09E
:100180001D92A53AB107E1F711E0C6E5D1E004C040
:100190002297FE010E94C341C435D107C9F70E94CE
:1001A00053390C9409420C940000CF93DF93BC01A7
:1001B0008230910510F462E070E0A091A105B09149
:1001C000A205ED01E0E0F0E040E050E021C08881D0
:1001D00099818617970769F48A819B81309719F076
:1001E0009383828304C09093A2058093A105FE01AE
:1001F00034C06817790738F44115510519F0841790
:10020000950708F4AC01FE018A819B819C01E901FC
:100210002097E9F641155105A9F1CA01861B970BF4
:10022000049708F4BA01E0E0F0E02AC08D919C91B7
:10023000119784179507F9F46417750781F41296DE
:100240008D919C911397309719F09383828304C00A
:100250009093A2058093A105FD0132964CC0CA017E
:10026000861B970BFD01E80FF91F619371930297AD
:100270008D939C9340C0FD01828193819C01D901A3
:100280001097A1F680919F059091A005892B41F4CC
:1002900080910004909101049093A00580939F05A4
:1002A00040910204509103044115510541F44DB7AA
:1002B0005EB78091FE039091FF03481B590B20917C
:1002C0009F053091A005CA01821B930B86179707E3
:1002D00080F0AB014E5F5F4F8417950750F0420FDF
:1002E000531F5093A00540939F05F90161937193AB
:1002F00002C0E0E0F0E0CF01DF91CF910895CF930D
:10030000DF93009709F450C0EC0122971B821A82F8
:10031000A091A105B091A205109709F140E050E02D
:10032000AC17BD0708F1BB83AA83FE01219131916F
:10033000E20FF31FAE17BF0779F48D919C911197CF
:10034000280F391F2E5F3F4F3983288312968D91D6
:100350009C9113979B838A834115510571F4D09327
:10036000A205C093A10520C012968D919C91139770
:10037000AD01009711F0DC01D3CFFA01D383C28322
:1003800021913191E20FF31FCE17DF0769F48881C5
:100390009981280F391F2E5F3F4FFA013183208347
:1003A0008A819B8193838283DF91CF910895662711
:1003B00077270C94DF04FC0188279927E894219182
:1003C0002032E9F3293010F02E30C8F32B3241F0FF
:1003D0002D3239F4689404C00E942802820F911DC6
:1003E000219120532A30C0F31EF4909581959F4FA0
:1003F0000895FB01DC0104C08D910190801921F466
:1004000041505040C8F7881B990B0895FB01DC014F
:1004100002C001900D9241505040D8F708956817DE
:10042000790768F4FB01DC01E40FF51FA40FB51F89
:1004300002C002900E9241505040D8F708950C949B
:100440000602DC0101C06D9341505040E0F7089571
:100450007AE0979F902D879F802D910D112408950C
:10046000AEE0B0E0E6E3F2E00C94E24185E08C839C
:100470008B899C899A8389839E01295E3F4FCE0197
:1004800001966D897E89A9010E94CE032E96E2E035
:100490000C94FE41FC0120FD08C023FD05C022FF95
:1004A00002C073836283518340830895EF92FF9269
:1004B0000F931F9344FF02C033E011C046FF02C0F8
:1004C00034E00DC0DB01FC01AA0FBB1FEE1FFF1FB4
:1004D0001094D1F76A0F7B1F8E1F9F1F31E0660FAC
:1004E000771F881F991F3150D1F77B018C01E20ED5
:1004F000F11C011D111DA8019701B701CA011F912F
:100500000F91FF90EF9008950F931F93CF93DF9378
:100510008C01C8010E946206EC0197FD08C00E9490
:10052000C741892BB1F7CE01B8010E94A406CE01C4
:10053000DF91CF911F910F910895A0E0B0E0E3EA21
:10054000F2E00C94DA41EC01C62E5A01122F0E94FF
:100550006206AC018B3219F08D3251F41068CA94E6
:1005600009F46DC0CE010E946206AC0197FD67C020
:100570006DEFD62ED1228D2D807301F54033F1F42D
:10058000CA9409F447C0CE010E946206AC0197FDEF
:1005900041C082E0D82A483711F0483559F480E448
:1005A000D82ACA94B9F1CE010E946206AC019923FF
:1005B0002CF430C0D6FC02C080E1D82AEE24FF24FF
:1005C0008701242F2053283088F0D4FC09C02A301A
:1005D00068F0D6FE05C02F7D822F8151863028F02D
:1005E000CA01BE010E94A40612C02750C801B7016B
:1005F0004D2D0E9456027B018C0182E0D82ACA94BC
:1006000061F0CE010E946206AC0197FFDACFD1FC07
:1006100004C015C0EE24FF248701D7FE08C0109542
:100620000095F094E094E11CF11C011D111DC50121
:10063000B801A7012D2D0E944A0281E001C080E08F
:10064000CDB7DEB7EAE00C94F641A0E2B0E0EBE211
:10065000F3E00C94D6416C01A62E8A017901FE01CB
:10066000319680E2DF011D928A95E9F770E030E073
:1006700060E040E050E04F01A1E0B0E0F60183818E
:10068000F70183FD259183FF21917F01222309F446
:100690007EC02E3519F44115510569F1872F90E080
:1006A0008417950744F42D3551F12D3221F433236D
:1006B00029F431E021C0332309F4622F322F832F34
:1006C000869586958695F401E80FF11D832F877036
:1006D0003D0102C0660C771C8A95E2F7208126292D
:1006E0002083361711F430E007C0361710F43F5F4F
:1006F000E6CF3150E4CF71E04F5F5F4FBFCF332380
:1007000019F08E8180628E83772359F0FE01319635
:100710009E012F5D3F4F808180958193E217F30703
:10072000D1F7BB24B3944E010894811C911CC601DF
:100730000E946206AC0197FD22C08695869586953B
:10074000F401E80FF11D808190E09A01277030706C
:1007500002C0959587952A95E2F780FD05C0CA01EC
:10076000B6010E94A4060BC00115110519F0D801AD
:100770004D938D01AA94BB24AA20C9F602C0BB20C8
:1007800031F40115110529F0F801108202C0EE24A0
:10079000FF24C701A096EEE00C94F241A0E0B0E087
:1007A000E4EDF3E00C94D6415C016B013A01FC01ED
:1007B000178216828824EAC0812F90E00E94C741E8
:1007C000892B21F0C5010E948402E0C0153249F452
:1007D000F601F3FC6591F3FE61916F01653269F4F6
:1007E00015E2C5010E94620697FDDCC0181709F4E6
:1007F000CDC0B5010E94A406DAC06A3219F0162FE6
:1008000000E006C0F3FC1591F3FE11916F0101E0C9
:1008100099240FC00260692D70E080E090E040E212
:100820000E945602962EF601F3FC1591F3FE1191EB
:100830006F01212F20532A3068F301FD03C0992452
:100840009A9403C0992009F4B2C0183621F01C36DE
:1008500099F4F6010BC0F601F3FC6591F3FE61918A
:10086000683619F06F01162F07C008600460F3FCAA
:100870001591F3FE11916F01112309F498C08DE0D9
:1008800091E0612F70E00E943F06892B09F48FC030
:10089000802F00FF03C0EE24FF2407C0F301E08097
:1008A000F18022E030E0620E731E1E3651F4F50135
:1008B0004681578160E070E0C701202F0E944A0204
:1008C00065C0133691F481FD02C099249394C5014B
:1008D0000E94620697FD66C0E114F10419F0F70169
:1008E00081937F019A9499F74FC01B3559F4C50144
:1008F000692DA70196010E9425036C01009709F05C
:1009000043C03DC0C5010E94840297FD4BC01F3605
:1009100059F1103728F4143629F1193639F527C062
:10092000133719F0153711F51DC0C5010E94620675
:10093000EC0197FD11C00E94C741892B29F0CE011F
:10094000B5010E94A40608C0E114F10419F0F701F2
:10095000C1937F019A9449F7E114F104A9F0F701DA
:10096000108212C0006203C0006101C00064C501B2
:10097000692DA701202F0E949D02882329F4F501EB
:100980008381807379F413C000FF8394F501F380B1
:10099000F601F3FC1591F3FE11916F01112309F09B
:1009A0000BCF05C0882019F42FEF3FEF02C0282D90
:1009B00030E0C901CDB7DEB7EEE00C94F241A0E023
:1009C000B0E0E5EEF4E00C94D841EC015B01611578
:1009D000710519F0FB0191838083F9908F2D90E0D0
:1009E0000E94C741892BC9F7FDE2FF1621F4F99057
:1009F000EE24E39405C02BE2F21609F4F990EE24FC
:100A00008E0101501040C80169E171E043E050E0FF
:100A10000E944A06892B01F58E010E5F1F4FC80107
:100A20006CE171E045E050E00E944A06892B19F420
:100A30008E01095F1F4FA114B10419F0F501118354
:100A40000083E0FC04C070E090E080E814C070E037
:100A500090E080E86FEF08C1C80161E271E043E017
:100A600050E00E944A06892B69F4A114B10429F4CC
:100A700070E090E080EC6FE7F7C02296F501D1833B
:100A8000C083F6CF8824992440E050E060E070E015
:100A9000EF2DE053EA30A0F5F2E0EF2A8E2D90E042
:100AA0009C0128703070E2FE06C0232B79F5089473
:100AB000811C911C2BC0232B19F0089481089108EC
:100AC000DB01CA0112E0880F991FAA1FBB1F1A95EC
:100AD000D1F7480F591F6A1F7B1F440F551F661F10
:100AE000771F4E0F511D611D711D483929E95207AD
:100AF00029E9620729E1720748F084E0E82A06C084
:100B0000EE3F31F4E3FC39C098E0E92AF990C0CF18
:100B1000E53311F0E53189F529912D3219F4E0E141
:100B2000EE2A05C02B3219F081E090E003C0299134
:100B300082E090E0E22FE053EA3018F0C81BD90BB6
:100B40001CC020E030E0FCE020383F075CF4C90125
:100B5000880F991F880F991F280F391F220F331FE5
:100B60002E0F311DE991E053EA3068F3E4FE03C033
:100B7000309521953F4F820E931ECE2CDD24E1FE51
:100B800007C0A114B10421F02197F501D183C083DE
:100B9000CB01BA010E94433F7B018C01F3E0CF22DD
:100BA000DD2423E0C216D10421F417FB109517F9B8
:100BB000109557016801C801B70120E030E040E01E
:100BC00050E00E94A33E882309F44AC097FE0DC05E
:100BD00028E3E22E21E0F22E9094819491089394E0
:100BE000C0E2D0E000E010E012C090E5E92E91E014
:100BF000F92EF6CFF7012591359145915491C60113
:100C0000B5010E9467405B016C018C1A9D0A8C162D
:100C10009D0684F7D595C7950F5F1F4F06301105C8
:100C200029F08CEF9FEFE80EF91EF1CFC501D60138
:100C30007C018D018C2D880F8D2D881F8F3F51F0E9
:100C4000C601B50120E030E040E050E00E94A33E44
:100C5000882331F482E290E09093A4058093A30569
:100C60007E2D9F2D802F612F272F392F482F562F14
:100C7000B901CA01CDB7DEB7ECE00C94F441FC0138
:100C80000590061621F00020D9F7C001089531978C
:100C9000CF010895FB01DC014150504088F08D9157
:100CA00081341CF08B350CF4805E659161341CF04E
:100CB0006B350CF4605E861B611171F3990B08951E
:100CC000881BFCCFCF93DF93EC014B8140FF1AC010
:100CD00046FF0AC04F7B4B838E819F8101969F8385
:100CE0008E838A81282F2BC042FF13C0E881F981AF
:100CF0008081282F332727FD30952115310529F4D0
:100D000040624B832FEF3FEF1BC03196F983E8839E
:100D100011C0EA85FB85CE0109959C0197FF0AC0A9
:100D20009B812F5F3F4F11F080E201C080E1892B52
:100D30008B83E8CF8E819F8101969F838E8330E0E5
:100D4000C901DF91CF9108959C01FB01838180FF50
:100D500011C086FD0FC09FEF2F3F390759F0228346
:100D600080648F7D838386819781019797838683B3
:100D700030E002C02FEF3FEFC90108959C01245FCE
:100D80003F4FC9010895FC01E350FF4F80E090E020
:100D9000A0E0B0E081939193A193B193808391837C
:100DA000A283B3830895FC01E350FF4F208131817A
:100DB00042815381B901CA010895FC01EF5FFE4FE2
:100DC0002081318142815381B901CA010895FC011A
:100DD000E750FF4F808191810895FC01E550FF4F5E
:100DE000808191810895FC01E550FF4F11821082AE
:100DF0001292129208952F923F924F925F926F92A9
:100E00007F928F929F92AF92BF92CF92DF92EF929A
:100E1000FF920F931F93DF93CF93CDB7DEB72C973D
:100E20000FB6F894DEBF0FBECDBF1C014B016901A8
:100E30007A010E94352D2B013C01AA2497FCA09435
:100E4000BA2CC501B4010E94453FAB01BC015E0153
:100E50000894A11CB11CC501930182010E94E22DDE
:100E6000D101F5018CE001900D928150E1F7C101B3
:100E70000C96F101C080D180E280F380048115815D
:100E80002681378140855185628573850E94B60B26
:100E90002C960FB6F894DEBF0FBECDBFCF91DF9179
:100EA0001F910F91FF90EF90DF90CF90BF90AF9088
:100EB0009F908F907F906F905F904F903F902F907A
:100EC0000895CF92DF92EF92FF920F931F93DF93DB
:100ED000CF93CDB7DEB72C970FB6F894DEBF0FBE19
:100EE000CDBFC982DA82EB82FC820D831E832F8301
:100EF000388749875A876B877C87DC01FE013196EA
:100F00002CE001900D922150E1F70C96C980DA8017
:100F1000EB80FC800D811E812F81388549855A85A3
:100F20006B857C850E94B60B2C960FB6F894DEBFBD
:100F30000FBECDBFCF91DF911F910F91FF90EF902A
:100F4000DF90CF9008952F923F924F925F926F92D1
:100F50007F928F929F92AF92BF92CF92DF92EF9249
:100F6000FF920F931F93DF93CF93CDB7DEB72C97EC
:100F70000FB6F894DEBF0FBECDBF1C014B01690157
:100F80007A010E942D2D2B013C01AA2497FCA094EC
:100F9000BA2CC501B4010E94453F8B019C015E0142
:100FA0000894A11CB11CC501B301A2010E94E22D4D
:100FB000D101F5018CE001900D928150E1F7C10162
:100FC0000C96F101C080D180E280F380048115810C
:100FD0002681378140855185628573850E94B60BD5
:100FE0002C960FB6F894DEBF0FBECDBFCF91DF9128
:100FF0001F910F91FF90EF90DF90CF90BF90AF9037
:101000009F908F907F906F905F904F903F902F9028
:1010100008950F931F9300E715E0C80160E071E0A9
:101020000E94BB3A8AE00E94E63DBC01C8014AE04A
:1010300050E00E949C3AC8016BE071E00E94BB3A0C
:101040008EE00E94E63DBC01C8014AE050E00E94EB
:101050009C3AC80165E171E00E94BB3A8BE00E94B6
:10106000E63DBC01C8014AE050E00E94893AC8014F
:1010700062E271E00E94BB3A8CE00E94E63DBC0156
:10108000C8014AE050E00E94893A1F910F910895EB
:101090000F931F938C018A509F4F6CED75E00E9457
:1010A000C235C8018D509F4F6CED75E00E94C2356E
:1010B0001F910F9108959F92AF92BF92CF92DF92AE
:1010C000EF92FF920F931F93CF93DF936C01EC018C
:1010D0002C96CE010E94500B182F092FCE010E9492
:1010E0005B0BAC01212F302FC9017C0185369105A6
:1010F0001CF024E6E22EF12C5A01453651051CF075
:1011000094E6A92EB12CCE010E94560B182FCE01C9
:101110000E94610B982E112309F459C0C70164E69F
:1011200070E00E94784184EF91E09B01289FB0011C
:10113000299F700D389F700D1124882777FD8095A9
:10114000982F0E94453F7B018C01992009F043C0F4
:10115000C5016CE97FEF0E94784184EF91E09B012B
:10116000289FB001299F700D389F700D112488278A
:1011700077FD8095982F0E94453F26EF30E0C20E04
:10118000D31E0E94123F9B01AC0124523A4FC6016C
:10119000B9010E94C2358DEF9FEFC80ED91EC8015C
:1011A000B7010E94123F9B01AC0124523A4FC60185
:1011B000B9010E94C235DF91CF911F910F91FF902D
:1011C000EF90DF90CF90BF90AF909F900895C701B0
:1011D0006CE97FEFA6CFC50164E670E0BCCFCF928B
:1011E000DF92EF92FF920F931F938C016091AA04FC
:1011F0007091AB048091AC049091AD040E94453F86
:10120000F801E951FF4F20813181428153810E94D1
:1012100067406B017C016091A6047091A7048091E6
:10122000A8049091A9040E94453FF801ED51FF4F99
:1012300020813181428153810E9467409B01AC0132
:10124000C701B6010E94163EF801E551FF4F20810B
:101250003181428153810E9467406B017C01C8014A
:101260000E943D2DA70196010E94173EAB01BC01D3
:10127000C8010E94452D1F910F91FF90EF90DF90C4
:10128000CF9008952F923F924F925F926F927F92EC
:101290008F929F92AF92BF92CF92DF92EF92FF9286
:1012A0000F931F93DF93CF9300D00F92CDB7DEB78C
:1012B0005C010E94EF082091A6043091A7043C83B2
:1012C0002B838091AA049091AB049A838983109216
:1012D000A6041092A7041092A8041092A9041092D8
:1012E000AA041092AB041092AC041092AD04B901A0
:1012F000882777FD8095982F0E94453F7B018C01C0
:10130000A981BA81BD01882777FD8095982F0E9419
:10131000453FF501E951FF4F2081318142815381E1
:101320000E9467403B014C01F501ED51FF4FC801A0
:10133000B70120813181428153810E9467401B01A6
:101340002C01A40193010E94173E20E030E040E010
:101350005FE30E9467407B018C0141E0C42ED42EE4
:10136000CA0CDB1CC401B301F6012081318142812A
:1013700053810E94173ED6016D937D938D939C936C
:1013800013973DEFC32ED12CCA0CDB1CF6016081F4
:10139000718182819381A20191010E94173ED60141
:1013A0006D937D938D939C931397F501E750FF4FB9
:1013B000808191812B813C81280F391F31832083CB
:1013C000F501E550FF4F80819181A981BA81A80F75
:1013D000B91FB183A083C501A701B8010E944330A2
:1013E000E1EFF0E0AE0EBF1E8091AA049091AB0435
:1013F000D5018D939C93F5018091A6049091A7044B
:10140000929382930F900F900F900F90CF91DF9156
:101410001F910F91FF90EF90DF90CF90BF90AF9012
:101420009F908F907F906F905F904F903F902F9004
:101430000895CF92DF92EF92FF920F931F93CF9375
:10144000DF93EC018C010D521F4FC8010E9439310E
:10145000882339F58E0105521F4FC8010E9439318A
:101460008823B1F0C8010E945831CE010C96C88083
:10147000D980EA80FB800C811D812E813F814885C7
:1014800059856A857B850E94AA12CE010E945B085D
:10149000DF91CF911F910F91FF90EF90DF90CF9050
:1014A0000895C8010E945831CE010E944209D2CF4E
:1014B000CF92DF92EF92FF920F931F938C010E94C5
:1014C000D02DC8010C960E947613C8018D529F4FF3
:1014D0006AE070E00E946531C80185529F4F68E262
:1014E00070E00E9465310D511F4F82E094E4ADEA37
:1014F000BEE3F80181939193A193B1938EE29BEDAA
:10150000ACEABEE381939193A193B1938EEC9CE0FE
:10151000AFE4BCE381939193A193B19311921192A3
:101520008F0111821082015F104063EFC62ED12C13
:10153000C00ED11EC6010E94A83556EFE52EF12C33
:10154000E00EF11EC7010E94A83507501F4FF80199
:10155000119211921192119280E090E0A0E0B0E01F
:1015600081939193A193B1938F0180839183A283FF
:10157000B38301501140C8010E945B08C70166E0B7
:1015800070E00E947D36C60167E070E00E947D3603
:10159000C8010E9448081F910F91FF90EF90DF90C3
:1015A000CF9008950F931F93CF93DF93BC018C01CD
:1015B00007581F4FDC01A158BF4F8C9111969C9189
:1015C00011979C0137FD69C0A90155954795509524
:1015D00041955F4FFB01E358FF4F808191819C0152
:1015E00037FD58C035952795420F531FE8015983A1
:1015F0004883EB01C558DF4F8C9111969C919C015B
:1016000037FD45C0A90155954795808191819C0181
:1016100037FD3AC035952795420F531F59834883AC
:10162000FB01EF57FF4F20E0D8018D919C911816D8
:10163000190644F52083FB01EE57FF4F20E0888117
:10164000998118161906E4F42083F801208131816C
:1016500037FD0FC02881398137FF06C088279927B9
:10166000821B930B99838883DF91CF911F910F91F8
:10167000089588279927821B930B91838083EACF53
:1016800021E0E2CF21E0D6CF2F5F3F4FC3CF2F5FC6
:101690003F4FB8CF2F5F3F4FA5CF2F5F3F4F94CF26
:1016A000FC01E758FF4F808191810895FC01EF57BD
:1016B000FF4F80810895FC01E558FF4F80819181A3
:1016C0000895FC01EE57FF4F80810895EF92FF923D
:1016D0000F931F937C0100E715E0C8016CE471E0F3
:1016E0000E94B83BC70185960E94FC31C80165E5A0
:1016F00071E00E94B83BC701815B9F4F0E94FC31A3
:10170000C8016EE571E00E94BB3AC7018F569F4F3A
:101710000E943A34C80165E671E00E94BB3AC701F5
:1017200084559F4F0E943A341F910F91FF90EF9084
:101730000895EF92FF920F931F937C0100E715E04D
:10174000C8016CE671E00E94BB3AC7010E94E73015
:10175000C80165E771E00E94BB3AC7010C960E9480
:10176000E7301F910F91FF90EF900895CF92DF9295
:10177000EF92FF920F931F93DF93CF93CDB7DEB716
:101780002C970FB6F894DEBF0FBECDBFC982DA82A8
:10179000EB82FC820D831E832F83388749875A870B
:1017A0006B877C87DC01FE0131962CE001900D9265
:1017B0002150E1F7DC011C96FC012CE001900D9218
:1017C0002150E1F70E94990B2C960FB6F894DEBFDA
:1017D0000FBECDBFCF91DF911F910F91FF90EF9082
:1017E000DF90CF900895CF93DF93EC018BA19CA164
:1017F0008130910591F0029769F481E090E09CA31B
:101800008BA3CE010E94990B80E795E06FE771E012
:101810000E94B83BDF91CF91089583E090E09CA3B4
:101820008BA3CE010E94990B80E795E066E871E0FA
:101830000E94B83B1AA219A2DF91CF910895CF92CE
:10184000DF92EF92FF920F931F93815B9F4F0E9455
:10185000DA311F910F91FF90EF90DF90CF900895B4
:10186000CF92DF92EF92FF920F931F9385960E9483
:10187000DA311F910F91FF90EF90DF90CF90089594
:101880002F923F924F925F926F927F928F929F9290
:10189000AF92BF92CF92DF92EF92FF920F931F937E
:1018A000DF93CF93CDB7DEB7A4970FB6F894DEBF22
:1018B0000FBECDBF4C011E010894211C311CC1017B
:1018C0000E94B02E2DB73EB72C5030400FB6F89482
:1018D0003EBF0FBE2DBF49E0642E712C6C0E7D1EE5
:1018E000ADB7BEB71196C4010C969CA38BA3FC01A7
:1018F0008CE001900D928150E1F7C301F401C080AA
:10190000D180E280F3800481158126813781408572
:101910005185628573850E94BE2ED101F30188E056
:1019200001900D928150E1F72DB73EB7245F3F4FF4
:101930000FB6F8943EBF0FBE2DBFF40181A192A156
:101940008130910521F1823091050CF447C282303B
:10195000910509F49AC1039709F4BEC0A4960FB685
:10196000F894DEBF0FBECDBFCF91DF911F910F91D5
:10197000FF90EF90DF90CF90BF90AF909F908F90AF
:101980007F906F905F904F903F902F9008953FE42D
:10199000632E712C680C791CCE014196F401C08035
:1019A000D180E280F38004811581268137814085D2
:1019B0005185628573850E940930C10109891A89A0
:1019C0002B893C894D895E896F89788D0E94242FEF
:1019D000AB01BC01C3010E94CD322DE730E0820E85
:1019E000931E0E94123FF4017183608323E83FEF4E
:1019F000820E931EF40183A194A1019709F4AEC154
:101A0000C1010E94A62F7B018C018BA19CA10E9489
:101A10003D2D9B01AC01C801B7010E946A2F20E057
:101A200030E040E050E00E945C4018160CF049C1E4
:101A3000C1010E94A62F7B018C018BA19CA10E9459
:101A40003D2D9B01AC01C801B7010E946A2F2BED0F
:101A50003FE049EC5FE30E945C4018160CF049C17E
:101A6000C1010E94A62F84010B5D1F4F2BED3FE0AB
:101A700049E450E40E94173EAB01BC01C8010E943A
:101A8000D431C4010E943D2DAB01BC01C8010E94AC
:101A9000CD322FE730E0820E931E0E94123FF401F8
:101AA0007183608321E83FEF820E931EF40163A1EE
:101AB00074A1C3010E94B732882309F44FCFF40107
:101AC00063A174A1C8010E94B732882309F446CFEC
:101AD000C4010E94F30B42CFC1010E948C3020E070
:101AE00030E040E050E00E945C4018160CF03BC132
:101AF000C1010E948C3020E030E048E452E40E94B2
:101B0000AA3E20E030E040E050E40E945C4018161D
:101B10000CF0FBC0C1010E948C3020E030E040E0BE
:101B200050E00E945C4018160CF03CC1C1010E94BC
:101B30008C3020E030E048E452E40E94AA3E20E0ED
:101B400030E040E050E40E945C4018160CF013C1F5
:101B50000F2EF0E04F2EF0E05F2EF0E06F2EF0E45D
:101B60007F2EF02D23E830E0820E931EF401808159
:101B700091812DE73FEF820E931E059754F00F2EB3
:101B8000F0E04F2EF0E05F2EF0E06F2EF0E07F2EC1
:101B9000F02DC40185969AA389A3C4010E943D2D0E
:101BA0005B016C01C1010E94A62F7B018C018BA1FE
:101BB0009CA10E943D2D9B01AC01C801B7010E9470
:101BC0006A2FA30192010E9467409B01AC01C601EC
:101BD000B5010E94163EAB01BC0189A19AA10E94E9
:101BE000CD32EFE7F0E08E0E9F1E0E94123FF4010F
:101BF0007183608321E83FEF820E931E2FE4A22EB3
:101C0000B12CA80CB91CCE014996F401C080D1803A
:101C1000E280F380048115812681378140855185DA
:101C2000628573850E940930C101098D1A8D2B8D43
:101C30003C8D4D8D5E8D6F8D78A10E94242FAB0160
:101C4000BC01C5010E94CD322DE730E0820E931E0B
:101C50000E94123FF4017183608323E83FEF820EFC
:101C6000931EF40163A174A1C5010E94B7328823B9
:101C700009F474CEF40163A174A189A19AA10E9410
:101C8000B732882309F46ACE23CF84010B5D1F4F3E
:101C9000C4010E943D2DAB01BC01C8010E94CD32A0
:101CA0002FE730E0820E931E0E94123FF4017183F1
:101CB0006083129212924F0123E83FEF820E931E2F
:101CC000FECEC1010E94A62F7B018C018BA19CA19D
:101CD0000E943D2D9B01AC01C801B7010E946A2FF3
:101CE0002BED3FE049EC5FEB0E94A33E88230CF410
:101CF000B7CEC1010E94A62FAB01BC0184010B5DD0
:101D00001F4FC8010E94D431BCCEC1010E948C304B
:101D100020E030E040E050E00E945C4018160CF0FB
:101D200049C0C1010E948C3020E030E048E452E418
:101D30000E94AA3E2DEC3CEC4CEC5DE30E945C4022
:101D400018160CF4E7CE0F2EFDEC4F2EFCEC5F2E98
:101D5000FCEC6F2EFDE37F2EF02D04CF8BA19CA118
:101D60000E943D2DC9CFC1010E948C3020E030E09F
:101D700048E452ECC4CEC1010E948C3020E030E037
:101D800040E050E00E945C401816E4F4C1010E945B
:101D90008C3020E030E048E452E40E94AA3E2B015F
:101DA0003C01E0CEC1010E948C3020E030E048E4EC
:101DB00052ECC3CEC1010E948C3020E030E048E4F8
:101DC00052ECB6CFC1010E948C3020E030E048E4F4
:101DD00052EC0E94AA3E2B013C01C4CE892B09F093
:101DE000BDCD2FE730E0820E931EF40111821082E8
:101DF00012921292B3CD2F923F924F925F926F92B6
:101E00007F928F929F92AF92BF92CF92DF92EF928A
:101E1000FF920F931F93DF93CF93CDB7DEB76497F5
:101E20000FB6F894DEBF0FBECDBF4C01A986BA86AF
:101E3000CB86DC86ED86FE860F87188B298B3A8B46
:101E40004B8B5C8B83E890E0880E991EF401118225
:101E500010828DE79FEF880E991EF40172A361A393
:101E600082E090E094A383A375E2472E512C480CA6
:101E7000591CC2010E94F4316FE4662E712C680C6B
:101E8000791CC3010E94F431F40181A192A1813037
:101E9000910509F44AC0823091050CF4ADC082303E
:101EA0009105D9F0039771F164960FB6F894DEBFEF
:101EB0000FBECDBFCF91DF911F910F91FF90EF909B
:101EC000DF90CF90BF90AF909F908F907F906F905A
:101ED0005F904F903F902F9008958401045F1F4FB3
:101EE000CE0109960E943D2DAB01BC01C8010E94A4
:101EF000452DC8010E943D2DAB01BC01C2010E94CD
:101F0000D431D2CF8401045F1F4FD801FE0139962E
:101F10008CE001900D928150E1F7C30140E050E068
:101F200060E070E00E94D431E4CF5CE0252E312CDB
:101F3000280C391CCE0109960E942D2DAB01BC0145
:101F4000C1010E9443308DB79EB70C970FB6F8942D
:101F50009EBF0FBE8DBFADB7BEB71196F1018CE02D
:101F600001900D928150E1F75E010894A11CB11C13
:101F7000C501F401C080D180E280F3800481158125
:101F80002681378140855185628573850E94BE2EEA
:101F90008401085E1F4FD801F50188E001900D9281
:101FA0008150E1F78DB79EB70C960FB6F8949EBF9F
:101FB0000FBE8DBFCE0109960E942D2D20E030E08E
:101FC00040E050E00E94A33E88231CF4C8010E9418
:101FD000102FC8010E94BA30C30140E050E060E019
:101FE00070E00E94D431C1010E943D2DAB01BC01C3
:101FF000C2010E94D43158CF892B09F055CF80E718
:1020000095E06EE871E00E94B83B4ECF6F927F92F0
:102010008F929F92AF92BF92CF92DF92EF92FF92F8
:102020000F931F93DF93CF93CDB7DEB7EC970FB627
:10203000F894DEBF0FBECDBF5C014E010894811C39
:10204000911CC4010E94B02E8DB79EB70C970FB69D
:10205000F8949EBF0FBE8DBFB9E06B2E712C6C0E35
:102060007D1EADB7BEB71196F5013C968CE0019090
:102070000D928150E1F7C301F501C080D180E2806B
:10208000F3800481158126813781408551856285E1
:1020900073850E94BE2ED401F30188E001900D9259
:1020A0008150E1F78DB79EB70C960FB6F8949EBF9E
:1020B0000FBE8DBFCE014196F501C080D180E28078
:1020C000F3800481158126813781408551856285A1
:1020D00073850E940930C40109891A892B893C89BA
:1020E0004D895E896F89788D0E94242F20E030E031
:1020F00040E050E00E94A33E87FD5EC0A1E98A2E29
:10210000912C8A0C9B1CC401F501C080D180E28017
:10211000F380048115812681378140855185628550
:1021200073850E944634882309F45BC0FCEA6F2E55
:10213000712C6A0C7B1CC301F501C080D180E28048
:10214000F380048115812681378140855185628520
:1021500073850E9446348823A1F0CE014996B301CD
:102160000E949633C401C98CDA8CEB8CFC8C0D8DEB
:102170001E8D2F8D38A149A15AA16BA17CA10E946F
:10218000A133C5010E94990BC4010E94F533CE0111
:1021900085960E94D02DC50160E070E0ADA0BEA084
:1021A000CFA0D8A4E9A4FAA40BA51CA52DA53EA5F3
:1021B0004FA558A90E94FB0EEC960FB6F894DEBF0F
:1021C0000FBECDBFCF91DF911F910F91FF90EF9088
:1021D000DF90CF90BF90AF909F908F907F906F9047
:1021E0000895ECEA8E2E912C8A0C9B1CC401F501FB
:1021F000C080D180E280F3800481158126813781FF
:1022000040855185628573850E9446348823A1F2FA
:10221000C5010E94990BC4010E94F533CE01C196FD
:102220000E94D02DC50160E070E0A9A8BAA8CBA893
:10223000DCA8EDA8FEA80FA918AD29AD3AAD4BADAD
:102240005CAD0E94FB0EB8CF4F925F926F927F926F
:102250008F929F92AF92BF92CF92DF92EF92FF92B6
:102260000F931F93DF93CF93CDB7DEB764970FB66D
:10227000F894DEBF0FBECDBF3C0105E8402E512CC7
:10228000480E591EC201F301C080D180E280F38064
:10229000048115812681378140855185628573854A
:1022A0000F2EFAE98F2EF9E99F2EF9E9AF2EFEE302
:1022B000BF2EF02D0E94FC2D4DB75EB74C50504004
:1022C0000FB6F8945EBF0FBE4DBFADB7BEB7119647
:1022D000F2018CE001900D928150E1F75E010894CB
:1022E000A11CB11CC501F301C080D180E280F38044
:1022F00004811581268137814085518562857385EA
:102300000E94BE2E4FE750E0640E751EF30120813F
:10231000318141E85FEF640E751E37FD17C18DE70F
:1023200090E0680E791EF3018081918143E85FEFB0
:10233000640E751E97FD06C1280F391F8DB79EB715
:102340000C960FB6F8949EBF0FBE8DBF2832310594
:1023500094F0C5010E948C3020E030E040E251E46E
:102360000E94A33E8823F4F043E850E0640E751EFB
:10237000F3011182108264960FB6F894DEBF0FBE8F
:10238000CDBFCF91DF911F910F91FF90EF90DF9024
:10239000CF90BF90AF909F908F907F906F905F9005
:1023A0004F900895D62CC72CC3010E943D2D7B0170
:1023B0008C01C2010E943D2D9B01AC01C801B701F7
:1023C0000E94163E20E030E040E050E00E945C4079
:1023D00018160CF08BC0C3010E943D2D7B018C01AF
:1023E000C2010E943D2D9B01AC01C801B7010E94B2
:1023F000163E2AE037ED43EA5BE30E94A33E87FFE7
:10240000B3CF13E8812E912C860C971CF4018081A8
:10241000918101969183808380E795E063E971E083
:102420000E94BB3A8D2D9C2D0E943D2D7B018C017D
:10243000C2010E943D2D9B01AC01C801B7010E9461
:10244000163E20E030E040E050E00E945C4018166C
:102450000CF064C08D2D9C2D0E943D2D7B018C01C4
:10246000C2010E943D2D9B01AC01C801B7010E9431
:10247000163E20E030E048EC52E40E946740A62F70
:10248000482F692F80E795E02A2F372FE42FF62F6A
:10249000A901BF0122E030E00E94A53BF401808148
:1024A000918140970CF467CFC3010E94990B80E79C
:1024B00095E063EA71E00E94B83BCE0109960E9464
:1024C000D02DC30160E070E0A984BA84CB84DC84A1
:1024D000ED84FE840F85188929893A894B895C89A6
:1024E0000E94FB0EF4011182108245CFC3010E94AD
:1024F0003D2D7B018C01C2010E943D2D9B01AC0151
:10250000C801B7010E94163E2AE037ED43EA5BEBB3
:102510000E945C4018160CF027CF73CF8D2D9C2D98
:102520000E943D2D7B018C01C2010E943D2D9B012B
:10253000AC01C801B7010E94163E20E030E048EC33
:1025400052EC9BCF909581959F4FF6CE309521957B
:102550003F4FE5CEAF92BF92CF92DF92EF92FF92C4
:102560000F931F93DF93CF93CDB7DEB72C970FB6A2
:10257000F894DEBF0FBECDBF5C01C982DA82EB8268
:10258000FC820D831E832F83388749875A876B8788
:102590007C87DC01FE0131968CE001900D92815028
:1025A000E1F7C5010E94400CC5010E94D20AF50165
:1025B00081A192A10197A1F0C5010E9424112C963E
:1025C0000FB6F894DEBF0FBECDBFCF91DF911F9144
:1025D0000F91FF90EF90DF90CF90BF90AF90089554
:1025E00080A1882349F3C5010E940610E5CFCF934F
:1025F000DF93EC016130710519F16230710589F0EA
:10260000672B61F4815B9F4F64E170E00E94CA31E7
:10261000CE01859664E170E00E94CA31DF91CF91CE
:102620000895815B9F4F6CE370E00E94CA31CE0138
:1026300085966CE370E00E94CA31DF91CF910895D6
:10264000815B9F4F68E270E00E94CA31CE0185969F
:1026500068E270E00E94CA31DF91CF910895AF9295
:10266000BF92CF92DF92EF92FF920F931F93DF936F
:10267000CF93CDB7DEB72C970FB6F894DEBF0FBE61
:10268000CDBF5C0160E070E00E94F712CE010196C0
:1026900040E050E06AE774EC00E010E020E030E059
:1026A000680179010E94E22DC50161E070E0A98016
:1026B000BA80CB80DC80ED80FE800F811885298573
:1026C0003A854B855C850E94FB0E2C960FB6F894DC
:1026D000DEBF0FBECDBFCF91DF911F910F91FF9055
:1026E000EF90DF90CF90BF90AF9008958F929F9220
:1026F000AF92BF92CF92DF92EF92FF920F931F9310
:10270000DF93CF93CDB7DEB768970FB6F894DEBFEF
:102710000FBECDBF4C010E94D02DC4010C960E946B
:10272000D02DC40148960E94B02EF40110A212A22E
:1027300011A283E090E094A383A38DB79EB708977E
:102740000FB6F8949EBF0FBE8DBF87EA97EEAEE03E
:10275000BEE3EDB7FEB781839283A383B48387EA98
:1027600097EEAEE8BDE385839683A783B087C40167
:10277000859661E020E030E046E953E40F2EF0E07A
:10278000EF2EF0E0FF2EF0E00F2FF0E01F2FF02DE6
:102790000F2EF0E0AF2EF0E0BF2EF0E0CF2EFFE3E3
:1027A000DF2EF02D0E947B3180E090E0ACE8B2E4B7
:1027B000EDB7FEB781839283A383B48380E090E07A
:1027C000A0EAB1E485839683A783B087C401815BC7
:1027D0009F4F60E02AE939E949E95FE30F2EFAE00B
:1027E000EF2EF7EDFF2EF3E20F2FFCE31F2FF02D5E
:1027F0000F2EFAE0AF2EF7EDBF2EF3EACF2EFDE35A
:10280000DF2EF02D0E947B3189E790E0880E991E23
:10281000F401119211924F011182108286E090E032
:10282000880E991E81E0F401819381934F011182FA
:1028300010828DE79FEF880E991EEDB7FEB7389690
:102840000FB6F894FEBF0FBEEDBFC4018B579F4F6C
:102850000E94D02DCE01019640E050E068EC72E479
:1028600000E010E028EC32EC0F2EF0E0CF2EF0E08C
:10287000DF2EF0E0EF2EF0E0FF2EF02D0E94E22D93
:10288000C4018F569F4F6CE370E0A980BA80CB8063
:10289000DC80ED80FE800F81188529853A854B8587
:1028A0005C850E946235CE010D9640E050E068ECF8
:1028B00072E48A019B010F2EF0E0CF2EF0E0DF2EB4
:1028C000F0E0EF2EF0E0FF2EF02D0E94E22DC4018B
:1028D00084559F4F6DE370E0AD84BE84CF84D8886B
:1028E000E988FA880B891C892D893E894F89588D82
:1028F0000E946235C40160E070E00E94F7126896A1
:102900000FB6F894DEBF0FBECDBFCF91DF911F9100
:102910000F91FF90EF90DF90CF90BF90AF909F907E
:102920008F9008958091B2049091B304A091B40463
:10293000B091B5040196A11DB11D8093B20490938E
:10294000B304A093B404B093B50408958091B20485
:102950009091B304A091B404B091B5040196A11D67
:10296000B11D8093B2049093B304A093B404B093C8
:10297000B504089587E10E94E63D0197A1F080919A
:10298000AE049091AF04A091B004B091B10401974E
:10299000A109B1098093AE049093AF04A093B00451
:1029A000B093B10408958091AE049091AF04A091CA
:1029B000B004B091B1040196A11DB11D8093AE0485
:1029C0009093AF04A093B004B093B104089586E14E
:1029D0000E94E63D0197A1F08091AE049091AF0472
:1029E000A091B004B091B1040197A109B1098093FD
:1029F000AE049093AF04A093B004B093B1040895D3
:102A00008091AE049091AF04A091B004B091B10454
:102A10000196A11DB11D8093AE049093AF04A093C5
:102A2000B004B093B104089585E00E94E63D01979B
:102A3000A1F08091AA049091AB04A091AC04B09154
:102A4000AD040197A109B1098093AA049093AB0446
:102A5000A093AC04B093AD0408958091AA04909122
:102A6000AB04A091AC04B091AD040196A11DB11DC1
:102A70008093AA049093AB04A093AC04B093AD04EC
:102A8000089584E00E94E63D0197A1F08091A6049C
:102A90009091A704A091A804B091A9040196A11D4A
:102AA000B11D8093A6049093A704A093A804B093AB
:102AB000A90408958091A6049091A704A091A80468
:102AC000B091A9040197A109B1098093A60490933C
:102AD000A704A093A804B093A9040895CB01089576
:102AE0008091BA049091BB040097E1F08130910588
:102AF00029F18330910509F459C00297D9F18091E9
:102B0000B6049091B7040E94D12A8091B8049091A4
:102B1000B9040E94190A61E070E080E090E00E9430
:102B2000C43C08958AE00E94E63D892B91F0809193
:102B3000BA049091BB0481309105D9F68AE00E94D5
:102B4000E63D019709F445C08091BA049091BB0419
:102B5000D0CF81E090E09093BB048093BA0480E7EB
:102B600095E06AEA71E00E94B83B8091BA049091C6
:102B7000BB04E1CF0E94903C2091BC043091BD0485
:102B80004091BE045091BF04621B730B840B950BE4
:102B900020910404309105044091060450910704EB
:102BA000261737074807590708F0A9CF80E795E0AF
:102BB0006CEB71E00E94B83B83E090E09093BB0423
:102BC0008093BA048091B8049091B9040E94480897
:102BD000A2CF82E090E09093BB048093BA0480E798
:102BE00095E064EB71E00E94B83B0E94903C6093DA
:102BF000BC047093BD048093BE049093BF04A4CF23
:102C0000EF92FF920F931F9380E061E475E143E040
:102C100050E00E94CB3B81E064E175E143E050E08D
:102C20000E94CB3B85E067EE74E143E050E00E94F8
:102C3000CB3B84E06AEB74E143E050E00E94CB3B85
:102C400082E066EA74E143E050E00E94CB3B83E01F
:102C500062E974E143E050E00E94CB3B00E715E0FD
:102C6000C80140E855E260E070E00E94CC37C8013E
:102C700063EC71E00E94B83BC80161ED71E00E9415
:102C8000B83BC80164EE71E00E94B83B85E091E07A
:102C90000E946539F82EE92E0E94580AF092B80475
:102CA000E092B904C8016CEE71E00E94B83B89E47F
:102CB00090E00E946539F82EE92E6091B804709179
:102CC000B9040E948E1FF092B604E092B704C801C6
:102CD00067EF71E00E94B83B0E9409081092BB04A4
:102CE0001092BA041092BC041092BD041092BE045B
:102CF0001092BF041F910F91FF90EF900895FC0177
:102D000081E594E0918380830895FC01A081B181E5
:102D100016978D919C918E0F9F1F0E94901608957B
:102D2000FC018FE394E09183808381E594E09783B5
:102D300086830895DC0113968D919C911497892BBD
:102D400091F01596ED91FC91169717968D919C91A7
:102D50001897E817F90739F0819190E01696FC93DF
:102D6000EE9315970895ED91FC9111970488F589DC
:102D7000E02DCD0119950895FC0189E794E0918338
:102D800080830895CF93DF93EC01E881F981028875
:102D9000F389E02D19959C018FEF2F3F380729F01B
:102DA0008D819E8101969E838D83C901DF91CF9194
:102DB0000895CB010895DC0113968D919C91149791
:102DC000892B71F01596ED91FC91169717968D91C0
:102DD0009C911897E817F90719F0808190E0089501
:102DE000ED91FC9111970288F389E02DCD011995A1
:102DF00008958FEF9FEF089580E090E00895089583
:102E00000895DC01242FED91FC910084F185E02DE3
:102E100041E01995089580E090E00895FC01228931
:102E2000338980899189281B390B86899789281BCA
:102E3000390BC9010895CF92DF92EF92FF920F9361
:102E40001F93CF93DF93EC016B0179018A01AE8967
:102E5000BF89688979898A899B89861B970BA817FE
:102E6000B90778F020E030E040E050E0B901CA0155
:102E7000DF91CF911F910F91FF90EF90DF90CF9056
:102E80000895121613061406150664F720E030E0C4
:102E900040E050E0F601E20FF31F6A0F7B1FDB01F9
:102EA0008C9180832F5F3F4F4F4F5F4FAE89BF891B
:102EB0001196BF8BAE8B688979898A899B89861B1D
:102EC000970BA817B90790F62E153F054007510735
:102ED0006CF6E0CFFC0126893789A089B189828907
:102EE00093898A1B9B0B2817390738F4A20FB31F4D
:102EF0008C91282F30E0C90108952FEF3FEFC901D1
:102F00000895CF93DF93EC01E881F9810288F3897A
:102F1000E02D19959C018FEF2F3F380729F08E89FE
:102F20009F8901969F8B8E8BC901DF91CF91089568
:102F3000CF93DF93DC0156964D915C9157974115E5
:102F4000510511F15096CD91DC91519752962D91EA
:102F50003C9153972C1B3D0B24173507B0F18FEF95
:102F60006F3F7807B9F0FE01E40FF51F31978081BC
:102F70008617E1F44150504057965C934E93569714
:102F8000CB01DF91CF9108956FEF7FEFCB01DF9100
:102F9000CF9108954150504057965C934E93569769
:102FA00060E070E0CB01DF91CF9108951F968C9186
:102FB0001F9784FFE9CFCA01019757969C938E9380
:102FC0005697C80FD91F6883DBCF57963C932E9333
:102FD00056976FEF7FEFD4CF80E090E0089580E0C8
:102FE00090E0089580E090E0089580E090E00895FA
:102FF00060E070E080E090E008956F927F929F9291
:10300000AF92BF92CF92DF92EF92FF920F931F93F6
:10301000CF93DF93EC013B0159016A0112161306AD
:10302000140615060CF050C0EE24FF24870117C0CB
:10303000EB85FC858D859E85E817F90748F590821C
:103040008B859C8501969C878B870894E11CF11CDD
:10305000011D111DEA14FB040C051D05ACF5F3015F
:10306000EE0DFF1D90808F8580FFE2CFE881F98112
:103070000084F185E02DCE0160E070E044E020E1C5
:103080001995EB85FC858D859E85E817F907B8F2C3
:10309000E881F981028CF38DE02DCE01692D70E07D
:1030A00019958F5F9F4F89F6B701C801DF91CF91C6
:1030B0001F910F91FF90EF90DF90CF90BF90AF9056
:1030C0009F907F906F90089586017501EDCFCB01A1
:1030D0000895FC01208131818481958182179307B5
:1030E00019F0C9010E947F010895CF92DF92FF92EB
:1030F0000F931F93CF93DF936C01EB01F42EE881C4
:10310000F98136970190F081E02DE60FF71F0189D4
:10311000128901151105B9F0D801ED91FC9136978E
:103120000190F081E02DE00FF11FA389B489ED91AA
:10313000FC9111970484F585E02DCD0119958F5FE1
:103140009F4F09F43FC0FF20A1F4E881F981369731
:103150000190F081E02DEC0FFD1F838994890E947E
:10316000DB16BFEF8F3F9B0779F00E94C741892B89
:10317000E1F481E0F6018083DF91CF911F910F91FF
:10318000FF90DF90CF900895E881F9813697019004
:10319000F081E02DEC0FFD1F2581322F32608389F5
:1031A0009489892BE1F03583E4CFE881F981369762
:1031B0000190F081E02DEC0FFD1F838994890E941E
:1031C0009A16C3CFD801ED91FC9136970190F0810A
:1031D000E02DE00FF11F858181608583B4CF2360EE
:1031E0002583C7CFCF93DF93DC01EB01099000204B
:1031F000E9F72197C61BD70B2D913C911197129699
:103200008D919C911397821B930BC817D90721F0BE
:1032100080E0DF91CF910895C901AE010E94F901CC
:103220009C0180E0232BA9F781E0F3CFFC01A08172
:10323000B18116978D919C918E0F9F1F0E9421192D
:103240000895FC018FE394E09183808381E594E00D
:1032500097838683CF010E9462390895FC0181E53E
:1032600094E091838083CF010E9462390895FC012C
:1032700089E794E091838083CF010E9462390895A9
:10328000CF93DF93EC0189E594E0998388832889C3
:1032900039898C899D898217930719F0C9010E9489
:1032A0007F0189E794E099838883DF91CF91089526
:1032B000CF93DF93EC0189E594E099838883288993
:1032C00039898C899D898217930719F0C9010E9459
:1032D0007F0189E794E099838883CE010E94623957
:1032E000DF91CF910895FC01A081B18116978D9156
:1032F0009C918E0F9F1F0E947E190895CF93DF939C
:10330000EC0187E194E0998388830A9699A388A3C6
:1033100089E594E09F838E832E893F898A8D9B8DDA
:103320008217930719F0C9010E947F0189E794E091
:103330009F838E83E0910B04F0910C04F983E88362
:1033400036970190F081E02DEC0FFD1F80910D0468
:1033500090910E049183808381E594E099A388A3E2
:10336000CE010E946239DF91CF910895FC01A081C6
:10337000B18116978D919C918E0F9F1F0E94C1194C
:103380000895CF93DF93EC0187E194E099838883DC
:103390000A9699A388A389E594E09F838E832E895A
:1033A0003F898A8D9B8D8217930719F0C9010E946E
:1033B0007F0189E794E09F838E83E0910B04F09175
:1033C0000C04F983E88336970190F081E02DEC0F2F
:1033D000FD1F80910D0490910E049183808381E5FF
:1033E00094E099A388A3DF91CF9108950F931F9341
:1033F000CF93DF93EC01198218821B821A821D82FF
:103400001C8288E090E00E94D500009701F188833B
:1034100099838A839B838881998108969D838C8375
:103420000A811B8181E090E0B8010E946E15FC01C9
:103430001082F8011082DF91CF911F910F910895B2
:10344000199588E090E00E94D500009701F7E0917F
:10345000C004F091C104309799F780E090E00E9499
:103460000942AF92BF92CF92DF92EF92FF920F93F9
:103470001F93CF93DF936C01DC011296ED91FC91C9
:1034800013974D915C91DF01A41BB50BCB016A171B
:103490007B0708F4CD015C010894A11CB11CA114A8
:1034A000B104C9F5EE24FF248F01041B150BC701DD
:1034B000BA01A8010E940F02E701C00FD11F81E0ED
:1034C00090E0BE010E946E15FC0110821882F60188
:1034D00020813181848195818217930719F0C90178
:1034E0000E947F01D6011196FC92EE921396DC9316
:1034F000CE931297AE0CBF1C1596BC92AE92149749
:10350000DF91CF911F910F91FF90EF90DF90CF90BF
:10351000BF90AF900895C5010E94D500009779F043
:103520007C01D6011296ED91FC9113974D915C911F
:10353000BBCF1995C5010E94D500009789F7E0918E
:10354000C004F091C1043097A1F780E090E00E94A0
:103550000942FF920F931F93CF93DF938C01F62EB6
:10356000DC0112962D913C911397E9012196149656
:103570008D919C911597C817D907E9F081E090E0EB
:10358000BE010E946E15FC0110821882D8011296AD
:10359000ED91FC911397F08212968D919C91139767
:1035A000019613969C938E931297DF91CF911F9162
:1035B0000F91FF9008958D919C91F901E81BF90BF3
:1035C000CF0171F461E070E0680F791FC8010E94BB
:1035D000311AD8011296CD91DC9113972196CECF56
:1035E000BF01F2CF0F931F93CF93DF938C01EB01B9
:1035F0008FEF6F3F780741F4C0E0D0E0CE01DF915C
:10360000CF911F910F910895D8011F968C9184FF3F
:103610001AC0F801208D318D0088F189E02DD80184
:1036200052968D919C9153978E1B9F0B28173907AB
:1036300068F4E20FF31F6083F801808D918D01968D
:10364000918F808FDBCFCFEFDFEFD8CFC8014096CF
:103650000E94A91AF1CFDF92EF92FF920F931F936E
:10366000CF93DF93EC017B01D42E88819981EA818D
:10367000FB81E81BF90BAB014E0F5F1F2C813D81D5
:1036800021503040281B390B2417350740F4EE1623
:10369000FF06A0F16E0F7F1FCE010E94311AE114C8
:1036A000F10419F12A813B81C90101962E0D3F1DBC
:1036B000281B390B6D2D70E0A9010E9421020A819F
:1036C0001B810E0D1F1D81E090E0B8010E946E1558
:1036D000FC011082F8011082EA81FB81D0828A818C
:1036E0009B818E0D9F1D9B838A83CE01DF91CF919D
:1036F0001F910F91FF90EF90DF900895BF01CACF07
:103700000F931F93CF93DF93EC0130E0C9018871D1
:103710009070489709F486C0C90188709070207134
:103720003070413009F455C04230B1F1AA89BB89EB
:10373000E889F989AD014E1B5F0B8B01040F151F42
:1037400040175107F0F1892B11F01F8B0E8B232BA3
:10375000E1F09D012E1B3F0B2017310708F042C0FE
:10376000B801621B730BCE01409640E00E942B1BF8
:10377000888999892A893B89281B390B8E899F89D9
:103780002817390710F43F8B2E8BB801CB01DF913E
:10379000CF911F910F91089521153105C9F500E0D2
:1037A00010E0E889F989AA89BB89009721F00E8980
:1037B0001F89060F171FAD014E1B5F0B40175107E6
:1037C00010F66FEF7FEFCB01DF91CF911F910F913B
:1037D00008958B01E889F989AA89BB89AD014E1B3F
:1037E0005F0BAECFE00FF11FAE17BF0739F28C9120
:1037F0008083EA1BFB0B8A899B898E0F9F1F9B8B03
:103800008A8B28893989AC01421B530B9A01B6CFA8
:10381000AA89BB89E889F9898D010E1B1F0B060F48
:10382000171FC3CF423009F077CFCBCFAF92BF92F3
:10383000CF92DF92EF92FF920F931F93CF93DF937C
:10384000B82EA92E6B01E82EF92ED70111961C92E5
:103850001E9213961C921E92129715961C921E92FF
:10386000149788E090E00E94D500009709F444C0C6
:10387000F70180839183828393838081918108966D
:10388000958384830281138181E090E0B8010E94D6
:103890006E15FC011082D8011C92D601ED91FC91AD
:1038A00036970190F081E02DEC0DFD1D8389948900
:1038B0000E94DB16EC01BFEF8F3F9B0739F5F70144
:1038C000228133818081918128173907B9F18B2DAD
:1038D0009A2DDF91CF911F910F91FF90EF90DF9084
:1038E000CF90BF90AF900895199588E090E00E9426
:1038F000D500009709F0BCCFE091C004F091C1045D
:10390000309791F780E090E00E9409420E94C74101
:10391000892BA9F6D601ED91FC9136970190F081A3
:10392000E02DEC0DFD1D838994890E949A16C70134
:1039300061E070E04C2F0E942B1BAFCFD601ED91C0
:10394000FC9136970190F081E02DEC0DFD1D258155
:10395000322F366083899489892B11F03583B7CF54
:1039600027602583B4CF8F929F92AF92BF92CF9260
:10397000DF92EF92FF920F931F93CF93DF937C011F
:103980008B016A01DC014D915C91119712962D918A
:103990003C911397241B350BE601C61BD70B2C1744
:1039A0003D0708F075C0CA01A9010E940602D701AF
:1039B0001296ED91FC9113976D917C911197AF0147
:1039C000461B570B5801A40EB51ECA14DB0409F49C
:1039D00051C0E601CA19DB099E01240F351F149658
:1039E0008D919C9115970197861B970B82179307D2
:1039F00008F081C09A012F5F3F4FCE01C431D1053D
:103A000008F463C04901880E991E8114910409F0DD
:103A100065C0CC24DD248F01061B170BC601A8014D
:103A20000E940F020C0D1D1DC801B501AE010E94C0
:103A30000F02C00FD11F81E090E0BE010E946E1501
:103A4000FC0110821882D7012D913C911197149698
:103A50008D919C9115978217930719F0C9010E94C7
:103A60007F01F701D182C082D383C2838C0C9D1C5D
:103A700095828482C701DF91CF911F910F91FF90B2
:103A8000EF90DF90CF90BF90AF909F908F90089570
:103A9000CA01AE010E940602D701ED91FC91119777
:103AA000EC0FFD1F12960D90BC91A02DEA17FB079D
:103AB00009F38C918083EA1BFB0BE7018A819B81D0
:103AC0008E0F9F1F9B838A83D5CF84E190E04901AD
:103AD000880E991E8114910409F49BCFC4010E94A1
:103AE000D5000097C1F16C01F701608171810280FE
:103AF000F381E02D90CFB5016F5F7F4FC61AD70AD3
:103B0000CF010196A6010E940F02D70112960D91D6
:103B10001C9113970C0F1D1F81E090E0B8010E94CB
:103B20006E15FC011082F8011082D7011296ED91FA
:103B3000FC911397D5018C918083F7018281938149
:103B40008C0F9D1F9383828395CF1995C4010E948A
:103B5000D500009741F6E091C004F091C104309780
:103B6000A1F780E090E00E940942CF93DF93EC013F
:103B7000FB016817790731F06081718142815381BF
:103B80000E94B31CCE01DF91CF9108953F924F92D6
:103B90005F926F927F928F929F92AF92BF92CF92DD
:103BA000DF92EF92FF920F931F93DF93CF93CDB7E6
:103BB000DEB728970FB6F894DEBF0FBECDBF3C012D
:103BC0008AE0482E512C460C571CCE01019698874E
:103BD0008F8380E795E00E945338181619062CF45D
:103BE000F301808591854C97C4F028960FB6F89420
:103BF000DEBF0FBECDBFCF91DF911F910F91FF9020
:103C0000EF90DF90CF90BF90AF909F908F907F907C
:103C10006F905F904F903F90089580E795E00E94ED
:103C20008438382EFAE08F1709F445C1D3011C9669
:103C30000D911C911D971A968D919C911B97081BB5
:103C4000190B0E5F1F4F1A8219821C821B821E8263
:103C50001D82BFEF0F3F1B0771F00115110509F021
:103C60000BC180E090E09A8389839C838B83080F4B
:103C7000191F1E830D830B811C8181E090E0B80128
:103C80000E946E15FC011082F8011082D3011A9671
:103C90008D909C901B971C96ED91FC911D978E1614
:103CA0009F0609F403C14B815C8169817A81DA0145
:103CB000A61BB70B6F01C818D90896012A0F3B1F26
:103CC0008D819E810197861B970B8217930708F0C1
:103CD00079C09D012F5F3F4FC601B4E1CB16D104DF
:103CE00010F484E190E05901A80EB91EA114B104AA
:103CF00009F0A7C0EE24FF248A01061B170BC70199
:103D0000A8010E940F020E0D1F1DC801B401A601DB
:103D10000E940F020C0D1D1D81E090E0B8010E9471
:103D20006E15FC011082F801108229813A818D8183
:103D30009E818217930719F0C9010E947F01FA82C0
:103D4000E9821C830B83AE0CBF1CBE82AD82A8012E
:103D50008A010F5F1F4F8D819E810817190709F493
:103D60005CC081E090E0B8010E946E15FC011082F9
:103D7000F8011082EB81FC8130824B815C814F5FC6
:103D80005F4F5C834B838F8198858415950529F05F
:103D900069817A81C2010E94B31C29813A818D8197
:103DA0009E818217930719F0C9010E947F01D301F8
:103DB00018968D919C911997019619969C938E93C4
:103DC000189707CFB4016F5F7F4FE61BF70BCA014F
:103DD0000196AF010E940F020B811C810C0D1D1D6D
:103DE00081E090E0B8010E946E15FC011082D801BC
:103DF0001C92EB81FC81D4018C9180834B815C818E
:103E00004C0D5D1D5C834B838A010F5F1F4F8D81BD
:103E10009E810817190709F0A4CF89819A818A0128
:103E2000081B190B09F045C061E070E0600F711FBD
:103E3000CE0101960E94311A0B811C810F5F1F4F2A
:103E400090CFC5010E94D500009761F07C014B81A5
:103E50005C8169817A8150CF1995C5010E94D50096
:103E60000097A1F7E091C004F091C1043097A1F749
:103E700080E090E00E940942C8010E94D5000097AE
:103E800009F0F1CEE091C004F091C104309781F3C4
:103E90001995C8010E94D500009709F0E4CEE09181
:103EA000C004F091C104309799F7E2CF4B815C8157
:103EB0004FCFB801BBCF80E795E06CE072E00E9485
:103EC000B83BD30118968D919C9119971816190635
:103ED0000CF5F301108A80E795E069E172E00E9439
:103EE000BB3AD3011A966D917C911B9780E795E0C0
:103EF0000E94BB3A80E795E067E272E00E94BB3A1D
:103F0000F3016085718580E795E04AE050E00E940A
:103F10009C3A6BCE81E050968C93DDCFEF92FF926E
:103F20000F931F93CF93DF93EC017B0164E670E066
:103F30000E946531198618861B861A861D861C8686
:103F40001F861E8688E090E00E94D500009709F445
:103F5000B9C08A879B878C879D878A859B850896B1
:103F60009F878E870C851D8581E090E0B8010E94B7
:103F70006E15FC011082F8011082BE01695E7F4F50
:103F800041E250E01FAA18AE86E090E0A0E0B0E069
:103F900089AF9AAFABAFBCAFED9619921992199257
:103FA000199280E2899319821882C254D0405DAB85
:103FB0004CABCC5BDF4F79836883C454D0401EAADE
:103FC000CA5BDF4F1882C654D040E0910B04F091D9
:103FD0000C04FA8BE98B9E012F5E3F4F36970190C0
:103FE000F081E02DE20FF31F80910D0490910E04FB
:103FF000918380831B8A1C8A1D8A1E8AE989FA891B
:1040000036970190F081E02DE20FF31F5483438334
:10401000748B638B1582158A87E194E09A8B898B68
:104020000A969AAB89AB1B8E1A8E1D8E1C8E1F8E24
:104030001E8E19A218A21BA21AA21DA21CA21EA2A9
:1040400089E594E0988F8F8B18A61FA21AA619A64F
:104050001CA61BA688E090E00E94D500009709F4FA
:1040600043C08FA398A789A79AA78FA198A5089660
:104070009CA78BA709A51AA581E090E0B8010E9432
:104080006E15FC011082F80110821EA61DA618AA4A
:104090001FA688E08EA3C95BDF4FF982E882C75470
:1040A000D04081E0888BDF91CF911F910F91FF90DD
:1040B000EF900895199588E090E00E94D500009750
:1040C00009F047CFE091C004F091C104309791F717
:1040D00080E090E00E940942199588E090E00E94FB
:1040E000D500009709F0BDCFE091C004F091C10464
:1040F000309791F7EDCF8F929F92BF92CF92DF9240
:10410000EF92FF920F931F93CF93DF936C017B018C
:10411000DC01ED91FC9136970190F081E02DE80FE4
:10412000F91FC189D2892097F9F0E881F981369782
:104130000190F081E02DEC0FFD1FA389B489ED9172
:10414000FC9111970484F585E02DCD0119958F5FC1
:104150009F4F09F4BFC0D601ED91FC9136970190B5
:10416000F081E02DEC0DFD1D838994890E94DB1602
:10417000BFEF8F3F9B0709F48CC00E94C741892B7A
:1041800009F09AC0D601ED91FC91369720813181DA
:10419000F601E20FF31F83889488D701ED91FC911B
:1041A000119712968D919C911397E817F90771F06A
:1041B00010828D919C91119713969C938E931297D8
:1041C000D601ED91FC91369720813181F90132962B
:1041D000EC0DFD1D22853385448555851286138699
:1041E00014861586E9012115310509F0C6C00EEFC8
:1041F0001FEF1EC081E090E0BE010E946E15FC0121
:1042000010821882D7011296ED91FC911397B0821B
:1042100012962D913C9113972F5F3F4F13963C932D
:104220002E9312970115110509F492C00150104008
:10423000C4010E949A16BFEF8F3F9B0709F4A3C0E9
:10424000B82E992787FD90950E94C741892B09F0C8
:104250004DC0F70122813381E90121968481958146
:10426000C817D90739F680819181A901481B590BDC
:10427000CA0109F080C061E070E0680F791FC701D2
:104280000E94311AD7011296CD91DC911397219695
:10429000B1CFD601ED91FC9136970190F081E02DE0
:1042A000EC0DFD1D2581322F326083899489892B85
:1042B00009F490C0358366CFD601ED91FC91369715
:1042C0000190F081E02DEC0DFD1D838994890E9401
:1042D0009A1641CFE881F98136970190F081E02D5F
:1042E000EC0FFD1F25812160258335CFF40123814B
:1042F00034812115310551F08581968128173907C0
:1043000029F0FC018291B81609F46FC0D401ED9137
:10431000FC910688F789E02DC4016B2D70E019959A
:104320008F5F9F4F91F4D601ED91FC9136970190EC
:10433000F081E02DEC0DFD1D2581322F3460838945
:104340009489892B09F449C03583F701228133818F
:10435000F701808191812817390751F1C601DF915A
:10436000CF911F910F91FF90EF90DF90CF90BF9072
:104370009F908F900895BA0180CFC701B9010E9424
:10438000311A8E0153CFD601ED91FC9136970190F1
:10439000F081E02DEC0DFD1D2581322F32608389E7
:1043A0009489892B59F13583F70122813381D0CF4C
:1043B000D601ED91FC9136970190F081E02DEC0D46
:1043C000FD1D2581322F346083899489892BF1F07A
:1043D0003583C4CF23602583D5CE25602583D701BF
:1043E00012962D913C911397B3CFD4011696FC935E
:1043F000EE931597F70122813381AACF236025839D
:10440000D70112962D913C911397A2CF2560258359
:10441000A5CFAF92BF92CF92DF92EF92FF920F9310
:104420001F93DF93CF93CDB7DEB762970FB6F894A3
:10443000DEBF0FBECDBF7C015B01DC01ED91FC91C5
:1044400036970190F081E02DE80FF91F018912895C
:104450000115110501F1D801ED91FC9136970190FC
:10446000F081E02DE00FF11FA389B489ED91FC915B
:1044700011970484F585E02DCD0119958F5F9F4F2D
:1044800009F457C1D701ED91FC9136970190F08165
:10449000E02DEE0DFF1D838994890E94DB16BFEF8E
:1044A0008F3F9B0709F4DDC00E94C741892B09F0AB
:1044B000EBC01A8219821C821B821E821D8288E038
:1044C00090E00E94D5008C01009709F4C0C01A83C7
:1044D00009831C830B83085F1F4F1E830D830850C5
:1044E000104081E090E0B8010E946E15FC0110823E
:1044F000F8011082D701ED91FC9136970190F0817F
:10450000E02DEE0DFF1D838185FFCCC018861F8234
:104510001A8619861C861B8688E090E00E94D500CA
:104520008C01009709F4FEC018870F831A8709874A
:10453000085F1F4F1C870B870850104081E090E0F8
:10454000B8010E946E15FC011082F801108297E0FC
:10455000C92ED12CCC0EDD1ED701ED91FC913697E2
:104560000190F081E02DEE0DFF1D838994890E945A
:10457000DB168C01BFEF8F3F9B0789F00E94C7417C
:10458000892B69F4C801C0970A9708F4DFC00E327E
:10459000110509F4DBC00C32110509F4D7C04985B7
:1045A0005A856F8178854617570709F413C1CE01E4
:1045B00001960E94B31C2F8138858B859C858217BC
:1045C000930719F0C9010E947F0100D000D0EDB718
:1045D000FEB7319689819A81ADB7BEB712969C938A
:1045E0008E93119788E392E093838283B582A482AD
:1045F0000E943002EDB7FEB736960FB6F894FEBFB4
:104600000FBEEDBF29813A818D819E81821793076C
:1046100019F0C9010E947F01C70162960FB6F89494
:10462000DEBF0FBECDBFCF91DF911F910F91FF90E5
:10463000EF90DF90CF90BF90AF900895199588E0EC
:1046400090E00E94D5008C01009709F040CFE091E6
:10465000C004F091C104309789F780E090E00E9497
:104660000942D701ED91FC9136970190F081E02D40
:10467000EE0DFF1D2581322F326083899489892BAD
:1046800009F4BAC0358315CFD701ED91FC91369767
:104690000190F081E02DEE0DFF1D838994890E9429
:1046A0009A16F0CECE010D96B7010E94161C0D850C
:1046B0001E854F855889CE010196B8010E94B31C12
:1046C00089899A890817190719F0C8010E947F0182
:1046D000D701ED91FC9136970190F081E02DEE0D20
:1046E000FF1D8381948186FD55C087FF63C095FFC0
:1046F00041C000D000D0EDB7FEB7319689819A81D4
:10470000ADB7BEB712969C938E9311978EE392E04D
:104710006BCF199588E090E00E94D5008C0100973E
:1047200009F002CFE091C004F091C104309789F7FD
:1047300094CFD801ED91FC9136970190F081E02D56
:10474000E00FF11F2581216025839CCED701ED91DB
:10475000FC9136970190F081E02DEE0DFF1D8389CD
:1047600094890E949A16C60161E070E0402F0E9471
:104770002B1BF2CE00D000D0EDB7FEB73196898169
:104780009A81ADB7BEB712969C938E93119781E430
:1047900092E02ACF00D000D0EDB7FEB731968981E4
:1047A0009A81ADB7BEB712969C938E9311978BE307
:1047B00092E01ACF00D000D0EDB7FEB731968981D4
:1047C0009A81ADB7BEB712969C938E93119784E4ED
:1047D00092E00ACFD701ED91FC9136970190F081DC
:1047E000E02DEE0DFF1D2581322F366083899489DF
:1047F000892B29F03583DBCE236025835ACE2760B1
:104800002583D5CE2F923F924F925F926F927F92E7
:104810008F929F92AF92BF92CF92DF92EF92FF92D0
:104820000F931F93DF93CF93CDB7DEB7C657D0401A
:104830000FB6F894DEBF0FBECDBFE3969FAF8EAF2D
:10484000E397DC011A966D917C911B971C964D9114
:104850005C911D9787960E94B31CE396EEADFFAD69
:10486000E39716A615A686A181FFD4C181A592A5BE
:1048700027A130A5821B930B90AB87A7E396CEAC04
:10488000DFACE397E1E1F0E0CE0EDF1EE396AEADE4
:10489000BFADE3975196ED91FC91529736970190F9
:1048A000F081E02DEC0DFD1D83899489892B09F49D
:1048B0005FC315821A8619861C861B861E861D8676
:1048C00088E090E00E94D500009709F44AC18987EA
:1048D0009A878B879C8789859A8508969E878D877E
:1048E0000B851C8581E090E0B8010E946E15FC01EB
:1048F0001082F8011082C601BE01675F7F4F0E94DF
:104900007B20E985FA85B08080E795E067E472E076
:104910000E94BB3AE985FA858181E82EFF24E7FCF5
:10492000F09420ED3FEFE20EF31E80E795E06B2D53
:104930000E94923980E795E064E572E00E94BB3AFC
:1049400080E795E0B7014AE050E00E949C3A88E099
:1049500090E00E94D500E1969FAF8EAFE197892B42
:1049600009F415C181E090E0E1966EAD7FADE1976D
:104970000E946E15FC011082E196AEADBFADE197CD
:104980001C92188A1F861A8A198A1C8A1B8A88E038
:1049900090E00E94D500009709F408C18F87988B9A
:1049A000898B9A8B8F85988908969C8B8B8B09892C
:1049B0001A8981E090E0B8010E946E15FC01108216
:1049C000F80110821E8A1D8A188E1F8A1A8E198E6F
:1049D00088E090E00E94D500009709F4F6C08D8B26
:1049E0009E8B8F8B988F8D899E8908969A8F898F41
:1049F0000F89188D81E090E0B8010E946E15FC01CE
:104A00001082D8011C921C8E1B8E1E8E1D8E18A229
:104A10001F8E88E090E00E94D500009709F4E4C062
:104A20008B8F9C8F8D8F9E8F8B8D9C8D089698A3DE
:104A30008F8F0D8D1E8D81E090E0B8010E946E1564
:104A4000FC011082F80110821AA219A21CA21BA25A
:104A50001EA21DA288E090E00E94D500009709F4F4
:104A6000D2C089A39AA38BA39CA389A19AA10896DB
:104A70009EA38DA30BA11CA181E090E0B8010E9430
:104A80006E15FC011082D8011C921C821B821E82B2
:104A90001D8218861F82CE01C3960E94D02DB4E4D9
:104AA000BB1609F47DC1E3E5BE1609F4BCC029A11B
:104AB0003AA18DA19EA18217930719F0C9010E9406
:104AC0007F012B8D3C8D8F8D98A18217930719F054
:104AD000C9010E947F012D893E89898D9A8D821797
:104AE000930719F0C9010E947F012F8538898B89AE
:104AF0009C898217930719F0C9010E947F01E196F2
:104B00008EAD9FADE1970E947F0129853A858D8505
:104B10009E858217930719F0C9010E947F01CA5828
:104B2000DF4F0FB6F894DEBF0FBECDBFCF91DF9140
:104B30001F910F91FF90EF90DF90CF90BF90AF90BB
:104B40009F908F907F906F905F904F903F902F90AD
:104B50000895199588E090E00E94D500009709F02B
:104B6000B6CEE091C004F091C104309791F780E097
:104B700090E00E940942199588E090E00E94D500DB
:104B8000E1969FAF8EAFE197892B09F0EBCEE091D4
:104B9000C004F091C104309771F7E9CF199588E00E
:104BA00090E00E94D500009709F0F8CEE091C00493
:104BB000F091C104309791F7DACF199588E090E031
:104BC0000E94D500009709F00ACFE091C004F0914F
:104BD000C104309791F7CBCF199588E090E00E94FF
:104BE000D500009709F01CCFE091C004F091C104FA
:104BF000309791F7BCCF199588E090E00E94D500DE
:104C0000009709F02ECFE091C004F091C1043097D5
:104C100091F7ADCFE396AEADBFADE397D0961C92C2
:104C20001E929F972BCEB4E0EB16F10409F4C3C299
:104C3000E5E0EE16F1040CF02AC1F1E0EF16F10404
:104C400009F456C222E0E216F1040CF416C332E075
:104C5000E316F10409F438C283E0E816F10409F020
:104C600026CFC601BE01615F7F4F0E947B206C0191
:104C7000CE010196B60140E00E94751847E2E42E8D
:104C8000F12CEC0EFD1EC701BE016E5F7F4F0E942E
:104C9000F6198E01035D1F4FC801B6010E94161C54
:104CA000C701B8010E94B51DC8010E946918C7015B
:104CB0006AE073E00E94F218882309F4BCC3C701BC
:104CC0000E946918D601ED91FC9136970190F08110
:104CD000E02DEC0DFD1D8581857031F080E795E0BC
:104CE0006BE173E00E94BB3A8F8598890E94DB01DB
:104CF0003BE4A32EB12CAC0EBD1EAA2797FDA095B8
:104D0000BA2FBC01CD010E94453F23EC35EF48E4AA
:104D100050E40E94674020E030E044E353E40E9406
:104D2000AA3E6B017C01C50140E050E060E070E00C
:104D30008A019B010E94E22DDE01D396F5018CE0F1
:104D400001900D928150E1F780E795E060E273E019
:104D50000E94BB3A8F8598890E94DB01BC0180E7E5
:104D600095E04AE050E00E949C3AE396EEADFFAD3C
:104D7000E397E95BFF4F808191810E94BE0662E06C
:104D800070E0ABA8BCA8CDA8DEA8EFA8F8AC09AD30
:104D90001AAD2BAD3CAD4DAD5EAD0E94FB0E87CE86
:104DA00080E795E066E572E00E94B83BE3960EADC1
:104DB0001FADE397095B1F4FD8018D919C910E9415
:104DC000BE060E94660BE114F10489F480E795E0C9
:104DD0006CE572E00E94B83BF801808191810E94ED
:104DE000C306D8018D919C910E94F30660CEB1E07C
:104DF000EB16F10409F05BCE80E795E063E672E024
:104E00000E94BB3AF801808191810E94D306AB01D8
:104E1000BC0180E795E022E030E00E94A53B80E7FE
:104E200095E06BE772E00E94BB3AD8018D919C91AE
:104E30000E94DD06AB01BC0180E795E022E030E096
:104E40000E94A53B80E795E062E972E00E94BB3AD0
:104E5000F801808191810E94ED06BC0180E795E018
:104E60004AE050E00E949C3A80E795E065EA72E0F3
:104E70000E94BB3AD8018D919C910E94E706BC012B
:104E800080E795E04AE050E00E949C3A10CE96E020
:104E9000E916F10409F43FC1A6E0EA16F1040CF4A6
:104EA0006AC0B7E0EB16F10409F4C1C2E8E0EE16FF
:104EB000F10409F0FCCD80E795E06BE473E00E941B
:104EC000B83BC601BE016B5E7F4F0E947B20BE01D6
:104ED000655E7F4F0E947B20BE016F5D7F4F0E9409
:104EE0007B20BE01615F7F4F0E947B208D899E8960
:104EF0000E94DB01019709F4B4C280E795E06FE7F7
:104F000073E00E94B83B80E795E065E773E00E949C
:104F1000B83BE3962EAC3FACE39727E430E0220E9B
:104F2000331ED1018D919C910E94BE068C018B8D08
:104F30009C8D0E94D7012B013C0189A19AA10E945E
:104F4000D7014B015C018F8598890E94D7016B01C5
:104F50007C01C801B301A201950184010E94300CBB
:104F6000F101808191810E94BE060E94660B9FCD57
:104F700081E085839FCCC601BE016B5E7F4F0E949E
:104F80007B20BE01655E7F4F0E947B20BE01615F7A
:104F90007F4F0E947B20BE016B5F7F4F0E940922E2
:104FA00080E795E060E373E00E94BB3A8D899E89BB
:104FB0000E94DB01BC0180E795E04AE050E00E94DE
:104FC000893A80E795E061EF72E00E94BB3A8B8DF1
:104FD0009C8D0E94DB01BC0180E795E04AE050E037
:104FE0000E94893A80E795E061EF72E00E94BB3A47
:104FF0008F8598890E94DB01BC0180E795E04AE03B
:1050000050E00E949C3A8D899E890E94DB017C01C0
:105010008B8D9C8D0E94DB015C018F8598890E949D
:10502000DB013C010027F7FC0095102FC801B701F8
:105030000E94453FE7966CAF7DAF8EAF9FAFE7977D
:10504000CC24B7FCC094DC2CC601B5010E94453FBE
:105050001B012C01882477FC8094982CC401B30197
:105060000E94453F23EC35EF48E450E40E9467403E
:1050700020E030E044E353E40E94AA3E6B017C014F
:10508000CE018D599F4FE7964CAD5DAD6EAD7FADB6
:10509000E797920181010E94E22DDE01D396FE0185
:1050A000ED59FF4F8CE001900D928150E1F7E396AE
:1050B000EEADFFADE397E95BFF4F808191810E94E8
:1050C000BE0663E070E05DCE80E795E061E073E0EE
:1050D0000E94B83BE3962EAD3FADE397295B3F4F6F
:1050E000D9018D919C910E94BE060E942F13DFCCA6
:1050F00080E795E063EF72E00E94B83BE396EEAD87
:10510000FFADE397E95BFF4F808191810E94BE066E
:105110000E94990BCCCC8E010B5E1F4FC601B801CB
:105120000E947B20BE01655E7F4F0E947B20BE01F6
:105130006D5F7F4F0E940922BE01615F7F4F0E9419
:105140007B20BE01695F7F4F0E940922BE016B5F19
:105150007F4F0E94092280E795E06AE373E00E9496
:10516000B83BC601B8010E947B2080E795E064E46B
:1051700073E00E94BB3A8D899E890E94DB01BC01CD
:1051800080E795E04AE050E00E949C3AE3962EAD1D
:105190003FADE397295B3F4FD9018D919C910E94D0
:1051A000BE068C018D899E890E94DB01BC01C8016D
:1051B0000E94F7127CCCC601BE016B5E7F4F0E943D
:1051C0007B20BE016B5F7F4F0E94092280E795E044
:1051D00067E273E00E94B83B80E795E061EF72E020
:1051E0000E94BB3A8D899E890E94DB01BC0180E749
:1051F00095E04AE050E00E94893A80E795E061EF4F
:1052000072E00E94BB3A6D817E8180E795E04AE0C2
:1052100050E00E949C3A8D899E890E94DB0127E51F
:10522000A22EB12CAC0EBD1EAA2797FDA095BA2FB9
:10523000BC01CD010E94453FAB01BC01C50100E0AE
:1052400010E020E030E0680179010E94E22DDE01EB
:10525000D396F5018CE001900D928150E1F7E39631
:105260002EAD3FADE397295B3F4FD9018D919C91C6
:105270000E94BE0661E070E084CDEF2809F017CCF3
:1052800080E795E069EB72E00E94BB3AC601BE017F
:105290006B5E7F4F0E947B20BE01655E7F4F0E9448
:1052A0007B20BE01615F7F4F0E947B208D899E899C
:1052B0000E94DB01BC0180E795E04AE050E00E94DB
:1052C0009C3A8D899E890E94DB018C01FFEF8F3F04
:1052D0009F0709F401C18B8D9C8D0E94DB016C013D
:1052E000BFEF8F3F9B0709F42AC1E3962EAD3FAD78
:1052F000E397295B3F4FD9012D903C908F8598898A
:105300000E94DB017C01B801882777FD8095982FEA
:105310000E94453F2B013C01B601882777FD80950F
:10532000982F0E94453F4B015C010027F7FC009538
:10533000102FC801B7010E94453F23EC35EF48E428
:1053400050E40E94674020E030E044E353E40E94D0
:10535000AA3E6B017C01CE01CF96B301A20195015B
:1053600084010E94E22DC101CFACFE01E05CFF4F41
:10537000D080FE01EF5BFF4FE080FE01EE5BFF4F50
:10538000F080FE01ED5BFF4F0081FE01EC5BFF4F03
:105390001081FE01EB5BFF4F2081FE01EA5BFF4FB6
:1053A0003081FE01E95BFF4F4081FE01E85BFF4F6A
:1053B0005081FE01E75BFF4F6081FE01E65BFF4F1E
:1053C00070810E9461078D899E890E94DB01BC016A
:1053D00080E795E04AE050E00E94893A80E795E056
:1053E00061EF72E00E94BB3A8B8D9C8D0E94DB01C5
:1053F000BC0180E795E04AE050E00E94893A80E7EE
:1054000095E061EF72E00E94BB3A8F8598890E9417
:10541000DB01BC0180E795E04AE050E00E94893A58
:1054200080E795E061EF72E00E94B83B40CB8E01CF
:105430000B5E1F4F90CEC7016FE073E00E94F21821
:10544000882309F03CCCC70164E173E00E94F218A4
:10545000882309F034CCC70169E173E00E94F21897
:105460002ECC80E795E06FE573E00E94B83B80E7C3
:1054700095E065E773E00E94B83BE3962EAC3FAC45
:10548000E397E7E4F0E02E0E3F1ED1018D919C9151
:105490000E94BE068C018B8D9C8D0E94D7012B0132
:1054A0003C0189A19AA10E94D7014B015C018F8523
:1054B00098890E94D7016B017C01C801B301A20148
:1054C000950184010E941F0CF101808191810E944D
:1054D000BE060E94660BEBCA80E795E067EC72E0BF
:1054E0000E94B83B8B8D9C8D0E94DB017C018F85D7
:1054F00098890E94DB01E3962EAD3FADE397295BCF
:105500003F4FD9010D911C91AA2797FDA095BA2F65
:10551000BC01CD010E94453F23EC35EF48E450E447
:105520000E94674020E030E044E353E40E94AA3E3A
:105530009B01AC01C801B7010E94A30744CF80E7DB
:1055400095E06CED72E00E94B83B8D899E890E94C7
:10555000DB017C018F8598890E94DB01E396EEAD2B
:10556000FFADE397E95BFF4F00811181AA2797FD0B
:10557000A095BA2FBC01CD010E94453F23EC35EF29
:1055800048E450E40E94674020E030E044E353E404
:105590000E94AA3E9B01AC01C801B7010E94FB0614
:1055A00012CFEF92FF920F931F93DF93CF9300D010
:1055B00000D0CDB7DEB78C010E943931882369F461
:1055C00026960FB6F894DEBF0FBECDBFCF91DF9108
:1055D0001F910F91FF90EF900895C8010E945831DC
:1055E000C8010E94C61DD80150968C91882341F7AE
:1055F00080E795E066E973E00E94B83BC8010E942D
:10560000022481E0F801808B1A8219821C821B829D
:105610001E821D8281E090E00E94D5007C010097EF
:1056200009F46AC0FA82E9820894E11CF11CFE8246
:10563000ED820894E108F108FC82EB8281E090E0C1
:10564000B7010E946E15FC011082D7011C929801CF
:10565000295D3F4FCE0101968217930739F069818A
:105660007A814B815C81C9010E94B31CF80116A6A6
:1056700015A686A181FF31C081A592A527A130A5DD
:10568000821B930B90AB87A7D8015196ED91FC91AB
:10569000529736970190F081E02D0F5E1F4FE00F7B
:1056A000F11F0151104083899489892B79F115826A
:1056B00029813A818D819E818217930719F0C90152
:1056C0000E947F01F80111861086C8010A966DE9D3
:1056D00073E0AB010E94B31C73CFD801D0961C922B
:1056E0001E929F97D1CF199581E090E00E94D5003E
:1056F0007C01009709F096CFE091C004F091C104BD
:10570000309789F780E090E00E94094281E085832C
:10571000CFCF2F923F924F925F926F927F928F9254
:105720009F92AF92BF92CF92DF92EF92FF920F9330
:105730001F93CF93DF935C013B014A01421753074C
:1057400009F46CC06901C41AD50ADC011296ED9106
:10575000FC91139714968D919C9115978E1B9F0B1E
:10576000C816D9060CF46DC0D5012D913C91BF012E
:10577000621B730B6F5F7F4FC601B4E1CB16D10480
:1057800010F484E190E01B01280E391E211431042D
:1057900009F0B1C0442455248301021B130BC2013C
:1057A000B901A8010E940F027201E00EF11EC701AB
:1057B000B401A6010E940F02EC0CFD1CD50112964B
:1057C0000D911C91139706191709C701B301A80180
:1057D0000E940F02E701C00FD11F81E090E0BE01DF
:1057E0000E946E15FC0110821882F5012081318122
:1057F000848195818217930719F0C9010E947F0166
:10580000D50111965C924E921396DC93CE9312972B
:10581000240C351C15963C922E921497DF91CF9153
:105820001F910F91FF90EF90DF90CF90BF90AF90BE
:105830009F908F907F906F905F904F903F902F90B0
:105840000895EF01C61BD70BCC15DD051CF1BF0178
:105850006C197D096F5F7F4FCF010196AC01461B2C
:10586000570B0E940F02F501828193818C0D9D1DC3
:10587000938382832196CC19DD09C3018C0D9D1D74
:10588000B301AE010E940F02C301B401A6010E9440
:105890000602C4CF21967A01EC0EFD1E21978F01DE
:1058A0000F5F1F4F2E193F09C801B701A9010E94C0
:1058B0000F02CC1ADD0AD50112968D919C91139797
:1058C0008C0D9D1D13969C938E93129706191709A4
:1058D000B301A8010E940F02F501828193818C0F10
:1058E0009D1F93838283E818F908C301B401A701BF
:1058F0000E94060293CFC1010E94D500009759F083
:105900002C01F5012081318147CF1995C1010E94F9
:10591000D5000097A9F7E091C004F091C104309739
:10592000A1F780E090E00E9409422F923F924F92AF
:105930005F926F927F928F929F92AF92BF92CF921F
:10594000DF92EF92FF920F931F93CF93DF935C014F
:10595000FB01522E432E342E252EDC0158966D91DC
:105960007C915997C22ED32E50962D913C915197F0
:105970004901860E971E52968D919C915397821BDA
:10598000930B861B970BA6018C159D0508F4AC01A3
:105990007A01E60EF71EE20EF31E3F016C0C7D1C31
:1059A000E301CE1BDF0BC701881999098C179D07EE
:1059B0008CF58F01080F191F98012E1B3F0BC40196
:1059C000BF01A9010E940602C5014096B701A801C6
:1059D000930100E00E94892BF501808D918D8C0D43
:1059E0009D1D918F808F652D742D832D922DDF91BC
:1059F000CF911F910F91FF90EF90DF90CF90BF90CC
:105A0000AF909F908F907F906F905F904F903F905E
:105A10002F900895C401BF01AE010E940602C80D77
:105A2000D91DEC16FD06C1F2F501428953894F5F7D
:105A30005F4F4E195F09CE01B7010E940F02CE19C8
:105A4000DF09D50152968D919C9153978C0F9D1F24
:105A500053969C938E935297BFCFFC012081318146
:105A600042815381B901CA010895FC012481358125
:105A700046815781B901CA010895FC01208531850D
:105A800042855385B901CA010895EF92FF920F93A1
:105A90001F93CF93DF93EC017A018B0148875987DD
:105AA0006A877B87CB01BA012BED3FE049EC50E4DC
:105AB0000E945C40181664F4C801B7012BED3FE06A
:105AC00049EC50E40E94163E688779878A879B8755
:105AD000E884F9840A851B85C801B70120E030E01D
