:100000000C947B010C945C530C948D530C94BE5354
:100010000C94EF530C9420540C9451540C9482542F
:100020000C94B3540C94A8010C94A8010C94A8014E
:100030000C94A8010C94A8010C94A8010C94A8019C
:100040000C94A8010C94D7470C94A8010C94A80117
:100050000C94A8010C94A8010C94A8010C94E454ED
:100060000C94A8010C94114B0C945D4C0C94A801B9
:100070000C94A8010C94A8010C94A8010C94A8015C
:100080000C94404A0C94A8010C94A8010C94A8016B
:100090000C94514B0C949C4C0C94A8010C94A8010A
:1000A0000C94A8010C94A8010C9470490C94A8011C
:1000B0000C94A8010C94A8010C94A8010C94A748D6
:1000C0000C94A8010C94A8010C94A8010C94914BD9
:1000D0000C94DB4C0C94A8010C94D14B0C941A4D4D
:1000E0000C94A801841B701B5C1B501B441B341B0D
:1000F000201B151B051BF81AE41AD81AC41AAC1ACF
:10010000A11A911A841A781A681A571A431A2B1AC4
:10011000141A7D1C701C681CED1CD71C161C081DB5
:10012000FF1CF61CBC1C161C971C931C8A1CC51CAF
:10013000211D4B1CCE1C111D2A1D161CB31C4B1C53
:10014000084AD73B3BCE016E84BCBFFDC12F3D6C3E
:1001500074319ABD56833DDA3D00C77F11BED9E4A4
:10016000BB4C3E916BAAAABE000000803F05A84C84
:10017000CDB2D44EB93836A9020C50B99186880850
:100180003CA6AAAA2ABE000000803F00002100244D
:100190000027002A002D0030003300010100000478
:1001A0000107010A0100002200250028002B002E73
:1001B000003100340002010000050108010B0100BC
:1001C0000020002300260029002C002F0032000010
:1001D00001000003010601090105050505070508E1
:1001E000080808020202020A0A08080404040401BA
:1001F00001010101010101030303030303030304DC
:100200000707070C0C0C0C0C0C0C0C02020202066B
:10021000060606060606060B0B0B0B0B0B0B0B015B
:100220000210202008081020401020408002010207
:1002300001080402010102040810204080804020CF
:10024000100804020180040201804020100804020A
:100250000108040201010204081020408001020488
:1002600008102040800000090A02080B0C0D070648
:100270000304010000000000000000000000000076
:10028000000000000000000000000000000000006E
:100290000011100F0000000000000000000000002E
:1002A00000000000000000000000006364696E6F41
:1002B00070737578585B00494E46494E4954594E03
:1002C000414ECDCCCC3D0AD7233C17B7D13877CCA3
:1002D0002B329595E6241FB14F0A00002041000003
:1002E000C84200401C4620BCBE4CCA1B0E5AAEC5BC
:1002F0009D74C7218D4E11241FBECFEFD1E2DEBF0A
:10030000CDBF00E00CBF12E1A0E0B2E0E2E4F6EB0A
:1003100000E00BBF02C007900D92A232B107D9F7DF
:100320001BBE15E1A2E2B2E101C01D92A83BB107DC
:10033000E1F712E0C6EFD2E004C02297FE010E946E
:10034000D95AC23FD107C9F70E94C34F0C941F5B13
:100350000C940000CF93DF93BC018230910510F420
:1003600062E070E0A091B415B091B515ED01E0E048
:10037000F0E040E050E021C088819981861797071E
:1003800069F48A819B81309719F09383828304C03A
:100390009093B5158093B415FE0134C068177907A2
:1003A00038F44115510519F08417950708F4AC018C
:1003B000FE018A819B819C01E9012097E9F64115A4
:1003C0005105A9F1CA01861B970B049708F4BA01DD
:1003D000E0E0F0E02AC08D919C9111978417950779
:1003E000F9F46417750781F412968D919C91139717
:1003F000309719F09383828304C09093B51580934E
:10040000B415FD0132964CC0CA01861B970BFD0145
:10041000E80FF91F6193719302978D939C9340C0ED
:10042000FD01828193819C01D9011097A1F68091F1
:10043000B2159091B315892B41F480917C11909164
:100440007D119093B3158093B21540917E11509118
:100450007F114115510541F44DB75EB780917A1176
:1004600090917B11481B590B2091B2153091B31517
:10047000CA01821B930B8617970780F0AB014E5F72
:100480005F4F8417950750F0420F531F5093B315D9
:100490004093B215F9016193719302C0E0E0F0E07E
:1004A000CF01DF91CF910895CF93DF93009709F4A7
:1004B00050C0EC0122971B821A82A091B415B09112
:1004C000B515109709F140E050E0AC17BD0708F1F1
:1004D000BB83AA83FE0121913191E20FF31FAE1776
:1004E000BF0779F48D919C911197280F391F2E5FCA
:1004F0003F4F3983288312968D919C9113979B834C
:100500008A834115510571F4D093B515C093B41584
:1005100020C012968D919C911397AD01009711F018
:10052000DC01D3CFFA01D383C28321913191E20F51
:10053000F31FCE17DF0769F488819981280F391FCF
:100540002E5F3F4FFA01318320838A819B81938301
:100550008283DF91CF910895662777270C94A705B2
:10056000FC0188279927E89421912032E9F329306A
:1005700010F02E30C8F32B3241F02D3239F468944C
:1005800004C00E94F002820F911D219120532A3055
:10059000C0F31EF4909581959F4F0895FB01DC01F7
:1005A00002C001900D9241505040D8F7089568174D
:1005B000790768F4FB01DC01E40FF51FA40FB51FF8
:1005C00002C002900E9241505040D8F708950C940A
:1005D000CE02DC0101C06D9341505040E0F7089518
:1005E0007AE0979F902D879F802D910D112408957B
:1005F000AEE0B0E0EEEFF2E00C94F85A85E08C83C8
:100600008C899D899A8389839E01285E3F4FCE0104
:1006100001966E897F89A9010E9496042E96E2E0D8
:100620000C94145BFC0120FD08C023FD05C022FFD3
:1006300002C073836283518340830895EF92FF92D7
:100640000F931F9344FF02C033E011C046FF02C066
:1006500034E00DC0DB01FC01AA0FBB1FEE1FFF1F22
:100660001094D1F76A0F7B1F8E1F9F1F31E0660F1A
:10067000771F881F991F3150D1F77B018C01E20E43
:10068000F11C011D111DA8019701B701CA011F919D
:100690000F91FF90EF9008950F931F93CF93DF93E7
:1006A0008C01C8010E942A07EC0197FD08C00E9436
:1006B000DD5A892BB1F7CE01B8010E946C07CE013B
:1006C000DF91CF911F910F910895A0E0B0E0EBE68C
:1006D000F3E00C94F05AEC01C62E5A01122F0E943E
:1006E0002A07AC018B3219F08D3251F41068CA948C
:1006F00009F46DC0CE010E942A07AC0197FD67C0C6
:100700006DEFD62ED1228D2D807301F54033F1F49B
:10071000CA9409F447C0CE010E942A07AC0197FD94
:1007200041C082E0D82A483711F0483559F480E4B6
:10073000D82ACA94B9F1CE010E942A07AC019923A4
:100740002CF430C0D6FC02C080E1D82AEE24FF246D
:100750008701242F2053283088F0D4FC09C02A3088
:1007600068F0D6FE05C02F7D822F8151863028F09B
:10077000CA01BE010E946C0712C02750C801B70110
:100780004D2D0E941E037B018C0182E0D82ACA9461
:1007900061F0CE010E942A07AC0197FFDACFD1FCAD
:1007A00004C015C0EE24FF248701D7FE08C01095B1
:1007B0000095F094E094E11CF11C011D111DC50190
:1007C000B801A7012D2D0E94120381E001C080E035
:1007D000CDB7DEB7EAE00C940C5BA0E2B0E0E3EF4B
:1007E000F3E00C94EC5A6C01A62E8A017901FE010B
:1007F000319680E2DF011D928A95E9F770E030E0E2
:1008000060E040E050E04F01A1E0B0E0F6018381FC
:10081000F70183FD259183FF21917F01222309F4B4
:100820007EC02E3519F44115510569F1872F90E0EE
:100830008417950744F42D3551F12D3221F43323DB
:1008400029F431E021C0332309F4622F322F832FA2
:10085000869586958695F401E80FF11D832F8770A4
:100860003D0102C0660C771C8A95E2F7208126299B
:100870002083361711F430E007C0361710F43F5FBD
:10088000E6CF3150E4CF71E04F5F5F4FBFCF3323EE
:1008900019F08E8180628E83772359F0FE013196A4
:1008A0009E012F5D3F4F808180958193E217F30772
:1008B000D1F7BB24B3944E010894811C911CC6014E
:1008C0000E942A07AC0197FD22C0869586958695E1
:1008D000F401E80FF11D808190E09A0127703070DB
:1008E00002C0959587952A95E2F780FD05C0CA015B
:1008F000B6010E946C070BC00115110519F0D80153
:100900004D938D01AA94BB24AA20C9F602C0BB2036
:1009100031F40115110529F0F801108202C0EE240E
:10092000FF24C701A096EEE00C94085BA0E0B0E0C5
:10093000ECE9F4E00C94EC5A5C016B013A01FC0127
:10094000178216828824EAC0812F90E00E94DD5A27
:10095000892B21F0C5010E944C03E0C0153249F4F7
:10096000F601F3FC6591F3FE61916F01653269F464
:1009700015E2C5010E942A0797FDDCC0181709F48B
:10098000CDC0B5010E946C07DAC06A3219F0162F8B
:1009900000E006C0F3FC1591F3FE11916F0101E038
:1009A00099240FC00260692D70E080E090E040E281
:1009B0000E941E03962EF601F3FC1591F3FE119191
:1009C0006F01212F20532A3068F301FD03C09924C1
:1009D0009A9403C0992009F4B2C0183621F01C364D
:1009E00099F4F6010BC0F601F3FC6591F3FE6191F9
:1009F000683619F06F01162F07C008600460F3FC19
:100A00001591F3FE11916F01112309F498C08BEA3F
:100A100092E0612F70E00E940707892B09F48FC0D4
:100A2000802F00FF03C0EE24FF2407C0F301E08005
:100A3000F18022E030E0620E731E1E3651F4F501A3
:100A40004681578160E070E0C701202F0E941203A9
:100A500065C0133691F481FD02C099249394C501B9
:100A60000E942A0797FD66C0E114F10419F0F7010E
:100A700081937F019A9499F74FC01B3559F4C501B2
:100A8000692DA70196010E94ED036C01009709F002
:100A900043C03DC0C5010E944C0397FD4BC01F36AB
:100AA00059F1103728F4143629F1193639F527C0D1
:100AB000133719F0153711F51DC0C5010E942A071B
:100AC000EC0197FD11C00E94DD5A892B29F0CE015F
:100AD000B5010E946C0708C0E114F10419F0F70198
:100AE000C1937F019A9449F7E114F104A9F0F70149
:100AF000108212C0006203C0006101C00064C50121
:100B0000692DA701202F0E946503882329F4F50190
:100B10008381807379F413C000FF8394F501F3801F
:100B2000F601F3FC1591F3FE11916F01112309F009
:100B30000BCF05C0882019F42FEF3FEF02C0282DFE
:100B400030E0C901CDB7DEB7EEE00C94085BA0E061
:100B5000B0E0EDEAF5E00C94EE5AEC015B016115B2
:100B6000710519F0FB0191838083F9908F2D90E03E
:100B70000E94DD5A892BC9F7FDE2FF1621F4F99096
:100B8000EE24E39405C02BE2F21609F4F990EE246A
:100B90008E0101501040C80167EB72E043E050E065
:100BA0000E941207892B01F58E010E5F1F4FC801AD
:100BB0006AEB72E045E050E00E941207892B19F4BD
:100BC0008E01095F1F4FA114B10419F0F5011183C3
:100BD0000083E0FC04C070E090E080E814C070E0A6
:100BE00090E080E86FEF08C1C8016FEB72E043E06E
:100BF00050E00E941207892B69F4A114B10429F472
:100C000070E090E080EC6FE7F7C02296F501D183A9
:100C1000C083F6CF8824992440E050E060E070E083
:100C2000EF2DE053EA30A0F5F2E0EF2A8E2D90E0B0
:100C30009C0128703070E2FE06C0232B79F50894E1
:100C4000811C911C2BC0232B19F00894810891085A
:100C5000DB01CA0112E0880F991FAA1FBB1F1A955A
:100C6000D1F7480F591F6A1F7B1F440F551F661F7E
:100C7000771F4E0F511D611D711D483929E952071B
:100C800029E9620729E1720748F084E0E82A06C0F2
:100C9000EE3F31F4E3FC39C098E0E92AF990C0CF87
:100CA000E53311F0E53189F529912D3219F4E0E1B0
:100CB000EE2A05C02B3219F081E090E003C02991A3
:100CC00082E090E0E22FE053EA3018F0C81BD90B25
:100CD0001CC020E030E0FCE020383F075CF4C90194
:100CE000880F991F880F991F280F391F220F331F54
:100CF0002E0F311DE991E053EA3068F3E4FE03C0A2
:100D0000309521953F4F820E931ECE2CDD24E1FEBF
:100D100007C0A114B10421F02197F501D183C0834C
:100D2000CB01BA010E9480587B018C01F3E0CF22F5
:100D3000DD2423E0C216D10421F417FB109517F926
:100D4000109557016801C801B70120E030E040E08C
:100D500050E00E94E057882309F44AC097FE0DC076
:100D600026EDE22E22E0F22E909481949108939445
:100D7000C0E2D0E000E010E012C09EEEE92E92E06A
:100D8000F92EF6CFF7012591359145915491C60181
:100D9000B5010E94A4595B016C018C1A9D0A8C1646
:100DA0009D0684F7D595C7950F5F1F4F0630110537
:100DB00029F08CEF9FEFE80EF91EF1CFC501D601A7
:100DC0007C018D018C2D880F8D2D881F8F3F51F058
:100DD000C601B50120E030E040E050E00E94E0575D
:100DE000882331F482E290E09093B7158093B61592
:100DF0007E2D9F2D802F612F272F392F482F562F83
:100E0000B901CA01CDB7DEB7ECE00C940A5BFC0176
:100E10000590061621F00020D9F7C00108953197FA
:100E2000CF010895FB01DC014150504088F08D91C5
:100E300081341CF08B350CF4805E659161341CF0BC
:100E40006B350CF4605E861B611171F3990B08958C
:100E5000881BFCCFCF93DF93EC014B8140FF1AC07E
:100E600046FF0AC04F7B4B838E819F8101969F83F3
:100E70008E838A81282F2BC042FF13C0E881F9811D
:100E80008081282F332727FD30952115310529F43E
:100E900040624B832FEF3FEF1BC03196F983E8830D
:100EA00011C0EA85FB85CE0119959C0197FF0AC008
:100EB0009B812F5F3F4F11F080E201C080E1892BC1
:100EC0008B83E8CF8E819F8101969F838E8330E054
:100ED000C901DF91CF9108959C01FB01838180FFBF
:100EE00011C086FD0FC09FEF2F3F390759F02283B5
:100EF00080648F7D83838681978101979783868322
:100F000030E002C02FEF3FEFC90108959C01245F3C
:100F10003F4FC9010895FC01EB5FFE4F80E090E078
:100F2000A0E0B0E081939193A193B19380839183EA
:100F3000A283B3830895FC01EB5FFE4F20813181D2
:100F400042815381B901CA010895FC01E75FFE4F58
:100F50002081318142815381B901CA010895FC0188
:100F6000EF5FFE4F808191810895FC01ED5FFE4FA0
:100F7000808191810895FC01ED5FFE4F1182108206
:100F8000129212920895FC01E35FFE4F81E080838C
:100F90000895FC01E35FFE4F108208950C960E94B5
:100FA000790C08950C960E94750C08952F923F922B
:100FB0004F925F926F927F928F929F92AF92BF9269
:100FC000CF92DF92EF92FF920F931F93DF93CF9315
:100FD000CDB7DEB72C970FB6F894DEBF0FBECDBFEE
:100FE0001C014B0169017A010E94893D2B013C01E2
:100FF000AA2497FCA094BA2CC501B4010E9482587F
:10100000AB01BC015E010894A11CB11CC501930198
:1010100082010E94EF3DD101F5018CE001900D921B
:101020008150E1F7C1010C96F101C080D180E280CE
:10103000F380048115812681378140855185628541
:1010400073850E94D60C2C960FB6F894DEBF0FBEA7
:10105000CDBFCF91DF911F910F91FF90EF90DF9067
:10106000CF90BF90AF909F908F907F906F905F9048
:101070004F903F902F900895CF92DF92EF92FF9282
:101080000F931F93DF93CF93CDB7DEB72C970FB697
:10109000F894DEBF0FBECDBFC982DA82EB82FC823C
:1010A0000D831E832F83388749875A876B877C87F8
:1010B000DC01FE0131962CE001900D922150E1F708
:1010C0000C96C980DA80EB80FC800D811E812F8117
:1010D000388549855A856B857C850E94D60C2C966F
:1010E0000FB6F894DEBF0FBECDBFCF91DF911F9139
:1010F0000F91FF90EF90DF90CF9008952F923F9245
:101100004F925F926F927F928F929F92AF92BF9217
:10111000CF92DF92EF92FF920F931F93DF93CF93C3
:10112000CDB7DEB72C970FB6F894DEBF0FBECDBF9C
:101130001C014B0169017A010E94813D2B013C0198
:10114000AA2497FCA094BA2CC501B4010E9482582D
:101150008B019C015E010894A11CB11CC501B30167
:10116000A2010E94EF3DD101F5018CE001900D92AA
:101170008150E1F7C1010C96F101C080D180E2807D
:10118000F3800481158126813781408551856285F0
:1011900073850E94D60C2C960FB6F894DEBF0FBE56
:1011A000CDBFCF91DF911F910F91FF90EF90DF9016
:1011B000CF90BF90AF909F908F907F906F905F90F7
:1011C0004F903F902F9008950F931F938C01825062
:1011D0009F4F6CED75E00E94D646C80185509F4F29
:1011E0006CED75E00E94D6461F910F9108959F9275
:1011F000AF92BF92CF92DF92EF92FF920F931F9325
:10120000CF93DF93EC018C01045F1F4FC8010E9454
:101210005F0C6C01C8010E946A0C5C01C8010E944D
:10122000650CF82EC8010E94700C982EFF2009F45E
:1012300050C0B601882777FD8095982F0E9482586C
:1012400020E030E04AEF53E40E94E75720E030E02E
:101250004AEF53E40E94A4597B018C01992009F0C4
:1012600050C0B501882777FD8095982F0E9482583D
:1012700020E030E04AEF53E40E94E75720E030E0FE
:101280004AEF53EC0E94A459C250DF4F0E944F58BE
:101290009B01AC0124523A4FCE01B9010E94D646BF
:1012A0002397C801B7010E944F589B01AC012452FB
:1012B0003A4FCE01B9010E94D646DF91CF911F91DE
:1012C0000F91FF90EF90DF90CF90BF90AF909F90E5
:1012D0000895B601882777FD8095982F0E9482583F
:1012E00020E030E04AEF53E40E94E75720E030E08E
:1012F0004AEF53EC0E94A4597B018C01992009F418
:10130000B0CFB501882777FD8095982F0E9482582D
:1013100020E030E04AEF53E40E94E75720E030E05D
:101320004AEF53E40E94A459AFCFCF92DF92EF92DD
:10133000FF920F931F938C016091261270912712D8
:1013400080912812909129120E948258F801E1514F
:10135000FF4F20813181428153810E94A4596B014A
:101360007C0160912212709123128091241290913D
:1013700025120E948258F801E551FF4F20813181EA
:10138000428153810E94A4599B01AC01C701B6015F
:101390000E945357F801ED50FF4F20813181428167
:1013A00053810E94A4596B017C01C8010E94913DA8
:1013B000A70196010E945457AB01BC01C8010E94CD
:1013C000993D1F910F91FF90EF90DF90CF9008957E
:1013D0002F923F924F925F926F927F928F929F9245
:1013E000AF92BF92CF92DF92EF92FF920F931F9333
:1013F000DF93CF9300D000D0CDB7DEB76C010E9451
:1014000095096090221270902312409026125090FD
:10141000271210922212109223121092241210926C
:101420002512109226121092271210922812109252
:101430002912B301882777FD8095982F0E94825842
:1014400069837A838B839C83B201882777FD80959B
:10145000982F0E9482584B015C01C60185519F4F15
:101460009E838D8369817A818B819C81ED81FE8150
:1014700020813181428153810E94A4597B018C01DA
:101480009FEE292E312C2C0C3D1CC501B401F1011D
:1014900020813181428153810E94A4599B01AC017A
:1014A000C801B7010E94545720E030E040E05FE3FC
:1014B0000E94A459AB01BC01C6010E9450408601A4
:1014C000075F1E4FC501B401F101208131814281C6
:1014D00053810E94A4599B01AC01F8016081718184
:1014E000828193810E945457F801608371838283C3
:1014F000938386010B5F1E4F69817A818B819C816A
:10150000ED81FE8120813181428153810E94A45965
:101510009B01AC01F80160817181828193810E94FD
:101520005457F8016083718382839383F601EF5FE0
:10153000FE4F80819181680E791E71826082F60172
:10154000ED5FFE4F80819181480E591E518240828D
:1015500089EF90E0C80ED91E809126129091271233
:10156000F6019183808380912212909123129293AD
:10157000829326960FB6F894DEBF0FBECDBFCF91F3
:10158000DF911F910F91FF90EF90DF90CF90BF9070
:10159000AF909F908F907F906F905F904F903F9013
:1015A0002F900895CF92DF92EF92FF920F931F93A7
:1015B000CF93DF93EC018C010D511F4FC8010E94A6
:1015C000B4418823B1F58E010D521F4FC8010E940E
:1015D000B441882339F58E0105521F4FC8010E947E
:1015E000B4418823B1F0C8010E94D341CE010C96CA
:1015F000C880D980EA80FB800C811D812E813F81CB
:10160000488559856A857B850E94A213CE010E9478
:10161000F708DF91CF911F910F91FF90EF90DF902E
:10162000CF900895C8010E94D341CE010E94E809DD
:10163000D2CFC8010E94D341C35FDE4F8881CD5015
:10164000D140882309F4BFCF81E195E16CE472E0D9
:101650000E945C518E01045F1F4FC8010E94810CE3
:101660000E94E24581E195E167E572E00E945C51EC
:10167000C8010E947C0C0E94E24581E195E162E68E
:1016800072E00E947B519FCFAF92BF92CF92DF92C8
:10169000EF92FF920F931F938C010E94DD3DC801D2
:1016A0000C960E948A14C8018D529F4F6AE070E028
:1016B0000E94E041C80185529F4F6EE170E00E9498
:1016C000E041C8018D519F4F64EF71E00E94E041FD
:1016D00005511F4F8DEC9BE2A1ECBEE3F801819315
:1016E0009193A193B1938CE89FE1A2ECBEE3819327
:1016F0009193A193B1938DEF99E6A3EABBE3819314
:101700009193A193B193119211928F011182108242
:10171000095F10404BEFA42EB12CA00EB11EC501E5
:101720000E94BC463EEFC32ED12CC00ED11EC60176
:101730000E94BC460F5F1E4FF80111921192119248
:10174000119280E090E0A0E0B0E081939193A193AA
:10175000B1938F0180839183A283B3830950114099
:101760002DE0E22E21E0F22EE00EF11EF7011082B4
:10177000109222121092231210922412109225120B
:1017800010922612109227121092281210922912EB
:10179000C8010E94F708C60166E070E00E94D047C9
:1017A000C50167E070E00E94D047C8010E94E408CC
:1017B000F70110821F910F91FF90EF90DF90CF9073
:1017C000BF90AF900895CF93DF93DC01BC016758C1
:1017D0007F4FFC01E158FF4FA358BF4F208131815B
:1017E0008D919C911197AD57B040A901480F591F99
:1017F000EB0159834883FD01E558FF4F821B930B92
:1018000091838083CD018F579F4F20E014161506DA
:101810000CF053C0EC012883AE57BF4F20E080810D
:101820009181181619060CF046C02C93DB012D91FE
:101830003C91119737FD2EC02081318137FD34C096
:10184000EB01888199818B3F910524F08AEF90E02C
:1018500099838883808191818B3F910524F08AEF61
:1018600090E091838083DB018D919C9186509F4F06
:101870002CF486E09FEFEB0199838883808191812E
:1018800086509F4F24F486E09FEF91838083DF9101
:10189000CF91089588279927821B930B8D939C9352
:1018A0002081318137FFCCCF88279927821B930B6A
:1018B00091838083C5CF21E0B8CF21E0ABCFFC017D
:1018C000E758FF4F808191810895FC01EF57FF4F4A
:1018D00080810895FC01E558FF4F80819181089532
:1018E000FC01EE57FF4F8081089521E0FC0120A309
:1018F0000895FC0110A208959C0124553F4FC90191
:1019000008959C012F563F4FC9010895EF92FF9211
:101910000F931F937C0101E115E1C80163E672E0BA
:101920000E947B51C70185960E947F42C8016CE6E8
:1019300072E00E947B51C701815B9F4F0E947F42F2
:10194000C80165E772E00E945C51C7018F569F4F46
:101950000E94E245C8016CE772E00E945C51C70139
:1019600084559F4F0E94E2451F910F91FF90EF9089
:101970000895EF92FF920F931F937C0101E115E10F
:10198000C80163E872E00E945C51C7010E94F44004
:10199000C8016CE872E00E945C51C7010C960E947D
:1019A000F4401F910F91FF90EF900895CF92DF9236
:1019B000EF92FF920F931F93DF93CF93CDB7DEB7D4
:1019C0002C970FB6F894DEBF0FBECDBFC982DA8266
:1019D000EB82FC820D831E832F83388749875A87C9
:1019E0006B877C87DC01FE0131962CE001900D9223
:1019F0002150E1F7DC011C96FC012CE001900D92D6
:101A00002150E1F70E94B90C2C960FB6F894DEBF76
:101A10000FBECDBFCF91DF911F910F91FF90EF903F
:101A2000DF90CF900895CF93DF93EC018BA19CA121
:101A30008130910591F0029769F481E090E09CA3D8
:101A40008BA3CE010E94B90C81E195E166E972E0B9
:101A50000E947B51DF91CF91089583E090E09CA399
:101A60008BA3CE010E94B90C81E195E16DE972E092
:101A70000E947B511AA219A2DF91CF910895CF92B3
:101A8000DF92EF92FF920F931F93815B9F4F0E9413
:101A900055421F910F91FF90EF90DF90CF900895E6
:101AA000CF92DF92EF92FF920F931F9385960E9441
:101AB00055421F910F91FF90EF90DF90CF900895C6
:101AC0002F923F924F925F926F927F928F929F924E
:101AD000AF92BF92CF92DF92EF92FF920F931F933C
:101AE000DF93CF93CDB7DEB7A0970FB6F894DEBFE4
:101AF0000FBECDBF4C012E010894411C511CC201E8
:101B00000E94BD3E2DB73EB72C5030400FB6F89422
:101B10003EBF0FBE2DBFE9E0AE2EB12CAC0EBD1EF8
:101B2000ADB7BEB711967CE0672E712C680C791C9E
:101B3000F3018CE001900D928150E1F7C501F401B1
:101B4000C080D180E280F3800481158126813781B5
:101B500040855185628573850E94CB3ED201F50197
:101B600088E001900D928150E1F72DB73EB7245FD8
:101B70003F4F0FB6F8943EBF0FBE2DBFF40181A1B9
:101B800092A18130910521F1823091050CF4F8C1C8
:101B90008230910509F446C1039709F4A9C0A096C3
:101BA0000FB6F894DEBF0FBECDBFCF91DF911F916E
:101BB0000F91FF90EF90DF90CF90BF90AF909F90EC
:101BC0008F907F906F905F904F903F902F900895EF
:101BD0006FE4A62EB12CA80CB91CCE014196F401DD
:101BE000C080D180E280F380048115812681378115
:101BF00040855185628573850E941640C20109891E
:101C00001A892B893C894D895E896F89788D0E945C
:101C1000313FAB01BC01C5010E9450432DE730E0CC
:101C2000820E931E0E944F58F4017183608323E853
:101C30003FEF820E931EF40183A194A1019709F452
:101C400050C1C2010E94B33F7B018C01C3010E94BD
:101C5000913D9B01AC01C801B7010E94773F20E094
:101C600030E040E050E00E94995918160CF0FFC097
:101C7000C2010E94B33F7B018C01C3010E94913DD0
:101C80009B01AC01C801B7010E94773F2BED3FE0FB
:101C900049EC5FE30E94995918160CF0FFC0C2018D
:101CA0000E94B33F55E2C52ED12CC80CD91C2BED98
:101CB0003FE049E450E40E945457AB01BC01C60127
:101CC0000E944F42F40163A174A1C5010E943A43EE
:101CD000882309F464CFF40163A174A1C6010E94B2
:101CE0003A43882309F45BCFC4010E94130D57CFF8
:101CF0002FE4222E312C280C391CCE014996F401F8
:101D0000C080D180E280F3800481158126813781F3
:101D100040855185628573850E941640C201098DF8
:101D20001A8D2B8D3C8D4D8D5E8D6F8D78A10E940F
:101D3000313FAB01BC01C1010E9450432DE730E0AF
:101D4000820E931E0E944F58F4017183608323E832
:101D50003FEF820E931EF40183A194A1019709F431
:101D6000DAC0C3010E94913D7B018C01C4010E9435
:101D7000913D9B01AC01C801B7010E94773F5B0117
:101D80006C01C2010E94B33F7B018C01C3010E9420
:101D9000913D9B01AC01C801B7010E94773F9B01B7
:101DA000AC01D7FAD094D7F8D0945058CA01B901F1
:101DB0000E9454579B01AC01C601B5010E945457C3
:101DC00020E030E040E050E00E94773F7B018C0152
:101DD00085E2C82ED12CC80CD91CC6010E947742BE
:101DE0009B01AC01C801B7010E945457AB01BC0173
:101DF000C6010E945043EFE7F0E08E0E9F1E0E9446
:101E00004F58F4017183608321E83FEF820E931EE7
:101E1000F40163A174A1C1010E943A43882309F42B
:101E2000BECE59CF84010B5D1F4FC4010E94913D6E
:101E3000AB01BC01C8010E9450432FE730E0820E85
:101E4000931E0E944F58F401718360831292129284
:101E50004F0123E83FEF820E931EF40163A174A1AA
:101E6000C8010E943A43882309F499CE3DCFC201AC
:101E70000E94B33F7B018C01C3010E94913D9B01F5
:101E8000AC01C801B7010E94773F2BED3FE049EC60
:101E90005FEB0E94E05788230CF401CF45E2C42E8B
:101EA000D12CC80CD91CC2010E94B33FAB01BC01AC
:101EB000C6010E944F42C4010E94913DAB01BC018A
:101EC000C6010E9450432FE730E0820E931E0E940D
:101ED0004F58F4017183608321E83FEF820E931E17
:101EE000F1CE35E2C32ED12CC80CD91CC3010E94FF
:101EF000913DAB01BC01C6010E944F42C4010E944A
:101F0000913DAB01BC01C6010E945043EFE7F0E0F8
:101F10008E0E9F1EDCCFC3010E94913D7B018C0180
:101F2000C4010E94913D9B01AC01C801B7010E9410
:101F3000773F905820E030E040E050E00E94545756
:101F400020E030E040E050E00E94773F7B018C01D0
:101F500095E2C92ED12CC80CD91CC6010E9477422B
:101F60009B01AC01C801B7010E945457AB01BC01F1
:101F7000C6010E9450432FE730E0820E931E3FCFF0
:101F8000892B09F00CCE2FE730E0820E931EF4016E
:101F9000118210821292129202CE2F923F924F9291
:101FA0005F926F927F928F929F92AF92BF92CF92E9
:101FB000DF92EF92FF920F931F93DF93CF93CDB7F2
:101FC000DEB764970FB6F894DEBF0FBECDBF4C01ED
:101FD000A986BA86CB86DC86ED86FE860F87188BAF
:101FE000298B3A8B4B8B5C8B83E890E0880E991E93
:101FF000F401118210828DE79FEF880E991EF40183
:1020000072A361A382E090E094A383A3B5E24B2E78
:10201000512C480C591CC2010E946F42AFE46A2E39
:10202000712C680C791CC3010E946F42F40181A1DC
:1020300092A18130910509F453C0823091050CF4CE
:10204000BFC082309105D9F0039771F164960FB645
:10205000F894DEBF0FBECDBFCF91DF911F910F91DE
:10206000FF90EF90DF90CF90BF90AF909F908F90B8
:102070007F906F905F904F903F902F9008958401D4
:10208000045F1F4FCE0109960E94913DAB01BC0138
:10209000C8010E94993DC8010E94913DAB01BC015D
:1020A000C2010E944F42D2CF8401045F1F4FD8016A
:1020B000FE0139968CE001900D928150E1F781E1AB
:1020C00095E16AEC72E00E945C51C8010E94F44004
:1020D000C30140E050E060E070E00E944F42DBCF7F
:1020E000FCE02F2E312C280C391CCE0109960E94C1
:1020F000813DAB01BC01C1010E94504081E195E1ED
:102100006AEA72E00E945C51C1010E94F4408DB7FE
:102110009EB70C970FB6F8949EBF0FBE8DBFADB79C
:10212000BEB71196F1018CE001900D928150E1F75C
:102130005E010894A11CB11CC501F401C080D180CE
:10214000E280F380048115812681378140855185A5
:10215000628573850E94CB3E8401085E1F4FD801C3
:10216000F50188E001900D928150E1F78DB79EB79F
:102170000C960FB6F8949EBF0FBE8DBFCE01099688
:102180000E94813D20E030E040E050E00E94E057B6
:1021900088231CF4C8010E941D3FC8010E94C7404B
:1021A000C30140E050E060E070E00E944F42C10196
:1021B0000E94913DAB01BC01C2010E944F4246CF3B
:1021C000892B09F043CF81E195E165EA72E00E9435
:1021D0007B513CCF6F927F928F929F92AF92BF9232
:1021E000CF92DF92EF92FF920F931F93DF93CF93E3
:1021F000CDB7DEB7EC970FB6F894DEBF0FBECDBFFC
:102200005C014E010894811C911CC4010E94BD3EDA
:102210008DB79EB70C970FB6F8949EBF0FBE8DBFBB
:1022200099E0692E712C6C0E7D1EADB7BEB711966C
:10223000F5013C968CE001900D928150E1F7C301CD
:10224000F501C080D180E280F38004811581268170
:10225000378140855185628573850E94CB3ED401CC
:10226000F30188E001900D928150E1F78DB79EB7A0
:102270000C960FB6F8949EBF0FBE8DBFCE0141964F
:10228000F501C080D180E280F38004811581268130
:10229000378140855185628573850E941640C4014F
:1022A00009891A892B893C894D895E896F89788DC6
:1022B0000E94313F20E030E040E050E00E94E057D3
:1022C00088230CF4B2C081E9882E912C8A0C9B1CC7
:1022D000C401F501C080D180E280F38004811581C2
:1022E0002681378140855185628573850E94B74478
:1022F000882309F461C00CEA602E712C6A0C7B1CE7
:10230000C301F501C080D180E280F3800481158192
:102310002681378140855185628573850E94B74447
:102320008823A1F0CE014996B3010E941944C4014B
:10233000C98CDA8CEB8CFC8C0D8D1E8D2F8D38A109
:1023400049A15AA16BA17CA10E942444C5010E940D
:10235000B90CC4010E947844CE0185960E94DD3DEF
:10236000C50160E070E0ADA0BEA0CFA0D8A4E9A4F4
:10237000FAA40BA51CA52DA53EA54FA558A90E9402
:10238000CD0F81E195E16CEF72E00E947B51EC96FC
:102390000FB6F894DEBF0FBECDBFCF91DF911F9176
:1023A0000F91FF90EF90DF90CF90BF90AF909F90F4
:1023B0008F907F906F9008951CEA812E912C8A0C4B
:1023C0009B1CC401F501C080D180E280F3800481B0
:1023D00015812681378140855185628573850E94EC
:1023E000B7448823A1F2C5010E94B90CC4010E9420
:1023F0007844CE01C1960E94DD3DC50160E070E0E9
:10240000A9A8BAA8CBA8DCA8EDA8FEA80FA918AD6A
:1024100029AD3AAD4BAD5CAD0E94CD0F81E195E1A8
:102420006CE073E00E947B51B2CF81E195E16AEEEE
:1024300072E00E947B51ABCF4F925F926F927F927E
:102440008F929F92AF92BF92CF92DF92EF92FF92C4
:102450000F931F93DF93CF93CDB7DEB764970FB67B
:10246000F894DEBF0FBECDBF3C0135E8432E512CA2
:10247000480E591EC201F301C080D180E280F38072
:102480000481158126813781408551856285738558
:102490000F2EFAE98F2EF9E99F2EF9E9AF2EFEE310
:1024A000BF2EF02D0E94093E4DB75EB74C505040F4
:1024B0000FB6F8945EBF0FBE4DBFADB7BEB7119655
:1024C000F2018CE001900D928150E1F75E010894D9
:1024D000A11CB11CC501F301C080D180E280F38052
:1024E00004811581268137814085518562857385F8
:1024F0000E94CB3E4FE750E0640E751EF301208131
:10250000318141E85FEF640E751E37FD17C18DE71D
:1025100090E0680E791EF3018081918143E85FEFBE
:10252000640E751E97FD06C1280F391F8DB79EB723
:102530000C960FB6F8949EBF0FBE8DBF22333105A7
:1025400094F0C5010E94994020E030E040E251E45F
:102550000E94E0578823F4F043E850E0640E751EB3
:10256000F3011182108264960FB6F894DEBF0FBE9D
:10257000CDBFCF91DF911F910F91FF90EF90DF9032
:10258000CF90BF90AF909F908F907F906F905F9013
:102590004F900895D62CC72CC3010E94913D7B011A
:1025A0008C01C2010E94913D9B01AC01C801B701A1
:1025B0000E94535720E030E040E050E00E949959DB
:1025C00018160CF08BC0C3010E94913D7B018C0159
:1025D000C2010E94913D9B01AC01C801B7010E945C
:1025E00053572DEC3CEC4CE45DE30E94E05787FF31
:1025F000B3CF23E8822E912C860C971CF4018081A6
:10260000918101969183808381E195E16CE173E092
:102610000E945C518D2D9C2D0E94913D7B018C016F
:10262000C2010E94913D9B01AC01C801B7010E940B
:10263000535720E030E040E050E00E9499591816CE
:102640000CF064C08D2D9C2D0E94913D7B018C016E
:10265000C2010E94913D9B01AC01C801B7010E94DB
:10266000535720E030E048EC52E40E94A459A62FD2
:10267000482F692F81E195E12A2F372FE42FF62F7C
:10268000A901BF0122E030E00E94C852F40180811C
:10269000918145970CF467CFC3010E94B90C81E189
:1026A00095E16CE273E00E947B51CE0109960E9495
:1026B000DD3DC30160E070E0A984BA84CB84DC8492
:1026C000ED84FE840F85188929893A894B895C89B4
:1026D0000E94CD0FF4011182108245CFC3010E94E8
:1026E000913D7B018C01C2010E94913D9B01AC0197
:1026F000C801B7010E9453572DEC3CEC4CE45DEB54
:102700000E94995918160CF027CF73CF8D2D9C2D50
:102710000E94913D7B018C01C2010E94913D9B0171
:10272000AC01C801B7010E94535720E030E048ECEB
:1027300052EC9BCF909581959F4FF6CE3095219589
:102740003F4FE5CEAF92BF92CF92DF92EF92FF92D2
:102750000F931F93DF93CF93CDB7DEB72C970FB6B0
:10276000F894DEBF0FBECDBF5C01C982DA82EB8276
:10277000FC820D831E832F83388749875A876B8796
:102780007C87DC01FE0131968CE001900D92815036
:10279000E1F7C5010E94600DC5010E94E30BF50140
:1027A00081A192A181309105B9F0892B89F42C96F1
:1027B0000FB6F894DEBF0FBECDBFCF91DF911F9152
:1027C0000F91FF90EF90DF90CF90BF90AF90089562
:1027D000C5010E941C12EBCF80A18823C9F3C5015B
:1027E0000E94EA10F50181A192A1DFCFCF93DF9380
:1027F000EC016130710589F162307105C1F0672B20
:1028000099F481E195E163E373E00E947B51CE018D
:10281000815B9F4F64E670E00E944542CE01859641
:1028200064E670E00E944542DF91CF91089581E116
:1028300095E161E573E00E947B51CE01815B9F4F82
:102840006AEF70E00E944542CE0185966AEF70E023
:102850000E944542DF91CF91089581E195E161E4C5
:1028600073E00E947B51CE01815B9F4F66E970E06F
:102870000E944542CE01859666E970E00E9445427D
:10288000DF91CF910895AF92BF92CF92DF92EF92F6
:10289000FF920F931F93DF93CF93CDB7DEB72C97A3
:1028A0000FB6F894DEBF0FBECDBF5C0160E070E0F4
:1028B0000E94F613CE01019640E050E06AE774EC06
:1028C00000E010E020E030E0680179010E94EF3D77
:1028D000C50161E070E0A980BA80CB80DC80ED802A
:1028E000FE800F81188529853A854B855C850E947D
:1028F000CD0F2C960FB6F894DEBF0FBECDBFCF9193
:10290000DF911F910F91FF90EF90DF90CF90BF90DC
:10291000AF9008958F929F92AF92BF92CF92DF9225
:10292000EF92FF920F931F93DF93CF93CDB7DEB754
:1029300068970FB6F894DEBF0FBECDBF4C010E9462
:10294000DD3DC4010C960E94DD3DC40148960E9405
:10295000BD3EF40110A212A211A283E090E094A364
:1029600083A38DB79EB708970FB6F8949EBF0FBE8E
:102970008DBF87EA97EEAEE0BEE3EDB7FEB7818389
:102980009283A383B48387EA97EEAEE8BDE38583A1
:102990009683A783B087C401859661E020E030E08C
:1029A00048E453E40F2EF0E0EF2EF0E0FF2EF0E0CD
:1029B0000F2FF0E01F2FF02D570168010E94F64104
:1029C00080E090E0A0EAB2E4EDB7FEB781839283A5
:1029D000A383B48380E090E0A0EFB1E48583968385
:1029E000A783B087C401815B9F4F60E020E030E0A7
:1029F00040EC5FE30E94F64189E790E0880E991E63
:102A0000F401119211924F011182108286E090E040
:102A1000880E991E81E0F401819381934F01118208
:102A200010828DE79FEF880E991EEDB7FEB738969E
:102A30000FB6F894FEBF0FBEEDBFC4018B579F4F7A
:102A40000E94DD3DCE01019640E050E068EC72E46A
:102A500000E010E02FE133E4760165010E94EF3DD4
:102A6000C4018F569F4F6CE370E0A980BA80CB8081
:102A7000DC80ED80FE800F81188529853A854B85A5
:102A80005C850E944146CE010D9640E050E068EC26
:102A900072E400E010E02FE133EC0F2EF0E0CF2ED7
:102AA000F0E0DF2EF0E0EF2EF0E0FF2EF02D0E94A0
:102AB000EF3DC40184559F4F6DE370E0AD84BE844B
:102AC000CF84D888E988FA880B891C892D893E89AA
:102AD0004F89588D0E944146C40160E070E00E9419
:102AE000F61368960FB6F894DEBF0FBECDBFCF9138
:102AF000DF911F910F91FF90EF90DF90CF90BF90EB
:102B0000AF909F908F90089587E10E941B57019787
:102B100039F18091261290912712A0912812B0913C
:102B200029120197A109B1098093261290932712C7
:102B3000A0932812B09329128091361290913712E7
:102B4000A0913812B09139120197A109B10980936F
:102B5000361290933712A0933812B0933912089519
:102B60008091261290912712A0912812B0912912DB
:102B70000196A11DB11D8093261290932712A09358
:102B80002812B09329128091361290913712A09199
:102B90003812B09139120196A11DB11D80933612E1
:102BA00090933712A0933812B0933912089586E1AA
:102BB0000E941B57019739F18091221290912312A4
:102BC000A0912412B09125120196A11DB11D8093F0
:102BD000221290932312A0932412B0932512809175
:102BE000321290913312A0913412B09135120196A5
:102BF000A11DB11D8093321290933312A093341211
:102C0000B093351208958091221290912312A091D1
:102C10002412B09125120197A109B10980932212C3
:102C200090932312A0932412B09325128091321214
:102C300090913312A0913412B09135120197A109ED
:102C4000B1098093321290933312A0933412B0934F
:102C50003512089508959C012B5D3F4FC9010895D9
:102C60009C012F5D3F4FC90108959C01275D3F4F97
:102C7000C90108959C0125593F4FC90108959C0140
:102C800023553F4FC90108959C0120553F4FC9016D
:102C900008959C012D543F4FC90108959C012A5F5E
:102CA0003F4FC90108959C01225E3F4FC90108951D
:102CB000EF92FF920F931F938C0181E1E82E85E143
:102CC000F82EC7016FE573E00E947B51C70166E7EC
:102CD00073E00E945C51F80166857785C7014AE080
:102CE00050E00E943D511F910F91FF90EF90089589
:102CF000EF92FF920F931F93CF93DF93EC018EAD72
:102D0000882341F480E0DF91CF911F910F91FF90D4
:102D1000EF900895EAACFBAC0CAD1DAD0E942C55B4
:102D2000E616F7060807190768F71EAE81E0DF917F
:102D3000CF911F910F91FF90EF900895CF92DF9266
:102D4000EF92FF920F931F936C017B010E942C5511
:102D50000027F7FC0095102FE60EF71E081F191F1D
:102D6000F601E2AEF3AE04AF15AF81E086AF1F917E
:102D70000F91FF90EF90DF90CF900895EF92FF9228
:102D80000F931F93CF93DF93EC018D85882341F43C
:102D900080E0DF91CF911F910F91FF90EF90089508
:102DA000E984FA840B851C850E942C55E616F706EB
:102DB0000807190768F71D8681E0DF91CF911F9101
:102DC0000F91FF90EF900895CF92DF92EF92FF92D4
:102DD0000F931F936C017B010E942C550027F7FC79
:102DE0000095102FE60EF71E081F191FF601E18649
:102DF000F2860387148781E0858781E195E165E8A4
:102E000073E00E945C511F910F91FF90EF90DF9053
:102E1000CF900895AF92BF92CF92DF92EF92FF9240
:102E20000F931F93CF93DF93EC010E942C555B010E
:102E30006C01EC84FD840E851F85CE010E94B44197
:102E4000882359F4DF91CF911F910F91FF90EF905C
:102E5000DF90CF90BF90AF900895CE010E94D341F4
:102E6000B5016E197F09882777FD8095982F0E94FC
:102E700082587B018C0120E030E040E050E00E946D
:102E800099591816FCF68889882339F560913E1205
:102E900070913F1280914012909141120E9482588D
:102EA00020E030E048EC52E40E94A459A8019701C8
:102EB0000E94E757688779878A879B8710923E121E
:102EC00010923F1210924012109241120E942C5503
:102ED0006C877D878E879F87B5CF60913A127091FE
:102EE0003B1280913C1290913D120E94825820E04A
:102EF00030E048EC52E40E94A459A80197010E94D6
:102F0000E757688779878A879B8710923A121092D1
:102F10003B1210923C1210923D12D8CFFF920F93A9
:102F20001F938C01F62E64E670E00E94E041F801E8
:102F3000F08A1F910F91FF9008956CED75E00E944B
:102F4000D6460895FC018485882331F4CF0168E0DA
:102F500077E00E94D6460895CF0168EE73E00E94A4
:102F6000D64608956CED75E00E94D6460895FC01A2
:102F70008485882331F4CF0160EB74E00E94D6464B
:102F80000895CF0160ED77E00E94D6460895FC01D8
:102F90008381882331F4CF016AEF75E00E94D64621
:102FA0000895CF0166EF74E00E94D6460895FC01B3
:102FB0008381882331F4CF0168EB76E00E94D64606
:102FC0000895CF0160E274E00E94D6460895FC01A6
:102FD0008381882331F4CF016CE974E00E94D646E6
:102FE0000895CF0160E476E00E94D64608956CE42F
:102FF00074E00E94D646089562ED75E00E94D646C0
:1030000008956FE077E00E94D646089564E276E086
:103010000E94D64608956EED73E00E94D64608954C
:1030200067EE77E00E94D6460895CF93DF93EC01D8
:103030008E859F858330910509F486C08430910583
:10304000CCF08530910509F457C08530910554F5D1
:10305000CE0160E273E00E94E416CE0103960E9466
:10306000011881E195E161E074E00E947B51DF91FC
:10307000CF9108958130910509F450C082309105B7
:103080002CF1CE0160E273E00E94E416CE010E94B2
:10309000F71781E195E160ED73E00E947B51DF91CC
:1030A000CF9108950697D9F7CE0160E273E00E94B0
:1030B000E416CE0103960E94061881E195E165E3CE
:1030C00074E00E947B51DF91CF910895892B39F7ED
:1030D000CE0103960E940118CE010E94FC17CE017A
:1030E00006960E940B1881E195E163E973E00E9466
:1030F0007B51DF91CF910895CE0160E273E00E9491
:10310000E416CE0106960E940B1881E195E16BE171
:1031100074E00E947B51DF91CF910895CE0160E26F
:1031200073E00E94E416CE0103960E940618CE01B9
:1031300006960E94101881E195E162EB73E00E940F
:103140007B51DF91CF910895CE0160E273E00E9440
:10315000E416CE010E94FC1781E195E168EE73E070
:103160000E947B51DF91CF9108950F931F93CF93CE
:10317000DF938C01EB0181E195E161E574E00E9450
:103180007B5181E195E162E574E00E945C5181E14F
:1031900095E1BE014AE050E00E943D51CE01019709
:1031A000029708F479C0209709F450C081E195E1B5
:1031B00069EB74E00E945C51F8016685778581E1D6
:1031C00095E14AE050E00E943D51F80186859785DF
:1031D0008330910509F474C08430910584F0853002
:1031E000910509F476C0853091050CF044C0CD2BD3
:1031F00041F585E090E0F801978786870EC0813021
:10320000910509F46FC082309105ECF1CD2BC9F422
:1032100083E090E0F8019787868781E195E169ED89
:1032200074E00E945C51F8016685778581E195E143
:103230004AE050E00E943D51F8011586C8010E9405
:103240001518DF91CF911F910F91089581E195E1BC
:1032500060E774E00E947B5181E195E167E974E0E9
:103260000E945C5181E195E160E070E04AE050E04D
:103270000E943D519BCF069721F7CD2B11F7F80106
:1032800017861686CACF892BE1F6C130D105C9F65B
:10329000F801D787C687C1CF81E195E160E774E087
:1032A0000E947B5181E195E162E774E00E945C51EC
:1032B00081E195E1BE014AE050E00E943D5173CFAB
:1032C000CD2B09F0BECF84E090E0F8019787868788
:1032D000A4CF229709F0B5CF86E090E0F801978758
:1032E00086879BCFCD2B09F0ACCF82E090E0F80130
:1032F0009787868792CF0F931F93CF93DF938C018D
:10330000EC016096CE010E94B441882329F4DF913C
:10331000CF911F910F910895CE010E94D341C80112
:103320000E94BE16882399F3C80160E070E00E94F5
:10333000B518DF91CF911F910F9108956AE377E05F
:103340000E94D646089564E276E00E94D64608952B
:10335000FC018081882339F4CF0101966AE678E088
:103360000E94D6460895CF0101966DE574E00E9453
:10337000D6460895FC018081882339F4CF01019657
:1033800065E977E00E94D6460895CF01019661EE87
:1033900074E00E94D6460895FC018081882339F4A8
:1033A000CF01019661EA75E00E94D6460895CF01EB
:1033B000019668E677E00E94D6460895FC01808178
:1033C000882339F4CF01019663E974E00E94D64660
:1033D0000895CF0101966AE177E00E94D6460895EC
:1033E000FC018081882339F4CF01019669E477E0FC
:1033F0000E94D6460895CF0101966DE674E00E94C2
:10340000D6460895CF93DF93EC01EF96E881F981DA
:10341000EF97E731F105E0F4EE58FF4FEE0FFF1F95
:103420000590F491E02D1994CF5BDF4F8881C15452
:10343000D040882309F481C184E690E0988B8F877F
:1034400081E08E8781E195E167E477E00E947B511E
:10345000DF91CF910895CE0168EC70E00E949E1636
:10346000CE0101960E94D717CE0143960E94A8195B
:10347000CE0147960E94DE1981E195E169E277E08D
:103480000E947B51E5CFCE0168EC70E00E949E1651
:10349000CE0143960E94CC19CE0147960E94F019A6
:1034A00081E195E168E077E00E947B51D1CFCE01C8
:1034B00001960E94D7178FEF9FEF988B8F8781E03F
:1034C0008E8781E195E167EE76E00E947B51C0CF67
:1034D000CE0168EC70E00E949E16CE0101960E941B
:1034E000E71781E195E168EC76E00E947B51B0CF6F
:1034F000CE0168EC70E00E949E1681E195E169EAD8
:1035000076E00E947B51A4CF84E690E0988B8F8771
:1035100081E08E8781E195E168E876E00E947B5149
:1035200097CFCE0168EC70E00E949E16CE01019606
:103530000E94D71781E195E167E676E00E947B5112
:1035400087CF188A1F8681E08E8781E195E166E446
:1035500076E00E947B517CCFCE0168EC70E00E9447
:103560009E16CE0143960E94A819CE0147960E944E
:10357000DE19CE0101960E94C71781E195E165E24F
:1035800076E00E947B5164CFCE0168EC70E00E942F
:103590009E16CE0143960E94A819CE0147960E941E
:1035A000DE1981E195E168E076E00E947B5150CF21
:1035B000CE0168EC70E00E949E1681E195E16DEE0F
:1035C00075E00E947B5144CFCE0168EC70E00E9410
:1035D0009E16CE0143960E94CC19CE0147960E94BA
:1035E000F01981E195E166ED75E00E947B5130CFE5
:1035F0008FEF9FEF988B8F8781E08E8781E195E138
:103600006DEB75E00E947B5123CFCE0168EC70E03A
:103610000E949E16CE0101960E94D71781E195E186
:1036200064EA75E00E947B5113CF188A1F8681E0FF
:103630008E8781E195E16FE875E00E947B5108CFAC
:10364000CE0168EC70E00E949E16CE0101960E94A9
:10365000C717CE0143960E94BA1981E195E168E748
:1036600075E00E947B51F4CECE0168EC70E00E94C0
:103670009E16CE0101960E94C71781E195E160E692
:1036800075E00E947B51E4CECE0168EC70E00E94B0
:103690009E1681E195E166E475E00E947B51D8CEEB
:1036A000CE0168EC70E00E949E1681E195E162E334
:1036B00075E00E947B51CCCECE0168EC70E00E9498
:1036C0009E16CE0143960E94CC19CE0147960E94C9
:1036D000F01981E195E160E275E00E947B51B8CE7E
:1036E000CE0168EC70E00E949E16CE0143960E94C7
:1036F000A819CE0147960E94DE1981E195E168E0A4
:1037000075E00E947B51A4CECE0101960E94D7178E
:103710008FEF9FEF988B8F8781E08E87CE01439646
:103720000E94CC19CE0147960E94F01981E195E1E3
:1037300065EF74E00E947B518BCE188A1F8681E072
:103740008E8780CEEF92FF920F931F93CF93DF93DC
:103750007C01EB0181E195E161E574E00E947B5120
:1037600081E195E165E677E00E945C5181E195E1B8
:10377000BE014AE050E00E943D51C130D10561F0E8
:10378000C330D10549F0C430D10531F0C530D10581
:1037900019F0C630D10599F481E195E160E774E054
:1037A0000E947B5181E195E168E877E00E945C51DD
:1037B00081E195E1BE014AE050E00E943D51209731
:1037C00009F454C0C730D10509F46DC081E195E119
:1037D00066E178E00E945C518701015C1F4FF801AF
:1037E0006081718181E195E14AE050E00E943D51A4
:1037F00081E195E16BE378E00E945C51F70164A9F7
:1038000075A981E195E14AE050E00E943D51F8013F
:1038100020813181F9012731310508F5E757FF4F44
:10382000EE0FFF1F0590F491E02D1994CD2BB9F404
:10383000F8011182108281E195E16EE478E00E9446
:103840005C51F8016081718181E195E14AE050E0CD
:103850000E943D51F70116AEC7010E94021ADF9186
:10386000CF911F910F91FF90EF90089581E195E125
:1038700060E774E00E947B5181E195E162EB77E0C3
:103880000E945C5181E195E160E070E04AE050E027
:103890000E943D519BCF279711F781E190E0F801FD
:1038A00091838083C8CF81E195E160E774E00E9455
:1038B0007B5181E195E164EE77E00E945C5181E10A
:1038C00095E167E070E04AE050E00E943D517ECF14
:1038D000CD2B29F683E090E0F80191838083ABCF74
:1038E000C230D10509F4A4CF239709F0B8CF82E004
:1038F00090E0F801918380839ECFC130D10509F417
:10390000B2C0249709F0ABCF8BE090E0F80191832F
:10391000808391CFCD2B09F0A2CF8EE090E0F8010B
:103920009183808388CFCD2B09F099CFB6CFCD2B53
:1039300009F095CFF70184A995A904970CF497C0D5
:1039400021E430E0E20EF31EF70180812FEB3FEF20
:10395000E20EF31E882309F490C08DE090E0F80198
:103960009183808368CFCD2B09F079CF86E190E0F9
:10397000F801918380835FCF279709F070CF8AE0A9
:1039800090E0F8019183808356CF279709F067CFA5
:103990008FE090E0F801918380834DCF259709F067
:1039A0005ECF82E190E0F8019183808344CFCD2BFC
:1039B00009F055CFF70184A995A9019695AB84AB81
:1039C00026E030E0F8013183208304970CF433CFF4
:1039D00085E090E0918380832ECFCD2B09F03FCFFF
:1039E00084E090E0F8019183808325CFCD2B09F00E
:1039F00036CF89E090E0F801918380831CCF279730
:103A000009F02DCF88E090E0F8019183808313CFF7
:103A1000CD2B09F024CF87E090E0F80191838083DB
:103A20000ACF269709F01BCF83E190E0F80191833C
:103A30008083F70115AA14AA2331310509F0FBCEC2
:103A40000ECFCD2B09F00BCF80E190E0F8019183F0
:103A50008083F1CE279709F002CF84E190E0F8014E
:103A600091838083E8CEF801D183C083E4CE85E1E1
:103A700090E0F80191838083DECE8CE090E0F80145
:103A800091838083D8CE6CED75E00E94D646089570
:103A90006CED75E00E94D646089564ED74E00E94D6
:103AA000D646089568EE73E00E94D646089563E80E
:103AB00075E00E94D64608950F931F938C010396DC
:103AC00064E175E00E94D646C80164E175E00E9499
:103AD000D6461F910F9108950F931F938C01039663
:103AE00068EE73E00E94D646C80168EE73E00E945B
:103AF000D6461F910F910895FC018081882339F4E7
:103B0000CF01019664EC77E00E94D6460895CF017C
:103B100001966CE875E00E94D6460895FC0180810C
:103B2000882339F4CF0101966DE674E00E94D646F1
:103B30000895CF01019661E478E00E94D646089589
:103B40000F931F938C0103966CE677E00E94D64694
:103B5000C80164ED74E00E94D6461F910F9108954C
:103B60000F931F938C01039665E478E00E94D6467C
:103B7000C80160E374E00E94D6461F910F9108953A
:103B8000CF93DF93EC018985882341F08A859B855B
:103B90002FEF8F3F920781F0892B19F0DF91CF91A2
:103BA0000895CE0103960E94A7468823E9F4CE012A
:103BB0000E94A2171D86F2CFCE0106960E94A7464C
:103BC0008823F9F0CE010E949D17198681E08D8728
:103BD0008C858823D9F010922E1210922F121092F9
:103BE000301210923112DACFCE010E949D1781E17E
:103BF00095E16FEB78E00E947B51198681E08D871B
:103C0000CDCFCE010E94B7171D86C8CF10922A12C1
:103C100010922B1210922C1210922D12BFCF0F93D4
:103C20001F93CF93DF93EC018C01055E1F4FC801FA
:103C30000E940A17CE0105960E94C01DC8010E946D
:103C40000A178E01045D1F4FC8010E94B4418823EA
:103C500029F4DF91CF911F910F910895C8010E941F
:103C6000D341CE010E947816882371F48A89882373
:103C700081F31A8ACE0167E070E00E94A21BDF91F7
:103C8000CF911F910F910895CE0160E070E00E94E6
:103C9000A21BECCFEF92FF920F931F93CF93DF9372
:103CA000EC0189960E940F1ECE0185599F4F0E94FC
:103CB0000F1E8E010A5F1F4FC8010E947B199FE9EA
:103CC000E92EF12CEC0EFD1EF70180819181181672
:103CD000190634F4FE01E154FF4F80818823B9F5C1
:103CE0008E01035A1F4FF801808191811816190621
:103CF00034F4FE01E254FF4F8081882339F4DF91D0
:103D0000CF911F910F91FF90EF9008951082CE01F7
:103D10004E960E949E1981E195E166E179E00E944C
:103D20005C51F8016081718181E195E14AE050E0E8
:103D30000E943D5181E195E16EE379E00E947B5163
:103D4000DF91CF911F910F91FF90EF900895108216
:103D5000C80162E070E00E94B51881E195E168EC6D
:103D600078E00E945C51F7016081718181E195E109
:103D70004AE050E00E943D5181E195E160EF78E03A
:103D80000E947B51ADCFCF93DF93EC018C858823CC
:103D900069F581E195E16EEF79E00E947B5181E167
:103DA00095E16FE17AE00E945C51CE0106960E9497
:103DB000A746682F81E195E170E04AE050E00E945B
:103DC0003D5181E195E16EE37AE00E945C51CE01C4
:103DD00003960E94A746682F81E195E170E04AE0D2
:103DE00050E00E943D51DF91CF91089581E195E12E
:103DF00064E679E00E947B5181E195E169E979E02F
:103E00000E945C51CE0106960E94A746682F81E170
:103E100095E170E04AE050E00E943D5181E195E17A
:103E20006CEC79E0D2CF05960E94C31E08951F93D3
:103E3000CF93DF93EC01162F0E94BC461B83112306
:103E400091F4CE0169E270E00E94D04781E195E1F2
:103E500061E77AE00E947B51CE010E94D717DF9183
:103E6000CF911F910895CE016AE270E00E94D04781
:103E700081E195E16CE57AE00E947B51CE010E94E0
:103E8000D717DF91CF911F9108950F931F93182F8C
:103E9000092F0E94BC46812F902F68E270E00E949B
:103EA000D047812F902F0E94FC1781E195E166E8B1
:103EB0007AE00E947B511F910F9108950F931F93F9
:103EC000182F092F0E94BC46812F902F67E270E0C7
:103ED0000E94D047812F902F0E94011881E195E127
:103EE0006AE97AE00E947B511F910F9108950F9328
:103EF0001F93182F092F0E94BC46812F902F66E236
:103F000070E00E94D047812F902F0E940B1881E112
:103F100095E160EB7AE00E947B511F910F9108952B
:103F20000F931F938C010E94451FC80103960E94A6
:103F30005E1FC80106960E94771FF8011586178636
:103F40001686C801409664E670E00E94E04181E177
:103F500095E16FEB7AE00E947B511F910F910895DC
:103F60000F931F93182F092F0E94BC46812F902F6B
:103F700065E270E00E94D047812F902F0E94A31924
:103F800081E195E162ED7AE00E947B511F910F91F2
:103F90000895EF92FF921F93CF93DF937C01162F2A
:103FA000EC012196CE010E94BC46F701108311233B
:103FB000A1F4CE0160E270E00E94D04781E195E17A
:103FC0006FEF7AE00E947B51C7010E94CC19DF910C
:103FD000CF911F91FF90EF900895CE0161E270E0C4
:103FE0000E94D04781E195E165EE7AE00E947B5125
:103FF000EBCFEF92FF921F93CF93DF937C01162FAD
:10400000EC012196CE010E94BC46F70110831123DA
:10401000A1F4CE016EE170E00E94D04781E195E10C
:1040200063E37BE00E947B51C7010E94F019DF919E
:10403000CF911F91FF90EF900895CE016FE170E056
:104040000E94D04781E195E169E17BE00E947B51CC
:10405000EBCF0F931F93182F092F0E94BC46812F7F
:10406000902F6FE070E00E94D047812F902F0E9428
:10407000481D81E195E16DE47BE00E947B511F9139
:104080000F9108950F931F93182F092F0E94BC467C
:10409000812F902F64E270E00E94D047812F902FF3
:1040A0000E94571D81E195E167E57BE00E947B510D
:1040B0001F910F910895EF92FF920F931F938C0120
:1040C0000E94BC4623E0E22EF12CE00EF11EC70157
:1040D0000E94BC46C70163E270E00E94D047C8015D
:1040E00062E270E00E94D047C8010E946C1D81E12D
:1040F00095E163E67BE00E947B511F910F91FF9059
:10410000EF900895EF92FF921F93CF93DF937C017E
:10411000162FEC012196CE010E94BC46F7011083B8
:104120001123A1F4CE0160E170E00E94D04781E14B
:1041300095E161E87BE00E947B51C7010E948E1DE2
:10414000DF91CF911F91FF90EF900895CE0161E133
:1041500070E00E94D04781E195E16EE67BE00E942D
:104160007B51EBCFEF92FF920F931F938C010E9434
:10417000BC4643E0E42EF12CE00EF11EC7010E9484
:10418000BC46C70164E370E00E94D047C80162E307
:1041900070E00E94D047C8010E94B01D81E195E106
:1041A00064E97BE00E947B511F910F91FF90EF909B
:1041B0000895CF92DF92EF92FF921F93CF93DF93F8
:1041C000EC01162F7A0169010E94BC46CE010396CC
:1041D000B7010E948746CE010696B6010E94874627
:1041E0001D861C87112341F5CE0168E170E00E9415
:1041F000D04781E195E16CEB7BE00E947B51CE01E1
:104200000E94B71768EC70E080E090E00E94615572
:10421000CE010E94A21764E670E080E090E00E9468
:104220006155CE010E94B217DF91CF911F91FF908F
:10423000EF90DF90CF900895CE0169E170E00E9489
:10424000D04781E195E16BEA7BE00E947B51D7CFBB
:10425000CF92DF92EF92FF921F93CF93DF93EC0107
:10426000162F7A01690101960E94171FCE0105964B
:10427000612FA70196010E94D920CE014396612F9C
:104280000E94C91FCE014796612F0E94F91FCE01DF
:104290004B96612F0E948E17CE018C9662E370E0E0
:1042A0000E94E0411DAA1CAA18AE19AE1EAEEF96E0
:1042B000199219921882C154D04018831FAA1EAABD
:1042C0001123A1F481E195E16FEE7BE00E947B5127
:1042D0008FEF9FEF988B8F8781E08E87DF91CF9153
:1042E0001F91FF90EF90DF90CF90089581E195E1CD
:1042F0006DEC7BE00E947B51EBCF0F931F938C0101
:104300000E94B220C80106960E94901FC8014E96D6
:104310000E94B01FC801819660E00E948220C801FF
:10432000859661E00E948220C801899660E04BE199
:1043300050E029E030E00E942821C80185599F4FB4
:1043400061E04DE150E02CE130E00E942821C801FD
:1043500083559F4F0E942920C80180559F4F0E947E
:104360004220C8018D549F4F0E945B2002541F4F72
:1043700081E0F8018193808381E195E161E17CE056
:104380000E947B511F910F910895CB0108958EE4F7
:1043900092E16AE070E00E94874681E592E16EE07A
:1043A00070E00E94874684E592E16BE070E00E9435
:1043B000874687E592E16CE070E00E9487460895A9
:1043C00080914812909149120097E9F0813091054F
:1043D00039F18330910509F471C0029709F452C094
:1043E00080914412909145120E942B3B809146127D
:1043F000909147120E94D20A8091421290914312EA
:104400000E944A1E08958EE492E10E94A7468823E6
:1044100041F5809148129091491281309105C9F679
:104420008EE492E10E9492468823B1F082E090E00F
:10443000909349128093481281E195E167E57CE011
:104440000E947B510E942C5560934A1270934B122C
:1044500080934C1290934D12809148129091491282
:10446000B8CF81E090E0909349128093481281E1A7
:1044700095E16CE47CE00E947B5180914812909120
:104480004912CBCF0E942C5520914A1230914B12E9
:1044900040914C1250914D12621B730B840B950B83
:1044A000209180113091811140918211509183119E
:1044B000261737074807590708F092CF81E195E1A1
:1044C00063E67CE00E947B5183E090E09093491288
:1044D0008093481280914612909147120E94E408FE
:1044E00008958F929F92AF92BF92CF92DF92EF92F8
:1044F000FF920F931F9321E5C22E22E1D22EC60117
:104500000E948C4694E5A92E92E1B92EC5010E9425
:104510008C4687E5882E82E1982EC4010E948C4645
:1045200083E160E00E94235682E160E00E9423560E
:1045300083E161E00E94E55682E161E00E94E55678
:1045400086E160E00E94235687E160E00E942356E6
:1045500086E161E00E94E55686E161E00E94E55651
:1045600085E067ED75E143E050E00E94DB5284E0B6
:1045700064E875E143E050E00E94DB5282E061E0D4
:104580000E94235683E061E00E94235682E060E0AF
:104590000E94E55683E060E00E94E55684E061E019
:1045A0000E94235685E061E00E94235684E060E08B
:1045B0000E94E55684E060E00E94E55601E115E1C5
:1045C000C80140E855E260E070E00E94594DC80122
:1045D0006DE67CE00E947B51C8016BE77CE00E94A5
:1045E0007B5180EC90E00E94DA4FF82EE92E0E9479
:1045F0007D21F0924212E0924312C8016EE87CE005
:104600000E947B518EE091E00E94DA4FF82EE92E55
:104610000E94440BF0924612E0924712C80166E9EC
:104620007CE00E947B518BE490E00E94DA4FF82EF0
:10463000E92E6091461270914712409142125091BA
:1046400043120E94D229F0924412E0924512C8010E
:1046500061EA7CE00E947B51C80166EB7CE00E942D
:104660007B51C80167EB7CE00E947B51109249129C
:104670001092481210924A1210924B1210924C1241
:1046800010924D12C80160ED7CE00E947B51C80180
:104690006AED7CE00E945C518EE492E10E94A746A4
:1046A000682FC80170E04AE050E00E943D51C80107
:1046B00065EE7CE00E945C51C6010E94A746682F0F
:1046C000C80170E04AE050E00E943D51C80162EF2D
:1046D0007CE00E945C51C5010E94A746682FC8017A
:1046E00070E04AE050E00E943D51C8016FEF7CE06D
:1046F0000E945C51C4010E94A746682FC80170E067
:104700004AE050E00E943D5180914612909147123C
:104710000E94CE071F910F91FF90EF90DF90CF90F6
:10472000BF90AF909F908F900895FC018DEC91E128
:10473000918380830895FC01A081B18116978D91AA
:104740009C918E0F9F1F0E94A6230895FC018BEB66
:1047500091E1918380838DEC91E197838683089525
:10476000DC0113968D919C911497892B91F01596ED
:10477000ED91FC91169717968D919C911897E817DB
:10478000F90739F0819190E01696FC93EE93159716
:104790000895ED91FC9111970488F589E02DCD01E4
:1047A00019950895FC0185EF91E191838083089527
:1047B000CF93DF93EC01E881F9810288F389E02D42
:1047C00019959C018FEF2F3F380729F08D819E812D
:1047D00001969E838D83C901DF91CF910895CB010E
:1047E0000895DC0113968D919C911497892B71F09B
:1047F0001596ED91FC91169717968D919C911897AF
:10480000E817F90719F0808190E00895ED91FC9187
:1048100011970288F389E02DCD01199508958FEF46
:104820009FEF089580E090E0089508950895DC01D9
:10483000242FED91FC910084F185E02D41E0199544
:10484000089580E090E00895FC01228933898089F1
:104850009189281B390B86899789281B390BC90137
:104860000895CF92DF92EF92FF920F931F93CF9311
:10487000DF93EC016B0179018A01AE89BF896889F8
:1048800079898A899B89861B970BA817B90778F0C5
:1048900020E030E040E050E0B901CA01DF91CF9163
:1048A0001F910F91FF90EF90DF90CF900895121617
:1048B00013061406150664F720E030E040E050E0EF
:1048C000F601E20FF31F6A0F7B1FDB018C918083DF
:1048D0002F5F3F4F4F4F5F4FAE89BF891196BF8B00
:1048E000AE8B688979898A899B89861B970BA81763
:1048F000B90790F62E153F05400751076CF6E0CF3B
:10490000FC0126893789A089B189828993898A1B0C
:104910009B0B2817390738F4A20FB31F8C91282F4F
:1049200030E0C90108952FEF3FEFC9010895CF93FB
:10493000DF93EC01E881F9810288F389E02D199574
:104940009C018FEF2F3F380729F08E899F890196B0
:104950009F8B8E8BC901DF91CF910895CF93DF9309
:10496000DC0156964D915C9157974115510511F117
:104970005096CD91DC91519752962D913C91539741
:104980002C1B3D0B24173507B0F18FEF6F3F7807D5
:10499000B9F0FE01E40FF51F319780818617E1F42D
:1049A0004150504057965C934E935697CB01DF9100
:1049B000CF9108956FEF7FEFCB01DF91CF910895F5
:1049C0004150504057965C934E93569760E070E08C
:1049D000CB01DF91CF9108951F968C911F9784FF93
:1049E000E9CFCA01019757969C938E935697C80FAB
:1049F000D91F6883DBCF57963C932E9356976FEF62
:104A00007FEFD4CF80E090E0089580E090E00895BB
:104A100080E090E0089580E090E0089560E070E02C
:104A200080E090E008956F927F929F92AF92BF9244
:104A3000CF92DF92EF92FF920F931F93CF93DF936A
:104A4000EC013B0159016A01121613061406150602
:104A50000CF050C0EE24FF24870117C0EB85FC85C5
:104A60008D859E85E817F90748F590828B859C8592
:104A700001969C878B870894E11CF11C011D111D78
:104A8000EA14FB040C051D05ACF5F301EE0DFF1D4A
:104A900090808F8580FFE2CFE881F9810084F185E5
:104AA000E02DCE0160E070E044E020E11995EB8557
:104AB000FC858D859E85E817F907B8F2E881F981B4
:104AC000028CF38DE02DCE01692D70E019958F5F7A
:104AD0009F4F89F6B701C801DF91CF911F910F91C8
:104AE000FF90EF90DF90CF90BF90AF909F907F901E
:104AF0006F90089586017501EDCFCB010895FC01FB
:104B0000A081B18116978D919C918E0F9F1F0E945D
:104B10008A250895FC018BEB91E1918380838DECD4
:104B200091E197838683CF010E94D74F0895FC01BE
:104B30008DEC91E191838083CF010E94D74F08953E
:104B4000FC0185EF91E191838083CF010E94D74FD3
:104B50000895CF93DF93EC0185ED91E199838883EC
:104B6000288939898C899D898217930719F0C90191
:104B70000E94540285EF91E199838883DF91CF9160
:104B80000895CF93DF93EC0185ED91E199838883BC
:104B9000288939898C899D898217930719F0C90161
:104BA0000E94540285EF91E199838883CE010E948F
:104BB000D74FDF91CF910895FC01A081B181169765
:104BC0008D919C918E0F9F1F0E94E7250895CF9392
:104BD000DF93EC0183E991E1998388830A9699A395
:104BE00088A385ED91E19F838E832E893F898A8DED
:104BF0009B8D8217930719F0C9010E94540285EF1B
:104C000091E19F838E83E0918711F0918811F98360
:104C1000E88336970190F081E02DEC0FFD1F809125
:104C2000891190918A11918380838DEC91E199A3F0
:104C300088A3CE010E94D74FDF91CF910895FC0148
:104C4000A081B18116978D919C918E0F9F1F0E941C
:104C50002A260895CF93DF93EC0183E991E19983AC
:104C600088830A9699A388A385ED91E19F838E831B
:104C70002E893F898A8D9B8D8217930719F0C90170
:104C80000E94540285EF91E19F838E83E09187110A
:104C9000F0918811F983E88336970190F081E02D37
:104CA000EC0FFD1F8091891190918A11918380836F
:104CB0008DEC91E199A388A3DF91CF910895AF92F4
:104CC000BF92CF92DF92EF92FF920F931F93CF93F9
:104CD000DF936C01DC011296ED91FC9113974D91DD
:104CE0005C91DF01A41BB50BCB016A177B0708F4AD
:104CF000CD015C010894A11CB11CA114B104C9F53B
:104D0000EE24FF248F01041B150BC701BA01A80173
:104D10000E94D702E701C00FD11F81E090E0BE01E1
:104D20000E94C521FC0110821882F6012081318188
:104D3000848195818217930719F0C9010E9454025A
:104D4000D6011196FC92EE921396DC93CE931297B5
:104D5000AE0CBF1C1596BC92AE921497DF91CF910A
:104D60001F910F91FF90EF90DF90CF90BF90AF9089
:104D70000895C5010E94AA01009779F07C01D6012F
:104D80001296ED91FC9113974D915C91BBCF1995C3
:104D9000C5010E94AA01009789F7E0915A12F0918B
:104DA0005B123097A1F780E090E00E941F5BFF92BA
:104DB0000F931F93CF93DF938C01F62EDC01129695
:104DC0002D913C911397E901219614968D919C9118
:104DD0001597C817D907E9F081E090E0BE010E945D
:104DE000C521FC0110821882D8011296ED91FC9128
:104DF0001397F08212968D919C91139701961396BA
:104E00009C938E931297DF91CF911F910F91FF90FA
:104E100008958D919C91F901E81BF90BCF0171F474
:104E200061E070E0680F791FC8010E945F26D80119
:104E30001296CD91DC9113972196CECFBF01F2CF80
:104E40000F931F93CF93DF938C01EB018FEF6F3F95
:104E5000780741F4C0E0D0E0CE01DF91CF911F91FF
:104E60000F910895D8011F968C9184FF1AC0F80104
:104E7000208D318D0088F189E02DD80152968D91D9
:104E80009C9153978E1B9F0B2817390768F4E20FEC
:104E9000F31F6083F801808D918D0196918F808F33
:104EA000DBCFCFEFDFEFD8CFC80140960E94D726E7
:104EB000F1CFDF92EF92FF920F931F93CF93DF9387
:104EC000EC017B01D42E88819981EA81FB81E81B6A
:104ED000F90BAB014E0F5F1F2C813D8121503040FB
:104EE000281B390B2417350740F4EE16FF06A0F1F6
:104EF0006E0F7F1FCE010E945F26E114F10419F1AD
:104F00002A813B81C90101962E0D3F1D281B390BBB
:104F10006D2D70E0A9010E94E9020A811B810E0D2E
:104F20001F1D81E090E0B8010E94C521FC011082A4
:104F3000F8011082EA81FB81D0828A819B818E0DEB
:104F40009F1D9B838A83CE01DF91CF911F910F918B
:104F5000FF90EF90DF900895BF01CACF0F931F938A
:104F6000CF93DF93EC0130E0C901887190704897CE
:104F700009F486C0C901887090702071307041308A
:104F800009F455C04230B1F1AA89BB89E889F98991
:104F9000AD014E1B5F0B8B01040F151F401751070E
:104FA000F0F1892B11F01F8B0E8B232BE1F09D016B
:104FB0002E1B3F0B2017310708F042C0B801621BBF
:104FC000730BCE01409640E00E9459278889998949
:104FD0002A893B89281B390B8E899F892817390715
:104FE00010F43F8B2E8BB801CB01DF91CF911F9135
:104FF0000F91089521153105C9F500E010E0E88909
:10500000F989AA89BB89009721F00E891F89060FAB
:10501000171FAD014E1B5F0B4017510710F66FEFC6
:105020007FEFCB01DF91CF911F910F9108958B01FD
:10503000E889F989AA89BB89AD014E1B5F0BAECF08
:10504000E00FF11FAE17BF0739F28C918083EA1B86
:10505000FB0B8A899B898E0F9F1F9B8B8A8B2889CC
:105060003989AC01421B530B9A01B6CFAA89BB897F
:10507000E889F9898D010E1B1F0B060F171FC3CF7F
:10508000423009F077CFCBCF8F929F92BF92CF92D1
:10509000DF92EF92FF920F931F93CF93DF936C01F8
:1050A0007B01DC01ED91FC9136970190F081E02DC0
:1050B000E80FF91FC189D2892097F9F0E881F981B9
:1050C00036970190F081E02DEC0FFD1FA389B48984
:1050D000ED91FC9111970484F585E02DCD01199592
:1050E0008F5F9F4F09F4BFC0D601ED91FC913697B9
:1050F0000190F081E02DEC0DFD1D838994890E94C3
:10510000F123BFEF8F3F9B0709F48CC00E94DD5A4B
:10511000892B09F09AC0D601ED91FC913697208138
:105120003181F601E20FF31F83889488D701ED9156
:10513000FC91119712968D919C911397E817F9079E
:1051400071F010828D919C91119713969C938E9380
:105150001297D601ED91FC91369720813181F901AA
:105160003296EC0DFD1D22853385448555851286CA
:10517000138614861586E9012115310509F0C6C08C
:105180000EEF1FEF1EC081E090E0BE010E94C5211E
:10519000FC0110821882D7011296ED91FC911397B1
:1051A000B08212962D913C9113972F5F3F4F13962B
:1051B0003C932E9312970115110509F492C00150EA
:1051C0001040C4010E94B023BFEF8F3F9B0709F43A
:1051D000A3C0B82E992787FD90950E94DD5A892B90
:1051E00009F04DC0F70122813381E90121968481C4
:1051F0009581C817D90739F680819181A901481B8B
:10520000590BCA0109F080C061E070E0680F791F96
:10521000C7010E945F26D7011296CD91DC911397AA
:105220002196B1CFD601ED91FC9136970190F08196
:10523000E02DEC0DFD1D2581322F3260838994898C
:10524000892B09F490C0358366CFD601ED91FC918E
:1052500036970190F081E02DEC0DFD1D8389948936
:105260000E94B02341CFE881F98136970190F08107
:10527000E02DEC0FFD1F25812160258335CFF40142
:10528000238134812115310551F0858196812817BC
:10529000390729F0FC018291B81609F46FC0D401D6
:1052A000ED91FC910688F789E02DC4016B2D70E02B
:1052B00019958F5F9F4F91F4D601ED91FC91369730
:1052C0000190F081E02DEC0DFD1D2581322F346021
:1052D00083899489892B09F449C03583F701228198
:1052E0003381F701808191812817390751F1C60177
:1052F000DF91CF911F910F91FF90EF90DF90CF90B2
:10530000BF909F908F900895BA0180CFC701B901D7
:105310000E945F268E0153CFD601ED91FC91369706
:105320000190F081E02DEC0DFD1D2581322F3260C2
:1053300083899489892B59F13583F701228133813F
:10534000D0CFD601ED91FC9136970190F081E02D00
:10535000EC0DFD1D2581322F346083899489892BC2
:10536000F1F03583C4CF23602583D5CE2560258316
:10537000D70112962D913C911397B3CFD401169675
:10538000FC93EE931597F70122813381AACF236016
:105390002583D70112962D913C911397A2CF2560BA
:1053A0002583A5CFCF92DF92EF92FF920F931F93A9
:1053B000CF93DF93EC017B016A0162E370E00E940E
:1053C000E041198618861B861A861D861C861F8654
:1053D0001E8688E090E00E94AA01009709F4BDC0F3
:1053E0008A879B878C879D878A859B8508969F8760
:1053F0008E870C851D8581E090E0B8010E94C52153
:10540000FC011082F8011082BE01695E7F4F41E20B
:1054100050E01FAA18AE86E090E0A0E0B0E089AFAF
:105420009AAFABAFBCAFED9619921992199219923F
:1054300080E2899319821882C254D0405DAB4CAB94
:10544000CC5BDF4F79836883C454D0401EAACA5B0B
:10545000DF4F1882C654D040E0918711F091881137
:10546000FA8BE98B9E012F5E3F4F36970190F081BA
:10547000E02DE20FF31F8091891190918A119183A1
:1054800080831B8A1C8A1D8A1E8AE989FA893697BD
:105490000190F081E02DE20FF31F54834383748B5E
:1054A000638B1582158A83E991E19A8B898B0A9621
:1054B0009AAB89AB1B8E1A8E1D8E1C8E1F8E1E8E74
:1054C00019A218A21BA21AA21DA21CA21EA285ED3F
:1054D00091E1988F8F8B18A61FA21AA619A61CA659
:1054E0001BA688E090E00E94AA01009709F447C03B
:1054F0008FA398A789A79AA78FA198A508969CA77C
:105500008BA709A51AA581E090E0B8010E94C521EA
:10551000FC011082F80110821EA61DA618AA1FA663
:1055200088E08EA3C95BDF4FE992F992D982C882E5
:10553000C954D04081E0888BDF91CF911F910F91AA
:10554000FF90EF90DF90CF900895199588E090E05C
:105550000E94AA01009709F043CFE0915A12F091FE
:105560005B12309791F780E090E00E941F5B1995E5
:1055700088E090E00E94AA01009709F0B9CFE0917D
:105580005A12F0915B12309791F7EDCF8F929F9264
:10559000AF92BF92CF92DF92EF92FF920F931F9341
:1055A000CF93DF937C018B016A01DC014D915C910B
:1055B000119712962D913C911397241B350BE60100
:1055C000C61BD70B2C173D0708F075C0CA01A901EF
:1055D0000E94CE02D7011296ED91FC9113976D9126
:1055E0007C911197AF01461B570B5801A40EB51EB5
:1055F000CA14DB0409F451C0E601CA19DB099E0193
:10560000240F351F14968D919C9115970197861B39
:10561000970B8217930708F081C09A012F5F3F4FC5
:10562000CE01C431D10508F463C04901880E991E2A
:105630008114910409F065C0CC24DD248F01061B80
:10564000170BC601A8010E94D7020C0D1D1DC80131
:10565000B501AE010E94D702C00FD11F81E090E0DA
:10566000BE010E94C521FC0110821882D7012D9134
:105670003C91119714968D919C91159782179307E1
:1056800019F0C9010E945402F701D182C082D3836C
:10569000C2838C0C9D1C95828482C701DF91CF91BF
:1056A0001F910F91FF90EF90DF90CF90BF90AF9040
:1056B0009F908F900895CA01AE010E94CE02D7013B
:1056C000ED91FC911197EC0FFD1F12960D90BC917E
:1056D000A02DEA17FB0709F38C918083EA1BFB0BD3
:1056E000E7018A819B818E0F9F1F9B838A83D5CF81
:1056F00084E190E04901880E991E8114910409F417
:105700009BCFC4010E94AA010097C1F16C01F7016F
:10571000608171810280F381E02D90CFB5016F5FD0
:105720007F4FC61AD70ACF010196A6010E94D70261
:10573000D70112960D911C9113970C0F1D1F81E03C
:1057400090E0B8010E94C521FC011082F80110828E
:10575000D7011296ED91FC911397D5018C9180831E
:10576000F701828193818C0F9D1F9383828395CF54
:105770001995C4010E94AA01009741F6E0915A12BE
:10578000F0915B123097A1F780E090E00E941F5BE0
:105790003F924F925F926F927F928F929F92AF92C1
:1057A000BF92CF92DF92EF92FF920F931F93DF93FE
:1057B000CF93CDB7DEB728970FB6F894DEBF0FBEF4
:1057C000CDBF3C018AE0482E512C460C571CCE011F
:1057D000019698878F8381E195E10E94E84D181624
:1057E00019062CF4F301808591854C97C4F0289616
:1057F0000FB6F894DEBF0FBECDBFCF91DF911F91E2
:105800000F91FF90EF90DF90CF90BF90AF909F905F
:105810008F907F906F905F904F903F90089581E1BF
:1058200095E10E941A4E382EFAE08F1709F445C10F
:10583000D3011C960D911C911D971A968D919C91E8
:105840001B97081B190B0E5F1F4F1A8219821C82AF
:105850001B821E821D82BFEF0F3F1B0771F00115D7
:10586000110509F00BC180E090E09A8389839C8345
:105870008B83080F191F1E830D830B811C8181E010
:1058800090E0B8010E94C521FC011082F80110824D
:10589000D3011A968D909C901B971C96ED91FC91CC
:1058A0001D978E169F0609F403C14B815C816981A7
:1058B0007A81DA01A61BB70B6F01C818D9089601C7
:1058C0002A0F3B1F8D819E810197861B970B8217A4
:1058D000930708F079C09D012F5F3F4FC601B4E1E7
:1058E000CB16D10410F484E190E05901A80EB91E42
:1058F000A114B10409F0A7C0EE24FF248A01061BFD
:10590000170BC701A8010E94D7020E0D1F1DC80169
:10591000B401A6010E94D7020C0D1D1D81E090E08C
:10592000B8010E94C521FC011082F8011082298172
:105930003A818D819E818217930719F0C9010E94D7
:105940005402FA82E9821C830B83AE0CBF1CBE8218
:10595000AD82A8018A010F5F1F4F8D819E810817BC
:10596000190709F45CC081E090E0B8010E94C521EC
:10597000FC011082F8011082EB81FC8130824B81A6
:105980005C814F5F5F4F5C834B838F81988584156B
:10599000950529F069817A81C2010E94C62A298170
:1059A0003A818D819E818217930719F0C9010E9467
:1059B0005402D30118968D919C91199701961996CE
:1059C0009C938E93189707CFB4016F5F7F4FE61BB0
:1059D000F70BCA010196AF010E94D7020B811C810F
:1059E0000C0D1D1D81E090E0B8010E94C521FC0155
:1059F0001082D8011C92EB81FC81D4018C918083B0
:105A00004B815C814C0D5D1D5C834B838A010F5F74
:105A10001F4F8D819E810817190709F0A4CF898136
:105A20009A818A01081B190B09F045C061E070E0FA
:105A3000600F711FCE0101960E945F260B811C81B1
:105A40000F5F1F4F90CFC5010E94AA01009761F020
:105A50007C014B815C8169817A8150CF1995C501A8
:105A60000E94AA010097A1F7E0915A12F0915B12EF
:105A70003097A1F780E090E00E941F5BC8010E9470
:105A8000AA01009709F0F1CEE0915A12F0915B1251
:105A9000309781F31995C8010E94AA01009709F077
:105AA000E4CEE0915A12F0915B12309799F7E2CF71
:105AB0004B815C814FCFB801BBCFD30118968D913C
:105AC0009C911997181619061CF4F301108A8FCEB1
:105AD00081E050968C938BCEAF92BF92CF92DF92A3
