:100000000C9405030C9470550C94A1550C94D25586
:100010000C9403560C9434560C9465560C949656D6
:100020000C94C7560C9432030C9432030C94320394
:100030000C9432030C9432030C9432030C9432036C
:100040000C9432030C94D7490C9432030C94320371
:100050000C9432030C9432030C9432030C94F85633
:100060000C9432030C94114D0C945D4E0C9432039D
:100070000C9432030C9432030C9432030C9432032C
:100080000C94404C0C9432030C9432030C943203C5
:100090000C94514D0C949C4E0C9432030C943203EE
:1000A0000C9432030C9432030C94704B0C94320376
:1000B0000C9432030C9432030C9432030C94A74A30
:1000C0000C9432030C9432030C9432030C94914D33
:1000D0000C94DB4E0C9432030C94D14D0C941A4FBB
:1000E0000C943203871B731B631B571B4B1B3B1B5F
:1000F000271B1A1B0A1BFF1AEB1ADF1ACB1AB31A9B
:10010000A61A961A891A781A681A591A451A2D1AAF
:10011000061A1A1A1A1A1A1A1A1A1A1A1A1A1A1A53
:100120001A1A1A1A1A1A1A1A1A1A1A1A1A1A1A1A2F
:100130001A1A1A1A1A1A1A1A1A1A1A1A1A1A1A1A1F
:100140001A1A1A1A1A1A1A1A1A1A1A1A1A1A1A1A0F
:100150001A1A1A1A1A1A1A1A1A1A1A1A1A1A1A1AFF
:100160001A1A1A1A1A1A1A1A1A1A1A1A1A1A1A1AEF
:100170001A1A1A1A1A1A1A1A1A1A1A1A1A1A1A1ADF
:100180001A1A1A1A1A1A1A1A1A1A1A1A1A1A1A1ACF
:100190001A1A1A1A1A1A1A1A1A1A1A1A1A1A1A1ABF
:1001A0001A1A1A1A1A1A1A1A1A1A1A1A1A1A1A1AAF
:1001B0001A1A1A1A1A1A1A1A1A1A1A1A1A1A1A1A9F
:1001C0001A1A1A1A1A1A1A1A1A1A1A1A1A1A1A1A8F
:1001D0001A1A1A1A1A1A1A1A1A1A1A1A1A1A1A1A7F
:1001E0001A1A1A1A1A1A1A1A1A1A1A1A1A1A1A1A6F
:1001F0001A1A1A1A1A1A1A1A1A1A1A1A1A1A1A1A5F
:100200001A1A1A1A1A1A1A1A1A1A1A1A1A1A1A1A4E
:100210001A1A1A1A1A1A1A1A1A1A1A1A1A1A1A1A3E
:100220001A1A1A1A1A1A1A1A1A1A1A1A1A1A1A1A2E
:100230001A1A1A1A1A1A1A1A1A1A1A1A1A1A1A1A1E
:100240001A1A1A1A1A1A1A1A1A1A1A1A1A1A1A1A0E
:100250001A1A1A1A1A1A1A1A1A1A1A1A1A1A1A1AFE
:100260001A1A1A1A1A1A1A1A1A1A1A1A1A1A1A1AEE
:100270001A1A1A1A1A1A1A1A1A1A1A1A1A1A1A1ADE
:100280001A1A1A1A1A1A1A1A1A1A1A1A1A1A1A1ACE
:100290001A1A1A1A1A1A1A1A1A1A1A1A1A1A1A1ABE
:1002A0001D1A821D761D6D1D5D1D471D401D371DCC
:1002B0002E1D251D1C1D071DEB1C221CE21CD91C1C
:1002C000D01C631CC71CAE1CA51C8C1C831C631C8F
:1002D000451C451C451C451C451C451C451C451C16
:1002E000451C451C451C451C451C451C451C451C06
:1002F000451C451C451C451C451C451C451C451CF6
:10030000451C451C451C451C451C451C451C451CE5
:10031000451C451C451C451C451C451C451C451CD5
:10032000451C451C451C451C451C451C451C451CC5
:10033000451C451C451C451C451C451C451C451CB5
:10034000451C451C451C451C451C451C451C451CA5
:10035000451C451C451C451C451C451C451C451C95
:10036000451C451C451C451C451C451C451C451C85
:10037000451C451C451C451C451C451C451C451C75
:10038000451C451C451C451C451C451C451C451C65
:10039000451C451C451C451C451C451C451C451C55
:1003A000451C451C451C451C451C451C451C451C45
:1003B000451C451C451C451C451C451C451C451C35
:1003C000451C451C451C451C451C451C451C451C25
:1003D000451C451C451C451C451C451C451C451C15
:1003E000451C451C451C451C451C451C451C451C05
:1003F000451C451C451C451C451C451C451C451CF5
:10040000451C451C451C451C451C451C451C451CE4
:10041000451C451C451C451C451C451C451C451CD4
:10042000451C451C451C451C451C451C451C451CC4
:10043000451C451C451C451C451C451C451C451CB4
:10044000451C451C451C451C451C451C451C451CA4
:10045000451C451C451C451C451C451C451C7B1C5E
:10046000084AD73B3BCE016E84BCBFFDC12F3D6C1B
:1004700074319ABD56833DDA3D00C77F11BED9E481
:10048000BB4C3E916BAAAABE000000803F05A84C61
:10049000CDB2D44EB93836A9020C50B9918688082D
:1004A0003CA6AAAA2ABE000000803F00002100242A
:1004B0000027002A002D0030003300010100000455
:1004C0000107010A0100002200250028002B002E50
:1004D000003100340002010000050108010B010099
:1004E0000020002300260029002C002F00320000ED
:1004F00001000003010601090105050505070508BE
:10050000080808020202020A0A0808040404040196
:1005100001010101010101030303030303030304B8
:100520000707070C0C0C0C0C0C0C0C020202020648
:10053000060606060606060B0B0B0B0B0B0B0B0138
:1005400002102020080810204010204080020102E4
:1005500001080402010102040810204080804020AC
:1005600010080402018004020180402010080402E7
:100570000108040201010204081020408001020465
:1005800008102040800000090A02080B0C0D070625
:100590000304010000000000000000000000000053
:1005A000000000000000000000000000000000004B
:1005B0000011100F0000000000000000000000000B
:1005C0000000000000000000000000494E46494EB7
:1005D0004954594E414ECDCCCC3D0AD7233C17B798
:1005E000D13877CC2B329595E6241FB14F0A000005
:1005F00020410000C84200401C4620BCBE4CCA1B23
:100600000E5AAEC59D7474258D5011241FBECFEFB8
:10061000D1E2DEBFCDBF00E00CBF16E1A0E0B2E04A
:10062000E6ECF9EB00E00BBF02C007900D92A23C94
:10063000B107D9F71BBE1AE1A2ECB6E101C01D92C9
:10064000A835B107E1F716E0CAE0D6E004C022976A
:10065000FE010E949B5CC630D107C9F70E94C351BE
:100660000C94E15C0C940000CF93DF93BC018230CA
:10067000910510F462E070E0A091541AB091551AFF
:10068000ED01E0E0F0E040E050E021C08881998198
:100690008617970769F48A819B81309719F09383B5
:1006A000828304C09093551A8093541AFE0134C07B
:1006B0006817790738F44115510519F08417950723
:1006C00008F4AC01FE018A819B819C01E90120971D
:1006D000E9F641155105A9F1CA01861B970B04974C
:1006E00008F4BA01E0E0F0E02AC08D919C911197E6
:1006F00084179507F9F46417750781F412968D91A4
:100700009C911397309719F09383828304C0909340
:10071000551A8093541AFD0132964CC0CA01861BAB
:10072000970BFD01E80FF91F6193719302978D9369
:100730009C9340C0FD01828193819C01D901109757
:10074000A1F68091521A9091531A892B41F480910D
:100750001C1690911D169093531A8093521A409133
:100760001E1650911F164115510541F44DB75EB745
:1007700080911A1690911B16481B590B2091521A02
:100780003091531ACA01821B930B8617970780F08A
:10079000AB014E5F5F4F8417950750F0420F531F18
:1007A0005093531A4093521AF9016193719302C006
:1007B000E0E0F0E0CF01DF91CF910895CF93DF9398
:1007C000009709F450C0EC0122971B821A82A09175
:1007D000541AB091551A109709F140E050E0AC1747
:1007E000BD0708F1BB83AA83FE0121913191E20F7D
:1007F000F31FAE17BF0779F48D919C911197280FC5
:10080000391F2E5F3F4F3983288312968D919C911B
:1008100013979B838A834115510571F4D093551A20
:10082000C093541A20C012968D919C911397AD01DC
:10083000009711F0DC01D3CFFA01D383C283219159
:100840003191E20FF31FCE17DF0769F48881998198
:10085000280F391F2E5F3F4FFA01318320838A8191
:100860009B8193838283DF91CF91089566277727B9
:100870000C948204FC0188279927E8942191203266
:10088000E9F3293010F02E30C8F32B3241F02D322D
:1008900039F4689404C00E947A04820F911D21915A
:1008A00020532A30C0F31EF4909581959F4F0895F0
:1008B000FB01DC0102C001900D9241505040D8F77D
:1008C00008956817790768F4FB01DC01E40FF51F50
:1008D000A40FB51F02C002900E9241505040D8F7AD
:1008E00008950C945804DC0101C06D9341505040B0
:1008F000E0F708957AE0979F902D879F802D910DC6
:1009000011240895A0E0B0E0E8E8F4E00C94B05CB5
:10091000EC015B016115710519F0FB019183808386
:10092000F9908F2D90E00E949F5C892BC9F7FDE222
:10093000FF1621F4F990EE24E39405C02BE2F216A1
:1009400009F4F990EE248E0101501040C8016BECBF
:1009500075E043E050E00E94E205892B01F58E012D
:100960000E5F1F4FC8016EEC75E045E050E00E943D
:10097000E205892B19F48E01095F1F4FA114B10400
:1009800019F0F50111830083E0FC04C070E090E0F1
:1009900080E814C070E090E080E86FEF08C1C80103
:1009A00063ED75E043E050E00E94E205892B69F4B5
:1009B000A114B10429F470E090E080EC6FE7F7C077
:1009C0002296F501D183C083F6CF8824992440E094
:1009D00050E060E070E0EF2DE053EA30A0F5F2E087
:1009E000EF2A8E2D90E09C0128703070E2FE06C048
:1009F000232B79F50894811C911C2BC0232B19F013
:100A0000089481089108DB01CA0112E0880F991F40
:100A1000AA1FBB1F1A95D1F7480F591F6A1F7B1FCA
:100A2000440F551F661F771F4E0F511D611D711D0D
:100A3000483929E9520729E9620729E1720748F094
:100A400084E0E82A06C0EE3F31F4E3FC39C098E0C8
:100A5000E92AF990C0CFE53311F0E53189F5299104
:100A60002D3219F4E0E1EE2A05C02B3219F081E0B5
:100A700090E003C0299182E090E0E22FE053EA3059
:100A800018F0C81BD90B1CC020E030E0FCE0203877
:100A90003F075CF4C901880F991F880F991F280F21
:100AA000391F220F331F2E0F311DE991E053EA3019
:100AB00068F3E4FE03C0309521953F4F820E931EEC
:100AC000CE2CDD24E1FE07C0A114B10421F0219752
:100AD000F501D183C083CB01BA010E94425A7B0148
:100AE0008C01F3E0CF22DD2423E0C216D10421F4EF
:100AF00017FB109517F9109557016801C801B70148
:100B000020E030E040E050E00E94A259882309F440
:100B10004AC097FE0DC02AEEE22E25E0F22E9094F8
:100B2000819491089394C0E2D0E000E010E012C0FC
:100B300092E0E92E96E0F92EF6CFF7012591359156
:100B400045915491C601B5010E94665B5B016C0141
:100B50008C1A9D0A8C169D0684F7D595C7950F5F54
:100B60001F4F0630110529F08CEF9FEFE80EF91E9C
:100B7000F1CFC501D6017C018D018C2D880F8D2D03
:100B8000881F8F3F51F0C601B50120E030E040E002
:100B900050E00E94A259882331F482E290E09093C1
:100BA000571A8093561A7E2D9F2D802F612F272F45
:100BB000392F482F562FB901CA01CDB7DEB7ECE067
:100BC0000C94CC5CFB01DC014150504088F08D91CD
:100BD00081341CF08B350CF4805E659161341CF01F
:100BE0006B350CF4605E861B611171F3990B0895EF
:100BF000881BFCCF9C01245F3F4FC9010895FC0175
:100C0000EB5FFE4F80E090E0A0E0B0E08193919335
:100C1000A193B19380839183A283B3830895FC0150
:100C2000EB5FFE4F2081318142815381B901CA01BE
:100C30000895FC01E75FFE4F20813181428153819D
:100C4000B901CA010895FC01EF5FFE4F80819181D7
:100C50000895FC01ED5FFE4F808191810895FC01B4
:100C6000ED5FFE4F11821082129212920895FC01E4
:100C7000E35FFE4F81E080830895FC01E35FFE4F58
:100C8000108208950C960E94ED0A08950C960E9419
:100C9000E90A08952F923F924F925F926F927F924E
:100CA0008F929F92AF92BF92CF92DF92EF92FF927C
:100CB0000F931F93DF93CF93CDB7DEB72C970FB66B
:100CC000F894DEBF0FBECDBF1C014B0169017A0154
:100CD0000E94563F2B013C01AA2497FCA094BA2CF9
:100CE000C501B4010E94445AAB01BC015E010894E5
:100CF000A11CB11CC501930182010E94BC3FD1011E
:100D0000F5018CE001900D928150E1F7C1010C9644
:100D1000F101C080D180E280F380048115812681B9
:100D2000378140855185628573850E944A0B2C96D8
:100D30000FB6F894DEBF0FBECDBFCF91DF911F91EC
:100D40000F91FF90EF90DF90CF90BF90AF909F906A
:100D50008F907F906F905F904F903F902F9008956D
:100D6000CF92DF92EF92FF920F931F93DF93CF9377
:100D7000CDB7DEB72C970FB6F894DEBF0FBECDBF50
:100D8000C982DA82EB82FC820D831E832F8338872F
:100D900049875A876B877C87DC01FE0131962CE0FE
:100DA00001900D922150E1F70C96C980DA80EB801A
:100DB000FC800D811E812F81388549855A856B8580
:100DC0007C850E944A0B2C960FB6F894DEBF0FBEAE
:100DD000CDBFCF91DF911F910F91FF90EF90DF90EA
:100DE000CF9008952F923F924F925F926F927F9291
:100DF0008F929F92AF92BF92CF92DF92EF92FF922B
:100E00000F931F93DF93CF93CDB7DEB72C970FB619
:100E1000F894DEBF0FBECDBF1C014B0169017A0102
:100E20000E944E3F2B013C01AA2497FCA094BA2CAF
:100E3000C501B4010E94445A8B019C015E010894D3
:100E4000A11CB11CC501B301A2010E94BC3FD1018C
:100E5000F5018CE001900D928150E1F7C1010C96F3
:100E6000F101C080D180E280F38004811581268168
:100E7000378140855185628573850E944A0B2C9687
:100E80000FB6F894DEBF0FBECDBFCF91DF911F919B
:100E90000F91FF90EF90DF90CF90BF90AF909F9019
:100EA0008F907F906F905F904F903F902F9008951C
:100EB0000F931F938C0182509F4F6CED75E00E9441
:100EC000D648C80185509F4F6CED75E00E94D6480A
:100ED0001F910F9108959F92AF92BF92CF92DF9290
:100EE000EF92FF920F931F93CF93DF93EC018C014E
:100EF000045F1F4FC8010E94D30A6C01C8010E9401
:100F0000DE0A5C01C8010E94D90AF82EC8010E94BD
:100F1000E40A982EFF2009F450C0B601882777FD17
:100F20008095982F0E94445A20E030E04AEF53E425
:100F30000E94A95920E030E04AEF53E40E94665B2A
:100F40007B018C01992009F050C0B501882777FDFD
:100F50008095982F0E94445A20E030E04AEF53E4F5
:100F60000E94A95920E030E04AEF53EC0E94665BF2
:100F7000C250DF4F0E94115A9B01AC0124523A4FDC
:100F8000CE01B9010E94D6482397C801B7010E943B
:100F9000115A9B01AC0124523A4FCE01B9010E9473
:100FA000D648DF91CF911F910F91FF90EF90DF9086
:100FB000CF90BF90AF909F900895B601882777FD9E
:100FC0008095982F0E94445A20E030E04AEF53E485
:100FD0000E94A95920E030E04AEF53EC0E94665B82
:100FE0007B018C01992009F4B0CFB501882777FDEA
:100FF0008095982F0E94445A20E030E04AEF53E455
:101000000E94A95920E030E04AEF53E40E94665B59
:10101000AFCFCF92DF92EF92FF920F931F938C018D
:101020006091C6167091C7168091C8169091C91626
:101030000E94445AF801E151FF4F208131814281E1
:1010400053810E94665B6B017C016091C2167091B6
:10105000C3168091C4169091C5160E94445AF80197
:10106000E551FF4F20813181428153810E94665BAF
:101070009B01AC01C701B6010E941559F801ED5062
:10108000FF4F20813181428153810E94665B6B0159
:101090007C01C8010E945E3FA70196010E9416597B
:1010A000AB01BC01C8010E94663F1F910F91FF90E8
:1010B000EF90DF90CF9008952F923F924F925F92E2
:1010C0006F927F928F929F92AF92BF92CF92DF9258
:1010D000EF92FF920F931F93DF93CF9300D000D036
:1010E000CDB7DEB76C010E9409086090C2167090FF
:1010F000C3164090C6165090C7161092C216109292
:10110000C3161092C4161092C5161092C6161092ED
:10111000C7161092C8161092C916B301882777FD1A
:101120008095982F0E94445A69837A838B839C838D
:10113000B201882777FD8095982F0E94445A4B0171
:101140005C01C60185519F4F9E838D8369817A81A1
:101150008B819C81ED81FE8120813181428153818F
:101160000E94665B7B018C019FEE292E312C2C0C9A
:101170003D1CC501B401F1012081318142815381BF
:101180000E94665B9B01AC01C801B7010E94165921
:1011900020E030E040E05FE30E94665BAB01BC0111
:1011A000C6010E941D428601075F1E4FC501B401A2
:1011B000F10120813181428153810E94665B9B0154
:1011C000AC01F80160817181828193810E9416597E
:1011D000F801608371838283938386010B5F1E4FC6
:1011E00069817A818B819C81ED81FE8120813181B1
:1011F000428153810E94665B9B01AC01F8016081D2
:101200007181828193810E941659F80160837183F4
:1012100082839383F601EF5FFE4F80819181680E98
:10122000791E71826082F601ED5FFE4F80819181AF
:10123000480E591E5182408289EF90E0C80ED91E97
:101240008091C6169091C716F60191838083809194
:10125000C2169091C3169293829326960FB6F89475
:10126000DEBF0FBECDBFCF91DF911F910F91FF90D9
:10127000EF90DF90CF90BF90AF909F908F907F9036
:101280006F905F904F903F902F900895CF92DF9294
:10129000EF92FF920F931F93CF93DF93EC018C019A
:1012A0000D511F4FC8010E9481438823B1F58E0163
:1012B0000D521F4FC8010E948143882339F58E01CA
:1012C00005521F4FC8010E9481438823B1F0C80115
:1012D0000E94A043CE010C96C880D980EA80FB8092
:1012E0000C811D812E813F81488559856A857B85CA
:1012F0000E941612CE010E946B07DF91CF911F91C1
:101300000F91FF90EF90DF90CF900895C8010E9459
:10131000A043CE010E945C08D2CFC8010E94A04326
:10132000C35FDE4F8881CD50D140882309F4BFCF01
:1013300081EB99E16CE472E00E9470538E01045FCE
:101340001F4FC8010E94F50A0E94AF4781EB99E147
:1013500067E572E00E947053C8010E94F00A0E9483
:10136000AF4781EB99E162E672E00E948F539FCF15
:10137000AF92BF92CF92DF92EF92FF920F931F93A3
:101380008C010E94AA3FC8010C960E945513C80107
:101390008D529F4F6AE070E00E94AD43C8018552B4
:1013A0009F4F6EE170E00E94AD43C8018D519F4F89
:1013B00064EF71E00E94AD4305511F4F8DEC9BE23D
:1013C000A1ECBEE3F80181939193A193B1938CE8D2
:1013D0009FE1A2ECBEE381939193A193B1938DEF32
:1013E00099E6A3EABBE381939193A193B193119200
:1013F00011928F0111821082095F10404BEFA42ED1
:10140000B12CA00EB11EC5010E94BC483EEFC32EF8
:10141000D12CC00ED11EC6010E94BC480F5F1E4FCA
:10142000F801119211921192119280E090E0A0E0E7
:10143000B0E081939193A193B1938F0180839183C5
:10144000A283B383095011402DE0E22E21E0F22E59
:10145000E00EF11EF70110821092C2161092C31610
:101460001092C4161092C5161092C6161092C71686
:101470001092C8161092C916C8010E946B07C601C7
:1014800066E070E00E94D049C50167E070E00E940C
:10149000D049C8010E945807F70110821F910F918F
:1014A000FF90EF90DF90CF90BF90AF900895CF93D3
:1014B000DF93DC01BC0167587F4FFC01E158FF4F0F
:1014C000A358BF4F208131818D919C911197AD57C9
:1014D000B040A901480F591FEB0159834883FD0112
:1014E000E558FF4F821B930B91838083CD018F576B
:1014F0009F4F20E0141615060CF053C0EC01288312
:10150000AE57BF4F20E080819181181619060CF06C
:1015100046C02C93DB012D913C91119737FD2EC0D5
:101520002081318137FD34C0EB01888199818B3F67
:10153000910524F08AEF90E09983888380819181DE
:101540008B3F910524F08AEF90E091838083DB014B
:101550008D919C9186509F4F2CF486E09FEFEB017C
:10156000998388838081918186509F4F24F486E0FF
:101570009FEF91838083DF91CF91089588279927EA
:10158000821B930B8D939C932081318137FFCCCFAD
:1015900088279927821B930B91838083C5CF21E0F5
:1015A000B8CF21E0ABCFFC01E758FF4F808191819C
:1015B0000895FC01EF57FF4F80810895FC01E55825
:1015C000FF4F808191810895FC01EE57FF4F80818C
:1015D000089521E0FC0120A30895FC0110A20895C4
:1015E0009C0124553F4FC90108959C012F563F4F40
:1015F000C9010895EF92FF920F931F937C0101EBB5
:1016000019E1C80163E672E00E948F53C701859615
:101610000E944C44C8016CE672E00E948F53C701DF
:10162000815B9F4F0E944C44C80165E772E00E94B5
:101630007053C7018F569F4F0E94AF47C8016CE798
:1016400072E00E947053C70184559F4F0E94AF47BC
:101650001F910F91FF90EF900895EF92FF920F93DB
:101660001F937C0101EB19E1C80163E872E00E945D
:101670007053C7010E94C142C8016CE872E00E9429
:101680007053C7010C960E94C1421F910F91FF90A9
:10169000EF900895CF92DF92EF92FF920F931F93F6
:1016A000DF93CF93CDB7DEB72C970FB6F894DEBF9C
:1016B0000FBECDBFC982DA82EB82FC820D831E830E
:1016C0002F83388749875A876B877C87DC01FE0127
:1016D00031962CE001900D922150E1F7DC011C962F
:1016E000FC012CE001900D922150E1F70E942D0B9E
:1016F0002C960FB6F894DEBF0FBECDBFCF91DF9111
:101700001F910F91FF90EF90DF90CF900895CF93AE
:10171000DF93EC018BA19CA18130910591F00297A0
:1017200069F481E090E09CA38BA3CE010E942D0B75
:1017300081EB99E166E972E00E948F53DF91CF91CE
:10174000089583E090E09CA38BA3CE010E942D0B13
:1017500081EB99E163EA72E00E948F531AA219A209
:10176000DF91CF910895CF92DF92EF92FF920F9386
:101770001F93815B9F4F0E9422441F910F91FF9006
:10178000EF90DF90CF900895CF92DF92EF92FF928B
:101790000F931F9385960E9422441F910F91FF90F3
:1017A000EF90DF90CF9008952F923F924F925F92EB
:1017B0006F927F928F929F92AF92BF92CF92DF9261
:1017C000EF92FF920F931F93DF93CF93CDB7DEB7C6
:1017D000A0970FB6F894DEBF0FBECDBF4C012E010F
:1017E0000894411C511CC2010E948A402DB73EB78B
:1017F0002C5030400FB6F8943EBF0FBE2DBFE9E02D
:10180000AE2EB12CAC0EBD1EADB7BEB711967CE0AE
:10181000672E712C680C791CF3018CE001900D92FD
:101820008150E1F7C501F401C080D180E280F380EE
:1018300004811581268137814085518562857385B4
:101840000E949840D201F50188E001900D928150EC
:10185000E1F72DB73EB7245F3F4F0FB6F8943EBF78
:101860000FBE2DBFF40181A192A18130910521F11C
:10187000823091050CF4F8C18230910509F446C11B
:10188000039709F4A9C0A0960FB6F894DEBF0FBE67
:10189000CDBFCF91DF911F910F91FF90EF90DF901F
:1018A000CF90BF90AF909F908F907F906F905F9000
:1018B0004F903F902F9008956FE4A62EB12CA80C66
:1018C000B91CCE014196F401C080D180E280F38042
:1018D0000481158126813781408551856285738514
:1018E0000E94E341C20109891A892B893C894D89EB
:1018F0005E896F89788D0E94FE40AB01BC01C501F5
:101900000E941D452DE730E0820E931E0E94115A61
:10191000F4017183608323E83FEF820E931EF4018C
:1019200083A194A1019709F450C1C2010E94804192
:101930007B018C01C3010E945E3F9B01AC01C80189
:10194000B7010E94444120E030E040E050E00E94B6
:101950005B5B18160CF0FFC0C2010E9480417B0146
:101960008C01C3010E945E3F9B01AC01C801B7011D
:101970000E9444412BED3FE049EC5FE30E945B5B3A
:1019800018160CF0FFC0C2010E94804155E2C52E1E
:10199000D12CC80CD91C2BED3FE049E450E40E9447
:1019A0001659AB01BC01C6010E941C44F40163A19D
:1019B00074A1C5010E940745882309F464CFF4018E
:1019C00063A174A1C6010E940745882309F45BCF77
:1019D000C4010E94870B57CF2FE4222E312C280CF4
:1019E000391CCE014996F401C080D180E280F38099
:1019F00004811581268137814085518562857385F3
:101A00000E94E341C201098D1A8D2B8D3C8D4D8DB5
:101A10005E8D6F8D78A10E94FE40AB01BC01C101BB
:101A20000E941D452DE730E0820E931E0E94115A40
:101A3000F4017183608323E83FEF820E931EF4016B
:101A400083A194A1019709F4DAC0C3010E945E3F0B
:101A50007B018C01C4010E945E3F9B01AC01C80167
:101A6000B7010E9444415B016C01C2010E948041A8
:101A70007B018C01C3010E945E3F9B01AC01C80148
:101A8000B7010E9444419B01AC01D7FAD094D7F82A
:101A9000D0945058CA01B9010E9416599B01AC015B
:101AA000C601B5010E94165920E030E040E050E048
:101AB0000E9444417B018C0185E2C82ED12CC80CC8
:101AC000D91CC6010E9444449B01AC01C801B70166
:101AD0000E941659AB01BC01C6010E941D45EFE7EB
:101AE000F0E08E0E9F1E0E94115AF40171836083F4
:101AF00021E83FEF820E931EF40163A174A1C1019E
:101B00000E940745882309F4BECE59CF84010B5D9E
:101B10001F4FC4010E945E3FAB01BC01C8010E947F
:101B20001D452FE730E0820E931E0E94115AF401EA
:101B300071836083129212924F0123E83FEF820E6D
:101B4000931EF40163A174A1C8010E940745882374
:101B500009F499CE3DCFC2010E9480417B018C01E6
:101B6000C3010E945E3F9B01AC01C801B7010E9406
:101B700044412BED3FE049EC5FEB0E94A2598823E2
:101B80000CF401CF45E2C42ED12CC80CD91CC201E3
:101B90000E948041AB01BC01C6010E941C44C401EB
:101BA0000E945E3FAB01BC01C6010E941D452FE7AC
:101BB00030E0820E931E0E94115AF40171836083FB
:101BC00021E83FEF820E931EF1CE35E2C32ED12CD9
:101BD000C80CD91CC3010E945E3FAB01BC01C60109
:101BE0000E941C44C4010E945E3FAB01BC01C601BF
:101BF0000E941D45EFE7F0E08E0E9F1EDCCFC30173
:101C00000E945E3F7B018C01C4010E945E3F9B01EC
:101C1000AC01C801B7010E944441905820E030E077
:101C200040E050E00E94165920E030E040E050E0F3
:101C30000E9444417B018C0195E2C92ED12CC80C35
:101C4000D91CC6010E9444449B01AC01C801B701E4
:101C50000E941659AB01BC01C6010E941D452FE729
:101C600030E0820E931E3FCF892B09F00CCE2FE778
:101C700030E0820E931EF4011182108212921292B1
:101C800002CE2F923F924F925F926F927F928F92ED
:101C90009F92AF92BF92CF92DF92EF92FF920F93FB
:101CA0001F93DF93CF93CDB7DEB764970FB6F89449
:101CB000DEBF0FBECDBF4C01A986BA86CB86DC86BF
:101CC000ED86FE860F87188B298B3A8B4B8B5C8BAE
:101CD00083E890E0880E991EF401118210828DE74E
:101CE0009FEF880E991EF40172A361A382E090E039
:101CF00094A383A3B5E24B2E512C480C591CC2016E
:101D00000E943C44AFE46A2E712C680C791CC3011C
:101D10000E943C44F40181A192A18130910509F413
:101D200053C0823091050CF4BFC082309105D9F0C8
:101D3000039771F164960FB6F894DEBF0FBECDBF66
:101D4000CF91DF911F910F91FF90EF90DF90CF9097
:101D5000BF90AF909F908F907F906F905F904F90CB
:101D60003F902F9008958401045F1F4FCE01099684
:101D70000E945E3FAB01BC01C8010E94663FC801E2
:101D80000E945E3FAB01BC01C2010E941C44D2CF45
:101D90008401045F1F4FD801FE0139968CE0019049
:101DA0000D928150E1F781EB99E166ED72E00E94BE
:101DB0007053C8010E94C142C30140E050E060E09E
:101DC00070E00E941C44DBCFFCE02F2E312C280C4D
:101DD000391CCE0109960E944E3FAB01BC01C101E6
:101DE0000E941D4281EB99E166EB72E00E94705304
:101DF000C1010E94C1428DB79EB70C970FB6F894EF
:101E00009EBF0FBE8DBFADB7BEB71196F1018CE07E
:101E100001900D928150E1F75E010894A11CB11C64
:101E2000C501F401C080D180E280F3800481158176
:101E30002681378140855185628573850E9498404F
:101E40008401085E1F4FD801F50188E001900D92D2
:101E50008150E1F78DB79EB70C960FB6F8949EBFF0
:101E60000FBE8DBFCE0109960E944E3F20E030E0AC
:101E700040E050E00E94A25988231CF4C8010E944F
:101E8000EA40C8010E949442C30140E050E060E093
:101E900070E00E941C44C1010E945E3FAB01BC0186
:101EA000C2010E941C4446CF892B09F043CF81EB2D
:101EB00099E161EB72E00E948F533CCF6F927F9269
:101EC0008F929F92AF92BF92CF92DF92EF92FF924A
:101ED0000F931F93DF93CF93CDB7DEB7EC970FB679
:101EE000F894DEBF0FBECDBF5C014E010894811C8B
:101EF000911CC4010E948A408DB79EB70C970FB603
:101F0000F8949EBF0FBE8DBF99E0692E712C6C0EA8
:101F10007D1EADB7BEB71196F5013C968CE00190E1
:101F20000D928150E1F7C301F501C080D180E280BC
:101F3000F380048115812681378140855185628532
:101F400073850E949840D401F30188E001900D92BE
:101F50008150E1F78DB79EB70C960FB6F8949EBFEF
:101F60000FBE8DBFCE014196F501C080D180E280C9
:101F7000F3800481158126813781408551856285F2
:101F800073850E94E341C40109891A892B893C8920
:101F90004D895E896F89788D0E94FE4020E030E097
:101FA00040E050E00E94A25988230CF4B2C081E9BD
:101FB000882E912C8A0C9B1CC401F501C080D18015
:101FC000E280F38004811581268137814085518527
:101FD000628573850E948446882309F461C00CEAF7
:101FE000602E712C6A0C7B1CC301F501C080D1806E
:101FF000E280F380048115812681378140855185F7
:10200000628573850E9484468823A1F0CE0149969B
:10201000B3010E94E645C401C98CDA8CEB8CFC8CC0
:102020000D8D1E8D2F8D38A149A15AA16BA17CA1C8
:102030000E94F145C5010E942D0BC4010E94454636
:10204000CE0185960E94AA3FC50160E070E0ADA078
:10205000BEA0CFA0D8A4E9A4FAA40BA51CA52DA5C9
:102060003EA54FA558A90E94410E81EB99E168E079
:1020700073E00E948F53EC960FB6F894DEBF0FBE4C
:10208000CDBFCF91DF911F910F91FF90EF90DF9027
:10209000CF90BF90AF909F908F907F906F9008955A
:1020A0001CEA812E912C8A0C9B1CC401F501C08076
:1020B000D180E280F38004811581268137814085BB
:1020C0005185628573850E9484468823A1F2C501EB
:1020D0000E942D0BC4010E944546CE01C1960E946C
:1020E000AA3FC50160E070E0A9A8BAA8CBA8DCA807
:1020F000EDA8FEA80FA918AD29AD3AAD4BAD5CAD6A
:102100000E94410E81EB99E16EE173E00E948F53D2
:10211000B2CF81EB99E166EF72E00E948F53ABCFB3
:102120004F925F926F927F928F929F92AF92BF92E7
:10213000CF92DF92EF92FF920F931F93DF93CF9393
:10214000CDB7DEB764970FB6F894DEBF0FBECDBF34
:102150003C0135E8432E512C480E591EC201F301B3
:10216000C080D180E280F38004811581268137818F
:1021700040855185628573850F2EFAE98F2EF9E926
:102180009F2EF9E9AF2EFEE3BF2EF02D0E94D63F21
:102190004DB75EB74C5050400FB6F8945EBF0FBEBF
:1021A0004DBFADB7BEB71196F2018CE001900D9214
:1021B0008150E1F75E010894A11CB11CC501F30137
:1021C000C080D180E280F38004811581268137812F
:1021D00040855185628573850E9498404FE750E0A5
:1021E000640E751EF3012081318141E85FEF640EBA
:1021F000751E37FD17C18DE790E0680E791EF3015B
:102200008081918143E85FEF640E751E97FD06C1E2
:10221000280F391F8DB79EB70C960FB6F8949EBF46
:102220000FBE8DBF2233310594F0C5010E94664276
:1022300020E030E040E251E40E94A2598823F4F00B
:1022400043E850E0640E751EF3011182108264961B
:102250000FB6F894DEBF0FBECDBFCF91DF911F91B7
:102260000F91FF90EF90DF90CF90BF90AF909F9035
:102270008F907F906F905F904F900895D62CC72CD1
:10228000C3010E945E3F7B018C01C2010E945E3F40
:102290009B01AC01C801B7010E94155920E030E054
:1022A00040E050E00E945B5B18160CF08BC0C3014D
:1022B0000E945E3F7B018C01C2010E945E3F9B0138
:1022C000AC01C801B7010E9415592DEC3CEC4CE45F
:1022D0005DE30E94A25987FFB3CF23E8822E912CA1
:1022E000860C971CF40180819181019691838083F3
:1022F00081EB99E164E373E00E9470538D2D9C2D76
:102300000E945E3F7B018C01C2010E945E3F9B01E7
:10231000AC01C801B7010E94155920E030E040E04F
:1023200050E00E945B5B18160CF064C08D2D9C2D54
:102330000E945E3F7B018C01C2010E945E3F9B01B7
:10234000AC01C801B7010E94155920E030E048EC0B
:1023500052E40E94665BA62F482F692F81EB99E11A
:102360002A2F372FE42FF62FA901BF0122E030E0FA
:102370000E94DC54F4018081918145970CF467CF71
:10238000C3010E942D0B81EB99E164E473E00E948C
:102390008F53CE0109960E94AA3FC30160E070E00E
:1023A000A984BA84CB84DC84ED84FE840F851889EB
:1023B00029893A894B895C890E94410EF401118276
:1023C000108245CFC3010E945E3F7B018C01C20198
:1023D0000E945E3F9B01AC01C801B7010E941559E4
:1023E0002DEC3CEC4CE45DEB0E945B5B18160CF0B2
:1023F00027CF73CF8D2D9C2D0E945E3F7B018C01DA
:10240000C2010E945E3F9B01AC01C801B7010E945E
:10241000155920E030E048EC52EC9BCF9095819527
:102420009F4FF6CE309521953F4FE5CEAF92BF92AC
:10243000CF92DF92EF92FF920F931F93DF93CF9390
:10244000CDB7DEB72C970FB6F894DEBF0FBECDBF69
:102450005C01C982DA82EB82FC820D831E832F83AA
:10246000388749875A876B877C87DC01FE01319664
:102470008CE001900D928150E1F7C5010E94D40BD0
:10248000C5010E94570AF50181A192A181309105F1
:10249000B9F0892B89F42C960FB6F894DEBF0FBEE5
:1024A000CDBFCF91DF911F910F91FF90EF90DF9003
:1024B000CF90BF90AF900895C5010E949010EBCFD0
:1024C00080A18823C9F3C5010E945E0FF50181A197
:1024D00092A1DFCFAF92BF92CF92DF92EF92FF92A5
:1024E0000F931F938C016130710509F469C062304C
:1024F0007105C1F1672B69F581EB99E164E573E042
:102500000E948F536FE4A62EB12CA00EB11EC50100
:1025100064E670E00E9412440B5D1F4FC80164E640
:1025200070E00E941244C80140E050E068E473E4A7
:1025300000E010E020E030E0680179010E942244D0
:10254000C50140E050E060EC7FE3970186010E9406
:1025500022441F910F91FF90EF90DF90CF90BF909A
:10256000AF90089581EB99E162E773E00E948F5389
:102570004FE4A42EB12CA00EB11EC5016AEF70E08D
:102580000E9412440B5D1F4FC8016AEF70E00E9469
:102590001244C80140E050E068EC72E400E010E052
:1025A00020E030E0680179010E942244C50140E04A
:1025B00050E060E07FE3970186010E942244C9CF8A
:1025C00081EB99E162E673E00E948F535FE4A52EF0
:1025D000B12CA00EB11EC50166E970E00E94124444
:1025E0000B5D1F4FC80166E970E00E941244C801EC
:1025F00040E050E066E173E400E010E020E030E00D
:10260000680179010E942244C50140E050E060E881
:102610007FE3970186010E9422449BCFAF92BF9235
:10262000CF92DF92EF92FF920F931F93DF93CF939E
:10263000CDB7DEB72C970FB6F894DEBF0FBECDBF77
:102640005C0160E070E00E946A12CE01019640E0F9
:1026500050E06AE774EC00E010E020E030E0680150
:1026600079010E94BC3FC50161E070E0A980BA8099
:10267000CB80DC80ED80FE800F81188529853A852E
:102680004B855C850E94410E2C960FB6F894DEBFF8
:102690000FBECDBFCF91DF911F910F91FF90EF90B3
:1026A000DF90CF90BF90AF9008958F929F92AF929E
:1026B000BF92CF92DF92EF92FF920F931F93DF931F
:1026C000CF93CDB7DEB768970FB6F894DEBF0FBED5
:1026D000CDBF4C010E94AA3FC4010C960E94AA3FA4
:1026E000C40148960E948A40F40110A212A211A2CD
:1026F00083E090E094A383A38DB79EB708970FB6AD
:10270000F8949EBF0FBE8DBF87EA97EEAEE0BEE3A2
:10271000EDB7FEB781839283A383B48387EA97EEF4
:10272000AEE8BDE385839683A783B087C401859611
:1027300061E020E030E048E453E40F2EF0E0EF2EBB
:10274000F0E0FF2EF0E00F2FF0E01F2FF02D5701EB
:1027500068010E94C34380E090E0A0EAB2E4EDB7D4
:10276000FEB781839283A383B48380E090E0A0EFDF
:10277000B1E485839683A783B087C401815B9F4FB3
:1027800060E020E030E040EC5FE30E94C34389E773
:1027900090E0880E991EF401119211924F0111825E
:1027A000108286E090E0880E991E81E0F40181930A
:1027B00081934F01118210828DE79FEF880E991E41
:1027C000EDB7FEB738960FB6F894FEBF0FBEEDBF5B
:1027D000C4018B579F4F0E94AA3FCE01019640E053
:1027E00050E068EC72E400E010E02FE133E47601A1
:1027F00065010E94BC3FC4018F569F4F6CE370E09F
:10280000A980BA80CB80DC80ED80FE800F811885A6
:1028100029853A854B855C850E940E48CE010D9630
:1028200040E050E068EC72E400E010E02FE133ECAF
:102830000F2EF0E0CF2EF0E0DF2EF0E0EF2EF0E0F4
:10284000FF2EF02D0E94BC3FC40184559F4F6DE3C5
:1028500070E0AD84BE84CF84D888E988FA880B897B
:102860001C892D893E894F89588D0E940E48C401CC
:1028700060E070E00E946A1268960FB6F894DEBFBE
:102880000FBECDBFCF91DF911F910F91FF90EF90C1
:10289000DF90CF90BF90AF909F908F90089585E08C
:1028A0000E94DD580197A1F08091CE169091CF162D
:1028B000A091D016B091D1160197A109B1098093CA
:1028C000CE169093CF16A093D016B093D11608953C
:1028D0008091CE169091CF16A091D016B091D116BE
:1028E0000196A11DB11D8093CE169093CF16A09393
:1028F000D016B093D116089584E00E94DD58019758
:10290000A1F08091CA169091CB16A091CC16B091EF
:10291000CD160196A11DB11D8093CA169093CB16BA
:10292000A093CC16B093CD1608958091CA169091BD
:10293000CB16A091CC16B091CD160197A109B10983
:102940008093CA169093CB16A093CC16B093CD1655
:10295000089587E10E94DD58019739F18091C616EC
:102960009091C716A091C816B091C9160197A109F8
:10297000B1098093C6169093C716A093C816B0935A
:10298000C9168091D6169091D716A091D816B091FD
:10299000D9160197A109B1098093D6169093D7163D
:1029A000A093D816B093D91608958091C616909129
:1029B000C716A091C816B091C9160196A11DB11DE8
:1029C0008093C6169093C716A093C816B093C916E5
:1029D0008091D6169091D716A091D816B091D9169D
:1029E0000196A11DB11D8093D6169093D716A09382
:1029F000D816B093D916089586E10E94DD58019744
:102A000039F18091C2169091C316A091C416B0916D
:102A1000C5160196A11DB11D8093C2169093C316D1
:102A2000A093C416B093C5168091D2169091D31678
:102A3000A091D416B091D5160196A11DB11D809319
:102A4000D2169093D316A093D416B093D5160895AA
:102A50008091C2169091C316A091C416B091C5166C
:102A60000197A109B1098093C2169093C316A09350
:102A7000C416B093C5168091D2169091D316A0912A
:102A8000D416B091D5160197A109B1098093D21639
:102A90009093D316A093D416B093D5160895FC0145
:102AA000EA5BFF4F608308959C01235E3F4FC9019D
:102AB00008959C01205C3F4FC90108959C0129574E
:102AC0003F4FC90108959C0122533F4FC90108950A
:102AD0009C012F523F4FC901089508959C012D5D1F
:102AE0003F4FC90108959C01235C3F4FC9010895E0
:102AF000EF92FF920F931F938C0181EBE82E89E1F7
:102B0000F82EC70160E873E00E948F53C70167E9A0
:102B100073E00E947053F80160897189C7014AE02F
:102B200050E00E9451531F910F91FF90EF90089534
:102B3000EF92FF920F931F93CF93DF93FC01EC0171
:102B4000CD5BDF4F8881882341F480E0DF91CF9116
:102B50001F910F91FF90EF900895FF96E080F18014
:102B6000028113810E944057E616F70608071907ED
:102B700060F7188281E0DF91CF911F910F91FF9054
:102B8000EF900895CF92DF92EF92FF920F931F93F1
:102B90006C017B010E9440572FE330E0C20ED31E30
:102BA0000027F7FC0095102FE60EF71E081F191FCF
:102BB000F601E192F1920193119381E080831F91DC
:102BC0000F91FF90EF90DF90CF900895EF92FF92DA
:102BD0000F931F93CF93DF93EC018C85882341F4EF
:102BE00080E0DF91CF911F910F91FF90EF900895BA
:102BF000E884F9840A851B850E944057E616F7068B
:102C00000807190768F71C8681E0DF91CF911F91B3
:102C10000F91FF90EF900895CF92DF92EF92FF9285
:102C20000F931F936C017B010E9440570027F7FC14
:102C30000095102FE60EF71E081F191FF601E086FB
:102C4000F1860287138781E084871F910F91FF909F
:102C5000EF90DF90CF900895EF92FF920F931F9324
:102C6000CF93DF93EC018F85882341F480E0DF91DF
:102C7000CF911F910F91FF90EF900895EB84FC840A
:102C80000D851E850E944057E616F70608071907AE
:102C900068F71F8681E0DF91CF911F910F91FF9020
:102CA000EF900895CF92DF92EF92FF920F931F93D0
:102CB0006C017B010E9440570027F7FC0095102F04
:102CC000E60EF71E081F191FF601E386F486058736
:102CD000168781E0878781EB99E166EA73E00E94BD
:102CE00070531F910F91FF90EF90DF90CF90089558
:102CF000AF92BF92CF92DF92EF92FF920F931F930A
:102D0000CF93DF93EC010E9440575B016C01EC8490
:102D1000FD840E851F85CE010E948143882359F4CE
:102D2000DF91CF911F910F91FF90EF90DF90CF90A7
:102D3000BF90AF900895CE010E94A043B5016E19D7
:102D40007F09882777FD8095982F0E94445A7B0140
:102D50008C0120E030E040E050E00E945B5B181600
:102D6000FCF68889882339F56091DE167091DF16AC
:102D70008091E0169091E1160E94445A20E030E0E4
:102D800048EC52E40E94665BA80197010E94A95991
:102D9000688779878A879B871092DE161092DF16E4
:102DA0001092E0161092E1160E9440576C877D87C2
:102DB0008E879F87B5CF6091DA167091DB16809170
:102DC000DC169091DD160E94445A20E030E048EC79
:102DD00052E40E94665BA80197010E94A959688786
:102DE00079878A879B871092DA161092DB161092E9
:102DF000DC161092DD16D8CFFF920F931F938C0133
:102E0000F62E64E670E00E94AD43F801F08A1F914F
:102E10000F91FF9008956CED75E00E94D6480895DB
:102E2000FC018485882331F4CF016CE677E00E94B1
:102E3000D6480895CF016CE474E00E94D648089506
:102E4000FC018485882331F4CF016CE474E00E9496
:102E5000D6480895CF016CE677E00E94D6480895E1
:102E6000FC018381882331F4CF016AEF75E00E9471
:102E7000D6480895CF0166EF74E00E94D6480895C1
:102E8000FC018381882331F4CF0168EB76E00E9456
:102E9000D6480895CF0166EB73E00E94D6480895A6
:102EA000FC018381882331F4CF016CE974E00E9436
:102EB000D6480895CF0160E476E00E94D648089590
:102EC000FC01638174810E94D6480895FC0180E270
:102ED00093E094838383CF0160E273E00E94D6483D
:102EE000089564E378E00E94D64808956FE077E0A3
:102EF0000E94D648089560E476E00E94D64808957E
:102F00006CEB72E00E94D64808956CED75E00E946B
:102F1000D648089568E978E00E94D6480895CF938E
:102F2000DF93EC01888999898430910509F488C080
:102F300085309105FCF08630910509F4A4C08630F7
:102F4000910574F18730910509F452C0089729F56D
:102F5000CE0160ED77E00E945216CE0108960E94E5
:102F6000801781EB99E162E774E00E948F53DF9153
:102F7000CF9108958130910509F44CC082309105BC
:102F80000CF18230910509F46DC0039731F481EBA7
:102F900099E169E074E00E948F53DF91CF91089529
:102FA000CE016CE271E00E945216CE0108960E949A
:102FB000851781EB99E16CE374E00E948F53DF91F8
:102FC000CF910895892B49F7CE0105960E94761777
:102FD000CE010E947117CE0108960E94851781EBE1
:102FE00099E164EB73E00E948F53DF91CF910895D4
:102FF000CE0160ED77E00E945216CE0108960E9445
:10300000851781EB99E162E774E00E948F53DF91AD
:10301000CF910895CE0160E273E00E945216CE0176
:1030200005960E947B17CE0108960E948A1781EBB5
:1030300099E163ED73E00E948F53DF91CF91089582
:10304000CE0164EF71E00E945216CE0105960E94F7
:10305000761781EB99E162E274E00E948F53DF9171
:10306000CF910895CE0164EF71E00E945216CE0117
:103070000E94661781EB99E161EF73E00E948F5324
:10308000DF91CF910895CE0160ED77E00E94521656
:10309000CE0108960E94801781EB99E166E574E005
:1030A0000E948F53DF91CF9108950F931F93CF9379
:1030B000DF938C01EB0181EB99E167E974E00E94F9
:1030C0008F5381EB99E168E974E00E94705381EBC2
:1030D00099E1BE014AE050E00E945153CE010197B0
:1030E000029708F481C0209709F458C081EB99E158
:1030F0006FEF74E00E947053F8016089718981EB71
:1031000099E14AE050E00E945153F8018089918989
:103110008430910509F485C08530910564F18630CD
:10312000910509F490C0863091050CF44CC08730AD
:10313000910509F46DC0089761F5CD2B51F5F801A3
:10314000118A108A81EB99E168E375E00E9470535F
:10315000F8016089718981EB99E14AE050E00E94B1
:103160005153F8011786C8010E948F17DF91CF9144
:103170001F910F9108958130910509F45BC0823051
:1031800091054CF18230910509F47BC0039709F455
:1031900063C0DF91CF911F910F91089581EB99E169
:1031A00066EB74E00E948F5381EB99E16DED74E062
:1031B0000E94705381EB99E160E070E04AE050E0DA
:1031C0000E94515393CF229721F786E090E0F801B7
:1031D000918B808BB7CF892BE1F6C130D105C9F631
:1031E000F801D18BC08BAECF81EB99E166EB74E037
:1031F0000E948F5381EB99E168EB74E00E94705359
:1032000081EB99E1BE014AE050E00E9451536BCF3F
:10321000CD2B09F0BECF88E090E0F801918B808B38
:1032200091CFCD2B09F0B5CF85E090E0F801918BDF
:10323000808B88CFCD2B09F0ACCF82E090E0F801F5
:10324000918B808B7FCFCD2B09F0A3CF87E090E0CF
:10325000F801918B808B76CF239709F09ACF84E089
:1032600090E0F801918B808B81EB99E16FE175E043
:103270000E948F53F80180899189039709F062CFEA
:1032800088CFCD2B09F085CF83E090E0F801918BBA
:10329000808B58CF0F931F93CF93DF938C01EC015A
:1032A0006296CE010E948143882329F4DF91CF9159
:1032B0001F910F910895CE010E94A043C8010E9462
:1032C0002C168823F9F4F80180899189039771F706
:1032D00083819481F8E084339F07D1F00A96F80146
:1032E00094838383855398402CF084E398E0F8011D
:1032F00094838383C8010E946017DF91CF911F914F
:103300000F910895C80160E070E00E945518DBCF6E
:10331000C80163E070E00E945518C8CF6AE377E007
:103320000E94D648089564E276E00E94D648089547
:10333000FC018081882339F4CF0101966AE678E0A8
:103340000E94D6480895CF0101966DE574E00E9471
:10335000D6480895FC018081882339F4CF01019675
:1033600065E977E00E94D6480895CF01019661EEA5
:1033700074E00E94D6480895FC018081882339F4C6
:10338000CF01019661EA75E00E94D6480895CF0109
:10339000019668E677E00E94D6480895FC01808196
:1033A000882339F4CF01019663E974E00E94D6487E
:1033B0000895CF0101966AE177E00E94D64808950A
:1033C000FC018081882339F4CF01019669E477E01C
:1033D0000E94D6480895CF0101966DE674E00E94E0
:1033E000D6480895CF93DF93EC01CC5BDF4FE881A3
:1033F000F981C454D040EF3DF105E0F4EE58FF4FA1
:10340000EE0FFF1F0590F491E02D1994CA5BDF4F7A
:103410008881C654D040882309F490C182E090E0AE
:10342000988B8F8781E08E8781EB99E16CEE77E056
:103430000E948F53DF91CF910895CE0168EC70E028
:103440000E94C215CE0143960E94BC1981EB99E1FE
:1034500061E975E00E948F53EDCFCE0168EC70E01A
:103460000E94C215CE0101960E944017CE014396DC
:103470000E949819CE0147960E94CE1981EB99E1DE
:103480006EEC77E00E948F53D5CFCE0168EC70E0F0
:103490000E94C215CE0143960E94BC19CE014796E8
:1034A0000E94E01981EB99E16DEA77E00E948F5369
:1034B000C1CFCE0101960E944017188A1F8681E075
:1034C0008E8781EB99E16CE877E00E948F53B2CF51
:1034D000CE0168EC70E00E94C215CE0101960E94F8
:1034E000501781EB99E16DE677E00E948F53A2CFF0
:1034F0008881882309F429C181EB99E16EE177E0A5
:103500000E948F5381EB99E16EE477E00E948F5324
:1035100091CF82E090E0988B8F8781E08E8781EB5E
:1035200099E16DEF76E00E948F5384CFCE0168EC75
:1035300070E00E94C215CE0101960E94401781EBF7
:1035400099E16CED76E00E948F5374CF81E090E0BA
:10355000988B8F8781E08E8781EB99E16BEB76E02A
:103560000E948F5367CFCE0168EC70E00E94C215B5
:10357000CE0143960E949819CE0147960E94CE191B
:10358000CE0101960E94301781EB99E16AE976E05D
:103590000E948F534FCFCE0168EC70E00E94C2159D
:1035A000CE0143960E949819CE0147960E94CE19EB
:1035B00081EB99E16DE776E00E948F533BCFCE011E
:1035C00068EC70E00E94C21581EB99E162E676E05A
:1035D0000E948F532FCFCE0168EC70E00E94C2157D
:1035E000CE0143960E94BC19CE0147960E94E01975
:1035F00081EB99E16BE476E00E948F531BCF188A30
:103600001F8681E08E8781EB99E162E376E00E947C
:103610008F5310CFCE0168EC70E00E94C215CE012E
:1036200001960E94401781EB99E169E176E00E94E2
:103630008F5300CF81E090E0988B8F8781E08E8759
:1036400081EB99E164E076E00E948F53F3CECE01E6
:1036500068EC70E00E94C215CE0101960E943017FE
:10366000CE0143960E94AA1981EB99E16DEE75E0B7
:103670000E948F53DFCECE0168EC70E00E94C2152D
:10368000CE0101960E94301781EB99E165ED75E05E
:103690000E948F53CFCECE0162E370E00E94C2152C
:1036A00081EB99E16BEB75E00E948F53C3CECE01A5
:1036B00062E370E00E94C21581EB99E167EA75E070
:1036C0000E948F53B7CECE0164E670E00E94C2150F
:1036D000CE0147960E94E01981EB99E16FE775E012
:1036E0000E948F53A7CECE0168EC70E00E94C215F5
:1036F000CE0143960E949819CE0147960E94CE199A
:1037000081EB99E167E675E00E948F5393CECE017D
:1037100001960E944017188A1F8681E08E87CE018D
:1037200043960E94BC19CE0147960E94E01981EB96
:1037300099E164E575E00E948F537CCE81E090E0D2
:10374000988B8F8781E08E876FCE81EB99E166E35E
:1037500077E00E948F53D6CECF92DF92EF92FF9206
:103760000F931F93CF93DF937C01EB0181EB99E1E2
:1037700067E974E00E948F5381EB99E16AE078E099
:103780000E94705381EB99E1BE014AE050E00E9433
:103790005153C130D10561F0C330D10549F0C43077
:1037A000D10531F0C530D10519F0C630D10599F4F5
:1037B00081EB99E166EB74E00E948F5381EB99E114
:1037C0006DE278E00E94705381EB99E1BE014AE01E
:1037D00050E00E945153209709F460C0C730D105D2
:1037E00009F474C081EB99E16BEB78E00E947053AF
:1037F00087010C5B1F4FF8016081718181EB99E1BA
:103800004AE050E00E94515381EB99E160EE78E08C
:103810000E947053F70161AD72AD81EB99E14AE00E
:1038200050E00E945153F801C080D180F601EF3D75
:10383000F10558F5EF5AFE4FEE0FFF1F0590F4917A
:10384000E02D1994CD2B09F581E190E0F8019183E9
:10385000808381EB99E163ED79E00E947053F80178
:103860006081718181EB99E14AE050E00E945153FF
:1038700023E430E0E20EF31EF70110822DEB3FEF60
:10388000E20EF31EC7010E94F219DF91CF911F9142
:103890000F91FF90EF90DF90CF90089581EB99E129
:1038A00066EB74E00E948F5381EB99E167E578E065
:1038B0000E94705381EB99E160E070E04AE050E0D3
:1038C0000E9451538FCF279701F7BECF81EB99E12B
:1038D00066EB74E00E948F5381EB99E169E878E030
:1038E0000E94705381EB99E167E070E04AE050E09C
:1038F0000E94515377CFCD2B41F683E090E0F80141
:1039000091838083A6CFCD2B09F0BFCF86E190E0D5
:10391000F801918380839DCFCD2B09F0B6CFF801BC
:1039200011821082F7018081882309F41BC181EB89
:1039300099E169EA79E00E948F53F80180819181D1
:10394000C816D90609F085CFA0CF279709F09DCFDB
:1039500084E190E0F801918380837BCF269709F082
:1039600094CF83E190E0F80191838083F70112AE58
:1039700011AE8081882309F4FFC081EB99E161E8F1
:1039800079E00E948F53F80180819181D9CF2597EA
:1039900009F07BCF82E190E0F8019183808359CFD9
:1039A000CD2B09F072CF80E190E0F8019183808304
:1039B00050CF279709F069CF8FE090E0F80191830D
:1039C000808347CFCD2B09F060CF8EE090E0F801E7
:1039D000918380833ECFCD2B09F057CFF70181AD86
:1039E00092AD04970CF4B8C026E430E0E20EF31E6A
:1039F000F70180812AEB3FEFE20EF31E882309F4E2
:103A0000DDC08DE090E0F8019183808322CFCD2B43
:103A100009F03BCFF80111821082F70180818823E1
:103A200009F490C081EB99E169E579E00E948F5338
:103A3000F8018081918184CF279709F026CF8AE011
:103A400090E0F8019183808304CFCD2B09F01DCF46
:103A500089E090E0F80191838083FBCE279709F0FD
:103A600014CF88E090E0F80191838083F2CECD2BD3
:103A700009F00BCF87E090E0F80191838083E9CED5
:103A8000CD2B09F002CFF80111821082E2CECD2BAE
:103A900009F0FBCEF70181AD92AD019692AF81AFF7
:103AA00026E030E0F8013183208304970CF4D1CE76
:103AB00085E090E091838083CCCECD2B09F0E5CEDC
:103AC000C7018C960E949648882309F466C084E05A
:103AD00090E0F80191838083BCCECD2B09F0D5CE48
:103AE0008EED90E0F80191838083B3CEC230D10592
:103AF00051F2239709F0C9CE82E090E0F80191835A
:103B00008083A7CEC130D10531F02497A9F0F80108
:103B10008081918115CFF801D183C083F701808125
:103B20008823A1F181EB99E163EF78E00E948F5344
:103B3000F8018081918104CF8BE090E0F8019183BE
:103B40008083FECE81EB99E16DE679E00E948F5390
:103B5000F80180819181F4CE85E190E0F8019183B4
:103B6000808377CE81EB99E16EEB79E00E948F53F1
:103B7000F80180819181E4CE81EB99E165E979E0FA
:103B80000E948F53F80180819181DACE81EB99E117
:103B90006EE079E00E948F53B8CFF8011182108255
:103BA000F7018081882381F081EB99E169E279E076
:103BB0000E948F53F80180819181C2CE8CE090E009
:103BC000F8019183808345CE81EB99E161E479E04E
:103BD0000E948F539CCF6CED75E00E94D6480895EB
:103BE0006CED75E00E94D648089564ED74E00E9483
:103BF000D648089568EE73E00E94D648089563E8B9
:103C000075E00E94D64808950F931F938C01039688
:103C100064E175E00E94D648C80164E175E00E9445
:103C2000D6481F910F9108950F931F938C0103960F
:103C300068EE73E00E94D648C80168EE73E00E9407
:103C4000D6481F910F910895FC018081882339F493
:103C5000CF01019664EC77E00E94D6480895CF0129
:103C600001966CE875E00E94D6480895FC018081B9
:103C7000882339F4CF0101966DE674E00E94D6489E
:103C80000895CF01019661E478E00E94D648089536
:103C9000CF93DF93EC018D859E858430910509F4E7
:103CA0008EC085309105FCF08630910509F4ABC0DB
:103CB00086309105BCF18730910509F45CC0089706
:103CC00071F5CE0164E670E00E940C16CE014796B5
:103CD0000E94141E81EB99E166EF7AE00E948F53F7
:103CE000DF91CF9108958130910509F456C082305B
:103CF000910554F18230910509F473C0039779F46A
:103D0000CE0168EC70E00E940C16CE0147960E942E
:103D1000041E81EB99E16AE47AE00E948F53DF91FF
:103D2000CF910895CE0164E670E00E940C16CE019A
:103D300043960E94361E81EB99E16AE87AE00E9480
:103D40008F53DF91CF910895892B49F7CE01479684
:103D50000E94141ECE0143960E94361ECE010F967D
:103D60000E94361E81EB99E167EF79E00E948F5344
:103D7000DF91CF910895CE0164E670E00E940C16A9
:103D8000CE010F960E94361E81EB99E162ED7AE03A
:103D90000E948F53DF91CF910895CE0168EE73E0BA
:103DA0000E940C16CE010F960E94241E81EB99E111
:103DB00060E17AE00E948F53DF91CF910895CE01A8
:103DC00060ED77E00E940C16CE0143960E94241EFF
:103DD00081EB99E166E67AE00E948F53DF91CF9103
:103DE0000895CE0168EE73E00E940C16CE01439652
:103DF0000E94241E81EB99E16DE27AE00E948F53CC
:103E0000DF91CF910895CE0160ED77E00E940C160E
:103E1000CE010F960E94241E81EB99E16EEA7AE0B2
:103E20000E948F53DF91CF910895EF92FF920F93ED
:103E30001F93CF93DF937C01EB0181EB99E167E95D
:103E400074E00E948F5381EB99E160E17BE00E9476
:103E5000705381EB99E1BE014AE050E00E9451535A
:103E6000CE010197039708F472C0209709F45AC055
:103E700081EB99E164E87BE00E947053F70165856E
:103E8000768581EB99E14AE050E00E945153F701B9
:103E9000058516850430110509F4D7C005301105D4
:103EA00054F10630110509F4AEC0063011050CF0CE
:103EB00062C0CD2B81F586E090E0F701968785877B
:103EC00081EB99E165EE7BE00E947053F701658517
:103ED000768581EB99E14AE050E00E945153F70169
:103EE0001486C7010E94481EDF91CF911F910F9148
:103EF000FF90EF9008950130110509F496C002304B
:103F000011050CF44EC00230110509F46CC00330E9
:103F1000110509F45FC0DF91CF911F910F91FF90C0
:103F2000EF90089581EB99E166EB74E00E948F5366
:103F300081EB99E164E57BE00E94705381EB99E1AC
:103F400060E070E04AE050E00E94515391CF81EB75
:103F500099E166EB74E00E948F5381EB99E16CE28A
:103F60007BE00E94705381EB99E1BE014AE050E092
:103F70000E9451537ACF0730110509F44DC0083023
:103F8000110549F6CD2B39F6F7011686158681EB1A
:103F900099E163ED7BE00E948F53F701858596855B
:103FA00014C00115110509F0B6CFC130D10509F4CF
:103FB0005BC0C230D10509F451C0239709F0ABCFE3
:103FC00081E090E0F701968785870817190709F0C7
:103FD00077CFA1CFCD2B09F09ECF84E090E0F70101
:103FE000968785876DCFCD2B09F095CFF701168683
:103FF000158681EB99E167EA7BE00E948F53F70118
:1040000085859685E2CFCD2B09F085CF87E090E0BE
:10401000F7019687858754CFCD2B09F07CCF88E0B8
:1040200090E0F701968785874BCFCD2B09F073CFB2
:10403000F7011686158681EB99E16DEB7BE00E9416
:104040008F53F70185859685C0CFCD2B09F063CFBF
:1040500085E090E0F7019687858732CFF701D68714
:10406000C58782E090E0B1CF83E090E0F7019687CA
:10407000858726CF61E070E00E94151F089563E0F8
:1040800070E00E94151F089562E070E00E94151F05
:104090000895CF93DF93EC010E94E615882329F061
:1040A000CE0160E070E00E94151FDF91CF9108956E
:1040B0000F931F938C0103966CE677E00E94D6481D
:1040C000C80164ED74E00E94D6481F910F910895D5
:1040D0000F931F938C01039665E478E00E94D64805
:1040E000C80160E374E00E94D6481F910F910895C3
:1040F000EF92FF920F931F93CF93DF93EC018C010C
:104100000A5F1F4FC8010E9474488823C9F08C853C
:104110008823D1F11092CE161092CF161092D0169D
:104120001092D116E090CE16F090CF168985882394
:1041300089F4DF91CF911F910F91FF90EF90089537
:104140008C85882379F7E090CA16F090CB16898584
:10415000882379F38A859B850097F9F08130910552
:10416000E1F1029731F7C7018B599140439708F469
:1041700055C08AEAE81681E0F8060CF04AC0CE0184
:104180000E9410171D86D5CF1092CA161092CB161A
:104190001092CC161092CD16D6CFC8010E9474484A
:1041A000882381F1CE010E940B1781EB99E163E531
:1041B0007CE00E948F53198681E08D878C8588234F
:1041C00009F440C01092CE161092CF161092D0165D
:1041D0001092D1168A859B85C1CFCE0103960E948D
:1041E0007448882341F1CE010E940B1781EB99E1BD
:1041F00062E77CE00E948F53198681E08D878A8573
:104200009B85AFCFCE010E9420171D868A859B8596
:10421000A5CFCE010E9420171D868BCFCE010E9414
:104220000B1781EB99E160E97CE00E948F531986BE
:1042300081E08D877ECFCE010E9410171D868A8572
:104240009B858FCF1092CA161092CB161092CC1667
:104250001092CD168A859B8581CF0F931F93CF93A4
:10426000DF93EC018C01055E1F4FC8010E94781698
:10427000CE0105960E947820C8010E9478168E0112
:104280000F5C1F4FC8010E948143882329F4DF91EE
:10429000CF911F910F910895C8010E94A043CE01B4
:1042A0000E949815882371F48A89882381F31A8AD9
:1042B000CE0167E070E00E94AC1BDF91CF911F91AF
:1042C0000F910895CE0160E070E00E94AC1BECCF2E
:1042D000EF92FF920F931F93CF93DF93EC01805CDB
:1042E0009F4F0E942D21CE0189579F4F0E942D2163
:1042F0008E010D5D1F4FC8010E944A19CE010E9418
:10430000492090ECE92EF12CEC0EFD1EF701808186
:104310009181039734F0FE01E652FF4F808188239C
:10432000B1F58E0107581F4FF801808191810397E5
:1043300034F0FE01E752FF4F8081882339F4DF918A
:10434000CF911F910F91FF90EF9008951082CE01B1
:10435000CD960E948E1981EB99E16AEF7CE00E9474
:104360007053F8016081718181EB99E14AE050E07E
:104370000E94515381EB99E162E27DE00E948F53EC
:10438000DF91CF911F910F91FF90EF9008951082D0
:10439000C80162E070E00E94551881EB99E16CEA77
:1043A0007CE00E947053F7016081718181EB99E19B
:1043B0004AE050E00E94515381EB99E164ED7CE0CA
:1043C0000E948F53AECFCF93DF93EC018C8588236F
:1043D00009F041C081EB99E162E17EE00E948F53D8
:1043E00081EB99E163E37EE00E947053CE01069673
:1043F0000E947448682F81EB99E170E04AE050E038
:104400000E94515381EB99E162E57EE00E94705376
:10441000CE0103960E947448682F81EB99E170E009
:104420004AE050E00E94515381EB99E160E77EE061
:104430000E9470534091CA165091CB166091CC16D1
:104440007091CD1681EB99E12AE030E00E942A5369
:10445000DF91CF91089581EB99E168E47DE00E94BE
:104460008F5381EB99E16DE77DE00E947053CE019F
:1044700006960E947448682F81EB99E170E04AE04B
:1044800050E00E94515381EB99E160EB7DE00E9486
:104490007053CE0103960E947448682F81EB99E116
:1044A00070E04AE050E00E94515381EB99E162EEE6
:1044B0007DE00E9470534091CE165091CF166091CE
:1044C000D0167091D11681EB99E12AE030E00E947C
:1044D0002A53DF91CF910895EF92FF920F931F938C
:1044E0008C0105960E94E32121EBE22E29E1F22EB8
:1044F000C7016CE87EE00E947053045D1F4FC80145
:104500000E94B748BC01C7014AE050E00E943E53F8
:10451000C7016DE97EE00E947053C8010E94964871
:10452000682FC70170E04AE050E00E9451531F918C
:104530000F91FF90EF900895CF92DF92EF92FF924C
:104540001F93CF93DF93EC01162F7A0169010E942C
:10455000BC48CE010396B7010E945448CE0106968E
:10456000B6010E9454481D861C87112399F4CE0180
:1045700068E170E00E94D04981EB99E16CEB7EE04C
:104580000E948F53DF91CF911F91FF90EF90DF90AA
:10459000CF900895CE0169E170E00E94D04981EB8F
:1045A00099E16BEA7EE00E948F53DF91CF911F91DA
:1045B000FF90EF90DF90CF9008951F93CF93DF93FC
:1045C000EC01162F0E94BC481B83112391F4CE01ED
:1045D00069E270E00E94D04981EB99E162EE7EE0F1
:1045E0000E948F53CE010E944017DF91CF911F91FF
:1045F0000895CE016AE270E00E94D04981EB99E112
:104600006DEC7EE00E948F53CE010E944017DF9137
:10461000CF911F9108950F931F938C010E94BC4866
:1046200080E293E0F80194838383C80168E270E03C
:104630000E94D049C8010E94711781EB99E167EF90
:104640007EE00E948F531F910F9108950F931F9347
:10465000182F092F0E94BC48812F902F67E270E02D
:104660000E94D049812F902F0E94761781EB99E10B
:104670006BE07FE00E948F531F910F9108950F937D
:104680001F93182F092F0E94BC48812F902F66E29C
:1046900070E00E94D049812F902F0E94851781EBF6
:1046A00099E161E27FE00E948F531F910F9108957D
:1046B0000F931F938C010E940B23C80105960E9443
:1046C0002623C80108960E943F23F8011786118A05
:1046D000108AC801429662E370E00E94AD4381EB0C
:1046E00099E160E37FE00E948F531F910F9108953D
:1046F0000F931F93182F092F0E94BC48812F902FD2
:1047000065E270E00E94D049812F902F0E9493199A
:1047100081EB99E163E47FE00E948F531F910F9139
:104720000895EF92FF921F93CF93DF937C01162F92
:10473000EC012196CE010E94BC48F70110831123A1
:10474000A1F4CE0160E270E00E94D04981EB99E1D2
:1047500060E77FE00E948F53C7010E94BC19DF9180
:10476000CF911F91FF90EF900895CE0161E270E02C
:104770000E94D04981EB99E166E57FE00E948F536A
:10478000EBCFEF92FF921F93CF93DF937C01162F15
:10479000EC012196CE010E94BC48F7011083112341
:1047A000A1F4CE016EE170E00E94D04981EB99E165
:1047B00064EA7FE00E948F53C7010E94E019DF91F5
:1047C000CF911F91FF90EF900895CE016FE170E0BF
:1047D0000E94D04981EB99E16AE87FE00E948F5303
:1047E000EBCFAF92BF92CF92DF92FF920F931F93C6
:1047F000CF93DF93EC01F62E6A01590101960E94D6
:10480000DD22CE0105966F2DA60195010E949C2206
:10481000CE0143966F2D0E949123CE0147966F2DB6
:104820000E94C123CE014B966F2D0E94FC163CE2E4
:10483000C32ED12CCC0EDD1EC601B80140E951E0DB
:104840000E948948CE01C19662E370E00E94AD43A8
:104850001AAE19AE1DAE1EAECD5BDF4F1992199286
:1048600019921882C654D040F8821CAE1BAEFF20AD
:10487000B9F481EB99E160EE7FE00E948F53188AD2
:104880001F8681E08E87C6010E949048DF91CF91FC
:104890001F910F91FF90DF90CF90BF90AF90089540
:1048A00081EB99E16EEB7FE00E948F53E8CF0F938D
:1048B0001F93182F092F0E94BC48812F902F6FE063
:1048C00070E00E94D049812F902F0E94F01D81EB53
:1048D00099E162E070E10E948F531F910F9108955A
:1048E0000F931F93182F092F0E94BC48812F902FE0
:1048F00064E270E00E94D049812F902F0E94FF1D3A
:1049000081EB99E16CE070E10E948F531F910F9150
:104910000895EF92FF920F931F938C010E94BC4861
:1049200053E0E52EF12CE00EF11EC7010E94BC48B9
:10493000C70163E270E00E94D049C80162E270E002
:104940000E94D049C8010E94141E81EB99E168E1E0
:1049500070E10E948F531F910F91FF90EF90089587
:10496000EF92FF921F93CF93DF937C01162FEC0100
:104970002196CE010E94BC48F70110831123A1F4B7
:10498000CE0160E170E00E94D04981EB99E166E3DD
:1049900070E10E948F53C7010E94361EDF91CF91B4
:1049A0001F91FF90EF900895CE0161E170E00E94A9
:1049B000D04981EB99E163E270E10E948F53EBCF24
:1049C0000F931F938C0162E370E00E94AD43F801E6
:1049D0001086118612861386148616861586C801DF
:1049E0000F9660E00E94B024C801439661E00E94E7
:1049F000B024C80147960E948924C8010E94481E1D
:104A00001F910F910895EF92FF920F931F938C01C6
:104A10000E94BC4873E0E72EF12CE00EF11EC701A6
:104A20000E94BC48C70164E370E00E94D049C801FD
:104A300062E370E00E94D049C8010E94682081EBC7
:104A400099E169E470E10E948F531F910F91FF90EB
:104A5000EF900895EF92FF920F931F937C010E94B5
:104A6000E024C7014D960E940325C70183960E944A
:104A70005823C701CD960E947823C701805C9F4FC1
:104A800060E04BE150E029E030E00AE310E00E94F2
:104A9000F123C70189579F4F61E04DE150E02CE1C0
:104AA00030E00BE310E00E94F123C70182539F4FD7
:104AB0000E945724C7018F529F4F0E94702489ED96
:104AC00090E0E80EF91E81E0F7018193808381EB8D
:104AD00099E160E670E10E948F531F910F91FF9062
:104AE000EF900895CB0108958EEE96E16AE070E0B4
:104AF0000E94544881EF96E16EE070E00E945448B5
:104B000084EF96E16BE070E00E94544887EF96E1F5
:104B10006CE070E00E94544808958091E8169091EE
:104B2000E9160097E9F08130910539F1833091055C
:104B300009F477C0029709F458C08091E416909167
:104B4000E5160E94A83D8091E6169091E7160E9416
:104B500046098091E2169091E3160E94682108951B
:104B60008EEE96E10E947448882371F58091E816D4
:104B70009091E91681309105C9F68EEE96E10E947A
:104B80005F488823E1F082E090E09093E9168093FB
:104B9000E81681EB99E166EA70E10E948F538091FB
:104BA000E6169091E7160E9446060E9440576093D1
:104BB000EA167093EB168093EC169093ED168091A5
:104BC000E8169091E916B2CF81E090E09093E91653
:104BD0008093E81681EB99E16BE970E10E948F53B5
:104BE0008091E8169091E916C5CF0E944057209118
:104BF000EA163091EB164091EC165091ED16621BBF
:104C0000730B840B950B2091201630912116409147
:104C1000221650912316261737074807590708F020
:104C20008CCF81EB99E162EB70E10E948F5383E0BE
:104C300090E09093E9168093E8168091E6169091A3
:104C4000E7160E94580708958F929F92AF92BF92E5
:104C5000CF92DF92EF92FF920F931F9321EFC22E1C
:104C600026E1D22EC6010E94594894EFA92E96E162
:104C7000B92EC5010E94594887EF882E86E1982EEB
:104C8000C4010E94594883E160E00E94E55782E137
:104C900060E00E94E55783E161E00E94A75882E14D
:104CA00061E00E94A75886E160E00E94E55787E135
:104CB00060E00E94E55786E161E00E94A75886E126
:104CC00061E00E94A75885E06CEF74E143E050E09A
:104CD0000E94EF5484E069EA74E143E050E00E94EE
:104CE000EF5482E060E00E94E55783E060E00E94BC
:104CF000E55782E061E00E94A75883E061E00E94EE
:104D0000A75884E060E00E94E55785E060E00E94DB
:104D1000E55784E061E00E94A75884E061E00E94CA
:104D2000A75880E06CE774E143E050E00E94EF5444
:104D300081E06FE474E143E050E00E94EF5401EB46
:104D400019E1C80140E855E260E070E00E94594F67
:104D5000C8016DEB70E10E948F53C8016BEC70E1EC
:104D60000E948F538BED90E00E94DA51F82EE92ECD
:104D70000E942A25F092E216E092E316C8016EED39
:104D800070E10E948F538EE091E00E94DA51F82E7C
:104D9000E92E0E94B809F092E616E092E716C801E3
:104DA00066EE70E10E948F538BE490E00E94DA512E
:104DB000F82EE92E6091E6167091E7164091E21602
:104DC0005091E3160E945A3EF092E416E092E516E6
:104DD000C80161EF70E10E948F53C80166E071E184
:104DE0000E948F53C80167E071E10E948F531092B7
:104DF000E9161092E8161092EA161092EB1610922D
:104E0000EC161092ED16C80160E271E10E948F531A
:104E1000C8016AE271E10E9470538EEE96E10E9431
:104E20007448682FC80170E04AE050E00E94515376
:104E3000C80165E371E10E947053C6010E94744885
:104E4000682FC80170E04AE050E00E945153C80149
:104E500062E471E10E947053C5010E947448682F9A
:104E6000C80170E04AE050E00E945153C8016FE46D
:104E700071E10E947053C4010E947448682FC801F8
:104E800070E04AE050E00E9451538091E616909104
:104E9000E7160E9442061F910F91FF90EF90DF905E
:104EA000CF90BF90AF909F908F900895FC018DE6BA
:104EB00096E1918380830895FC01A081B1811697CA
:104EC0008D919C918E0F9F1F0E9467270895FC0172
:104ED0008BE596E1918380838DE696E197838683C7
:104EE0000895DC0113968D919C911497892B91F074
:104EF0001596ED91FC91169717968D919C911897A8
:104F0000E817F90739F0819190E01696FC93EE933B
:104F100015970895ED91FC9111970488F589E02D7E
:104F2000CD0119950895FC0185E996E1918380836F
:104F30000895CF93DF93EC01E881F9810288F3892A
:104F4000E02D19959C018FEF2F3F380729F08D81B7
:104F50009E8101969E838D83C901DF91CF91089533
:104F6000CB0108958FEF9FEF089580E090E00895C2
:104F700008950895DC01242FED91FC910084F185C2
:104F8000E02D41E01995089580E090E00895FC013E
:104F90002289338980899189281B390B86899789D1
:104FA000281B390BC9010895CF92DF92EF92FF922F
:104FB0000F931F93CF93DF93EC016B0179018A016B
:104FC000AE89BF89688979898A899B89861B970BF5
:104FD000A817B90778F020E030E040E050E0B901D0
:104FE000CA01DF91CF911F910F91FF90EF90DF9059
:104FF000CF900895121613061406150664F720E0E4
:1050000030E040E050E0F601E20FF31F6A0F7B1F33
:10501000DB018C9180832F5F3F4F4F4F5F4FAE89F5
:10502000BF891196BF8BAE8B688979898A899B89E4
:10503000861B970BA817B90790F62E153F0540075A
:1050400051076CF6E0CFFC0126893789A089B18928
:10505000828993898A1B9B0B2817390738F4A20F82
:10506000B31F8C91282F30E0C90108952FEF3FEF37
:10507000C9010895CF93DF93EC01E881F98102889B
:10508000F389E02D19959C018FEF2F3F380729F008
:105090008E899F8901969F8B8E8BC901DF91CF915D
:1050A0000895CF93DF93DC0156964D915C9157970D
:1050B0004115510511F15096CD91DC9151975296C1
:1050C0002D913C9153972C1B3D0B24173507B0F1C4
:1050D0008FEF6F3F7807B9F0FE01E40FF51F3197AE
:1050E00080818617E1F44150504057965C934E936F
:1050F0005697CB01DF91CF9108956FEF7FEFCB01F2
:10510000DF91CF9108954150504057965C934E9354
:10511000569760E070E0CB01DF91CF9108951F9624
:105120008C911F9784FFE9CFCA01019757969C93F2
:105130008E935697C80FD91F6883DBCF57963C9341
:105140002E9356976FEF7FEFD4CF80E090E00895D5
:1051500080E090E0089580E090E0089580E090E0A5
:10516000089560E070E080E090E008956F927F9293
:105170009F92AF92BF92CF92DF92EF92FF920F93E6
:105180001F93CF93DF93EC013B0159016A01121683
:105190001306140615060CF050C0EE24FF248701F8
:1051A00017C0EB85FC858D859E85E817F90748F5C6
:1051B00090828B859C8501969C878B870894E11C47
:1051C000F11C011D111DEA14FB040C051D05ACF5B5
:1051D000F301EE0DFF1D90808F8580FFE2CFE88107
:1051E000F9810084F185E02DCE0160E070E044E0BB
:1051F00020E11995EB85FC858D859E85E817F907DB
:10520000B8F2E881F981028CF38DE02DCE01692D91
:1052100070E019958F5F9F4F89F6B701C801DF9144
:10522000CF911F910F91FF90EF90DF90CF90BF90A3
:10523000AF909F907F906F90089586017501EDCF9C
:10524000CB010895EF92FF920F931F93CF93DF93BB
:105250007C018B01EA0164177507A9F0FC0142810A
:1052600053814F5F5F4F4C1B5D0BCB01BE010E9412
:10527000610498012C1B3D0BF70182819381820F01
:10528000931F93838283C801DF91CF911F910F9168
:10529000FF90EF9008950F931F938B0181E090E0B2
:1052A0000E947225FC011082F80110821F910F915B
:1052B0000895FC01A081B18116978D919C918E0F6C
:1052C0009F1F0E9464290895FC018BE596E191835C
:1052D00080838DE696E197838683CF010E94D75124
:1052E0000895FC018DE696E191838083CF010E94B1
:1052F000D7510895FC0185E996E191838083CF0120
:105300000E94D7510895CF93DF93EC0185E796E192
:1053100099838883288939898C899D898217930785
:1053200019F0C9010E94DE0385E996E1998388831B
:10533000DF91CF910895CF93DF93EC0185E796E15C
:1053400099838883288939898C899D898217930755
:1053500019F0C9010E94DE0385E996E199838883EB
:10536000CE010E94D751DF91CF910895FC01A08119
:10537000B18116978D919C918E0F9F1F0E94C1291C
:105380000895CF93DF93EC0183E396E199838883BB
:105390000A9699A388A385E796E19F838E832E8939
:1053A0003F898A8D9B8D8217930719F0C9010E944E
:1053B000DE0385E996E19F838E83E0912716F091C5
:1053C0002816F983E88336970190F081E02DEC0FE1
:1053D000FD1F8091291690912A16918380838DE676
:1053E00096E199A388A3CE010E94D751DF91CF9176
:1053F0000895FC01A081B18116978D919C918E0F2B
:105400009F1F0E94042A0895CF93DF93EC0183E34A
:1054100096E1998388830A9699A388A385E796E104
:105420009F838E832E893F898A8D9B8D8217930758
:1054300019F0C9010E94DE0385E996E19F838E83FE
:10544000E0912716F0912816F983E88336970190AA
:10545000F081E02DEC0FFD1F8091291690912A1606
:10546000918380838DE696E199A388A3DF91CF9104
:105470000895AF92BF92CF92DF92EF92FF920F9377
:105480001F93CF93DF936C01DC011296ED91FC9199
:1054900013974D915C91DF01A41BB50BCB016A17EB
:1054A0007B0708F4CD015C010894A11CB11CA11478
:1054B000B104C9F5EE24FF248F01041B150BC701AD
:1054C000BA01A8010E946104E701C00FD11F81E069
:1054D00090E0BE010E947225FC0110821882F60144
:1054E00020813181848195818217930719F0C90148
:1054F0000E94DE03D6011196FC92EE921396DC9385
:10550000CE931297AE0CBF1C1596BC92AE92149718
:10551000DF91CF911F910F91FF90EF90DF90CF908F
:10552000BF90AF900895C5010E943403009779F0B1
:105530007C01D6011296ED91FC9113974D915C91EF
:10554000BBCF1995C5010E943403009789F7E091FC
:10555000FA16F091FB163097A1F780E090E00E94D8
:10556000E15CFF920F931F93CF93DF938C01F62E94
:10557000DC0112962D913C911397E9012196149626
:105580008D919C911597C817D907E9F081E090E0BB
:10559000BE010E947225FC0110821882D801129669
:1055A000ED91FC911397F08212968D919C91139737
:1055B000019613969C938E931297DF91CF911F9132
:1055C0000F91FF9008958D919C91F901E81BF90BC3
:1055D000CF0171F461E070E0680F791FC8010E948B
:1055E000392AD8011296CD91DC9113972196CECF0E
:1055F000BF01F2CF0F931F93CF93DF938C01EB0189
:105600008FEF6F3F780741F4C0E0D0E0CE01DF912B
:10561000CF911F910F910895D8011F968C9184FF0F
:105620001AC0F801208D318D0088F189E02DD80154
:1056300052968D919C9153978E1B9F0B281739077B
:1056400068F4E20FF31F6083F801808D918D01965D
:10565000918F808FDBCFCFEFDFEFD8CFC80140969F
:105660000E94B12AF1CFCF92DF92EF92FF920F9377
:105670001F93CF93DF938C01FB0130E0C901887148
:105680009070489709F4DBC0C90188709070207150
:105690003070413009F4B4C0423009F46DC0D80113
:1056A00052964D915C91539750966D917C91519784
:1056B000DA01A61BB70BEF01CA0FDB1FAC17BD0742
:1056C00008F479C0892B19F0F801D78BC68B232BEE
:1056D00009F48BC080E1C82ED12CC00ED11E9A01D6
:1056E000261B370B2C173D0708F068C07E01E21A15
:1056F000F30AF801848995890197861B970B8C170B
:105700009D0778F4B701E216F30608F496C0620F1D
:10571000731FC6010E94392AD80152964D915C919F
:105720005397E114F10409F453C09A012F5F3F4FDE
:10573000FA01EE0DFF1DE21BF30BC90160E070E002
:10574000AF010E947304F801628973896E0D7F1D99
:10575000C6010E944B29D8015296ED91FC915397B6
:10576000108252964D915C9153974E0D5F1D53964A
:105770005C934E9352972CC02115310509F04EC011
:10578000C0E0D0E0D80150966D917C91519752962F
:105790004D915C915397009739F0D8015696CD9171
:1057A000DC915797CE0FDF1FDA01A61BB70BAC17A2
:1057B000BD0708F087CF2FEF3FEF18C06C0F7D1F9C
:1057C000C6010E942229D80152964D915C915397AF
:1057D000F801808991899A01281B390B868997895C
:1057E0002817390710F4378B268B9E01C901DF91EA
:1057F000CF911F910F91FF90EF90DF90CF90089580
:10580000EF01D80150966D917C91519752964D9130
:105810005C915397DA01A61BB70B50CFD801529673
:105820004D915C91539750966D917C915197EA01FF
:10583000C61BD70BCE0FDF1FAECFB90168CF4230EA
:1058400009F022CFB8CF8F929F92AF92BF92DF9292
:10585000EF92FF920F931F93CF93DF935C017B0135
:10586000DC01CD91DC912697E881F9812696E80F3D
:10587000F91F018912890115110501F1D801ED9176
:10588000FC9136970190F081E02DE00FF11FA38984
:10589000B489ED91FC9111970484F585E02DCD013B
:1058A00019958F5F9F4F09F4E7C0F501C081D18141
:1058B0002697E881F9812696EA0DFB1DA389B48914
:1058C00013968D919C911497892B09F4B2C015966B
:1058D000ED91FC91169717968D919C911897E8176A
:1058E000F90709F4A6C0808190E00E949F5C892B93
:1058F00009F084C0269728813981F501E20FF31F52
:1059000083889488D701ED91FC91119712968D911F
:105910009C911397E817F90771F010828D919C9173
:10592000119713969C938E931297D501ED91FC914C
:10593000369720813181F9013296EA0DFB1D2285CF
:105940003385448555851286138614861586E901AC
:105950002115310509F0E9C00EEF1FEF1EC081E0EF
:1059600090E0BE010E947225FC0110821882D701CE
:105970001296ED91FC911397D08212962D913C9145
:1059800013972F5F3F4F13963C932E931297011559
:10599000110509F4B5C001501040C4010E947127DF
:1059A000BFEF8F3F9B0709F4C6C0D82E992787FD0C
:1059B00090950E949F5C892B09F070C0F7012281AD
:1059C0003381E901219684819581C817D90739F679
:1059D00080819181A901481B590BCA0109F0A3C01C
:1059E00061E070E0680F791FC7010E94392AD70172
:1059F0001296CD91DC9113972196B1CF2697E8812D
:105A0000F981EA0DFB1D838994890E947127D501D4
:105A1000CD91DC912697E881F9812696EA0DFB1D50
:105A2000A389B48913968D919C911497892B09F0C1
:105A30004ECFED91FC9111970288F389E02DCD01B5
:105A40001995BFEF8F3F9B0709F0C0C0D501ED91BD
:105A5000FC91119736970190F081E02DEA0DFB1D26
:105A60002581322F326083899489892B09F48AC079
:105A70003583CD91DC913ECFD801ED91FC913697E5
:105A80000190F081E02DE00FF11F258121608389D5
:105A90009489892B09F47CC0258307CFF4012381E5
:105AA00034812115310551F08581968128173907F8
:105AB00029F0FC018291D81609F474C0D401ED914B
:105AC000FC910688F789E02DC4016D2D70E01995D1
:105AD0008F5F9F4F91F4D501ED91FC913697019026
