:100000000C947B010C9419510C944A510C947B5123
:100010000C94AC510C94DD510C940E520C943F5244
:100020000C9470520C94A8010C94A8010C94A80193
:100030000C94A8010C94A8010C94A8010C94A8019C
:100040000C94A8010C9494450C94A8010C94A8015C
:100050000C94A8010C94A8010C94A8010C94A15232
:100060000C94A8010C94CE480C941A4A0C94A80144
:100070000C94A8010C94A8010C94A8010C94A8015C
:100080000C94FD470C94A8010C94A8010C94A801B1
:100090000C940E490C94594A0C94A8010C94A80194
:1000A0000C94A8010C94A8010C942D470C94A80161
:1000B0000C94A8010C94A8010C94A8010C9464461B
:1000C0000C94A8010C94A8010C94A8010C944E491E
:1000D0000C94984A0C94A8010C948E490C94D74A1D
:1000E0000C94A801DA1AC61AB21AA61A9A1A8A1A0F
:1000F000761A6B1A5B1A4E1A3A1A2E1A1A1A021A22
:10010000F719E719DA19CE19BE19AD19991981191C
:100110006A19D31BC61BBE1B431C2D1C6C1B5E1C0B
:10012000551C4C1C121C6C1BED1BE91BE01B1B1C03
:10013000771CA11B241C671C801C6C1B091CA11BA9
:10014000084AD73B3BCE016E84BCBFFDC12F3D6C3E
:1001500074319ABD56833DDA3D00C77F11BED9E4A4
:10016000BB4C3E916BAAAABE000000803F05A84C84
:10017000CDB2D44EB93836A9020C50B99186880850
:100180003CA6AAAA2ABE000000803F00002100244D
:100190000027002A002D0030003300010100000478
:1001A0000107010A0100002200250028002B002E73
:1001B000003100340002010000050108010B0100BC
:1001C0000020002300260029002C002F0032000010
:1001D00001000003010601090105050505070508E1
:1001E000080808020202020A0A08080404040401BA
:1001F00001010101010101030303030303030304DC
:100200000707070C0C0C0C0C0C0C0C02020202066B
:10021000060606060606060B0B0B0B0B0B0B0B015B
:100220000210202008081020401020408002010207
:1002300001080402010102040810204080804020CF
:10024000100804020180040201804020100804020A
:100250000108040201010204081020408001020488
:1002600008102040800000090A02080B0C0D070648
:100270000304010000000000000000000000000076
:10028000000000000000000000000000000000006E
:100290000011100F0000000000000000000000002E
:1002A00000000000000000000000006364696E6F41
:1002B00070737578585B00494E46494E4954594E03
:1002C000414ECDCCCC3D0AD7233C17B7D13877CCA3
:1002D0002B329595E6241FB14F0A00002041000003
:1002E000C84200401C4620BCBE4CCA1B0E5AAEC5BC
:1002F0009D741D214A4C11241FBECFEFD1E2DEBFF9
:10030000CDBF00E00CBF10E1A0E0B2E0ECEBF1EB00
:1003100000E00BBF02C007900D92A23DB107D9F7D4
:100320001BBE14E1A2EDB0E101C01D92A836B107D9
:10033000E1F712E0C6EFD2E004C02297FE010E946E
:100340009658C23FD107C9F70E94804D0C94DC58E3
:100350000C940000CF93DF93BC018230910510F420
:1003600062E070E0A0916414B0916514ED01E0E0EA
:10037000F0E040E050E021C088819981861797071E
:1003800069F48A819B81309719F09383828304C03A
:100390009093651480936414FE0134C06817790744
:1003A00038F44115510519F08417950708F4AC018C
:1003B000FE018A819B819C01E9012097E9F64115A4
:1003C0005105A9F1CA01861B970B049708F4BA01DD
:1003D000E0E0F0E02AC08D919C9111978417950779
:1003E000F9F46417750781F412968D919C91139717
:1003F000309719F09383828304C09093651480939F
:100400006414FD0132964CC0CA01861B970BFD0196
:10041000E80FF91F6193719302978D939C9340C0ED
:10042000FD01828193819C01D9011097A1F68091F1
:10043000621490916314892B41F480913110909152
:100440003210909363148093621440913310509152
:1004500034104115510541F44DB75EB780912F100E
:1004600090913010481B590B209162143091631405
:10047000CA01821B930B8617970780F0AB014E5F72
:100480005F4F8417950750F0420F531F509363142A
:1004900040936214F9016193719302C0E0E0F0E0CF
:1004A000CF01DF91CF910895CF93DF93009709F4A7
:1004B00050C0EC0122971B821A82A0916414B09163
:1004C0006514109709F140E050E0AC17BD0708F142
:1004D000BB83AA83FE0121913191E20FF31FAE1776
:1004E000BF0779F48D919C911197280F391F2E5FCA
:1004F0003F4F3983288312968D919C9113979B834C
:100500008A834115510571F4D0936514C093641426
:1005100020C012968D919C911397AD01009711F018
:10052000DC01D3CFFA01D383C28321913191E20F51
:10053000F31FCE17DF0769F488819981280F391FCF
:100540002E5F3F4FFA01318320838A819B81938301
:100550008283DF91CF910895662777270C94A705B2
:10056000FC0188279927E89421912032E9F329306A
:1005700010F02E30C8F32B3241F02D3239F468944C
:1005800004C00E94F002820F911D219120532A3055
:10059000C0F31EF4909581959F4F0895FB01DC01F7
:1005A00002C001900D9241505040D8F7089568174D
:1005B000790768F4FB01DC01E40FF51FA40FB51FF8
:1005C00002C002900E9241505040D8F708950C940A
:1005D000CE02DC0101C06D9341505040E0F7089518
:1005E0007AE0979F902D879F802D910D112408957B
:1005F000AEE0B0E0EEEFF2E00C94B55885E08C830D
:100600008C899D899A8389839E01285E3F4FCE0104
:1006100001966E897F89A9010E9496042E96E2E0D8
:100620000C94D158FC0120FD08C023FD05C022FF19
:1006300002C073836283518340830895EF92FF92D7
:100640000F931F9344FF02C033E011C046FF02C066
:1006500034E00DC0DB01FC01AA0FBB1FEE1FFF1F22
:100660001094D1F76A0F7B1F8E1F9F1F31E0660F1A
:10067000771F881F991F3150D1F77B018C01E20E43
:10068000F11C011D111DA8019701B701CA011F919D
:100690000F91FF90EF9008950F931F93CF93DF93E7
:1006A0008C01C8010E942A07EC0197FD08C00E9436
:1006B0009A58892BB1F7CE01B8010E946C07CE0180
:1006C000DF91CF911F910F910895A0E0B0E0EBE68C
:1006D000F3E00C94AD58EC01C62E5A01122F0E9483
:1006E0002A07AC018B3219F08D3251F41068CA948C
:1006F00009F46DC0CE010E942A07AC0197FD67C0C6
:100700006DEFD62ED1228D2D807301F54033F1F49B
:10071000CA9409F447C0CE010E942A07AC0197FD94
:1007200041C082E0D82A483711F0483559F480E4B6
:10073000D82ACA94B9F1CE010E942A07AC019923A4
:100740002CF430C0D6FC02C080E1D82AEE24FF246D
:100750008701242F2053283088F0D4FC09C02A3088
:1007600068F0D6FE05C02F7D822F8151863028F09B
:10077000CA01BE010E946C0712C02750C801B70110
:100780004D2D0E941E037B018C0182E0D82ACA9461
:1007900061F0CE010E942A07AC0197FFDACFD1FCAD
:1007A00004C015C0EE24FF248701D7FE08C01095B1
:1007B0000095F094E094E11CF11C011D111DC50190
:1007C000B801A7012D2D0E94120381E001C080E035
:1007D000CDB7DEB7EAE00C94C958A0E2B0E0E3EF91
:1007E000F3E00C94A9586C01A62E8A017901FE0150
:1007F000319680E2DF011D928A95E9F770E030E0E2
:1008000060E040E050E04F01A1E0B0E0F6018381FC
:10081000F70183FD259183FF21917F01222309F4B4
:100820007EC02E3519F44115510569F1872F90E0EE
:100830008417950744F42D3551F12D3221F43323DB
:1008400029F431E021C0332309F4622F322F832FA2
:10085000869586958695F401E80FF11D832F8770A4
:100860003D0102C0660C771C8A95E2F7208126299B
:100870002083361711F430E007C0361710F43F5FBD
:10088000E6CF3150E4CF71E04F5F5F4FBFCF3323EE
:1008900019F08E8180628E83772359F0FE013196A4
:1008A0009E012F5D3F4F808180958193E217F30772
:1008B000D1F7BB24B3944E010894811C911CC6014E
:1008C0000E942A07AC0197FD22C0869586958695E1
:1008D000F401E80FF11D808190E09A0127703070DB
:1008E00002C0959587952A95E2F780FD05C0CA015B
:1008F000B6010E946C070BC00115110519F0D80153
:100900004D938D01AA94BB24AA20C9F602C0BB2036
:1009100031F40115110529F0F801108202C0EE240E
:10092000FF24C701A096EEE00C94C558A0E0B0E00B
:10093000ECE9F4E00C94A9585C016B013A01FC016C
:10094000178216828824EAC0812F90E00E949A586C
:10095000892B21F0C5010E944C03E0C0153249F4F7
:10096000F601F3FC6591F3FE61916F01653269F464
:1009700015E2C5010E942A0797FDDCC0181709F48B
:10098000CDC0B5010E946C07DAC06A3219F0162F8B
:1009900000E006C0F3FC1591F3FE11916F0101E038
:1009A00099240FC00260692D70E080E090E040E281
:1009B0000E941E03962EF601F3FC1591F3FE119191
:1009C0006F01212F20532A3068F301FD03C09924C1
:1009D0009A9403C0992009F4B2C0183621F01C364D
:1009E00099F4F6010BC0F601F3FC6591F3FE6191F9
:1009F000683619F06F01162F07C008600460F3FC19
:100A00001591F3FE11916F01112309F498C08BEA3F
:100A100092E0612F70E00E940707892B09F48FC0D4
:100A2000802F00FF03C0EE24FF2407C0F301E08005
:100A3000F18022E030E0620E731E1E3651F4F501A3
:100A40004681578160E070E0C701202F0E941203A9
:100A500065C0133691F481FD02C099249394C501B9
:100A60000E942A0797FD66C0E114F10419F0F7010E
:100A700081937F019A9499F74FC01B3559F4C501B2
:100A8000692DA70196010E94ED036C01009709F002
:100A900043C03DC0C5010E944C0397FD4BC01F36AB
:100AA00059F1103728F4143629F1193639F527C0D1
:100AB000133719F0153711F51DC0C5010E942A071B
:100AC000EC0197FD11C00E949A58892B29F0CE01A4
:100AD000B5010E946C0708C0E114F10419F0F70198
:100AE000C1937F019A9449F7E114F104A9F0F70149
:100AF000108212C0006203C0006101C00064C50121
:100B0000692DA701202F0E946503882329F4F50190
:100B10008381807379F413C000FF8394F501F3801F
:100B2000F601F3FC1591F3FE11916F01112309F009
:100B30000BCF05C0882019F42FEF3FEF02C0282DFE
:100B400030E0C901CDB7DEB7EEE00C94C558A0E0A7
:100B5000B0E0EDEAF5E00C94AB58EC015B016115F7
:100B6000710519F0FB0191838083F9908F2D90E03E
:100B70000E949A58892BC9F7FDE2FF1621F4F990DB
:100B8000EE24E39405C02BE2F21609F4F990EE246A
:100B90008E0101501040C80167EB72E043E050E065
:100BA0000E941207892B01F58E010E5F1F4FC801AD
:100BB0006AEB72E045E050E00E941207892B19F4BD
:100BC0008E01095F1F4FA114B10419F0F5011183C3
:100BD0000083E0FC04C070E090E080E814C070E0A6
:100BE00090E080E86FEF08C1C8016FEB72E043E06E
:100BF00050E00E941207892B69F4A114B10429F472
:100C000070E090E080EC6FE7F7C02296F501D183A9
:100C1000C083F6CF8824992440E050E060E070E083
:100C2000EF2DE053EA30A0F5F2E0EF2A8E2D90E0B0
:100C30009C0128703070E2FE06C0232B79F50894E1
:100C4000811C911C2BC0232B19F00894810891085A
:100C5000DB01CA0112E0880F991FAA1FBB1F1A955A
:100C6000D1F7480F591F6A1F7B1F440F551F661F7E
:100C7000771F4E0F511D611D711D483929E952071B
:100C800029E9620729E1720748F084E0E82A06C0F2
:100C9000EE3F31F4E3FC39C098E0E92AF990C0CF87
:100CA000E53311F0E53189F529912D3219F4E0E1B0
:100CB000EE2A05C02B3219F081E090E003C02991A3
:100CC00082E090E0E22FE053EA3018F0C81BD90B25
:100CD0001CC020E030E0FCE020383F075CF4C90194
:100CE000880F991F880F991F280F391F220F331F54
:100CF0002E0F311DE991E053EA3068F3E4FE03C0A2
:100D0000309521953F4F820E931ECE2CDD24E1FEBF
:100D100007C0A114B10421F02197F501D183C0834C
:100D2000CB01BA010E943D567B018C01F3E0CF223A
:100D3000DD2423E0C216D10421F417FB109517F926
:100D4000109557016801C801B70120E030E040E08C
:100D500050E00E949D55882309F44AC097FE0DC0BB
:100D600026EDE22E22E0F22E909481949108939445
:100D7000C0E2D0E000E010E012C09EEEE92E92E06A
:100D8000F92EF6CFF7012591359145915491C60181
:100D9000B5010E9461575B016C018C1A9D0A8C168B
:100DA0009D0684F7D595C7950F5F1F4F0630110537
:100DB00029F08CEF9FEFE80EF91EF1CFC501D601A7
:100DC0007C018D018C2D880F8D2D881F8F3F51F058
:100DD000C601B50120E030E040E050E00E949D55A2
:100DE000882331F482E290E0909367148093661434
:100DF0007E2D9F2D802F612F272F392F482F562F83
:100E0000B901CA01CDB7DEB7ECE00C94C758FC01BC
:100E10000590061621F00020D9F7C00108953197FA
:100E2000CF010895FB01DC014150504088F08D91C5
:100E300081341CF08B350CF4805E659161341CF0BC
:100E40006B350CF4605E861B611171F3990B08958C
:100E5000881BFCCFCF93DF93EC014B8140FF1AC07E
:100E600046FF0AC04F7B4B838E819F8101969F83F3
:100E70008E838A81282F2BC042FF13C0E881F9811D
:100E80008081282F332727FD30952115310529F43E
:100E900040624B832FEF3FEF1BC03196F983E8830D
:100EA00011C0EA85FB85CE0119959C0197FF0AC008
:100EB0009B812F5F3F4F11F080E201C080E1892BC1
:100EC0008B83E8CF8E819F8101969F838E8330E054
:100ED000C901DF91CF9108959C01FB01838180FFBF
:100EE00011C086FD0FC09FEF2F3F390759F02283B5
:100EF00080648F7D83838681978101979783868322
:100F000030E002C02FEF3FEFC90108959C01245F3C
:100F10003F4FC9010895FC01E350FF4F80E090E08E
:100F2000A0E0B0E081939193A193B19380839183EA
:100F3000A283B3830895FC01E350FF4F20813181E8
:100F400042815381B901CA010895FC01EF5FFE4F50
:100F50002081318142815381B901CA010895FC0188
:100F6000E750FF4F808191810895FC01E550FF4FCC
:100F7000808191810895FC01E550FF4F118210821C
:100F80001292129208950C960E94260C08950C96C7
:100F90000E94220C08952F923F924F925F926F927F
:100FA0007F928F929F92AF92BF92CF92DF92EF92F9
:100FB000FF920F931F93DF93CF93CDB7DEB72C979C
:100FC0000FB6F894DEBF0FBECDBF1C014B01690107
:100FD0007A010E94DE3B2B013C01AA2497FCA094DD
:100FE000BA2CC501B4010E943F56AB01BC015E01A1
:100FF0000894A11CB11CC501930182010E948B3C85
:10100000D101F5018CE001900D928150E1F7C10111
:101010000C96F101C080D180E280F38004811581BB
:101020002681378140855185628573850E94790CC0
:101030002C960FB6F894DEBF0FBECDBFCF91DF91D7
:101040001F910F91FF90EF90DF90CF90BF90AF90E6
:101050009F908F907F906F905F904F903F902F90D8
:101060000895CF92DF92EF92FF920F931F93DF9339
:10107000CF93CDB7DEB72C970FB6F894DEBF0FBE77
:10108000CDBFC982DA82EB82FC820D831E832F835F
:10109000388749875A876B877C87DC01FE01319648
:1010A0002CE001900D922150E1F70C96C980DA8076
:1010B000EB80FC800D811E812F81388549855A8502
:1010C0006B857C850E94790C2C960FB6F894DEBF58
:1010D0000FBECDBFCF91DF911F910F91FF90EF9089
:1010E000DF90CF9008952F923F924F925F926F9230
:1010F0007F928F929F92AF92BF92CF92DF92EF92A8
:10110000FF920F931F93DF93CF93CDB7DEB72C974A
:101110000FB6F894DEBF0FBECDBF1C014B016901B5
:101120007A010E94D63B2B013C01AA2497FCA09493
:10113000BA2CC501B4010E943F568B019C015E018F
:101140000894A11CB11CC501B301A2010E948B3CF3
:10115000D101F5018CE001900D928150E1F7C101C0
:101160000C96F101C080D180E280F380048115816A
:101170002681378140855185628573850E94790C6F
:101180002C960FB6F894DEBF0FBECDBFCF91DF9186
:101190001F910F91FF90EF90DF90CF90BF90AF9095
:1011A0009F908F907F906F905F904F903F902F9087
:1011B00008950F931F938C018A509F4F6CED75E03B
:1011C0000E949344C8018D509F4F6CED75E00E94C2
:1011D00093441F910F9108959F92AF92BF92CF9227
:1011E000DF92EF92FF920F931F93CF93DF93EC0167
:1011F0008C01045F1F4FC8010E940C0C6C01C801D8
:101200000E94170C5C01C8010E94120CF82EC80144
:101210000E941D0C982EFF2009F450C0B6018827AB
:1012200077FD8095982F0E943F5620E030E04AEFEE
:1012300053E40E94A45520E030E04AEF53E40E94BA
:1012400061577B018C01992009F050C0B5018827B6
:1012500077FD8095982F0E943F5620E030E04AEFBE
:1012600053E40E94A45520E030E04AEF53EC0E9482
:101270006157CA50DF4F0E940C569B01AC012452AB
:101280003A4FCE01B9010E9493442397C801B70198
:101290000E940C569B01AC0124523A4FCE01B90179
:1012A0000E949344DF91CF911F910F91FF90EF9097
:1012B000DF90CF90BF90AF909F900895B6018827A0
:1012C00077FD8095982F0E943F5620E030E04AEF4E
:1012D00053E40E94A45520E030E04AEF53EC0E9412
:1012E00061577B018C01992009F4B0CFB5018827A3
:1012F00077FD8095982F0E943F5620E030E04AEF1E
:1013000053E40E94A45520E030E04AEF53E40E94E9
:101310006157AFCFCF92DF92EF92FF920F931F935F
:101320008C016091D6107091D7108091D810909157
:10133000D9100E943F56F801E951FF4F20813181B9
:10134000428153810E9461576B017C016091D210F0
:101350007091D3108091D4109091D5100E943F5677
:10136000F801ED51FF4F20813181428153810E946C
:1013700061579B01AC01C701B6010E941055F801ED
:10138000E551FF4F20813181428153810E94615795
:101390006B017C01C8010E94E63BA70196010E94F7
:1013A0001155AB01BC01C8010E94EE3B1F910F918A
:1013B000FF90EF90DF90CF9008952F923F924F9241
:1013C0005F926F927F928F929F92AF92BF92CF92D5
:1013D000DF92EF92FF920F931F93DF93CF9300D092
:1013E00000D0CDB7DEB76C010E948A096090D210A0
:1013F0007090D3104090D6105090D7101092D21009
:101400001092D3101092D4101092D5101092D610C2
:101410001092D7101092D8101092D910B3018827CB
:1014200077FD8095982F0E943F5669837A838B833E
:101430009C83B201882777FD8095982F0E943F56A4
:101440004B015C01C6018D519F4F9E838D83698145
:101450007A818B819C81ED81FE8120813181428165
:1014600053810E9461577B018C0197EE292E312C0C
:101470002C0C3D1CC501B401F10120813181428158
:1014800053810E9461579B01AC01C801B7010E94C2
:10149000115520E030E040E05FE30E946157AB016E
:1014A000BC01C6010E94EC3E86010F5F1E4FC501C4
:1014B000B401F10120813181428153810E94615741
:1014C0009B01AC01F80160817181828193810E944E
:1014D0001155F801608371838283938386010350E1
:1014E0001F4F69817A818B819C81ED81FE812081F2
:1014F0003181428153810E9461579B01AC01F80107
:1015000060817181828193810E941155F80160830D
:10151000718382839383F601E750FF4F808191812D
:10152000680E791E71826082F601E550FF4F80815E
:101530009181480E591E5182408281EF90E0C80E81
:10154000D91E8091D6109091D710F6019183808397
:101550008091D2109091D3109293829326960FB6D9
:10156000F894DEBF0FBECDBFCF91DF911F910F91D9
:10157000FF90EF90DF90CF90BF90AF909F908F90B3
:101580007F906F905F904F903F902F900895CF92F3
:10159000DF92EF92FF920F931F93CF93DF93EC01B3
:1015A0008C010D521F4FC8010E94E23F882339F57C
:1015B0008E0105521F4FC8010E94E23F8823B1F0FF
:1015C000C8010E940140CE010C96C880D980EA80F3
:1015D000FB800C811D812E813F81488559856A855C
:1015E0007B850E940913CE010E94EC08DF91CF9108
:1015F0001F910F91FF90EF90DF90CF900895C80159
:101600000E940140CE010E94DD09D2CFCF92DF922D
:10161000EF92FF920F931F938C010E94793CC801B7
:101620000C960E94E013C8018D529F4F6AE070E053
:101630000E940E40C80185529F4F68E270E00E94F0
:101640000E400D511F4F8DEC9BE2A1ECBEE3F80163
:1016500081939193A193B1938CE89FE1A2ECBEE3B7
:1016600081939193A193B1938DEF99E6A3EABBE3A4
:1016700081939193A193B193119211928F01118251
:101680001082015F104033EFC32ED12CC00ED11E4B
:10169000C6010E94794426EFE22EF12CE00EF11EE5
:1016A000C7010E94794407501F4FF801119211920F
:1016B0001192119280E090E0A0E0B0E081939193CC
:1016C000A193B1938F0180839183A283B38301504F
:1016D00011401092D2101092D3101092D410109288
:1016E000D5101092D6101092D7101092D8101092D8
:1016F000D910C8010E94EC08C70166E070E00E94A2
:101700008D45C60167E070E00E948D45C8010E94CA
:10171000D9081F910F91FF90EF90DF90CF9008951F
:10172000CF93DF93DC01BC0167587F4FFC01E15888
:10173000FF4FA358BF4F208131818D919C9111970C
:10174000AD57B040A901480F591FEB015983488399
:10175000FD01E558FF4F821B930B91838083CD01E0
:101760008F579F4F20E0141615060CF053C0EC0164
:101770002883AE57BF4F20E080819181181619064B
:101780000CF046C02C93DB012D913C91119737FD55
:101790002EC02081318137FD34C0EB0188819981D1
:1017A0008B3F910524F08AEF90E0998388838081B4
:1017B00091818B3F910524F08AEF90E091838083A3
:1017C000DB018D919C9186509F4F2CF486E09FEF1A
:1017D000EB01998388838081918186509F4F24F407
:1017E00086E09FEF91838083DF91CF9108958827D2
:1017F0009927821B930B8D939C932081318137FF16
:10180000CCCF88279927821B930B91838083C5CFE8
:1018100021E0B8CF21E0ABCFFC01E758FF4F80813A
:1018200091810895FC01EF57FF4F80810895FC01DD
:10183000E558FF4F808191810895FC01EE57FF4FDD
:101840008081089521E0FC0120A30895FC0110A2ED
:101850000895EF92FF920F931F937C0101EC13E127
:10186000C80160E072E00E94384FC70185960E946F
:10187000AD40C80169E072E00E94384FC701815B4A
:101880009F4F0E94AD40C80162E172E00E94194F73
:10189000C7018F569F4F0E94EB42C80169E172E079
:1018A0000E94194FC70184559F4F0E94EB421F9120
:1018B0000F91FF90EF900895EF92FF920F931F9377
:1018C0007C0101EC13E1C80160E272E00E94194F53
:1018D000C7010E94903FC80169E272E00E94194F5F
:1018E000C7010C960E94903F1F910F91FF90EF90BF
:1018F0000895CF92DF92EF92FF920F931F93DF93A1
:10190000CF93CDB7DEB72C970FB6F894DEBF0FBEDE
:10191000CDBFC982DA82EB82FC820D831E832F83C6
:10192000388749875A876B877C87DC01FE013196AF
:101930002CE001900D922150E1F7DC011C96FC0196
:101940002CE001900D922150E1F70E945C0C2C9646
:101950000FB6F894DEBF0FBECDBFCF91DF911F91C0
:101960000F91FF90EF90DF90CF900895CF93DF938A
:10197000EC018BA19CA18130910591F0029769F453
:1019800081E090E09CA38BA3CE010E945C0C81ECD3
:1019900093E163E372E00E94384FDF91CF910895A5
:1019A00083E090E09CA38BA3CE010E945C0C81ECB1
:1019B00093E16AE372E00E94384F1AA219A2DF9104
:1019C000CF910895CF92DF92EF92FF920F931F93E2
:1019D000815B9F4F0E9483401F910F91FF90EF907A
:1019E000DF90CF900895CF92DF92EF92FF920F9306
:1019F0001F9385960E9483401F910F91FF90EF9057
:101A0000DF90CF9008952F923F924F925F926F9206
:101A10007F928F929F92AF92BF92CF92DF92EF927E
:101A2000FF920F931F93DF93CF93CDB7DEB7A297AB
:101A30000FB6F894DEBF0FBECDBF1C01CE010196DC
:101A40000E94593D2DB73EB72C5030400FB6F89448
:101A50003EBF0FBE2DBF39E0832E912C8C0E9D1EF4
:101A6000ADB7BEB711962CE0A22EB12CA20CB31CC0
:101A7000F5018CE001900D928150E1F7C401F10174
:101A8000C080D180E280F380048115812681378176
:101A900040855185628573850E94673DDE01119600
:101AA000F40188E001900D928150E1F72DB73EB727
:101AB000245F3F4F0FB6F8943EBF0FBE2DBFF1011C
:101AC00081A192A18130910521F1823091050CF420
:101AD000C6C18230910509F457C1039709F4C0C00B
:101AE000A2960FB6F894DEBF0FBECDBFCF91DF91A7
:101AF0001F910F91FF90EF90DF90CF90BF90AF902C
:101B00009F908F907F906F905F904F903F902F901D
:101B100008959FE4892E912C820C931CCE0141964E
:101B2000F101C080D180E280F3800481158126819B
:101B3000378140855185628573850E94B23ECE0112
:101B4000019609891A892B893C894D895E896F899B
:101B5000788D0E94CD3DAB01BC01C4010E947E4145
:101B60002DE730E0220E331E0E940C56F1017183E6
:101B7000608323E83FEF220E331EF10183A194A17D
:101B8000019709F44EC1CE0101960E944F3E7B01A0
:101B90008C01C5010E94E63B9B01AC01C801B70165
:101BA0000E94133E20E030E040E050E00E94565793
:101BB00018160CF005C1CE0101960E944F3E7B0124
:101BC0008C01C5010E94E63B9B01AC01C801B70135
:101BD0000E94133E2BED3FE049EC5FE30E94565715
:101BE00018160CF005C181010B5D1F4FCE01019647
:101BF0000E944F3E2BED3FE049E450E40E94115516
:101C0000AB01BC01C8010E947D40C1010E94E63BBE
:101C1000AB01BC01C8010E947E412FE730E0220EDB
:101C2000331E0E940C56F1017183608321E83FEF5F
:101C3000220E331EF10163A174A1C4010E94684108
:101C4000882309F44DCFF10163A174A1C8010E945A
:101C50006841882309F444CFC1010E94B60C40CFEB
:101C60008FE4482E512C420C531CCE014996F101B1
:101C7000C080D180E280F380048115812681378184
:101C800040855185628573850E94B23ECE010196E2
:101C9000098D1A8D2B8D3C8D4D8D5E8D6F8D78A1AC
:101CA0000E94CD3DAB01BC01C2010E947E412DE7E7
:101CB00030E0220E331E0E940C56F10171836083C6
:101CC00023E83FEF220E331EC5010E94E63B7B0155
:101CD0008C01C1010E94E63B9B01AC01C801B70128
:101CE0000E94133E3B014C01CE0101960E944F3EE3
:101CF0007B018C01C1010E94E63B9B01AC01C80144
:101D0000B7010E94133E7B018C01C10185969AA305
:101D100089A30E94A5405B016C01C801B701A8011D
:101D200097010E9411559B01AC01C401B3010E94AF
:101D30001155A60195010E941055AB01BC0189A166
:101D40009AA10E947E41EFE7F0E02E0E3F1E0E9416
:101D50000C56F1017183608321E83FEF220E331EA0
:101D6000F10163A174A1C2010E946841882309F4B2
:101D7000B7CEF10163A174A189A19AA10E94684123
:101D8000882309F4ADCE68CF81010B5D1F4FC101DF
:101D90000E94E63BAB01BC01C8010E947E412FE7D7
:101DA00030E0220E331E0E940C56F10171836083D5
:101DB000129212921F0123E83FEF220E331E43CFEF
:101DC000CE0101960E944F3E7B018C01C5010E940D
:101DD000E63B9B01AC01C801B7010E94133E2BED0D
:101DE0003FE049EC5FEB0E949D5588230CF4FBCE4D
:101DF00081010B5D1F4FCE0101960E944F3EAB014A
:101E0000BC01C8010E947D40C1010E94E63BAB01BC
:101E1000BC01C8010E947E41EFE7F0E02E0E3F1E9C
:101E200000CF81010B5D1F4FC5010E94E63BAB0156
:101E3000BC01C8010E947D40C1010E94E63BAB018C
:101E4000BC01C8010E947E41EFE7F0E02E0E3F1E6C
:101E500020E030E040E05FE30E946157E2CE892B52
:101E600009F03ECE2FE730E0220E331EF101118241
:101E700010821292129234CE2F923F924F925F9222
:101E80006F927F928F929F92AF92BF92CF92DF928A
:101E9000EF92FF920F931F93DF93CF93CDB7DEB7EF
:101EA00064970FB6F894DEBF0FBECDBF4C01A98674
:101EB000BA86CB86DC86ED86FE860F87188B298B4B
:101EC0003A8B4B8B5C8B83E890E0880E991EF40173
:101ED000118210828DE79FEF880E991EF40172A384
:101EE00061A382E090E094A383A365E2462E512C87
:101EF000480C591CC2010E949D405FE4652E712C64
:101F0000680C791CC3010E949D40F40181A192A13B
:101F10008130910509F453C0823091050CF4BFC0A3
:101F200082309105D9F0039771F164960FB6F89459
:101F3000DEBF0FBECDBFCF91DF911F910F91FF90FC
:101F4000EF90DF90CF90BF90AF909F908F907F9059
:101F50006F905F904F903F902F9008958401045FA1
:101F60001F4FCE0109960E94E63BAB01BC01C801A0
:101F70000E94EE3BC8010E94E63BAB01BC01C201DE
:101F80000E947D40D2CF8401045F1F4FD801FE0123
:101F900039968CE001900D928150E1F781EC93E14C
:101FA00067E672E00E94194FC8010E94903FC3018A
:101FB00040E050E060E070E00E947D40DBCF4CE00C
:101FC000242E312C280C391CCE0109960E94D63BB8
:101FD000AB01BC01C1010E94EC3E81EC93E167E4DE
:101FE00072E00E94194FC1010E94903F8DB79EB7C9
:101FF0000C970FB6F8949EBF0FBE8DBFADB7BEB79E
:102000001196F1018CE001900D928150E1F75E0193
:102010000894A11CB11CC501F401C080D180E280EC
:10202000F380048115812681378140855185628541
:1020300073850E94673D8401085E1F4FD801F5013A
:1020400088E001900D928150E1F78DB79EB70C9614
:102050000FB6F8949EBF0FBE8DBFCE0109960E94A9
:10206000D63B20E030E040E050E00E949D558823C0
:102070001CF4C8010E94B93DC8010E94633FC3011E
:1020800040E050E060E070E00E947D40C1010E94AD
:10209000E63BAB01BC01C2010E947D4046CF892BCB
:1020A00009F043CF81EC93E162E472E00E94384F83
:1020B0003CCF6F927F928F929F92AF92BF92CF92BE
:1020C000DF92EF92FF920F931F93DF93CF93CDB7E1
:1020D000DEB7EC970FB6F894DEBF0FBECDBF5C0144
:1020E0004E010894811C911CC4010E94593D8DB77A
:1020F0009EB70C970FB6F8949EBF0FBE8DBFA9E098
:102100006A2E712C6C0E7D1EADB7BEB71196F5010F
:102110003C968CE001900D928150E1F7C301F501EE
:10212000C080D180E280F3800481158126813781CF
:1021300040855185628573850E94673DD401F30116
:1021400088E001900D928150E1F78DB79EB70C9613
:102150000FB6F8949EBF0FBE8DBFCE014196F5011C
:10216000C080D180E280F38004811581268137818F
:1021700040855185628573850E94B23EC4010989FC
:102180001A892B893C894D895E896F89788D0E94D7
:10219000CD3D20E030E040E050E00E949D5587FDBD
:1021A00064C0F1E98F2E912C8A0C9B1CC401F501AF
:1021B000C080D180E280F38004811581268137813F
:1021C00040855185628573850E94F742882309F412
:1021D00061C0ECEA6E2E712C6A0C7B1CC301F50108
:1021E000C080D180E280F38004811581268137810F
:1021F00040855185628573850E94F7428823A1F04E
:10220000CE014996B3010E944742C401C98CDA8CC1
:10221000EB8CFC8C0D8D1E8D2F8D38A149A15AA100
:102220006BA17CA10E945242C5010E945C0CC401BA
:102230000E94A642CE0185960E94793CC50160E0CD
:1022400070E0ADA0BEA0CFA0D8A4E9A4FAA40BA5CD
:102250001CA52DA53EA54FA558A90E943C0F81ECB9
:1022600093E167E872E00E94384FEC960FB6F8945D
:10227000DEBF0FBECDBFCF91DF911F910F91FF90B9
:10228000EF90DF90CF90BF90AF909F908F907F9016
:102290006F9008957CEA872E912C8A0C9B1CC401B8
:1022A000F501C080D180E280F38004811581268110
:1022B000378140855185628573850E94F742882366
:1022C000A1F2C5010E945C0CC4010E94A642CE018D
:1022D000C1960E94793CC50160E070E0A9A8BAA847
:1022E000CBA8DCA8EDA8FEA80FA918AD29AD3AAD82
:1022F0004BAD5CAD0E943C0F81EC93E167E972E06D
:102300000E94384FB2CF4F925F926F927F928F921E
:102310009F92AF92BF92CF92DF92EF92FF920F9374
:102320001F93DF93CF93CDB7DEB764970FB6F894C2
:10233000DEBF0FBECDBF3C0115E8412E512C480E2B
:10234000591EC201F301C080D180E280F380048174
:1023500015812681378140855185628573850F2ED1
:10236000FAE98F2EF9E99F2EF9E9AF2EFEE3BF2E91
:10237000F02D0E94A53C4DB75EB74C5050400FB6B3
:10238000F8945EBF0FBE4DBFADB7BEB71196F20158
:102390008CE001900D928150E1F75E010894A11C40
:1023A000B11CC501F301C080D180E280F3800481BB
:1023B00015812681378140855185628573850E940C
:1023C000673D4FE750E0640E751EF30120813181B7
:1023D00041E85FEF640E751E37FD17C18DE790E091
:1023E000680E791EF3018081918143E85FEF640EEE
:1023F000751E97FD06C1280F391F8DB79EB70C9625
:102400000FB6F8949EBF0FBE8DBF2233310594F0F6
:10241000C5010E94353F20E030E040E251E40E94D7
:102420009D558823F4F043E850E0640E751EF301D7
:102430001182108264960FB6F894DEBF0FBECDBF36
:10244000CF91DF911F910F91FF90EF90DF90CF9090
:10245000BF90AF909F908F907F906F905F904F90C4
:102460000895D62CC72CC3010E94E63B7B018C014A
:10247000C2010E94E63B9B01AC01C801B7010E946A
:10248000105520E030E040E050E00E94565718160A
:102490000CF08BC0C3010E94E63B7B018C01C201A2
:1024A0000E94E63B9B01AC01C801B7010E94105598
:1024B0002DEC3CEC4CE45DE30E949D5587FFB3CFCF
:1024C000B3E88B2E912C860C971CF40180819181AE
:1024D00001969183808381EC93E167EA72E00E9428
:1024E000194F8D2D9C2D0E94E63B7B018C01C20172
:1024F0000E94E63B9B01AC01C801B7010E94105548
:1025000020E030E040E050E00E94565718160CF0F2
:1025100064C08D2D9C2D0E94E63B7B018C01C20185
:102520000E94E63B9B01AC01C801B7010E94105517
:1025300020E030E048EC52E40E946157A62F482F7B
:10254000692F81EC93E12A2F372FE42FF62FA90171
:10255000BF0122E030E00E948550F401808191812A
:102560000B970CF467CFC3010E945C0C81EC93E1E4
:1025700067EB72E00E94384FCE0109960E94793CC9
:10258000C30160E070E0A984BA84CB84DC84ED846C
:10259000FE840F85188929893A894B895C890E94B4
:1025A0003C0FF4011182108245CFC3010E94E63B2B
:1025B0007B018C01C2010E94E63B9B01AC01C8017A
:1025C000B7010E9410552DEC3CEC4CE45DEB0E94F1
:1025D000565718160CF027CF73CF8D2D9C2D0E94C7
:1025E000E63B7B018C01C2010E94E63B9B01AC01F2
:1025F000C801B7010E94105520E030E048EC52ECD1
:102600009BCF909581959F4FF6CE309521953F4F6A
:10261000E5CEAF92BF92CF92DF92EF92FF920F93EF
:102620001F93DF93CF93CDB7DEB72C970FB6F894F7
:10263000DEBF0FBECDBF5C01C982DA82EB82FC82B5
:102640000D831E832F83388749875A876B877C8742
:10265000DC01FE0131968CE001900D928150E1F792
:10266000C5010E94030DC5010E94900BF50181A1D7
:1026700092A181309105B9F0892B89F42C960FB67F
:10268000F894DEBF0FBECDBFCF91DF911F910F91A8
:10269000FF90EF90DF90CF90BF90AF900895C5016D
:1026A0000E948311EBCF80A18823C9F3C5010E944A
:1026B0005910F50181A192A1DFCFCF93DF93EC01F7
:1026C0006130710589F162307105C1F0672B99F4B1
:1026D00081EC93E16EEB72E00E94384FCE01815B9A
:1026E0009F4F66E970E00E947340CE01859666E9CF
:1026F00070E00E947340DF91CF91089581EC93E1E7
:102700006CED72E00E94384FCE01815B9F4F6AEF03
:1027100070E00E947340CE0185966AEF70E00E94DF
:102720007340DF91CF91089581EC93E16CEC72E0FE
:10273000E9CFAF92BF92CF92DF92EF92FF920F93C9
:102740001F93DF93CF93CDB7DEB72C970FB6F894D6
:10275000DEBF0FBECDBF5C0160E070E00E945D1384
:10276000CE01019640E050E06AE774EC00E010E032
:1027700020E030E0680179010E948B3CC50161E0F6
:1027800070E0A980BA80CB80DC80ED80FE800F8174
:10279000188529853A854B855C850E943C0F2C96CF
:1027A0000FB6F894DEBF0FBECDBFCF91DF911F9162
:1027B0000F91FF90EF90DF90CF90BF90AF90089572
:1027C0008F929F92AF92BF92CF92DF92EF92FF9241
:1027D0000F931F93DF93CF93CDB7DEB768970FB6F4
:1027E000F894DEBF0FBECDBF4C010E94793CC401FE
:1027F0000C960E94793CC40148960E94593DF40110
:1028000010A212A211A283E090E094A383A38DB73B
:102810009EB708970FB6F8949EBF0FBE8DBF87EA8C
:1028200097EEAEE0BEE3EDB7FEB781839283A3835C
:10283000B48387EA97EEAEE8BDE385839683A783EA
:10284000B087C401859661E020E030E040E253E4C7
:102850000F2EF0E0EF2EF0E0FF2EF0E00F2FF0E073
:102860001F2FF02D570168010E94244080E090E066
:10287000ACE8B2E4EDB7FEB781839283A383B4835F
:1028800080E090E0A0EAB1E485839683A783B087D7
:10289000C401815B9F4F60E020E030E040E450E401
:1028A0000E94244089E790E0880E991EF40111925D
:1028B00011924F011182108286E090E0880E991EDD
:1028C00081E0F401819381934F01118210828DE7A1
:1028D0009FEF880E991EEDB7FEB738960FB6F894A5
:1028E000FEBF0FBEEDBFC4018B579F4F0E94793CC6
:1028F000CE01019640E050E068EC72E400E010E0A8
:102900002FE133EC760165010E948B3CC4018F56A8
:102910009F4F6CE370E0A980BA80CB80DC80ED80B3
:10292000FE800F81188529853A854B855C850E943C
:102930001344CE010D9640E050E068EC72E400E0F4
:1029400010E02FE133E40F2EF0E0CF2EF0E0DF2E89
:10295000F0E0EF2EF0E0FF2EF02D0E948B3CC40142
:1029600084559F4F6DE370E0AD84BE84CF84D888DA
:10297000E988FA880B891C892D893E894F89588DF1
:102980000E941344C40160E070E00E945D136896E9
:102990000FB6F894DEBF0FBECDBFCF91DF911F9170
:1029A0000F91FF90EF90DF90CF90BF90AF909F90EE
:1029B0008F90089587E10E94D854019739F1809152
:1029C000D6109091D710A091D810B091D91001973E
:1029D000A109B1098093D6109093D710A093D81075
:1029E000B093D9108091E6109091E710A091E81073
:1029F000B091E9100197A109B1098093E610909375
:102A0000E710A093E810B093E91008958091D610D4
:102A10009091D710A091D810B091D9100196A11D16
:102A2000B11D8093D6109093D710A093D810B09377
:102A3000D9108091E6109091E710A091E810B09124
:102A4000E9100196A11DB11D8093E6109093E71047
:102A5000A093E810B093E910089586E10E94D8543D
:102A6000019739F18091D2109091D310A091D41098
:102A7000B091D5100196A11DB11D8093D2109093F5
:102A8000D310A093D410B093D5108091E210909100
:102A9000E310A091E410B091E5100196A11DB11DC5
:102AA0008093E2109093E310A093E410B093E510AC
:102AB00008958091D2109091D310A091D410B0912C
:102AC000D5100197A109B1098093D2109093D3102A
:102AD000A093D410B093D5108091E2109091E310A0
:102AE000A091E410B091E5100197A109B10980937C
:102AF000E2109093E310A093E410B093E5100895D2
:102B000008959C012B5D3F4FC90108959C012F5DE5
:102B10003F4FC90108959C01275D3F4FC9010895AA
:102B20009C0125593F4FC90108959C0123553F4FF2
:102B3000C90108959C0120553F4FC90108959C018A
:102B40002D543F4FC90108959C012A5F3F4FC90191
:102B500008959C01225E3F4FC9010895EF92FF92B4
:102B60000F931F938C0181ECE82E83E1F82EC701AF
:102B70006AEE72E00E94384FC70161E073E00E9484
:102B8000194FF80166857785C7014AE050E00E9439
:102B9000FA4E1F910F91FF90EF900895EF92FF92E0
:102BA0000F931F93CF93DF93EC018EAD882341F4F5
:102BB00080E0DF91CF911F910F91FF90EF900895EA
:102BC000EAACFBAC0CAD1DAD0E94E952E616F7066F
:102BD0000807190768F71EAE81E0DF91CF911F91BA
:102BE0000F91FF90EF900895CF92DF92EF92FF92B6
:102BF0000F931F936C017B010E94E9520027F7FCA1
:102C00000095102FE60EF71E081F191FF601E2AE01
:102C1000F3AE04AF15AF81E086AF1F910F91FF9027
:102C2000EF90DF90CF900895EF92FF920F931F9354
:102C3000CF93DF93EC018D85882341F480E0DF9111
:102C4000CF911F910F91FF90EF900895E984FA843E
:102C50000B851C850E94E952E616F706080719073E
:102C600068F71D8681E0DF91CF911F910F91FF9052
:102C7000EF900895CF92DF92EF92FF920F931F9300
:102C80006C017B010E94E9520027F7FC0095102F90
:102C9000E60EF71E081F191FF601E186F28603876C
:102CA000148781E0858781EC93E160E173E00E9405
:102CB000194F1F910F91FF90EF90DF90CF900895E3
:102CC000AF92BF92CF92DF92EF92FF920F931F933A
:102CD000CF93DF93EC010E94E9525B016C01EC841D
:102CE000FD840E851F85CE010E94E23F882359F4A2
:102CF000DF91CF911F910F91FF90EF90DF90CF90D8
:102D0000BF90AF900895CE010E940140B5016E19A9
:102D10007F09882777FD8095982F0E943F567B0179
:102D20008C0120E030E040E050E00E945657181639
:102D3000FCF68889882339F56091EE107091EF10C8
:102D40008091F0109091F1100E943F5620E030E009
:102D500048EC52E40E946157A80197010E94A455D3
:102D6000688779878A879B871092EE101092EF1000
:102D70001092F0101092F1100E94E9526C877D873A
:102D80008E879F87B5CF6091EA107091EB1080918C
:102D9000EC109091ED100E943F5620E030E048EC9E
:102DA00052E40E946157A80197010E94A4556887C8
:102DB00079878A879B871092EA101092EB10109205
:102DC000EC101092ED10D8CFFF920F931F938C014F
:102DD000F62E64E670E00E940E40F801F08A1F9122
:102DE0000F91FF9008956CED75E00E949344089553
:102DF000FC018485882331F4CF0168E077E00E94EC
:102E000093440895CF0168EE73E00E9493440895BF
:102E10006CED75E00E9493440895FC01848588233D
:102E200031F4CF0160EB74E00E9493440895CF0128
:102E300060ED77E00E9493440895FC01838188232C
:102E400031F4CF016AEF75E00E9493440895CF01F9
:102E500066EF74E00E9493440895FC018381882307
:102E600031F4CF0168EB76E00E9493440895CF01DE
:102E700060E274E00E9493440895FC0183818823FA
:102E800031F4CF016CE974E00E9493440895CF01BE
:102E900060E476E00E94934408956CE474E00E943C
:102EA0009344089562ED75E00E94934408956FE0A5
:102EB00077E00E949344089564E276E00E94934490
:102EC00008956EED73E00E949344089567EE77E0F5
:102ED0000E9493440895CF93DF93EC018E859F85E4
:102EE0008330910509F486C084309105CCF085309B
:102EF000910509F457C08530910554F5CE0160E283
:102F000073E00E943A16CE0103960E94571781EC97
:102F100093E16CE873E00E94384FDF91CF91089500
:102F20008130910509F450C0823091052CF1CE0119
:102F300060E273E00E943A16CE010E944D1781ECC8
:102F400093E16BE573E00E94384FDF91CF910895D4
:102F50000697D9F7CE0160E273E00E943A16CE01DF
:102F600003960E945C1781EC93E160EC73E00E9491
:102F7000384FDF91CF910895892B39F7CE01039611
:102F80000E945717CE010E945217CE0106960E944A
:102F9000611781EC93E16EE173E00E94384FDF919D
:102FA000CF910895CE0160E273E00E943A16CE01FF
:102FB00006960E94611781EC93E166EA73E00E9435
:102FC000384FDF91CF910895CE0160E273E00E9407
:102FD0003A16CE0103960E945C17CE0106960E9417
:102FE000661781EC93E16DE373E00E94384FDF9147
:102FF000CF910895CE0160E273E00E943A16CE01AF
:103000000E94521781EC93E163E773E00E94384F0E
:10301000DF91CF9108950F931F93CF93DF938C018E
:10302000EB0181EC93E16CED73E00E94384F81EC91
:1030300093E16DED73E00E94194F81EC93E1BE01C5
:103040004AE050E00E94FA4ECE010197029708F440
:1030500079C0209709F450C081EC93E164E474E0F6
:103060000E94194FF8016685778581EC93E14AE06B
:1030700050E00E94FA4EF8018685978583309105CD
:1030800009F474C08430910584F08530910509F409
:1030900076C0853091050CF044C0CD2B41F585E01C
:1030A00090E0F801978786870EC08130910509F47A
:1030B0006FC082309105ECF1CD2BC9F483E090E034
:1030C000F8019787868781EC93E164E674E00E94BB
:1030D000194FF8016685778581EC93E14AE050E06D
:1030E0000E94FA4EF8011586C8010E946B17DF9105
:1030F000CF911F910F91089581EC93E16BEF73E0F5
:103100000E94384F81EC93E162E274E00E94194F13
:1031100081EC93E160E070E04AE050E00E94FA4EFA
:103120009BCF069721F7CD2B11F7F801178616864E
:10313000CACF892BE1F6C130D105C9F6F801D7878E
:10314000C687C1CF81EC93E16BEF73E00E94384FEB
:1031500081EC93E16DEF73E00E94194F81EC93E1F4
:10316000BE014AE050E00E94FA4E73CFCD2B09F029
:10317000BECF84E090E0F80197878687A4CF22979E
:1031800009F0B5CF86E090E0F801978786879BCF5E
:10319000CD2B09F0ACCF82E090E0F80197878687CD
:1031A00092CF0F931F93CF93DF938C01EC01609626
:1031B000CE010E94E23F882329F4DF91CF911F9135
:1031C0000F910895CE010E940140C8010E9414167B
:1031D000882399F3C80160E070E00E940B18DF912A
:1031E000CF911F910F9108956AE377E00E94934475
:1031F000089564E276E00E9493440895FC01808182
:10320000882339F4CF0101966AE678E00E9493445E
:103210000895CF0101966DE574E00E9493440895EE
:10322000FC018081882339F4CF01019665E977E0BC
:103230000E9493440895CF01019661EE74E00E94CC
:1032400093440895FC018081882339F4CF010196CD
:1032500061EA75E00E9493440895CF01019668E603
:1032600077E00E9493440895FC018081882339F41B
:10327000CF01019663E974E00E9493440895CF0161
:1032800001966AE177E00E9493440895FC018081F1
:10329000882339F4CF01019669E477E00E949344D2
:1032A0000895CF0101966DE674E00E94934408955D
:1032B000CF93DF93EC01EF96E881F981EF97E73147
:1032C000F105E0F4EE58FF4FEE0FFF1F0590F4916B
:1032D000E02D1994CF5BDF4F8881C154D040882303
:1032E00009F481C184E690E0988B8F8781E08E8716
:1032F00081EC93E162ED76E00E94384FDF91CF914F
:103300000895CE0168EC70E00E94F415CE0101969C
:103310000E942D17CE0143960E94FE18CE014796BB
:103320000E94341981EC93E164EB76E00E94384FFF
:10333000E5CFCE0168EC70E00E94F415CE01439613
:103340000E942219CE0147960E94461981EC93E112
:1033500063E976E00E94384FD1CFCE0101960E94FA
:103360002D178FEF9FEF988B8F8781E08E8781ECF1
:1033700093E162E776E00E94384FC0CFCE0168EC5F
:1033800070E00E94F415CE0101960E943D1781EC79
:1033900093E163E576E00E94384FB0CFCE0168EC50
:1033A00070E00E94F41581EC93E164E376E00E9402
:1033B000384FA4CF84E690E0988B8F8781E08E878A
:1033C00081EC93E163E176E00E94384F97CFCE0124
:1033D00068EC70E00E94F415CE0101960E942D1752
:1033E00081EC93E162EF75E00E94384F87CF188A35
:1033F0001F8681E08E8781EC93E161ED75E00E948C
:10340000384F7CCFCE0168EC70E00E94F415CE01FD
:1034100043960E94FE18CE0147960E943419CE01B1
:1034200001960E941D1781EC93E160EB75E00E940C
:10343000384F64CFCE0168EC70E00E94F415CE01E5
:1034400043960E94FE18CE0147960E94341981ECE3
:1034500093E163E975E00E94384F50CFCE0168ECEC
:1034600070E00E94F41581EC93E168E775E00E943A
:10347000384F44CFCE0168EC70E00E94F415CE01C5
:1034800043960E942219CE0147960E94461981EC6C
:1034900093E161E675E00E94384F30CF8FEF9FEFE8
:1034A000988B8F8781E08E8781EC93E168E475E0EB
:1034B0000E94384F23CFCE0168EC70E00E94F415D3
:1034C000CE0101960E942D1781EC93E16FE275E029
:1034D0000E94384F13CF188A1F8681E08E8781ECB7
:1034E00093E16AE175E00E94384F08CFCE0168ECA5
:1034F00070E00E94F415CE0101960E941D17CE01C6
:1035000043960E94101981EC93E163E075E00E94FC
:10351000384FF4CECE0168EC70E00E94F415CE0175
:1035200001960E941D1781EC93E16BEE74E00E94FE
:10353000384FE4CECE0168EC70E00E94F41581ECC7
:1035400093E161ED74E00E94384FD8CECE0168EC73
:1035500070E00E94F41581EC93E16DEB74E00E9441
:10356000384FCCCECE0168EC70E00E94F415CE014D
:1035700043960E942219CE0147960E94461981EC7B
:1035800093E16BEA74E00E94384FB8CECE0168EC4C
:1035900070E00E94F415CE0143960E94FE18CE0101
:1035A00047960E94341981EC93E163E974E00E942C
:1035B000384FA4CECE0101960E942D178FEF9FEFBA
:1035C000988B8F8781E08E87CE0143960E942219C7
:1035D000CE0147960E94461981EC93E160E874E0C1
:1035E0000E94384F8BCE188A1F8681E08E8780CE4E
:1035F000EF92FF920F931F93CF93DF937C01EB0128
:1036000081EC93E16CED73E00E94384F81EC93E123
:1036100060EF76E00E94194F81EC93E1BE014AE031
:1036200050E00E94FA4EC130D10561F0C330D1059F
:1036300049F0C430D10531F0C530D10519F0C6309C
:10364000D10599F481EC93E16BEF73E00E94384F60
:1036500081EC93E163E177E00E94194F81EC93E103
:10366000BE014AE050E00E94FA4E209709F454C08F
:10367000C730D10509F46DC081EC93E161EA77E0D0
:103680000E94194F8701015C1F4FF8016081718111
:1036900081EC93E14AE050E00E94FA4E81EC93E124
:1036A00066EC77E00E94194FF70164A975A981ECD7
:1036B00093E14AE050E00E94FA4EF8012081318106
:1036C000F9012731310508F5E757FF4FEE0FFF1FCE
:1036D0000590F491E02D1994CD2BB9F4F8011182E5
:1036E000108281EC93E169ED77E00E94194FF801B7
:1036F0006081718181EC93E14AE050E00E94FA4ED2
:10370000F70116AEC7010E945819DF91CF911F91A2
:103710000F91FF90EF90089581EC93E16BEF73E0D0
:103720000E94384F81EC93E16DE377E00E94194FDE
:1037300081EC93E160E070E04AE050E00E94FA4ED4
:103740009BCF279711F781E190E0F8019183808367
:10375000C8CF81EC93E16BEF73E00E94384F81ECAE
:1037600093E16FE677E00E94194F81EC93E167E007
:1037700070E04AE050E00E94FA4E7ECFCD2B29F651
:1037800083E090E0F80191838083ABCFC230D10514
:1037900009F4A4CF239709F0B8CF82E090E0F801B4
:1037A000918380839ECFC130D10509F4B2C02497A4
:1037B00009F0ABCF8BE090E0F8019183808391CF4B
:1037C000CD2B09F0A2CF8EE090E0F80191838083A9
:1037D00088CFCD2B09F099CFB6CFCD2B09F095CF5F
:1037E000F70184A995A904970CF497C021E430E06F
:1037F000E20EF31EF70180812FEB3FEFE20EF31E86
:10380000882309F490C08DE090E0F80191838083D3
:1038100068CFCD2B09F079CF86E190E0F801918354
:1038200080835FCF279709F070CF8AE090E0F8019E
:103830009183808356CF279709F067CF8FE090E080
:10384000F801918380834DCF259709F05ECF82E107
:1038500090E0F8019183808344CFCD2B09F055CFC0
:10386000F70184A995A9019695AB84AB26E030E0D9
:10387000F8013183208304970CF433CF85E090E086
:10388000918380832ECFCD2B09F03FCF84E090E051
:10389000F8019183808325CFCD2B09F036CF89E0C5
:1038A00090E0F801918380831CCF279709F02DCFFA
:1038B00088E090E0F8019183808313CFCD2B09F04D
:1038C00024CF87E090E0F801918380830ACF269788
:1038D00009F01BCF83E190E0F80191838083F70129
:1038E00015AA14AA2331310509F0FBCE0ECFCD2B3A
:1038F00009F00BCF80E190E0F80191838083F1CE55
:10390000279709F002CF84E190E0F801918380834A
:10391000E8CEF801D183C083E4CE85E190E0F801E0
:1039200091838083DECE8CE090E0F80191838083E8
:10393000D8CE6CED75E00E94934408956CED75E06F
:103940000E949344089564ED74E00E9493440895A6
:1039500068EE73E00E949344089563E875E00E9466
:10396000934408950F931F938C01039660ED77E0C5
:103970000E949344C80160ED77E00E9493441F9138
:103980000F9108950F931F938C01039668EE73E0D7
:103990000E949344C80168EE73E00E9493441F9113
:1039A0000F910895FC018081882339F4CF0101969D
:1039B00064EC77E00E9493440895CF0101966CE88F
:1039C00075E00E9493440895FC018081882339F4B6
:1039D000CF0101966DE674E00E9493440895CF01F3
:1039E000019661E478E00E94934408950F931F9339
:1039F0008C0103966CE677E00E949344C80164ED65
:103A000074E00E9493441F910F9108950F931F93A8
:103A10008C01039665E478E00E949344C80160E35A
:103A200074E00E9493441F910F910895CF93DF9308
:103A3000EC018985882341F08A859B852FEF8F3F94
:103A4000920781F0892B19F0DF91CF910895CE0173
:103A500003960E9464448823E9F4CE010E94F8167C
:103A60001D86F2CFCE0106960E9464448823F9F0A9
:103A7000CE010E94F316198681E08D878C858823FC
:103A8000D9F01092DE101092DF101092E010109218
:103A9000E110DACFCE010E94F31681EC93E16AE4E3
:103AA00078E00E94384F198681E08D87CDCFCE0116
:103AB0000E940D171D86C8CF1092DA101092DB10ED
:103AC0001092DC101092DD10BFCF0F931F93CF9395
:103AD000DF93EC018C01055E1F4FC8010E94601648
:103AE000CE0105960E94161DC8010E9460168E0127
:103AF000045D1F4FC8010E94E23F882329F4DF9133
:103B0000CF911F910F910895C8010E940140CE01ED
:103B10000E94CE15882371F48A89882381F31A8A3A
:103B2000CE0167E070E00E94F81ADF91CF911F91FB
:103B30000F910895CE0160E070E00E94F81AECCF7A
:103B4000EF92FF920F931F93CF93DF93EC0189962F
:103B50000E94651DCE0185599F4F0E94651D8E01F3
:103B60000A5F1F4FC8010E94D1189FE9E92EF12C6E
:103B7000EC0EFD1EF701808191811816190634F4B0
:103B8000FE01E154FF4F80818823B9F58E01035A6D
:103B90001F4FF801808191811816190634F4FE0137
:103BA000E254FF4F8081882339F4DF91CF911F9138
:103BB0000F91FF90EF9008951082CE014E960E94D3
:103BC000F41881EC93E161EA78E00E94194FF80162
:103BD0006081718181EC93E14AE050E00E94FA4EED
:103BE00081EC93E169EC78E00E94384FDF91CF914E
:103BF0001F910F91FF90EF9008951082C80162E02D
:103C000070E00E940B1881EC93E163E578E00E947C
:103C1000194FF7016081718181EC93E14AE050E036
:103C20000E94FA4E81EC93E16BE778E00E94384FF6
:103C3000ADCFCF93DF93EC018C85882369F581ECC0
:103C400093E169E879E00E94384F81EC93E16AEAF8
:103C500079E00E94194FCE0106960E946444682FB5
:103C600081EC93E170E04AE050E00E94FA4E81EC72
:103C700093E169EC79E00E94194FCE0103960E940E
:103C80006444682F81EC93E170E04AE050E00E94C8
:103C9000FA4EDF91CF91089581EC93E16FEE78E0D9
:103CA0000E94384F81EC93E164E279E00E94194F61
:103CB000CE0106960E946444682F81EC93E170E087
:103CC0004AE050E00E94FA4E81EC93E167E579E02A
:103CD000D2CF05960E94191E08951F93CF93DF93AC
:103CE000EC01162F0E9479441B83112391F4CE011D
:103CF00069E270E00E948D4581EC93E16CEF79E020
:103D00000E94384FCE010E942D17DF91CF911F9155
:103D10000895CE016AE270E00E948D4581EC93E146
:103D200067EE79E00E94384FCE010E942D17DF9197
:103D3000CF911F9108950F931F93182F092F0E9461
:103D40007944812F902F68E270E00E948D45812F89
:103D5000902F0E94521781EC93E161E17AE00E947A
:103D6000384F1F910F9108950F931F93182F092F0C
:103D70000E947944812F902F67E270E00E948D4568
:103D8000812F902F0E94571781EC93E165E27AE032
:103D90000E94384F1F910F9108950F931F93182F72
:103DA000092F0E947944812F902F66E270E00E94D3
:103DB0008D45812F902F0E94611781EC93E16BE379
:103DC0007AE00E94384F1F910F9108950F931F932F
:103DD0008C010E949B1EC80103960E94B41EC8015C
:103DE00006960E94CD1EF801158617861686C80114
:103DF000409664E670E00E940E4081EC93E16AE434
:103E00007AE00E94384F1F910F9108950F931F93EE
:103E1000182F092F0E947944812F902F65E270E0BE
:103E20000E948D45812F902F0E94F91881EC93E11B
:103E30006DE57AE00E94384F1F910F910895EF923F
:103E4000FF921F93CF93DF937C01162FEC012196F5
:103E5000CE010E947944F70110831123A1F4CE0111
:103E600060E270E00E948D4581EC93E16AE87AE0BF
:103E70000E94384FC7010E942219DF91CF911F91F4
:103E8000FF90EF900895CE0161E270E00E948D45B1
:103E900081EC93E160E77AE00E94384FEBCFEF923C
:103EA000FF921F93CF93DF937C01162FEC01219695
:103EB000CE010E947944F70110831123A1F4CE01B1
:103EC0006EE170E00E948D4581EC93E16EEB7AE04B
:103ED0000E94384FC7010E944619DF91CF911F9170
:103EE000FF90EF900895CE016FE170E00E948D4544
:103EF00081EC93E164EA7AE00E94384FEBCF0F93B4
:103F00001F93182F092F0E947944812F902F6FE063
:103F100070E00E948D45812F902F0E949E1C81ECA5
:103F200093E168ED7AE00E94384F1F910F91089558
:103F30000F931F93182F092F0E947944812F902FE0
:103F400064E270E00E948D45812F902F0E94AD1C8D
:103F500081EC93E162EE7AE00E94384F1F910F915D
:103F60000895EF92FF920F931F938C010E94794462
:103F700023E0E22EF12CE00EF11EC7010E947944ED
:103F8000C70163E270E00E948D45C80162E270E003
:103F90000E948D45C8010E94C21C81EC93E16EEE27
:103FA0007AE00E94384F1F910F91FF90EF90089593
:103FB000EF92FF921F93CF93DF937C01162FEC01BA
:103FC0002196CE010E947944F70110831123A1F4B8
:103FD000CE0160E170E00E948D4581EC93E16CE0E0
:103FE0007BE00E94384FC7010E94E41CDF91CF9113
:103FF0001F91FF90EF900895CE0161E170E00E9463
:104000008D4581EC93E169EF7AE00E94384FEBCF68
:10401000EF92FF920F931F938C010E94794443E02B
:10402000E42EF12CE00EF11EC7010E947944C70175
:1040300064E370E00E948D45C80162E370E00E9475
:104040008D45C8010E94061D81EC93E16FE17BE084
:104050000E94384F1F910F91FF90EF900895CF92DB
:10406000DF92EF92FF921F93CF93DF93EC01162F15
:104070007A0169010E947944CE010396B7010E943A
:104080005944CE010696B6010E9459441D861C87EC
:10409000112341F5CE0168E170E00E948D4581EC6D
:1040A00093E167E47BE00E94384FCE010E940D1738
:1040B00068EC70E080E090E00E941E53CE010E9408
:1040C000F81664E670E080E090E00E941E53CE0196
:1040D0000E940817DF91CF911F91FF90EF90DF9022
:1040E000CF900895CE0169E170E00E948D4581EC8A
:1040F00093E166E37BE00E94384FD7CFCF92DF9207
:10410000EF92FF921F93CF93DF93EC01162F7A016A
:10411000690101960E946D1ECE010596612FA701CF
:1041200096010E942F20CE014396612F0E941F1FEF
:10413000CE014796612F0E944F1FCE014B96612FF3
:104140000E94E416CE018C9662E370E00E940E405D
:104150001DAA1CAA18AE19AE1EAEEF96199219929E
:104160001882C154D04018831FAA1EAA1123A1F49B
:1041700081EC93E16AE77BE00E94384F8FEF9FEF7D
:10418000988B8F8781E08E87DF91CF911F91FF9071
:10419000EF90DF90CF90089581EC93E168E57BE0AC
:1041A0000E94384FEBCF0F931F938C010E94082081
:1041B000C80106960E94E61EC8014E960E94061F80
:1041C000C801819660E00E94D81FC801859661E011
:1041D0000E94D81FC801899660E04BE150E029E0B9
:1041E00030E00E947E20C80185599F4F61E04DE17B
:1041F00050E02CE130E00E947E20C80183559F4FA3
:104200000E947F1FC80180559F4F0E94981FC801C0
:104210008D549F4F0E94B11F02541F4F81E0F8013F
:104220008193808381EC93E16CE97BE00E94384FBD
:104230001F910F910895CB0108958EEF90E16AE0F0
:1042400070E00E94594481E091E16EE070E00E94CC
:10425000594484E091E16BE070E00E94594487E0AA
:1042600091E16CE070E00E94594408958091F4104F
:104270009091F5100E9480398091F6109091F7107E
:104280000E94C70A8091F2109091F3100E94A01D25
:1042900061E070E080E090E00E941E5308958F92EC
:1042A0009F92AF92BF92CF92DF92EF92FF920F93C5
:1042B0001F9321E0C22E21E1D22EC6010E945E444E
:1042C00094E0A92E91E1B92EC5010E945E4487E0D9
:1042D000882E81E1982EC4010E945E4483E160E053
:1042E0000E94E05382E160E00E94E05383E161E0DC
:1042F0000E94A25482E161E00E94A25486E160E043
:104300000E94E05387E160E00E94E05386E161E0B3
:104310000E94A25486E161E00E94A25485E06DE211
:1043200075E143E050E00E94985084E06AED74E14A
:1043300043E050E00E94985082E061E00E94E05328
:1043400083E061E00E94E05382E060E00E94A254BA
:1043500083E060E00E94A25484E061E00E94E053A8
:1043600085E061E00E94E05384E060E00E94A25496
:1043700084E060E00E94A25401EC13E1C80140E82F
:1043800055E260E070E00E94164BC80167ED7BE0EB
:104390000E94384FC80165EE7BE00E94384F80ECE8
:1043A00090E00E94974DF82EE92E0E94D320F092C3
:1043B000F210E092F310C80168EF7BE00E94384FE2
:1043C00085E091E00E94974DF82EE92E0E94060BA1
:1043D000F092F610E092F710C80160E07CE00E94D5
:1043E000384F8BE490E00E94974DF82EE92E6091B3
:1043F000F6107091F7104091F2105091F3100E9456
:10440000AC28F092F410E092F510C8016BE07CE06B
:104410000E94384FC80160E27CE00E94384FC8011A
:1044200061E27CE00E94384F82E090E09093F910C6
:104430008093F8101092FA101092FB101092FC105A
:104440001092FD10C8016AE37CE00E94384FC80159
:1044500064E47CE00E94194F8EEF90E10E94644476
:10446000682FC80170E04AE050E00E94FA4EC8018F
:104470006FE47CE00E94194FC6010E946444682FDB
:10448000C80170E04AE050E00E94FA4EC8016CE5B5
:104490007CE00E94194FC5010E946444682FC80146
:1044A00070E04AE050E00E94FA4EC80169E67CE004
:1044B0000E94194FC4010E946444682FC80170E033
:1044C0004AE050E00E94FA4E1F910F91FF90EF904A
:1044D000DF90CF90BF90AF909F908F900895FC0198
:1044E0008EE790E1918380830895FC01A081B181E2
:1044F00016978D919C918E0F9F1F0E948022089588
:10450000FC018CE690E1918380838EE790E19783B4
:1045100086830895DC0113968D919C911497892BC5
:1045200091F01596ED91FC91169717968D919C91AF
:104530001897E817F90739F0819190E01696FC93E7
:10454000EE9315970895ED91FC9111970488F589E4
:10455000E02DCD0119950895FC0186EA90E1918343
:1045600080830895CF93DF93EC01E881F98102887D
:10457000F389E02D19959C018FEF2F3F380729F023
:104580008D819E8101969E838D83C901DF91CF919C
:104590000895CB010895DC0113968D919C91149799
:1045A000892B71F01596ED91FC91169717968D91C8
:1045B0009C911897E817F90719F0808190E0089509
:1045C000ED91FC9111970288F389E02DCD011995A9
:1045D00008958FEF9FEF089580E090E0089508958B
:1045E0000895DC01242FED91FC910084F185E02DEC
:1045F00041E01995089580E090E00895FC0122893A
:10460000338980899189281B390B86899789281BD2
:10461000390BC9010895CF92DF92EF92FF920F9369
:104620001F93CF93DF93EC016B0179018A01AE896F
:10463000BF89688979898A899B89861B970BA81706
:10464000B90778F020E030E040E050E0B901CA015D
:10465000DF91CF911F910F91FF90EF90DF90CF905E
:104660000895121613061406150664F720E030E0CC
:1046700040E050E0F601E20FF31F6A0F7B1FDB0101
:104680008C9180832F5F3F4F4F4F5F4FAE89BF8923
:104690001196BF8BAE8B688979898A899B89861B25
:1046A000970BA817B90790F62E153F05400751073D
:1046B0006CF6E0CFFC0126893789A089B18982890F
:1046C00093898A1B9B0B2817390738F4A20FB31F55
:1046D0008C91282F30E0C90108952FEF3FEFC901D9
:1046E0000895CF93DF93EC01E881F9810288F38983
:1046F000E02D19959C018FEF2F3F380729F08E8907
:104700009F8901969F8B8E8BC901DF91CF91089570
:10471000CF93DF93DC0156964D915C9157974115ED
:10472000510511F15096CD91DC91519752962D91F2
:104730003C9153972C1B3D0B24173507B0F18FEF9D
:104740006F3F7807B9F0FE01E40FF51F31978081C4
:104750008617E1F44150504057965C934E9356971C
:10476000CB01DF91CF9108956FEF7FEFCB01DF9108
:10477000CF9108954150504057965C934E93569771
:1047800060E070E0CB01DF91CF9108951F968C918E
:104790001F9784FFE9CFCA01019757969C938E9388
:1047A0005697C80FD91F6883DBCF57963C932E933B
:1047B00056976FEF7FEFD4CF80E090E0089580E0D0
:1047C00090E0089580E090E0089580E090E0089502
:1047D00060E070E080E090E008956F927F929F9299
:1047E000AF92BF92CF92DF92EF92FF920F931F93FF
:1047F000CF93DF93EC013B0159016A0112161306B6
:10480000140615060CF050C0EE24FF24870117C0D3
:10481000EB85FC858D859E85E817F90748F5908224
:104820008B859C8501969C878B870894E11CF11CE5
:10483000011D111DEA14FB040C051D05ACF5F30167
:10484000EE0DFF1D90808F8580FFE2CFE881F9811A
:104850000084F185E02DCE0160E070E044E020E1CD
:104860001995EB85FC858D859E85E817F907B8F2CB
:10487000E881F981028CF38DE02DCE01692D70E085
:1048800019958F5F9F4F89F6B701C801DF91CF91CE
:104890001F910F91FF90EF90DF90CF90BF90AF905E
:1048A0009F907F906F90089586017501EDCFCB01A9
:1048B0000895FC01A081B18116978D919C918E0F76
:1048C0009F1F0E9464240895FC018CE690E191836F
:1048D00080838EE790E197838683CF010E94944D79
:1048E0000895FC018EE790E191838083CF010E94BF
:1048F000944D0895FC0186EA90E191838083CF0175
:104900000E94944D0895CF93DF93EC0186E890E1E7
:1049100099838883288939898C899D89821793078F
:1049200019F0C9010E94540286EA90E199838883B4
:10493000DF91CF910895CF93DF93EC0186E890E16A
:1049400099838883288939898C899D89821793075F
:1049500019F0C9010E94540286EA90E19983888384
:10496000CE010E94944DDF91CF910895FC01A0816A
:10497000B18116978D919C918E0F9F1F0E94C1242B
:104980000895CF93DF93EC0184E490E199838883C9
:104990000A9699A388A386E890E19F838E832E8947
:1049A0003F898A8D9B8D8217930719F0C9010E9458
:1049B000540286EA90E19F838E83E0913810F09153
:1049C0003910F983E88336970190F081E02DEC0FE0
:1049D000FD1F80913A1090913B10918380838EE768
:1049E00090E199A388A3CE010E94944DDF91CF91CD
:1049F0000895FC01A081B18116978D919C918E0F35
:104A00009F1F0E9404250895CF93DF93EC0184E457
:104A100090E1998388830A9699A388A386E890E118
:104A20009F838E832E893F898A8D9B8D8217930762
:104A300019F0C9010E94540286EA90E19F838E8397
:104A4000E0913810F0913910F983E883369701909E
:104A5000F081E02DEC0FFD1F80913A1090913B10FA
:104A6000918380838EE790E199A388A3DF91CF9112
:104A70000895AF92BF92CF92DF92EF92FF920F9381
:104A80001F93CF93DF936C01DC011296ED91FC91A3
:104A900013974D915C91DF01A41BB50BCB016A17F5
:104AA0007B0708F4CD015C010894A11CB11CA11482
:104AB000B104C9F5EE24FF248F01041B150BC701B7
:104AC000BA01A8010E94D702E701C00FD11F81E0FF
:104AD00090E0BE010E941B21FC0110821882F601A9
:104AE00020813181848195818217930719F0C90152
:104AF0000E945402D6011196FC92EE921396DC931A
:104B0000CE931297AE0CBF1C1596BC92AE92149722
:104B1000DF91CF911F910F91FF90EF90DF90CF9099
:104B2000BF90AF900895C5010E94AA01009779F047
:104B30007C01D6011296ED91FC9113974D915C91F9
:104B4000BBCF1995C5010E94AA01009789F7E09192
:104B50000A11F0910B113097A1F780E090E00E94CC
:104B6000DC58FF920F931F93CF93DF938C01F62EA7
:104B7000DC0112962D913C911397E9012196149630
:104B80008D919C911597C817D907E9F081E090E0C5
:104B9000BE010E941B21FC0110821882D8011296CE
:104BA000ED91FC911397F08212968D919C91139741
:104BB000019613969C938E931297DF91CF911F913C
:104BC0000F91FF9008958D919C91F901E81BF90BCD
:104BD000CF0171F461E070E0680F791FC8010E9495
:104BE0003925D8011296CD91DC9113972196CECF1D
:104BF000BF01F2CF0F931F93CF93DF938C01EB0193
:104C00008FEF6F3F780741F4C0E0D0E0CE01DF9135
:104C1000CF911F910F910895D8011F968C9184FF19
:104C20001AC0F801208D318D0088F189E02DD8015E
:104C300052968D919C9153978E1B9F0B2817390785
:104C400068F4E20FF31F6083F801808D918D019667
:104C5000918F808FDBCFCFEFDFEFD8CFC8014096A9
:104C60000E94B125F1CFDF92EF92FF920F931F9335
:104C7000CF93DF93EC017B01D42E88819981EA8167
:104C8000FB81E81BF90BAB014E0F5F1F2C813D81AF
:104C900021503040281B390B2417350740F4EE16FD
:104CA000FF06A0F16E0F7F1FCE010E943925E1148F
:104CB000F10419F12A813B81C90101962E0D3F1D96
:104CC000281B390B6D2D70E0A9010E94E9020A81B1
:104CD0001B810E0D1F1D81E090E0B8010E941B2179
:104CE000FC011082F8011082EA81FB81D0828A8166
:104CF0009B818E0D9F1D9B838A83CE01DF91CF9177
:104D00001F910F91FF90EF90DF900895BF01CACFE0
:104D10000F931F93CF93DF93EC0130E0C9018871AB
:104D20009070489709F486C0C9018870907020710E
:104D30003070413009F455C04230B1F1AA89BB89C5
:104D4000E889F989AD014E1B5F0B8B01040F151F1C
:104D500040175107F0F1892B11F01F8B0E8B232B7D
:104D6000E1F09D012E1B3F0B2017310708F042C0D8
:104D7000B801621B730BCE01409640E00E943326BF
:104D8000888999892A893B89281B390B8E899F89B3
:104D90002817390710F43F8B2E8BB801CB01DF9118
:104DA000CF911F910F91089521153105C9F500E0AC
:104DB00010E0E889F989AA89BB89009721F00E895A
:104DC0001F89060F171FAD014E1B5F0B40175107C0
:104DD00010F66FEF7FEFCB01DF91CF911F910F9115
:104DE00008958B01E889F989AA89BB89AD014E1B19
:104DF0005F0BAECFE00FF11FAE17BF0739F28C91FA
:104E00008083EA1BFB0B8A899B898E0F9F1F9B8BDC
:104E10008A8B28893989AC01421B530B9A01B6CF82
:104E2000AA89BB89E889F9898D010E1B1F0B060F22
:104E3000171FC3CF423009F077CFCBCF8F929F920D
:104E4000BF92CF92DF92EF92FF920F931F93CF9377
:104E5000DF936C017B01DC01ED91FC9136970190B1
:104E6000F081E02DE80FF91FC189D2892097F9F070
:104E7000E881F98136970190F081E02DEC0FFD1F5C
:104E8000A389B489ED91FC9111970484F585E02DF7
:104E9000CD0119958F5F9F4F09F4BFC0D601ED91E9
:104EA000FC9136970190F081E02DEC0DFD1D83897A
:104EB00094890E94CB22BFEF8F3F9B0709F48CC0DF
:104EC0000E949A58892B09F09AC0D601ED91FC9165
:104ED000369720813181F601E20FF31F8388948891
:104EE000D701ED91FC91119712968D919C9113979A
:104EF000E817F90771F010828D919C911197139624
:104F00009C938E931297D601ED91FC913697208158
:104F10003181F9013296EC0DFD1D228533854485E2
:104F200055851286138614861586E90121153105EB
:104F300009F0C6C00EEF1FEF1EC081E090E0BE0179
:104F40000E941B21FC0110821882D7011296ED915C
:104F5000FC911397B08212962D913C9113972F5F7D
:104F60003F4F13963C932E9312970115110509F4A8
:104F700092C001501040C4010E948A22BFEF8F3FAF
:104F80009B0709F4A3C0B82E992787FD90950E942E
:104F90009A58892B09F04DC0F70122813381E9012C
:104FA000219684819581C817D90739F6808191812E
:104FB000A901481B590BCA0109F080C061E070E0EB
:104FC000680F791FC7010E943925D7011296CD912C
:104FD000DC9113972196B1CFD601ED91FC913697D4
:104FE0000190F081E02DEC0DFD1D2581322F326006
:104FF00083899489892B09F490C0358366CFD601C3
:10500000ED91FC9136970190F081E02DEC0DFD1DA6
:10501000838994890E948A2241CFE881F981369759
:105020000190F081E02DEC0FFD1F2581216025838B
:1050300035CFF401238134812115310551F085816B
:1050400096812817390729F0FC018291B81609F4D6
:105050006FC0D401ED91FC910688F789E02DC40161
:105060006B2D70E019958F5F9F4F91F4D601ED91F4
:10507000FC9136970190F081E02DEC0DFD1D25810E
:10508000322F346083899489892B09F449C0358390
:10509000F70122813381F701808191812817390737
:1050A00051F1C601DF91CF911F910F91FF90EF90C9
:1050B000DF90CF90BF909F908F900895BA0180CFDE
:1050C000C701B9010E9439258E0153CFD601ED9158
:1050D000FC9136970190F081E02DEC0DFD1D2581AE
:1050E000322F326083899489892B59F13583F701F6
:1050F00022813381D0CFD601ED91FC91369701907A
:10510000F081E02DEC0DFD1D2581322F3460838967
:105110009489892BF1F03583C4CF23602583D5CEC4
:1051200025602583D70112962D913C911397B3CF1B
:10513000D4011696FC93EE931597F70122813381E3
:10514000AACF23602583D70112962D913C91139706
:10515000A2CF25602583A5CFCF92DF92EF92FF9259
:105160000F931F93CF93DF93EC017B016A0162E3FE
:1051700070E00E940E40198618861B861A861D86CE
:105180001C861F861E8688E090E00E94AA01009778
:1051900009F4BDC08A879B878C879D878A859B85FC
:1051A00008969F878E870C851D8581E090E0B80169
:1051B0000E941B21FC011082F8011082BE01695E71
:1051C0007F4F41E250E01FAA18AE86E090E0A0E0D9
:1051D000B0E089AF9AAFABAFBCAFED961992199220
:1051E0001992199280E2899319821882C254D04090
:1051F0005DAB4CABCC5BDF4F79836883C454D0404C
:105200001EAACA5BDF4F1882C654D040E091381006
:10521000F0913910FA8BE98B9E012F5E3F4F369744
:105220000190F081E02DE20FF31F80913A109091F0
:105230003B10918380831B8A1C8A1D8A1E8AE98900
:10524000FA8936970190F081E02DE20FF31F548325
:105250004383748B638B1582158A84E490E19A8B67
:10526000898B0A969AAB89AB1B8E1A8E1D8E1C8E6B
:105270001F8E1E8E19A218A21BA21AA21DA21CA26A
:105280001EA286E890E1988F8F8B18A61FA21AA6FF
:1052900019A61CA61BA688E090E00E94AA01009710
:1052A00009F447C08FA398A789A79AA78FA198A5AB
:1052B00008969CA78BA709A51AA581E090E0B801E4
:1052C0000E941B21FC011082F80110821EA61DA65F
:1052D00018AA1FA688E08EA3C95BDF4FE992F99256
:1052E000D982C882C954D04081E0888BDF91CF91A8
:1052F0001F910F91FF90EF90DF90CF900895199537
:1053000088E090E00E94AA01009709F043CFE09165
:105310000A11F0910B11309791F780E090E00E9414
:10532000DC58199588E090E00E94AA01009709F0E6
:10533000B9CFE0910A11F0910B11309791F7EDCFB1
:105340008F929F92AF92BF92CF92DF92EF92FF9295
:105350000F931F93CF93DF937C018B016A01DC01D4
:105360004D915C91119712962D913C911397241BAE
:10537000350BE601C61BD70B2C173D0708F075C08F
:10538000CA01A9010E94CE02D7011296ED91FC91AB
:1053900013976D917C911197AF01461B570B5801E4
:1053A000A40EB51ECA14DB0409F451C0E601CA19E3
:1053B000DB099E01240F351F14968D919C91159742
:1053C0000197861B970B8217930708F081C09A01FB
:1053D0002F5F3F4FCE01C431D10508F463C04901AE
:1053E000880E991E8114910409F065C0CC24DD2437
:1053F0008F01061B170BC601A8010E94D7020C0DD6
:105400001D1DC801B501AE010E94D702C00FD11FFA
:1054100081E090E0BE010E941B21FC0110821882F5
:10542000D7012D913C91119714968D919C911597D0
:105430008217930719F0C9010E945402F701D18223
:10544000C082D383C2838C0C9D1C95828482C70149
:10545000DF91CF911F910F91FF90EF90DF90CF9050
:10546000BF90AF909F908F900895CA01AE010E94A7
:10547000CE02D701ED91FC911197EC0FFD1F129612
:105480000D90BC91A02DEA17FB0709F38C91808346
:10549000EA1BFB0BE7018A819B818E0F9F1F9B8379
:1054A0008A83D5CF84E190E04901880E991E81144A
:1054B000910409F49BCFC4010E94AA010097C1F195
:1054C0006C01F701608171810280F381E02D90CF42
:1054D000B5016F5F7F4FC61AD70ACF010196A601AB
:1054E0000E94D702D70112960D911C9113970C0FB1
:1054F0001D1F81E090E0B8010E941B21FC01108279
:10550000F8011082D7011296ED91FC911397D50105
:105510008C918083F701828193818C0F9D1F9383EF
:10552000828395CF1995C4010E94AA01009741F684
:10553000E0910A11F0910B113097A1F780E090E013
:105540000E94DC583F924F925F926F927F928F92AF
:105550009F92AF92BF92CF92DF92EF92FF920F9302
:105560001F93DF93CF93CDB7DEB728970FB6F8948C
:10557000DEBF0FBECDBF3C018AE0482E512C460C49
:10558000571CCE01019698878F8381EC93E10E948E
:10559000A54B181619062CF4F301808591854C97BC
:1055A000C4F028960FB6F894DEBF0FBECDBFCF91E2
:1055B000DF911F910F91FF90EF90DF90CF90BF9000
:1055C000AF909F908F907F906F905F904F903F90A3
:1055D000089581EC93E10E94D74B382EFAE08F17A3
:1055E00009F445C1D3011C960D911C911D971A9683
:1055F0008D919C911B97081B190B0E5F1F4F1A82F0
:1056000019821C821B821E821D82BFEF0F3F1B0767
:1056100071F00115110509F00BC180E090E09A834B
:1056200089839C838B83080F191F1E830D830B8135
:105630001C8181E090E0B8010E941B21FC011082D6
:10564000F8011082D3011A968D909C901B971C969E
:10565000ED91FC911D978E169F0609F403C14B81B5
:105660005C8169817A81DA01A61BB70B6F01C818CA
:10567000D90896012A0F3B1F8D819E810197861BB9
:10568000970B8217930708F079C09D012F5F3F4F5A
:10569000C601B4E1CB16D10410F484E190E05901C5
:1056A000A80EB91EA114B10409F0A7C0EE24FF246E
:1056B0008A01061B170BC701A8010E94D7020E0D15
:1056C0001F1DC801B401A6010E94D7020C0D1D1DAB
:1056D00081E090E0B8010E941B21FC011082F801DA
:1056E000108229813A818D819E818217930719F05A
:1056F000C9010E945402FA82E9821C830B83AE0C1A
:10570000BF1CBE82AD82A8018A010F5F1F4F8D8131
:105710009E810817190709F45CC081E090E0B80188
:105720000E941B21FC011082F8011082EB81FC8198
:1057300030824B815C814F5F5F4F5C834B838F81F5
:1057400098858415950529F069817A81C2010E94A6
:10575000A02929813A818D819E818217930719F0B2
:10576000C9010E945402D30118968D919C911997FA
:10577000019619969C938E93189707CFB4016F5F8B
:105780007F4FE61BF70BCA010196AF010E94D702BB
:105790000B811C810C0D1D1D81E090E0B8010E9461
:1057A0001B21FC011082D8011C92EB81FC81D401E9
:1057B0008C9180834B815C814C0D5D1D5C834B83A0
:1057C0008A010F5F1F4F8D819E810817190709F00D
:1057D000A4CF89819A818A01081B190B09F045C061
:1057E00061E070E0600F711FCE0101960E943925C3
:1057F0000B811C810F5F1F4F90CFC5010E94AA0132
:10580000009761F07C014B815C8169817A8150CF86
:105810001995C5010E94AA010097A1F7E0910A110C
:10582000F0910B113097A1F780E090E00E94DC58D6
:10583000C8010E94AA01009709F0F1CEE0910A1177
:10584000F0910B11309781F31995C8010E94AA01BC
:10585000009709F0E4CEE0910A11F0910B11309716
:1058600099F7E2CF4B815C814FCFB801BBCFD30119
:1058700018968D919C911997181619061CF4F3012E
:10588000108A8FCE81E050968C938BCEAF92BF92D0
:10589000CF92DF92EF92FF920F931F93DF93CF93FC
:1058A000CDB7DEB762970FB6F894DEBF0FBECDBF9F
:1058B0007C015B01DC01ED91FC9136970190F08158
:1058C000E02DE80FF91F018912890115110501F179
:1058D000D801ED91FC9136970190F081E02DE00F19
:1058E000F11FA389B489ED91FC9111970484F5858A
:1058F000E02DCD0119958F5F9F4F09F480C1D7012D
:10590000ED91FC9136970190F081E02DEE0DFF1D99
:10591000838994890E94CB22BFEF8F3F9B0709F4B4
:10592000DDC00E949A58892B09F0EBC01A821982B7
:105930001C821B821E821D8288E090E00E94AA01C8
:105940008C01009709F4C0C01A8309831C830B8360
:10595000085F1F4F1E830D830850104081E090E0C8
:10596000B8010E941B21FC011082F8011082D701AE
:10597000ED91FC9136970190F081E02DEE0DFF1D29
:10598000838185FFCCC018861F821A8619861C86E3
:105990001B8688E090E00E94AA01009709F419C1D3
:1059A0008F83988789879A878F81988508969C87A7
:1059B0008B8709851A8581E090E0B8010E941B2140
:1059C000FC011082F801108227E0C22ED12CCC0EEF
:1059D000DD1ED701ED91FC9136970190F081E02D0D
:1059E000EE0DFF1D838994890E94CB228C01BFEFAD
:1059F0008F3F9B0789F00E949A58892B69F4C80150
:105A0000C0970A9708F43FC10E32110509F43BC153
:105A10000C32110509F437C149855A856F817885A3
:105A20004617570709F473C1CE0101960E94A029B9
:105A30002F8138858B859C858217930719F0C901C2
:105A40000E94540200D000D0EDB7FEB73196898194
:105A50009A81ADB7BEB712969C938E93119786E745
:105A60009CE093838283B582A4820E94F802EDB702
:105A7000FEB736960FB6F894FEBF0FBEEDBF298174
:105A80003A818D819E818217930719F0C9010E9486
:105A90005402C70162960FB6F894DEBF0FBECDBFA9
:105AA000CF91DF911F910F91FF90EF90DF90CF90FA
:105AB000BF90AF900895199588E090E00E94AA01E8
:105AC0008C01009709F040CFE0910A11F0910B1181
:105AD000309789F780E090E00E94DC58D701ED9183
