:100000000C9405030C94EA540C941B550C944C5519
:100010000C947D550C94AE550C94DF550C941056F1
:100020000C9441560C9432030C9432030C9432031A
:100030000C9432030C9432030C9432030C9432036C
:100040000C9432030C9459490C9432030C943203EF
:100050000C9432030C9432030C9432030C947256B9
:100060000C9432030C94934C0C94DF4D0C9432039B
:100070000C9432030C9432030C9432030C9432032C
:100080000C94C24B0C9432030C9432030C94320344
:100090000C94D34C0C941E4E0C9432030C943203EB
:1000A0000C9432030C9432030C94F24A0C943203F5
:1000B0000C9432030C9432030C9432030C94294AAE
:1000C0000C9432030C9432030C9432030C94134DB1
:1000D0000C945D4E0C9432030C94534D0C949C4E36
:1000E0000C9432036A1B561B461B3A1B2E1B1E1B0D
:1000F0000A1BFD1AED1AE21ACE1AC21AAE1A961A85
:10010000891A791A6C1A5B1A4B1A3C1A281A101A97
:10011000E919FD19FD19FD19FD19FD19FD19FD1943
:10012000FD19FD19FD19FD19FD19FD19FD19FD191F
:10013000FD19FD19FD19FD19FD19FD19FD19FD190F
:10014000FD19FD19FD19FD19FD19FD19FD19FD19FF
:10015000FD19FD19FD19FD19FD19FD19FD19FD19EF
:10016000FD19FD19FD19FD19FD19FD19FD19FD19DF
:10017000FD19FD19FD19FD19FD19FD19FD19FD19CF
:10018000FD19FD19FD19FD19FD19FD19FD19FD19BF
:10019000FD19FD19FD19FD19FD19FD19FD19FD19AF
:1001A000FD19FD19FD19FD19FD19FD19FD19FD199F
:1001B000FD19FD19FD19FD19FD19FD19FD19FD198F
:1001C000FD19FD19FD19FD19FD19FD19FD19FD197F
:1001D000FD19FD19FD19FD19FD19FD19FD19FD196F
:1001E000FD19FD19FD19FD19FD19FD19FD19FD195F
:1001F000FD19FD19FD19FD19FD19FD19FD19FD194F
:10020000FD19FD19FD19FD19FD19FD19FD19FD193E
:10021000FD19FD19FD19FD19FD19FD19FD19FD192E
:10022000FD19FD19FD19FD19FD19FD19FD19FD191E
:10023000FD19FD19FD19FD19FD19FD19FD19FD190E
:10024000FD19FD19FD19FD19FD19FD19FD19FD19FE
:10025000FD19FD19FD19FD19FD19FD19FD19FD19EE
:10026000FD19FD19FD19FD19FD19FD19FD19FD19DE
:10027000FD19FD19FD19FD19FD19FD19FD19FD19CE
:10028000FD19FD19FD19FD19FD19FD19FD19FD19BE
:10029000FD19FD19FD19FD19FD19FD19FD19FD19AE
:1002A000001A651D591D501D401D2A1D231D1A1DB4
:1002B000111D081DFF1CEA1CCE1C051CC51CBC1C06
:1002C000B31C461CAA1C911C881C6F1C661C461C77
:1002D000281C281C281C281C281C281C281C281CFE
:1002E000281C281C281C281C281C281C281C281CEE
:1002F000281C281C281C281C281C281C281C281CDE
:10030000281C281C281C281C281C281C281C281CCD
:10031000281C281C281C281C281C281C281C281CBD
:10032000281C281C281C281C281C281C281C281CAD
:10033000281C281C281C281C281C281C281C281C9D
:10034000281C281C281C281C281C281C281C281C8D
:10035000281C281C281C281C281C281C281C281C7D
:10036000281C281C281C281C281C281C281C281C6D
:10037000281C281C281C281C281C281C281C281C5D
:10038000281C281C281C281C281C281C281C281C4D
:10039000281C281C281C281C281C281C281C281C3D
:1003A000281C281C281C281C281C281C281C281C2D
:1003B000281C281C281C281C281C281C281C281C1D
:1003C000281C281C281C281C281C281C281C281C0D
:1003D000281C281C281C281C281C281C281C281CFD
:1003E000281C281C281C281C281C281C281C281CED
:1003F000281C281C281C281C281C281C281C281CDD
:10040000281C281C281C281C281C281C281C281CCC
:10041000281C281C281C281C281C281C281C281CBC
:10042000281C281C281C281C281C281C281C281CAC
:10043000281C281C281C281C281C281C281C281C9C
:10044000281C281C281C281C281C281C281C281C8C
:10045000281C281C281C281C281C281C281C5E1C46
:10046000084AD73B3BCE016E84BCBFFDC12F3D6C1B
:1004700074319ABD56833DDA3D00C77F11BED9E481
:10048000BB4C3E916BAAAABE000000803F05A84C61
:10049000CDB2D44EB93836A9020C50B9918688082D
:1004A0003CA6AAAA2ABE000000803F00002100242A
:1004B0000027002A002D0030003300010100000455
:1004C0000107010A0100002200250028002B002E50
:1004D000003100340002010000050108010B010099
:1004E0000020002300260029002C002F00320000ED
:1004F00001000003010601090105050505070508BE
:10050000080808020202020A0A0808040404040196
:1005100001010101010101030303030303030304B8
:100520000707070C0C0C0C0C0C0C0C020202020648
:10053000060606060606060B0B0B0B0B0B0B0B0138
:1005400002102020080810204010204080020102E4
:1005500001080402010102040810204080804020AC
:1005600010080402018004020180402010080402E7
:100570000108040201010204081020408001020465
:1005800008102040800000090A02080B0C0D070625
:100590000304010000000000000000000000000053
:1005A000000000000000000000000000000000004B
:1005B0000011100F0000000000000000000000000B
:1005C0000000000000000000000000494E46494EB7
:1005D0004954594E414ECDCCCC3D0AD7233C17B798
:1005E000D13877CC2B329595E6241FB14F0A000005
:1005F00020410000C84200401C4620BCBE4CCA1B23
:100600000E5AAEC59D7457250F5011241FBECFEF53
:10061000D1E2DEBFCDBF00E00CBF16E1A0E0B2E04A
:10062000EAEBF8EB00E00BBF02C007900D92AC3D87
:10063000B107D9F71BBE1AE1ACEDB6E101C01D92BE
:10064000A237B107E1F716E0CAE0D6E004C022976E
:10065000FE010E94155CC630D107C9F70E944551C2
:100660000C945B5C0C940000CF93DF93BC01823050
:10067000910510F462E070E0A0916E1AB0916F1ACB
:10068000ED01E0E0F0E040E050E021C08881998198
:100690008617970769F48A819B81309719F09383B5
:1006A000828304C090936F1A80936E1AFE0134C047
:1006B0006817790738F44115510519F08417950723
:1006C00008F4AC01FE018A819B819C01E90120971D
:1006D000E9F641155105A9F1CA01861B970B04974C
:1006E00008F4BA01E0E0F0E02AC08D919C911197E6
:1006F00084179507F9F46417750781F412968D91A4
:100700009C911397309719F09383828304C0909340
:100710006F1A80936E1AFD0132964CC0CA01861B77
:10072000970BFD01E80FF91F6193719302978D9369
:100730009C9340C0FD01828193819C01D901109757
:10074000A1F680916C1A90916D1A892B41F48091D9
:1007500037169091381690936D1A80936C1A4091C9
:10076000391650913A164115510541F44DB75EB70F
:100770008091351690913616481B590B20916C1AB2
:1007800030916D1ACA01821B930B8617970780F070
:10079000AB014E5F5F4F8417950750F0420F531F18
:1007A00050936D1A40936C1AF9016193719302C0D2
:1007B000E0E0F0E0CF01DF91CF910895CF93DF9398
:1007C000009709F450C0EC0122971B821A82A09175
:1007D0006E1AB0916F1A109709F140E050E0AC1713
:1007E000BD0708F1BB83AA83FE0121913191E20F7D
:1007F000F31FAE17BF0779F48D919C911197280FC5
:10080000391F2E5F3F4F3983288312968D919C911B
:1008100013979B838A834115510571F4D0936F1A06
:10082000C0936E1A20C012968D919C911397AD01C2
:10083000009711F0DC01D3CFFA01D383C283219159
:100840003191E20FF31FCE17DF0769F48881998198
:10085000280F391F2E5F3F4FFA01318320838A8191
:100860009B8193838283DF91CF91089566277727B9
:100870000C948204FC0188279927E8942191203266
:10088000E9F3293010F02E30C8F32B3241F02D322D
:1008900039F4689404C00E947A04820F911D21915A
:1008A00020532A30C0F31EF4909581959F4F0895F0
:1008B000FB01DC0102C001900D9241505040D8F77D
:1008C00008956817790768F4FB01DC01E40FF51F50
:1008D000A40FB51F02C002900E9241505040D8F7AD
:1008E00008950C945804DC0101C06D9341505040B0
:1008F000E0F708957AE0979F902D879F802D910DC6
:1009000011240895A0E0B0E0E8E8F4E00C942A5C3B
:10091000EC015B016115710519F0FB019183808386
:10092000F9908F2D90E00E94195C892BC9F7FDE2A8
:10093000FF1621F4F990EE24E39405C02BE2F216A1
:1009400009F4F990EE248E0101501040C8016BECBF
:1009500075E043E050E00E94E205892B01F58E012D
:100960000E5F1F4FC8016EEC75E045E050E00E943D
:10097000E205892B19F48E01095F1F4FA114B10400
:1009800019F0F50111830083E0FC04C070E090E0F1
:1009900080E814C070E090E080E86FEF08C1C80103
:1009A00063ED75E043E050E00E94E205892B69F4B5
:1009B000A114B10429F470E090E080EC6FE7F7C077
:1009C0002296F501D183C083F6CF8824992440E094
:1009D00050E060E070E0EF2DE053EA30A0F5F2E087
:1009E000EF2A8E2D90E09C0128703070E2FE06C048
:1009F000232B79F50894811C911C2BC0232B19F013
:100A0000089481089108DB01CA0112E0880F991F40
:100A1000AA1FBB1F1A95D1F7480F591F6A1F7B1FCA
:100A2000440F551F661F771F4E0F511D611D711D0D
:100A3000483929E9520729E9620729E1720748F094
:100A400084E0E82A06C0EE3F31F4E3FC39C098E0C8
:100A5000E92AF990C0CFE53311F0E53189F5299104
:100A60002D3219F4E0E1EE2A05C02B3219F081E0B5
:100A700090E003C0299182E090E0E22FE053EA3059
:100A800018F0C81BD90B1CC020E030E0FCE0203877
:100A90003F075CF4C901880F991F880F991F280F21
:100AA000391F220F331F2E0F311DE991E053EA3019
:100AB00068F3E4FE03C0309521953F4F820E931EEC
:100AC000CE2CDD24E1FE07C0A114B10421F0219752
:100AD000F501D183C083CB01BA010E94BC597B01CF
:100AE0008C01F3E0CF22DD2423E0C216D10421F4EF
:100AF00017FB109517F9109557016801C801B70148
:100B000020E030E040E050E00E941C59882309F4C6
:100B10004AC097FE0DC02AEEE22E25E0F22E9094F8
:100B2000819491089394C0E2D0E000E010E012C0FC
:100B300092E0E92E96E0F92EF6CFF7012591359156
:100B400045915491C601B5010E94E05A5B016C01C8
:100B50008C1A9D0A8C169D0684F7D595C7950F5F54
:100B60001F4F0630110529F08CEF9FEFE80EF91E9C
:100B7000F1CFC501D6017C018D018C2D880F8D2D03
:100B8000881F8F3F51F0C601B50120E030E040E002
:100B900050E00E941C59882331F482E290E0909347
:100BA000711A8093701A7E2D9F2D802F612F272F11
:100BB000392F482F562FB901CA01CDB7DEB7ECE067
:100BC0000C94465CFB01DC014150504088F08D9153
:100BD00081341CF08B350CF4805E659161341CF01F
:100BE0006B350CF4605E861B611171F3990B0895EF
:100BF000881BFCCF9C01245F3F4FC9010895FC0175
:100C0000EB5FFE4F80E090E0A0E0B0E08193919335
:100C1000A193B19380839183A283B3830895FC0150
:100C2000EB5FFE4F2081318142815381B901CA01BE
:100C30000895FC01E75FFE4F20813181428153819D
:100C4000B901CA010895FC01EF5FFE4F80819181D7
:100C50000895FC01ED5FFE4F808191810895FC01B4
:100C6000ED5FFE4F11821082129212920895FC01E4
:100C7000E35FFE4F81E080830895FC01E35FFE4F58
:100C8000108208950C960E94ED0A08950C960E9419
:100C9000E90A08952F923F924F925F926F927F924E
:100CA0008F929F92AF92BF92CF92DF92EF92FF927C
:100CB0000F931F93DF93CF93CDB7DEB72C970FB66B
:100CC000F894DEBF0FBECDBF1C014B0169017A0154
:100CD0000E94D83E2B013C01AA2497FCA094BA2C78
:100CE000C501B4010E94BE59AB01BC015E0108946C
:100CF000A11CB11CC501930182010E943E3FD1019C
:100D0000F5018CE001900D928150E1F7C1010C9644
:100D1000F101C080D180E280F380048115812681B9
:100D2000378140855185628573850E944A0B2C96D8
:100D30000FB6F894DEBF0FBECDBFCF91DF911F91EC
:100D40000F91FF90EF90DF90CF90BF90AF909F906A
:100D50008F907F906F905F904F903F902F9008956D
:100D6000CF92DF92EF92FF920F931F93DF93CF9377
:100D7000CDB7DEB72C970FB6F894DEBF0FBECDBF50
:100D8000C982DA82EB82FC820D831E832F8338872F
:100D900049875A876B877C87DC01FE0131962CE0FE
:100DA00001900D922150E1F70C96C980DA80EB801A
:100DB000FC800D811E812F81388549855A856B8580
:100DC0007C850E944A0B2C960FB6F894DEBF0FBEAE
:100DD000CDBFCF91DF911F910F91FF90EF90DF90EA
:100DE000CF9008952F923F924F925F926F927F9291
:100DF0008F929F92AF92BF92CF92DF92EF92FF922B
:100E00000F931F93DF93CF93CDB7DEB72C970FB619
:100E1000F894DEBF0FBECDBF1C014B0169017A0102
:100E20000E94D03E2B013C01AA2497FCA094BA2C2E
:100E3000C501B4010E94BE598B019C015E0108945A
:100E4000A11CB11CC501B301A2010E943E3FD1010A
:100E5000F5018CE001900D928150E1F7C1010C96F3
:100E6000F101C080D180E280F38004811581268168
:100E7000378140855185628573850E944A0B2C9687
:100E80000FB6F894DEBF0FBECDBFCF91DF911F919B
:100E90000F91FF90EF90DF90CF90BF90AF909F9019
:100EA0008F907F906F905F904F903F902F9008951C
:100EB0000F931F938C0182509F4F6CEE75E00E9440
:100EC0005848C80185509F4F6CEE75E00E94584805
:100ED0001F910F9108959F92AF92BF92CF92DF9290
:100EE000EF92FF920F931F93CF93DF93EC018C014E
:100EF000045F1F4FC8010E94D30A6C01C8010E9401
:100F0000DE0A5C01C8010E94D90AF82EC8010E94BD
:100F1000E40A982EFF2009F450C0B601882777FD17
:100F20008095982F0E94BE5920E030E04AEF53E4AC
:100F30000E94235920E030E042EF53E40E94E05A3F
:100F40007B018C01992009F050C0B501882777FDFD
:100F50008095982F0E94BE5920E030E04AEF53E47C
:100F60000E94235920E030E041E054EC0E94E05A16
:100F7000C250DF4F0E948B599B01AC0124513A4F64
:100F8000CE01B9010E9458482397C801B7010E94B9
:100F90008B599B01AC0124513A4FCE01B9010E94FB
:100FA0005848DF91CF911F910F91FF90EF90DF9004
:100FB000CF90BF90AF909F900895B601882777FD9E
:100FC0008095982F0E94BE5920E030E04AEF53E40C
:100FD0000E94235920E030E041E054EC0E94E05AA6
:100FE0007B018C01992009F4B0CFB501882777FDEA
:100FF0008095982F0E94BE5920E030E04AEF53E4DC
:101000000E94235920E030E042EF53E40E94E05A6E
:10101000AFCFCF92DF92EF92FF920F931F938C018D
:101020006091E0167091E1168091E2169091E316BE
:101030000E94BE59F801E151FF4F20813181428168
:1010400053810E94E05A6B017C016091DC16709123
:10105000DD168091DE169091DF160E94BE59F801D0
:10106000E551FF4F20813181428153810E94E05A36
:101070009B01AC01C701B6010E948F58F801ED50E9
:10108000FF4F20813181428153810E94E05A6B01E0
:101090007C01C8010E94E03EA70196010E94905881
:1010A000AB01BC01C8010E94E83E1F910F91FF9067
:1010B000EF90DF90CF9008952F923F924F925F92E2
:1010C0006F927F928F929F92AF92BF92CF92DF9258
:1010D000EF92FF920F931F93DF93CF9300D000D036
:1010E000CDB7DEB76C010E9409086090DC167090E5
:1010F000DD164090E0165090E1161092DC1610922A
:10110000DD161092DE161092DF161092E016109285
:10111000E1161092E2161092E316B301882777FDCC
:101120008095982F0E94BE5969837A838B839C8314
:10113000B201882777FD8095982F0E94BE594B01F8
:101140005C01C60185519F4F9E838D8369817A81A1
:101150008B819C81ED81FE8120813181428153818F
:101160000E94E05A7B018C019FEE292E312C2C0C21
:101170003D1CC501B401F1012081318142815381BF
:101180000E94E05A9B01AC01C801B7010E9490582F
:1011900020E030E040E05FE30E94E05AAB01BC0198
:1011A000C6010E949F418601075F1E4FC501B40121
:1011B000F10120813181428153810E94E05A9B01DB
:1011C000AC01F80160817181828193810E94905805
:1011D000F801608371838283938386010B5F1E4FC6
:1011E00069817A818B819C81ED81FE8120813181B1
:1011F000428153810E94E05A9B01AC01F801608159
:101200007181828193810E949058F801608371837B
:1012100082839383F601EF5FFE4F80819181680E98
:10122000791E71826082F601ED5FFE4F80819181AF
:10123000480E591E5182408289EF90E0C80ED91E97
:101240008091E0169091E116F60191838083809160
:10125000DC169091DD169293829326960FB6F89441
:10126000DEBF0FBECDBFCF91DF911F910F91FF90D9
:10127000EF90DF90CF90BF90AF909F908F907F9036
:101280006F905F904F903F902F900895CF92DF9294
:10129000EF92FF920F931F93CF93DF93EC018C019A
:1012A0000D511F4FC8010E9403438823B1F58E01E1
:1012B0000D521F4FC8010E940343882339F58E0148
:1012C00005521F4FC8010E9403438823B1F0C80193
:1012D0000E942243CE010C96C880D980EA80FB8010
:1012E0000C811D812E813F81488559856A857B85CA
:1012F0000E940E12CE010E946B07DF91CF911F91C9
:101300000F91FF90EF90DF90CF900895C8010E9459
:101310002243CE010E945C08D2CFC8010E94224322
:10132000C35FDE4F8881CD50D140882309F4BFCF01
:101330008BEC99E16CE472E00E94EA528E01045F4A
:101340001F4FC8010E94F50A0E9431478BEC99E1BA
:1013500067E572E00E94EA52C8010E94F00A0E940A
:1013600031478BEC99E162E672E00E9409539FCF0E
:10137000AF92BF92CF92DF92EF92FF920F931F93A3
:101380008C010E942C3FC8010C960E943813C801A2
:101390008D529F4F6AE070E00E942F43C801855232
:1013A0009F4F6EE170E00E942F43C8018D519F4F07
:1013B00064EF71E00E942F4305511F4F83E69AE1CD
:1013C000AEEABEE3F80181939193A193B1938AEFC2
:1013D00091EEADEABEE381939193A193B1938AE13B
:1013E00094E7A5EBBBE381939193A193B193119201
:1013F00011928F0111821082095F10404BEFA42ED1
:10140000B12CA00EB11EC5010E943E483EEFC32E76
:10141000D12CC00ED11EC6010E943E480F5F1E4F48
:10142000F801119211921192119280E090E0A0E0E7
:10143000B0E081939193A193B1938F0180839183C5
:10144000A283B383095011402DE0E22E21E0F22E59
:10145000E00EF11EF70110821092DC161092DD16DC
:101460001092DE161092DF161092E0161092E1161E
:101470001092E2161092E316C8010E946B07C60193
:1014800066E070E00E945249C50167E070E00E948A
:101490005249C8010E945807F70110821F910F910D
:1014A000FF90EF90DF90CF90BF90AF900895CF93D3
:1014B000DF93DC01BC0167587F4FFC01E158FF4F0F
:1014C000A358BF4F208131818D919C911197AD57C9
:1014D000B040A901480F591FEB0159834883FD0112
:1014E000E558FF4F821B930B91838083CD018F576B
:1014F0009F4F20E0141615060CF053C0EC01288312
:10150000AE57BF4F20E080819181181619060CF06C
:1015100046C02C93DB012D913C91119737FD2EC0D5
:101520002081318137FD34C0EB0188819981813A76
:10153000910524F080EA90E09983888380819181ED
:10154000813A910524F080EA90E091838083DB0169
:101550008D919C9180569F4F2CF480E69FEFEB017C
:10156000998388838081918180569F4F24F480E6FF
:101570009FEF91838083DF91CF91089588279927EA
:10158000821B930B8D939C932081318137FFCCCFAD
:1015900088279927821B930B91838083C5CF21E0F5
:1015A000B8CF21E0ABCFFC01E758FF4F808191819C
:1015B0000895FC01EF57FF4F80810895FC01E55825
:1015C000FF4F808191810895FC01EE57FF4F80818C
:1015D000089521E0FC0120A30895FC0110A20895C4
:1015E0009C0124553F4FC90108959C012F563F4F40
:1015F000C9010895EF92FF920F931F937C010BECAA
:1016000019E1C80163E672E00E940953C70185969B
:101610000E94CE43C8016CE672E00E940953C701E4
:10162000815B9F4F0E94CE43C80165E772E00E9434
:10163000EA52C7018F569F4F0E943147C8016CE79D
:1016400072E00E94EA52C70184559F4F0E943147C1
:101650001F910F91FF90EF900895EF92FF920F93DB
:101660001F937C010BEC19E1C80163E872E00E9452
:10167000EA52C7010E944342C8016CE872E00E942E
:10168000EA52C7010C960E9443421F910F91FF90AE
:10169000EF900895CF92DF92EF92FF920F931F93F6
:1016A000DF93CF93CDB7DEB72C970FB6F894DEBF9C
:1016B0000FBECDBFC982DA82EB82FC820D831E830E
:1016C0002F83388749875A876B877C87DC01FE0127
:1016D00031962CE001900D922150E1F7DC011C962F
:1016E000FC012CE001900D922150E1F70E942D0B9E
:1016F0002C960FB6F894DEBF0FBECDBFCF91DF9111
:101700001F910F91FF90EF90DF90CF900895CF93AE
:10171000DF93EC018BA19CA18130910591F00297A0
:1017200069F481E090E09CA38BA3CE010E942D0B75
:101730008BEC99E166E972E00E940953DF91CF9149
:10174000089583E090E09CA38BA3CE010E942D0B13
:101750008BEC99E163EA72E00E9409531AA219A284
:10176000DF91CF910895CF92DF92EF92FF920F9386
:101770001F93815B9F4F0E94A4431F910F91FF9085
:10178000EF90DF90CF900895CF92DF92EF92FF928B
:101790000F931F9385960E94A4431F910F91FF9072
:1017A000EF90DF90CF9008952F923F924F925F92EB
:1017B0006F927F928F929F92AF92BF92CF92DF9261
:1017C000EF92FF920F931F93DF93CF93CDB7DEB7C6
:1017D000A0970FB6F894DEBF0FBECDBF4C012E010F
:1017E0000894411C511CC2010E940C402DB73EB709
:1017F0002C5030400FB6F8943EBF0FBE2DBFE9E02D
:10180000AE2EB12CAC0EBD1EADB7BEB711967CE0AE
:10181000672E712C680C791CF3018CE001900D92FD
:101820008150E1F7C501F401C080D180E280F380EE
:1018300004811581268137814085518562857385B4
:101840000E941A40D201F50188E001900D9281506A
:10185000E1F72DB73EB7245F3F4F0FB6F8943EBF78
:101860000FBE2DBFF40181A192A18130910521F11C
:10187000823091050CF4F8C18230910509F446C11B
:10188000039709F4A9C0A0960FB6F894DEBF0FBE67
:10189000CDBFCF91DF911F910F91FF90EF90DF901F
:1018A000CF90BF90AF909F908F907F906F905F9000
:1018B0004F903F902F9008956FE4A62EB12CA80C66
:1018C000B91CCE014196F401C080D180E280F38042
:1018D0000481158126813781408551856285738514
:1018E0000E946541C20109891A892B893C894D8969
:1018F0005E896F89788D0E948040AB01BC01C50173
:101900000E949F442DE730E0820E931E0E948B5967
:10191000F4017183608323E83FEF820E931EF4018C
:1019200083A194A1019709F450C1C2010E94024110
:101930007B018C01C3010E94E03E9B01AC01C80108
:10194000B7010E94C64020E030E040E050E00E9435
:10195000D55A18160CF0FFC0C2010E9402417B014B
:101960008C01C3010E94E03E9B01AC01C801B7019C
:101970000E94C6402BED3FE049EC5FE30E94D55A40
:1019800018160CF0FFC0C2010E94024155E2C52E9C
:10199000D12CC80CD91C2BED3FE049E450E40E9447
:1019A0009058AB01BC01C6010E949E43F40163A1A3
:1019B00074A1C5010E948944882309F464CFF4010D
:1019C00063A174A1C6010E948944882309F45BCFF6
:1019D000C4010E94870B57CF2FE4222E312C280CF4
:1019E000391CCE014996F401C080D180E280F38099
:1019F00004811581268137814085518562857385F3
:101A00000E946541C201098D1A8D2B8D3C8D4D8D33
:101A10005E8D6F8D78A10E948040AB01BC01C10139
:101A20000E949F442DE730E0820E931E0E948B5946
:101A3000F4017183608323E83FEF820E931EF4016B
:101A400083A194A1019709F4DAC0C3010E94E03E8A
:101A50007B018C01C4010E94E03E9B01AC01C801E6
:101A6000B7010E94C6405B016C01C2010E940241A5
:101A70007B018C01C3010E94E03E9B01AC01C801C7
:101A8000B7010E94C6409B01AC01D7FAD094D7F8A9
:101A9000D0945058CA01B9010E9490589B01AC01E2
:101AA000C601B5010E94905820E030E040E050E0CF
:101AB0000E94C6407B018C0185E2C82ED12CC80C47
:101AC000D91CC6010E94C6439B01AC01C801B701E5
:101AD0000E949058AB01BC01C6010E949F44EFE7F1
:101AE000F0E08E0E9F1E0E948B59F401718360837B
:101AF00021E83FEF820E931EF40163A174A1C1019E
:101B00000E948944882309F4BECE59CF84010B5D1D
:101B10001F4FC4010E94E03EAB01BC01C8010E94FE
:101B20009F442FE730E0820E931E0E948B59F401F0
:101B300071836083129212924F0123E83FEF820E6D
:101B4000931EF40163A174A1C8010E9489448823F3
:101B500009F499CE3DCFC2010E9402417B018C0164
:101B6000C3010E94E03E9B01AC01C801B7010E9485
:101B7000C6402BED3FE049EC5FEB0E941C598823E7
:101B80000CF401CF45E2C42ED12CC80CD91CC201E3
:101B90000E940241AB01BC01C6010E949E43C401E8
:101BA0000E94E03EAB01BC01C6010E949F442FE7AA
:101BB00030E0820E931E0E948B59F4017183608382
:101BC00021E83FEF820E931EF1CE35E2C32ED12CD9
:101BD000C80CD91CC3010E94E03EAB01BC01C60188
:101BE0000E949E43C4010E94E03EAB01BC01C601BD
:101BF0000E949F44EFE7F0E08E0E9F1EDCCFC301F2
:101C00000E94E03E7B018C01C4010E94E03E9B01EA
:101C1000AC01C801B7010E94C640905820E030E0F6
:101C200040E050E00E94905820E030E040E050E07A
:101C30000E94C6407B018C0195E2C92ED12CC80CB4
:101C4000D91CC6010E94C6439B01AC01C801B70163
:101C50000E949058AB01BC01C6010E949F442FE72F
:101C600030E0820E931E3FCF892B09F00CCE2FE778
:101C700030E0820E931EF4011182108212921292B1
:101C800002CE2F923F924F925F926F927F928F92ED
:101C90009F92AF92BF92CF92DF92EF92FF920F93FB
:101CA0001F93DF93CF93CDB7DEB764970FB6F89449
:101CB000DEBF0FBECDBF4C01A986BA86CB86DC86BF
:101CC000ED86FE860F87188B298B3A8B4B8B5C8BAE
:101CD00083E890E0880E991EF401118210828DE74E
:101CE0009FEF880E991EF40172A361A382E090E039
:101CF00094A383A3B5E24B2E512C480C591CC2016E
:101D00000E94BE43AFE46A2E712C680C791CC3019B
:101D10000E94BE43F40181A192A18130910509F492
:101D200053C0823091050CF4BFC082309105D9F0C8
:101D3000039771F164960FB6F894DEBF0FBECDBF66
:101D4000CF91DF911F910F91FF90EF90DF90CF9097
:101D5000BF90AF909F908F907F906F905F904F90CB
:101D60003F902F9008958401045F1F4FCE01099684
:101D70000E94E03EAB01BC01C8010E94E83EC801E0
:101D80000E94E03EAB01BC01C2010E949E43D2CF43
:101D90008401045F1F4FD801FE0139968CE0019049
:101DA0000D928150E1F78BEC99E166ED72E00E94B3
:101DB000EA52C8010E944342C30140E050E060E0A3
:101DC00070E00E949E43DBCFFCE02F2E312C280CCC
:101DD000391CCE0109960E94D03EAB01BC01C10165
:101DE0000E949F418BEC99E166EB72E00E94EA52FF
:101DF000C1010E9443428DB79EB70C970FB6F8946D
:101E00009EBF0FBE8DBFADB7BEB71196F1018CE07E
:101E100001900D928150E1F75E010894A11CB11C64
:101E2000C501F401C080D180E280F3800481158176
:101E30002681378140855185628573850E941A40CD
:101E40008401085E1F4FD801F50188E001900D92D2
:101E50008150E1F78DB79EB70C960FB6F8949EBFF0
:101E60000FBE8DBFCE0109960E94D03E20E030E02B
:101E700040E050E00E941C5988231CF4C8010E94D5
:101E80006C40C8010E941642C30140E050E060E08F
:101E900070E00E949E43C1010E94E03EAB01BC0184
:101EA000C2010E949E4346CF892B09F043CF8BECA1
:101EB00099E161EB72E00E9409533CCF6F927F92EF
:101EC0008F929F92AF92BF92CF92DF92EF92FF924A
:101ED0000F931F93DF93CF93CDB7DEB7EC970FB679
:101EE000F894DEBF0FBECDBF5C014E010894811C8B
:101EF000911CC4010E940C408DB79EB70C970FB681
:101F0000F8949EBF0FBE8DBF99E0692E712C6C0EA8
:101F10007D1EADB7BEB71196F5013C968CE00190E1
:101F20000D928150E1F7C301F501C080D180E280BC
:101F3000F380048115812681378140855185628532
:101F400073850E941A40D401F30188E001900D923C
:101F50008150E1F78DB79EB70C960FB6F8949EBFEF
:101F60000FBE8DBFCE014196F501C080D180E280C9
:101F7000F3800481158126813781408551856285F2
:101F800073850E946541C40109891A892B893C899E
:101F90004D895E896F89788D0E94804020E030E015
:101FA00040E050E00E941C5987FD64C081E9882E02
:101FB000912C8A0C9B1CC401F501C080D180E28069
:101FC000F3800481158126813781408551856285A2
:101FD00073850E940646882309F461C00CEA602ECE
:101FE000712C6A0C7B1CC301F501C080D180E2809A
:101FF000F380048115812681378140855185628572
:1020000073850E9406468823A1F0CE014996B3014C
:102010000E946845C401C98CDA8CEB8CFC8C0D8D58
:102020001E8D2F8D38A149A15AA16BA17CA10E94C0
:102030007345C5010E942D0BC4010E94C745CE0106
:1020400085960E942C3FC50160E070E0ADA0BEA067
:10205000CFA0D8A4E9A4FAA40BA51CA52DA53EA544
:102060004FA558A90E94410E8BEC99E166EF72E0F2
:102070000E940953EC960FB6F894DEBF0FBECDBF99
:10208000CF91DF911F910F91FF90EF90DF90CF9054
:10209000BF90AF909F908F907F906F9008951CEAB3
:1020A000812E912C8A0C9B1CC401F501C080D1802B
:1020B000E280F38004811581268137814085518536
:1020C000628573850E9406468823A1F2C5010E949D
:1020D0002D0BC4010E94C745CE01C1960E942C3F22
:1020E000C50160E070E0A9A8BAA8CBA8DCA8EDA85B
:1020F000FEA80FA918AD29AD3AAD4BAD5CAD0E945D
:10210000410E8BEC99E16CE073E00E940953B2CF71
:102110004F925F926F927F928F929F92AF92BF92F7
:10212000CF92DF92EF92FF920F931F93DF93CF93A3
:10213000CDB7DEB764970FB6F894DEBF0FBECDBF44
:102140003C0135E8432E512C480E591EC201F301C3
:10215000C080D180E280F38004811581268137819F
:1021600040855185628573850F2EFAE98F2EF9E936
:102170009F2EF9E9AF2EFEE3BF2EF02D0E94583FAF
:102180004DB75EB74C5050400FB6F8945EBF0FBECF
:102190004DBFADB7BEB71196F2018CE001900D9224
:1021A0008150E1F75E010894A11CB11CC501F30147
:1021B000C080D180E280F38004811581268137813F
:1021C00040855185628573850E941A404FE750E033
:1021D000640E751EF3012081318141E85FEF640ECA
:1021E000751E37FD17C18DE790E0680E791EF3016B
:1021F0008081918143E85FEF640E751E97FD06C1F3
:10220000280F391F8DB79EB70C960FB6F8949EBF56
:102210000FBE8DBF2233310594F0C5010E94E84105
:1022200020E030E040E251E40E941C598823F4F0A1
:1022300043E850E0640E751EF3011182108264962B
:102240000FB6F894DEBF0FBECDBFCF91DF911F91C7
:102250000F91FF90EF90DF90CF90BF90AF909F9045
:102260008F907F906F905F904F900895D62CC72CE1
:10227000C3010E94E03E7B018C01C2010E94E03E4E
:102280009B01AC01C801B7010E948F5820E030E0EB
:1022900040E050E00E94D55A18160CF08BC0C301E4
:1022A0000E94E03E7B018C01C2010E94E03E9B0146
:1022B000AC01C801B7010E948F582DEC3CEC4CE4F6
:1022C0005DE30E941C5987FFB3CF23E8822E912C37
:1022D000860C971CF4018081918101969183808303
:1022E0008BEC99E162E273E00E94EA528D2D9C2D05
:1022F0000E94E03E7B018C01C2010E94E03E9B01F6
:10230000AC01C801B7010E948F5820E030E040E0E6
:1023100050E00E94D55A18160CF064C08D2D9C2DEB
:102320000E94E03E7B018C01C2010E94E03E9B01C5
:10233000AC01C801B7010E948F5820E030E048ECA2
:1023400052E40E94E05AA62F482F692F8BEC99E1A6
:102350002A2F372FE42FF62FA901BF0122E030E00A
:102360000E945654F4018081918145970CF467CF07
:10237000C3010E942D0B8BEC99E162E373E00E9494
:102380000953CE0109960E942C3FC30160E070E022
:10239000A984BA84CB84DC84ED84FE840F851889FB
:1023A00029893A894B895C890E94410EF401118286
:1023B000108245CFC3010E94E03E7B018C01C20127
:1023C0000E94E03E9B01AC01C801B7010E948F58FA
:1023D0002DEC3CEC4CE45DEB0E94D55A18160CF049
:1023E00027CF73CF8D2D9C2D0E94E03E7B018C0169
:1023F000C2010E94E03E9B01AC01C801B7010E94EE
:102400008F5820E030E048EC52EC9BCF90958195BE
:102410009F4FF6CE309521953F4FE5CEAF92BF92BC
:10242000CF92DF92EF92FF920F931F93DF93CF93A0
:10243000CDB7DEB72C970FB6F894DEBF0FBECDBF79
:102440005C01C982DA82EB82FC820D831E832F83BA
:10245000388749875A876B877C87DC01FE01319674
:102460008CE001900D928150E1F7C5010E94D40BE0
:10247000C5010E94570AF50121A132A12130310581
:10248000C9F023303105B1F0232B19F0C5010E94AA
:1024900088102C960FB6F894DEBF0FBECDBFCF913B
:1024A000DF911F910F91FF90EF90DF90CF90BF9041
:1024B000AF900895F50180A1882331F3C5010E94F2
:1024C0005E0FF50121A132A1DFCFAF92BF92CF9273
:1024D000DF92EF92FF920F931F938C016130710591
:1024E00009F469C062307105C1F1672B69F58BECA5
:1024F00099E162E473E00E9409536FE4A62EB12CC7
:10250000A00EB11EC50160E570E00E9494430B5D12
:102510001F4FC80160E570E00E949443C80140E08D
:1025200050E068E473E400E010E020E030E068018F
:1025300079010E94A443C50140E050E060E070E4EE
:10254000970186010E94A4431F910F91FF90EF9085
:10255000DF90CF90BF90AF9008958BEC99E160E64B
:1025600073E00E9409534FE4A42EB12CA00EB11EBB
:10257000C50160EA70E00E9494430B5D1F4FC801E3
:1025800060EA70E00E949443C80140E050E066E1D8
:1025900073E400E010E020E030E0680179010E947F
:1025A000A443C50140E050E060E87FE39701860165
:1025B0000E94A443C9CF8BEC99E160E573E00E94CF
:1025C00009535FE4A52EB12CA00EB11EC5016EE625
:1025D00070E00E9494430B5D1F4FC8016EE670E0EF
:1025E000D1CFAF92BF92CF92DF92EF92FF920F9333
:1025F0001F93DF93CF93CDB7DEB72C970FB6F89428
:10260000DEBF0FBECDBF5C0160E070E00E946512CE
:10261000CE01019640E050E06AE774EC00E010E083
:1026200020E030E0680179010E943E3FC50161E091
:1026300070E0A980BA80CB80DC80ED80FE800F81C5
:10264000188529853A854B855C850E94410E2C961C
:102650000FB6F894DEBF0FBECDBFCF91DF911F91B3
:102660000F91FF90EF90DF90CF90BF90AF900895C3
:102670008F929F92AF92BF92CF92DF92EF92FF9292
:102680000F931F93DF93CF93CDB7DEB768970FB645
:10269000F894DEBF0FBECDBF4C010E942C3FC40199
:1026A0000C960E942C3FC40148960E940C40F401F5
:1026B00010A212A211A283E090E094A383A38DB78D
:1026C0009EB708970FB6F8949EBF0FBE8DBF87EADE
:1026D00097EEAEE0BEE3EDB7FEB781839283A383AE
:1026E000B48387EA97EEAEE8BDE385839683A7833C
:1026F000B087C401859661E020E030E048E453E40F
:102700000F2EF0E0EF2EF0E0FF2EF0E00F2FF0E0C4
:102710001F2FF02D570168010E94454380E090E093
:10272000A0EAB2E4EDB7FEB781839283A383B483BA
:1027300080E090E0A0EFB1E485839683A783B08723
:10274000C401815B9F4F60E020E030E040EC5FE33C
:102750000E94454389E790E0880E991EF40111928A
:1027600011924F011182108286E090E0880E991E2E
:1027700081E0F401819381934F01118210828DE7F2
:102780009FEF880E991EEDB7FEB738960FB6F894F6
:10279000FEBF0FBEEDBFC4018B579F4F0E942C3F61
:1027A000CE01019640E050E068EC72E400E010E0F9
:1027B0002FE133E4760165010E943E3FC4018F564C
:1027C0009F4F6CE370E0A980BA80CB80DC80ED8005
:1027D000FE800F81188529853A854B855C850E948E
:1027E0009047CE010D9640E050E068EC72E400E0C6
:1027F00010E02FE133EC0F2EF0E0CF2EF0E0DF2ED3
:10280000F0E0EF2EF0E0FF2EF02D0E943E3FC401DD
:1028100084559F4F6DE370E0AD84BE84CF84D8882B
:10282000E988FA880B891C892D893E894F89588D42
:102830000E949047C40160E070E00E9465126896B3
:102840000FB6F894DEBF0FBECDBFCF91DF911F91C1
:102850000F91FF90EF90DF90CF90BF90AF909F903F
:102860008F90089585E00E9457580197A1F08091BC
:10287000E8169091E916A091EA16B091EB1601972F
:10288000A109B1098093E8169093E916A093EA167E
:10289000B093EB1608958091E8169091E916A091F7
:1028A000EA16B091EB160196A11DB11D8093E816B2
:1028B0009093E916A093EA16B093EB16089584E07E
:1028C0000E9457580197A1F08091E4169091E51667
:1028D000A091E616B091E7160196A11DB11D809357
:1028E000E4169093E516A093E616B093E7160895C4
:1028F0008091E4169091E516A091E616B091E71646
:102900000197A109B1098093E4169093E516A0936D
:10291000E616B093E716089587E10E94575801978D
:1029200039F18091E0169091E116A091E216B091F4
:10293000E3160197A109B1098093E0169093E1167F
:10294000A093E216B093E3168091F0169091F116E1
:10295000A091F216B091F3160197A109B1098093E5
:10296000F0169093F116A093F216B093F316089513
:102970008091E0169091E116A091E216B091E316D5
:102980000196A11DB11D8093E0169093E116A093CE
:10299000E216B093E3168091F0169091F116A09193
:1029A000F216B091F3160196A11DB11D8093F01699
:1029B0009093F116A093F216B093F316089586E162
:1029C0000E945758019739F18091DC169091DD16DD
:1029D000A091DE16B091DF160196A11DB11D809366
:1029E000DC169093DD16A093DE16B093DF1680916F
:1029F000EC169091ED16A091EE16B091EF1601969F
:102A0000A11DB11D8093EC169093ED16A093EE16C8
:102A1000B093EF1608958091DC169091DD16A09189
:102A2000DE16B091DF160197A109B1098093DC167B
:102A30009093DD16A093DE16B093DF168091EC160E
:102A40009091ED16A091EE16B091EF160197A109A5
:102A5000B1098093EC169093ED16A093EE16B09307
:102A6000EF160895FC01EA5BFF4F608308959C0117
:102A7000235E3F4FC90108959C01205C3F4FC9016F
:102A800008959C0129573F4FC90108959C01225385
:102A90003F4FC90108959C012F523F4FC90108952E
:102AA00008959C012D5D3F4FC90108959C01235C51
:102AB0003F4FC9010895EF92FF920F931F938C012E
:102AC0008BECE82E89E1F82EC7016EE673E00E94D8
:102AD0000953C70165E873E00E94EA52F801608972
:102AE0007189C7014AE050E00E94CB521F910F91BB
:102AF000FF90EF900895EF92FF920F931F93CF9363
:102B0000DF93FC01EC01CD5BDF4F8881882341F42A
:102B100080E0DF91CF911F910F91FF90EF9008958A
:102B2000FF96E080F180028113810E94BA56E6167A
:102B3000F7060807190760F7188281E0DF91CF9147
:102B40001F910F91FF90EF900895CF92DF92EF9237
:102B5000FF920F931F936C017B010E94BA562FE3E3
:102B600030E0C20ED31E0027F7FC0095102FE60EB2
:102B7000F71E081F191FF601E192F19201931193BC
:102B800081E080831F910F91FF90EF90DF90CF90B5
:102B90000895EF92FF920F931F93CF93DF93EC0171
:102BA0008C85882341F480E0DF91CF911F910F91B4
:102BB000FF90EF900895E884F9840A851B850E94B0
:102BC000BA56E616F7060807190768F71C8681E06B
:102BD000DF91CF911F910F91FF90EF900895CF92C9
:102BE000DF92EF92FF920F931F936C017B010E9483
:102BF000BA560027F7FC0095102FE60EF71E081FA7
:102C0000191FF601E086F1860287138781E0848729
:102C10001F910F91FF90EF90DF90CF900895EF926A
:102C2000FF920F931F93CF93DF93EC018F8588233F
:102C300041F480E0DF91CF911F910F91FF90EF90D1
:102C40000895EB84FC840D851E850E94BA56E61615
:102C5000F7060807190768F71F8681E0DF91CF9113
:102C60001F910F91FF90EF900895CF92DF92EF9216
:102C7000FF920F931F936C017B010E94BA560027AD
:102C8000F7FC0095102FE60EF71E081F191FF6011E
:102C9000E386F4860587168781E087878BEC99E1C8
:102CA00064E973E00E94EA521F910F91FF90EF9048
:102CB000DF90CF900895AF92BF92CF92DF92EF92C4
:102CC000FF920F931F93CF93DF93EC010E94BA56AC
:102CD0005B016C01EC84FD840E851F85CE010E9492
:102CE0000343882359F4DF91CF911F910F91FF90F7
:102CF000EF90DF90CF90BF90AF900895CE010E94EB
:102D00002243B5016E197F09882777FD8095982F9A
:102D10000E94BE597B018C0120E030E040E050E091
:102D20000E94D55A1816FCF68889882339F56091D7
:102D3000F8167091F9168091FA169091FB160E9480
:102D4000BE5920E030E048EC52E40E94E05AA8016D
:102D500097010E942359688779878A879B871092F9
:102D6000F8161092F9161092FA161092FB160E949D
:102D7000BA566C877D878E879F87B5CF6091F41692
:102D80007091F5168091F6169091F7160E94BE5933
:102D900020E030E048EC52E40E94E05AA80197019C
:102DA0000E942359688779878A879B871092F41637
:102DB0001092F5161092F6161092F716D8CFFF92D1
:102DC0000F931F938C01F62E64E670E00E942F4350
:102DD000F801F08A1F910F91FF9008956CED75E056
:102DE0000E9458480895FC018485882331F4CF015E
:102DF0006CE677E00E9458480895CF016CE474E0D7
:102E00000E9458480895FC018485882331F4CF013D
:102E10006CE474E00E9458480895CF016CE677E0B6
:102E20000E9458480895FC018381882331F4CF0122
:102E30006AEF75E00E9458480895CF0166EF74E08C
:102E40000E9458480895FC018381882331F4CF0102
:102E500068EB76E00E9458480895CF0166EB73E076
:102E60000E9458480895FC018381882331F4CF01E2
:102E70006CE974E00E9458480895CF0160E476E060
:102E80000E9458480895FC01638174810E9458484B
:102E90000895FC0180E293E094838383CF0160E294
:102EA00073E00E945848089564E378E00E9458480F
:102EB00008956FE077E00E945848089560E476E056
:102EC0000E94584808956CEB72E00E94584808959B
:102ED0006CED75E00E945848089568E978E00E941A
:102EE00058480895CF93DF93EC01888999898430FD
:102EF000910509F488C085309105FCF08630910574
:102F000009F4A4C08630910574F18730910509F465
:102F100052C0089729F5CE0160ED77E00E94351682
:102F2000CE0108960E9463178BEC99E160E674E08D
:102F30000E940953DF91CF9108958130910509F4E2
:102F40004CC0823091050CF18230910509F46DC0BE
:102F5000039731F48BEC99E167EF73E00E9409531A
:102F6000DF91CF910895CE016CE271E00E94351699
:102F7000CE0108960E9468178BEC99E16AE274E032
:102F80000E940953DF91CF910895892B49F7CE0113
:102F900005960E945917CE010E945417CE0108963B
:102FA0000E9468178BEC99E162EA73E00E94095372
:102FB000DF91CF910895CE0160ED77E00E94351644
:102FC000CE0108960E9468178BEC99E160E674E0E8
:102FD0000E940953DF91CF910895CE0160E273E022
:102FE0000E943516CE0105960E945E17CE01089606
:102FF0000E946D178BEC99E161EC73E00E9409531C
:10300000DF91CF910895CE0164EF71E00E943516F3
:10301000CE0105960E9459178BEC99E160E174E0AE
:103020000E940953DF91CF910895CE0164EF71E0C2
:103030000E943516CE010E9449178BEC99E16FED85
:1030400073E00E940953DF91CF910895CE0160EDA6
:1030500077E00E943516CE0108960E9463178BEC2C
:1030600099E164E474E00E940953DF91CF910895DF
:103070000F931F93CF93DF938C01EB018BEC99E1BE
:1030800065E874E00E9409538BEC99E166E874E00E
:103090000E94EA528BEC99E1BE014AE050E00E94A6
:1030A000CB52CE010197029708F481C0209709F412
:1030B00058C08BEC99E16DEE74E00E94EA52F80181
:1030C000608971898BEC99E14AE050E00E94CB5213
:1030D000F801808991898430910509F485C0853093
:1030E000910564F18630910509F490C08630910510
:1030F0000CF44CC08730910509F46DC0089761F558
:10310000CD2B51F5F801118A108A8BEC99E166E21A
:1031100075E00E94EA52F801608971898BEC99E1AF
:103120004AE050E00E94CB52F8011786C8010E9485
:103130007217DF91CF911F910F9108958130910502
:1031400009F45BC0823091054CF18230910509F49D
:103150007BC0039709F463C0DF91CF911F910F915A
:1031600008958BEC99E164EA74E00E9409538BECBA
:1031700099E16BEC74E00E94EA528BEC99E160E01B
:1031800070E04AE050E00E94CB5293CF229721F7A3
:1031900086E090E0F801918B808BB7CF892BE1F628
:1031A000C130D105C9F6F801D18BC08BAECF8BEC05
:1031B00099E164EA74E00E9409538BEC99E166EAB4
:1031C00074E00E94EA528BEC99E1BE014AE050E0C3
:1031D0000E94CB526BCFCD2B09F0BECF88E090E0A0
:1031E000F801918B808B91CFCD2B09F0B5CF85E085
:1031F00090E0F801918B808B88CFCD2B09F0ACCF7C
:1032000082E090E0F801918B808B7FCFCD2B09F08D
:10321000A3CF87E090E0F801918B808B76CF239746
:1032200009F09ACF84E090E0F801918B808B8BECD1
:1032300099E16DE075E00E940953F8018089918958
:10324000039709F062CF88CFCD2B09F085CF83E0BB
:1032500090E0F801918B808B58CF0F931F93CF9301
:10326000DF938C01EC016296CE010E940343882318
:1032700029F4DF91CF911F910F910895CE010E9403
:103280002243C8010E940F168823F9F4F8018089AF
:103290009189039771F783819481F8E084339F07C4
:1032A000D1F00A96F80194838383855398402CF0DB
:1032B00084E398E0F80194838383C8010E94431754
:1032C000DF91CF911F910F910895C80160E070E0E8
:1032D0000E943818DBCFC80163E070E00E94381804
:1032E000C8CF6AE377E00E945848089564E276E028
:1032F0000E9458480895FC018081882339F4CF0149
:1033000001966AE678E00E9458480895CF01019638
:103310006DE574E00E9458480895FC01808188237F
:1033200039F4CF01019665E977E00E945848089585
:10333000CF01019661EE74E00E9458480895FC01A7
:103340008081882339F4CF01019661EA75E00E94FB
:1033500058480895CF01019668E677E00E945848E2
:103360000895FC018081882339F4CF01019663E937
:1033700074E00E9458480895CF0101966AE177E011
:103380000E9458480895FC018081882339F4CF01B8
:10339000019669E477E00E9458480895CF010196AC
:1033A0006DE674E00E9458480895CF93DF93EC01D6
:1033B000CC5BDF4FE881F981C454D040EF3DF1058B
:1033C000E0F4EE58FF4FEE0FFF1F0590F491E02D53
:1033D0001994CA5BDF4F8881C654D040882309F412
:1033E00090C182E090E0988B8F8781E08E878BEC94
:1033F00099E16AED77E00E940953DF91CF9108953A
:10340000CE0168EC70E00E94A515CE0143960E94A3
:103410009F198BEC99E16FE775E00E940953EDCF9E
:10342000CE0168EC70E00E94A515CE0101960E94C5
:103430002317CE0143960E947B19CE0147960E9426
:10344000B1198BEC99E16CEB77E00E940953D5CF71
:10345000CE0168EC70E00E94A515CE0143960E9453
:103460009F19CE0147960E94C3198BEC99E16BE935
:1034700077E00E940953C1CFCE0101960E94231725
:10348000188A1F8681E08E878BEC99E16AE777E0E6
:103490000E940953B2CFCE0168EC70E00E94A515DE
:1034A000CE0101960E9433178BEC99E16BE577E032
:1034B0000E940953A2CF8881882309F429C18BEC8B
:1034C00099E16CE077E00E9409538BEC99E16CE3A1
:1034D00077E00E94095391CF82E090E0988B8F872C
:1034E00081E08E878BEC99E16BEE76E00E940953C8
:1034F00084CFCE0168EC70E00E94A515CE01019644
:103500000E9423178BEC99E16AEC76E00E94095344
:1035100074CF81E090E0988B8F8781E08E878BEC71
:1035200099E169EA76E00E94095367CFCE0168EC21
:1035300070E00E94A515CE0143960E947B19CE0132
:1035400047960E94B119CE0101960E9413178BEC89
:1035500099E168E876E00E9409534FCFCE0168EC0C
:1035600070E00E94A515CE0143960E947B19CE0102
:1035700047960E94B1198BEC99E16BE676E00E94C8
:1035800009533BCFCE0168EC70E00E94A5158BEC8F
:1035900099E160E576E00E9409532FCFCE0168ECF7
:1035A00070E00E94A515CE0143960E949F19CE019E
:1035B00047960E94C3198BEC99E169E376E00E947B
:1035C00009531BCF188A1F8681E08E878BEC99E107
:1035D00060E276E00E94095310CFCE0168EC70E003
:1035E0000E94A515CE0101960E9423178BEC99E14C
:1035F00067E076E00E94095300CF81E090E0988B6D
:103600008F8781E08E878BEC99E162EF75E00E94F5
:103610000953F3CECE0168EC70E00E94A515CE01EF
:1036200001960E941317CE0143960E948D198BECD0
:1036300099E16BED75E00E940953DFCECE0168EC95
:1036400070E00E94A515CE0101960E9413178BEC25
:1036500099E163EC75E00E940953CFCECE0162E39D
:1036600070E00E94A5158BEC99E169EA75E00E9473
:103670000953C3CECE0162E370E00E94A5158BEC26
:1036800099E165E975E00E940953B7CECE0164E681
:1036900070E00E94A515CE0147960E94C3198BECDD
:1036A00099E16DE675E00E940953A7CECE0168EC62
:1036B00070E00E94A515CE0143960E947B19CE01B1
:1036C00047960E94B1198BEC99E165E575E00E947F
:1036D000095393CECE0101960E942317188A1F86A4
:1036E00081E08E87CE0143960E949F19CE014796B6
:1036F0000E94C3198BEC99E162E475E00E940953C2
:103700007CCE81E090E0988B8F8781E08E876FCEB2
:103710008BEC99E164E277E00E940953D6CECF9218
:10372000DF92EF92FF920F931F93CF93DF937C0171
:10373000EB018BEC99E165E874E00E9409538BEC96
:1037400099E168EF77E00E94EA528BEC99E1BE01C3
:103750004AE050E00E94CB52C130D10561F0C33045
:10376000D10549F0C430D10531F0C530D10519F08B
:10377000C630D10599F48BEC99E164EA74E00E94BB
:1037800009538BEC99E16BE178E00E94EA528BECF3
:1037900099E1BE014AE050E00E94CB52209709F423
:1037A00060C0C730D10509F474C08BEC99E169EAB7
:1037B00078E00E94EA5287010C5B1F4FF80160819C
:1037C00071818BEC99E14AE050E00E94CB528BEC86
:1037D00099E16EEC78E00E94EA52F70161AD72ADBA
:1037E0008BEC99E14AE050E00E94CB52F801C08096
:1037F000D180F601EF3DF10558F5EF5AFE4FEE0F7F
:10380000FF1F0590F491E02D1994CD2B09F581E16E
:1038100090E0F801918380838BEC99E161EC79E091
:103820000E94EA52F801608171818BEC99E14AE0D3
:1038300050E00E94CB5223E430E0E20EF31EF70189
:1038400010822DEB3FEFE20EF31EC7010E94D51947
:10385000DF91CF911F910F91FF90EF90DF90CF906C
:1038600008958BEC99E164EA74E00E9409538BECB3
:1038700099E165E478E00E94EA528BEC99E160E01E
:1038800070E04AE050E00E94CB528FCF279701F7BB
:10389000BECF8BEC99E164EA74E00E9409538BEC93
:1038A00099E167E778E00E94EA528BEC99E167E0E2
:1038B00070E04AE050E00E94CB5277CFCD2B41F62A
:1038C00083E090E0F80191838083A6CFCD2B09F0AF
:1038D000BFCF86E190E0F801918380839DCFCD2B0F
:1038E00009F0B6CFF80111821082F7018081882398
:1038F00009F41BC18BEC99E167E979E00E94095357
:10390000F80180819181C816D90609F085CFA0CF32
:10391000279709F09DCF84E190E0F801918380839F
:103920007BCF269709F094CF83E190E0F801918353
:103930008083F70112AE11AE8081882309F4FFC0A5
:103940008BEC99E16FE679E00E940953F8018081E0
:103950009181D9CF259709F07BCF82E190E0F801E2
:103960009183808359CFCD2B09F072CF80E190E015
:10397000F8019183808350CF279709F069CF8FE0BA
:1039800090E0F8019183808347CFCD2B09F060CF81
:103990008EE090E0F801918380833ECFCD2B09F03B
:1039A00057CFF70181AD92AD04970CF4B8C026E46F
:1039B00030E0E20EF31EF70180812AEB3FEFE20ECA
:1039C000F31E882309F4DDC08DE090E0F8019183B7
:1039D000808322CFCD2B09F03BCFF80111821082DA
:1039E000F7018081882309F490C08BEC99E167E4AA
:1039F00079E00E940953F8018081918184CF279753
:103A000009F026CF8AE090E0F8019183808304CF0B
:103A1000CD2B09F01DCF89E090E0F80191838083E0
:103A2000FBCE279709F014CF88E090E0F80191834E
:103A30008083F2CECD2B09F00BCF87E090E0F80128
:103A400091838083E9CECD2B09F002CFF80111825A
:103A50001082E2CECD2B09F0FBCEF70181AD92AD05
:103A6000019692AF81AF26E030E0F80131832083E8
:103A700004970CF4D1CE85E090E091838083CCCE86
:103A8000CD2B09F0E5CEC7018C960E9418488823FB
:103A900009F466C084E090E0F80191838083BCCE95
:103AA000CD2B09F0D5CE8EED90E0F8019183808387
:103AB000B3CEC230D10551F2239709F0C9CE82E0CE
:103AC00090E0F80191838083A7CEC130D10531F019
:103AD0002497A9F0F8018081918115CFF801D18355
:103AE000C083F70180818823A1F18BEC99E161EE1D
:103AF00078E00E940953F8018081918104CF8BE026
:103B000090E0F80191838083FECE8BEC99E16BE528
:103B100079E00E940953F80180819181F4CE85E11A
:103B200090E0F8019183808377CE8BEC99E16CEA89
:103B300079E00E940953F80180819181E4CE8BECF9
:103B400099E163E879E00E940953F801808191814D
:103B5000DACE8BEC99E16CEF78E00E940953B8CF94
:103B6000F80111821082F7018081882381F08BECAB
:103B700099E167E179E00E940953F8018081918120
:103B8000C2CE8CE090E0F8019183808345CE8BEC2F
:103B900099E16FE279E00E9409539CCF6CED75E0EA
:103BA0000E94584808956CED75E00E9458480895A9
:103BB00064ED74E00E945848089568EE73E00E9436
:103BC0005848089563E875E00E94584808950F9397
:103BD0001F938C01039664E175E00E945848C80168
:103BE00064E175E00E9458481F910F9108950F936A
:103BF0001F938C01039668EE73E00E945848C80139
:103C000068EE73E00E9458481F910F910895FC01DF
:103C10008081882339F4CF01019664EC77E00E941B
:103C200058480895CF0101966CE875E00E94584805
:103C30000895FC018081882339F4CF0101966DE657
:103C400074E00E9458480895CF01019661E478E03D
:103C50000E9458480895CF93DF93EC018D859E858F
:103C60008430910509F48EC085309105FCF08630D2
:103C7000910509F4ABC086309105BCF18730910500
:103C800009F45CC0089771F5CE0164E670E00E940B
:103C9000EF15CE0147960E94F71D8BEC99E164EE7B
:103CA0007AE00E940953DF91CF9108958130910508
:103CB00009F456C08230910554F18230910509F41F
:103CC00073C0039779F4CE0168EC70E00E94EF15A1
:103CD000CE0147960E94E71D8BEC99E168E37AE0FC
:103CE0000E940953DF91CF910895CE0164E670E000
:103CF0000E94EF15CE0143960E94191E8BEC99E1AC
:103D000068E77AE00E940953DF91CF910895892BEB
:103D100049F7CE0147960E94F71DCE0143960E94B7
:103D2000191ECE010F960E94191E8BEC99E165EECB
:103D300079E00E940953DF91CF910895CE0164E6A6
:103D400070E00E94EF15CE010F960E94191E8BECB9
:103D500099E160EC7AE00E940953DF91CF910895D8
:103D6000CE0164EF71E00E94EF15CE010F960E9424
:103D7000071E8BEC99E16EEF79E00E940953DF9109
:103D8000CF910895CE0160ED77E00E94EF15CE014E
:103D900043960E94071E8BEC99E164E57AE00E944D
:103DA0000953DF91CF910895CE0164EF71E00E9435
:103DB000EF15CE0143960E94071E8BEC99E16BE153
:103DC0007AE00E940953DF91CF910895CE0160ED12
:103DD00077E00E94EF15CE010F960E94071E8BEC34
:103DE00099E16CE97AE00E940953DF91CF9108953F
:103DF000EF92FF920F931F93CF93DF937C01EB0120
:103E00008BEC99E165E874E00E9409538BEC99E131
:103E10006EEF7AE00E94EA528BEC99E1BE014AE033
:103E200050E00E94CB52CE010197039708F472C074
:103E3000209709F45AC08BEC99E162E77BE00E947D
:103E4000EA52F701658576858BEC99E14AE050E00E
:103E50000E94CB52F701058516850430110509F43F
:103E6000D7C00530110554F10630110509F4AEC074
:103E7000063011050CF062C0CD2B81F586E090E094
:103E8000F701968785878BEC99E163ED7BE00E94D3
:103E9000EA52F701658576858BEC99E14AE050E0BE
:103EA0000E94CB52F7011486C7010E942B1EDF919E
:103EB000CF911F910F91FF90EF9008950130110560
:103EC00009F496C0023011050CF44EC00230110501
:103ED00009F46CC00330110509F45FC0DF91CF9184
:103EE0001F910F91FF90EF9008958BEC99E164EA98
:103EF00074E00E9409538BEC99E162E47BE00E943C
:103F0000EA528BEC99E160E070E04AE050E00E94F8
:103F1000CB5291CF8BEC99E164EA74E00E94095393
:103F20008BEC99E16AE17BE00E94EA528BEC99E12B
:103F3000BE014AE050E00E94CB527ACF0730110513
:103F400009F44DC00830110549F6CD2B39F6F701BB
:103F5000168615868BEC99E161EC7BE00E94095393
:103F6000F7018585968514C00115110509F0B6CFB6
:103F7000C130D10509F45BC0C230D10509F451C08C
:103F8000239709F0ABCF81E090E0F7019687858712
:103F90000817190709F077CFA1CFCD2B09F09ECFD5
:103FA00084E090E0F701968785876DCFCD2B09F0EF
:103FB00095CFF701168615868BEC99E165E97BE0D4
:103FC0000E940953F70185859685E2CFCD2B09F034
:103FD00085CF87E090E0F7019687858754CFCD2B7A
:103FE00009F07CCF88E090E0F701968785874BCF7A
:103FF000CD2B09F073CFF701168615868BEC99E16E
:104000006BEA7BE00E940953F70185859685C0CF56
:10401000CD2B09F063CF85E090E0F7019687858787
:1040200032CFF701D687C58782E090E0B1CF83E039
:1040300090E0F7019687858726CF61E070E00E94C7
:10404000F81E089563E070E00E94F81E089562E093
:1040500070E00E94F81E0895CF93DF93EC010E9458
:10406000C915882329F0CE0160E070E00E94F81E97
:10407000DF91CF9108950F931F938C0103966CE607
:1040800077E00E945848C80164ED74E00E945848E7
:104090001F910F9108950F931F938C01039665E470
:1040A00078E00E945848C80160E374E00E945848D4
:1040B0001F910F910895EF92FF920F931F93CF934B
:1040C000DF93EC018C010A5F1F4FC8010E94F64785
:1040D0008823C9F08C858823D1F11092E8161092BC
:1040E000E9161092EA161092EB16E090E816F0909E
:1040F000E9168985882389F4DF91CF911F910F916B
:10410000FF90EF9008958C85882379F7E090E4166E
:10411000F090E5168985882379F38A859B85009739
:10412000F9F081309105E1F1029731F7C7018B5920
:104130009140439708F455C08AEAE81681E0F806F2
:104140000CF04AC0CE010E94F3161D86D5CF109206
:10415000E4161092E5161092E6161092E716D6CFE6
:10416000C8010E94F647882381F1CE010E94EE1615
:104170008BEC99E161E47CE00E940953198681E0AF
:104180008D878C85882309F440C01092E816109220
:10419000E9161092EA161092EB168A859B85C1CF1C
:1041A000CE0103960E94F647882341F1CE010E947A
:1041B000EE168BEC99E160E67CE00E9409531986CB
:1041C00081E08D878A859B85AFCFCE010E94031742
:1041D0001D868A859B85A5CFCE010E9403171D866B
:1041E0008BCFCE010E94EE168BEC99E16EE77CE05E
:1041F0000E940953198681E08D877ECFCE010E94EF
:10420000F3161D868A859B858FCF1092E416109237
:10421000E5161092E6161092E7168A859B8581CFE7
:104220000F931F93CF93DF93EC018C01055E1F4F1B
:10423000C8010E945B16CE0105960E945B20C80152
:104240000E945B168E010F5C1F4FC8010E94034342
:10425000882329F4DF91CF911F910F910895C80110
:104260000E942243CE010E947B15882371F48A8923
:10427000882381F31A8ACE0167E070E00E948F1BC9
:10428000DF91CF911F910F910895CE0160E070E012
:104290000E948F1BECCFEF92FF920F931F93CF934F
:1042A000DF93EC01805C9F4F0E941021CE01895763
:1042B0009F4F0E9410218E010D5D1F4FC8010E946B
:1042C0002D19CE010E942C2090ECE92EF12CEC0E41
:1042D000FD1EF70180819181039734F0FE01E652C3
:1042E000FF4F80818823B1F58E0107581F4FF801D9
:1042F00080819181039734F0FE01E752FF4F808166
:10430000882339F4DF91CF911F910F91FF90EF90A7
:1043100008951082CE01CD960E9471198BEC99E11F
:1043200068EE7CE00E94EA52F801608171818BECBA
:1043300099E14AE050E00E94CB528BEC99E160E1B8
:104340007DE00E940953DF91CF911F910F91FF9063
:10435000EF9008951082C80162E070E00E94381862
:104360008BEC99E16AE97CE00E94EA52F7016081F6
:1043700071818BEC99E14AE050E00E94CB528BECCA
:1043800099E162EC7CE00E940953AECFCF93DF93BA
:10439000EC018C85882309F041C08BEC99E160E049
:1043A0007EE00E9409538BEC99E161E27EE00E947D
:1043B000EA52CE0106960E94F647682F8BEC99E1EF
:1043C00070E04AE050E00E94CB528BEC99E160E44F
:1043D0007EE00E94EA52CE0103960E94F647682FC3
:1043E0008BEC99E170E04AE050E00E94CB528BECFC
:1043F00099E16EE57EE00E94EA524091E416509108
:10440000E5166091E6167091E7168BEC99E12AE0CB
:1044100030E00E94A452DF91CF9108958BEC99E196
:1044200066E37DE00E9409538BEC99E16BE67DE049
:104430000E94EA52CE0106960E94F647682F8BEC46
:1044400099E170E04AE050E00E94CB528BEC99E198
:104450006EE97DE00E94EA52CE0103960E94F64783
:10446000682F8BEC99E170E04AE050E00E94CB525B
:104470008BEC99E160ED7DE00E94EA524091E816F4
:104480005091E9166091EA167091EB168BEC99E168
:104490002AE030E00E94A452DF91CF910895EF927C
:1044A000FF920F931F938C0105960E94C6212BEC5F
:1044B000E22E29E1F22EC7016AE77EE00E94EA526D
:1044C000045D1F4FC8010E943948BC01C7014AE082
:1044D00050E00E94B852C7016BE87EE00E94EA52A9
:1044E000C8010E941848682FC70170E04AE050E0F8
:1044F0000E94CB521F910F91FF90EF900895CF92A1
:10450000DF92EF92FF921F93CF93DF93EC01162F70
:104510007A0169010E943E48CE010396B7010E94CC
:10452000D647CE010696B6010E94D6471D861C8747
:10453000112399F4CE0168E170E00E9452498BEC9E
:1045400099E16AEA7EE00E940953DF91CF911F91C1
:10455000FF90EF90DF90CF900895CE0169E170E079
:104560000E9452498BEC99E169E97EE00E9409536F
:10457000DF91CF911F91FF90EF90DF90CF90089542
:104580001F93CF93DF93EC01162F0E943E481B83AD
:10459000112391F4CE0169E270E00E9452498BEC44
:1045A00099E160ED7EE00E940953CE010E9423173D
:1045B000DF91CF911F910895CE016AE270E00E94D1
:1045C00052498BEC99E16BEB7EE00E940953CE01DE
:1045D0000E942317DF91CF911F9108950F931F938E
:1045E0008C010E943E4880E293E0F801948383832B
:1045F000C80168E270E00E945249C8010E94541745
:104600008BEC99E165EE7EE00E9409531F910F91BA
:1046100008950F931F93182F092F0E943E48812F52
:10462000902F67E270E00E945249812F902F0E94E4
:1046300059178BEC99E169EF7EE00E9409531F91B5
:104640000F9108950F931F93182F092F0E943E4832
:10465000812F902F66E270E00E945249812F902FA7
:104660000E9468178BEC99E16FE07FE00E9409538C
:104670001F910F9108950F931F938C010E94EE22BA
:10468000C80105960E940923C80108960E942223AA
:10469000F8011786118A108AC801429662E370E019
:1046A0000E942F438BEC99E16EE17FE00E94095359
:1046B0001F910F9108950F931F93182F092F0E9498
:1046C0003E48812F902F65E270E00E945249812F71
:1046D000902F0E9476198BEC99E161E37FE00E94B4
:1046E00009531F910F910895EF92FF921F93CF935B
:1046F000DF937C01162FEC012196CE010E943E48EB
:10470000F70110831123A1F4CE0160E270E00E9452
:1047100052498BEC99E16EE57FE00E940953C70195
:104720000E949F19DF91CF911F91FF90EF90089504
:10473000CE0161E270E00E9452498BEC99E164E4A1
:104740007FE00E940953EBCFEF92FF921F93CF932C
:10475000DF937C01162FEC012196CE010E943E488A
:10476000F70110831123A1F4CE016EE170E00E94E5
:1047700052498BEC99E162E97FE00E940953C7013D
:104780000E94C319DF91CF911F91FF90EF90089580
:10479000CE016FE170E00E9452498BEC99E168E72D
:1047A0007FE00E940953EBCFAF92BF92CF92DF928E
:1047B000FF920F931F93CF93DF93EC01F62E6A01C4
:1047C000590101960E94C022CE0105966F2DA601C7
:1047D00095010E947F22CE0143966F2D0E94742383
:1047E000CE0147966F2D0E94A423CE014B966F2DCC
:1047F0000E94DF163CE2C32ED12CCC0EDD1EC6017A
:10480000B80140E951E00E940B48CE01C19662E335
:1048100070E00E942F431AAE19AE1DAE1EAECD5BE6
:10482000DF4F1992199219921882C654D040F8821B
:104830001CAE1BAEFF20B9F48BEC99E16EEC7FE06F
:104840000E940953188A1F8681E08E87C6010E9444
:104850001248DF91CF911F910F91FF90DF90CF9081
:10486000BF90AF9008958BEC99E16CEA7FE00E94D5
:104870000953E8CF0F931F93182F092F0E943E482A
:10488000812F902F6FE070E00E945249812F902F6E
:104890000E94D31D8BEC99E160EF7FE00E940953E9
:1048A0001F910F9108950F931F93182F092F0E94A6
:1048B0003E48812F902F64E270E00E945249812F80
:1048C000902F0E94E21D8BEC99E16AEF7FE00E943D
:1048D00009531F910F910895EF92FF920F931F9329
:1048E0008C010E943E4853E0E52EF12CE00EF11EB3
:1048F000C7010E943E48C70163E270E00E9452492E
:10490000C80162E270E00E945249C8010E94F71D8E
:104910008BEC99E166E070E10E9409531F910F91C1
:10492000FF90EF900895EF92FF921F93CF93DF9344
:104930007C01162FEC012196CE010E943E48F70122
:1049400010831123A1F4CE0160E170E00E9452496E
:104950008BEC99E164E270E10E940953C7010E9467
:10496000191EDF91CF911F91FF90EF900895CE0116
:1049700061E170E00E9452498BEC99E161E170E1E4
:104980000E940953EBCF0F931F938C0162E370E0F9
:104990000E942F43F8011086118612861386148612
:1049A00016861586C8010F9660E00E949324C80100
:1049B000439661E00E949324C80147960E946C24AC
:1049C000C8010E942B1E1F910F910895EF92FF9234
:1049D0000F931F938C010E943E4873E0E72EF12C49
:1049E000E00EF11EC7010E943E48C70164E370E07B
:1049F0000E945249C80162E370E00E945249C80116
:104A00000E944B208BEC99E167E370E10E9409530F
:104A10001F910F91FF90EF900895EF92FF920F93E7
:104A20001F937C010E94C324C7014D960E94E62477
:104A3000C70183960E943B23C701CD960E945B234A
:104A4000C701805C9F4F60E04BE150E029E030E01F
:104A50000AE310E00E94D423C70189579F4F61E009
:104A60004DE150E02CE130E00BE310E00E94D42354
:104A7000C70182539F4F0E943A24C7018F529F4F14
:104A80000E94532489ED90E0E80EF91E81E0F701C1
:104A9000819380838BEC99E16EE470E10E9409536D
:104AA0001F910F91FF90EF900895CB01089588E03A
:104AB00097E16AE070E00E94D6478BE097E16EE0F4
:104AC00070E00E94D6478EE097E16BE070E00E94B4
:104AD000D64781E197E16CE070E00E94D6470895E7
:104AE00080910217909103170097E9F081309105AA
:104AF00039F18330910509F474C0029709F455C067
:104B00008091FE169091FF160E942A3D8091001719
:104B1000909101170E9446098091FC169091FD1614
:104B20000E944B21089588E097E10E94F647882370
:104B300091F4809102179091031781309105C9F685
:104B400088E097E10E94E147882391F48091021761
:104B500090910317CECF81E090E09093031780935C
:104B600002178BEC99E169E870E10E9409530895FE
:104B700082E090E090930317809302178BEC99E109
:104B800064E970E10E940953809100179091011728
:104B90000E9446060E94BA56609304177093051748
:104BA000809306179093071708950E94BA56209194
:104BB0000417309105174091061750910717621B93
:104BC000730B840B950B20913B1630913C16409152
:104BD0003D1650913E16261737074807590708F02B
:104BE0008FCF8BEC99E160EA70E10E94095383E07A
:104BF00090E0909303178093021780910017909193
:104C000001170E94580708958F929F92AF92BF920A
:104C1000CF92DF92EF92FF920F931F932BE0C22E61
:104C200027E1D22EC6010E94DB479EE0A92E97E124
:104C3000B92EC5010E94DB4781E1882E87E1982EBD
:104C4000C4010E94DB4783E160E00E945F5782E17C
:104C500060E00E945F5783E161E00E94215882E199
:104C600061E00E94215886E160E00E945F5787E181
:104C700060E00E945F5786E161E00E94215886E172
:104C800061E00E94215885E06FED74E143E050E05F
:104C90000E94695484E06CE874E143E050E00E94B3
:104CA000695482E060E00E945F5783E060E00E9408
:104CB0005F5782E061E00E94215883E061E00E943A
:104CC000215884E060E00E945F5785E060E00E9428
:104CD0005F5784E061E00E94215884E061E00E9417
:104CE000215880E06FE574E143E050E00E94695490
:104CF00081E062E374E143E050E00E9469540BEC10
:104D000019E1C80140E855E260E070E00E94DB4E26
:104D1000C8016BEA70E10E940953C80169EB70E1B8
:104D20000E9409538BED90E00E945C51F82EE92E11
:104D30000E940D25F092FC16E092FD16C8016CEC65
:104D400070E10E9409538EE091E00E945C51F82EC0
:104D5000E92E0E94B809F0920017E0920117C801ED
:104D600064ED70E10E9409538BE490E00E945C5175
:104D7000F82EE92E60910017709101174091FC16F2
:104D80005091FD160E94DC3DF092FE16E092FF1657
:104D9000C8016FED70E10E940953C80164EF70E132
:104DA0000E940953C80165EF70E10E9409531092F7
:104DB0000317109202171092041710920517109201
:104DC000061710920717C8016EE071E10E9409539F
:104DD000C80168E171E10E94EA5288E097E10E940F
:104DE000F647682FC80170E04AE050E00E94CB52BD
:104DF000C80163E271E10E94EA52C6010E94F647CF
:104E0000682FC80170E04AE050E00E94CB52C80110
:104E100060E371E10E94EA52C5010E94F647682FE3
:104E2000C80170E04AE050E00E94CB52C8016DE337
:104E300071E10E94EA52C4010E94F647682FC8013E
:104E400070E04AE050E00E94CB52809100179091B0
:104E500001170E9442061F910F91FF90EF90DF9083
:104E6000CF90BF90AF909F908F900895FC0188E8FD
:104E700096E1918380830895FC01A081B18116970A
:104E80008D919C918E0F9F1F0E9447270895FC01D2
:104E900086E796E19183808388E896E1978386830D
:104EA0000895DC0113968D919C911497892B91F0B4
:104EB0001596ED91FC91169717968D919C911897E8
:104EC000E817F90739F0819190E01696FC93EE937C
:104ED00015970895ED91FC9111970488F589E02DBF
:104EE000CD0119950895FC0180EB96E191838083B3
:104EF0000895CF93DF93EC01E881F9810288F3896B
:104F0000E02D19959C018FEF2F3F380729F08D81F7
:104F10009E8101969E838D83C901DF91CF91089573
:104F2000CB0108958FEF9FEF089580E090E0089502
:104F300008950895DC01242FED91FC910084F18502
:104F4000E02D41E01995089580E090E00895FC017E
:104F50002289338980899189281B390B8689978911
:104F6000281B390BC9010895CF92DF92EF92FF926F
:104F70000F931F93CF93DF93EC016B0179018A01AB
:104F8000AE89BF89688979898A899B89861B970B35
:104F9000A817B90778F020E030E040E050E0B90110
:104FA000CA01DF91CF911F910F91FF90EF90DF9099
:104FB000CF900895121613061406150664F720E024
:104FC00030E040E050E0F601E20FF31F6A0F7B1F74
:104FD000DB018C9180832F5F3F4F4F4F5F4FAE8936
:104FE000BF891196BF8BAE8B688979898A899B8925
:104FF000861B970BA817B90790F62E153F0540079B
:1050000051076CF6E0CFFC0126893789A089B18968
:10501000828993898A1B9B0B2817390738F4A20FC2
:10502000B31F8C91282F30E0C90108952FEF3FEF77
:10503000C9010895CF93DF93EC01E881F9810288DB
:10504000F389E02D19959C018FEF2F3F380729F048
:105050008E899F8901969F8B8E8BC901DF91CF919D
:105060000895CF93DF93DC0156964D915C9157974D
:105070004115510511F15096CD91DC915197529601
:105080002D913C9153972C1B3D0B24173507B0F104
:105090008FEF6F3F7807B9F0FE01E40FF51F3197EE
:1050A00080818617E1F44150504057965C934E93AF
:1050B0005697CB01DF91CF9108956FEF7FEFCB0132
:1050C000DF91CF9108954150504057965C934E9395
:1050D000569760E070E0CB01DF91CF9108951F9665
:1050E0008C911F9784FFE9CFCA01019757969C9333
:1050F0008E935697C80FD91F6883DBCF57963C9382
:105100002E9356976FEF7FEFD4CF80E090E0089515
:1051100080E090E0089580E090E0089580E090E0E5
:10512000089560E070E080E090E008956F927F92D3
:105130009F92AF92BF92CF92DF92EF92FF920F9326
:105140001F93CF93DF93EC013B0159016A011216C3
:105150001306140615060CF050C0EE24FF24870138
:1051600017C0EB85FC858D859E85E817F90748F506
:1051700090828B859C8501969C878B870894E11C87
:10518000F11C011D111DEA14FB040C051D05ACF5F5
:10519000F301EE0DFF1D90808F8580FFE2CFE88147
:1051A000F9810084F185E02DCE0160E070E044E0FB
:1051B00020E11995EB85FC858D859E85E817F9071B
:1051C000B8F2E881F981028CF38DE02DCE01692DD2
:1051D00070E019958F5F9F4F89F6B701C801DF9185
:1051E000CF911F910F91FF90EF90DF90CF90BF90E4
:1051F000AF909F907F906F90089586017501EDCFDD
:10520000CB010895EF92FF920F931F93CF93DF93FB
:105210007C018B01EA0164177507A9F0FC0142814A
:1052200053814F5F5F4F4C1B5D0BCB01BE010E9452
:10523000610498012C1B3D0BF70182819381820F41
:10524000931F93838283C801DF91CF911F910F91A8
:10525000FF90EF9008950F931F938B0181E090E0F2
:105260000E945525FC011082F80110821F910F91B8
:105270000895FC01A081B18116978D919C918E0FAC
:105280009F1F0E9444290895FC0186E796E19183BF
:10529000808388E896E197838683CF010E945951E5
:1052A0000895FC0188E896E191838083CF010E94F4
:1052B00059510895FC0180EB96E191838083CF01E1
:1052C0000E9459510895CF93DF93EC0180E996E154
:1052D00099838883288939898C899D8982179307C6
:1052E00019F0C9010E94DE0380EB96E1998388835F
:1052F000DF91CF910895CF93DF93EC0180E996E1A0
:1053000099838883288939898C899D898217930795
:1053100019F0C9010E94DE0380EB96E1998388832E
:10532000CE010E945951DF91CF910895FC01A081D7
:10533000B18116978D919C918E0F9F1F0E94A1297C
:105340000895CF93DF93EC018EE496E199838883EF
:105350000A9699A388A380E996E19F838E832E897C
:105360003F898A8D9B8D8217930719F0C9010E948E
:10537000DE0380EB96E19F838E83E0914216F091ED
:105380004316F983E88336970190F081E02DEC0F06
:10539000FD1F80914416909145169183808388E883
:1053A00096E199A388A3CE010E945951DF91CF9134
:1053B0000895FC01A081B18116978D919C918E0F6B
:1053C0009F1F0E94E4290895CF93DF93EC018EE4A0
:1053D00096E1998388830A9699A388A380E996E148
:1053E0009F838E832E893F898A8D9B8D8217930799
:1053F00019F0C9010E94DE0380EB96E19F838E8342
:10540000E0914216F0914316F983E88336970190B4
:10541000F081E02DEC0FFD1F809144169091451610
:105420009183808388E896E199A388A3DF91CF9147
:105430000895AF92BF92CF92DF92EF92FF920F93B7
:105440001F93CF93DF936C01DC011296ED91FC91D9
:1054500013974D915C91DF01A41BB50BCB016A172B
:105460007B0708F4CD015C010894A11CB11CA114B8
:10547000B104C9F5EE24FF248F01041B150BC701ED
:10548000BA01A8010E946104E701C00FD11F81E0A9
:1054900090E0BE010E945525FC0110821882F601A1
:1054A00020813181848195818217930719F0C90188
:1054B0000E94DE03D6011196FC92EE921396DC93C5
:1054C000CE931297AE0CBF1C1596BC92AE92149759
:1054D000DF91CF911F910F91FF90EF90DF90CF90D0
:1054E000BF90AF900895C5010E943403009779F0F2
:1054F0007C01D6011296ED91FC9113974D915C9130
:10550000BBCF1995C5010E943403009789F7E0913C
:105510001417F09115173097A1F780E090E00E94E2
:105520005B5CFF920F931F93CF93DF938C01F62E5A
:10553000DC0112962D913C911397E9012196149666
:105540008D919C911597C817D907E9F081E090E0FB
:10555000BE010E945525FC0110821882D8011296C6
:10556000ED91FC911397F08212968D919C91139777
:10557000019613969C938E931297DF91CF911F9172
:105580000F91FF9008958D919C91F901E81BF90B03
:10559000CF0171F461E070E0680F791FC8010E94CB
:1055A000192AD8011296CD91DC9113972196CECF6E
:1055B000BF01F2CF0F931F93CF93DF938C01EB01C9
:1055C0008FEF6F3F780741F4C0E0D0E0CE01DF916C
:1055D000CF911F910F910895D8011F968C9184FF50
:1055E0001AC0F801208D318D0088F189E02DD80195
:1055F00052968D919C9153978E1B9F0B28173907BC
:1056000068F4E20FF31F6083F801808D918D01969D
:10561000918F808FDBCFCFEFDFEFD8CFC8014096DF
:105620000E94912AF1CFCF92DF92EF92FF920F93D7
:105630001F93CF93DF938C01FB0130E0C901887188
:105640009070489709F4DBC0C90188709070207190
:105650003070413009F4B4C0423009F46DC0D80153
:1056600052964D915C91539750966D917C915197C4
:10567000DA01A61BB70BEF01CA0FDB1FAC17BD0782
:1056800008F479C0892B19F0F801D78BC68B232B2E
:1056900009F48BC080E1C82ED12CC00ED11E9A0116
:1056A000261B370B2C173D0708F068C07E01E21A55
:1056B000F30AF801848995890197861B970B8C174B
:1056C0009D0778F4B701E216F30608F496C0620F5E
:1056D000731FC6010E94192AD80152964D915C9100
:1056E0005397E114F10409F453C09A012F5F3F4F1F
:1056F000FA01EE0DFF1DE21BF30BC90160E070E043
:10570000AF010E947304F801628973896E0D7F1DD9
:10571000C6010E942B29D8015296ED91FC91539716
:10572000108252964D915C9153974E0D5F1D53968A
:105730005C934E9352972CC02115310509F04EC051
:10574000C0E0D0E0D80150966D917C91519752966F
:105750004D915C915397009739F0D8015696CD91B1
:10576000DC915797CE0FDF1FDA01A61BB70BAC17E2
:10577000BD0708F087CF2FEF3FEF18C06C0F7D1FDC
:10578000C6010E940229D80152964D915C9153970F
:10579000F801808991899A01281B390B868997899C
:1057A0002817390710F4378B268B9E01C901DF912A
:1057B000CF911F910F91FF90EF90DF90CF900895C0
:1057C000EF01D80150966D917C91519752964D9171
:1057D0005C915397DA01A61BB70B50CFD8015296B4
:1057E0004D915C91539750966D917C915197EA0140
:1057F000C61BD70BCE0FDF1FAECFB90168CF42302B
:1058000009F022CFB8CF8F929F92AF92BF92DF92D2
:10581000EF92FF920F931F93CF93DF935C017B0175
:10582000DC01CD91DC912697E881F9812696E80F7D
:10583000F91F018912890115110501F1D801ED91B6
:10584000FC9136970190F081E02DE00FF11FA389C4
:10585000B489ED91FC9111970484F585E02DCD017B
:1058600019958F5F9F4F09F4E7C0F501C081D18181
:105870002697E881F9812696EA0DFB1DA389B48954
:1058800013968D919C911497892B09F4B2C01596AB
:10589000ED91FC91169717968D919C911897E817AA
:1058A000F90709F4A6C0808190E00E94195C892B59
:1058B00009F084C0269728813981F501E20FF31F92
:1058C00083889488D701ED91FC91119712968D9160
:1058D0009C911397E817F90771F010828D919C91B4
:1058E000119713969C938E931297D501ED91FC918D
:1058F000369720813181F9013296EA0DFB1D228510
:105900003385448555851286138614861586E901EC
:105910002115310509F0E9C00EEF1FEF1EC081E02F
:1059200090E0BE010E945525FC0110821882D7012B
:105930001296ED91FC911397D08212962D913C9185
:1059400013972F5F3F4F13963C932E931297011599
:10595000110509F4B5C001501040C4010E9451273F
:10596000BFEF8F3F9B0709F4C6C0D82E992787FD4C
:1059700090950E94195C892B09F070C0F701228173
:105980003381E901219684819581C817D90739F6B9
:1059900080819181A901481B590BCA0109F0A3C05C
:1059A00061E070E0680F791FC7010E94192AD701D2
:1059B0001296CD91DC9113972196B1CF2697E8816D
:1059C000F981EA0DFB1D838994890E945127D50135
:1059D000CD91DC912697E881F9812696EA0DFB1D91
:1059E000A389B48913968D919C911497892B09F002
:1059F0004ECFED91FC9111970288F389E02DCD01F6
:105A00001995BFEF8F3F9B0709F0C0C0D501ED91FD
:105A1000FC91119736970190F081E02DEA0DFB1D66
:105A20002581322F326083899489892B09F48AC0B9
:105A30003583CD91DC913ECFD801ED91FC91369725
:105A40000190F081E02DE00FF11F25812160838915
:105A50009489892B09F47CC0258307CFF401238125
:105A600034812115310551F0858196812817390738
:105A700029F0FC018291D81609F474C0D401ED918B
:105A8000FC910688F789E02DC4016D2D70E0199511
:105A90008F5F9F4F91F4D501ED91FC913697019066
:105AA000F081E02DEA0DFB1D2581322F34608389C2
:105AB0009489892B09F44EC03583F7012281338103
:105AC000F701808191812817390751F1C501DF91D4
:105AD000CF911F910F91FF90EF90DF90BF90AF900B
