:100000000C947B010C94F5550C9426560C94575681
:100010000C9488560C94B9560C94EA560C941B57C1
:100020000C944C570C94A8010C94A8010C94A801B2
:100030000C94A8010C94A8010C94A8010C94A8019C
:100040000C94A8010C945C4A0C94A8010C94A8018F
:100050000C94A8010C94A8010C94A8010C947D5751
:100060000C94A8010C94964D0C94E24E0C94A801AB
:100070000C94A8010C94A8010C94A8010C94A8015C
:100080000C94C54C0C94A8010C94A8010C94A801E4
:100090000C94D64D0C94214F0C94A8010C94A801FB
:1000A0000C94A8010C94A8010C94F54B0C94A80195
:1000B0000C94A8010C94A8010C94A8010C942C4B4E
:1000C0000C94A8010C94A8010C94A8010C94164E51
:1000D0000C94604F0C94A8010C94564E0C949F4FB6
:1000E0000C94A801631C4F1C3B1C2F1C231C131CCD
:1000F000FF1BF21BE21BD71BC31BB71BA31B8B1BD6
:100100007E1B6E1B611B551B451B361B221B0A1BCE
:10011000F31A641D571D4F1DD41DBE1DF51CF61D81
:10012000ED1DE41DA31DF51C7E1D7A1D711DAC1D6A
:100130000F1E321DB51DFF1D181EF51C9A1D321D08
:10014000084AD73B3BCE016E84BCBFFDC12F3D6C3E
:1001500074319ABD56833DDA3D00C77F11BED9E4A4
:10016000BB4C3E916BAAAABE000000803F05A84C84
:10017000CDB2D44EB93836A9020C50B99186880850
:100180003CA6AAAA2ABE000000803F00002100244D
:100190000027002A002D0030003300010100000478
:1001A0000107010A0100002200250028002B002E73
:1001B000003100340002010000050108010B0100BC
:1001C0000020002300260029002C002F0032000010
:1001D00001000003010601090105050505070508E1
:1001E000080808020202020A0A08080404040401BA
:1001F00001010101010101030303030303030304DC
:100200000707070C0C0C0C0C0C0C0C02020202066B
:10021000060606060606060B0B0B0B0B0B0B0B015B
:100220000210202008081020401020408002010207
:1002300001080402010102040810204080804020CF
:10024000100804020180040201804020100804020A
:100250000108040201010204081020408001020488
:1002600008102040800000090A02080B0C0D070648
:100270000304010000000000000000000000000076
:10028000000000000000000000000000000000006E
:100290000011100F0000000000000000000000002E
:1002A00000000000000000000000006364696E6F41
:1002B00070737578585B00494E46494E4954594E03
:1002C000414ECDCCCC3D0AD7233C17B7D13877CCA3
:1002D0002B329595E6241FB14F0A00002041000003
:1002E000C84200401C4620BCBE4CCA1B0E5AAEC5BC
:1002F0009D748F23125111241FBECFEFD1E2DEBFB8
:10030000CDBF00E00CBF13E1A0E0B2E0E0EDFAEBFE
:1003100000E00BBF02C007900D92AE34B107D9F7D1
:100320001BBE16E1AEE4B3E101C01D92A43EB107CD
:10033000E1F712E0C6EFD2E004C02297FE010E946E
:10034000205DC23FD107C9F70E9448520C94665DF8
:100350000C940000CF93DF93BC018230910510F420
:1003600062E070E0A091E016B091E116ED01E0E0EE
:10037000F0E040E050E021C088819981861797071E
:1003800069F48A819B81309719F09383828304C03A
:100390009093E1168093E016FE0134C06817790748
:1003A00038F44115510519F08417950708F4AC018C
:1003B000FE018A819B819C01E9012097E9F64115A4
:1003C0005105A9F1CA01861B970B049708F4BA01DD
:1003D000E0E0F0E02AC08D919C9111978417950779
:1003E000F9F46417750781F412968D919C91139717
:1003F000309719F09383828304C09093E116809321
:10040000E016FD0132964CC0CA01861B970BFD0118
:10041000E80FF91F6193719302978D939C9340C0ED
:10042000FD01828193819C01D9011097A1F68091F1
:10043000DE169091DF16892B41F48091A9129091DC
:10044000AA129093DF168093DE164091AB12509162
:10045000AC124115510541F44DB75EB78091A7121A
:100460009091A812481B590B2091DE163091DF168F
:10047000CA01821B930B8617970780F0AB014E5F72
:100480005F4F8417950750F0420F531F5093DF16AC
:100490004093DE16F9016193719302C0E0E0F0E051
:1004A000CF01DF91CF910895CF93DF93009709F4A7
:1004B00050C0EC0122971B821A82A091E016B091E5
:1004C000E116109709F140E050E0AC17BD0708F1C4
:1004D000BB83AA83FE0121913191E20FF31FAE1776
:1004E000BF0779F48D919C911197280F391F2E5FCA
:1004F0003F4F3983288312968D919C9113979B834C
:100500008A834115510571F4D093E116C093E0162A
:1005100020C012968D919C911397AD01009711F018
:10052000DC01D3CFFA01D383C28321913191E20F51
:10053000F31FCE17DF0769F488819981280F391FCF
:100540002E5F3F4FFA01318320838A819B81938301
:100550008283DF91CF910895662777270C94A705B2
:10056000FC0188279927E89421912032E9F329306A
:1005700010F02E30C8F32B3241F02D3239F468944C
:1005800004C00E94F002820F911D219120532A3055
:10059000C0F31EF4909581959F4F0895FB01DC01F7
:1005A00002C001900D9241505040D8F7089568174D
:1005B000790768F4FB01DC01E40FF51FA40FB51FF8
:1005C00002C002900E9241505040D8F708950C940A
:1005D000CE02DC0101C06D9341505040E0F7089518
:1005E0007AE0979F902D879F802D910D112408957B
:1005F000AEE0B0E0EEEFF2E00C943F5D85E08C837E
:100600008C899D899A8389839E01285E3F4FCE0104
:1006100001966E897F89A9010E9496042E96E2E0D8
:100620000C945B5DFC0120FD08C023FD05C022FF8A
:1006300002C073836283518340830895EF92FF92D7
:100640000F931F9344FF02C033E011C046FF02C066
:1006500034E00DC0DB01FC01AA0FBB1FEE1FFF1F22
:100660001094D1F76A0F7B1F8E1F9F1F31E0660F1A
:10067000771F881F991F3150D1F77B018C01E20E43
:10068000F11C011D111DA8019701B701CA011F919D
:100690000F91FF90EF9008950F931F93CF93DF93E7
:1006A0008C01C8010E942A07EC0197FD08C00E9436
:1006B000245D892BB1F7CE01B8010E946C07CE01F1
:1006C000DF91CF911F910F910895A0E0B0E0EBE68C
:1006D000F3E00C94375DEC01C62E5A01122F0E94F4
:1006E0002A07AC018B3219F08D3251F41068CA948C
:1006F00009F46DC0CE010E942A07AC0197FD67C0C6
:100700006DEFD62ED1228D2D807301F54033F1F49B
:10071000CA9409F447C0CE010E942A07AC0197FD94
:1007200041C082E0D82A483711F0483559F480E4B6
:10073000D82ACA94B9F1CE010E942A07AC019923A4
:100740002CF430C0D6FC02C080E1D82AEE24FF246D
:100750008701242F2053283088F0D4FC09C02A3088
:1007600068F0D6FE05C02F7D822F8151863028F09B
:10077000CA01BE010E946C0712C02750C801B70110
:100780004D2D0E941E037B018C0182E0D82ACA9461
:1007900061F0CE010E942A07AC0197FFDACFD1FCAD
:1007A00004C015C0EE24FF248701D7FE08C01095B1
:1007B0000095F094E094E11CF11C011D111DC50190
:1007C000B801A7012D2D0E94120381E001C080E035
:1007D000CDB7DEB7EAE00C94535DA0E2B0E0E3EF02
:1007E000F3E00C94335D6C01A62E8A017901FE01C1
:1007F000319680E2DF011D928A95E9F770E030E0E2
:1008000060E040E050E04F01A1E0B0E0F6018381FC
:10081000F70183FD259183FF21917F01222309F4B4
:100820007EC02E3519F44115510569F1872F90E0EE
:100830008417950744F42D3551F12D3221F43323DB
:1008400029F431E021C0332309F4622F322F832FA2
:10085000869586958695F401E80FF11D832F8770A4
:100860003D0102C0660C771C8A95E2F7208126299B
:100870002083361711F430E007C0361710F43F5FBD
:10088000E6CF3150E4CF71E04F5F5F4FBFCF3323EE
:1008900019F08E8180628E83772359F0FE013196A4
:1008A0009E012F5D3F4F808180958193E217F30772
:1008B000D1F7BB24B3944E010894811C911CC6014E
:1008C0000E942A07AC0197FD22C0869586958695E1
:1008D000F401E80FF11D808190E09A0127703070DB
:1008E00002C0959587952A95E2F780FD05C0CA015B
:1008F000B6010E946C070BC00115110519F0D80153
:100900004D938D01AA94BB24AA20C9F602C0BB2036
:1009100031F40115110529F0F801108202C0EE240E
:10092000FF24C701A096EEE00C944F5DA0E0B0E07C
:10093000ECE9F4E00C94335D5C016B013A01FC01DD
:10094000178216828824EAC0812F90E00E94245DDD
:10095000892B21F0C5010E944C03E0C0153249F4F7
:10096000F601F3FC6591F3FE61916F01653269F464
:1009700015E2C5010E942A0797FDDCC0181709F48B
:10098000CDC0B5010E946C07DAC06A3219F0162F8B
:1009900000E006C0F3FC1591F3FE11916F0101E038
:1009A00099240FC00260692D70E080E090E040E281
:1009B0000E941E03962EF601F3FC1591F3FE119191
:1009C0006F01212F20532A3068F301FD03C09924C1
:1009D0009A9403C0992009F4B2C0183621F01C364D
:1009E00099F4F6010BC0F601F3FC6591F3FE6191F9
:1009F000683619F06F01162F07C008600460F3FC19
:100A00001591F3FE11916F01112309F498C08BEA3F
:100A100092E0612F70E00E940707892B09F48FC0D4
:100A2000802F00FF03C0EE24FF2407C0F301E08005
:100A3000F18022E030E0620E731E1E3651F4F501A3
:100A40004681578160E070E0C701202F0E941203A9
:100A500065C0133691F481FD02C099249394C501B9
:100A60000E942A0797FD66C0E114F10419F0F7010E
:100A700081937F019A9499F74FC01B3559F4C501B2
:100A8000692DA70196010E94ED036C01009709F002
:100A900043C03DC0C5010E944C0397FD4BC01F36AB
:100AA00059F1103728F4143629F1193639F527C0D1
:100AB000133719F0153711F51DC0C5010E942A071B
:100AC000EC0197FD11C00E94245D892B29F0CE0115
:100AD000B5010E946C0708C0E114F10419F0F70198
:100AE000C1937F019A9449F7E114F104A9F0F70149
:100AF000108212C0006203C0006101C00064C50121
:100B0000692DA701202F0E946503882329F4F50190
:100B10008381807379F413C000FF8394F501F3801F
:100B2000F601F3FC1591F3FE11916F01112309F009
:100B30000BCF05C0882019F42FEF3FEF02C0282DFE
:100B400030E0C901CDB7DEB7EEE00C944F5DA0E018
:100B5000B0E0EDEAF5E00C94355DEC015B01611568
:100B6000710519F0FB0191838083F9908F2D90E03E
:100B70000E94245D892BC9F7FDE2FF1621F4F9904C
:100B8000EE24E39405C02BE2F21609F4F990EE246A
:100B90008E0101501040C80167EB72E043E050E065
:100BA0000E941207892B01F58E010E5F1F4FC801AD
:100BB0006AEB72E045E050E00E941207892B19F4BD
:100BC0008E01095F1F4FA114B10419F0F5011183C3
:100BD0000083E0FC04C070E090E080E814C070E0A6
:100BE00090E080E86FEF08C1C8016FEB72E043E06E
:100BF00050E00E941207892B69F4A114B10429F472
:100C000070E090E080EC6FE7F7C02296F501D183A9
:100C1000C083F6CF8824992440E050E060E070E083
:100C2000EF2DE053EA30A0F5F2E0EF2A8E2D90E0B0
:100C30009C0128703070E2FE06C0232B79F50894E1
:100C4000811C911C2BC0232B19F00894810891085A
:100C5000DB01CA0112E0880F991FAA1FBB1F1A955A
:100C6000D1F7480F591F6A1F7B1F440F551F661F7E
:100C7000771F4E0F511D611D711D483929E952071B
:100C800029E9620729E1720748F084E0E82A06C0F2
:100C9000EE3F31F4E3FC39C098E0E92AF990C0CF87
:100CA000E53311F0E53189F529912D3219F4E0E1B0
:100CB000EE2A05C02B3219F081E090E003C02991A3
:100CC00082E090E0E22FE053EA3018F0C81BD90B25
:100CD0001CC020E030E0FCE020383F075CF4C90194
:100CE000880F991F880F991F280F391F220F331F54
:100CF0002E0F311DE991E053EA3068F3E4FE03C0A2
:100D0000309521953F4F820E931ECE2CDD24E1FEBF
:100D100007C0A114B10421F02197F501D183C0834C
:100D2000CB01BA010E94C75A7B018C01F3E0CF22AC
:100D3000DD2423E0C216D10421F417FB109517F926
:100D4000109557016801C801B70120E030E040E08C
:100D500050E00E94275A882309F44AC097FE0DC02C
:100D600026EDE22E22E0F22E909481949108939445
:100D7000C0E2D0E000E010E012C09EEEE92E92E06A
:100D8000F92EF6CFF7012591359145915491C60181
:100D9000B5010E94EB5B5B016C018C1A9D0A8C16FD
:100DA0009D0684F7D595C7950F5F1F4F0630110537
:100DB00029F08CEF9FEFE80EF91EF1CFC501D601A7
:100DC0007C018D018C2D880F8D2D881F8F3F51F058
:100DD000C601B50120E030E040E050E00E94275A13
:100DE000882331F482E290E09093E3168093E21638
:100DF0007E2D9F2D802F612F272F392F482F562F83
:100E0000B901CA01CDB7DEB7ECE00C94515DFC012D
:100E10000590061621F00020D9F7C00108953197FA
:100E2000CF010895FB01DC014150504088F08D91C5
:100E300081341CF08B350CF4805E659161341CF0BC
:100E40006B350CF4605E861B611171F3990B08958C
:100E5000881BFCCFCF93DF93EC014B8140FF1AC07E
:100E600046FF0AC04F7B4B838E819F8101969F83F3
:100E70008E838A81282F2BC042FF13C0E881F9811D
:100E80008081282F332727FD30952115310529F43E
:100E900040624B832FEF3FEF1BC03196F983E8830D
:100EA00011C0EA85FB85CE0119959C0197FF0AC008
:100EB0009B812F5F3F4F11F080E201C080E1892BC1
:100EC0008B83E8CF8E819F8101969F838E8330E054
:100ED000C901DF91CF9108959C01FB01838180FFBF
:100EE00011C086FD0FC09FEF2F3F390759F02283B5
:100EF00080648F7D83838681978101979783868322
:100F000030E002C02FEF3FEFC90108959C01245F3C
:100F10003F4FC9010895FC01EB5FFE4F80E090E078
:100F2000A0E0B0E081939193A193B19380839183EA
:100F3000A283B3830895FC01EB5FFE4F20813181D2
:100F400042815381B901CA010895FC01E75FFE4F58
:100F50002081318142815381B901CA010895FC0188
:100F6000EF5FFE4F808191810895FC01ED5FFE4FA0
:100F7000808191810895FC01ED5FFE4F1182108206
:100F8000129212920895FC01E35FFE4F81E080838C
:100F90000895FC01E35FFE4F108208950C960E94B5
:100FA000790C08950C960E94750C08952F923F922B
:100FB0004F925F926F927F928F929F92AF92BF9269
:100FC000CF92DF92EF92FF920F931F93DF93CF9315
:100FD000CDB7DEB72C970FB6F894DEBF0FBECDBFEE
:100FE0001C014B0169017A010E94DB3F2B013C018E
:100FF000AA2497FCA094BA2CC501B4010E94C95A36
:10100000AB01BC015E010894A11CB11CC501930198
:1010100082010E944140D101F5018CE001900D92C6
:101020008150E1F7C1010C96F101C080D180E280CE
:10103000F380048115812681378140855185628541
:1010400073850E94D60C2C960FB6F894DEBF0FBEA7
:10105000CDBFCF91DF911F910F91FF90EF90DF9067
:10106000CF90BF90AF909F908F907F906F905F9048
:101070004F903F902F900895CF92DF92EF92FF9282
:101080000F931F93DF93CF93CDB7DEB72C970FB697
:10109000F894DEBF0FBECDBFC982DA82EB82FC823C
:1010A0000D831E832F83388749875A876B877C87F8
:1010B000DC01FE0131962CE001900D922150E1F708
:1010C0000C96C980DA80EB80FC800D811E812F8117
:1010D000388549855A856B857C850E94D60C2C966F
:1010E0000FB6F894DEBF0FBECDBFCF91DF911F9139
:1010F0000F91FF90EF90DF90CF9008952F923F9245
:101100004F925F926F927F928F929F92AF92BF9217
:10111000CF92DF92EF92FF920F931F93DF93CF93C3
:10112000CDB7DEB72C970FB6F894DEBF0FBECDBF9C
:101130001C014B0169017A010E94D33F2B013C0144
:10114000AA2497FCA094BA2CC501B4010E94C95AE4
:101150008B019C015E010894A11CB11CC501B30167
:10116000A2010E944140D101F5018CE001900D9255
:101170008150E1F7C1010C96F101C080D180E2807D
:10118000F3800481158126813781408551856285F0
:1011900073850E94D60C2C960FB6F894DEBF0FBE56
:1011A000CDBFCF91DF911F910F91FF90EF90DF9016
:1011B000CF90BF90AF909F908F907F906F905F90F7
:1011C0004F903F902F9008950F931F938C01825062
:1011D0009F4F6CED75E00E945B49C80185509F4FA1
:1011E0006CED75E00E945B491F910F9108959F92ED
:1011F000AF92BF92CF92DF92EF92FF920F931F9325
:10120000CF93DF93EC018C01045F1F4FC8010E9454
:101210005F0C6C01C8010E946A0C5C01C8010E944D
:10122000650CF82EC8010E94700C982EFF2009F45E
:1012300050C0B601882777FD8095982F0E94C95A23
:1012400020E030E04AEF53E40E942E5A20E030E0E4
:101250004AEF53E40E94EB5B7B018C01992009F07B
:1012600050C0B501882777FD8095982F0E94C95AF4
:1012700020E030E04AEF53E40E942E5A20E030E0B4
:101280004AEF53EC0E94EB5BC250DF4F0E94965A2C
:101290009B01AC0124523A4FCE01B9010E945B4937
:1012A0002397C801B7010E94965A9B01AC012452B2
:1012B0003A4FCE01B9010E945B49DF91CF911F9156
:1012C0000F91FF90EF90DF90CF90BF90AF909F90E5
:1012D0000895B601882777FD8095982F0E94C95AF6
:1012E00020E030E04AEF53E40E942E5A20E030E044
:1012F0004AEF53EC0E94EB5B7B018C01992009F4CF
:10130000B0CFB501882777FD8095982F0E94C95AE4
:1013100020E030E04AEF53E40E942E5A20E030E013
:101320004AEF53E40E94EB5BAFCFCF92DF92EF9294
:10133000FF920F931F938C0160915213709153137E
:1013400080915413909155130E94C95AF801E151AC
:10135000FF4F20813181428153810E94EB5B6B0101
:101360007C0160914E1370914F13809150139091B6
:1013700051130E94C95AF801E551FF4F2081318174
:10138000428153810E94EB5B9B01AC01C701B60116
:101390000E949A59F801ED50FF4F2081318142811E
:1013A00053810E94EB5B6B017C01C8010E94E33F0B
:1013B000A70196010E949B59AB01BC01C8010E9484
:1013C000EB3F1F910F91FF90EF90DF90CF9008952A
:1013D0002F923F924F925F926F927F928F929F9245
:1013E000AF92BF92CF92DF92EF92FF920F931F9333
:1013F000DF93CF9300D000D0CDB7DEB76C010E9451
:10140000950960904E1370904F1340905213509076
:10141000531310924E1310924F13109250131092B8
:10142000511310925213109253131092541310929E
:101430005513B301882777FD8095982F0E94C95ACC
:1014400069837A838B839C83B201882777FD80959B
:10145000982F0E94C95A4B015C01C60185519F4FCC
:101460009E838D8369817A818B819C81ED81FE8150
:1014700020813181428153810E94EB5B7B018C0191
:101480009FEE292E312C2C0C3D1CC501B401F1011D
:1014900020813181428153810E94EB5B9B01AC0131
:1014A000C801B7010E949B5920E030E040E05FE3B3
:1014B0000E94EB5BAB01BC01C6010E94A242860107
:1014C000075F1E4FC501B401F101208131814281C6
:1014D00053810E94EB5B9B01AC01F801608171813B
:1014E000828193810E949B59F8016083718382837A
:1014F000938386010B5F1E4F69817A818B819C816A
:10150000ED81FE8120813181428153810E94EB5B1C
:101510009B01AC01F80160817181828193810E94FD
:101520009B59F8016083718382839383F601EF5F97
:10153000FE4F80819181680E791E71826082F60172
:10154000ED5FFE4F80819181480E591E518240828D
:1015500089EF90E0C80ED91E8091521390915313D9
:10156000F6019183808380914E1390914F13929353
:10157000829326960FB6F894DEBF0FBECDBFCF91F3
:10158000DF911F910F91FF90EF90DF90CF90BF9070
:10159000AF909F908F907F906F905F904F903F9013
:1015A0002F900895CF92DF92EF92FF920F931F93A7
:1015B000CF93DF93EC018C010D511F4FC8010E94A6
:1015C00006448823B1F58E010D521F4FC8010E94B9
:1015D0000644882339F58E0105521F4FC8010E9429
:1015E00006448823B1F0C8010E942544CE010C9620
:1015F000C880D980EA80FB800C811D812E813F81CB
:10160000488559856A857B850E94A213CE010E9478
:10161000F708DF91CF911F910F91FF90EF90DF902E
:10162000CF900895C8010E942544CE010E94E80988
:10163000D2CFC8010E942544C35FDE4F8881CD50C0
:10164000D140882309F4BFCF8DE396E16CE472E0CA
:101650000E94F5538E01045F1F4FC8010E94810C48
:101660000E9434488DE396E167E572E00E94F553ED
:10167000C8010E947C0C0E9434488DE396E162E62A
:1016800072E00E9414549FCFAF92BF92CF92DF922C
:10169000EF92FF920F931F938C010E942F40C8017D
:1016A0000C960E948A14C8018D529F4F6AE070E028
:1016B0000E943244C80185529F4F6EE170E00E9443
:1016C0003244C8018D519F4F64EF71E00E94324453
:1016D00005511F4F8DEC9BE2A1ECBEE3F801819315
:1016E0009193A193B1938CE89FE1A2ECBEE3819327
:1016F0009193A193B1938DEF99E6A3EABBE3819314
:101700009193A193B193119211928F011182108242
:10171000095F10404BEFA42EB12CA00EB11EC501E5
:101720000E9441493EEFC32ED12CC00ED11EC601EE
:101730000E9441490F5F1E4FF801119211921192C0
:10174000119280E090E0A0E0B0E081939193A193AA
:10175000B1938F0180839183A283B3830950114099
:101760002DE0E22E21E0F22EE00EF11EF7011082B4
:1017700010924E1310924F13109250131092511357
:101780001092521310925313109254131092551337
:10179000C8010E94F708C60166E070E00E94554A41
:1017A000C50167E070E00E94554AC8010E94E40844
:1017B000F70110821F910F91FF90EF90DF90CF9073
:1017C000BF90AF900895CF93DF93DC01BC016758C1
:1017D0007F4FFC01E158FF4FA358BF4F208131815B
:1017E0008D919C911197AD57B040A901480F591F99
:1017F000EB0159834883FD01E558FF4F821B930B92
:1018000091838083CD018F579F4F20E014161506DA
:101810000CF053C0EC012883AE57BF4F20E080810D
:101820009181181619060CF046C02C93DB012D91FE
:101830003C91119737FD2EC02081318137FD34C096
:10184000EB01888199818B3F910524F08AEF90E02C
:1018500099838883808191818B3F910524F08AEF61
:1018600090E091838083DB018D919C9186509F4F06
:101870002CF486E09FEFEB0199838883808191812E
:1018800086509F4F24F486E09FEF91838083DF9101
:10189000CF91089588279927821B930B8D939C9352
:1018A0002081318137FFCCCF88279927821B930B6A
:1018B00091838083C5CF21E0B8CF21E0ABCFFC017D
:1018C000E758FF4F808191810895FC01EF57FF4F4A
:1018D00080810895FC01E558FF4F80819181089532
:1018E000FC01EE57FF4F8081089521E0FC0120A309
:1018F0000895FC0110A208959C0124553F4FC90191
:1019000008959C012F563F4FC9010895EF92FF9211
:101910000F931F937C010DE316E1C80163E672E0AB
:101920000E941454C70185960E94D144C8016CE6F8
:1019300072E00E941454C701815B9F4F0E94D14402
:10194000C80165E772E00E94F553C7018F569F4FAB
:101950000E943448C8016CE772E00E94F553C70149
:1019600084559F4F0E9434481F910F91FF90EF9034
:101970000895EF92FF920F931F937C010DE316E100
:10198000C80163E872E00E94F553C7010E94464314
:10199000C8016CE872E00E94F553C7010C960E94E2
:1019A00046431F910F91FF90EF900895CF92DF92E1
:1019B000EF92FF920F931F93DF93CF93CDB7DEB7D4
:1019C0002C970FB6F894DEBF0FBECDBFC982DA8266
:1019D000EB82FC820D831E832F83388749875A87C9
:1019E0006B877C87DC01FE0131962CE001900D9223
:1019F0002150E1F7DC011C96FC012CE001900D92D6
:101A00002150E1F70E94B90C2C960FB6F894DEBF76
:101A10000FBECDBFCF91DF911F910F91FF90EF903F
:101A2000DF90CF900895CF93DF93EC018BA19CA121
:101A30008130910591F0029769F481E090E09CA3D8
:101A40008BA3CE010E94B90C8DE396E166E972E0AA
:101A50000E941454DF91CF91089583E090E09CA3FD
:101A60008BA3CE010E94B90C8DE396E16DE972E083
:101A70000E9414541AA219A2DF91CF910895CF9217
:101A8000DF92EF92FF920F931F93815B9F4F0E9413
:101A9000A7441F910F91FF90EF90DF90CF90089592
:101AA000CF92DF92EF92FF920F931F9385960E9441
:101AB000A7441F910F91FF90EF90DF90CF90089572
:101AC0002F923F924F925F926F927F928F929F924E
:101AD000AF92BF92CF92DF92EF92FF920F931F933C
:101AE000DF93CF93CDB7DEB7A0970FB6F894DEBFE4
:101AF0000FBECDBF4C012E010894411C511CC201E8
:101B00000E940F412DB73EB72C5030400FB6F894CD
:101B10003EBF0FBE2DBFE9E0AE2EB12CAC0EBD1EF8
:101B2000ADB7BEB711967CE0672E712C680C791C9E
:101B3000F3018CE001900D928150E1F7C501F401B1
:101B4000C080D180E280F3800481158126813781B5
:101B500040855185628573850E941D41D201F50142
:101B600088E001900D928150E1F72DB73EB7245FD8
:101B70003F4F0FB6F8943EBF0FBE2DBFF40181A1B9
:101B800092A18130910521F1823091050CF4F8C1C8
:101B90008230910509F446C1039709F4A9C0A096C3
:101BA0000FB6F894DEBF0FBECDBFCF91DF911F916E
:101BB0000F91FF90EF90DF90CF90BF90AF909F90EC
:101BC0008F907F906F905F904F903F902F900895EF
:101BD0006FE4A62EB12CA80CB91CCE014196F401DD
:101BE000C080D180E280F380048115812681378115
:101BF00040855185628573850E946842C2010989CA
:101C00001A892B893C894D895E896F89788D0E945C
:101C10008341AB01BC01C5010E94A2452DE730E024
:101C2000820E931E0E94965AF4017183608323E80A
:101C30003FEF820E931EF40183A194A1019709F452
:101C400050C1C2010E9405427B018C01C3010E9468
:101C5000E33F9B01AC01C801B7010E94C94120E0EC
:101C600030E040E050E00E94E05B18160CF0FFC04E
:101C7000C2010E9405427B018C01C3010E94E33F27
:101C80009B01AC01C801B7010E94C9412BED3FE0A7
:101C900049EC5FE30E94E05B18160CF0FFC0C20144
:101CA0000E94054255E2C52ED12CC80CD91C2BED43
:101CB0003FE049E450E40E949B59AB01BC01C601DE
:101CC0000E94A144F40163A174A1C5010E948C4546
:101CD000882309F464CFF40163A174A1C6010E94B2
:101CE0008C45882309F45BCFC4010E94130D57CFA4
:101CF0002FE4222E312C280C391CCE014996F401F8
:101D0000C080D180E280F3800481158126813781F3
:101D100040855185628573850E946842C201098DA4
:101D20001A8D2B8D3C8D4D8D5E8D6F8D78A10E940F
:101D30008341AB01BC01C1010E94A2452DE730E007
:101D4000820E931E0E94965AF4017183608323E8E9
:101D50003FEF820E931EF40183A194A1019709F431
:101D6000DAC0C3010E94E33F7B018C01C4010E94E1
:101D7000E33F9B01AC01C801B7010E94C9415B016F
:101D80006C01C2010E9405427B018C01C3010E94CB
:101D9000E33F9B01AC01C801B7010E94C9419B010F
:101DA000AC01D7FAD094D7F8D0945058CA01B901F1
:101DB0000E949B599B01AC01C601B5010E949B5931
:101DC00020E030E040E050E00E94C9417B018C01FE
:101DD00085E2C82ED12CC80CD91CC6010E94C9446A
:101DE0009B01AC01C801B7010E949B59AB01BC012A
:101DF000C6010E94A245EFE7F0E08E0E9F1E0E94F2
:101E0000965AF4017183608321E83FEF820E931E9E
:101E1000F40163A174A1C1010E948C45882309F4D7
:101E2000BECE59CF84010B5D1F4FC4010E94E33F1A
:101E3000AB01BC01C8010E94A2452FE730E0820E31
:101E4000931E0E94965AF40171836083129212923B
:101E50004F0123E83FEF820E931EF40163A174A1AA
:101E6000C8010E948C45882309F499CE3DCFC20158
:101E70000E9405427B018C01C3010E94E33F9B014C
:101E8000AC01C801B7010E94C9412BED3FE049EC0C
:101E90005FEB0E94275A88230CF401CF45E2C42E41
:101EA000D12CC80CD91CC2010E940542AB01BC0157
:101EB000C6010E94A144C4010E94E33FAB01BC01E2
:101EC000C6010E94A2452FE730E0820E931E0E94B9
:101ED000965AF4017183608321E83FEF820E931ECE
:101EE000F1CE35E2C32ED12CC80CD91CC3010E94FF
:101EF000E33FAB01BC01C6010E94A144C4010E94A2
:101F0000E33FAB01BC01C6010E94A245EFE7F0E050
:101F10008E0E9F1EDCCFC3010E94E33F7B018C012C
:101F2000C4010E94E33F9B01AC01C801B7010E94BC
:101F3000C941905820E030E040E050E00E949B59B9
:101F400020E030E040E050E00E94C9417B018C017C
:101F500095E2C92ED12CC80CD91CC6010E94C944D7
:101F60009B01AC01C801B7010E949B59AB01BC01A8
:101F7000C6010E94A2452FE730E0820E931E3FCF9C
:101F8000892B09F00CCE2FE730E0820E931EF4016E
:101F9000118210821292129202CE2F923F924F9291
:101FA0005F926F927F928F929F92AF92BF92CF92E9
:101FB000DF92EF92FF920F931F93DF93CF93CDB7F2
:101FC000DEB764970FB6F894DEBF0FBECDBF4C01ED
:101FD000A986BA86CB86DC86ED86FE860F87188BAF
:101FE000298B3A8B4B8B5C8B83E890E0880E991E93
:101FF000F401118210828DE79FEF880E991EF40183
:1020000072A361A382E090E094A383A3B5E24B2E78
:10201000512C480C591CC2010E94C144AFE46A2EE5
:10202000712C680C791CC3010E94C144F40181A188
:1020300092A18130910509F453C0823091050CF4CE
:10204000BFC082309105D9F0039771F164960FB645
:10205000F894DEBF0FBECDBFCF91DF911F910F91DE
:10206000FF90EF90DF90CF90BF90AF909F908F90B8
:102070007F906F905F904F903F902F9008958401D4
:10208000045F1F4FCE0109960E94E33FAB01BC01E4
:10209000C8010E94EB3FC8010E94E33FAB01BC01B5
:1020A000C2010E94A144D2CF8401045F1F4FD80116
:1020B000FE0139968CE001900D928150E1F78DE39D
:1020C00096E16AEC72E00E94F553C8010E94464313
:1020D000C30140E050E060E070E00E94A144DBCF2B
:1020E000FCE02F2E312C280C391CCE0109960E94C1
:1020F000D33FAB01BC01C1010E94A2428DE396E136
:102100006AEA72E00E94F553C1010E9446438DB70E
:102110009EB70C970FB6F8949EBF0FBE8DBFADB79C
:10212000BEB71196F1018CE001900D928150E1F75C
:102130005E010894A11CB11CC501F401C080D180CE
:10214000E280F380048115812681378140855185A5
:10215000628573850E941D418401085E1F4FD8016E
:10216000F50188E001900D928150E1F78DB79EB79F
:102170000C960FB6F8949EBF0FBE8DBFCE01099688
:102180000E94D33F20E030E040E050E00E94275A18
:1021900088231CF4C8010E946F41C8010E941943A2
:1021A000C30140E050E060E070E00E94A144C10142
:1021B0000E94E33FAB01BC01C2010E94A14446CF93
:1021C000892B09F043CF8DE396E165EA72E00E9426
:1021D00014543CCF6F927F928F929F92AF92BF9296
:1021E000CF92DF92EF92FF920F931F93DF93CF93E3
:1021F000CDB7DEB7EC970FB6F894DEBF0FBECDBFFC
:102200005C014E010894811C911CC4010E940F4185
:102210008DB79EB70C970FB6F8949EBF0FBE8DBFBB
:1022200099E0692E712C6C0E7D1EADB7BEB711966C
:10223000F5013C968CE001900D928150E1F7C301CD
:10224000F501C080D180E280F38004811581268170
:10225000378140855185628573850E941D41D40177
:10226000F30188E001900D928150E1F78DB79EB7A0
:102270000C960FB6F8949EBF0FBE8DBFCE0141964F
:10228000F501C080D180E280F38004811581268130
:10229000378140855185628573850E946842C401FB
:1022A00009891A892B893C894D895E896F89788DC6
:1022B0000E94834120E030E040E050E00E94275A35
:1022C00088230CF4B2C081E9882E912C8A0C9B1CC7
:1022D000C401F501C080D180E280F38004811581C2
:1022E0002681378140855185628573850E94094723
:1022F000882309F461C00CEA602E712C6A0C7B1CE7
:10230000C301F501C080D180E280F3800481158192
:102310002681378140855185628573850E940947F2
:102320008823A1F0CE014996B3010E946B46C401F7
:10233000C98CDA8CEB8CFC8C0D8D1E8D2F8D38A109
:1023400049A15AA16BA17CA10E947646C5010E94B9
:10235000B90CC4010E94CA46CE0185960E942F4046
:10236000C50160E070E0ADA0BEA0CFA0D8A4E9A4F4
:10237000FAA40BA51CA52DA53EA54FA558A90E9402
:10238000CD0F8DE396E16CEF72E00E941454EC9651
:102390000FB6F894DEBF0FBECDBFCF91DF911F9176
:1023A0000F91FF90EF90DF90CF90BF90AF909F90F4
:1023B0008F907F906F9008951CEA812E912C8A0C4B
:1023C0009B1CC401F501C080D180E280F3800481B0
:1023D00015812681378140855185628573850E94EC
:1023E00009478823A1F2C5010E94B90CC4010E94CB
:1023F000CA46CE01C1960E942F40C50160E070E040
:10240000A9A8BAA8CBA8DCA8EDA8FEA80FA918AD6A
:1024100029AD3AAD4BAD5CAD0E94CD0F8DE396E199
:102420006CE073E00E941454B2CF8DE396E16AEE43
:1024300072E00E941454ABCF4F925F926F927F92E2
:102440008F929F92AF92BF92CF92DF92EF92FF92C4
:102450000F931F93DF93CF93CDB7DEB764970FB67B
:10246000F894DEBF0FBECDBF3C0135E8432E512CA2
:10247000480E591EC201F301C080D180E280F38072
:102480000481158126813781408551856285738558
:102490000F2EFAE98F2EF9E99F2EF9E9AF2EFEE310
:1024A000BF2EF02D0E945B404DB75EB74C505040A0
:1024B0000FB6F8945EBF0FBE4DBFADB7BEB7119655
:1024C000F2018CE001900D928150E1F75E010894D9
:1024D000A11CB11CC501F301C080D180E280F38052
:1024E00004811581268137814085518562857385F8
:1024F0000E941D414FE750E0640E751EF3012081DC
:10250000318141E85FEF640E751E37FD17C18DE71D
:1025100090E0680E791EF3018081918143E85FEFBE
:10252000640E751E97FD06C1280F391F8DB79EB723
:102530000C960FB6F8949EBF0FBE8DBF22333105A7
:1025400094F0C5010E94EB4220E030E040E251E40B
:102550000E94275A8823F4F043E850E0640E751E69
:10256000F3011182108264960FB6F894DEBF0FBE9D
:10257000CDBFCF91DF911F910F91FF90EF90DF9032
:10258000CF90BF90AF909F908F907F906F905F9013
:102590004F900895D62CC72CC3010E94E33F7B01C6
:1025A0008C01C2010E94E33F9B01AC01C801B7014D
:1025B0000E949A5920E030E040E050E00E94E05B49
:1025C00018160CF08BC0C3010E94E33F7B018C0105
:1025D000C2010E94E33F9B01AC01C801B7010E9408
:1025E0009A592DEC3CEC4CE45DE30E94275A87FF9E
:1025F000B3CF23E8822E912C860C971CF4018081A6
:1026000091810196918380838DE396E16CE173E083
:102610000E94F5538D2D9C2D0E94E33F7B018C0180
:10262000C2010E94E33F9B01AC01C801B7010E94B7
:102630009A5920E030E040E050E00E94E05B18163C
:102640000CF064C08D2D9C2D0E94E33F7B018C011A
:10265000C2010E94E33F9B01AC01C801B7010E9487
:102660009A5920E030E048EC52E40E94EB5BA62F40
:10267000482F692F8DE396E12A2F372FE42FF62F6D
:10268000A901BF0122E030E00E946155F401808180
:10269000918145970CF467CFC3010E94B90C8DE37B
:1026A00096E16CE273E00E941454CE0109960E94F8
:1026B0002F40C30160E070E0A984BA84CB84DC843D
:1026C000ED84FE840F85188929893A894B895C89B4
:1026D0000E94CD0FF4011182108245CFC3010E94E8
:1026E000E33F7B018C01C2010E94E33F9B01AC01EF
:1026F000C801B7010E949A592DEC3CEC4CE45DEB0B
:102700000E94E05B18160CF027CF73CF8D2D9C2D07
:102710000E94E33F7B018C01C2010E94E33F9B01C9
:10272000AC01C801B7010E949A5920E030E048ECA2
:1027300052EC9BCF909581959F4FF6CE3095219589
:102740003F4FE5CEAF92BF92CF92DF92EF92FF92D2
:102750000F931F93DF93CF93CDB7DEB72C970FB6B0
:10276000F894DEBF0FBECDBF5C01C982DA82EB8276
:10277000FC820D831E832F83388749875A876B8796
:102780007C87DC01FE0131968CE001900D92815036
:10279000E1F7C5010E94600DC5010E94E30BF50140
:1027A00081A192A181309105B9F0892B89F42C96F1
:1027B0000FB6F894DEBF0FBECDBFCF91DF911F9152
:1027C0000F91FF90EF90DF90CF90BF90AF90089562
:1027D000C5010E941C12EBCF80A18823C9F3C5015B
:1027E0000E94EA10F50181A192A1DFCFCF93DF9380
:1027F000EC016130710589F162307105C1F0672B20
:1028000099F48DE396E163E373E00E941454CE01E2
:10281000815B9F4F64E670E00E949744CE018596ED
:1028200064E670E00E949744DF91CF9108958DE3B4
:1028300096E161E573E00E941454CE01815B9F4FE5
:102840006AEF70E00E949744CE0185966AEF70E0CF
:102850000E949744DF91CF9108958DE396E161E462
:1028600073E00E941454CE01815B9F4F66E970E0D3
:102870000E949744CE01859666E970E00E949744D5
:10288000DF91CF910895AF92BF92CF92DF92EF92F6
:10289000FF920F931F93DF93CF93CDB7DEB72C97A3
:1028A0000FB6F894DEBF0FBECDBF5C0160E070E0F4
:1028B0000E94F613CE01019640E050E06AE774EC06
:1028C00000E010E020E030E0680179010E94414022
:1028D000C50161E070E0A980BA80CB80DC80ED802A
:1028E000FE800F81188529853A854B855C850E947D
:1028F000CD0F2C960FB6F894DEBF0FBECDBFCF9193
:10290000DF911F910F91FF90EF90DF90CF90BF90DC
:10291000AF9008958F929F92AF92BF92CF92DF9225
:10292000EF92FF920F931F93DF93CF93CDB7DEB754
:1029300068970FB6F894DEBF0FBECDBF4C010E9462
:102940002F40C4010C960E942F40C40148960E945B
:102950000F41F40110A212A211A283E090E094A30F
:1029600083A38DB79EB708970FB6F8949EBF0FBE8E
:102970008DBF87EA97EEAEE0BEE3EDB7FEB7818389
:102980009283A383B48387EA97EEAEE8BDE38583A1
:102990009683A783B087C401859661E020E030E08C
:1029A00048E453E40F2EF0E0EF2EF0E0FF2EF0E0CD
:1029B0000F2FF0E01F2FF02D570168010E944844AF
:1029C00080E090E0A0EAB2E4EDB7FEB781839283A5
:1029D000A383B48380E090E0A0EFB1E48583968385
:1029E000A783B087C401815B9F4F60E020E030E0A7
:1029F00040EC5FE30E94484489E790E0880E991E0E
:102A0000F401119211924F011182108286E090E040
:102A1000880E991E81E0F401819381934F01118208
:102A200010828DE79FEF880E991EEDB7FEB738969E
:102A30000FB6F894FEBF0FBEEDBFC4018B579F4F7A
:102A40000E942F40CE01019640E050E068EC72E415
:102A500000E010E02FE133E4760165010E9441407F
:102A6000C4018F569F4F6CE370E0A980BA80CB8081
:102A7000DC80ED80FE800F81188529853A854B85A5
:102A80005C850E949348CE010D9640E050E068ECD2
:102A900072E400E010E02FE133EC0F2EF0E0CF2ED7
:102AA000F0E0DF2EF0E0EF2EF0E0FF2EF02D0E94A0
:102AB0004140C40184559F4F6DE370E0AD84BE84F6
:102AC000CF84D888E988FA880B891C892D893E89AA
:102AD0004F89588D0E949348C40160E070E00E94C5
:102AE000F61368960FB6F894DEBF0FBECDBFCF9138
:102AF000DF911F910F91FF90EF90DF90CF90BF90EB
:102B0000AF909F908F90089585E00E946259019741
:102B1000A1F080915A1390915B13A0915C13B09136
:102B20005D130197A109B10980935A1390935B1328
:102B3000A0935C13B0935D13089580915A13909104
:102B40005B13A0915C13B0915D130196A11DB11DA3
:102B500080935A1390935B13A0935C13B0935D130F
:102B6000089584E00E9462590197A1F08091561364
:102B700090915713A0915813B09159130196A11D2C
:102B8000B11D8093561390935713A0935813B0938D
:102B9000591308958091561390915713A09158138B
:102BA000B09159130197A109B109809356139093DD
:102BB0005713A0935813B0935913089587E10E94B7
:102BC0006259019739F18091521390915313A0915A
:102BD0005413B09155130197A109B1098093521371
:102BE00090935313A0935413B09355138091621391
:102BF00090916313A0916413B09165130197A1099B
:102C0000B1098093621390936313A0936413B093FC
:102C1000651308958091521390915313A09154130A
:102C2000B09155130196A11DB11D8093521390933D
:102C30005313A0935413B093551380916213909142
:102C40006313A0916413B09165130196A11DB11D8A
:102C50008093621390936313A0936413B0936513EE
:102C6000089586E10E946259019739F180914E13CF
:102C700090914F13A0915013B09151130196A11D43
:102C8000B11D80934E1390934F13A0935013B093A4
:102C9000511380915E1390915F13A0916013B091D6
:102CA00061130196A11DB11D80935E1390935F1374
:102CB000A0936013B0936113089580914E13909187
:102CC0004F13A0915013B09151130197A109B1096D
:102CD00080934E1390934F13A0935013B0935113BE
:102CE00080915E1390915F13A0916013B091611376
:102CF0000197A109B10980935E1390935F13A0938C
:102D00006013B09361130895FC01EA5BFF4F608389
:102D1000089508959C01295D3F4FC90108959C01C4
:102D20002D5D3F4FC90108959C01255D3F4FC901AD
:102D300008959C012E583F4FC90108959C012754C6
:102D40003F4FC90108959C0124543F4FC901089584
:102D50009C0121543F4FC90108959C012A5F3F4FB8
:102D6000C90108959C01205E3F4FC9010895EF926B
:102D7000FF920F931F938C018DE3E82E86E1F82ECE
:102D8000C7016FE573E00E941454C70166E773E062
:102D90000E94F553F80160897189C7014AE050E04B
:102DA0000E94D6531F910F91FF90EF900895EF92DC
:102DB000FF920F931F93CF93DF93FC01EC01CD5B48
:102DC000DF4F8881882341F480E0DF91CF911F910C
:102DD0000F91FF90EF900895FF96E080F1800281BF
:102DE00013810E94C557E616F7060807190760F712
:102DF000188281E0DF91CF911F910F91FF90EF90AA
:102E00000895CF92DF92EF92FF920F931F936C0180
:102E10007B010E94C5572FE330E0C20ED31E00276E
:102E2000F7FC0095102FE60EF71E081F191FF6017C
:102E3000E192F1920193119381E080831F910F91B0
:102E4000FF90EF90DF90CF900895EF92FF920F9355
:102E50001F93CF93DF93EC018F85882341F480E0AB
:102E6000DF91CF911F910F91FF90EF900895EB8428
:102E7000FC840D851E850E94C557E616F7060807D7
:102E8000190768F71F8681E0DF91CF911F910F919D
:102E9000FF90EF900895CF92DF92EF92FF920F9301
:102EA0001F936C017B010E94C5570027F7FC00951A
:102EB000102FE60EF71E081F191FF601E386F48691
:102EC0000587168781E087878DE396E165E873E0E3
:102ED0000E94F5531F910F91FF90EF90DF90CF90DC
:102EE0000895AF92BF92CF92DF92EF92FF920F932D
:102EF0001F93CF93DF93EC010E94C5575B016C01D8
:102F0000EC84FD840E851F85CE010E940644882333
:102F100059F4DF91CF911F910F91FF90EF90DF90C7
:102F2000CF90BF90AF900895CE010E942544B50187
:102F30006E197F09882777FD8095982F0E94C95ABE
:102F40007B018C0120E030E040E050E00E94E05B3B
:102F50001816FCF68889882339F560916A137091F8
:102F60006B1380916C1390916D130E94C95A20E0ED
:102F700030E048EC52E40E94EB5BA80197010E940C
:102F80002E5A688779878A879B8710926A131092D6
:102F90006B1310926C1310926D130E94C5576C87BF
:102FA0007D878E879F87B5CF609166137091671379
:102FB00080916813909169130E94C95A20E030E013
:102FC00048EC52E40E94EB5BA80197010E942E5A44
:102FD000688779878A879B87109266131092671398
:102FE0001092681310926913D8CFFF920F931F931A
:102FF0008C01F62E64E670E00E943244F801F08AFB
:103000001F910F91FF9008956CED75E00E945B4950
:103010000895FC018485882331F4CF0164EA76E0C9
:103020000E945B490895CF0164E175E00E945B490D
:103030000895FC018485882331F4CF0160EB74E0AE
:103040000E945B490895CF0168E077E00E945B49E8
:103050000895FC018381882331F4CF016AEF75E084
:103060000E945B490895CF0166EF74E00E945B49BE
:103070000895FC018381882331F4CF0168EB76E069
:103080000E945B490895CF0160E274E00E945B49B1
:103090000895FC018381882331F4CF016CE974E049
:1030A0000E945B490895CF0160E476E00E945B498D
:1030B0000895FC01638174810E945B490895FC01BD
:1030C00080E293E094838383CF0160E273E00E9407
:1030D0005B49089564E378E00E945B4908956FE0DE
:1030E00077E00E945B49089560E476E00E945B49C6
:1030F00008956CEB72E00E945B4908956CED75E0F9
:103100000E945B49089568E978E00E945B49089550
:10311000CF93DF93EC01888999898430910509F474
:1031200088C085309105FCF08630910509F4A4C073
:103130008630910574F18730910509F452C00897E3
:1031400029F5CE0160ED77E00E944B17CE0108967D
:103150000E9479188DE396E161E574E00E941454B1
:10316000DF91CF9108958130910509F44CC08230F0
:1031700091050CF18230910509F46DC0039731F48B
:103180008DE396E168EE73E00E941454DF91CF91D5
:103190000895CE016CE271E00E944B17CE010896B3
:1031A0000E947E188DE396E16BE174E00E94145456
:1031B000DF91CF910895892B49F7CE0105960E94A2
:1031C0006F18CE010E946A18CE0108960E947E18E0
:1031D0008DE396E163E973E00E941454DF91CF918F
:1031E0000895CE0160ED77E00E944B17CE0108965E
:1031F0000E947E188DE396E161E574E00E9414540C
:10320000DF91CF910895CE0160E273E00E944B17E9
:10321000CE0105960E947418CE0108960E9483186C
:103220008DE396E162EB73E00E941454DF91CF913D
:103230000895CE0164EF71E00E944B17CE01059610
:103240000E946F188DE396E161E074E00E941454CF
:10325000DF91CF910895CE0164EF71E00E944B178A
:10326000CE010E945F188DE396E160ED73E00E944D
:103270001454DF91CF910895CE0160ED77E00E9464
:103280004B17CE0108960E9479188DE396E165E30D
:1032900074E00E941454DF91CF9108950F931F930F
:1032A000CF93DF938C01EB018DE396E166E774E049
:1032B0000E9414548DE396E167E774E00E94F55391
:1032C0008DE396E1BE014AE050E00E94D653CE0164
:1032D0000197029708F481C0209709F458C08DE344
:1032E00096E16EED74E00E94F553F80160897189F2
:1032F0008DE396E14AE050E00E94D653F8018089C0
:1033000091898430910509F485C08530910564F177
:103310008630910509F490C0863091050CF44CC0BC
:103320008730910509F46DC0089761F5CD2B51F5F3
:10333000F801118A108A8DE396E16EEF74E00E9425
:10334000F553F801608971898DE396E14AE050E018
:103350000E94D653F8011786C8010E948818DF9191
:10336000CF911F910F9108958130910509F45BC0B1
:10337000823091054CF18230910509F46FC00397BA
:1033800009F463C0DF91CF911F910F9108958DE3F0
:1033900096E165E974E00E9414548DE396E16CEBCC
:1033A00074E00E94F5538DE396E160E070E04AE03E
:1033B00050E00E94D65393CF229721F786E090E009
:1033C000F801918B808BB7CF892BE1F6C130D10505
:1033D000C9F6F801D18BC08BAECF8DE396E165E9DC
:1033E00074E00E9414548DE396E167E974E00E9452
:1033F000F5538DE396E1BE014AE050E00E94D653BA
:103400006BCFCD2B09F0BECF88E090E0F801918B17
:10341000808B91CFCD2B09F0B5CF85E090E0F801FE
:10342000918B808B88CFCD2B09F0ACCF82E090E0E0
:10343000F801918B808B7FCFCD2B09F0A3CF87E054
:1034400090E0F801918B808B76CF239709F09ACF8B
:1034500084E090E0F801918B808B6DCFCD2B09F04B
:1034600091CF83E090E0F801918B808B64CF0F9334
:103470001F93CF93DF938C01EC016296CE010E94E3
:103480000644882329F4DF91CF911F910F9108956D
:10349000CE010E942544C8010E9425178823F9F413
:1034A000F80180899189039771F783819481F8E00D
:1034B00084339F07D1F00A96F80194838383855360
:1034C00098402CF084E398E0F80194838383C8014A
:1034D0000E945918DF91CF911F910F910895C80153
:1034E00060E070E00E944E19DBCFC80163E070E03D
:1034F0000E944E19C8CF6AE377E00E945B490895A5
:1035000064E276E00E945B490895FC018081882393
:1035100039F4CF0101966AE678E00E945B4908958C
:10352000CF0101966DE574E00E945B490895FC01AE
:103530008081882339F4CF01019665E977E00E9404
:103540005B490895CF01019661EE74E00E945B49EA
:103550000895FC018081882339F4CF01019661EA46
:1035600075E00E945B490895CF01019668E677E017
:103570000E945B490895FC018081882339F4CF01C2
:10358000019663E974E00E945B490895CF010196BA
:103590006AE177E00E945B490895FC0180818823FD
:1035A00039F4CF01019669E477E00E945B49089500
:1035B000CF0101966DE674E00E945B490895CF93B8
:1035C000DF93EC01CC5BDF4FE881F981C454D0403C
:1035D000E731F105E0F4EE58FF4FEE0FFF1F0590C5
:1035E000F491E02D1994CA5BDF4F8881C654D04016
:1035F000882309F47FC182E090E0988B8F8781E077
:103600008E878DE396E16CE677E00E941454DF919B
:10361000CF910895CE0168EC70E00E940117CE01B1
:1036200001960E943918CE0143960E94851ACE0158
:1036300047960E94BB1A8DE396E16EE477E00E9404
:103640001454E5CFCE0168EC70E00E940117CE0162
:1036500043960E94A91ACE0147960E94CD1A8DE387
:1036600096E16DE277E00E941454D1CFCE0101962D
:103670000E943918188A1F8681E08E878DE396E1B3
:103680006CE077E00E941454C2CFCE0168EC70E089
:103690000E940117CE0101960E9449188DE396E120
:1036A0006DEE76E00E941454B2CFCE0168EC70E06B
:1036B0000E9401178DE396E16EEC76E00E941454AF
:1036C000A6CF82E090E0988B8F8781E08E878DE394
:1036D00096E16DEA76E00E94145499CFCE0168EC31
:1036E00070E00E940117CE0101960E9439188DE307
:1036F00096E16CE876E00E94145489CF81E090E076
:10370000988B8F8781E08E878DE396E16BE676E07C
:103710000E9414547CCFCE0168EC70E00E94011727
:10372000CE0143960E94851ACE0147960E94BB1A8D
:10373000CE0101960E9429188DE396E16AE476E0B5
:103740000E94145464CFCE0168EC70E00E9401170F
:10375000CE0143960E94851ACE0147960E94BB1A5D
:103760008DE396E16DE276E00E94145450CFCE01D5
:1037700068EC70E00E9401178DE396E162E176E06B
:103780000E94145444CFCE0168EC70E00E940117EF
:10379000CE0143960E94A91ACE0147960E94CD1AE7
:1037A0008DE396E16BEF75E00E94145430CF188AD8
:1037B0001F8681E08E878DE396E162EE75E00E94C0
:1037C000145425CFCE0168EC70E00E940117CE01A1
:1037D00001960E9439188DE396E169EC75E00E942C
:1037E000145415CF81E090E0988B8F8781E08E870D
:1037F0008DE396E164EB75E00E94145408CFCE018E
:1038000068EC70E00E940117CE0101960E94291811
:10381000CE0143960E94971A8DE396E16DE975E01B
:103820000E941454F4CECE0168EC70E00E9401179F
:10383000CE0101960E9429188DE396E165E875E0B6
:103840000E941454E4CECE0168EC70E00E9401178F
:103850008DE396E16BE675E00E941454D8CECE015C
:1038600068EC70E00E9401178DE396E167E575E072
:103870000E941454CCCECE0168EC70E00E94011777
:10388000CE0143960E94A91ACE0147960E94CD1AF6
:103890008DE396E165E475E00E941454B8CECE0144
:1038A00068EC70E00E940117CE0143960E94851AD1
:1038B000CE0147960E94BB1A8DE396E16DE275E05A
:1038C0000E941454A4CECE0101960E943918188A81
:1038D0001F8681E08E87CE0143960E94A91ACE01F1
:1038E00047960E94CD1A8DE396E16AE175E00E9449
:1038F00014548DCE81E090E0988B8F8781E08E8785
:1039000080CEEF92FF920F931F93CF93DF937C01B2
:10391000EB018DE396E166E774E00E9414548DE3B9
:1039200096E16AE877E00E94F5538DE396E1BE01E7
:103930004AE050E00E94D653C130D10561F0C33057
:10394000D10549F0C430D10531F0C530D10519F0A9
:10395000C630D10599F48DE396E165E974E00E94E3
:1039600014548DE396E16DEA77E00E94F5538DE300
:1039700096E1BE014AE050E00E94D653209709F438
:103980005CC0C730D10509F475C08DE396E16BE3E7
:1039900078E00E94F55387010C5B1F4FF8016081AE
:1039A00071818DE396E14AE050E00E94D6538DE3A9
:1039B00096E160E678E00E94F553F70161AD72ADE3
:1039C0008DE396E14AE050E00E94D653F801208151
:1039D0003181F9012731310548F5E757FF4FEE0FE7
:1039E000FF1F0590F491E02D1994CD2BF9F4F80107
:1039F000118210828DE396E163E778E00E94F5532F
:103A0000F801608171818DE396E14AE050E00E9407
:103A1000D65323E430E0E20EF31EF70110822DEBC3
:103A20003FEFE20EF31EC7010E94DF1ADF91CF9134
:103A30001F910F91FF90EF9008958DE396E165E956
:103A400074E00E9414548DE396E167ED77E00E94E4
:103A5000F5538DE396E160E070E04AE050E00E94AB
:103A6000D65393CF279711F781E190E0F801918326
:103A70008083C0CF8DE396E165E974E00E94145421
:103A80008DE396E169E078E00E94F5538DE396E1DD
:103A900067E070E04AE050E00E94D65376CFCD2B2D
:103AA00029F683E090E0F80191838083A3CFC230B0
:103AB000D10509F49CCF239709F0B8CF82E090E0BC
:103AC000F8019183808396CFC130D10509F4B9C044
:103AD000249709F0ABCF8BE090E0F80191838083CD
:103AE00089CFCD2B09F0A2CF8EE090E0F801918331
:103AF000808380CFCD2B09F099CFB6CFCD2B09F0A5
:103B000095CFF70181AD92AD04970CF49EC026E4E9
:103B100030E0E20EF31EF70180812AEB3FEFE20E68
:103B2000F31E882309F497C08DE090E0F80191839B
:103B3000808360CFCD2B09F079CF86E190E0F8014A
:103B40009183808357CF279709F070CF8AE090E068
:103B5000F801918380834ECF279709F067CF8FE0DC
:103B600090E0F8019183808345CF259709F05ECFDF
:103B700082E190E0F801918380833CCFCD2B09F066
:103B800055CFF70181AD92AD019692AF81AF26E09E
:103B900030E0F8013183208304970CF42BCF85E0CB
:103BA00090E09183808326CFCD2B09F03FCFC701D2
:103BB0008C960E941B49882309F419CF84E090E079
:103BC000F8019183808316CFCD2B09F02FCF89E0A8
:103BD00090E0F801918380830DCF279709F026CFDD
:103BE00088E090E0F8019183808304CFCD2B09F029
:103BF0001DCF87E090E0F80191838083FBCE26976C
:103C000009F014CF83E190E0F80191838083F701FC
:103C100012AE11AE2331310509F0ECCE07CFCD2B1A
:103C200009F004CF80E190E0F80191838083E2CE37
:103C3000279709F0FBCE84E190E0F801918380831F
:103C4000D9CEF801D183C083D5CE85E190E0F801CB
:103C500091838083CFCE8CE090E0F80191838083C4
:103C6000C9CE6CED75E00E945B4908956CED75E07E
:103C70000E945B49089564ED74E00E945B490895D9
:103C800068EE73E00E945B49089563E875E00E9466
:103C90005B4908950F931F938C01039664E175E0CF
:103CA0000E945B49C80164E175E00E945B491F9175
:103CB0000F9108950F931F938C01039668EE73E0A4
:103CC0000E945B49C80168EE73E00E945B491F9146
:103CD0000F910895FC018081882339F4CF0101966A
:103CE00064EC77E00E945B490895CF0101966CE88F
:103CF00075E00E945B490895FC018081882339F4B6
:103D0000CF0101966DE674E00E945B490895CF01F2
:103D1000019661E478E00E945B4908950F931F9338
:103D20008C0103966CE677E00E945B49C80164ED64
:103D300074E00E945B491F910F9108950F931F93A8
:103D40008C01039665E478E00E945B49C80160E35A
:103D500074E00E945B491F910F910895EF92FF92CA
:103D60000F931F93CF93DF93EC018C010A5F1F4FDA
:103D7000C8010E94F9488823C9F08C858823D1F1B5
:103D800010925A1310925B1310925C1310925D13F1
:103D9000E0905A13F0905B138985882389F4DF91B2
:103DA000CF911F910F91FF90EF9008958C858823FC
:103DB00079F7E0905613F09057138985882379F3AB
:103DC0008A859B850097F9F081309105E1F1029792
:103DD00031F7C7018B599140439708F455C08AEADF
:103DE000E81681E0F8060CF04AC0CE010E940918DE
:103DF0001D86D5CF10925613109257131092581358
:103E000010925913D6CFC8010E94F948882381F136
:103E1000CE010E9404188DE396E164EE78E00E94E2
:103E20001454198681E08D878C85882309F440C05D
:103E300010925A1310925B1310925C1310925D1340
:103E40008A859B85C1CFCE0103960E94F9488823BD
:103E500041F1CE010E9404188DE396E163E079E020
:103E60000E941454198681E08D878A859B85AFCF87
:103E7000CE010E9419181D868A859B85A5CFCE018B
:103E80000E9419181D868BCFCE010E9404188DE365
:103E900096E161E279E00E941454198681E08D87F1
:103EA0007ECFCE010E9409181D868A859B858FCF03
:103EB00010925613109257131092581310925913D0
:103EC0008A859B8581CF0F931F93CF93DF93EC015E
:103ED0008C01055E1F4FC8010E947117CE01059627
:103EE0000E94AE1EC8010E9471178E010F5C1F4F09
:103EF000C8010E940644882329F4DF91CF911F91C5
:103F00000F910895C8010E942544CE010E94D71642
:103F1000882371F48A89882381F31A8ACE0167E0A5
:103F200070E00E94811CDF91CF911F910F91089545
:103F3000CE0160E070E00E94811CECCFEF92FF9216
:103F40000F931F93CF93DF93EC018B960E94631F17
:103F5000CE018E589F4F0E94631F8E010A5F1F4F34
:103F6000C8010E94371A9BEAE92EF12CEC0EFD1EC7
:103F7000F701808191811816190634F4FE01E5538A
:103F8000FF4F80818823B9F58E010C591F4FF8012E
:103F9000808191811816190634F4FE01E653FF4F13
:103FA0008081882339F4DF91CF911F910F91FF9089
:103FB000EF9008951082CE0180960E947B1A8DE3C7
:103FC00096E16BE879E00E94F553F8016081718118
:103FD0008DE396E14AE050E00E94D6538DE396E1EE
:103FE00063EB79E00E941454DF91CF911F910F9100
:103FF000FF90EF9008951082C80162E070E00E9487
:104000004E198DE396E16DE379E00E94F553F701D7
:10401000608171818DE396E14AE050E00E94D653C1
:104020008DE396E165E679E00E941454ADCFCF931D
:10403000DF93EC018C85882309F041C08DE396E184
:1040400063EA7AE00E9414548DE396E164EC7AE02E
:104050000E94F553CE0106960E94F948682F8DE321
:1040600096E170E04AE050E00E94D6538DE396E17D
:1040700063EE7AE00E94F553CE0103960E94F94860
:10408000682F8DE396E170E04AE050E00E94D6533D
:104090008DE396E161E07BE00E94F5534091561379
:1040A0005091571360915813709159138DE396E115
:1040B0002AE030E00E94AF53DF91CF9108958DE365
:1040C00096E169ED79E00E9414548DE396E16EE08B
:1040D0007AE00E94F553CE0106960E94F948682FB7
:1040E0008DE396E170E04AE050E00E94D6538DE304
:1040F00096E161E47AE00E94F553CE0103960E94B6
:10410000F948682F8DE396E170E04AE050E00E94A4
:10411000D6538DE396E163E77AE00E94F553409130
:104120005A1350915B1360915C1370915D138DE392
:1041300096E12AE030E00E94AF53DF91CF910895DD
:10414000EF92FF920F931F938C0105960E94172008
:104150002DE3E22E26E1F22EC7016DE17BE00E9405
:10416000F553045D1F4FC8010E943C49BC01C701C3
:104170004AE050E00E94C353C7016EE27BE00E9418
:10418000F553C8010E941B49682FC70170E04AE03F
:1041900050E00E94D6531F910F91FF90EF90089529
:1041A000CF92DF92EF92FF921F93CF93DF93EC01B8
:1041B000162F7A0169010E944149CE010396B70189
:1041C0000E94D948CE010696B6010E94D9481D86A4
:1041D0001C87112399F4CE0168E170E00E94554AD2
:1041E0008DE396E16DE47BE00E941454DF91CF9162
:1041F0001F91FF90EF90DF90CF900895CE0169E17D
:1042000070E00E94554A8DE396E16CE37BE00E94EA
:104210001454DF91CF911F91FF90EF90DF90CF90DA
:1042200008951F93CF93DF93EC01162F0E9441490D
:104230001B83112391F4CE0169E270E00E94554A7C
:104240008DE396E163E77BE00E941454CE010E9467
:104250003918DF91CF911F910895CE016AE270E085
:104260000E94554A8DE396E16EE57BE00E9414546E
:10427000CE010E943918DF91CF911F9108950F93BD
:104280001F938C010E94414980E293E0F8019483DE
:104290008383C80168E270E00E94554AC8010E9409
:1042A0006A188DE396E168E87BE00E9414541F9140
:1042B0000F9108950F931F93182F092F0E944149C2
:1042C000812F902F67E270E00E94554A812F902F36
:1042D0000E946F188DE396E16CE97BE00E94145414
:1042E0001F910F9108950F931F93182F092F0E946C
:1042F0004149812F902F66E270E00E94554A812F3C
:10430000902F0E947E188DE396E162EB7BE00E9485
:1043100014541F910F9108950F931F938C010E94C5
:104320003F21C80105960E945A21C80108960E94A3
:104330007321F8011786118A108AC801429662E338
:1043400070E00E9432448DE396E161EC7BE00E94D4
:1043500014541F910F9108950F931F93182F092F35
:104360000E944149812F902F65E270E00E94554ADA
:10437000812F902F0E94801A8DE396E164ED7BE0FF
:104380000E9414541F910F910895EF92FF921F9372
:10439000CF93DF937C01162FEC012196CE010E9472
:1043A0004149F70110831123A1F4CE0160E270E0CE
:1043B0000E94554A8DE396E161E07CE00E9414542E
:1043C000C7010E94A91ADF91CF911F91FF90EF9032
:1043D0000895CE0161E270E00E94554A8DE396E1B6
:1043E00067EE7BE00E941454EBCFEF92FF921F9395
:1043F000CF93DF937C01162FEC012196CE010E9412
:104400004149F70110831123A1F4CE016EE170E060
:104410000E94554A8DE396E165E37CE00E941454C6
:10442000C7010E94CD1ADF91CF911F91FF90EF90AD
:104430000895CE016FE170E00E94554A8DE396E148
:104440006BE17CE00E941454EBCFAF92BF92CF920D
:10445000DF92FF920F931F93CF93DF93EC01F62E21
:104460006A01590101960E941121CE0105966F2D16
:10447000A60195010E94D020CE0143966F2D0E9487
:10448000C521CE0147966F2D0E94F521CE014B9696
:104490006F2D0E94F5173CE2C32ED12CCC0EDD1EF1
:1044A000C601B80140E951E00E940E49CE01C19613
:1044B00062E370E00E9432441AAE19AE1DAE1EAE29
:1044C000CD5BDF4F1992199219921882C654D040D1
:1044D000F8821CAE1BAEFF20B9F48DE396E161E7D4
:1044E0007CE00E941454188A1F8681E08E87C601E2
:1044F0000E941549DF91CF911F910F91FF90DF909E
:10450000CF90BF90AF9008958DE396E16FE47CE08B
:104510000E941454E8CF0F931F93182F092F0E9465
:104520004149812F902F6FE070E00E94554A812F02
:10453000902F0E94361E8DE396E163E97CE00E9495
:1045400014541F910F9108950F931F93182F092F43
:104550000E944149812F902F64E270E00E94554AE9
:10456000812F902F0E94451E8DE396E16DE97CE03E
:104570000E9414541F910F910895EF92FF920F9390
:104580001F938C010E94414953E0E52EF12CE00E6F
:10459000F11EC7010E944149C70163E270E00E9419
:1045A000554AC80162E270E00E94554AC8010E9463
:1045B0005A1E8DE396E169EA7CE00E9414541F9133
:1045C0000F91FF90EF900895EF92FF921F93CF937A
:1045D000DF937C01162FEC012196CE010E94414908
:1045E000F70110831123A1F4CE0160E170E00E9475
:1045F000554A8DE396E167EC7CE00E941454C701B4
:104600000E947C1EDF91CF911F91FF90EF90089543
:10461000CE0161E170E00E94554A8DE396E164EBC2
:104620007CE00E941454EBCFEF92FF920F931F9304
:104630008C010E94414973E0E72EF12CE00EF11E3F
:10464000C7010E944149C70164E370E00E94554AD6
:10465000C80162E370E00E94554AC8010E949E1E94
:104660008DE396E16AED7CE00E9414541F910F9156
:10467000FF90EF900895EF92FF920F931F937C01AC
:104680000E941423C70106960E948C21C7018096C0
:104690000E94AC21C701839660E00E94E422C7011A
:1046A000879661E00E94E422C7018B9660E04BE1AF
:1046B00050E029E030E00AE310E00E942522C70123
:1046C0008E589F4F61E04DE150E02CE130E00BE36C
:1046D00010E00E942522C70187549F4F0E948B2221
:1046E000C70184549F4F0E94A422C70181549F4F49
:1046F0000E94BD228AEC90E0E80EF91E81E0F701ED
:10470000819380838DE396E161EF7CE00E941454F5
:104710001F910F91FF90EF900895CB0108958AE7C4
:1047200093E16AE070E00E94D9488DE793E16EE082
:1047300070E00E94D94880E893E16BE070E00E944D
:10474000D94883E893E16CE070E00E94D94808956D
:1047500080917413909175130097E9F08130910561
:1047600039F18330910509F471C0029709F452C000
:1047700080917013909171130E947D3D809172130E
:10478000909173130E94D20A80916E1390916F13CF
:104790000E949E1F08958AE793E10E94F9488823AA
:1047A00041F5809174139091751381309105C9F68C
:1047B0008AE793E10E94E4488823B1F082E090E028
:1047C00090937513809374138DE396E167E37DE016
:1047D0000E9414540E94C557609376137093771308
:1047E000809378139093791380917413909175133B
:1047F000B8CF81E090E090937513809374138DE3AC
:1048000096E16CE27DE00E941454809174139091C3
:104810007513CBCF0E94C557209176133091771333
:104820004091781350917913621B730B840B950B95
:104830002091AD123091AE124091AF125091B01252
:10484000261737074807590708F092CF8DE396E1FE
:1048500063E47DE00E94145483E090E0909375132C
:104860008093741380917213909173130E94E408E3
:1048700008958F929F92AF92BF92CF92DF92EF9264
:10488000FF920F931F932DE7C22E23E1D22EC60174
:104890000E94DE4890E8A92E93E1B92EC5010E943E
:1048A000DE4883E8882E83E1982EC4010E94DE480A
:1048B00083E160E00E946A5882E160E00E946A58E9
:1048C00083E161E00E942C5982E161E00E942C5951
:1048D00086E160E00E946A5887E160E00E946A58C1
:1048E00086E161E00E942C5986E161E00E942C592A
:1048F00085E061E376E143E050E00E94745584E096
:104900006EED75E143E050E00E94745582E060E096
:104910000E946A5883E060E00E946A5882E061E089
:104920000E942C5983E061E00E942C5984E060E0F1
:104930000E946A5885E060E00E946A5884E061E065
:104940000E942C5984E061E00E942C5980E061EBC8
:1049500075E143E050E00E94745581E064E875E140
:1049600043E050E00E9474550DE316E1C80140E8B1
:1049700055E260E070E00E94DE4FC8016DE47DE02A
:104980000E941454C8016BE57DE00E9414548CEC25
:1049900090E00E945F52F82EE92E0E943B23F09295
:1049A0006E13E0926F13C8016EE67DE00E9414540E
:1049B0008EE091E00E945F52F82EE92E0E94440B97
:1049C000F0927213E0927313C80166E77DE00E94D3
:1049D00014548BE490E00E945F52F82EE92E60910F
:1049E00072137091731340916E1350916F130E9464
:1049F000A82BF0927013E0927113C80161E87DE07A
:104A00000E941454C80166E97DE00E941454C80154
:104A100067E97DE00E94145410927513109274138C
:104A200010927613109277131092781310927913D4
:104A3000C80160EB7DE00E941454C8016AEB7DE080
:104A40000E94F5538AE793E10E94F948682FC80154
:104A500070E04AE050E00E94D653C80165EC7DE06A
:104A60000E94F553C6010E94F948682FC80170E002
:104A70004AE050E00E94D653C80162ED7DE00E94FA
:104A8000F553C5010E94F948682FC80170E04AE05B
:104A900050E00E94D653C8016FED7DE00E94F553AF
:104AA000C4010E94F948682FC80170E04AE050E054
:104AB0000E94D65380917213909173130E94CE0777
:104AC0001F910F91FF90EF90DF90CF90BF90AF902C
:104AD0009F908F900895FC018AEF92E191838083EB
:104AE0000895FC01A081B18116978D919C918E0F44
:104AF0009F1F0E947C250895FC0188EE92E191831E
:104B000080838AEF92E1978386830895DC01139670
:104B10008D919C911497892B91F01596ED91FC91B4
:104B2000169717968D919C911897E817F90739F009
:104B3000819190E01696FC93EE9315970895ED9170
:104B4000FC9111970488F589E02DCD011995089500
:104B5000FC0182E293E1918380830895CF93DF93F8
:104B6000EC01E881F9810288F389E02D19959C0117
:104B70008FEF2F3F380729F08D819E8101969E830C
:104B80008D83C901DF91CF910895CB010895DC0198
:104B900013968D919C911497892B71F01596ED9138
:104BA000FC91169717968D919C911897E817F90725
:104BB00019F0808190E00895ED91FC9111970288A1
:104BC000F389E02DCD01199508958FEF9FEF08959A
:104BD00080E090E0089508950895DC01242FED9180
:104BE000FC910084F185E02D41E01995089580E065
:104BF00090E00895FC012289338980899189281BDE
:104C0000390B86899789281B390BC9010895CF92E2
:104C1000DF92EF92FF920F931F93CF93DF93EC01FC
:104C20006B0179018A01AE89BF89688979898A898E
:104C30009B89861B970BA817B90778F020E030E016
:104C400040E050E0B901CA01DF91CF911F910F916F
:104C5000FF90EF90DF90CF90089512161306140680
:104C6000150664F720E030E040E050E0F601E20F86
:104C7000F31F6A0F7B1FDB018C9180832F5F3F4FF7
:104C80004F4F5F4FAE89BF891196BF8BAE8B68893E
:104C900079898A899B89861B970BA817B90790F693
:104CA0002E153F05400751076CF6E0CFFC01268921
:104CB0003789A089B189828993898A1B9B0B281720
:104CC000390738F4A20FB31F8C91282F30E0C901A7
:104CD00008952FEF3FEFC9010895CF93DF93EC01C3
:104CE000E881F9810288F389E02D19959C018FEF05
:104CF0002F3F380729F08E899F8901969F8B8E8BD5
:104D0000C901DF91CF910895CF93DF93DC015696CF
:104D10004D915C9157974115510511F15096CD91E8
:104D2000DC91519752962D913C9153972C1B3D0B42
:104D300024173507B0F18FEF6F3F7807B9F0FE0108
:104D4000E40FF51F319780818617E1F44150504000
:104D500057965C934E935697CB01DF91CF91089570
:104D60006FEF7FEFCB01DF91CF910895415050401D
:104D700057965C934E93569760E070E0CB01DF91BD
:104D8000CF9108951F968C911F9784FFE9CFCA0198
:104D9000019757969C938E935697C80FD91F688397
:104DA000DBCF57963C932E9356976FEF7FEFD4CF80
:104DB00080E090E0089580E090E0089580E090E049
:104DC000089580E090E0089560E070E080E090E079
:104DD00008956F927F929F92AF92BF92CF92DF928F
:104DE000EF92FF920F931F93CF93DF93EC013B0160
:104DF00059016A0112161306140615060CF050C06C
:104E0000EE24FF24870117C0EB85FC858D859E85E8
:104E1000E817F90748F590828B859C8501969C8759
:104E20008B870894E11CF11C011D111DEA14FB0481
:104E30000C051D05ACF5F301EE0DFF1D90808F856F
:104E400080FFE2CFE881F9810084F185E02DCE0179
:104E500060E070E044E020E11995EB85FC858D85EC
:104E60009E85E817F907B8F2E881F981028CF38D85
:104E7000E02DCE01692D70E019958F5F9F4F89F667
:104E8000B701C801DF91CF911F910F91FF90EF9073
:104E9000DF90CF90BF90AF909F907F906F900895DC
:104EA00086017501EDCFCB010895FC01A081B18190
:104EB00016978D919C918E0F9F1F0E9460270895D9
:104EC000FC0188EE92E1918380838AEF92E19783DF
:104ED0008683CF010E945C520895FC018AEF92E123
:104EE00091838083CF010E945C520895FC0182E28D
:104EF00093E191838083CF010E945C520895CF9308
:104F0000DF93EC0182E093E19983888328893989D2
:104F10008C899D898217930719F0C9010E94540258
:104F200082E293E199838883DF91CF910895CF93B3
:104F3000DF93EC0182E093E19983888328893989A2
:104F40008C899D898217930719F0C9010E94540228
:104F500082E293E199838883CE010E945C52DF91C3
:104F6000CF910895FC01A081B18116978D919C91FC
:104F70008E0F9F1F0E94BD270895CF93DF93EC01F2
:104F800080EC92E1998388830A9699A388A382E0B2
:104F900093E19F838E832E893F898A8D9B8D821713
:104FA000930719F0C9010E94540282E293E19F83A2
:104FB0008E83E091B412F091B512F983E8833697AD
:104FC0000190F081E02DEC0FFD1F8091B6129091C1
:104FD000B712918380838AEF92E199A388A3CE01CF
:104FE0000E945C52DF91CF910895FC01A081B181B4
:104FF00016978D919C918E0F9F1F0E9400280895F7
:10500000CF93DF93EC0180EC92E1998388830A9639
:1050100099A388A382E093E19F838E832E893F89A1
:105020008A8D9B8D8217930719F0C9010E94540243
:1050300082E293E19F838E83E091B412F091B512E6
:10504000F983E88336970190F081E02DEC0FFD1F86
:105050008091B6129091B712918380838AEF92E18A
:1050600099A388A3DF91CF910895AF92BF92CF9279
:10507000DF92EF92FF920F931F93CF93DF936C0118
:10508000DC011296ED91FC9113974D915C91DF013B
:10509000A41BB50BCB016A177B0708F4CD015C019B
:1050A0000894A11CB11CA114B104C9F5EE24FF247D
:1050B0008F01041B150BC701BA01A8010E94D7027A
:1050C000E701C00FD11F81E090E0BE010E948D2357
:1050D000FC0110821882F601208131818481958142
:1050E0008217930719F0C9010E945402D601119644
:1050F000FC92EE921396DC93CE931297AE0CBF1CEB
:105100001596BC92AE921497DF91CF911F910F919B
:10511000FF90EF90DF90CF90BF90AF900895C501C2
:105120000E94AA01009779F07C01D6011296ED91B8
:10513000FC9113974D915C91BBCF1995C5010E94CD
:10514000AA01009789F7E0918613F09187133097B1
:10515000A1F780E090E00E94665DFF920F931F939D
:10516000CF93DF938C01F62EDC0112962D913C91AA
:105170001397E901219614968D919C911597C81764
:10518000D907E9F081E090E0BE010E948D23FC0187
:1051900010821882D8011296ED91FC911397F0823B
:1051A00012968D919C911397019613969C938E93D2
:1051B0001297DF91CF911F910F91FF9008958D91DC
:1051C0009C91F901E81BF90BCF0171F461E070E0EB
:1051D000680F791FC8010E943528D8011296CD9119
:1051E000DC9113972196CECFBF01F2CF0F931F937F
:1051F000CF93DF938C01EB018FEF6F3F780741F482
:10520000C0E0D0E0CE01DF91CF911F910F910895C2
:10521000D8011F968C9184FF1AC0F801208D318D22
:105220000088F189E02DD80152968D919C91539779
:105230008E1B9F0B2817390768F4E20FF31F60835A
:10524000F801808D918D0196918F808FDBCFCFEF0C
:10525000DFEFD8CFC80140960E94AD28F1CFDF9292
:10526000EF92FF920F931F93CF93DF93EC017B019B
:10527000D42E88819981EA81FB81E81BF90BAB016F
:105280004E0F5F1F2C813D8121503040281B390B70
:105290002417350740F4EE16FF06A0F16E0F7F1FAE
:1052A000CE010E943528E114F10419F12A813B81D5
:1052B000C90101962E0D3F1D281B390B6D2D70E085
:1052C000A9010E94E9020A811B810E0D1F1D81E0C8
:1052D00090E0B8010E948D23FC011082F801108239
:1052E000EA81FB81D0828A819B818E0D9F1D9B83E9
:1052F0008A83CE01DF91CF911F910F91FF90EF90A4
:10530000DF900895BF01CACF0F931F93CF93DF9310
:10531000EC0130E0C90188719070489709F486C0AB
:10532000C9018870907020713070413009F455C007
:105330004230B1F1AA89BB89E889F989AD014E1BD8
:105340005F0B8B01040F151F40175107F0F1892BDC
:1053500011F01F8B0E8B232BE1F09D012E1B3F0BB9
:105360002017310708F042C0B801621B730BCE0151
:10537000409640E00E942F29888999892A893B8993
:10538000281B390B8E899F892817390710F43F8B0A
:105390002E8BB801CB01DF91CF911F910F91089512
:1053A00021153105C9F500E010E0E889F989AA89DD
:1053B000BB89009721F00E891F89060F171FAD01C9
:1053C0004E1B5F0B4017510710F66FEF7FEFCB01BD
:1053D000DF91CF911F910F9108958B01E889F98991
:1053E000AA89BB89AD014E1B5F0BAECFE00FF11F49
:1053F000AE17BF0739F28C918083EA1BFB0B8A89B9
:105400009B898E0F9F1F9B8B8A8B28893989AC01C2
:10541000421B530B9A01B6CFAA89BB89E889F98947
:105420008D010E1B1F0B060F171FC3CF423009F053
:1054300077CFCBCF8F929F92BF92CF92DF92EF9296
:10544000FF920F931F93CF93DF936C017B01DC01DD
:10545000ED91FC9136970190F081E02DE80FF91F56
:10546000C189D2892097F9F0E881F98136970190B6
:10547000F081E02DEC0FFD1FA389B489ED91FC9123
:1054800011970484F585E02DCD0119958F5F9F4F0D
:1054900009F4BFC0D601ED91FC9136970190F081DF
:1054A000E02DEC0DFD1D838994890E94C725BFEF77
:1054B0008F3F9B0709F48CC00E94245D892B09F063
:1054C0009AC0D601ED91FC91369720813181F60189
:1054D000E20FF31F83889488D701ED91FC91119717
:1054E00012968D919C911397E817F90771F010822D
:1054F0008D919C91119713969C938E931297D60140
:10550000ED91FC91369720813181F9013296EC0DB5
:10551000FD1D2285338544855585128613861486A4
:105520001586E9012115310509F0C6C00EEF1FEF00
:105530001EC081E090E0BE010E948D23FC0110821C
:105540001882D7011296ED91FC911397B0821296B2
:105550002D913C9113972F5F3F4F13963C932E93C1
:1055600012970115110509F492C001501040C401B1
:105570000E948625BFEF8F3F9B0709F4A3C0B82E7A
:10558000992787FD90950E94245D892B09F04DC0D5
:10559000F70122813381E901219684819581C81721
:1055A000D90739F680819181A901481B590BCA019D
:1055B00009F080C061E070E0680F791FC7010E94A8
:1055C0003528D7011296CD91DC9113972196B1CF52
:1055D000D601ED91FC9136970190F081E02DEC0D14
:1055E000FD1D2581322F326083899489892B09F42E
:1055F00090C0358366CFD601ED91FC91369701902E
:10560000F081E02DEC0DFD1D838994890E94862593
:1056100041CFE881F98136970190F081E02DEC0FC0
:10562000FD1F25812160258335CFF401238134813D
:105630002115310551F0858196812817390729F008
:10564000FC018291B81609F46FC0D401ED91FC9170
:105650000688F789E02DC4016B2D70E019958F5FE6
:105660009F4F91F4D601ED91FC9136970190F08116
:10567000E02DEC0DFD1D2581322F34608389948946
:10568000892B09F449C03583F70122813381F70161
:10569000808191812817390751F1C601DF91CF919F
:1056A0001F910F91FF90EF90DF90CF90BF909F9050
:1056B0008F900895BA0180CFC701B9010E943528A3
:1056C0008E0153CFD601ED91FC9136970190F08178
:1056D000E02DEC0DFD1D2581322F326083899489E8
:1056E000892B59F13583F70122813381D0CFD6013F
:1056F000ED91FC9136970190F081E02DEC0DFD1DB0
:105700002581322F346083899489892BF1F0358388
:10571000C4CF23602583D5CE25602583D70112967B
:105720002D913C911397B3CFD4011696FC93EE9331
:105730001597F70122813381AACF23602583D701F2
:1057400012962D913C911397A2CF25602583A5CF6A
:10575000CF92DF92EF92FF920F931F93CF93DF933D
:10576000EC017B016A0162E370E00E943244198619
:1057700018861B861A861D861C861F861E8688E054
:1057800090E00E94AA01009709F4BDC08A879B8718
:105790008C879D878A859B8508969F878E870C8539
:1057A0001D8581E090E0B8010E948D23FC011082EC
:1057B000F8011082BE01695E7F4F41E250E01FAAEE
:1057C00018AE86E090E0A0E0B0E089AF9AAFABAF52
:1057D000BCAFED96199219921992199280E28993B1
:1057E00019821882C254D0405DAB4CABCC5BDF4F0A
:1057F00079836883C454D0401EAACA5BDF4F1882E5
:10580000C654D040E091B412F091B512FA8BE98BF6
:105810009E012F5E3F4F36970190F081E02DE20F01
:10582000F31F8091B6129091B712918380831B8AE7
:105830001C8A1D8A1E8AE989FA8936970190F081AF
:10584000E02DE20FF31F54834383748B638B158227
:10585000158A80EC92E19A8B898B0A969AAB89AB78
:105860001B8E1A8E1D8E1C8E1F8E1E8E19A218A2C4
:105870001BA21AA21DA21CA21EA282E093E1988F75
:105880008F8B18A61FA21AA619A61CA61BA688E015
:1058900090E00E94AA01009709F447C08FA398A73F
:1058A00089A79AA78FA198A508969CA78BA709A559
:1058B0001AA581E090E0B8010E948D23FC011082BE
:1058C000F80110821EA61DA618AA1FA688E08EA3A6
:1058D000C95BDF4FE992F992D982C882C954D0409E
:1058E00081E0888BDF91CF911F910F91FF90EF9016
:1058F000DF90CF900895199588E090E00E94AA016A
:10590000009709F043CFE0918613F0918713309709
:1059100091F780E090E00E94665D199588E090E044
:105920000E94AA01009709F0B9CFE0918613F09187
:105930008713309791F7EDCF8F929F92AF92BF92DE
:10594000CF92DF92EF92FF920F931F93CF93DF934B
:105950007C018B016A01DC014D915C9111971296DB
:105960002D913C911397241B350BE601C61BD70BD9
:105970002C173D0708F075C0CA01A9010E94CE028C
:10598000D7011296ED91FC9113976D917C9111972F
:10599000AF01461B570B5801A40EB51ECA14DB04F9
:1059A00009F451C0E601CA19DB099E01240F351F15
:1059B00014968D919C9115970197861B970B8217D2
:1059C000930708F081C09A012F5F3F4FCE01C43189
:1059D000D10508F463C04901880E991E8114910411
:1059E00009F065C0CC24DD248F01061B170BC6010E
:1059F000A8010E94D7020C0D1D1DC801B501AE0102
:105A00000E94D702C00FD11F81E090E0BE010E942A
:105A10008D23FC0110821882D7012D913C911197A2
:105A200014968D919C9115978217930719F0C901CF
:105A30000E945402F701D182C082D383C2838C0CAE
:105A40009D1C95828482C701DF91CF911F910F9198
:105A5000FF90EF90DF90CF90BF90AF909F908F908E
:105A60000895CA01AE010E94CE02D701ED91FC91CA
:105A70001197EC0FFD1F12960D90BC91A02DEA1707
:105A8000FB0709F38C918083EA1BFB0BE7018A81FA
:105A90009B818E0F9F1F9B838A83D5CF84E190E0EB
:105AA0004901880E991E8114910409F49BCFC40109
:105AB0000E94AA010097C1F16C01F7016081718118
:105AC0000280F381E02D90CFB5016F5F7F4FC61A42
:105AD000D70ACF010196A6010E94D702D7011296DC
