:100000000C9404010C943B1D0C946C1D0C949D1DD0
:100010000C94CE1D0C94FF1D0C94301E0C94611E8C
:100020000C94921E0C9431010C9431010C9431010A
:100030000C9431010C9431010C9431010C94310178
:100040000C9431010C9426130C9431010C94310161
:100050000C9431010C9431010C9431010C94C31EA9
:100060000C9431010C9460160C94AC170C94310173
:100070000C9431010C9431010C9431010C94310138
:100080000C948F150C9431010C9431010C943101B6
:100090000C94A0160C94EB170C9431010C943101C4
:1000A0000C9431010C9431010C94BF140C94310167
:1000B0000C9431010C9431010C9431010C94F61321
:1000C0000C9431010C9431010C9431010C94E01624
:1000D0000C942A180C9431010C9420170C94691874
:1000E0000C94310100002100240027002A002D007B
:1000F0003000330001010000040107010A01000083
:100100002200250028002B002E00310034000201BF
:100110000000050108010B0100002000230026005B
:1001200029002C002F00320000010000030106010D
:10013000090105050505070508080808020202026D
:100140000A0A080804040404010101010101010173
:100150000303030303030303040707070C0C0C0C3E
:100160000C0C0C0C02020202060606060606060627
:100170000B0B0B0B0B0B0B0B0102102020080810B4
:100180002040102040800201020108040201010207
:1001900004081020408080402010080402018004E0
:1001A000020180402010080402010804020101023B
:1001B0000408102040800102040810204080000044
:1001C000090A02080B0C0D070603040100000000D9
:1001D000000000000000000000000000000000001F
:1001E0000000000000000000000011100F000000DF
:1001F00000000000000000000000000000000000FF
:1002000000000000A408DC1911241FBECFEFD1E2CA
:10021000DEBFCDBF00E00CBF1CE0A0E0B2E0E2E238
:10022000F6E400E00BBF02C007900D92A43BB107BB
:10023000D9F71BBE10E1A4EBBCE001C01D92A033B6
:10024000B107E1F712E0C8E0D2E004C02297FE0156
:100250000E940B23C430D107C9F70E94121B0C94D3
:100260000F230C940000CF93DF93BC0182309105E3
:1002700010F462E070E0A0912E10B0912F10ED010B
:10028000E0E0F0E040E050E021C0888199818617ED
:10029000970769F48A819B81309719F09383828351
:1002A00004C090932F1080932E10FE0134C0681765
:1002B000790738F44115510519F08417950708F4AA
:1002C000AC01FE018A819B819C01E9012097E9F63E
:1002D00041155105A9F1CA01861B970B049708F433
:1002E000BA01E0E0F0E02AC08D919C91119784174B
:1002F0009507F9F46417750781F412968D919C9116
:100300001397309719F09383828304C090932F1032
:1003100080932E10FD0132964CC0CA01861B970BAC
:10032000FD01E80FF91F6193719302978D939C93E0
:1003300040C0FD01828193819C01D9011097A1F6F3
:1003400080912C1090912D10892B41F48091130CE9
:100350009091140C90932D1080932C104091150CBB
:100360005091160C4115510541F44DB75EB780917F
:10037000110C9091120C481B590B20912C103091AC
:100380002D10CA01821B930B8617970780F0AB01D3
:100390004E5F5F4F8417950750F0420F531F5093E5
:1003A0002D1040932C10F9016193719302C0E0E08D
:1003B000F0E0CF01DF91CF910895CF93DF930097C5
:1003C00009F450C0EC0122971B821A82A0912E10D2
:1003D000B0912F10109709F140E050E0AC17BD0725
:1003E00008F1BB83AA83FE0121913191E20FF31F33
:1003F000AE17BF0779F48D919C911197280F391F83
:100400002E5F3F4F3983288312968D919C911397CD
:100410009B838A834115510571F4D0932F10C093AB
:100420002E1020C012968D919C911397AD010097CC
:1004300011F0DC01D3CFFA01D383C2832191319132
:10044000E20FF31FCE17DF0769F488819981280F27
:10045000391F2E5F3F4FFA01318320838A819B81B0
:1004600093838283DF91CF910895FB01DC0102C069
:1004700001900D9241505040D8F7089568177907C0
:1004800068F4FB01DC01E40FF51FA40FB51F02C0E7
:1004900002900E9241505040D8F708950C943502C6
:1004A000DC0101C06D9341505040E0F708950F9377
:1004B0001F930BE81FE0C80160E072E00E94751C0A
:1004C0008AE00E94FA20BC01C8014AE050E00E9484
:1004D000561CC8016BE072E00E94751C8EE00E9401
:1004E000FA20BC01C8014AE050E00E94561CC80135
:1004F00065E172E00E94751C8BE00E94FA20BC014D
:10050000C8014AE050E00E94431CC80162E272E068
:100510000E94751C8CE00E94FA20BC01C8014AE0D0
:1005200050E00E94431C1F910F9108950F931F9359
:100530008C018A509F4F6CED75E00E942512C80116
:100540008D509F4F6CED75E00E9425121F910F9109
:1005500008959F92AF92BF92CF92DF92EF92FF9257
:100560000F931F93CF93DF936C01EC012C96CE0178
:100570000E94D703182F092FCE010E94E203AC017D
:10058000212F302FC9017C018F3191051CF02EE104
:10059000E22EF12C5A014F3151051CF09EE1A92E9B
:1005A000B12CCE010E94DD03182FCE010E94E8037A
:1005B000982E112309F455C0B701882777FD80953F
:1005C000982F0E94CD2120E030E040EF51E40E94BE
:1005D000322120E030E04AEF53E40E9459227B01AF
:1005E0008C01992009F055C0B501882777FD8095C9
:1005F000982F0E94CD2120E030E040EF51E40E948E
:10060000322120E030E04AEF53EC0E94592226EFDD
:1006100030E0C20ED31E0E949A219B01AC012452ED
:100620003A4FC601B9010E9425128DEF9FEFC80E07
:10063000D91EC801B7010E949A219B01AC01245226
:100640003A4FC601B9010E942512DF91CF911F9147
:100650000F91FF90EF90DF90CF90BF90AF909F9061
:100660000895B701882777FD8095982F0E94CD21A6
:1006700020E030E040EF51E40E94322120E030E001
:100680004AEF53EC0E9459227B018C01992009F416
:10069000ABCFB501882777FD8095982F0E94CD219B
:1006A00020E030E040EF51E40E94322120E030E0D1
:1006B0004AEF53E40E945922AACFCF92DF92EF92E1
:1006C000FF920F931F938C010E94FC10C8010C969F
:1006D0000E942504C8018D529F4F6AE070E00E947D
:1006E0003611C80185529F4F6EE170E00E943611AD
:1006F0000D511F4F82E094E4ADEABEE3F80181930F
:100700009193A193B1938EE29BEDACEABEE381930A
:100710009193A193B19386EA9BE9A4ECBBE3819307
:100720009193A193B193119211928F011182108232
:10073000015F104063EFC62ED12CC00ED11EC60142
:100740000E940B1256EFE52EF12CE00EF11EC701B0
:100750000E940B1207501F4FF80111921192119233
:10076000119280E090E0A0E0B0E081939193A1939A
:10077000B1938F0180839183A283B3830150114091
:10078000C8010E94A902C70166E070E00E941F1321
:10079000C60167E070E00E941F13C8010E94960224
:1007A0001F910F91FF90EF90DF90CF900895FC0183
:1007B000E758FF4F808191810895FC01EF57FF4F6B
:1007C00080810895FC01E558FF4F80819181089553
:1007D000FC01EE57FF4F80810895CF93DF93EC012A
:1007E0006130710519F16230710589F0672B61F490
:1007F000815B9F4F6AE070E00E949B11CE0185965D
:100800006AE070E00E949B11DF91CF910895815BB7
:100810009F4F6CE370E00E949B11CE0185966CE3C4
:1008200070E00E949B11DF91CF910895815B9F4FF3
:100830006EE170E00E949B11CE0185966EE170E042
:100840000E949B11DF91CF9108958F929F92AF925A
:10085000BF92CF92DF92EF92FF920F931F93DF939D
:10086000CF93CDB7DEB768970FB6F894DEBF0FBE53
:10087000CDBF4C010E94FC10C4010C960E94FC10DC
:10088000C40148960E942811F40110A212A211A2DC
:1008900083E090E094A383A38DB79EB708970FB62B
:1008A000F8949EBF0FBE8DBF87EA97EEAEE0BEE321
:1008B000EDB7FEB781839283A383B48387EA97EE73
:1008C000AEE8BDE385839683A783B087C401859690
:1008D00061E020E030E040E251E40F2EF0E0EF2E46
:1008E000F0E0FF2EF0E00F2FF0E01F2FF02D57016A
:1008F00068010E944C1180E090E0ACE8B2E4EDB7F2
:10090000FEB781839283A383B48380E090E0A0EA62
:10091000B1E485839683A783B087C401815B9F4F31
:1009200060E02DEC3CEC4CEC5DE30E944C1189E75F
:1009300090E0880E991EF401119211924F011182DC
:10094000108286E090E0880E991E81E0F401819388
:1009500081934F01118210828DE79FEF880E991EBF
:10096000EDB7FEB738960FB6F894FEBF0FBEEDBFD9
:10097000C4018B579F4F0E94FC10CE01019640E0AE
:1009800050E068EC72E400E010E028EC32EC760114
:1009900065010E940E11C4018F569F4F6CE370E0F9
:1009A000A980BA80CB80DC80ED80FE800F81188525
:1009B00029853A854B855C850E94A511CE010D964F
:1009C00040E050E068EC72E48A019B010F2EF0E0F9
:1009D000CF2EF0E0DF2EF0E0EF2EF0E0FF2EF02D36
:1009E0000E940E11C40184559F4F6DE370E0AD84E9
:1009F000BE84CF84D888E988FA880B891C892D8920
:100A00003E894F89588D0E94A511C40160E070E0B5
:100A10000E94ED0368960FB6F894DEBF0FBECDBFFF
:100A2000CF91DF911F910F91FF90EF90DF90CF90CA
:100A3000BF90AF909F908F90089585E00E94FA201C
:100A40000197A1F08091B80C9091B90CA091BA0CCB
:100A5000B091BB0C0197A109B1098093B80C909398
:100A6000B90CA093BA0CB093BB0C08958091B80C4C
:100A70009091B90CA091BA0CB091BB0C0196A11D3C
:100A8000B11D8093B80C9093B90CA093BA0CB0939D
:100A9000BB0C089584E00E94FA200197A1F0809198
:100AA000B40C9091B50CA091B60CB091B70C019616
:100AB000A11DB11D8093B40C9093B50CA093B60CFE
:100AC000B093B70C08958091B40C9091B50CA0919F
:100AD000B60CB091B70C0197A109B1098093B40C81
:100AE0009093B50CA093B60CB093B70C0895FF92F9
:100AF0000F931F938C01F62E64E670E00E9436116E
:100B0000F801F08A1F910F91FF900895FC018485F0
:100B1000882331F4CF0168E077E00E942512089520
:100B2000CF0168EE73E00E94251208956CED75E028
:100B30000E9425120895FC018485882331F4CF0199
:100B400060EB74E00E9425120895CF0160ED77E01C
:100B50000E9425120895FC018381882331F4CF017E
:100B600068EB76E00E9425120895CF0160E274E000
:100B70000E942512089562ED75E00E9425120895E5
:100B80006FE077E00E94251208956EED73E00E94F9
:100B90002512089564E276E00E9425120895FC0172
:100BA0008081882339F4CF01019661EA75E00E94C3
:100BB00025120895CF01019668E677E00E9425127C
:100BC0000895FC018081882339F4CF01019669E4FE
:100BD00077E00E9425120895CF0101966DE674E03A
:100BE0000E94251208956CED75E00E94251208956B
:100BF00063E875E00E94251208950F931F938C01FE
:100C0000039668EE73E00E942512C80168EE73E057
:100C10000E9425121F910F910895FC018081882365
:100C200039F4CF0101966DE674E00E942512089513
:100C3000CF01019661E478E00E94251208951F9388
:100C4000CF93DF93EC01162F0E940B121B8311230D
:100C500091F4CE0169E270E00E941F138BE89FE0DF
:100C60006EE579E00E94941CCE010E94AB05DF91F5
:100C7000CF911F910895CE016AE270E00E941F1388
:100C80008BE89FE069E479E00E94941CCE010E9409
:100C9000AB05DF91CF911F9108950F931F93182FEC
:100CA000092F0E940B12812F902F68E270E00E94A2
:100CB0001F13812F902F0E94BB058BE89FE063E7F5
:100CC00079E00E94941C1F910F9108950F931F9338
:100CD000182F092F0E940B12812F902F67E270E0CE
:100CE0000E941F13812F902F0E94C0058BE89FE068
:100CF00067E879E00E94941C1F910F9108950F936B
:100D00001F93182F092F0E940B12812F902F66E23C
:100D100070E00E941F13812F902F0E94C5058BE861
:100D20009FE06DE979E00E94941C1F910F91089556
:100D30000F931F938C010E944D06C80103960E94D9
:100D40006606C80106960E947F06F801158617867A
:100D50001686C801409664E670E00E9436118BE862
:100D60009FE06CEA79E00E94941C1F910F91089516
:100D70000F931F93182F092F0E940B12812F902F72
:100D800065E270E00E941F13812F902F0E94CA0518
:100D90008BE89FE06FEB79E00E94941C1F910F910C
:100DA0000895EF92FF921F93CF93DF937C01162F4C
:100DB000EC012196CE010E940B12F7011083112342
:100DC000A1F4CE0160E270E00E941F138BE89FE067
:100DD0006CEE79E00E94941CC7010E94CF05DF9160
:100DE000CF911F91FF90EF900895CE0161E270E0E6
:100DF0000E941F138BE89FE062ED79E00E94941C33
:100E0000EBCFEF92FF921F93CF93DF937C01162FCE
:100E1000EC012196CE010E940B12F70110831123E1
:100E2000A1F4CE016EE170E00E941F138BE89FE0F9
:100E300060E27AE00E94941CC7010E94E105DF9104
:100E4000CF911F91FF90EF900895CE016FE170E078
:100E50000E941F138BE89FE066E07AE00E94941CDA
:100E6000EBCF0F931F93182F092F0E940B12812F86
:100E7000902F6FE070E00E941F13812F902F0E942F
:100E8000F3058BE89FE06AE37AE00E94941C1F91CF
:100E90000F9108950F931F93182F092F0E940B1283
:100EA000812F902F64E270E00E941F13812F902FFA
:100EB0000E94F8058BE89FE064E47AE00E94941CAD
:100EC0001F910F910895EF92FF920F931F938C0142
:100ED0000E940B1293E0E92EF12CE00EF11EC701E7
:100EE0000E940B12C70163E270E00E941F13C80149
:100EF00062E270E00E941F13C8010E94FD058BE8AA
:100F00009FE060E57AE00E94941C1F910F91FF9092
:100F1000EF900895EF92FF921F93CF93DF937C01A0
:100F2000162FEC012196CE010E940B12F7011083BF
:100F30001123A1F4CE0160E170E00E941F138BE841
:100F40009FE06EE67AE00E94941CC7010E940D06A5
:100F5000DF91CF911F91FF90EF900895CE0161E155
:100F600070E00E941F138BE89FE06BE57AE00E941F
:100F7000941CEBCFCF92DF92EF92FF921F93CF930F
:100F8000DF93EC01162F7A0169010E940B12CE014A
:100F90000396B7010E94EB11CE010696B6010E949E
:100FA000EB111D861C87112341F5CE0168E170E02D
:100FB0000E941F138BE89FE062E97AE00E94941C74
:100FC000CE010E949B0568EC70E080E090E00E94FA
:100FD000401FCE010E94860564E670E080E090E04C
:100FE0000E94401FCE010E949605DF91CF911F9174
:100FF000FF90EF90DF90CF900895CE0169E170E00F
:101000000E941F138BE89FE061E87AE00E94941C25
:10101000D7CFCF92DF92EF92FF921F93CF93DF93C0
:10102000EC01162F7A01690101960E941F06CE017C
:101030000596612FA70196010E94BA07CE0143963B
:10104000612F0E94D106CE014796612F0E940107B1
:10105000CE014B96612F0E947705CE018C9662E3FC
:1010600070E00E9436111DAA1CAA18AE19AE1EAE61
:10107000EF96199219921882C154D04018831FAA72
:101080001EAA1123A1F48BE89FE065EC7AE00E9490
:10109000941C8FEF9FEF988B8F8781E08E87DF9175
:1010A000CF911F91FF90EF90DF90CF9008958BE844
:1010B0009FE063EA7AE00E94941CEBCF0F931F93AA
:1010C0008C010E949806C80148960E94B806C80183
:1010D0004B9660E00E948A07C8014F9661E00E942B
:1010E0008A07C801839660E04BE150E029E030E0D8
:1010F0000E940908C8018B599F4F61E04DE150E003
:101100002CE130E00E940908C80189559F4F0E94D8
:101110003107C80186559F4F0E944A07C801835571
:101120009F4F0E94630708541F4F81E0F80181938D
:1011300080838BE89FE067EE7AE00E94941C1F9109
:101140000F910895CB01089588EC9CE06AE070E06F
:101150000E94EB118BEC9CE06EE070E00E94EB11C2
:101160008EEC9CE06BE070E00E94EB1181ED9CE066
:101170006CE070E00E94EB1108950F931F930BE851
:101180001FE0C80162E27BE00E94751C8CE30E94B4
:10119000CD1FBC01C8014AE050E00E94561CC801A6
:1011A00062E37BE00E94751C8DE30E94CD1FBC01B1
:1011B000C8014AE050E00E94561CC80162E47BE08E
:1011C0000E94751C8EE30E94CD1FBC01C8014AE03D
:1011D00050E00E94561CC80160E57BE00E94751C2F
:1011E0008AE30E94CD1FBC01C8014AE050E00E9482
:1011F000561CC80161E67BE00E94751C8BE30E94CF
:10120000CD1FBC01C8014AE050E00E94561CC80135
:101210000E94581B64EF71E080E090E00E94401F44
:101220001F910F9108958F929F92AF92BF92CF928C
:10123000DF92EF92FF920F931F932BECC22E2CE0C4
:10124000D22EC6010E94F0119EECA92E9CE0B92E70
:10125000C5010E94F01181ED882E8CE0982EC4010A
:101260000E94F01180E06AE475E043E050E00E94E3
:10127000BA1C81E06DE175E043E050E00E94BA1CC9
:101280000BE81FE0C80140E855E260E070E00E9412
:10129000A818C80162E77BE00E94941CC80160E8BE
:1012A0007BE00E94941C8AEB90E00E94291BF82EA0
:1012B000E92E0E945E08F092BC0CE092BD0CC801C1
:1012C00063E97BE00E94941C85E091E00E94291B69
:1012D000F82EE92E0E945D03F092C00CE092C10C42
:1012E000C8016BE97BE00E94941C8BE490E00E94B3
:1012F000291BF82EE92E6091C00C7091C10C409111
:10130000BC0C5091BD0C0E94640EF092BE0CE09299
:10131000BF0CC80166EA7BE00E94941C0E94570241
:10132000C8016BEB7BE00E94941CC8016CEB7BE076
:101330000E94941C82E090E09093C30C8093C20CB6
:101340001092C40C1092C50C1092C60C1092C70CCF
:10135000C80165ED7BE00E94941CC8016FED7BE045
:101360000E94751C88EC9CE00E94F611682FC80151
:1013700070E04AE050E00E94561CC8016AEE7BE033
:101380000E94751CC6010E94F611682FC80170E00A
:101390004AE050E00E94561CC80167EF7BE00E94C3
:1013A000751CC5010E94F611682FC80170E04AE063
:1013B00050E00E94561CC80164E07CE00E94751C4D
:1013C000C4010E94F611682FC80170E04AE050E0A5
:1013D0000E94561C1F910F91FF90EF90DF90CF90CD
:1013E000BF90AF909F908F900895FC0180E69CE0A5
:1013F000918380830895FC01A081B18116978D911E
:101400009C918E0F9F1F0E94060A0895FC018EE496
:101410009CE09183808380E69CE097838683089597
:10142000FC0188E89CE0918380830895CF93DF934B
:10143000EC01E881F9810288F389E02D19959C017E
:101440008FEF2F3F380729F08D819E8101969E8373
:101450008D83C901DF91CF910895CB0108958FEF5E
:101460009FEF089580E090E0089508950895DC01CD
:10147000242FED91FC910084F185E02D41E0199538
:10148000089580E090E00895FC01228933898089E5
:101490009189281B390B86899789281B390BC9012B
:1014A0000895CF92DF92EF92FF920F931F93CF9305
:1014B000DF93EC016B0179018A01AE89BF896889EC
:1014C00079898A899B89861B970BA817B90778F0B9
:1014D00020E030E040E050E0B901CA01DF91CF9157
:1014E0001F910F91FF90EF90DF90CF90089512160B
:1014F00013061406150664F720E030E040E050E0E3
:10150000F601E20FF31F6A0F7B1FDB018C918083D2
:101510002F5F3F4F4F4F5F4FAE89BF891196BF8BF3
:10152000AE8B688979898A899B89861B970BA81756
:10153000B90790F62E153F05400751076CF6E0CF2E
:10154000FC0126893789A089B189828993898A1B00
:101550009B0B2817390738F4A20FB31F8C91282F43
:1015600030E0C90108952FEF3FEFC9010895CF93EF
:10157000DF93EC01E881F9810288F389E02D199568
:101580009C018FEF2F3F380729F08E899F890196A4
:101590009F8B8E8BC901DF91CF910895CF93DF93FD
:1015A000DC0156964D915C9157974115510511F10B
:1015B0005096CD91DC91519752962D913C91539735
:1015C0002C1B3D0B24173507B0F18FEF6F3F7807C9
:1015D000B9F0FE01E40FF51F319780818617E1F421
:1015E0004150504057965C934E935697CB01DF91F4
:1015F000CF9108956FEF7FEFCB01DF91CF910895E9
:101600004150504057965C934E93569760E070E07F
:10161000CB01DF91CF9108951F968C911F9784FF86
:10162000E9CFCA01019757969C938E935697C80F9E
:10163000D91F6883DBCF57963C932E9356976FEF55
:101640007FEFD4CF80E090E0089580E090E00895AF
:1016500080E090E0089580E090E0089560E070E020
:1016600080E090E008956F927F929F92AF92BF9238
:10167000CF92DF92EF92FF920F931F93CF93DF935E
:10168000EC013B0159016A011216130614061506F6
:101690000CF050C0EE24FF24870117C0EB85FC85B9
:1016A0008D859E85E817F90748F590828B859C8586
:1016B00001969C878B870894E11CF11C011D111D6C
:1016C000EA14FB040C051D05ACF5F301EE0DFF1D3E
:1016D00090808F8580FFE2CFE881F9810084F185D9
:1016E000E02DCE0160E070E044E020E11995EB854B
:1016F000FC858D859E85E817F907B8F2E881F981A8
:10170000028CF38DE02DCE01692D70E019958F5F6D
:101710009F4F89F6B701C801DF91CF911F910F91BB
:10172000FF90EF90DF90CF90BF90AF909F907F9011
:101730006F90089586017501EDCFCB010895FC01EE
:10174000A081B18116978D919C918E0F9F1F0E9451
:10175000AA0B0895FC018EE49CE09183808380E6CF
:101760009CE097838683CF010E94261B0895FC018D
:1017700080E69CE091838083CF010E94261B089520
:10178000FC0188E89CE091838083CF010E94261BA6
:101790000895CF93DF93EC0188E69CE099838883DA
:1017A000288939898C899D898217930719F0C90185
:1017B0000E94DD0188E89CE099838883DF91CF91C6
:1017C0000895CF93DF93EC0188E69CE099838883AA
:1017D000288939898C899D898217930719F0C90155
:1017E0000E94DD0188E89CE099838883CE010E94F5
:1017F000261BDF91CF910895FC01A081B18116973E
:101800008D919C918E0F9F1F0E94070C0895CF937E
:10181000DF93EC0186E29CE0998388830A9699A382
:1018200088A388E69CE09F838E832E893F898A8DDA
:101830009B8D8217930719F0C9010E94DD0188E88A
:101840009CE09F838E83E0911A0CF0911B0CF9832E
:10185000E88336970190F081E02DEC0FFD1F809119
:101860001C0C90911D0C9183808380E69CE099A3D1
:1018700088A3CE010E94261BDF91CF910895FC0121
:10188000A081B18116978D919C918E0F9F1F0E9410
:101890004A0C0895CF93DF93EC0186E29CE0998394
:1018A00088830A9699A388A388E69CE09F838E8309
:1018B0002E893F898A8D9B8D8217930719F0C90164
:1018C0000E94DD0188E89CE09F838E83E0911A0CE2
:1018D000F0911B0CF983E88336970190F081E02D9D
:1018E000EC0FFD1F80911C0C90911D0C9183808347
:1018F00080E69CE099A388A3DF91CF910895AF92F1
:10190000BF92CF92DF92EF92FF920F931F93CF93EC
:10191000DF936C01DC011296ED91FC9113974D91D0
:101920005C91DF01A41BB50BCB016A177B0708F4A0
:10193000CD015C010894A11CB11CA114B104C9F52E
:10194000EE24FF248F01041B150BC701BA01A80167
:101950000E943E02E701C00FD11F81E090E0BE016E
:101960000E94A208FC0110821882F60120813181B8
:10197000848195818217930719F0C9010E94DD01C6
:10198000D6011196FC92EE921396DC93CE931297A9
:10199000AE0CBF1C1596BC92AE921497DF91CF91FE
:1019A0001F910F91FF90EF90DF90CF90BF90AF907D
:1019B0000895C5010E943301009779F07C01D6019A
:1019C0001296ED91FC9113974D915C91BBCF1995B7
:1019D000C5010E943301009789F7E091D40CF09182
:1019E000D50C3097A1F780E090E00E940F23FF9282
:1019F0000F931F93CF93DF938C01F62EDC01129689
:101A00002D913C911397E901219614968D919C910B
:101A10001597C817D907E9F081E090E0BE010E9450
:101A2000A208FC0110821882D8011296ED91FC9157
:101A30001397F08212968D919C91139701961396AD
:101A40009C938E931297DF91CF911F910F91FF90EE
:101A500008958D919C91F901E81BF90BCF0171F468
:101A600061E070E0680F791FC8010E947F0CD80107
:101A70001296CD91DC9113972196CECFBF01F2CF74
:101A80000F931F93CF93DF938C01EB018FEF6F3F89
:101A9000780741F4C0E0D0E0CE01DF91CF911F91F3
:101AA0000F910895D8011F968C9184FF1AC0F801F8
:101AB000208D318D0088F189E02DD80152968D91CD
:101AC0009C9153978E1B9F0B2817390768F4E20FE0
:101AD000F31F6083F801808D918D0196918F808F27
:101AE000DBCFCFEFDFEFD8CFC80140960E94F70CD5
:101AF000F1CFDF92EF92FF920F931F93CF93DF937B
:101B0000EC017B01D42E88819981EA81FB81E81B5D
:101B1000F90BAB014E0F5F1F2C813D8121503040EE
:101B2000281B390B2417350740F4EE16FF06A0F1E9
:101B30006E0F7F1FCE010E947F0CE114F10419F19A
:101B40002A813B81C90101962E0D3F1D281B390BAF
:101B50006D2D70E0A9010E9450020A811B810E0DBB
:101B60001F1D81E090E0B8010E94A208FC011082D4
:101B7000F8011082EA81FB81D0828A819B818E0DDF
:101B80009F1D9B838A83CE01DF91CF911F910F917F
:101B9000FF90EF90DF900895BF01CACF0F931F937E
:101BA000CF93DF93EC0130E0C901887190704897C2
:101BB00009F486C0C901887090702071307041307E
:101BC00009F455C04230B1F1AA89BB89E889F98985
:101BD000AD014E1B5F0B8B01040F151F4017510702
:101BE000F0F1892B11F01F8B0E8B232BE1F09D015F
:101BF0002E1B3F0B2017310708F042C0B801621BB3
:101C0000730BCE01409640E00E94790D8889998936
:101C10002A893B89281B390B8E899F892817390708
:101C200010F43F8B2E8BB801CB01DF91CF911F9128
:101C30000F91089521153105C9F500E010E0E889FC
:101C4000F989AA89BB89009721F00E891F89060F9F
:101C5000171FAD014E1B5F0B4017510710F66FEFBA
:101C60007FEFCB01DF91CF911F910F9108958B01F1
:101C7000E889F989AA89BB89AD014E1B5F0BAECFFC
:101C8000E00FF11FAE17BF0739F28C918083EA1B7A
:101C9000FB0B8A899B898E0F9F1F9B8B8A8B2889C0
:101CA0003989AC01421B530B9A01B6CFAA89BB8973
:101CB000E889F9898D010E1B1F0B060F171FC3CF73
:101CC000423009F077CFCBCFCF92DF92EF92FF92E5
:101CD0000F931F93CF93DF93EC017B016A0164E6BE
:101CE00070E00E943611198618861B861A861D869A
:101CF0001C861F861E8688E090E00E9433010097B4
:101D000009F4BDC08A879B878C879D878A859B85C0
:101D100008969F878E870C851D8581E090E0B8012D
:101D20000E94A208FC011082F8011082BE01695EC7
:101D30007F4F41E250E01FAA18AE86E090E0A0E09D
:101D4000B0E089AF9AAFABAFBCAFED9619921992E4
:101D50001992199280E2899319821882C254D04054
:101D60005DAB4CABCC5BDF4F79836883C454D04010
:101D70001EAACA5BDF4F1882C654D040E0911A0CED
:101D8000F0911B0CFA8BE98B9E012F5E3F4F36972B
:101D90000190F081E02DE20FF31F80911C0C9091D7
:101DA0001D0C918380831B8A1C8A1D8A1E8AE989E7
:101DB000FA8936970190F081E02DE20FF31F5483EA
:101DC0004383748B638B1582158A86E29CE09A8B21
:101DD000898B0A969AAB89AB1B8E1A8E1D8E1C8E30
:101DE0001F8E1E8E19A218A21BA21AA21DA21CA22F
:101DF0001EA288E69CE0988F8F8B18A61FA21AA6B9
:101E000019A61CA61BA688E090E00E94330100974B
:101E100009F447C08FA398A789A79AA78FA198A56F
:101E200008969CA78BA709A51AA581E090E0B801A8
:101E30000E94A208FC011082F80110821EA61DA6B5
:101E400018AA1FA688E08EA3C95BDF4FE992F9921A
:101E5000D982C882C954D04081E0888BDF91CF916C
:101E60001F910F91FF90EF90DF90CF9008951995FB
:101E700088E090E00E943301009709F043CFE091A1
:101E8000D40CF091D50C309791F780E090E00E944F
:101E90000F23199588E090E00E943301009709F024
:101EA000B9CFE091D40CF091D50C309791F7EDCFEC
:101EB0002F923F924F925F926F927F928F929F925A
:101EC000AF92BF92CF92DF92EF92FF920F931F9348
:101ED000CF93DF935C013B014A014217530709F49A
:101EE0006CC06901C41AD50ADC011296ED91FC910F
:101EF000139714968D919C9115978E1B9F0BC81666
:101F0000D9060CF46DC0D5012D913C91BF01621B27
:101F1000730B6F5F7F4FC601B4E1CB16D10410F491
:101F200084E190E01B01280E391E2114310409F0D0
:101F3000B1C0442455248301021B130BC201B90113
:101F4000A8010E943E027201E00EF11EC701B40119
:101F5000A6010E943E02EC0CFD1CD50112960D91CB
:101F60001C91139706191709C701B301A8010E9414
:101F70003E02E701C00FD11F81E090E0BE010E9448
:101F8000A208FC0110821882F50120813181848130
:101F900095818217930719F0C9010E94DD01D501CF
:101FA00011965C924E921396DC93CE931297240C6A
:101FB000351C15963C922E921497DF91CF911F916C
:101FC0000F91FF90EF90DF90CF90BF90AF909F90D8
:101FD0008F907F906F905F904F903F902F900895DB
:101FE000EF01C61BD70BCC15DD051CF1BF016C1929
:101FF0007D096F5F7F4FCF010196AC01461B570BE8
:102000000E943E02F501828193818C0D9D1D938378
:1020100082832196CC19DD09C3018C0D9D1DB3016E
:10202000AE010E943E02C301B401A6010E94350226
:10203000C4CF21967A01EC0EFD1E21978F010F5F10
:102040001F4F2E193F09C801B701A9010E943E0286
:10205000CC1ADD0AD50112968D919C9113978C0DA7
:102060009D1D13969C938E93129706191709B30121
:10207000A8010E943E02F501828193818C0F9D1F71
:1020800093838283E818F908C301B401A7010E9471
:10209000350293CFC1010E943301009759F02C0102
:1020A000F5012081318147CF1995C1010E9433018B
:1020B0000097A9F7E091D40CF091D50C3097A1F7D7
:1020C00080E090E00E940F232F923F924F925F9208
:1020D0006F927F928F929F92AF92BF92CF92DF9238
:1020E000EF92FF920F931F93CF93DF935C01FB015D
:1020F000522E432E342E252EDC0158966D917C9164
:102100005997C22ED32E50962D913C91519749014B
:10211000860E971E52968D919C915397821B930B1E
:10212000861B970BA6018C159D0508F4AC017A015E
:10213000E60EF71EE20EF31E3F016C0C7D1CE30160
:10214000CE1BDF0BC701881999098C179D078CF5E9
:102150008F01080F191F98012E1B3F0BC401BF01EF
:10216000A9010E943502C5014096B701A80193015B
:1021700000E00E94580FF501808D918D8C0D9D1D02
:10218000918F808F652D742D832D922DDF91CF91AE
:102190001F910F91FF90EF90DF90CF90BF90AF9085
:1021A0009F908F907F906F905F904F903F902F9077
:1021B0000895C401BF01AE010E943502C80DD91DAA
:1021C000EC16FD06C1F2F501428953894F5F5F4F5E
:1021D0004E195F09CE01B7010E943E02CE19DF09F8
:1021E000D50152968D919C9153978C0F9D1F5396BC
:1021F0009C938E935297BFCFFC0180E090E0A0E0CB
:10220000B0E080839183A283B38384839583A68384
:10221000B78380879187A287B3870895CF92DF9293
:10222000EF92FF920F931F93FC01408351836283CF
:1022300073830483158326833783C086D186E28621
:10224000F3861F910F91FF90EF90DF90CF9008954C
:10225000FC0180E090E0A0E0B0E080839183A28365
:10226000B38384839583A683B78308950F931F93C5
:102270008C01882777FD8095982FF8016083718302
:10228000828393830E940B1FF80164837583868386
:1022900097831F910F910895AF92BF92CF92DF92D3
:1022A000EF92FF920F931F93DF93CF93CDB7DEB7DB
:1022B000FC0180E090E0A0E0B0E080839183A28305
:1022C000B38384839583A683B78380879187A2870E
:1022D000B3872487358746875787E08AF18A028B40
:1022E000138BA48AB58AC68AD78A8E859F85A889CA
:1022F000B989808F918FA28FB38F8A899B89AC898E
:10230000BD89848F958FA68FB78F81E09FEF91A3B2
:1023100080A38FEF90E093A382A381E084A365A3C1
:10232000CF91DF911F910F91FF90EF90DF90CF90B1
:10233000BF90AF900895FC0188279927861B970BC3
:1023400091A380A373A362A308958F929F92AF92EB
:10235000BF92CF92DF92EF92FF920F931F93DF9382
:10236000CF93CDB7DEB72C970FB6F894DEBF0FBE74
:10237000CDBF4C01A982BA82CB82DC82ED82FE8283
:102380000F83188729873A874B875C87FC01718305
:10239000608381E08283D4011396FE0131968CE044
:1023A00001900D928150E1F7C4010F960E94FC103C
:1023B0002C960FB6F894DEBF0FBECDBFCF91DF9144
:1023C0001F910F91FF90EF90DF90CF90BF90AF9053
:1023D0009F908F900895FC0171836083128208950D
:1023E000FC01828191E0892782830895FC0182812A
:1023F000882341F480810E94FA2020E0019741F077
:10240000822F089580810E94FA2020E0892BC1F755
:1024100021E0822F0895FC018091D60C803318F0C2
:102420008FEF8083089580838F5F8093D60C8150D7
:1024300090E0FC01EE0FFF1FE80FF91FE952F34F88
:1024400088EB9BE0928381830895FC0120812033F7
:1024500038F58181992787FD909548E850E0481B21
:10246000590B440F551F440F551F64177507CCF4C3
:1024700042505040CA01AA2797FDA095BA2F880F55
:10248000991FAA1FBB1F4FB7F89430E0F901EE0F58
:10249000FF1FE20FF31FE952F34F928381834FBF77
:1024A00008958281992787FD909548E552E0481B61
:1024B000590B440F551F440F551F64177507C4F679
:1024C000AB01D6CFCF92DF92EF92FF921F93CF93C3
:1024D000DF93EC01162F7A0169018881803340F087
:1024E000DF91CF911F91FF90EF90DF90CF900895F3
:1024F000862F61E00E940220888190E0FC01EE0FAF
:10250000FF1FE80FF91FE952F34F1F738081807C92
:10251000812B808380E292E08E199F0997FD71C024
:102520009595879595958795898380E699E08C198F
:102530009D0997FD64C095958795959587958A83A4
:10254000A8818A2F6CE00E94DB22682F70E0AB012B
:10255000440F551F460F571F440F551F440F551F5B
:1025600020E030E0C901840F951FFC01EE0FFF1F32
:10257000E80FF91FE952F34F808186FD1BC02F5FE2
:102580003F4F2C30310571F76130710541F16230F8
:102590007105C9F16330710509F042C01092A000C5
:1025A00082E08093A1001092A5001092A40089BB44
:1025B000809372008A2F90E0FC01EE0FFF1FE80F5E
:1025C000F91FE952F34F8081806480838881DF9115
:1025D000CF911F91FF90EF90DF90CF9008951092D0
:1025E000800082E080938100109285001092840028
:1025F000B19A80916F00826080936F00DBCF039669
:102600009ACF03968DCF1092900082E08093910034
:10261000109295001092940088BB80937100CACFED
:10262000672B41F61092200182E0809321011092E5
:102630002501109224018ABB80937300BBCF40E236
:1026400052E020E639E00E94621208951F920F9234
:102650000FB60F920BB60F9211242F933F934F9307
:102660005F936F937F938F939F93AF93BF93EF93FA
:10267000FF938091680D87FDB2C08091680D992706
:1026800087FD90950C964091D60C242F30E0821750
:1026900093070CF443C08091680D8F5F8093680DA1
:1026A0008091680D992787FD90950C96242F30E036
:1026B000821793072CF48091680D8C300CF453C072
:1026C0008091840090918500049680549C49F8F094
:1026D0008091840090918500049690938900809366
:1026E00088008FEF8093680DFF91EF91BF91AF91BC
:1026F0009F918F917F916F915F914F913F912F911A
:102700000F900BBE0F900FBE0F901F90189580E496
:102710009CE99093890080938800E3CF8091680DB5
:10272000992787FD90950C96FC01EE0FFF1FE80F8F
:10273000F91FE952F34F808186FFADCF8091680D7C
:10274000992787FD90950C96FC01EE0FFF1FE80F6F
:10275000F91FE952F34F80818F7360E00E94C4201B
:102760004091D60C98CF20918400309185008091C3
:10277000680D992787FD90950C96FC01EE0FFF1FC1
:10278000E80FF91FE952F34F81819281280F391F19
:1027900030938900209388008091680D992787FDE8
:1027A00090950C96FC01EE0FFF1FE80FF91FE95200
:1027B000F34F808186FF98CF8091680D992787FD20
:1027C00090950C96FC01EE0FFF1FE80FF91FE952E0
:1027D000F34F80818F7361E00E94C42085CF1092F7
:1027E0008500109284004091D60C55CF1F920F9215
:1027F0000FB60F920BB60F9211242F933F934F9366
:102800005F936F937F938F939F93AF93BF93EF9358
:10281000FF938091670D87FDABC08091670D99276D
:1028200087FD90954091D60C242F30E082179307B6
:102830000CF442C08091670D8F5F8093670D80918B
:10284000670D992787FD9095242F30E08217930715
:102850002CF48091670D8C300CF451C080912401D0
:1028600090912501049680549C49F8F080912401B0
:1028700090912501049690932901809328018FEF70
:102880008093670DFF91EF91BF91AF919F918F91D1
:102890007F916F915F914F913F912F910F900BBE60
:1028A0000F900FBE0F901F90189580E49CE99093B5
:1028B000290180932801E3CF8091670D992787FD37
:1028C0009095FC01EE0FFF1FE80FF91FE952F34F3F
:1028D000808186FFAFCF8091670D992787FD909506
:1028E000FC01EE0FFF1FE80FF91FE952F34F808143
:1028F0008F7360E00E94C4204091D60C9BCF209142
:102900002401309125018091670D992787FD9095CD
:10291000FC01EE0FFF1FE80FF91FE952F34F818111
:102920009281280F391F309329012093280180912B
:10293000670D992787FD9095FC01EE0FFF1FE80FAB
:10294000F91FE952F34F808186FF9CCF8091670D7C
:10295000992787FD9095FC01EE0FFF1FE80FF91FE7
:10296000E952F34F80818F7361E00E94C4208ACFC7
:1029700010922501109224014091D60C5BCF1F923A
:102980000F920FB60F920BB60F9211242F933F9315
:102990004F935F936F937F938F939F93AF93BF9367
:1029A000EF93FF9380916A0D87FDB2C080916A0D0D
:1029B000992787FD909584964091D60C242F30E07E
:1029C000821793070CF443C080916A0D8F5F809348
:1029D0006A0D80916A0D992787FD90958496242F22
:1029E00030E0821793072CF480916A0D8C300CF440
:1029F00053C08091A4009091A500049680549C49F6
:102A0000F8F08091A4009091A50004969093A900FD
:102A10008093A8008FEF80936A0DFF91EF91BF9193
:102A2000AF919F918F917F916F915F914F913F9166
:102A30002F910F900BBE0F900FBE0F901F90189507
:102A400080E49CE99093A9008093A800E3CF809153
:102A50006A0D992787FD90958496FC01EE0FFF1F64
:102A6000E80FF91FE952F34F808186FFADCF8091C7
:102A70006A0D992787FD90958496FC01EE0FFF1F44
:102A8000E80FF91FE952F34F80818F7360E00E94D5
:102A9000C4204091D60C98CF2091A4003091A5007D
:102AA00080916A0D992787FD90958496FC01EE0F21
:102AB000FF1FE80FF91FE952F34F81819281280F20
:102AC000391F3093A9002093A80080916A0D99279F
:102AD00087FD90958496FC01EE0FFF1FE80FF91F0C
:102AE000E952F34F808186FF98CF80916A0D992734
:102AF00087FD90958496FC01EE0FFF1FE80FF91FEC
:102B0000E952F34F80818F7361E00E94C42085CF2A
:102B10001092A5001092A4004091D60C55CF1F92A0
:102B20000F920FB60F920BB60F9211242F933F9373
:102B30004F935F936F937F938F939F93AF93BF93C5
:102B4000EF93FF938091690D87FDB2C08091690D6D
:102B5000992787FD909548964091D60C242F30E018
:102B6000821793070CF443C08091690D8F5F8093A7
:102B7000690D8091690D992787FD90954896242FBE
:102B800030E0821793072CF48091690D8C300CF49F
:102B900053C08091940090919500049680549C4974
:102BA000F8F080919400909195000496909399008C
:102BB000809398008FEF8093690DFF91EF91BF9103
:102BC000AF919F918F917F916F915F914F913F91C5
:102BD0002F910F900BBE0F900FBE0F901F90189566
:102BE00080E49CE99093990080939800E3CF8091D2
:102BF000690D992787FD90954896FC01EE0FFF1F00
:102C0000E80FF91FE952F34F808186FFADCF809125
:102C1000690D992787FD90954896FC01EE0FFF1FDF
:102C2000E80FF91FE952F34F80818F7360E00E9433
:102C3000C4204091D60C98CF2091940030919500FB
:102C40008091690D992787FD90954896FC01EE0FBC
:102C5000FF1FE80FF91FE952F34F81819281280F7E
:102C6000391F30939900209398008091690D99271E
:102C700087FD90954896FC01EE0FFF1FE80FF91FA6
:102C8000E952F34F808186FF98CF8091690D992793
:102C900087FD90954896FC01EE0FFF1FE80FF91F86
:102CA000E952F34F80818F7361E00E94C42085CF89
:102CB00010929500109294004091D60C55CF089533
:102CC0001F920F920FB60F920BB60F9211242F93F3
:102CD0003F934F938F939F93EF93FF938091C00007
:102CE00082FD2AC04091C6002091AB0D3091AC0D01
:102CF0002F5F3F4F2F7330708091AD0D9091AE0DCF
:102D00002817390759F0E091AB0DF091AC0DE5595A
:102D1000F24F40833093AC0D2093AB0DFF91EF91B8
:102D20009F918F914F913F912F910F900BBE0F90DC
:102D30000FBE0F901F9018958091C600EFCF089599
:102D40001F920F920FB60F920BB60F9211242F9372
:102D50003F934F938F939F93EF93FF938091C8007E
:102D600082FD2AC04091CE002091330E3091340E66
:102D70002F5F3F4F2F7330708091350E9091360E3C
:102D80002817390759F0E091330EF091340EED50C9
:102D9000F24F40833093340E2093330EFF91EF9126
:102DA0009F918F914F913F912F910F900BBE0F905C
:102DB0000FBE0F901F9018958091CE00EFCF089511
:102DC0001F920F920FB60F920BB60F9211242F93F2
:102DD0003F934F938F939F93EF93FF938091D000F6
:102DE00082FD2AC04091D6002091BB0E3091BC0ECE
:102DF0002F5F3F4F2F7330708091BD0E9091BE0EAC
:102E00002817390759F0E091BB0EF091BC0EE55838
:102E1000F14F40833093BC0E2093BB0EFF91EF9196
:102E20009F918F914F913F912F910F900BBE0F90DB
:102E30000FBE0F901F9018958091D600EFCF089588
:102E40001F920F920FB60F920BB60F9211242F9371
:102E50003F934F938F939F93EF93FF938091300114
:102E600082FD2AC0409136012091430F3091440FDA
:102E70002F5F3F4F2F7330708091450F9091460F19
:102E80002817390759F0E091430FF091440FED5F97
:102E9000F04F40833093440F2093430FFF91EF9105
:102EA0009F918F914F913F912F910F900BBE0F905B
:102EB0000FBE0F901F90189580913601EFCFE091D3
:102EC000970FF091980FE05CFF4F819191912081D5
:102ED0003181821B930B8F739070892BD1F5E09118
:102EE000B90FF091BA0FE05CFF4F81919191208171
:102EF0003181821B930B8F739070892B39F5E09190
:102F0000DB0FF091DC0FE05CFF4F8191919120810C
:102F10003181821B930B8F739070892BA1F4E09108
:102F2000FD0FF091FE0FE05CFF4F819191912081A8
:102F30003181821B930B8F739070892B09F4089554
:102F40000E941F1708950E94DF16E9CF0E949F1666
:102F5000D6CF0E945F16C3CF1F920F920FB60F926B
:102F60000BB60F9211242F933F938F939F93EF9360
:102F7000FF932091EF0D3091F00D8091F10D909124
:102F8000F20D2817390709F1E091F10DF091F20DDA
:102F9000E155F24F20818091F10D9091F20D019653
:102FA0008F7390709093F20D8093F10D2093C60073
:102FB000FF91EF919F918F913F912F910F900BBEB9
:102FC0000F900FBE0F901F9018958091C1008F7DBC
:102FD0008093C100EDCF1F920F920FB60F920BB6E8
:102FE0000F9211242F933F938F939F93EF93FF930F
:102FF0002091770E3091780E8091790E90917A0E13
:103000002817390709F1E091790EF0917A0EE95C01
:10301000F14F20818091790E90917A0E01968F73F5
:10302000907090937A0E8093790E2093CE00FF914A
:10303000EF919F918F913F912F910F900BBE0F9029
:103040000FBE0F901F9018958091C9008F7D8093BF
:10305000C900EDCF1F920F920FB60F920BB60F92D1
:1030600011242F933F938F939F93EF93FF9320917E
:10307000FF0E3091000F8091010F9091020F2817E1
:10308000390709F1E091010FF091020FE154F14F7E
:1030900020818091010F9091020F01968F739070A3
:1030A0009093020F8093010F2093D600FF91EF9130
:1030B0009F918F913F912F910F900BBE0F900FBE5C
:1030C0000F901F9018958091D1008F7D8093D10033
:1030D000EDCF1F920F920FB60F920BB60F921124E5
:1030E0002F933F938F939F93EF93FF932091870F9D
:1030F0003091880F8091890F90918A0F2817390796
:1031000009F1E091890FF0918A0FE95BF04F20817E
:103110008091890F90918A0F01968F739070909390
:103120008A0F8093890F20933601FF91EF919F9131
:103130008F913F912F910F900BBE0F900FBE0F906C
:103140001F901895809131018F7D80933101EDCFD3
:10315000DF92EF92FF920F931F93CF93DF93EC01D7
:103160007A018B01DD24403081EE580780E068074A
:1031700080E0780721F1DD24D394EC89FD8981E09A
:1031800090E008A002C0880F991F0A94E2F780839C
:1031900060E079E08DE390E0A80197010E94E722CA
:1031A00021503040404050405695479537952795DF
:1031B00080E120303807D0F0DD20C1F0DD24EC893B
:1031C000FD89108260E874E88EE190E0A801970123
:1031D0000E94E7222150304040405040569547958C
:1031E0003795279580E12030380730F7E889F9894D
:1031F0003083EA89FB89208319A2EE89FF89408107
:1032000021E030E0C9010C8C02C0880F991F0A949C
:10321000E2F7482B4083EE89FF894081C9010D8C7C
:1032200002C0880F991F0A94E2F7482B4083EE8969
:10323000FF894081C9010E8C02C0880F991F0A9432
:10324000E2F7482B4083EE89FF8980810F8C02C012
:10325000220F331F0A94E2F7209528232083DF9161
:10326000CF911F910F91FF90EF90DF900895DC01B7
:103270001C96ED91FC911D97E05CFF4F21913191DF
:1032800080819181281B390B2F733070C9010895FB
:10329000DC011C96ED91FC911D97E05CFF4F2081B5
:1032A0003181E054F040DF01AE5BBF4F8D919C91C6
:1032B00011972817390749F08D919C91E80FF91F54
:1032C0008081282F30E0C90108952FEF3FEFC90119
:1032D0000895DC011C96ED91FC911D97E05CFF4F79
:1032E00020813181E054F040DF01AE5BBF4F8D9112
:1032F0009C9111972817390791F08D919C91119706
:10330000E80FF91F20818D919C91119701968F7381
:10331000907011969C938E9330E0C90108952FEF21
:103320003FEFC9010895FC0181A1882311F411A286
:103330000895A489B5898C9186FFFDCF11A20895C7
:10334000CF93DF93EC01AE85BF85AD01405C5F4F4D
:10335000FA01208131812F5F3F4F2F733070FD01C3
:10336000EE5BFF4F8081918128173907D9F3FA016D
:1033700080819181A80FB91F6C93EE85FF85E05C79
:10338000FF4F31832083EE89FF89208181E090E027
:103390000F8C02C0880F991F0A94E2F7282B208314
:1033A00081E089A3EC89FD8980818064808381E04C
:1033B00090E0DF91CF9108951F9310928E0F10929D
:1033C0008D0F28EE33E040E050E020938F0F3093D4
:1033D000900F4093910F5093920F68EA7CE07093A6
:1033E0008C0F60938B0F8BE69DE09093980F8093EA
:1033F000970F8FEA9DE090939A0F8093990F85EC39
:1034000090E090939C0F80939B0F84EC90E09093BE
:103410009E0F80939D0F80EC90E09093A00F80937F
:103420009F0F81EC90E09093A20F8093A10F82EC0C
:1034300090E09093A40F8093A30F86EC90E090937C
:10344000A60F8093A50F14E01093A70FB3E0B093DD
:10345000A80FA7E0A093A90FF5E0F093AA0FE1E071
:10346000E093AB0F1092B00F1092AF0F2093B10FFB
:103470003093B20F4093B30F5093B40F7093AE0FCD
:103480006093AD0F83EF9DE09093BA0F8093B90FD7
:1034900087E39EE09093BC0F8093BB0F8DEC90E090
:1034A0009093BE0F8093BD0F8CEC90E09093C00F73
:1034B0008093BF0F88EC90E09093C20F8093C10F70
:1034C00089EC90E09093C40F8093C30F8AEC90E056
:1034D0009093C60F8093C50F8EEC90E09093C80F29
:1034E0008093C70F1093C90FB093CA0FA093CB0F4F
:1034F000F093CC0FE093CD0F1092D20F1092D10F1A
:103500002093D30F3093D40F4093D50F5093D60F01
:103510007093D00F6093CF0F8BE79EE09093DC0FFA
:103520008093DB0F8FEB9EE09093DE0F8093DD0F97
:1035300085ED90E09093E00F8093DF0F84ED90E0B5
:103540009093E20F8093E10F80ED90E09093E40F71
:103550008093E30F81ED90E09093E60F8093E50F69
:1035600082ED90E09093E80F8093E70F86ED90E076
:103570009093EA0F8093E90F1093EB0FB093EC0F49
:10358000A093ED0FF093EE0FE093EF0F1092F40F76
:103590001092F30F2093F50F3093F60F4093F70F2F
:1035A0005093F80F7093F20F6093F10F83E09FE058
:1035B0009093FE0F8093FD0F87E49FE0909300109F
:1035C0008093FF0F85E391E09093021080930110A8
:1035D00084E391E0909304108093031080E391E0E2
:1035E000909306108093051081E391E0909308106A
:1035F0008093071082E391E090930A108093091062
:1036000086E391E090930C1080930B1010930D10B3
:10361000B0930E10A0930F10F0931010E0931110C0
:103620001F9108950E946B1F0E9413090E94BD08FC
:103630008FE597E1892B29F00E945F170E94BD0852
:10364000FBCF0E94BD080E94BD08FBCF0E94DD0198
:1036500008950E9433010895CF92DF92EF92FF9276
:103660000F931F93CF93DF937C016B01EA01411508
:103670005105D9F000E010E0D6016D916D01D70140
:10368000ED91FC910190F081E02DC7011995080F93
:10369000191F219789F7C801DF91CF911F910F91D1
:1036A000FF90EF90DF90CF90089500E010E0F3CF0F
:1036B000EF92FF920F931F938C01DC01ED91FC912F
:1036C0000190F081E02D6DE019957C01D801ED911C
:1036D000FC910190F081E02DC8016AE019959C01F0
:1036E0002E0D3F1DC9011F910F91FF90EF9008957E
:1036F0004F925F927F928F929F92AF92BF92CF92A2
:10370000DF92EF92FF920F931F93DF93CF93CDB78A
:10371000DEB7A1970FB6F894DEBF0FBECDBF2C0168
:10372000742ECB01223008F460C0822E9924AA2482
:10373000BB2419A221E2C22ED12CCC0EDD1E0BC05F
:10374000405DF6014083E114F1040105110501F12A
:103750007E2C5F2DC801672D752FA50194010E9455
:10376000E72279018A01C801B701A50194010E94ED
:10377000BC22472D461B0894C108D1084A3004F3E7
:10378000495CF6014083E114F1040105110501F7DC
:10379000C114D10481F1D6010D900020E9F71197F1
:1037A000AC19BD09F20180819181FC012281338134
:1037B000C201B601AD01F90119959C01C901A1969B
:1037C0000FB6F894DEBF0FBECDBFCF91DF911F9132
:1037D0000F91FF90EF90DF90CF90BF90AF909F90B0
:1037E0008F907F905F904F9008953AE0832E912CB8
:1037F000A12CB12C9ECF20E030E0E0CFCF92DF9221
:10380000EF92FF920F931F93CF93DF93EC016A0126
:103810007B0121153105B9F02A30310539F477FDE6
:103820001BC02AE00E94781B9C0103C00E94781BE9
:103830009C01C901DF91CF911F910F91FF90EF90F3
:10384000DF90CF900895E881F9810190F081E02D1B
:10385000642F19959C01EDCFE881F9810190F081E9
:10386000E02D6DE219958C0144275527BA014C19BA
:103870005D096E097F09CE012AE00E94781B98013C
:10388000280F391FD6CFEF92FF920F931F937B0122
:103890009A010027F7FC0095102FB801A7010E949C
:1038A000FE1B1F910F91FF90EF900895CF92DF9232
:1038B000EF92FF920F931F936C017B019A010027F7
:1038C000F7FC0095102FB801A7010E94FE1B8C0188
:1038D000C6010E94581B080F191FC8011F910F91A4
:1038E000FF90EF90DF90CF900895CF93DF93EC019E
:1038F0006115710599F0DB010D900020E9F7119732
:10390000A61BB70BE881F9810280F381E02DAD01A0
:1039100019959C01C901DF91CF91089520E030E015
:10392000C901DF91CF9108950F931F93CF93DF9338
:10393000EC0161157105D9F0DB010D900020E9F76C
:103940001197A61BB70BE881F9810280F381E02D66
:10395000AD0119958C01CE010E94581B9801280FCA
:10396000391FC901DF91CF911F910F91089500E098
:1039700010E0F1CF883098F5E82FF0E0EE0FFF1F50
:10398000ED5EFF4E718360838330B1F1843040F18E
:10399000853009F44BC0853070F480916900429500
:1039A0005295507F5427407F54278F7C842B8093DF
:1039B0006900EA9A0895863059F1873081F4809140
:1039C0006A000024569547950794569547950794A5
:1039D000542F402D8F73842B80936A00EF9A0895A3
:1039E0008130E9F1823098F1809169008C7F842BDD
:1039F00080936900E89A089580916900440F551FEB
:103A0000440F551F837F842B80936900E99A0895A2
:103A100080916A0042955295507F5427407F5427E9
:103A20008F7C842B80936A00EE9A089580916900C0
:103A30000024569547950794569547950794542F1B
:103A4000402D8F73842B80936900EB9A08958091A9
:103A50006A008C7F842B80936A00EC9A0895809191
:103A60006A00440F551F440F551F837F842B80939A
:103A70006A00ED9A08951F920F920FB60F920BB63F
:103A80000F9211242F933F934F935F936F937F93E4
:103A90008F939F93AF93BF93EF93FF9380911710F2
:103AA00090911810892B29F0E0911710F0911810BF
:103AB0001995FF91EF91BF91AF919F918F917F9158
:103AC0006F915F914F913F912F910F900BBE0F908F
:103AD0000FBE0F901F9018951F920F920FB60F9266
:103AE0000BB60F9211242F933F934F935F936F93D5
:103AF0007F938F939F93AF93BF93EF93FF938091A7
:103B0000191090911A10892B29F0E0911910F09159
:103B10001A101995FF91EF91BF91AF919F918F91DD
:103B20007F916F915F914F913F912F910F900BBEBD
:103B30000F900FBE0F901F9018951F920F920FB607
:103B40000F920BB60F9211242F933F934F935F93D5
:103B50006F937F938F939F93AF93BF93EF93FF9355
:103B600080911B1090911C10892B29F0E0911B1063
:103B7000F0911C101995FF91EF91BF91AF919F911A
:103B80008F917F916F915F914F913F912F910F9006
:103B90000BBE0F900FBE0F901F9018951F920F92A3
:103BA0000FB60F920BB60F9211242F933F934F93A2
:103BB0005F936F937F938F939F93AF93BF93EF9395
:103BC000FF9380911D1090911E10892B29F0E09198
:103BD0001D10F0911E101995FF91EF91BF91AF91BB
:103BE0009F918F917F916F915F914F913F912F9115
:103BF0000F900BBE0F900FBE0F901F9018951F9245
:103C00000F920FB60F920BB60F9211242F933F9382
:103C10004F935F936F937F938F939F93AF93BF93D4
:103C2000EF93FF938091131090911410892B29F03A
:103C3000E0911310F09114101995FF91EF91BF913D
:103C4000AF919F918F917F916F915F914F913F9134
:103C50002F910F900BBE0F900FBE0F901F901895D5
:103C60001F920F920FB60F920BB60F9211242F9343
:103C70003F934F935F936F937F938F939F93AF93F4
:103C8000BF93EF93FF938091151090911610892B9D
:103C900029F0E0911510F09116101995FF91EF9110
:103CA000BF91AF919F918F917F916F915F914F9154
:103CB0003F912F910F900BBE0F900FBE0F901F9052
:103CC00018951F920F920FB60F920BB60F921124F8
:103CD0002F933F934F935F936F937F938F939F9314
:103CE000AF93BF93EF93FF9380911F10909120109B
:103CF000892B29F0E0911F10F09120101995FF9168
:103D0000EF91BF91AF919F918F917F916F915F9153
:103D10004F913F912F910F900BBE0F900FBE0F90C0
:103D20001F9018951F920F920FB60F920BB60F921D
:103D300011242F933F934F935F936F937F938F93B0
:103D40009F93AF93BF93EF93FF9380912110909136
:103D50002210892B29F0E0912110F0912210199561
:103D6000FF91EF91BF91AF919F918F917F916F9153
:103D70005F914F913F912F910F900BBE0F900FBE0F
:103D80000F901F9018951F920F920FB60F9211244B
:103D90002F933F938F939F93AF93BF93809127105F
:103DA00090912810A0912910B0912A1030912B10D9
:103DB0000196A11DB11D232F2D5F2D3720F02D570A
:103DC0000196A11DB11D20932B1080932710909375
:103DD0002810A0932910B0932A108091231090915D
:103DE0002410A0912510B09126100196A11DB11D9F
:103DF0008093231090932410A0932510B093261045
:103E0000BF91AF919F918F913F912F910F900FBED6
:103E10000F901F9018958FB7F8942091271030912C
:103E200028104091291050912A108FBFB901CA0162
:103E300008959FB7F8942091231030912410409159
:103E400025105091261086B5A89B06C08F3F21F003
:103E50002F5F3F4F4F4F5F4F9FBF542F432F322F46
:103E60002227280F311D411D511D220F331F441FD2
:103E7000551F220F331F441F551FB901CA01089552
:103E8000EF92FF920F931F93CF93DF937B018C01EF
:103E90000E94191FE114F10401051105A9F0EB01BD
:103EA0000E94191F6C1B7D0B685E7340C8F3089459
:103EB000E108F10801091109E114F10401051105F6
:103EC00019F0C851DC4FECCFDF91CF911F910F91CA
:103ED000FF90EF900895789484B5826084BD84B596
:103EE000816084BD85B5826085BD85B5816085BDF5
:103EF000EEE6F0E0808181608083E1E8F0E010820E
:103F0000808182608083808181608083E0E8F0E04E
:103F1000808181608083E1EBF0E080818460808338
:103F2000E0EBF0E0808181608083E1E9F0E0808176
:103F300082608083808181608083E0E9F0E080811D
:103F400081608083E1EAF0E080818260808380810B
:103F500081608083E0EAF0E0808181608083E1E23B
:103F6000F1E0808182608083808181608083E0E2F3
:103F7000F1E0808181608083EAE7F0E08081846005
:103F80008083808182608083808181608083808162
:103F9000806880831092C1000895382F863308F01E
:103FA000365320917B00832F86958695869590E0E9
:103FB00081709070880F991F880F991F880F991F23
:103FC000277F282B20937B0037708091170C8295D8
:103FD000880F880F807C832B80937C0080917A00EF
:103FE000806480937A0080917A0086FDFCCF2091D6
:103FF000780040917900942F80E030E0282B392B15
:10400000C9010895CF93DF93482F50E0CA01885823
:104010009E4FFC0134914E5C5E4FFA0184918823DF
:10402000B9F090E0880F991FFC01EC51FF4FA5916A
:10403000B491FC01E250FF4FC591D491662359F031
:104040006230B9F09FB7F8948C91832B8C939FBF0B
:10405000DF91CF9108952FB7F8948C91932F90957D
:1040600089238C938881892388832FBFDF91CF9107
:1040700008952FB7F8948C91932F909589238C9362
:104080008881832B88832FBFE3CF893009F45EC0FA
:104090008A3070F08D3009F45FC08E30D0F08031FE
:1040A00009F46CC0813109F463C08F30C9F10895FF
:1040B000843009F445C08530B8F08730B9F18830D4
:1040C00048F58630A1F78091B0008F778093B000DB
:1040D00008958B3009F446C08C30B0F08091A00078
:1040E0008F7D8093A0000895823031F1833030F4C9
:1040F0008130E9F684B58F7784BD08958091800082
:104100008F7780938000089580919000877F8093BF
:1041100090000895809190008F778093900008958B
:10412000809120018F778093200108958091B000C5
:104130008F7D8093B000089584B58F7D84BD0895F0
:10414000809180008F7D8093800008958091900001
:104150008F7D8093900008958091A000877F809349
:10416000A00008958091A0008F778093A00008950B
:1041700080912001877F8093200108958091200104
:104180008F7D809320010895FF920F931F93F62E49
:10419000482F50E0CA0182549E4FFC012491CA016D
:1041A00088589E4FFC0104914E5C5E4FFA011491B9
:1041B000112399F02223D1F4E12FF0E0EE0FFF1F3D
:1041C000E250FF4FA591B4919FB7F894FF2049F4B6
:1041D0008C91009580238C939FBF1F910F91FF902E
:1041E00008958C91802B8C939FBFF7CF822F0E94D4
:1041F0004520E2CF0F931F93482F50E0CA0182540D
:104200009E4FFC012491CA0188589E4FFC010491E5
:104210004E5C5E4FFA0114911123D1F02223F1F488
:10422000812F90E0880F991F885E9E4FFC01A59119
:10423000B4918C9120E030E0802321F4C9011F91DA
:104240000F91089521E030E0C9011F910F91089569
:1042500020E030E0C9011F910F910895822F0E9444
:104260004520DECF0CD0EBC0E3D040F0DAD030F008
:1042700021F45F3F19F0CCC0511115C1CFC0F0D06F
:1042800098F39923C9F35523B1F3951B550BBB271D
:10429000AA2762177307840738F09F5F5F4F220FCA
:1042A000331F441FAA1FA9F333D00E2E3AF0E0E8C3
:1042B00030D091505040E695001CCAF729D0FE2F0F
:1042C00027D0660F771F881FBB1F261737074807A1
:1042D000AB07B0E809F0BB0B802DBF01FF27935857
:1042E0005F4F2AF09E3F510568F092C0DCC05F3FEF
:1042F000ECF3983EDCF3869577956795B795F7953F
:104300009F5FC9F7880F911D9695879597F9089536
:10431000E1E0660F771F881FBB1F621773078407D2
:10432000BA0720F0621B730B840BBA0BEE1F88F7E1
:10433000E095089504D06894B111B5C0089598D05F
:1043400088F09F5790F0B92F9927B751A0F0D1F07E
:10435000660F771F881F991F1AF0BA95C9F712C008
:10436000B13081F09FD0B1E008959CC0672F782FC5
:104370008827B85F39F0B93FCCF386957795679574
:10438000B395D9F73EF490958095709561957F4FE0
:104390008F4F9F4F0895E89409C097FB3EF4909586
:1043A0008095709561957F4F8F4F9F4F9923A9F00E
:1043B000F92F96E9BB279395F6958795779567959D
:1043C000B795F111F8CFFAF4BB0F11F460FF1BC0E1
:1043D0006F5F7F4F8F4F9F4F16C0882311F096E974
:1043E00011C0772321F09EE8872F762F05C0662322
:1043F00071F096E8862F70E060E02AF09A95660FDB
:10440000771F881FDAF7880F9695879597F9089593
:1044100097F99F6780E870E060E008959FEF80EC77
:10442000089500240A94161617061806090608951A
:1044300000240A9412161306140605060895092E80
:104440000394000C11F4882352F0BB0F40F4BF2BEF
:1044500011F460FF04C06F5F7F4F8F4F9F4F08952F
:1044600057FD9058440F551F59F05F3F71F0479525
:10447000880F97FB991F61F09F3F79F0879508950A
:10448000121613061406551FF2CF4695F1DF08C029
:10449000161617061806991FF1CF86957105610546
:1044A00008940895E894BB2766277727CB0197F9EE
:1044B00008950BD0C4CFB5DF28F0BADF18F09523EC
:1044C00009F0A6CFABCF1124EECFCADFA0F3959FA2
:1044D000D1F3950F50E0551F629FF001729FBB27EB
:1044E000F00DB11D639FAA27F00DB11DAA1F649F97
:1044F0006627B00DA11D661F829F2227B00DA11D4A
:10450000621F739FB00DA11D621F839FA00D611DCF
:10451000221F749F3327A00D611D231F849F600DF0
:10452000211D822F762F6A2F11249F5750408AF029
:10453000E1F088234AF0EE0FFF1FBB1F661F771FB5
:10454000881F91505040A9F79E3F510570F060CFF1
:10455000AACF5F3FECF3983EDCF38695779567959D
:10456000B795F795E7959F5FC1F7FE2B880F911DD3
:104570009695879597F90895629FD001739FF001F2
:10458000829FE00DF11D649FE00DF11D929FF00DE3
:10459000839FF00D749FF00D659FF00D9927729F1A
:1045A000B00DE11DF91F639FB00DE11DF91FBD01A5
:1045B000CF0111240895991B79E004C0991F961723
:1045C00008F0961B881F7A95C9F780950895A1E297
:1045D0001A2EAA1BBB1BFD010DC0AA1FBB1FEE1F7D
:1045E000FF1FA217B307E407F50720F0A21BB30BC8
:1045F000E40BF50B661F771F881F991F1A9469F744
:1046000060957095809590959B01AC01BD01CF019F
:104610000895EE0FFF1F0590F491E02D1994F89482
:02462000FFCFCA
:104622002A205354415254203A20002A20434F5505
:104632004C203A20002A2053545241542031203A2F
:1046420020002A2053545241542032203A20002084
:10465200636D644720200020204720200020206333
:104662006D644420200020204420200042616C6CB4
:10467200655F64726F697465202D3E2064656275A2
:10468200672000455441542041435455454C203A3B
:10469200200074696D655F6F757420736574200006
:1046A200455441545F42414C4C455F44524F49543A
:1046B200455F52414E47455F444550415254004583
:1046C2005441545F42414C4C455F44524F4954451A
:1046D2005F4445504C4F59454D454E540045544159
:1046E200545F42414C4C455F44524F4954455F50E0
:1046F2005249534500455441545F42414C4C455F39
:1047020044524F4954455F52454C45564500455425
:1047120041545F42414C4C455F44524F4954455FBE
:1047220052414E47455F3100455441545F42414C2E
:104732004C455F44524F4954455F52414E47455F95
:104742003200455441545F42414C4C455F44524F04
:104752004954455F455850554C53494F4E000061EE
:104762007070656C20747269676765722062616C33
:104772006C652064726F697465203A2000200054D1
:1047820052414E53495354494F4E20464F5243458E
:1047920045202D3E2042414C4C455F44524F4954E6
:1047A200453A20005452414E534954494F4E2041FC
:1047B20055544F202D3E2042414C4C455F44524FB0
:1047C2004954453A200041435455414C20535441E9
:1047D2005445202D3E2042414C4C455F44524F49A6
:1047E2005445203A20004E45572053544154452009
:1047F2002D3E2042414C4C455F44524F4954453A6C
:104802002000455441545F50494C455F494E49543C
:1048120049414C2000455441545F50494C455F503A
:104822005245505F53414953494520200045544168
:10483200545F50494C455F50524953452020004532
:104842005441545F50494C455F414E414C59534588
:10485200202000455441545F50494C455F44454334
:104862004953494F4E5F4D4F564520200045544114
:10487200545F50494C455F52454C414348454D4574
:104882004E54202000455441545F50494C455F52DC
:10489200454C41584154494F4E2020004554415403
:1048A2005F50494C455F44455343454E5445202093
:1048B20000455441545F50494C455F534149534967
:1048C200455F50494E4345202000455441545F50B6
:1048D200494C455F5341495349455F4D4F4E5445FD
:1048E200202000455441545F50494C455F53414993
:1048F2005349455F46494E202000455441545F507C
:10490200494C455F4445504F545F444543495349E0
:104912004F4E202000455441545F50494C455F445E
:1049220045504F545F46554C4C5F494E49542020E8
:104932002000455441545F50494C455F4445504F17
:10494200545F46554C4C5F485F505245505F312092
:10495200202000455441545F50494C455F44455026
:104962004F545F46554C4C5F485F505245505F3242
:1049720020202000455441545F50494C455F444536
:10498200504F545F46554C4C5F485F505245505F04
:104992003320202000455441545F50494C455F4428
:1049A20045504F545F46554C4C5F485F50524550FE
:1049B2005F3420202000455441545F50494C455FEC
:1049C2004445504F545F46554C4C5F485F505245EA
:1049D2005420202000455441545F50494C455F44C7
:1049E20045504F545F46554C4C5F485F504F5345BE
:1049F20020202000455441545F50494C455F4445B6
:104A0200504F545F46554C4C5F5245504C49535F92
:104A12003120202000455441545F50494C455F44A9
:104A220045504F545F46554C4C5F5245504C49538C
:104A32005F3220202000455441545F50494C455F6D
:104A42004445504F545F494E465F505245505F3186
:104A520020202000455441545F50494C455F444555
:104A6200504F545F494E465F505245505F322020AE
:104A72002000617070656C207472696767657220CE
:104A8200436F6E7374727563746575725F70696C6F
:104A920065203A20005452414E53495354494F4ED7
:104AA20020464F52434545202D3E20436F6E73747E
:104AB200727563746575725F70696C653A20005433
:104AC20052414E534954494F4E204155544F20288C
:104AD20074696D65206F757429202D3E20436F6EB9
:104AE2007374727563746575725F70696C653A2070
:104AF200005452414E534954494F4E204155544F50
:104B020020286173732066696E6929202D3E204337
:104B12006F6E7374727563746575725F70696C65BC
:104B22003A200041435455414C20535441544520AE
:104B32002D3E20436F6E7374727563746575725F78
:104B420070696C65203A20006E6F6D627265206537
:104B52006C656D656E7473203A20004E4557205384
:104B620054415445202D3E20436F6E737472756319
:104B7200746575722064652070696C653A20004125
:104B82005343454E534555525F5449432044524F77
:104B92004954203A2000415343454E534555525FF4
:104BA20054494320474155434845203A200020625A
:104BB200756D70657220686175743A2000206275A7
:104BC2006D70657220206261733A20004153532058
:104BD20046494E49006E6F6D627265206427656CAE
:104BE200656D656E742064616E73206C61207069FE
:104BF2006C652064726F697465203A2000202D3E36
:104C020020656A656374696F6E206175746F6D618A
:104C120074697175652062616C6C652064726F697C
:104C22007465006E6F6D627265206427656C656DD8
:104C3200656E742064616E73206C612070696C65AE
:104C420020676175636865203A2000202D3E20654B
:104C52006A656374696F6E206175746F6D617469E2
:104C62007175652062616C6C65206761756368654A
:104C720000202D2D2D2D202D2D2D2D202D2D2D2DB6
:104C8200202D2D2D2D202D2D2D2D202D2D2D2D2086
:104C92002D2D2D2D206465627567204153432064BC
:104CA200726F69746500202D2D2D2D202D2D2D2D37
:104CB200202D2D2D2D202D2D2D2D202D2D2D2D2056
:104CC2002D2D2D2D202D2D2D2D2042756D706572CF
:104CD2002048617574203A2000202D2D2D2D202D85
:104CE2002D2D2D202D2D2D2D202D2D2D2D202D2D19
:104CF2002D2D202D2D2D2D202D2D2D2D2042756D6C
:104D020070657220426173203A2000202D2D2D2DD6
:104D1200202D2D2D2D202D2D2D2D206465627567C2
:104D2200204153432067617563686500202D2D2D56
:104D32002D202D2D2D2D202D2D2D2D2042756D70E8
:104D420065722048617574203A2000202D2D2D2D8A
:104D5200202D2D2D2D202D2D2D2D2042756D706590
:104D62007220426173203A20002050696E6365759B
:104D7200722064726F69746520696E6974002050D4
:104D8200696E636575722067617563686520696E17
:104D9200697400206272617320766572746963615E
:104DA2006C20696E697400206272617320686F7290
:104DB200697A6F6E74616C20696E69740020656A2D
:104DC20065637465757220696E6974002042616C56
:104DD2006C652064726F69746520696E6974002065
:104DE20062616C6C652067617563686520696E69D4
:104DF2007400207461636C65747465206578742036
:104E020064726F69746520696E69740020746163ED
:104E12006C65747465206578742067617563686574
:104E220020696E697400205461636C657474652036
:104E3200696E742064726F69746520696E697400AA
:104E4200205461636C6574746520696E74206761B7
:104E52007563686520696E6974002063616D2069FD
:104E62006E697400206361706F7420696E697400EA
:104E7200206173706920696E69740020636C6170CF
:104E8200732064726F69746520696E6974002063AF
:104E92006C6170732067617563686520696E6974FF
:104EA20000204153432064726F69746520696E6902
:104EB2007400204153432067617563686520696E01
:104EC20069740020436F6E737472756374657572D2
:104ED2002064652070696C652064726F6974652056
:104EE200696E69740020436F6E73747275637465C2
:104EF20075722064652070696C65206761756368EE
:104F02006520696E69740020494F206465636C6195
:104F1200726174696F6E006361707465757220638B
:104F22006F756C657572203A20667265712000207B
:104F320076657274203F2000206A61756E65203F9D
:104F42002000534F4E415220474155434845203A95
:104F52002000534F4E41522044524F495445203A6B
:104F6200200049522043454E5452414C203A2000E1
:104F720049522042415320474155434845203A2057
:104F8200004952204241532044524F495445203A4D
:104F920020002353455249414C2052454144590077
:104FA20023424153204E495645415520434F4F50CD
:104FB200275200494E495420494F00494E49542036
:104FC200534C41564500494E4954204F7264657214
:104FD2007352617370626572727900005F5F5F5F26
:104FE2005F5F5F5F5F5F5F5F5F5F5F5F5F5F5F5FCF
:104FF2005F5F5F5F006574617420696E6974002A87
:10500200205354415254203A20002A20434F554CF9
:10501200455552203A20002A2053545241542031FF
:10502200203A20002A2053545241542032203A2060
:105032000020003010000001260C3A0C440C300C09
:105042002000000000004A0C070CE0FFE0FF000017
:105052003F0CFC0B200000000000060AAA0BE0FF38
:10506200E0FF0000FB099F0B060000000000060A9B
:10507200AA0BFAFFFAFF0000FB099F0B00000000D9
:10508200F509B70B00000000C90BE10B350A360A1F
:10509200CE0D370A410A440A510AA00AB70ACE0ABB
:1050A2006410400D00000000100AC00B350A220BEC
:1050B200250B280B320A2B0B2E0B2F0A160A2D0A50
:1050C200330B9D0B00000000A0192C1B3719691926
:0450D20048199319CD
:00000001FF
