:100000000C947B010C94AB510C94DC510C940D526C
:100010000C943E520C946F520C94A0520C94D152FA
:100020000C9402530C94A8010C94A8010C94A80100
:100030000C94A8010C94A8010C94A8010C94A8019C
:100040000C94A8010C9426460C94A8010C94A801C9
:100050000C94A8010C94A8010C94A8010C9433539F
:100060000C94A8010C9460490C94AC4A0C94A8011F
:100070000C94A8010C94A8010C94A8010C94A8015C
:100080000C948F480C94A8010C94A8010C94A8011E
:100090000C94A0490C94EB4A0C94A8010C94A80170
:1000A0000C94A8010C94A8010C94BF470C94A801CF
:1000B0000C94A8010C94A8010C94A8010C94F64689
:1000C0000C94A8010C94A8010C94A8010C94E0498C
:1000D0000C942A4B0C94A8010C94204A0C94694B64
:1000E0000C94A8014A1B361B221B161B0A1BFA1A6A
:1000F000E61ADB1ACB1ABE1AAA1A9E1A8A1A721AA2
:10010000671A571A4A1A3E1A2E1A1D1A091AF11995
:10011000DA19431C361C2E1CB31C9D1CDC1BCE1C88
:10012000C51CBC1C821CDC1B5D1C591C501C8B1C80
:10013000E71C111C941CD71CF01CDC1B791C111C27
:10014000084AD73B3BCE016E84BCBFFDC12F3D6C3E
:1001500074319ABD56833DDA3D00C77F11BED9E4A4
:10016000BB4C3E916BAAAABE000000803F05A84C84
:10017000CDB2D44EB93836A9020C50B99186880850
:100180003CA6AAAA2ABE000000803F00002100244D
:100190000027002A002D0030003300010100000478
:1001A0000107010A0100002200250028002B002E73
:1001B000003100340002010000050108010B0100BC
:1001C0000020002300260029002C002F0032000010
:1001D00001000003010601090105050505070508E1
:1001E000080808020202020A0A08080404040401BA
:1001F00001010101010101030303030303030304DC
:100200000707070C0C0C0C0C0C0C0C02020202066B
:10021000060606060606060B0B0B0B0B0B0B0B015B
:100220000210202008081020401020408002010207
:1002300001080402010102040810204080804020CF
:10024000100804020180040201804020100804020A
:100250000108040201010204081020408001020488
:1002600008102040800000090A02080B0C0D070648
:100270000304010000000000000000000000000076
:10028000000000000000000000000000000000006E
:100290000011100F0000000000000000000000002E
:1002A00000000000000000000000006364696E6F41
:1002B00070737578585B00494E46494E4954594E03
:1002C000414ECDCCCC3D0AD7233C17B7D13877CCA3
:1002D0002B329595E6241FB14F0A00002041000003
:1002E000C84200401C4620BCBE4CCA1B0E5AAEC5BC
:1002F0009D748D21DC4C11241FBECFEFD1E2DEBFF7
:10030000CDBF00E00CBF10E1A0E0B2E0E0EEF2EB08
:1003100000E00BBF02C007900D92A63CB107D9F7D1
:100320001BBE14E1A6ECB0E101C01D92AC35B107D3
:10033000E1F712E0C6EFD2E004C02297FE010E946E
:100340002859C23FD107C9F70E94124E0C946E592A
:100350000C940000CF93DF93BC018230910510F420
:1003600062E070E0A0915814B0915914ED01E0E002
:10037000F0E040E050E021C088819981861797071E
:1003800069F48A819B81309719F09383828304C03A
:100390009093591480935814FE0134C0681779075C
:1003A00038F44115510519F08417950708F4AC018C
:1003B000FE018A819B819C01E9012097E9F64115A4
:1003C0005105A9F1CA01861B970B049708F4BA01DD
:1003D000E0E0F0E02AC08D919C9111978417950779
:1003E000F9F46417750781F412968D919C91139717
:1003F000309719F09383828304C0909359148093AB
:100400005814FD0132964CC0CA01861B970BFD01A2
:10041000E80FF91F6193719302978D939C9340C0ED
:10042000FD01828193819C01D9011097A1F68091F1
:10043000561490915714892B41F480912410909177
:100440002510909357148093561440912610509184
:1004500027104115510541F44DB75EB78091221028
:1004600090912310481B590B20915614309157142A
:10047000CA01821B930B8617970780F0AB014E5F72
:100480005F4F8417950750F0420F531F5093571436
:1004900040935614F9016193719302C0E0E0F0E0DB
:1004A000CF01DF91CF910895CF93DF93009709F4A7
:1004B00050C0EC0122971B821A82A0915814B0916F
:1004C0005914109709F140E050E0AC17BD0708F14E
:1004D000BB83AA83FE0121913191E20FF31FAE1776
:1004E000BF0779F48D919C911197280F391F2E5FCA
:1004F0003F4F3983288312968D919C9113979B834C
:100500008A834115510571F4D0935914C09358143E
:1005100020C012968D919C911397AD01009711F018
:10052000DC01D3CFFA01D383C28321913191E20F51
:10053000F31FCE17DF0769F488819981280F391FCF
:100540002E5F3F4FFA01318320838A819B81938301
:100550008283DF91CF910895662777270C94A705B2
:10056000FC0188279927E89421912032E9F329306A
:1005700010F02E30C8F32B3241F02D3239F468944C
:1005800004C00E94F002820F911D219120532A3055
:10059000C0F31EF4909581959F4F0895FB01DC01F7
:1005A00002C001900D9241505040D8F7089568174D
:1005B000790768F4FB01DC01E40FF51FA40FB51FF8
:1005C00002C002900E9241505040D8F708950C940A
:1005D000CE02DC0101C06D9341505040E0F7089518
:1005E0007AE0979F902D879F802D910D112408957B
:1005F000AEE0B0E0EEEFF2E00C94475985E08C837A
:100600008C899D899A8389839E01285E3F4FCE0104
:1006100001966E897F89A9010E9496042E96E2E0D8
:100620000C946359FC0120FD08C023FD05C022FF86
:1006300002C073836283518340830895EF92FF92D7
:100640000F931F9344FF02C033E011C046FF02C066
:1006500034E00DC0DB01FC01AA0FBB1FEE1FFF1F22
:100660001094D1F76A0F7B1F8E1F9F1F31E0660F1A
:10067000771F881F991F3150D1F77B018C01E20E43
:10068000F11C011D111DA8019701B701CA011F919D
:100690000F91FF90EF9008950F931F93CF93DF93E7
:1006A0008C01C8010E942A07EC0197FD08C00E9436
:1006B0002C59892BB1F7CE01B8010E946C07CE01ED
:1006C000DF91CF911F910F910895A0E0B0E0EBE68C
:1006D000F3E00C943F59EC01C62E5A01122F0E94F0
:1006E0002A07AC018B3219F08D3251F41068CA948C
:1006F00009F46DC0CE010E942A07AC0197FD67C0C6
:100700006DEFD62ED1228D2D807301F54033F1F49B
:10071000CA9409F447C0CE010E942A07AC0197FD94
:1007200041C082E0D82A483711F0483559F480E4B6
:10073000D82ACA94B9F1CE010E942A07AC019923A4
:100740002CF430C0D6FC02C080E1D82AEE24FF246D
:100750008701242F2053283088F0D4FC09C02A3088
:1007600068F0D6FE05C02F7D822F8151863028F09B
:10077000CA01BE010E946C0712C02750C801B70110
:100780004D2D0E941E037B018C0182E0D82ACA9461
:1007900061F0CE010E942A07AC0197FFDACFD1FCAD
:1007A00004C015C0EE24FF248701D7FE08C01095B1
:1007B0000095F094E094E11CF11C011D111DC50190
:1007C000B801A7012D2D0E94120381E001C080E035
:1007D000CDB7DEB7EAE00C945B59A0E2B0E0E3EFFE
:1007E000F3E00C943B596C01A62E8A017901FE01BD
:1007F000319680E2DF011D928A95E9F770E030E0E2
:1008000060E040E050E04F01A1E0B0E0F6018381FC
:10081000F70183FD259183FF21917F01222309F4B4
:100820007EC02E3519F44115510569F1872F90E0EE
:100830008417950744F42D3551F12D3221F43323DB
:1008400029F431E021C0332309F4622F322F832FA2
:10085000869586958695F401E80FF11D832F8770A4
:100860003D0102C0660C771C8A95E2F7208126299B
:100870002083361711F430E007C0361710F43F5FBD
:10088000E6CF3150E4CF71E04F5F5F4FBFCF3323EE
:1008900019F08E8180628E83772359F0FE013196A4
:1008A0009E012F5D3F4F808180958193E217F30772
:1008B000D1F7BB24B3944E010894811C911CC6014E
:1008C0000E942A07AC0197FD22C0869586958695E1
:1008D000F401E80FF11D808190E09A0127703070DB
:1008E00002C0959587952A95E2F780FD05C0CA015B
:1008F000B6010E946C070BC00115110519F0D80153
:100900004D938D01AA94BB24AA20C9F602C0BB2036
:1009100031F40115110529F0F801108202C0EE240E
:10092000FF24C701A096EEE00C945759A0E0B0E078
:10093000ECE9F4E00C943B595C016B013A01FC01D9
:10094000178216828824EAC0812F90E00E942C59D9
:10095000892B21F0C5010E944C03E0C0153249F4F7
:10096000F601F3FC6591F3FE61916F01653269F464
:1009700015E2C5010E942A0797FDDCC0181709F48B
:10098000CDC0B5010E946C07DAC06A3219F0162F8B
:1009900000E006C0F3FC1591F3FE11916F0101E038
:1009A00099240FC00260692D70E080E090E040E281
:1009B0000E941E03962EF601F3FC1591F3FE119191
:1009C0006F01212F20532A3068F301FD03C09924C1
:1009D0009A9403C0992009F4B2C0183621F01C364D
:1009E00099F4F6010BC0F601F3FC6591F3FE6191F9
:1009F000683619F06F01162F07C008600460F3FC19
:100A00001591F3FE11916F01112309F498C08BEA3F
:100A100092E0612F70E00E940707892B09F48FC0D4
:100A2000802F00FF03C0EE24FF2407C0F301E08005
:100A3000F18022E030E0620E731E1E3651F4F501A3
:100A40004681578160E070E0C701202F0E941203A9
:100A500065C0133691F481FD02C099249394C501B9
:100A60000E942A0797FD66C0E114F10419F0F7010E
:100A700081937F019A9499F74FC01B3559F4C501B2
:100A8000692DA70196010E94ED036C01009709F002
:100A900043C03DC0C5010E944C0397FD4BC01F36AB
:100AA00059F1103728F4143629F1193639F527C0D1
:100AB000133719F0153711F51DC0C5010E942A071B
:100AC000EC0197FD11C00E942C59892B29F0CE0111
:100AD000B5010E946C0708C0E114F10419F0F70198
:100AE000C1937F019A9449F7E114F104A9F0F70149
:100AF000108212C0006203C0006101C00064C50121
:100B0000692DA701202F0E946503882329F4F50190
:100B10008381807379F413C000FF8394F501F3801F
:100B2000F601F3FC1591F3FE11916F01112309F009
:100B30000BCF05C0882019F42FEF3FEF02C0282DFE
:100B400030E0C901CDB7DEB7EEE00C945759A0E014
:100B5000B0E0EDEAF5E00C943D59EC015B01611564
:100B6000710519F0FB0191838083F9908F2D90E03E
:100B70000E942C59892BC9F7FDE2FF1621F4F99048
:100B8000EE24E39405C02BE2F21609F4F990EE246A
:100B90008E0101501040C80167EB72E043E050E065
:100BA0000E941207892B01F58E010E5F1F4FC801AD
:100BB0006AEB72E045E050E00E941207892B19F4BD
:100BC0008E01095F1F4FA114B10419F0F5011183C3
:100BD0000083E0FC04C070E090E080E814C070E0A6
:100BE00090E080E86FEF08C1C8016FEB72E043E06E
:100BF00050E00E941207892B69F4A114B10429F472
:100C000070E090E080EC6FE7F7C02296F501D183A9
:100C1000C083F6CF8824992440E050E060E070E083
:100C2000EF2DE053EA30A0F5F2E0EF2A8E2D90E0B0
:100C30009C0128703070E2FE06C0232B79F50894E1
:100C4000811C911C2BC0232B19F00894810891085A
:100C5000DB01CA0112E0880F991FAA1FBB1F1A955A
:100C6000D1F7480F591F6A1F7B1F440F551F661F7E
:100C7000771F4E0F511D611D711D483929E952071B
:100C800029E9620729E1720748F084E0E82A06C0F2
:100C9000EE3F31F4E3FC39C098E0E92AF990C0CF87
:100CA000E53311F0E53189F529912D3219F4E0E1B0
:100CB000EE2A05C02B3219F081E090E003C02991A3
:100CC00082E090E0E22FE053EA3018F0C81BD90B25
:100CD0001CC020E030E0FCE020383F075CF4C90194
:100CE000880F991F880F991F280F391F220F331F54
:100CF0002E0F311DE991E053EA3068F3E4FE03C0A2
:100D0000309521953F4F820E931ECE2CDD24E1FEBF
:100D100007C0A114B10421F02197F501D183C0834C
:100D2000CB01BA010E94CF567B018C01F3E0CF22A8
:100D3000DD2423E0C216D10421F417FB109517F926
:100D4000109557016801C801B70120E030E040E08C
:100D500050E00E942F56882309F44AC097FE0DC028
:100D600026EDE22E22E0F22E909481949108939445
:100D7000C0E2D0E000E010E012C09EEEE92E92E06A
:100D8000F92EF6CFF7012591359145915491C60181
:100D9000B5010E94F3575B016C018C1A9D0A8C16F9
:100DA0009D0684F7D595C7950F5F1F4F0630110537
:100DB00029F08CEF9FEFE80EF91EF1CFC501D601A7
:100DC0007C018D018C2D880F8D2D881F8F3F51F058
:100DD000C601B50120E030E040E050E00E942F560F
:100DE000882331F482E290E090935B1480935A144C
:100DF0007E2D9F2D802F612F272F392F482F562F83
:100E0000B901CA01CDB7DEB7ECE00C945959FC0129
:100E10000590061621F00020D9F7C00108953197FA
:100E2000CF010895FB01DC014150504088F08D91C5
:100E300081341CF08B350CF4805E659161341CF0BC
:100E40006B350CF4605E861B611171F3990B08958C
:100E5000881BFCCFCF93DF93EC014B8140FF1AC07E
:100E600046FF0AC04F7B4B838E819F8101969F83F3
:100E70008E838A81282F2BC042FF13C0E881F9811D
:100E80008081282F332727FD30952115310529F43E
:100E900040624B832FEF3FEF1BC03196F983E8830D
:100EA00011C0EA85FB85CE0119959C0197FF0AC008
:100EB0009B812F5F3F4F11F080E201C080E1892BC1
:100EC0008B83E8CF8E819F8101969F838E8330E054
:100ED000C901DF91CF9108959C01FB01838180FFBF
:100EE00011C086FD0FC09FEF2F3F390759F02283B5
:100EF00080648F7D83838681978101979783868322
:100F000030E002C02FEF3FEFC90108959C01245F3C
:100F10003F4FC9010895FC01E350FF4F80E090E08E
:100F2000A0E0B0E081939193A193B19380839183EA
:100F3000A283B3830895FC01E350FF4F20813181E8
:100F400042815381B901CA010895FC01EF5FFE4F50
:100F50002081318142815381B901CA010895FC0188
:100F6000E750FF4F808191810895FC01E550FF4FCC
:100F7000808191810895FC01E550FF4F118210821C
:100F80001292129208950C960E94260C08950C96C7
:100F90000E94220C08952F923F924F925F926F927F
:100FA0007F928F929F92AF92BF92CF92DF92EF92F9
:100FB000FF920F931F93DF93CF93CDB7DEB72C979C
:100FC0000FB6F894DEBF0FBECDBF1C014B01690107
:100FD0007A010E94783C2B013C01AA2497FCA09442
:100FE000BA2CC501B4010E94D156AB01BC015E010F
:100FF0000894A11CB11CC501930182010E94253DEA
:10100000D101F5018CE001900D928150E1F7C10111
:101010000C96F101C080D180E280F38004811581BB
:101020002681378140855185628573850E94790CC0
:101030002C960FB6F894DEBF0FBECDBFCF91DF91D7
:101040001F910F91FF90EF90DF90CF90BF90AF90E6
:101050009F908F907F906F905F904F903F902F90D8
:101060000895CF92DF92EF92FF920F931F93DF9339
:10107000CF93CDB7DEB72C970FB6F894DEBF0FBE77
:10108000CDBFC982DA82EB82FC820D831E832F835F
:10109000388749875A876B877C87DC01FE01319648
:1010A0002CE001900D922150E1F70C96C980DA8076
:1010B000EB80FC800D811E812F81388549855A8502
:1010C0006B857C850E94790C2C960FB6F894DEBF58
:1010D0000FBECDBFCF91DF911F910F91FF90EF9089
:1010E000DF90CF9008952F923F924F925F926F9230
:1010F0007F928F929F92AF92BF92CF92DF92EF92A8
:10110000FF920F931F93DF93CF93CDB7DEB72C974A
:101110000FB6F894DEBF0FBECDBF1C014B016901B5
:101120007A010E94703C2B013C01AA2497FCA094F8
:10113000BA2CC501B4010E94D1568B019C015E01FD
:101140000894A11CB11CC501B301A2010E94253D58
:10115000D101F5018CE001900D928150E1F7C101C0
:101160000C96F101C080D180E280F380048115816A
:101170002681378140855185628573850E94790C6F
:101180002C960FB6F894DEBF0FBECDBFCF91DF9186
:101190001F910F91FF90EF90DF90CF90BF90AF9095
:1011A0009F908F907F906F905F904F903F902F9087
:1011B00008950F931F938C018A509F4F6CED75E03B
:1011C0000E942545C8018D509F4F6CED75E00E942F
:1011D00025451F910F9108959F92AF92BF92CF9294
:1011E000DF92EF92FF920F931F93CF93DF93EC0167
:1011F0008C01045F1F4FC8010E940C0C6C01C801D8
:101200000E94170C5C01C8010E94120CF82EC80144
:101210000E941D0C982EFF2009F450C0B6018827AB
:1012200077FD8095982F0E94D15620E030E04AEF5C
:1012300053E40E94365620E030E04AEF53E40E9427
:10124000F3577B018C01992009F050C0B501882724
:1012500077FD8095982F0E94D15620E030E04AEF2C
:1012600053E40E94365620E030E04AEF53EC0E94EF
:10127000F357CA50DF4F0E949E569B01AC01245287
:101280003A4FCE01B9010E9425452397C801B70105
:101290000E949E569B01AC0124523A4FCE01B901E7
:1012A0000E942545DF91CF911F910F91FF90EF9004
:1012B000DF90CF90BF90AF909F900895B6018827A0
:1012C00077FD8095982F0E94D15620E030E04AEFBC
:1012D00053E40E94365620E030E04AEF53EC0E947F
:1012E000F3577B018C01992009F4B0CFB501882711
:1012F00077FD8095982F0E94D15620E030E04AEF8C
:1013000053E40E94365620E030E04AEF53E40E9456
:10131000F357AFCFCF92DF92EF92FF920F931F93CD
:101320008C016091CA107091CB108091CC1090917B
:10133000CD100E94D156F801E951FF4F2081318133
:10134000428153810E94F3576B017C016091C6106A
:101350007091C7108091C8109091C9100E94D15609
:10136000F801ED51FF4F20813181428153810E946C
:10137000F3579B01AC01C701B6010E94A255F801C9
:10138000E551FF4F20813181428153810E94F35703
:101390006B017C01C8010E94803CA70196010E945C
:1013A000A355AB01BC01C8010E94883C1F910F915D
:1013B000FF90EF90DF90CF9008952F923F924F9241
:1013C0005F926F927F928F929F92AF92BF92CF92D5
:1013D000DF92EF92FF920F931F93DF93CF9300D092
:1013E00000D0CDB7DEB76C010E948A096090C610AC
:1013F0007090C7104090CA105090CB101092C61039
:101400001092C7101092C8101092C9101092CA10F2
:101410001092CB101092CC101092CD10B3018827EF
:1014200077FD8095982F0E94D15669837A838B83AC
:101430009C83B201882777FD8095982F0E94D15612
:101440004B015C01C6018D519F4F9E838D83698145
:101450007A818B819C81ED81FE8120813181428165
:1014600053810E94F3577B018C0197EE292E312C7A
:101470002C0C3D1CC501B401F10120813181428158
:1014800053810E94F3579B01AC01C801B7010E9430
:10149000A35520E030E040E05FE30E94F357AB014A
:1014A000BC01C6010E94863F86010F5F1E4FC50129
:1014B000B401F10120813181428153810E94F357AF
:1014C0009B01AC01F80160817181828193810E944E
:1014D000A355F8016083718382839383860103504F
:1014E0001F4F69817A818B819C81ED81FE812081F2
:1014F0003181428153810E94F3579B01AC01F80175
:1015000060817181828193810E94A355F80160837B
:10151000718382839383F601E750FF4F808191812D
:10152000680E791E71826082F601E550FF4F80815E
:101530009181480E591E5182408281EF90E0C80E81
:10154000D91E8091CA109091CB10F60191838083AF
:101550008091C6109091C7109293829326960FB6F1
:10156000F894DEBF0FBECDBFCF91DF911F910F91D9
:10157000FF90EF90DF90CF90BF90AF909F908F90B3
:101580007F906F905F904F903F902F900895CF92F3
:10159000DF92EF92FF920F931F93CF93DF93EC01B3
:1015A0008C010D521F4FC8010E947C40882339F5E1
:1015B0008E0105521F4FC8010E947C408823B1F064
:1015C000C8010E949B40CE010C96C880D980EA8059
:1015D000FB800C811D812E813F81488559856A855C
:1015E0007B850E947913CE010E94EC08DF91CF9198
:1015F0001F910F91FF90EF90DF90CF900895C80159
:101600000E949B40CE010E94DD09D2CFCF92DF9293
:10161000EF92FF920F931F938C010E94133DC8011C
:101620000C960E945014C8018D529F4F6AE070E0E2
:101630000E94A840C80185529F4F68E270E00E9456
:10164000A8400D511F4F8DEC9BE2A1ECBEE3F801C9
:1016500081939193A193B1938CE89FE1A2ECBEE3B7
:1016600081939193A193B1938DEF99E6A3EABBE3A4
:1016700081939193A193B193119211928F01118251
:101680001082015F104033EFC32ED12CC00ED11E4B
:10169000C6010E940B4526EFE22EF12CE00EF11E52
:1016A000C7010E940B4507501F4FF801119211927C
:1016B0001192119280E090E0A0E0B0E081939193CC
:1016C000A193B1938F0180839183A283B38301504F
:1016D00011401092C6101092C7101092C8101092AC
:1016E000C9101092CA101092CB101092CC10109208
:1016F000CD10C8010E94EC08C70166E070E00E94AE
:101700001F46C60167E070E00E941F46C8010E94A4
:10171000D9081F910F91FF90EF90DF90CF9008951F
:10172000CF93DF93DC01BC0167587F4FFC01E15888
:10173000FF4FA358BF4F208131818D919C9111970C
:10174000AD57B040A901480F591FEB015983488399
:10175000FD01E558FF4F821B930B91838083CD01E0
:101760008F579F4F20E0141615060CF053C0EC0164
:101770002883AE57BF4F20E080819181181619064B
:101780000CF046C02C93DB012D913C91119737FD55
:101790002EC02081318137FD34C0EB0188819981D1
:1017A0008B3F910524F08AEF90E0998388838081B4
:1017B00091818B3F910524F08AEF90E091838083A3
:1017C000DB018D919C9186509F4F2CF486E09FEF1A
:1017D000EB01998388838081918186509F4F24F407
:1017E00086E09FEF91838083DF91CF9108958827D2
:1017F0009927821B930B8D939C932081318137FF16
:10180000CCCF88279927821B930B91838083C5CFE8
:1018100021E0B8CF21E0ABCFFC01E758FF4F80813A
:1018200091810895FC01EF57FF4F80810895FC01DD
:10183000E558FF4F808191810895FC01EE57FF4FDD
:101840008081089521E0FC0120A30895FC0110A2ED
:101850000895EF92FF920F931F937C0105EB13E124
:10186000C80160E072E00E94CA4FC70185960E94DD
:101870003F41C80169E072E00E94CA4FC701815B25
:101880009F4F0E943F41C80162E172E00E94AB4F4E
:10189000C7018F569F4F0E947D43C80169E172E0E6
:1018A0000E94AB4FC70184559F4F0E947D431F91FB
:1018B0000F91FF90EF900895EF92FF920F931F9377
:1018C0007C0105EB13E1C80160E272E00E94AB4FBE
:1018D000C7010E942A40C80169E272E00E94AB4F32
:1018E000C7010C960E942A401F910F91FF90EF9024
:1018F0000895CF92DF92EF92FF920F931F93DF93A1
:10190000CF93CDB7DEB72C970FB6F894DEBF0FBEDE
:10191000CDBFC982DA82EB82FC820D831E832F83C6
:10192000388749875A876B877C87DC01FE013196AF
:101930002CE001900D922150E1F7DC011C96FC0196
:101940002CE001900D922150E1F70E945C0C2C9646
:101950000FB6F894DEBF0FBECDBFCF91DF911F91C0
:101960000F91FF90EF90DF90CF900895CF93DF938A
:10197000EC018BA19CA18130910591F0029769F453
:1019800081E090E09CA38BA3CE010E945C0C85EBD0
:1019900093E163E372E00E94CA4FDF91CF91089513
:1019A00083E090E09CA38BA3CE010E945C0C85EBAE
:1019B00093E16AE372E00E94CA4F1AA219A2DF9172
:1019C000CF910895CF92DF92EF92FF920F931F93E2
:1019D000815B9F4F0E941D411F910F91FF90EF90DF
:1019E000DF90CF900895CF92DF92EF92FF920F9306
:1019F0001F9385960E941D411F910F91FF90EF90BC
:101A0000DF90CF9008952F923F924F925F926F9206
:101A10007F928F929F92AF92BF92CF92DF92EF927E
:101A2000FF920F931F93DF93CF93CDB7DEB7A497A9
:101A30000FB6F894DEBF0FBECDBF4C011E01089457
:101A4000211C311CC1010E94F33D2DB73EB72C5023
:101A500030400FB6F8943EBF0FBE2DBF29E0622E76
:101A6000712C6C0E7D1EADB7BEB71196C4010C96DD
:101A70009CA38BA3FC018CE001900D928150E1F7B7
:101A8000C301F401C080D180E280F380048115811C
:101A90002681378140855185628573850E94013E8C
:101AA000D101F30188E001900D928150E1F72DB74B
:101AB0003EB7245F3F4F0FB6F8943EBF0FBE2DBF19
:101AC000F40181A192A18130910521F1823091052B
:101AD0000CF447C28230910509F49AC1039709F4C6
:101AE000BEC0A4960FB6F894DEBF0FBECDBFCF9197
:101AF000DF911F910F91FF90EF90DF90CF90BF90FB
:101B0000AF909F908F907F906F905F904F903F909D
:101B10002F9008959FE4692E712C680C791CCE01DA
:101B20004196F401C080D180E280F3800481158168
:101B30002681378140855185628573850E944C3F9F
:101B4000C10109891A892B893C894D895E896F8970
:101B5000788D0E94673EAB01BC01C3010E94104218
:101B60002DE730E0820E931E0E949E56F401718391
:101B7000608323E83FEF820E931EF40183A194A1BA
:101B8000019709F4AEC1C1010E94E93E7B018C01BD
:101B90008BA19CA10E94803C9B01AC01C801B701B4
:101BA0000E94AD3E20E030E040E050E00E94E85767
:101BB00018160CF049C1C1010E94E93E7B018C015D
:101BC0008BA19CA10E94803C9B01AC01C801B70184
:101BD0000E94AD3E2BED3FE049EC5FE30E94E857E9
:101BE00018160CF049C1C1010E94E93E84010B5D49
:101BF0001F4F2BED3FE049E450E40E94A355AB0199
:101C0000BC01C8010E941741C4010E94803CAB0185
:101C1000BC01C8010E9410422FE730E0820E931EE3
:101C20000E949E56F4017183608321E83FEF820E8B
:101C3000931EF40163A174A1C3010E94FA41882399
:101C400009F44FCFF40163A174A1C8010E94FA41C5
:101C5000882309F446CFC4010E94B60C42CFC101CB
:101C60000E94CF3F20E030E040E050E00E94E85783
:101C700018160CF03BC1C1010E94CF3F20E030E0BC
:101C800048E452E40E94365620E030E040E050E460
:101C90000E94E85718160CF0FBC0C1010E94CF3F0C
:101CA00020E030E040E050E00E94E85718160CF0C9
:101CB0003CC1C1010E94CF3F20E030E048E452E443
:101CC0000E94365620E030E040E050E40E94E857A1
:101CD00018160CF013C10F2EF0E04F2EF0E05F2E1F
:101CE000F0E06F2EF0E47F2EF02D23E830E0820E3E
:101CF000931EF401808191812DE73FEF820E931EA8
:101D0000059754F00F2EF0E04F2EF0E05F2EF0E03C
:101D10006F2EF0E07F2EF02DC40185969AA389A343
:101D2000C4010E94803C5B016C01C1010E94E93E3C
:101D30007B018C018BA19CA10E94803C9B01AC018A
:101D4000C801B7010E94AD3EA30192010E94F35762
:101D50009B01AC01C601B5010E94A255AB01BC01BB
:101D600089A19AA10E941042EFE7F0E08E0E9F1E1B
:101D70000E949E56F4017183608321E83FEF820E3A
:101D8000931E8FE4A82EB12CA80CB91CCE01499645
:101D9000F401C080D180E280F38004811581268126
:101DA000378140855185628573850E944C3FC10112
:101DB000098D1A8D2B8D3C8D4D8D5E8D6F8D78A18B
:101DC0000E94673EAB01BC01C5010E9410422DE795
:101DD00030E0820E931E0E949E56F4017183608350
:101DE00023E83FEF820E931EF40163A174A1C501A5
:101DF0000E94FA41882309F474CEF40163A174A10E
:101E000089A19AA10E94FA41882309F46ACE23CFBE
:101E100084010B5D1F4FC4010E94803CAB01BC01DB
:101E2000C8010E9410422FE730E0820E931E0E94EC
:101E30009E56F40171836083129212924F0123E83F
:101E40003FEF820E931EFECEC1010E94E93E7B0150
:101E50008C018BA19CA10E94803C9B01AC01C8011C
:101E6000B7010E94AD3E2BED3FE049EC5FEB0E94D5
:101E70002F5688230CF4B7CEC1010E94E93EAB0176
:101E8000BC0184010B5D1F4FC8010E941741BCCEED
:101E9000C1010E94CF3F20E030E040E050E00E94CE
:101EA000E85718160CF049C0C1010E94CF3F20E04E
:101EB00030E048E452E40E9436562DEC3CEC4CEC09
:101EC0005DE30E94E85718160CF4E7CE0F2EFDECE8
:101ED0004F2EFCEC5F2EFCEC6F2EFDE37F2EF02DE1
:101EE00004CF8BA19CA10E94803CC9CFC1010E945C
:101EF000CF3F20E030E048E452ECC4CEC1010E9464
:101F0000CF3F20E030E040E050E00E94E857181654
:101F1000E4F4C1010E94CF3F20E030E048E452E405
:101F20000E9436562B013C01E0CEC1010E94CF3FFA
:101F300020E030E048E452ECC3CEC1010E94CF3F24
:101F400020E030E048E452ECB6CFC1010E94CF3F20
:101F500020E030E048E452EC0E9436562B013C0170
:101F6000C4CE892B09F0BDCD2FE730E0820E931E41
:101F7000F4011182108212921292B3CD2F923F92ED
:101F80004F925F926F927F928F929F92AF92BF9289
:101F9000CF92DF92EF92FF920F931F93DF93CF9335
:101FA000CDB7DEB764970FB6F894DEBF0FBECDBFD6
:101FB0004C01A986BA86CB86DC86ED86FE860F8725
:101FC000188B298B3A8B4B8B5C8B83E890E0880EC7
:101FD000991EF401118210828DE79FEF880E991EE1
:101FE000F40172A361A382E090E094A383A355E27D
:101FF000452E512C480C591CC2010E9437414FE418
:10200000642E712C680C791CC3010E943741F401C5
:1020100081A192A18130910509F44AC082309105D5
:102020000CF4ADC082309105D9F0039771F164963C
:102030000FB6F894DEBF0FBECDBFCF91DF911F91D9
:102040000F91FF90EF90DF90CF90BF90AF909F9057
:102050008F907F906F905F904F903F902F9008955A
:102060008401045F1F4FCE0109960E94803CAB01A2
:10207000BC01C8010E94883CC8010E94803CAB01A1
:10208000BC01C2010E941741D2CF8401045F1F4FDF
:10209000D801FE0139968CE001900D928150E1F754
:1020A000C30140E050E060E070E00E941741E4CFDF
:1020B0003CE0232E312C280C391CCE0109960E94BD
:1020C000703CAB01BC01C1010E94863F8DB79EB739
:1020D0000C970FB6F8949EBF0FBE8DBFADB7BEB7BD
:1020E0001196F1018CE001900D928150E1F75E01B3
:1020F0000894A11CB11CC501F401C080D180E2800C
:10210000F380048115812681378140855185628560
:1021100073850E94013E8401085E1F4FD801F501BE
:1021200088E001900D928150E1F78DB79EB70C9633
:102130000FB6F8949EBF0FBE8DBFCE0109960E94C8
:10214000703C20E030E040E050E00E942F568823B1
:102150001CF4C8010E94533EC8010E94FD3FC30108
:1021600040E050E060E070E00E941741C1010E9431
:10217000803CAB01BC01C2010E94174158CF892BA2
:1021800009F055CF85EB93E162E472E00E94CA4FFB
:102190004ECF6F927F928F929F92AF92BF92CF92CB
:1021A000DF92EF92FF920F931F93DF93CF93CDB700
:1021B000DEB7EC970FB6F894DEBF0FBECDBF5C0163
:1021C0004E010894811C911CC4010E94F33D8DB7FF
:1021D0009EB70C970FB6F8949EBF0FBE8DBFF9E067
:1021E0006F2E712C6C0E7D1EADB7BEB71196F5012A
:1021F0003C968CE001900D928150E1F7C301F5010E
:10220000C080D180E280F3800481158126813781EE
:1022100040855185628573850E94013ED401F3019A
:1022200088E001900D928150E1F78DB79EB70C9632
:102230000FB6F8949EBF0FBE8DBFCE014196F5013B
:10224000C080D180E280F3800481158126813781AE
:1022500040855185628573850E944C3FC401098980
:102260001A892B893C894D895E896F89788D0E94F6
:10227000673E20E030E040E050E00E942F5687FDAE
:1022800064C0E1E98E2E912C8A0C9B1CC401F501DF
:10229000C080D180E280F38004811581268137815E
:1022A00040855185628573850E948943882309F49E
:1022B00061C07CEA672E712C6A0C7B1CC301F5019E
:1022C000C080D180E280F38004811581268137812E
:1022D00040855185628573850E9489438823A1F0DA
:1022E000CE014996B3010E94D942C401C98CDA8C4F
:1022F000EB8CFC8C0D8D1E8D2F8D38A149A15AA120
:102300006BA17CA10E94E442C5010E945C0CC40147
:102310000E943843CE0185960E94133DC50160E0BE
:1023200070E0ADA0BEA0CFA0D8A4E9A4FAA40BA5EC
:102330001CA52DA53EA54FA558A90E94BE0F85EB53
:1023400093E167E472E00E94CA4FEC960FB6F894EE
:10235000DEBF0FBECDBFCF91DF911F910F91FF90D8
:10236000EF90DF90CF90BF90AF909F908F907F9035
:102370006F9008956CEA862E912C8A0C9B1CC401E8
:10238000F501C080D180E280F3800481158126812F
:10239000378140855185628573850E9489438823F2
:1023A000A1F2C5010E945C0CC4010E943843CE0119
:1023B000C1960E94133DC50160E070E0A9A8BAA8CB
:1023C000CBA8DCA8EDA8FEA80FA918AD29AD3AADA1
:1023D0004BAD5CAD0E94BE0F85EB93E167E572E00B
:1023E0000E94CA4FB2CF4F925F926F927F928F92AC
:1023F0009F92AF92BF92CF92DF92EF92FF920F9394
:102400001F93DF93CF93CDB7DEB764970FB6F894E1
:10241000DEBF0FBECDBF3C01B5E84B2E512C480EA0
:10242000591EC201F301C080D180E280F380048193
:1024300015812681378140855185628573850F2EF0
:10244000FAE98F2EF9E99F2EF9E9AF2EFEE3BF2EB0
:10245000F02D0E943F3D4DB75EB74C5050400FB637
:10246000F8945EBF0FBE4DBFADB7BEB71196F20177
:102470008CE001900D928150E1F75E010894A11C5F
:10248000B11CC501F301C080D180E280F3800481DA
:1024900015812681378140855185628573850E942B
:1024A000013E4FE750E0640E751EF301208131813B
:1024B00041E85FEF640E751E37FD17C18DE790E0B0
:1024C000680E791EF3018081918143E85FEF640E0D
:1024D000751E97FD06C1280F391F8DB79EB70C9644
:1024E0000FB6F8949EBF0FBE8DBF2233310594F016
:1024F000C5010E94CF3F20E030E040E251E40E945D
:102500002F568823F4F043E850E0640E751EF30163
:102510001182108264960FB6F894DEBF0FBECDBF55
:10252000CF91DF911F910F91FF90EF90DF90CF90AF
:10253000BF90AF909F908F907F906F905F904F90E3
:102540000895D62CC72CC3010E94803C7B018C01CE
:10255000C2010E94803C9B01AC01C801B7010E94EE
:10256000A25520E030E040E050E00E94E857181605
:102570000CF08BC0C3010E94803C7B018C01C20126
:102580000E94803C9B01AC01C801B7010E94A2558A
:102590002DEC3CEC4CE45DE30E942F5687FFB3CF5B
:1025A000A3E88A2E912C860C971CF40180819181DE
:1025B00001969183808385EB93E167E672E00E9448
:1025C000AB4F8D2D9C2D0E94803C7B018C01C20164
:1025D0000E94803C9B01AC01C801B7010E94A2553A
:1025E00020E030E040E050E00E94E85718160CF080
:1025F00064C08D2D9C2D0E94803C7B018C01C2010A
:102600000E94803C9B01AC01C801B7010E94A25509
:1026100020E030E048EC52E40E94F357A62F482F08
:10262000692F85EB93E12A2F372FE42FF62FA9018D
:10263000BF0122E030E00E941751F40180819181B6
:102640000B970CF467CFC3010E945C0C85EB93E100
:1026500067E772E00E94CA4FCE0109960E94133DBF
:10266000C30160E070E0A984BA84CB84DC84ED848B
:10267000FE840F85188929893A894B895C890E94D3
:10268000BE0FF4011182108245CFC3010E94803C2D
:102690007B018C01C2010E94803C9B01AC01C801FE
:1026A000B7010E94A2552DEC3CEC4CE45DEB0E947E
:1026B000E85718160CF027CF73CF8D2D9C2D0E9454
:1026C000803C7B018C01C2010E94803C9B01AC01DB
:1026D000C801B7010E94A25520E030E048EC52EC5E
:1026E0009BCF909581959F4FF6CE309521953F4F8A
:1026F000E5CEAF92BF92CF92DF92EF92FF920F930F
:102700001F93DF93CF93CDB7DEB72C970FB6F89416
:10271000DEBF0FBECDBF5C01C982DA82EB82FC82D4
:102720000D831E832F83388749875A876B877C8761
:10273000DC01FE0131968CE001900D928150E1F7B1
:10274000C5010E94030DC5010E94900BF50181A1F6
:1027500092A181309105B9F0892B89F42C960FB69E
:10276000F894DEBF0FBECDBFCF91DF911F910F91C7
:10277000FF90EF90DF90CF90BF90AF900895C5018C
:102780000E94F311EBCF80A18823C9F3C5010E94F9
:10279000C910F50181A192A1DFCFCF93DF93EC01A6
:1027A0006130710589F162307105C1F0672B99F4D0
:1027B00085EB93E16EE772E00E94CA4FCE01815B28
:1027C0009F4F66E970E00E940D41CE01859666E953
:1027D00070E00E940D41DF91CF91089585EB93E168
:1027E0006CE972E00E94CA4FCE01815B9F4F6AEF95
:1027F00070E00E940D41CE0185966AEF70E00E9464
:102800000D41DF91CF91089585EB93E16CE872E083
:10281000E9CFAF92BF92CF92DF92EF92FF920F93E8
:102820001F93DF93CF93CDB7DEB72C970FB6F894F5
:10283000DEBF0FBECDBF5C0160E070E00E94CD1333
:10284000CE01019640E050E06AE774EC00E010E051
:1028500020E030E0680179010E94253DC50161E07A
:1028600070E0A980BA80CB80DC80ED80FE800F8193
:10287000188529853A854B855C850E94BE0F2C966C
:102880000FB6F894DEBF0FBECDBFCF91DF911F9181
:102890000F91FF90EF90DF90CF90BF90AF90089591
:1028A0008F929F92AF92BF92CF92DF92EF92FF9260
:1028B0000F931F93DF93CF93CDB7DEB768970FB613
:1028C000F894DEBF0FBECDBF4C010E94133DC40182
:1028D0000C960E94133DC40148960E94F33DF401FA
:1028E00010A212A211A283E090E094A383A38DB75B
:1028F0009EB708970FB6F8949EBF0FBE8DBF87EAAC
:1029000097EEAEE0BEE3EDB7FEB781839283A3837B
:10291000B48387EA97EEAEE8BDE385839683A78309
:10292000B087C401859661E020E030E040E253E4E6
:102930000F2EF0E0EF2EF0E0FF2EF0E00F2FF0E092
:102940001F2FF02D570168010E94BE4080E090E0EB
:10295000ACE8B2E4EDB7FEB781839283A383B4837E
:1029600080E090E0A0EAB1E485839683A783B087F6
:10297000C401815B9F4F60E020E030E040E450E420
:102980000E94BE4089E790E0880E991EF4011192E2
:1029900011924F011182108286E090E0880E991EFC
:1029A00081E0F401819381934F01118210828DE7C0
:1029B0009FEF880E991EEDB7FEB738960FB6F894C4
:1029C000FEBF0FBEEDBFC4018B579F4F0E94133D4A
:1029D000CE01019640E050E068EC72E400E010E0C7
:1029E0002FE133EC760165010E94253DC4018F562D
:1029F0009F4F6CE370E0A980BA80CB80DC80ED80D3
:102A0000FE800F81188529853A854B855C850E945B
:102A1000A544CE010D9640E050E068EC72E400E081
:102A200010E02FE133E40F2EF0E0CF2EF0E0DF2EA8
:102A3000F0E0EF2EF0E0FF2EF02D0E94253DC401C6
:102A400084559F4F6DE370E0AD84BE84CF84D888F9
:102A5000E988FA880B891C892D893E894F89588D10
:102A60000E94A544C40160E070E00E94CD13689606
:102A70000FB6F894DEBF0FBECDBFCF91DF911F918F
:102A80000F91FF90EF90DF90CF90BF90AF909F900D
:102A90008F90089587E10E946A55019739F18091DE
:102AA000CA109091CB10A091CC10B091CD1001978D
:102AB000A109B1098093CA109093CB10A093CC10B8
:102AC000B093CD108091DA109091DB10A091DC10C2
:102AD000B091DD100197A109B1098093DA109093AC
:102AE000DB10A093DC10B093DD1008958091CA1024
:102AF0009091CB10A091CC10B091CD100196A11D5A
:102B0000B11D8093CA109093CB10A093CC10B093BA
:102B1000CD108091DA109091DB10A091DC10B09173
:102B2000DD100196A11DB11D8093DA109093DB108A
:102B3000A093DC10B093DD10089586E10E946A55E1
:102B4000019739F18091C6109091C710A091C810DB
:102B5000B091C9100196A11DB11D8093C61090932C
:102B6000C710A093C810B093C9108091D61090914F
:102B7000D710A091D810B091D9100196A11DB11D08
:102B80008093D6109093D710A093D810B093D910FB
:102B900008958091C6109091C710A091C810B0916F
:102BA000C9100197A109B1098093C6109093C7106D
:102BB000A093C810B093C9108091D6109091D710EF
:102BC000A091D810B091D9100197A109B1098093B3
:102BD000D6109093D710A093D810B093D910089521
:102BE00008959C012B5D3F4FC90108959C012F5D05
:102BF0003F4FC90108959C01275D3F4FC9010895CA
:102C00009C0125593F4FC90108959C0123553F4F11
:102C1000C90108959C0120553F4FC90108959C01A9
:102C20002D543F4FC90108959C012A5F3F4FC901B0
:102C300008959C01225E3F4FC9010895EF92FF92D3
:102C40000F931F938C0185EBE82E83E1F82EC701CB
:102C50006AEA72E00E94CA4FC70161EC72E00E940A
:102C6000AB4FF80166857785C7014AE050E00E94C6
:102C70008C4F1F910F91FF90EF900895EF92FF926C
:102C80000F931F93CF93DF93EC018EAD882341F414
:102C900080E0DF91CF911F910F91FF90EF90089509
:102CA000EAACFBAC0CAD1DAD0E947B53E616F706FB
:102CB0000807190768F71EAE81E0DF91CF911F91D9
:102CC0000F91FF90EF900895CF92DF92EF92FF92D5
:102CD0000F931F936C017B010E947B530027F7FC2D
:102CE0000095102FE60EF71E081F191FF601E2AE21
:102CF000F3AE04AF15AF81E086AF1F910F91FF9047
:102D0000EF90DF90CF900895EF92FF920F931F9373
:102D1000CF93DF93EC018D85882341F480E0DF9130
:102D2000CF911F910F91FF90EF900895E984FA845D
:102D30000B851C850E947B53E616F70608071907CA
:102D400068F71D8681E0DF91CF911F910F91FF9071
:102D5000EF900895CF92DF92EF92FF920F931F931F
:102D60006C017B010E947B530027F7FC0095102F1C
:102D7000E60EF71E081F191FF601E186F28603878B
:102D8000148781E0858785EB93E160ED72E00E9416
:102D9000AB4F1F910F91FF90EF90DF90CF90089570
:102DA000AF92BF92CF92DF92EF92FF920F931F9359
:102DB000CF93DF93EC010E947B535B016C01EC84A9
:102DC000FD840E851F85CE010E947C40882359F426
:102DD000DF91CF911F910F91FF90EF90DF90CF90F7
:102DE000BF90AF900895CE010E949B40B5016E192F
:102DF0007F09882777FD8095982F0E94D1567B0107
:102E00008C0120E030E040E050E00E94E8571816C6
:102E1000FCF68889882339F56091E2107091E310FF
:102E20008091E4109091E5100E94D15620E030E0AE
:102E300048EC52E40E94F357A80197010E943656CD
:102E4000688779878A879B871092E2101092E31037
:102E50001092E4101092E5100E947B536C877D87DE
:102E60008E879F87B5CF6091DE107091DF108091C3
:102E7000E0109091E1100E94D15620E030E048EC43
:102E800052E40E94F357A80197010E9436566887C2
:102E900079878A879B871092DE101092DF1010923C
:102EA000E0101092E110D8CFFF920F931F938C0186
:102EB000F62E64E670E00E94A840F801F08A1F91A7
:102EC0000F91FF9008956CED75E00E9425450895DF
:102ED000FC018485882331F4CF0168E077E00E940B
:102EE00025450895CF0168EE73E00E9425450895B9
:102EF0006CED75E00E9425450895FC0184858823CA
:102F000031F4CF0160EB74E00E9425450895CF01B4
:102F100060ED77E00E9425450895FC0183818823B8
:102F200031F4CF016AEF75E00E9425450895CF0185
:102F300066EF74E00E9425450895FC018381882393
:102F400031F4CF0168EB76E00E9425450895CF016A
:102F500060E274E00E9425450895FC018381882386
:102F600031F4CF016CE974E00E9425450895CF014A
:102F700060E476E00E94254508956CE474E00E94C8
:102F80002545089562ED75E00E94254508956FE09E
:102F900077E00E942545089564E276E00E94254589
:102FA00008956EED73E00E942545089567EE77E081
:102FB0000E9425450895CF93DF93EC018E859F8570
:102FC0008330910509F486C084309105CCF08530BA
:102FD000910509F457C08530910554F5CE0160E2A2
:102FE00073E00E94AA16CE0103960E94C71785EBD4
:102FF00093E16CE473E00E94CA4FDF91CF91089592
:103000008130910509F450C0823091052CF1CE0138
:1030100060E273E00E94AA16CE010E94BD1785EB04
:1030200093E16BE173E00E94CA4FDF91CF91089565
:103030000697D9F7CE0160E273E00E94AA16CE018E
:1030400003960E94CC1785EB93E160E873E00E9441
:10305000CA4FDF91CF910895892B39F7CE0103969E
:103060000E94C717CE010E94C217CE0106960E9489
:10307000D11785EB93E16EED72E00E94CA4FDF91AC
:10308000CF910895CE0160E273E00E94AA16CE01AE
:1030900006960E94D11785EB93E166E673E00E94E5
:1030A000CA4FDF91CF910895CE0160E273E00E9494
:1030B000AA16CE0103960E94CC17CE0106960E9456
:1030C000D61785EB93E16DEF72E00E94CA4FDF9156
:1030D000CF910895CE0160E273E00E94AA16CE015E
:1030E0000E94C21785EB93E163E373E00E94CA4F2D
:1030F000DF91CF9108950F931F93CF93DF938C01AE
:10310000EB0185EB93E16CE973E00E94CA4F85EB1C
:1031100093E16DE973E00E94AB4F85EB93E1BE0153
:103120004AE050E00E948C4FCE010197029708F4CC
:1031300079C0209709F450C085EB93E164E074E016
:103140000E94AB4FF8016685778585EB93E14AE0F5
:1031500050E00E948C4FF801868597858330910559
:1031600009F474C08430910584F08530910509F428
:1031700076C0853091050CF044C0CD2B41F585E03B
:1031800090E0F801978786870EC08130910509F499
:103190006FC082309105ECF1CD2BC9F483E090E053
:1031A000F8019787868785EB93E164E274E00E94DB
:1031B000AB4FF8016685778585EB93E14AE050E0F7
:1031C0000E948C4FF8011586C8010E94DB17DF9121
:1031D000CF911F910F91089585EB93E16BEB73E015
:1031E0000E94CA4F85EB93E162EE73E00E94AB4F01
:1031F00085EB93E160E070E04AE050E00E948C4F84
:103200009BCF069721F7CD2B11F7F801178616866D
:10321000CACF892BE1F6C130D105C9F6F801D787AD
:10322000C687C1CF85EB93E16BEB73E00E94CA4F79
:1032300085EB93E16DEB73E00E94AB4F85EB93E17F
:10324000BE014AE050E00E948C4F73CFCD2B09F0B5
:10325000BECF84E090E0F80197878687A4CF2297BD
:1032600009F0B5CF86E090E0F801978786879BCF7D
:10327000CD2B09F0ACCF82E090E0F80197878687EC
:1032800092CF0F931F93CF93DF938C01EC01609645
:10329000CE010E947C40882329F4DF91CF911F91B9
:1032A0000F910895CE010E949B40C8010E94841690
:1032B000882399F3C80160E070E00E947B18DF91D9
:1032C000CF911F910F9108956AE377E00E94254501
:1032D000089564E276E00E9425450895FC0180810E
:1032E000882339F4CF0101966AE678E00E942545EB
:1032F0000895CF0101966DE574E00E94254508957B
:10330000FC018081882339F4CF01019665E977E0DB
:103310000E9425450895CF01019661EE74E00E9458
:1033200025450895FC018081882339F4CF01019659
:1033300061EA75E00E9425450895CF01019668E68F
:1033400077E00E9425450895FC018081882339F4A7
:10335000CF01019663E974E00E9425450895CF01ED
:1033600001966AE177E00E9425450895FC0180817D
:10337000882339F4CF01019669E477E00E9425455E
:103380000895CF0101966DE674E00E9425450895E9
:10339000CF93DF93EC01EF96E881F981EF97E73166
:1033A000F105E0F4EE58FF4FEE0FFF1F0590F4918A
:1033B000E02D1994CF5BDF4F8881C154D040882322
:1033C00009F481C184E690E0988B8F8781E08E8735
:1033D00085EB93E162E976E00E94CA4FDF91CF91DD
:1033E0000895CE0168EC70E00E946416CE0101964B
:1033F0000E949D17CE0143960E946E19CE014796FA
:103400000E94A41985EB93E164E776E00E94CA4F1D
:10341000E5CFCE0168EC70E00E946416CE014396C1
:103420000E949219CE0147960E94B61985EB93E14E
:1034300063E576E00E94CA4FD1CFCE0101960E948B
:103440009D178FEF9FEF988B8F8781E08E8785EB9D
:1034500093E162E376E00E94CA4FC0CFCE0168ECF0
:1034600070E00E946416CE0101960E94AD1785EBB4
:1034700093E163E176E00E94CA4FB0CFCE0168ECE1
:1034800070E00E94641685EB93E164EF75E00E94A2
:10349000CA4FA4CF84E690E0988B8F8781E08E8717
:1034A00085EB93E163ED75E00E94CA4F97CFCE01A3
:1034B00068EC70E00E946416CE0101960E949D1790
:1034C00085EB93E162EB75E00E94CA4F87CF188AC3
:1034D0001F8681E08E8785EB93E161E975E00E94AC
:1034E000CA4F7CCFCE0168EC70E00E946416CE011A
:1034F00043960E946E19CE0147960E94A419CE01F0
:1035000001960E948D1785EB93E160E775E00E94BC
:10351000CA4F64CFCE0168EC70E00E946416CE0101
:1035200043960E946E19CE0147960E94A41985EB1E
:1035300093E163E575E00E94CA4F50CFCE0168EC7D
:1035400070E00E94641685EB93E168E375E00E94E9
:10355000CA4F44CFCE0168EC70E00E946416CE01E1
:1035600043960E949219CE0147960E94B61985EBA8
:1035700093E161E275E00E94CA4F30CF8FEF9FEF79
:10358000988B8F8781E08E8785EB93E168E075E00B
:103590000E94CA4F23CFCE0168EC70E00E946416EF
:1035A000CE0101960E949D1785EB93E16FEE74E0CA
:1035B0000E94CA4F13CF188A1F8681E08E8785EB41
:1035C00093E16AED74E00E94CA4F08CFCE0168EC27
:1035D00070E00E946416CE0101960E948D17CE0104
:1035E00043960E94801985EB93E163EC74E00E949E
:1035F000CA4FF4CECE0168EC70E00E946416CE0192
:1036000001960E948D1785EB93E16BEA74E00E94AE
:10361000CA4FE4CECE0168EC70E00E94641685EBE0
:1036200093E161E974E00E94CA4FD8CECE0168EC04
:1036300070E00E94641685EB93E16DE774E00E94F0
:10364000CA4FCCCECE0168EC70E00E946416CE0169
:1036500043960E949219CE0147960E94B61985EBB7
:1036600093E16BE674E00E94CA4FB8CECE0168ECDD
:1036700070E00E946416CE0143960E946E19CE013E
:1036800047960E94A41985EB93E163E574E00E94DC
:10369000CA4FA4CECE0101960E949D178FEF9FEFD7
:1036A000988B8F8781E08E87CE0143960E94921976
:1036B000CE0147960E94B61985EB93E160E474E071
:1036C0000E94CA4F8BCE188A1F8681E08E8780CEDB
:1036D000EF92FF920F931F93CF93DF937C01EB0147
:1036E00085EB93E16CE973E00E94CA4F85EB93E1AF
:1036F00060EB76E00E94AB4F85EB93E1BE014AE0C0
:1037000050E00E948C4FC130D10561F0C330D1052B
:1037100049F0C430D10531F0C530D10519F0C630BB
:10372000D10599F485EB93E16BEB73E00E94CA4FEE
:1037300085EB93E163ED76E00E94AB4F85EB93E17F
:10374000BE014AE050E00E948C4F209709F454C01B
:10375000C730D10509F46DC085EB93E161E677E0F0
:103760000E94AB4F8701015C1F4FF801608171819E
:1037700085EB93E14AE050E00E948C4F85EB93E1AA
:1037800066E877E00E94AB4FF70164A975A985EB65
:1037900093E14AE050E00E948C4FF8012081318192
:1037A000F9012731310508F5E757FF4FEE0FFF1FED
:1037B0000590F491E02D1994CD2BB9F4F801118204
:1037C000108285EB93E169E977E00E94AB4FF80145
:1037D0006081718185EB93E14AE050E00E948C4F5B
:1037E000F70116AEC7010E94C819DF91CF911F9152
:1037F0000F91FF90EF90089585EB93E16BEB73E0F1
:103800000E94CA4F85EB93E16DEF76E00E94AB4FCB
:1038100085EB93E160E070E04AE050E00E948C4F5D
:103820009BCF279711F781E190E0F8019183808386
:10383000C8CF85EB93E16BEB73E00E94CA4F85EB39
:1038400093E16FE277E00E94AB4F85EB93E167E095
:1038500070E04AE050E00E948C4F7ECFCD2B29F6DD
:1038600083E090E0F80191838083ABCFC230D10533
:1038700009F4A4CF239709F0B8CF82E090E0F801D3
:10388000918380839ECFC130D10509F4B2C02497C3
:1038900009F0ABCF8BE090E0F8019183808391CF6A
:1038A000CD2B09F0A2CF8EE090E0F80191838083C8
:1038B00088CFCD2B09F099CFB6CFCD2B09F095CF7E
:1038C000F70184A995A904970CF497C021E430E08E
:1038D000E20EF31EF70180812FEB3FEFE20EF31EA5
:1038E000882309F490C08DE090E0F80191838083F3
:1038F00068CFCD2B09F079CF86E190E0F801918374
:1039000080835FCF279709F070CF8AE090E0F801BD
:103910009183808356CF279709F067CF8FE090E09F
:10392000F801918380834DCF259709F05ECF82E126
:1039300090E0F8019183808344CFCD2B09F055CFDF
:10394000F70184A995A9019695AB84AB26E030E0F8
:10395000F8013183208304970CF433CF85E090E0A5
:10396000918380832ECFCD2B09F03FCF84E090E070
:10397000F8019183808325CFCD2B09F036CF89E0E4
:1039800090E0F801918380831CCF279709F02DCF19
:1039900088E090E0F8019183808313CFCD2B09F06C
:1039A00024CF87E090E0F801918380830ACF2697A7
:1039B00009F01BCF83E190E0F80191838083F70148
:1039C00015AA14AA2331310509F0FBCE0ECFCD2B59
:1039D00009F00BCF80E190E0F80191838083F1CE74
:1039E000279709F002CF84E190E0F801918380836A
:1039F000E8CEF801D183C083E4CE85E190E0F80100
:103A000091838083DECE8CE090E0F8019183808307
:103A1000D8CE6CED75E00E94254508956CED75E0FB
:103A20000E942545089564ED74E00E94254508959F
:103A300068EE73E00E942545089563E875E00E94F2
:103A4000254508950F931F938C01039660ED77E051
:103A50000E942545C80160ED77E00E9425451F9131
:103A60000F9108950F931F938C01039668EE73E0F6
:103A70000E942545C80168EE73E00E9425451F910C
:103A80000F910895FC018081882339F4CF010196BC
:103A900064EC77E00E9425450895CF0101966CE81B
:103AA00075E00E9425450895FC018081882339F442
:103AB000CF0101966DE674E00E9425450895CF017F
:103AC000019661E478E00E94254508950F931F93C5
:103AD0008C0103966CE677E00E942545C80164EDF1
:103AE00074E00E9425451F910F9108950F931F9335
:103AF0008C01039665E478E00E942545C80160E3E7
:103B000074E00E9425451F910F910895CF93DF9394
:103B1000EC018985882341F08A859B852FEF8F3FB3
:103B2000920781F0892B19F0DF91CF910895CE0192
:103B300003960E94F6448823E9F4CE010E94681798
:103B40001D86F2CFCE0106960E94F6448823F9F036
:103B5000CE010E946317198681E08D878C858823AA
:103B6000D9F01092D2101092D3101092D41010925B
:103B7000D510DACFCE010E94631785EB93E16AE09E
:103B800078E00E94CA4F198681E08D87CDCFCE01A3
:103B90000E947D171D86C8CF1092CE101092CF10B4
:103BA0001092D0101092D110BFCF0F931F93CF93CC
:103BB000DF93EC018C01055E1F4FC8010E94D016F7
:103BC000CE0105960E94861DC8010E94D0168E0166
:103BD000045D1F4FC8010E947C40882329F4DF91B7
:103BE000CF911F910F910895C8010E949B40CE0173
:103BF0000E943E16882371F48A89882381F31A8AE9
:103C0000CE0167E070E00E94681BDF91CF911F91A9
:103C10000F910895CE0160E070E00E94681BECCF28
:103C2000EF92FF920F931F93CF93DF93EC0189964E
:103C30000E94D51DCE0185599F4F0E94D51D8E0132
:103C40000A5F1F4FC8010E9441199FE9E92EF12C1C
:103C5000EC0EFD1EF701808191811816190634F4CF
:103C6000FE01E154FF4F80818823B9F58E01035A8C
:103C70001F4FF801808191811816190634F4FE0156
:103C8000E254FF4F8081882339F4DF91CF911F9157
:103C90000F91FF90EF9008951082CE014E960E94F2
:103CA000641985EB93E161E678E00E94AB4FF8017F
:103CB0006081718185EB93E14AE050E00E948C4F76
:103CC00085EB93E169E878E00E94CA4FDF91CF91DC
:103CD0001F910F91FF90EF9008951082C80162E04C
:103CE00070E00E947B1885EB93E163E178E00E942D
:103CF000AB4FF7016081718185EB93E14AE050E0C1
:103D00000E948C4F85EB93E16BE378E00E94CA4FF1
:103D1000ADCFCF93DF93EC018C85882369F585EBDC
:103D200093E169E479E00E94CA4F85EB93E16AE68A
:103D300079E00E94AB4FCE0106960E94F644682FB0
:103D400085EB93E170E04AE050E00E948C4F85EBF8
:103D500093E169E879E00E94AB4FCE0103960E949F
:103D6000F644682F85EB93E170E04AE050E00E9452
:103D70008C4FDF91CF91089585EB93E16FEA78E066
:103D80000E94CA4F85EB93E164EE78E00E94AB4F4E
:103D9000CE0106960E94F644682F85EB93E170E011
:103DA0004AE050E00E948C4F85EB93E167E179E0B7
:103DB000D2CF05960E94891E08951F93CF93DF935B
:103DC000EC01162F0E940B451B83112391F4CE01A9
:103DD00069E270E00E941F4685EB93E16CEB79E0AD
:103DE0000E94CA4FCE010E949D17DF91CF911F9173
:103DF0000895CE016AE270E00E941F4685EB93E1D0
:103E000067EA79E00E94CA4FCE010E949D17DF91B8
:103E1000CF911F9108950F931F93182F092F0E9480
:103E20000B45812F902F68E270E00E941F46812F82
:103E3000902F0E94C21785EB93E161ED79E00E941B
:103E4000CA4F1F910F9108950F931F93182F092F99
:103E50000E940B45812F902F67E270E00E941F4661
:103E6000812F902F0E94C71785EB93E165EE79E0D3
:103E70000E94CA4F1F910F9108950F931F93182FFF
:103E8000092F0E940B45812F902F66E270E00E945F
:103E90001F46812F902F0E94D11785EB93E16BEF86
:103EA00079E00E94CA4F1F910F9108950F931F93BD
:103EB0008C010E940B1FC80103960E94241FC80199
:103EC00006960E943D1FF801158617861686C801C2
:103ED000409664E670E00E94A84085EB93E16AE0BA
:103EE0007AE00E94CA4F1F910F9108950F931F937C
:103EF000182F092F0E940B45812F902F65E270E04B
:103F00000E941F46812F902F0E94691985EB93E133
:103F10006DE17AE00E94CA4F1F910F910895EF92D0
:103F2000FF921F93CF93DF937C01162FEC01219614
:103F3000CE010E940B45F70110831123A1F4CE019D
:103F400060E270E00E941F4685EB93E16AE47AE04C
:103F50000E94CA4FC7010E949219DF91CF911F9111
:103F6000FF90EF900895CE0161E270E00E941F463D
:103F700085EB93E160E37AE00E94CA4FEBCFEF92CA
:103F8000FF921F93CF93DF937C01162FEC012196B4
:103F9000CE010E940B45F70110831123A1F4CE013D
:103FA0006EE170E00E941F4685EB93E16EE77AE0D8
:103FB0000E94CA4FC7010E94B619DF91CF911F918D
:103FC000FF90EF900895CE016FE170E00E941F46D0
:103FD00085EB93E164E67AE00E94CA4FEBCF0F9342
:103FE0001F93182F092F0E940B45812F902F6FE0F0
:103FF00070E00E941F46812F902F0E940E1D85EBBE
:1040000093E168E97AE00E94CA4F1F910F910895E9
:104010000F931F93182F092F0E940B45812F902F6C
:1040200064E270E00E941F46812F902F0E941D1DA8
:1040300085EB93E162EA7AE00E94CA4F1F910F91EB
:104040000895EF92FF920F931F938C010E940B45EE
:1040500023E0E22EF12CE00EF11EC7010E940B4579
:10406000C70163E270E00E941F46C80162E270E08F
:104070000E941F46C8010E94321D85EB93E16EEA43
:104080007AE00E94CA4F1F910F91FF90EF90089520
:10409000EF92FF921F93CF93DF937C01162FEC01D9
:1040A0002196CE010E940B45F70110831123A1F444
:1040B000CE0160E170E00E941F4685EB93E16CEC5D
:1040C0007AE00E94CA4FC7010E94541DDF91CF9130
:1040D0001F91FF90EF900895CE0161E170E00E9482
:1040E0001F4685EB93E169EB7AE00E94CA4FEBCF64
:1040F000EF92FF920F931F938C010E940B4543E0B8
:10410000E42EF12CE00EF11EC7010E940B45C70101
:1041100064E370E00E941F46C80162E370E00E9401
:104120001F46C8010E94761D85EB93E16FED7AE092
:104130000E94CA4F1F910F91FF90EF900895CF9268
:10414000DF92EF92FF921F93CF93DF93EC01162F34
:104150007A0169010E940B45CE010396B7010E94C6
:10416000EB44CE010696B6010E94EB441D861C87E7
:10417000112341F5CE0168E170E00E941F4685EBF6
:1041800093E167E07BE00E94CA4FCE010E947D1759
:1041900068EC70E080E090E00E94B053CE010E9495
:1041A000681764E670E080E090E00E94B053CE01B2
:1041B0000E947817DF91CF911F91FF90EF90DF90D1
:1041C000CF900895CE0169E170E00E941F4685EB13
:1041D00093E166EF7AE00E94CA4FD7CFCF92DF9289
:1041E000EF92FF921F93CF93DF93EC01162F7A018A
:1041F000690101960E94DD1ECE010596612FA7017F
:1042000096010E949F20CE014396612F0E948F1F2E
:10421000CE014796612F0E94BF1FCE014B96612FA2
:104220000E945417CE018C9662E370E00E94A84071
:104230001DAA1CAA18AE19AE1EAEEF9619921992BD
:104240001882C154D04018831FAA1EAA1123A1F4BA
:1042500085EB93E16AE37BE00E94CA4F8FEF9FEF0B
:10426000988B8F8781E08E87DF91CF911F91FF9090
:10427000EF90DF90CF90089585EB93E168E17BE0CC
:104280000E94CA4FEBCF0F931F938C010E9478209E
:10429000C80106960E94561FC8014E960E94761FBE
:1042A000C801819660E00E944820C801859661E0BF
:1042B0000E944820C801899660E04BE150E029E067
:1042C00030E00E94EE20C80185599F4F61E04DE12A
:1042D00050E02CE130E00E94EE20C80183559F4F52
:1042E0000E94EF1FC80180559F4F0E940820C801FF
:1042F0008D549F4F0E94212002541F4F81E0F801EE
:104300008193808385EB93E16CE57BE00E94CA4F4B
:104310001F910F910895CB01089582EF90E16AE01B
:1043200070E00E94EB4485EF90E16EE070E00E9447
:10433000EB4488EF90E16BE070E00E94EB448BEF80
:1043400090E16CE070E00E94EB4408958091E810E9
:104350009091E9100E94143A8091EA109091EB102C
:104360000E94C70A8091E6109091E7100E94101EEB
:1043700061E070E080E090E00E94B05308958F9279
:104380009F92AF92BF92CF92DF92EF92FF920F93E4
:104390001F9325EFC22E20E1D22EC6010E94F044C9
:1043A00098EFA92E90E1B92EC5010E94F0448BEF41
:1043B000882E80E1982EC4010E94F04483E160E0E1
:1043C0000E94725482E160E00E94725483E161E0D5
:1043D0000E94345582E161E00E94345586E160E03C
:1043E0000E94725487E160E00E94725486E161E0AD
:1043F0000E94345586E161E00E94345585E06DE904
:1044000075E143E050E00E942A5184E06AE475E1DE
:1044100043E050E00E942A5182E061E00E94725421
:1044200083E061E00E94725482E060E00E943455B3
:1044300083E060E00E94345584E061E00E947254A1
:1044400085E061E00E94725484E060E00E9434558F
:1044500084E060E00E94345505EB13E1C80140E8B8
:1044600055E260E070E00E94A84BC80167E97BE07C
:104470000E94CA4FC80165EA7BE00E94CA4F80ECE7
:1044800090E00E94294EF82EE92E0E944321F092DE
:10449000E610E092E710C80168EB7BE00E94CA4F8B
:1044A00085E091E00E94294EF82EE92E0E94060B2D
:1044B000F092EA10E092EB10C80160EC7BE00E9401
:1044C000CA4F8BE490E00E94294EF82EE92E6091AD
:1044D000EA107091EB104091E6105091E7100E94A5
:1044E0001C29F092E810E092E910C8016BEC7BE027
:1044F0000E94CA4FC80160EE7BE00E94CA4FC8010B
:1045000061EE7BE00E94CA4F82E090E09093ED1054
:104510008093EC101092EE101092EF101092F010A9
:104520001092F110C8016AEF7BE00E94CA4FC801E7
:1045300064E07CE00E94AB4F82EF90E10E94F64481
:10454000682FC80170E04AE050E00E948C4FC8011B
:104550006FE07CE00E94AB4FC6010E94F644682FDA
:10456000C80170E04AE050E00E948C4FC8016CE145
:104570007CE00E94AB4FC5010E94F644682FC80141
:1045800070E04AE050E00E948C4FC80169E27CE094
:104590000E94AB4FC4010E94F644682FC80170E02E
:1045A0004AE050E00E948C4F1F910F91FF90EF90D6
:1045B000DF90CF90BF90AF909F908F900895FC01B7
:1045C00081E790E1918380830895FC01A081B1810E
:1045D00016978D919C918E0F9F1F0E94F022089537
:1045E000FC018FE590E19183808381E790E19783DF
:1045F00086830895DC0113968D919C911497892BE5
:1046000091F01596ED91FC91169717968D919C91CE
:104610001897E817F90739F0819190E01696FC9306
:10462000EE9315970895ED91FC9111970488F58903
:10463000E02DCD0119950895FC0189E990E1918360
:1046400080830895CF93DF93EC01E881F98102889C
:10465000F389E02D19959C018FEF2F3F380729F042
:104660008D819E8101969E838D83C901DF91CF91BB
:104670000895CB010895DC0113968D919C911497B8
:10468000892B71F01596ED91FC91169717968D91E7
:104690009C911897E817F90719F0808190E0089528
:1046A000ED91FC9111970288F389E02DCD011995C8
:1046B00008958FEF9FEF089580E090E008950895AA
:1046C0000895DC01242FED91FC910084F185E02D0B
:1046D00041E01995089580E090E00895FC01228959
:1046E000338980899189281B390B86899789281BF2
:1046F000390BC9010895CF92DF92EF92FF920F9389
:104700001F93CF93DF93EC016B0179018A01AE898E
:10471000BF89688979898A899B89861B970BA81725
:10472000B90778F020E030E040E050E0B901CA017C
:10473000DF91CF911F910F91FF90EF90DF90CF907D
:104740000895121613061406150664F720E030E0EB
:1047500040E050E0F601E20FF31F6A0F7B1FDB0120
:104760008C9180832F5F3F4F4F4F5F4FAE89BF8942
:104770001196BF8BAE8B688979898A899B89861B44
:10478000970BA817B90790F62E153F05400751075C
:104790006CF6E0CFFC0126893789A089B18982892E
:1047A00093898A1B9B0B2817390738F4A20FB31F74
:1047B0008C91282F30E0C90108952FEF3FEFC901F8
:1047C0000895CF93DF93EC01E881F9810288F389A2
:1047D000E02D19959C018FEF2F3F380729F08E8926
:1047E0009F8901969F8B8E8BC901DF91CF91089590
:1047F000CF93DF93DC0156964D915C91579741150D
:10480000510511F15096CD91DC91519752962D9111
:104810003C9153972C1B3D0B24173507B0F18FEFBC
:104820006F3F7807B9F0FE01E40FF51F31978081E3
:104830008617E1F44150504057965C934E9356973B
:10484000CB01DF91CF9108956FEF7FEFCB01DF9127
:10485000CF9108954150504057965C934E93569790
:1048600060E070E0CB01DF91CF9108951F968C91AD
:104870001F9784FFE9CFCA01019757969C938E93A7
:104880005697C80FD91F6883DBCF57963C932E935A
:1048900056976FEF7FEFD4CF80E090E0089580E0EF
:1048A00090E0089580E090E0089580E090E0089521
:1048B00060E070E080E090E008956F927F929F92B8
:1048C000AF92BF92CF92DF92EF92FF920F931F931E
:1048D000CF93DF93EC013B0159016A0112161306D5
:1048E000140615060CF050C0EE24FF24870117C0F3
:1048F000EB85FC858D859E85E817F90748F5908244
:104900008B859C8501969C878B870894E11CF11C04
:10491000011D111DEA14FB040C051D05ACF5F30186
:10492000EE0DFF1D90808F8580FFE2CFE881F98139
:104930000084F185E02DCE0160E070E044E020E1EC
:104940001995EB85FC858D859E85E817F907B8F2EA
:10495000E881F981028CF38DE02DCE01692D70E0A4
:1049600019958F5F9F4F89F6B701C801DF91CF91ED
:104970001F910F91FF90EF90DF90CF90BF90AF907D
:104980009F907F906F90089586017501EDCFCB01C8
:104990000895FC01A081B18116978D919C918E0F95
:1049A0009F1F0E94D4240895FC018FE590E191831C
:1049B000808381E790E197838683CF010E94264E12
:1049C0000895FC0181E790E191838083CF010E94EB
:1049D000264E0895FC0189E990E191838083CF01FF
:1049E0000E94264E0895CF93DF93EC0189E790E172
:1049F00099838883288939898C899D8982179307AF
:104A000019F0C9010E94540289E990E199838883D1
:104A1000CE010E94264EDF91CF910895CF93DF9370
:104A2000EC0189E790E199838883288939898C8909
:104A30009D898217930719F0C9010E94540289E9E0
:104A400090E199838883DF91CF910895FC01A08143
:104A5000B18116978D919C918E0F9F1F0E943125D9
:104A60000895CF93DF93EC0187E390E199838883E6
:104A70000A9699A388A389E790E19F838E832E8964
:104A80003F898A8D9B8D8217930719F0C9010E9477
:104A9000540289E990E19F838E83E0912B10F0917D
:104AA0002C10F983E88336970190F081E02DEC0F0C
:104AB000FD1F80912D1090912E109183808381E7AE
:104AC00090E199A388A3CE010E94264EDF91CF9159
:104AD0000895FC01A081B18116978D919C918E0F54
:104AE0009F1F0E9474250895CF93DF93EC0187E305
:104AF00090E1998388830A9699A388A389E790E136
:104B00009F838E832E893F898A8D9B8D8217930781
:104B100019F0C9010E94540289E990E19F838E83B4
:104B2000E0912B10F0912C10F983E88336970190D7
:104B3000F081E02DEC0FFD1F80912D1090912E1033
:104B40009183808381E790E199A388A3DF91CF913E
:104B50000895AF92BF92CF92DF92EF92FF920F93A0
:104B60001F93CF93DF936C01DC011296ED91FC91C2
:104B700013974D915C91DF01A41BB50BCB016A1714
:104B80007B0708F4CD015C010894A11CB11CA114A1
:104B9000B104C9F5EE24FF248F01041B150BC701D6
:104BA000BA01A8010E94D702E701C00FD11F81E01E
:104BB00090E0BE010E948B21FC0110821882F60158
:104BC00020813181848195818217930719F0C90171
:104BD0000E945402D6011196FC92EE921396DC9339
:104BE000CE931297AE0CBF1C1596BC92AE92149742
:104BF000DF91CF911F910F91FF90EF90DF90CF90B9
:104C0000BF90AF900895C5010E94AA01009779F066
:104C10007C01D6011296ED91FC9113974D915C9118
:104C2000BBCF1995C5010E94AA01009789F7E091B1
:104C3000FE10F091FF103097A1F780E090E00E9405
:104C40006E59FF920F931F93CF93DF938C01F62E33
:104C5000DC0112962D913C911397E901219614964F
:104C60008D919C911597C817D907E9F081E090E0E4
:104C7000BE010E948B21FC0110821882D80112967D
:104C8000ED91FC911397F08212968D919C91139760
:104C9000019613969C938E931297DF91CF911F915B
:104CA0000F91FF9008958D919C91F901E81BF90BEC
:104CB000CF0171F461E070E0680F791FC8010E94B4
:104CC000A925D8011296CD91DC9113972196CECFCC
:104CD000BF01F2CF0F931F93CF93DF938C01EB01B2
:104CE0008FEF6F3F780741F4C0E0D0E0CE01DF9155
:104CF000CF911F910F910895D8011F968C9184FF39
:104D00001AC0F801208D318D0088F189E02DD8017D
:104D100052968D919C9153978E1B9F0B28173907A4
:104D200068F4E20FF31F6083F801808D918D019686
:104D3000918F808FDBCFCFEFDFEFD8CFC8014096C8
:104D40000E942126F1CFDF92EF92FF920F931F93E3
:104D5000CF93DF93EC017B01D42E88819981EA8186
:104D6000FB81E81BF90BAB014E0F5F1F2C813D81CE
:104D700021503040281B390B2417350740F4EE161C
:104D8000FF06A0F16E0F7F1FCE010E94A925E1143E
:104D9000F10419F12A813B81C90101962E0D3F1DB5
:104DA000281B390B6D2D70E0A9010E94E9020A81D0
:104DB0001B810E0D1F1D81E090E0B8010E948B2128
:104DC000FC011082F8011082EA81FB81D0828A8185
:104DD0009B818E0D9F1D9B838A83CE01DF91CF9196
:104DE0001F910F91FF90EF90DF900895BF01CACF00
:104DF0000F931F93CF93DF93EC0130E0C9018871CB
:104E00009070489709F486C0C9018870907020712D
:104E10003070413009F455C04230B1F1AA89BB89E4
:104E2000E889F989AD014E1B5F0B8B01040F151F3B
:104E300040175107F0F1892B11F01F8B0E8B232B9C
:104E4000E1F09D012E1B3F0B2017310708F042C0F7
:104E5000B801621B730BCE01409640E00E94A3266E
:104E6000888999892A893B89281B390B8E899F89D2
:104E70002817390710F43F8B2E8BB801CB01DF9137
:104E8000CF911F910F91089521153105C9F500E0CB
:104E900010E0E889F989AA89BB89009721F00E8979
:104EA0001F89060F171FAD014E1B5F0B40175107DF
:104EB00010F66FEF7FEFCB01DF91CF911F910F9134
:104EC00008958B01E889F989AA89BB89AD014E1B38
:104ED0005F0BAECFE00FF11FAE17BF0739F28C9119
:104EE0008083EA1BFB0B8A899B898E0F9F1F9B8BFC
:104EF0008A8B28893989AC01421B530B9A01B6CFA2
:104F0000AA89BB89E889F9898D010E1B1F0B060F41
:104F1000171FC3CF423009F077CFCBCF8F929F922C
:104F2000BF92CF92DF92EF92FF920F931F93CF9396
:104F3000DF936C017B01DC01ED91FC9136970190D0
:104F4000F081E02DE80FF91FC189D2892097F9F08F
:104F5000E881F98136970190F081E02DEC0FFD1F7B
:104F6000A389B489ED91FC9111970484F585E02D16
:104F7000CD0119958F5F9F4F09F4BFC0D601ED9108
:104F8000FC9136970190F081E02DEC0DFD1D838999
:104F900094890E943B23BFEF8F3F9B0709F48CC08D
:104FA0000E942C59892B09F09AC0D601ED91FC91F1
:104FB000369720813181F601E20FF31F83889488B0
:104FC000D701ED91FC91119712968D919C911397B9
:104FD000E817F90771F010828D919C911197139643
:104FE0009C938E931297D601ED91FC913697208178
:104FF0003181F9013296EC0DFD1D22853385448502
:1050000055851286138614861586E901211531050A
:1050100009F0C6C00EEF1FEF1EC081E090E0BE0198
:105020000E948B21FC0110821882D7011296ED910B
:10503000FC911397B08212962D913C9113972F5F9C
:105040003F4F13963C932E9312970115110509F4C7
:1050500092C001501040C4010E94FA22BFEF8F3F5E
:105060009B0709F4A3C0B82E992787FD90950E944D
:105070002C59892B09F04DC0F70122813381E901B8
:10508000219684819581C817D90739F6808191814D
:10509000A901481B590BCA0109F080C061E070E00A
:1050A000680F791FC7010E94A925D7011296CD91DB
:1050B000DC9113972196B1CFD601ED91FC913697F3
:1050C0000190F081E02DEC0DFD1D2581322F326025
:1050D00083899489892B09F490C0358366CFD601E2
:1050E000ED91FC9136970190F081E02DEC0DFD1DC6
:1050F000838994890E94FA2241CFE881F981369709
:105100000190F081E02DEC0FFD1F258121602583AA
:1051100035CFF401238134812115310551F085818A
:1051200096812817390729F0FC018291B81609F4F5
:105130006FC0D401ED91FC910688F789E02DC40180
:105140006B2D70E019958F5F9F4F91F4D601ED9113
:10515000FC9136970190F081E02DEC0DFD1D25812D
:10516000322F346083899489892B09F449C03583AF
:10517000F70122813381F701808191812817390756
:1051800051F1C601DF91CF911F910F91FF90EF90E8
:10519000DF90CF90BF909F908F900895BA0180CFFD
:1051A000C701B9010E94A9258E0153CFD601ED9107
:1051B000FC9136970190F081E02DEC0DFD1D2581CD
:1051C000322F326083899489892B59F13583F70115
:1051D00022813381D0CFD601ED91FC913697019099
:1051E000F081E02DEC0DFD1D2581322F3460838987
:1051F0009489892BF1F03583C4CF23602583D5CEE4
:1052000025602583D70112962D913C911397B3CF3A
:10521000D4011696FC93EE931597F7012281338102
:10522000AACF23602583D70112962D913C91139725
:10523000A2CF25602583A5CFCF92DF92EF92FF9278
:105240000F931F93CF93DF93EC017B016A0162E31D
:1052500070E00E94A840198618861B861A861D8653
:105260001C861F861E8688E090E00E94AA01009797
:1052700009F4BDC08A879B878C879D878A859B851B
:1052800008969F878E870C851D8581E090E0B80188
:105290000E948B21FC011082F8011082BE01695E20
:1052A0007F4F41E250E01FAA18AE86E090E0A0E0F8
:1052B000B0E089AF9AAFABAFBCAFED96199219923F
:1052C0001992199280E2899319821882C254D040AF
:1052D0005DAB4CABCC5BDF4F79836883C454D0406B
:1052E0001EAACA5BDF4F1882C654D040E0912B1033
:1052F000F0912C10FA8BE98B9E012F5E3F4F369771
:105300000190F081E02DE20FF31F80912D1090911C
:105310002E10918380831B8A1C8A1D8A1E8AE9892C
:10532000FA8936970190F081E02DE20FF31F548344
:105330004383748B638B1582158A87E390E19A8B84
:10534000898B0A969AAB89AB1B8E1A8E1D8E1C8E8A
:105350001F8E1E8E19A218A21BA21AA21DA21CA289
:105360001EA289E790E1988F8F8B18A61FA21AA61C
:1053700019A61CA61BA688E090E00E94AA0100972F
:1053800009F447C08FA398A789A79AA78FA198A5CA
:1053900008969CA78BA709A51AA581E090E0B80103
:1053A0000E948B21FC011082F80110821EA61DA60E
:1053B00018AA1FA688E08EA3C95BDF4FE992F99275
:1053C000D982C882C954D04081E0888BDF91CF91C7
:1053D0001F910F91FF90EF90DF90CF900895199556
:1053E00088E090E00E94AA01009709F043CFE09185
:1053F000FE10F091FF10309791F780E090E00E944E
:105400006E59199588E090E00E94AA01009709F072
:10541000B9CFE091FE10F091FF10309791F7EDCFEA
:105420008F929F92AF92BF92CF92DF92EF92FF92B4
:105430000F931F93CF93DF937C018B016A01DC01F3
:105440004D915C91119712962D913C911397241BCD
:10545000350BE601C61BD70B2C173D0708F075C0AE
:10546000CA01A9010E94CE02D7011296ED91FC91CA
:1054700013976D917C911197AF01461B570B580103
:10548000A40EB51ECA14DB0409F451C0E601CA1902
:10549000DB099E01240F351F14968D919C91159761
:1054A0000197861B970B8217930708F081C09A011A
:1054B0002F5F3F4FCE01C431D10508F463C04901CD
:1054C000880E991E8114910409F065C0CC24DD2456
:1054D0008F01061B170BC601A8010E94D7020C0DF5
:1054E0001D1DC801B501AE010E94D702C00FD11F1A
:1054F00081E090E0BE010E948B21FC0110821882A5
:10550000D7012D913C91119714968D919C911597EF
:105510008217930719F0C9010E945402F701D18242
:10552000C082D383C2838C0C9D1C95828482C70168
:10553000DF91CF911F910F91FF90EF90DF90CF906F
:10554000BF90AF909F908F900895CA01AE010E94C6
:10555000CE02D701ED91FC911197EC0FFD1F129631
:105560000D90BC91A02DEA17FB0709F38C91808365
:10557000EA1BFB0BE7018A819B818E0F9F1F9B8398
:105580008A83D5CF84E190E04901880E991E811469
:10559000910409F49BCFC4010E94AA010097C1F1B4
:1055A0006C01F701608171810280F381E02D90CF61
:1055B000B5016F5F7F4FC61AD70ACF010196A601CA
:1055C0000E94D702D70112960D911C9113970C0FD0
:1055D0001D1F81E090E0B8010E948B21FC01108228
:1055E000F8011082D7011296ED91FC911397D50125
:1055F0008C918083F701828193818C0F9D1F93830F
:10560000828395CF1995C4010E94AA01009741F6A3
:10561000E091FE10F091FF103097A1F780E090E04C
:105620000E946E593F924F925F926F927F928F923B
:105630009F92AF92BF92CF92DF92EF92FF920F9321
:105640001F93DF93CF93CDB7DEB728970FB6F894AB
:10565000DEBF0FBECDBF3C018AE0482E512C460C68
:10566000571CCE01019698878F8385EB93E10E94AA
:10567000374C181619062CF4F301808591854C9748
:10568000C4F028960FB6F894DEBF0FBECDBFCF9101
:10569000DF911F910F91FF90EF90DF90CF90BF901F
:1056A000AF909F908F907F906F905F904F903F90C2
:1056B000089585EB93E10E94694C382EFAE08F172C
:1056C00009F445C1D3011C960D911C911D971A96A2
:1056D0008D919C911B97081B190B0E5F1F4F1A820F
:1056E00019821C821B821E821D82BFEF0F3F1B0787
:1056F00071F00115110509F00BC180E090E09A836B
:1057000089839C838B83080F191F1E830D830B8154
:105710001C8181E090E0B8010E948B21FC01108285
:10572000F8011082D3011A968D909C901B971C96BD
:10573000ED91FC911D978E169F0609F403C14B81D4
:105740005C8169817A81DA01A61BB70B6F01C818E9
:10575000D90896012A0F3B1F8D819E810197861BD8
:10576000970B8217930708F079C09D012F5F3F4F79
:10577000C601B4E1CB16D10410F484E190E05901E4
:10578000A80EB91EA114B10409F0A7C0EE24FF248D
:105790008A01061B170BC701A8010E94D7020E0D34
:1057A0001F1DC801B401A6010E94D7020C0D1D1DCA
:1057B00081E090E0B8010E948B21FC011082F80189
:1057C000108229813A818D819E818217930719F079
:1057D000C9010E945402FA82E9821C830B83AE0C39
:1057E000BF1CBE82AD82A8018A010F5F1F4F8D8151
:1057F0009E810817190709F45CC081E090E0B801A8
:105800000E948B21FC011082F8011082EB81FC8147
:1058100030824B815C814F5F5F4F5C834B838F8114
:1058200098858415950529F069817A81C2010E94C5
:10583000102A29813A818D819E818217930719F060
:10584000C9010E945402D30118968D919C91199719
:10585000019619969C938E93189707CFB4016F5FAA
:105860007F4FE61BF70BCA010196AF010E94D702DA
:105870000B811C810C0D1D1D81E090E0B8010E9480
:105880008B21FC011082D8011C92EB81FC81D40198
:105890008C9180834B815C814C0D5D1D5C834B83BF
:1058A0008A010F5F1F4F8D819E810817190709F02C
:1058B000A4CF89819A818A01081B190B09F045C080
:1058C00061E070E0600F711FCE0101960E94A92572
:1058D0000B811C810F5F1F4F90CFC5010E94AA0151
:1058E000009761F07C014B815C8169817A8150CFA6
:1058F0001995C5010E94AA010097A1F7E091FE1039
:10590000F091FF103097A1F780E090E00E946E596F
:10591000C8010E94AA01009709F0F1CEE091FE10A3
:10592000F091FF10309781F31995C8010E94AA01E8
:10593000009709F0E4CEE091FE10F091FF1030974F
:1059400099F7E2CF4B815C814FCFB801BBCF85EB9C
:1059500093E166E37CE00E94CA4FD30118968D91D3
:105960009C911997181619060CF5F301108A85EB0E
:1059700093E163E47CE00E94AB4FD3011A966D91F2
:105980007C911B9785EB93E10E94AB4F85EB93E1F4
:1059900061E57CE00E94AB4FF3016085718585EB8A
:1059A00093E14AE050E00E948C4F6BCE81E050962C
:1059B0008C93DDCFAF92BF92CF92DF92EF92FF92A6
:1059C0000F931F93DF93CF93CDB7DEB762970FB6D8
:1059D000F894DEBF0FBECDBF7C015B01DC01ED9111
:1059E000FC9136970190F081E02DE80FF91F0189B5
:1059F00012890115110501F1D801ED91FC9136973D
:105A00000190F081E02DE00FF11FA389B489ED91A1
:105A1000FC9111970484F585E02DCD0119958F5FD8
:105A20009F4F09F480C1D701ED91FC913697019009
:105A3000F081E02DEE0DFF1D838994890E943B23A8
:105A4000BFEF8F3F9B0709F4DDC00E942C59892BC3
:105A500009F0EBC01A8219821C821B821E821D82F1
:105A600088E090E00E94AA018C01009709F4C0C070
:105A70001A8309831C830B83085F1F4F1E830D83CA
:105A80000850104081E090E0B8010E948B21FC0199
:105A90001082F8011082D701ED91FC9136970190A8
:105AA000F081E02DEE0DFF1D838185FFCCC01886AF
:105AB0001F821A8619861C861B8688E090E00E9449
:105AC000AA01009709F419C18F83988789879A875B
:105AD0008F81988508969C878B8709851A8581E038
