:100000000C9464010C9437440C9468440C94994407
:100010000C94CA440C94FB440C942C450C945D4500
:100020000C948E450C9491010C9491010C949101C7
:100030000C9491010C9491010C9491010C949101F8
:100040000C9491010C94B2380C9491010C94910190
:100050000C9491010C9491010C9491010C94BF4566
:100060000C9491010C94EC3B0C94383D0C94910150
:100070000C9491010C9491010C9491010C949101B8
:100080000C941B3B0C9491010C9491010C949101E4
:100090000C942C3C0C94773D0C9491010C949101A0
:1000A0000C9491010C9491010C944B3A0C94910195
:1000B0000C9491010C9491010C9491010C9482394F
:1000C0000C9491010C9491010C9491010C946C3C52
:1000D0000C94B63D0C9491010C94AC3C0C94F53D01
:1000E0000C949101C513B2139F13941389137A13BF
:1000F0006313581349133C1329131E130B13F412E3
:10010000E912DA12CD12C212B312A31290127912AE
:100110006212B614A914A11421150C1551143C1522
:1001200033152A15F1145114D014CC14C314FA1435
:1001300054158414031545155D155114E8148414E1
:1001400005A84CCDB2D44EB93836A9020C50B9919D
:100150008688083CA6AAAA2ABE000000803F0000AC
:100160002100240027002A002D0030003300010167
:100170000000040107010A010000220025002800F8
:100180002B002E003100340002010000050108019F
:100190000B01000020002300260029002C002F0066
:1001A00032000001000003010601090105050505F3
:1001B000070508080808020202020A0A08080404DF
:1001C000040401010101010101010303030303030D
:1001D0000303040707070C0C0C0C0C0C0C0C02029C
:1001E000020206060606060606060B0B0B0B0B0B99
:1001F0000B0B010210202008081020401020408026
:1002000002010201080402010102040810204080DA
:100210008040201008040201800402018040201068
:1002200008040201080402010102040810204080B1
:1002300001020408102040800000090A02080B0C8B
:100240000D0706030401000000000000000000008C
:10025000000000000000000000000000000000009E
:100260000000000011100F0000000000000000005E
:1002700000000000000000000000000000006364B7
:10028000696E6F70737578585B00494E46494E49E8
:1002900054594E414ECDCCCC3D0AD7233C17B7D153
:1002A0003877CC2B329595E6241FB14F0A000020F9
:1002B000410000C84200401C4620BCBE4CCA1B0E78
:1002C0005AAEC59D7400683F11241FBECFEFD1E226
:1002D000DEBFCDBF00E00CBF1FE0A0E0B2E0E2EE69
:1002E000F7E900E00BBF02C007900D92AE37B107EF
:1002F000D9F71BBE13E1AEE7BFE001C01D92A030ED
:10030000B107E1F712E0C8ECD2E004C02297FE0189
:100310000E94A94BC63CD107C9F70E949E400C948D
:10032000EF4B0C940000CF93DF93BC01823091051A
:1003300010F462E070E0A091FC12B091FD12ED01AA
:10034000E0E0F0E040E050E021C08881998186172C
:10035000970769F48A819B81309719F09383828390
:1003600004C09093FD128093FC12FE0134C0681704
:10037000790738F44115510519F08417950708F4E9
:10038000AC01FE018A819B819C01E9012097E9F67D
:1003900041155105A9F1CA01861B970B049708F472
:1003A000BA01E0E0F0E02AC08D919C91119784178A
:1003B0009507F9F46417750781F412968D919C9155
:1003C0001397309719F09383828304C09093FD12A2
:1003D0008093FC12FD0132964CC0CA01861B970B1C
:1003E000FD01E80FF91F6193719302978D939C9320
:1003F00040C0FD01828193819C01D9011097A1F633
:100400008091FA129091FB12892B41F48091DC0EBD
:100410009091DD0E9093FB128093FA124091DE0EC4
:100420005091DF0E4115510541F44DB75EB78091F3
:10043000DA0E9091DB0E481B590B2091FA12309185
:10044000FB12CA01821B930B8617970780F0AB0142
:100450004E5F5F4F8417950750F0420F531F509324
:10046000FB124093FA12F9016193719302C0E0E02C
:10047000F0E0CF01DF91CF910895CF93DF93009704
:1004800009F450C0EC0122971B821A82A091FC1241
:10049000B091FD12109709F140E050E0AC17BD0794
:1004A00008F1BB83AA83FE0121913191E20FF31F72
:1004B000AE17BF0779F48D919C911197280F391FC2
:1004C0002E5F3F4F3983288312968D919C9113970D
:1004D0009B838A834115510571F4D093FD12C0931B
:1004E000FC1220C012968D919C911397AD0100973C
:1004F00011F0DC01D3CFFA01D383C2832191319172
:10050000E20FF31FCE17DF0769F488819981280F66
:10051000391F2E5F3F4FFA01318320838A819B81EF
:1005200093838283DF91CF910895662777270C9478
:100530009D05FC0188279927E89421912032E9F351
:10054000293010F02E30C8F32B3241F02D3239F41F
:10055000689404C00E94E602820F911D21912053ED
:100560002A30C0F31EF4909581959F4F0895FB01AA
:10057000DC0104C08D910190801921F4415050405C
:10058000C8F7881B990B0895FB01DC0102C001909C
:100590000D9241505040D8F708956817790768F4D4
:1005A000FB01DC01E40FF51FA40FB51F02C0029090
:1005B0000E9241505040D8F708950C94C402DC01CB
:1005C00001C06D9341505040E0F708957AE0979F45
:1005D000902D879F802D910D11240895AEE0B0E0FD
:1005E000E4EFF2E00C94C84B85E08C838C899D8904
:1005F0009A8389839E01285E3F4FCE0101966E89C2
:100600007F89A9010E948C042E96E2E00C94E44BB1
:10061000FC0120FD08C023FD05C022FF02C073833A
:100620006283518340830895EF92FF920F931F934B
:1006300044FF02C033E011C046FF02C034E00DC0E9
:10064000DB01FC01AA0FBB1FEE1FFF1F1094D1F7A7
:100650006A0F7B1F8E1F9F1F31E0660F771F881F59
:10066000991F3150D1F77B018C01E20EF11C011D65
:10067000111DA8019701B701CA011F910F91FF90A9
:10068000EF9008950F931F93CF93DF938C01C801D0
:100690000E942007EC0197FD08C00E94AD4B892BFA
:1006A000B1F7CE01B8010E946207CE01DF91CF9170
:1006B0001F910F910895A0E0B0E0E1E6F3E00C9403
:1006C000C04BEC01C62E5A01122F0E942007AC012C
:1006D0008B3219F08D3251F41068CA9409F46DC050
:1006E000CE010E942007AC0197FD67C06DEFD62EAA
:1006F000D1228D2D807301F54033F1F4CA9409F4B1
:1007000047C0CE010E942007AC0197FD41C082E0A6
:10071000D82A483711F0483559F480E4D82ACA94C9
:10072000B9F1CE010E942007AC0199232CF430C00E
:10073000D6FC02C080E1D82AEE24FF248701242FB2
:100740002053283088F0D4FC09C02A3068F0D6FE47
:1007500005C02F7D822F8151863028F0CA01BE014D
:100760000E94620712C02750C801B7014D2D0E9498
:1007700014037B018C0182E0D82ACA9461F0CE0177
:100780000E942007AC0197FFDACFD1FC04C015C04E
:10079000EE24FF248701D7FE08C010950095F09441
:1007A000E094E11CF11C011D111DC501B801A70158
:1007B0002D2D0E94080381E001C080E0CDB7DEB797
:1007C000EAE00C94DC4BA0E2B0E0E9EEF3E00C943C
:1007D000BC4B6C01A62E8A017901FE01319680E2A4
:1007E000DF011D928A95E9F770E030E060E040E0BB
:1007F00050E04F01A1E0B0E0F6018381F70183FDF5
:10080000259183FF21917F01222309F47EC02E359B
:1008100019F44115510569F1872F90E08417950768
:1008200044F42D3551F12D3221F4332329F431E0F4
:1008300021C0332309F4622F322F832F86958695AA
:100840008695F401E80FF11D832F87703D0102C0EA
:10085000660C771C8A95E2F72081262920833617BB
:1008600011F430E007C0361710F43F5FE6CF315087
:10087000E4CF71E04F5F5F4FBFCF332319F08E811C
:1008800080628E83772359F0FE0131969E012F5DA1
:100890003F4F808180958193E217F307D1F7BB2406
:1008A000B3944E010894811C911CC6010E9420073C
:1008B000AC0197FD22C0869586958695F401E80FD8
:1008C000F11D808190E09A012770307002C09595EB
:1008D00087952A95E2F780FD05C0CA01B6010E94FE
:1008E00062070BC00115110519F0D8014D938D0158
:1008F000AA94BB24AA20C9F602C0BB2031F401157A
:10090000110529F0F801108202C0EE24FF24C7016E
:10091000A096EEE00C94D84BA0E0B0E0E2E9F4E061
:100920000C94BC4B5C016B013A01FC0117821682EE
:100930008824EAC0812F90E00E94AD4B892B21F0E2
:10094000C5010E944203E0C0153249F4F601F3FCF0
:100950006591F3FE61916F01653269F415E2C5019D
:100960000E94200797FDDCC0181709F4CDC0B5011F
:100970000E946207DAC06A3219F0162F00E006C042
:10098000F3FC1591F3FE11916F0101E099240FC062
:100990000260692D70E080E090E040E20E94140364
:1009A000962EF601F3FC1591F3FE11916F01212FA4
:1009B00020532A3068F301FD03C099249A9403C0A0
:1009C000992009F4B2C0183621F01C3699F4F601CA
:1009D0000BC0F601F3FC6591F3FE6191683619F0E6
:1009E0006F01162F07C008600460F3FC1591F3FE39
:1009F00011916F01112309F498C08EE792E0612FE5
:100A000070E00E94FD06892B09F48FC0802F00FF43
:100A100003C0EE24FF2407C0F301E080F18022E050
:100A200030E0620E731E1E3651F4F5014681578187
:100A300060E070E0C701202F0E94080365C01336F4
:100A400091F481FD02C099249394C5010E9420076E
:100A500097FD66C0E114F10419F0F70181937F015D
:100A60009A9499F74FC01B3559F4C501692DA70118
:100A700096010E94E3036C01009709F043C03DC05A
:100A8000C5010E94420397FD4BC01F3659F1103734
:100A900028F4143629F1193639F527C0133719F01F
:100AA000153711F51DC0C5010E942007EC0197FD07
:100AB00011C00E94AD4B892B29F0CE01B5010E94D7
:100AC000620708C0E114F10419F0F701C1937F0136
:100AD0009A9449F7E114F104A9F0F701108212C0C9
:100AE000006203C0006101C00064C501692DA70157
:100AF000202F0E945B03882329F4F50183818073F2
:100B000079F413C000FF8394F501F380F601F3FC40
:100B10001591F3FE11916F01112309F00BCF05C060
:100B2000882019F42FEF3FEF02C0282D30E0C901D3
:100B3000CDB7DEB7EEE00C94D84BA0E0B0E0E3EA2E
:100B4000F5E00C94BE4BEC015B016115710519F0E9
:100B5000FB0191838083F9908F2D90E00E94AD4B33
:100B6000892BC9F7FDE2FF1621F4F990EE24E394F6
:100B700005C02BE2F21609F4F990EE248E01015023
:100B80001040C8016AE872E043E050E00E940807A4
:100B9000892B01F58E010E5F1F4FC8016DE872E0D1
:100BA00045E050E00E940807892B19F48E01095F87
:100BB0001F4FA114B10419F0F50111830083E0FC6B
:100BC00004C070E090E080E814C070E090E080E83D
:100BD0006FEF08C1C80162E972E043E050E00E9493
:100BE0000807892B69F4A114B10429F470E090E09E
:100BF00080EC6FE7F7C02296F501D183C083F6CF72
:100C00008824992440E050E060E070E0EF2DE0534C
:100C1000EA30A0F5F2E0EF2A8E2D90E09C012870DA
:100C20003070E2FE06C0232B79F50894811C911CDC
:100C30002BC0232B19F0089481089108DB01CA010D
:100C400012E0880F991FAA1FBB1F1A95D1F7480FF2
:100C5000591F6A1F7B1F440F551F661F771F4E0FBA
:100C6000511D611D711D483929E9520729E96207A3
:100C700029E1720748F084E0E82A06C0EE3F31F42B
:100C8000E3FC39C098E0E92AF990C0CFE53311F0D0
:100C9000E53189F529912D3219F4E0E1EE2A05C0FC
:100CA0002B3219F081E090E003C0299182E090E0BE
:100CB000E22FE053EA3018F0C81BD90B1CC020E02B
:100CC00030E0FCE020383F075CF4C901880F991F31
:100CD000880F991F280F391F220F331F2E0F311D28
:100CE000E991E053EA3068F3E4FE03C030952195C2
:100CF0003F4F820E931ECE2CDD24E1FE07C0A114CF
:100D0000B10421F02197F501D183C083CB01BA0151
:100D10000E9433497B018C01F3E0CF22DD2423E0E4
:100D2000C216D10421F417FB109517F9109557013D
:100D30006801C801B70120E030E040E050E00E94C7
:100D40009348882309F44AC097FE0DC029EAE22E91
:100D500022E0F22E9094819491089394C0E2D0E026
:100D600000E010E012C091ECE92E92E0F92EF6CFEF
:100D7000F7012591359145915491C601B5010E9425
:100D8000504A5B016C018C1A9D0A8C169D0684F7F3
:100D9000D595C7950F5F1F4F0630110529F08CEFD1
:100DA0009FEFE80EF91EF1CFC501D6017C018D0140
:100DB0008C2D880F8D2D881F8F3F51F0C601B501F6
:100DC00020E030E040E050E00E949348882331F476
:100DD00082E290E09093FF128093FE127E2D9F2D71
:100DE000802F612F272F392F482F562FB901CA0185
:100DF000CDB7DEB7ECE00C94DA4BFC01059006169B
:100E000021F00020D9F7C00108953197CF0108954E
:100E1000FB01DC014150504088F08D9181341CF081
:100E20008B350CF4805E659161341CF06B350CF4ED
:100E3000605E861B611171F3990B0895881BFCCFCE
:100E4000CF93DF93EC014B8140FF1AC046FF0AC0ED
:100E50004F7B4B838E819F8101969F838E838A81F6
:100E6000282F2BC042FF13C0E881F9818081282FF1
:100E7000332727FD30952115310529F440624B8336
:100E80002FEF3FEF1BC03196F983E88311C0EA854D
:100E9000FB85CE0119959C0197FF0AC09B812F5FAE
:100EA0003F4F11F080E201C080E1892B8B83E8CFB6
:100EB0008E819F8101969F838E8330E0C901DF91EF
:100EC000CF9108959C01FB01838180FF11C086FDB5
:100ED0000FC09FEF2F3F390759F0228380648F7D29
:100EE00083838681978101979783868330E002C050
:100EF0002FEF3FEFC90108959C01245F3F4FC901C7
:100F00000895FC01E350FF4F80E090E0A0E0B0E0E6
:100F100081939193A193B19380839183A283B383AF
:100F20000895FC01E350FF4F2081318142815381BC
:100F3000B901CA010895FC01EF5FFE4F20813181A4
:100F400042815381B901CA010895FC01E750FF4F66
:100F5000808191810895FC01E550FF4F808191814E
:100F60000895FC01E550FF4F1182108212921292F7
:100F700008952F923F924F925F926F927F928F923D
:100F80009F92AF92BF92CF92DF92EF92FF920F9318
:100F90001F93DF93CF93CDB7DEB72C970FB6F8949E
:100FA000DEBF0FBECDBF1C014B0169017A010E945B
:100FB00039342B013C01AA2497FCA094BA2CC5011A
:100FC000B4010E943549AB01BC015E010894A11C2B
:100FD000B11CC501930182010E949F34D101F5012A
:100FE0008CE001900D928150E1F7C1010C96F10166
:100FF000C080D180E280F380048115812681378111
:1010000040855185628573850E948D0A2C960FB6A6
:10101000F894DEBF0FBECDBFCF91DF911F910F912E
:10102000FF90EF90DF90CF90BF90AF909F908F9008
:101030007F906F905F904F903F902F900895CF9248
:10104000DF92EF92FF920F931F93DF93CF93CDB771
:10105000DEB72C970FB6F894DEBF0FBECDBFC982A6
:10106000DA82EB82FC820D831E832F8338874987C7
:101070005A876B877C87DC01FE0131962CE001905A
:101080000D922150E1F70C96C980DA80EB80FC804C
:101090000D811E812F81388549855A856B857C8518
:1010A0000E948D0A2C960FB6F894DEBF0FBECDBFFE
:1010B000CF91DF911F910F91FF90EF90DF90CF9034
:1010C00008952F923F924F925F926F927F928F92EC
:1010D0009F92AF92BF92CF92DF92EF92FF920F93C7
:1010E0001F93DF93CF93CDB7DEB72C970FB6F8944D
:1010F000DEBF0FBECDBF1C014B0169017A010E940A
:1011000031342B013C01AA2497FCA094BA2CC501D0
:10111000B4010E9435498B019C015E010894A11C19
:10112000B11CC501B301A2010E949F34D101F50198
:101130008CE001900D928150E1F7C1010C96F10114
:10114000C080D180E280F3800481158126813781BF
:1011500040855185628573850E948D0A2C960FB655
:10116000F894DEBF0FBECDBFCF91DF911F910F91DD
:10117000FF90EF90DF90CF90BF90AF909F908F90B7
:101180007F906F905F904F903F902F9008950F93B6
:101190001F9309E512E1C80160E072E00E94374246
:1011A0008AE00E94F647BC01C8014AE050E00E9474
:1011B0001842C8016BE072E00E9437428EE00E9444
:1011C000F647BC01C8014AE050E00E941842C8013D
:1011D00065E172E00E9437428BE00E94F647BC0155
:1011E000C8014AE050E00E940542C80162E272E094
:1011F0000E9437428CE00E94F647BC01C8014AE0D9
:1012000050E00E9405421F910F9108950F931F9384
:101210008C018A509F4F6CED75E00E94B137C80178
:101220008D509F4F6CED75E00E94B1371F910F916B
:1012300008959F92AF92BF92CF92DF92EF92FF926A
:101240000F931F93CF93DF936C01EC012C96CE018B
:101250000E94270A182F092FCE010E94320AAC01E2
:10126000212F302FC9017C01853691051CF024E621
:10127000E22EF12C5A01453651051CF094E6A92EB8
:10128000B12CCE010E942D0A182FCE010E94380ADF
:10129000982E112309F459C0C70164E670E00E943A
:1012A0005E4B84EF91E09B01289FB001299F700D58
:1012B000389F700D1124882777FD8095982F0E9404
:1012C00035497B018C01992009F043C0C5016CE9C7
:1012D0007FEF0E945E4B84EF91E09B01289FB0015D
:1012E000299F700D389F700D1124882777FD8095F8
:1012F000982F0E94354926EF30E0C20ED31E0E947F
:1013000002499B01AC0124523A4FC601B9010E9427
:10131000B1378DEF9FEFC80ED91EC801B7010E94EB
:1013200002499B01AC0124523A4FC601B9010E9407
:10133000B137DF91CF911F910F91FF90EF90DF9028
:10134000CF90BF90AF909F900895C7016CE97FEF59
:10135000A6CFC50164E670E0BCCFCF92DF92EF92DA
:10136000FF920F931F938C010E948D34C8010C963D
:101370000E94750CC8018D529F4F6AE070E00E9478
:101380004F36C80185529F4F68E270E00E944F3689
:101390000D511F4F82E094E4ADEABEE3F801819362
:1013A0009193A193B1938EE29BEDACEABEE381935E
:1013B0009193A193B1938EEC9CE0AFE4BCE3819355
:1013C0009193A193B193119211928F011182108286
:1013D000015F104063EFC62ED12CC00ED11EC60196
:1013E0000E94973756EFE52EF12CE00EF11EC70153
:1013F0000E94973707501F4FF801119211921192D6
:10140000119280E090E0A0E0B0E081939193A193ED
:10141000B1938F0180839183A283B38301501140E4
:10142000C8010E941909C70166E070E00E94AB384C
:10143000C60167E070E00E94AB38C8010E9406094F
:101440001F910F91FF90EF90DF90CF900895FC01D6
:10145000E758FF4F808191810895FC01EF57FF4FBE
:1014600080810895FC01E558FF4F808191810895A6
:10147000FC01EE57FF4F80810895EF92FF920F938A
:101480001F937C0109E512E1C8016CE472E00E943F
:101490005642C70185960E94E636C80165E572E0AE
:1014A0000E945642C701815B9F4F0E94E636C801E9
:1014B0006EE572E00E943742C7018F569F4F0E942F
:1014C0002537C80165E672E00E943742C70184559E
:1014D0009F4F0E9425371F910F91FF90EF90089525
:1014E000EF92FF920F931F937C0109E512E1C8016F
:1014F0006CE672E00E943742C7010E94D135C801F4
:1015000065E772E00E943742C7010C960E94D13510
:101510001F910F91FF90EF900895CF92DF92EF927D
:10152000FF920F931F93DF93CF93CDB7DEB72C9726
:101530000FB6F894DEBF0FBECDBFC982DA82EB8250
:10154000FC820D831E832F83388749875A876B87D8
:101550007C87DC01FE0131962CE001900D92215038
:10156000E1F7DC011C96FC012CE001900D9221506A
:10157000E1F70E94700A2C960FB6F894DEBF0FBEFA
:10158000CDBFCF91DF911F910F91FF90EF90DF9032
:10159000CF900895CF92DF92EF92FF920F931F9317
:1015A000815B9F4F0E94C4361F910F91FF90EF9077
:1015B000DF90CF900895CF92DF92EF92FF920F933A
:1015C0001F9385960E94C4361F910F91FF90EF9054
:1015D000DF90CF9008952F923F924F925F926F923B
:1015E0007F928F929F92AF92BF92CF92DF92EF92B3
:1015F000FF920F931F93DF93CF93CDB7DEB764971E
:101600000FB6F894DEBF0FBECDBF4C01A986BA86D7
:10161000CB86DC86ED86FE860F87188B298B3A8B6E
:101620004B8B5C8B83E890E0880E991EF40111824D
:1016300010828DE79FEF880E991EF40172A361A3BB
:1016400082E090E094A383A375E2472E512C480CCE
:10165000591CC2010E94DE366FE4662E712C680CA4
:10166000791CC3010E94DE36F40181A192A1813070
:10167000910509F44AC0823091050CF4ADC0823066
:101680009105D9F0039771F164960FB6F894DEBF17
:101690000FBECDBFCF91DF911F910F91FF90EF90C3
:1016A000DF90CF90BF90AF909F908F907F906F9082
:1016B0005F904F903F902F9008958401045F1F4FDB
:1016C000CE0109960E944134AB01BC01C8010E94C1
:1016D0004934C8010E944134AB01BC01C2010E94DF
:1016E000BE36D2CF8401045F1F4FD801FE01399668
:1016F0008CE001900D928150E1F7C30140E050E091
:1017000060E070E00E94BE36E4CF5CE0252E312C14
:10171000280C391CCE0109960E943134AB01BC0162
:10172000C1010E942D358DB79EB70C970FB6F89466
:101730009EBF0FBE8DBFADB7BEB71196F1018CE055
:1017400001900D928150E1F75E010894A11CB11C3B
:10175000C501F401C080D180E280F380048115814D
:101760002681378140855185628573850E94C73403
:101770008401085E1F4FD801F50188E001900D92A9
:101780008150E1F78DB79EB70C960FB6F8949EBFC7
:101790000FBE8DBFCE0109960E94313420E030E0AB
:1017A00040E050E00E94934888231CF4C8010E9446
:1017B0001935C8010E94A435C30140E050E060E043
:1017C00070E00E94BE36C1010E944134AB01BC01F1
:1017D000C2010E94BE3658CF892B09F055CF89E54A
:1017E00092E16EE872E00E9456424ECFCF93DF93B3
:1017F000EC016130710519F16230710589F0672BD8
:1018000061F4815B9F4F64E170E00E94B436CE01C9
:10181000859664E170E00E94B436DF91CF9108951F
:10182000815B9F4F6CE370E00E94B436CE018596D9
:101830006CE370E00E94B436DF91CF910895815B34
:101840009F4F68E270E00E94B436CE01859668E250
:1018500070E00E94B436DF91CF910895AF92BF92AD
:10186000CF92DF92EF92FF920F931F93DF93CF936C
:10187000CDB7DEB72C970FB6F894DEBF0FBECDBF45
:101880005C0160E070E00E94F60BCE01019640E042
:1018900050E06AE774EC00E010E020E030E068011E
:1018A00079010E949F34C50161E070E0A980BA808F
:1018B000CB80DC80ED80FE800F81188529853A85FC
:1018C0004B855C850E94EB0A2C960FB6F894DEBF20
:1018D0000FBECDBFCF91DF911F910F91FF90EF9081
:1018E000DF90CF90BF90AF9008958F929F92AF926C
:1018F000BF92CF92DF92EF92FF920F931F93DF93ED
:10190000CF93CDB7DEB768970FB6F894DEBF0FBEA2
:10191000CDBF4C010E948D34C4010C960E948D34C1
:10192000C40148960E94B934F40110A212A211A277
:1019300083E090E094A383A38DB79EB708970FB67A
:10194000F8949EBF0FBE8DBF87EA97EEAEE0BEE370
:10195000EDB7FEB781839283A383B48387EA97EEC2
:10196000AEE8BDE385839683A783B087C4018596DF
:1019700061E020E030E046E953E40F2EF0E0EF2E86
:10198000F0E0FF2EF0E00F2FF0E01F2FF02D0F2ED4
:10199000F0E0AF2EF0E0BF2EF0E0CF2EFFE3DF2E21
:1019A000F02D0E94653680E090E0ACE8B2E4EDB73F
:1019B000FEB781839283A383B48380E090E0A0EAA2
:1019C000B1E485839683A783B087C401815B9F4F71
:1019D00060E02AE939E949E95FE30F2EFAE0EF2EEA
:1019E000F7EDFF2EF3E20F2FFCE31F2FF02D0F2E4C
:1019F000FAE0AF2EF7EDBF2EF3EACF2EFDE3DF2E98
:101A0000F02D0E94653689E790E0880E991EF4015A
:101A1000119211924F011182108286E090E0880E9F
:101A2000991E81E0F401819381934F01118210820C
:101A30008DE79FEF880E991EEDB7FEB738960FB66B
:101A4000F894FEBF0FBEEDBFC4018B579F4F0E949D
:101A50008D34CE01019640E050E068EC72E400E085
:101A600010E028EC32EC0F2EF0E0CF2EF0E0DF2E6D
:101A7000F0E0EF2EF0E0FF2EF02D0E949F34C40125
:101A80008F569F4F6CE370E0A980BA80CB80DC80DA
:101A9000ED80FE800F81188529853A854B855C8510
:101AA0000E943137CE010D9640E050E068EC72E4C0
:101AB0008A019B010F2EF0E0CF2EF0E0DF2EF0E048
:101AC000EF2EF0E0FF2EF02D0E949F34C4018455CC
:101AD0009F4F6DE370E0AD84BE84CF84D888E988E1
:101AE000FA880B891C892D893E894F89588D0E945F
:101AF0003137C40160E070E00E94F60B68960FB6C3
:101B0000F894DEBF0FBECDBFCF91DF911F910F9133
:101B1000FF90EF90DF90CF90BF90AF909F908F900D
:101B200008958091920F9091930FA091940FB0918E
:101B3000950F0196A11DB11D8093920F9093930F65
:101B4000A093940FB093950F08958091920F909168
:101B5000930FA091940FB091950F0196A11DB11D07
:101B60008093920F9093930FA093940FB093950F3F
:101B7000089587E10E94F6470197A1F08091860FB2
:101B80009091870FA091880FB091890F0197A109BB
:101B9000B1098093860F9093870FA093880FB0931D
:101BA000890F08958091860F9091870FA091880FDB
:101BB000B091890F0196A11DB11D8093860F90935E
:101BC000870FA093880FB093890F089586E10E9434
:101BD000F6470197A1F08091860F9091870FA09111
:101BE000880FB091890F0197A109B1098093860FE1
:101BF0009093870FA093880FB093890F08958091D9
:101C0000860F9091870FA091880FB091890F019650
:101C1000A11DB11D8093860F9093870FA093880F0D
:101C2000B093890F089585E00E94F6470197A1F0CF
:101C30008091820F9091830FA091840FB091850FB6
:101C40000197A109B1098093820F9093830FA0930C
:101C5000840FB093850F08958091820F9091830F28
:101C6000A091840FB091850F0196A11DB11D8093A5
:101C7000820F9093830FA093840FB093850F0895E4
:101C800084E00E94F6470197A1F080917E0F909129
:101C90007F0FA091800FB091810F0196A11DB11D02
:101CA00080937E0F90937F0FA093800FB093810F4E
:101CB000089580917E0F90917F0FA091800FB09139
:101CC000810F0197A109B10980937E0F90937F0F37
:101CD000A093800FB093810F08959C01215E3F4F28
:101CE000C90108959C01255E3F4FC90108959C01DB
:101CF0002D5D3F4FC90108959C012C593F4FC901EB
:101D000008959C012B553F4FC90108959C0128550A
:101D10003F4FC90108959C0125553F4FC9010895C2
:101D200008959C01285E3F4FC9010895EF92FF92EC
:101D30000F931F938C0189E5E82E82E1F82EC701ED
:101D40006AEA72E00E945642C70161EC72E00E94AA
:101D50003742F80166857785C7014AE050E00E9466
:101D600018421F910F91FF90EF900895EF92FF920C
:101D70000F931F93CF93DF93EC018DAD882341F434
:101D800080E0DF91CF911F910F91FF90EF90089528
:101D9000E9ACFAAC0BAD1CAD0E940746E616F7069F
:101DA0000807190768F71DAE81E0DF91CF911F91F9
:101DB0000F91FF90EF900895CF92DF92EF92FF92F4
:101DC0000F931F936C017B010E9407460027F7FCCD
:101DD0000095102FE60EF71E081F191FF601E1AE41
:101DE000F2AE03AF14AF81E085AF1F910F91FF906A
:101DF000EF90DF90CF900895EF92FF920F931F9393
:101E0000CF93DF93EC018D85882341F480E0DF914F
:101E1000CF911F910F91FF90EF900895E984FA847C
:101E20000B851C850E940746E616F706080719076A
:101E300068F71D8681E0DF91CF911F910F91FF9090
:101E4000EF900895CF92DF92EF92FF920F931F933E
:101E50006C017B010E9407460027F7FC0095102FBC
:101E6000E60EF71E081F191FF601E186F2860387AA
:101E7000148781E0858789E592E160ED72E00E9438
:101E800037421F910F91FF90EF90DF90CF90089510
:101E9000AF92BF92CF92DF92EF92FF920F931F9378
:101EA000CF93DF93EC010E9407465B016C01EC8449
:101EB000FD840E851F85CE010E942336882359F4A8
:101EC000DF91CF911F910F91FF90EF90DF90CF9016
:101ED000BF90AF900895CE010E944236B5016E19B1
:101EE0007F09882777FD8095982F0E9435497B01CF
:101EF0008C0120E030E040E050E00E944C4A18168F
:101F0000FCF68889882339F56091920F7091930FC0
:101F10008091940F9091950F0E94354920E030E018
:101F200048EC52E40E94504AA80197010E949A4846
:101F3000688779878A879B871092920F1092930FF8
:101F40001092940F1092950F0E9407466C877D8720
:101F50008E879F87B5CF60918E0F70918F0F809184
:101F6000900F9091910F0E94354920E030E048ECAD
:101F700052E40E94504AA80197010E949A4868873B
:101F800079878A879B8710928E0F10928F0F1092FD
:101F9000900F1092910FD8CFFF920F931F938C0147
:101FA000F62E64E670E00E944F36F801F08A1F9129
:101FB0000F91FF9008956CED75E00E94B137089580
:101FC000FC018485882331F4CF0168E077E00E942A
:101FD000B1370895CF0160EB74E00E94B1370895E6
:101FE0006CED75E00E94B1370895FC01848588236B
:101FF00031F4CF0160EB74E00E94B1370895CF0156
:1020000068E077E00E94B1370895FC01838188235E
:1020100031F4CF016AEF75E00E94B1370895CF0126
:1020200066EF74E00E94B1370895FC018381882334
:1020300031F4CF0168EB76E00E94B1370895CF010B
:1020400064E874E00E94B1370895FC01838188231D
:1020500031F4CF016CE974E00E94B1370895CF01EB
:1020600060E476E00E94B13708956CE474E00E9469
:10207000B137089562ED75E00E94B13708956FE0C1
:1020800077E00E94B137089564E276E00E94B137AC
:1020900008956EED73E00E94B137089567EE77E022
:1020A0000E94B1370895CF93DF93EC018E859F8511
:1020B0008330910509F486C084309105CCF08530D9
:1020C000910509F457C08530910554F5CE0160E2C1
:1020D00073E00E94220FCE0103960E943F1089E513
:1020E00092E16CE473E00E945642DF91CF91089533
:1020F0008130910509F450C0823091052CF1CE0158
:1021000060E273E00E94220FCE010E94351089E543
:1021100092E16BE173E00E945642DF91CF91089506
:102120000697D9F7CE0160E273E00E94220FCE013C
:1021300003960E94441089E592E160E873E00E94F2
:102140005642DF91CF910895892B39F7CE0103963E
:102150000E943F10CE010E943A10CE0106960E94C6
:10216000491089E592E16EED72E00E945642DF91DE
:10217000CF910895CE0160E273E00E94220FCE015C
:1021800006960E94491089E592E166E673E00E9496
:102190005642DF91CF910895CE0160E273E00E9434
:1021A000220FCE0103960E944410CE0106960E9493
:1021B0004E1089E592E16DEF72E00E945642DF9188
:1021C000CF910895CE0160E273E00E94220FCE010C
:1021D0000E943A1089E592E163E373E00E9456425F
:1021E000DF91CF9108950F931F93CF93DF938C01CD
:1021F000EB0189E592E16CE973E00E94564289E5C2
:1022000092E16DE973E00E94374289E592E1BE01F7
:102210004AE050E00E941842CE010197029708F46C
:1022200079C0209709F450C089E592E164E074E038
:102230000E943742F8016685778589E592E14AE098
:1022400050E00E941842F8018685978583309105F9
:1022500009F474C08430910584F08530910509F447
:1022600076C0853091050CF044C0CD2B41F585E05A
:1022700090E0F801978786870EC08130910509F4B8
:102280006FC082309105ECF1CD2BC9F483E090E072
:10229000F8019787868789E592E164E274E00E94FD
:1022A0003742F8016685778589E592E14AE050E09A
:1022B0000E941842F8011586C8010E945310DF9150
:1022C000CF911F910F91089589E592E16BEB73E037
:1022D0000E94564289E592E162EE73E00E94374225
:1022E00089E592E160E070E04AE050E00E94184227
:1022F0009BCF069721F7CD2B11F7F801178616868D
:10230000CACF892BE1F6C130D105C9F6F801D787CC
:10231000C687C1CF89E592E16BEB73E00E9456421C
:1023200089E592E16DEB73E00E94374289E592E125
:10233000BE014AE050E00E94184273CFCD2B09F055
:10234000BECF84E090E0F80197878687A4CF2297DC
:1023500009F0B5CF86E090E0F801978786879BCF9C
:10236000CD2B09F0ACCF82E090E0F801978786870B
:1023700092CF0F931F93CF93DF938C01EC01609664
:10238000CE010E942336882329F4DF91CF911F913B
:102390000F910895CE010E944236C8010E94FC0EA2
:1023A000882399F3C80160E070E00E94F310DF9188
:1023B000CF911F910F9108956AE377E00E94B137A2
:1023C000089564E276E00E94B1370895FC018081AF
:1023D000882339F4CF0101966AE678E00E94B1378C
:1023E0000895CF0101966DE574E00E94B13708951C
:1023F000FC018081882339F4CF01019665E977E0FB
:102400000E94B1370895CF01019661EE74E00E94F9
:10241000B1370895FC018081882339F4CF010196FA
:1024200061EA75E00E94B1370895CF01019668E630
:1024300077E00E94B1370895FC018081882339F448
:10244000CF01019663E974E00E94B1370895CF018E
:1024500001966AE177E00E94B1370895FC0180811E
:10246000882339F4CF01019660EF75E00E94B137FF
:102470000895CF01019668EE75E00E94B137089586
:10248000FC018081882339F4CF01019669E477E06B
:102490000E94B1370895CF0101966DE674E00E9465
:1024A000B1370895CF93DF93EC01EEADFFADE73187
:1024B000F105E0F4EE58FF4FEE0FFF1F0590F49189
:1024C000E02D1994C05CDF4F8881C054D040882330
:1024D00009F473C184E690E0988B8F8781E08E8742
:1024E00089E592E162E976E00E945642DF91CF9160
:1024F000089568EC70E00E94DC0ECE0101960E9407
:102500001510CE0142960E94E611CE0146960E9419
:102510001C1289E592E164E776E00E945642E6CF1C
:1025200068EC70E00E94DC0ECE0142960E940A1216
:10253000CE0146960E94401289E592E163E576E07D
:102540000E945642D3CF01960E9415108FEF9FEF45
:10255000988B8F8781E08E8789E592E162E376E050
:102560000E945642C3CF68EC70E00E94DC0ECE01A0
:1025700001960E94251089E592E163E176E00E94D0
:102580005642B4CF68EC70E00E94DC0E89E592E11F
:1025900064EF75E00E945642A9CF84E690E0988BE4
:1025A0008F8781E08E8789E592E163ED75E00E9477
:1025B00056429CCF68EC70E00E94DC0ECE01019682
:1025C0000E94151089E592E162EB75E00E94564287
:1025D0008DCF188A1F8681E08E8789E592E161E9B7
:1025E00075E00E94564282CF68EC70E00E94DC0EDB
:1025F000CE0142960E94E611CE0146960E941C1220
:10260000CE0101960E94051089E592E160E775E030
:102610000E9456426BCF68EC70E00E94DC0ECE0147
:1026200042960E94E611CE0146960E941C1289E550
:1026300092E163E575E00E94564258CF68EC70E085
:102640000E94DC0E89E592E168E375E00E94564243
:102650004DCF68EC70E00E94DC0ECE0142960E94E5
:102660000A12CE0146960E94401289E592E161E28B
:1026700075E00E9456423ACF8FEF9FEF988B8F877D
:1026800081E08E8789E592E168E075E00E9456421C
:102690002DCF68EC70E00E94DC0ECE0101960E9406
:1026A000151089E592E16FEE74E00E9456421ECF4C
:1026B000188A1F8681E08E8789E592E16AED74E0D1
:1026C0000E94564213CF68EC70E00E94DC0ECE01EF
:1026D00001960E940510CE0142960E94F811CE018B
:1026E00046960E942E1289E592E163EC74E00E9406
:1026F0005642FCCE68EC70E00E94DC0ECE010196E2
:102700000E94051089E592E16BEA74E00E9456424E
:10271000EDCE68EC70E00E94DC0E89E592E161E9A3
:1027200074E00E945642E2CE68EC70E00E94DC0E3B
:1027300089E592E16DE774E00E945642D7CE68ECDD
:1027400070E00E94DC0ECE0142960E940A12CE0179
:1027500046960E94401289E592E16BE674E00E9481
:102760005642C4CE68EC70E00E94DC0ECE01429668
:102770000E94E611CE0146960E941C1289E592E164
:1027800063E574E00E945642B1CE01960E94151096
:102790008FEF9FEF988B8F8781E08E87CE014296D7
:1027A0000E940A12CE0146960E94401289E592E1EB
:1027B00060E474E00E94564299CE188A1F8681E038
:1027C0008E878ECE0F931F93CF93DF938C01EB01F7
:1027D00089E592E16CE973E00E94564289E592E155
:1027E00060EB76E00E94374289E592E1BE014AE063
:1027F00050E00E941842C130D10561F0C330D105CC
:1028000049F0C430D10531F0C530D10519F0C630DA
:10281000D10599F489E592E16BEB73E00E94564291
:1028200089E592E163ED76E00E94374289E592E125
:10283000BE014AE050E00E941842209709F44FC0C0
:10284000C730D10509F468C089E592E161E677E017
:102850000E943742F80166AD77AD89E592E14AE022
:1028600050E00E94184289E592E166E877E00E9414
:102870003742F80163A974A989E592E14AE050E082
:102880000E941842F80126AD37ADF9012731310514
:1028900008F5E757FF4FEE0FFF1F0590F491E02D6D
:1028A0001994CD2BB9F4F80117AE16AE89E592E173
:1028B00069E977E00E943742F80166AD77AD89E5B6
:1028C00092E14AE050E00E941842F80115AEC801BA
:1028D0000E945212DF91CF911F910F91089589E5C7
:1028E00092E16BEB73E00E94564289E592E16DEF55
:1028F00076E00E94374289E592E160E070E04AE0CC
:1029000050E00E941842A0CF279721F781E190E084
:10291000F80197AF86AFCACF89E592E16BEB73E020
:102920000E94564289E592E16FE277E00E943742C9
:1029300089E592E167E070E04AE050E00E941842C9
:1029400083CFCD2B39F683E090E0F80197AF86AFC7
:10295000ADCFC230D10509F4A6CF239709F0BACF85
:1029600082E090E0F80197AF86AFA0CFC130D105EB
:1029700009F4ACC0249709F0ADCF8BE090E0F801EA
:1029800097AF86AF93CFCD2B09F0A4CF8EE090E028
:10299000F80197AF86AF8ACFCD2B09F09BCFB6CF8A
:1029A000CD2B09F097CFF80183A994A904970CF4D3
:1029B00091C0005C1F4FF8018081005410408823B3
:1029C00009F48EC08DE090E0F80197AF86AF6ECF2E
:1029D000CD2B09F07FCF86E190E0F80197AF86AF6D
:1029E00065CF279709F076CF8AE090E0F80197AF9E
:1029F00086AF5CCF279709F06DCF8FE090E0F801AC
:102A000097AF86AF53CF259709F064CF82E190E06E
:102A1000F80197AF86AF4ACFCD2B09F05BCFF80115
:102A200083A994A9019694AB83AB26E030E037AF3D
:102A300026AF04970CF43ACF85E090E097AF86AFCD
:102A400035CFCD2B09F046CF84E090E0F80197AF69
:102A500086AF2CCFCD2B09F03DCF89E090E0F80177
:102A600097AF86AF23CF279709F034CF88E090E067
:102A7000F80197AF86AF1ACFCD2B09F02BCF87E0A7
:102A800090E0F80197AF86AF11CF269709F022CFDB
:102A900083E190E0F80197AF86AF14AA13AA23311F
:102AA000310509F003CF16CFCD2B09F013CF80E10C
:102AB00090E0F80197AF86AFF9CE279709F00ACFDB
:102AC00084E190E0F80197AF86AFF0CEF801D7AF80
:102AD000C6AFECCE85E190E0F80197AF86AFE6CEC9
:102AE0008CE090E0F80197AF86AFE0CE6CED75E03A
:102AF0000E94B13708956CED75E00E94B1370895DA
:102B000064ED74E00E94B137089563E875E00E94B7
:102B1000B13708950F931F938C01039668E775E012
:102B20000E94B137C80168E775E00E94B1371F9174
:102B30000F9108950F931F938C01039668EE73E035
:102B40000E94B137C80168EE73E00E94B1371F914F
:102B50000F910895FC018081882339F4CF010196FB
:102B600064EC77E00E94B1370895CF0101966CE8DC
:102B700075E00E94B1370895FC018081882339F403
:102B8000CF0101966DE674E00E94B1370895CF0140
:102B9000019661E478E00E94B1370895CF93DF9306
:102BA000EC018985882341F08A859B852FEF8F3F33
:102BB000920779F0892B19F0DF91CF910895CE011A
:102BC00003960E9482378823D1F4CE010E94E00F41
:102BD000F3CFCE0106960E9482378823D9F0CE012A
:102BE0000E94DB0F19868C858823C1F010928A0F12
:102BF00010928B0F10928C0F10928D0FDDCFCE01A3
:102C00000E94DB0F89E592E16AE078E00E9456427B
:102C10001986D2CFCE010E94F50FCECF1092860F2B
:102C20001092870F1092880F1092890FC5CF0F93C3
:102C30001F93CF93DF93EC018C01065E1F4FC801F9
:102C40000E94480FCE0105960E94CE15C8010E9431
:102C5000480F8E01055D1F4FC8010E94233688234F
:102C600029F4DF91CF911F910F910895C8010E941F
:102C70004236CE010E94B60E882399F3CE0160E061
:102C800070E00E94E213DF91CF911F910F910895A0
:102C90000F931F93CF93DF93EC0183960E94171637
:102CA000CE018C599F4F0E941716CE010E94B91178
:102CB0008E0109561F4FF80180819181181619065F
:102CC00034F4FE01E954FF4F8081882399F58E0189
:102CD0000A5A1F4FF801808191811816190634F4A1
:102CE000FE01EA54FF4F8081882329F4DF91CF91C0
:102CF0001F910F9108951082CE0148960E94DC1119
:102D000089E592E161E678E00E943742F80160814E
:102D1000718189E592E14AE050E00E94184289E51C
:102D200092E169E878E00E945642DF91CF911F91CD
:102D30000F9108951082CE0162E070E00E94F310BE
:102D400089E592E163E178E00E943742F801608111
:102D5000718189E592E14AE050E00E94184289E5DC
:102D600092E16BE378E00E945642B1CFCF93DF93BC
:102D7000EC018C85882369F589E592E166EC78E0C1
:102D80000E94564289E592E16DED78E00E9456423C
:102D9000CE0106960E948237682F89E592E170E0A5
:102DA0004AE050E00E94184289E592E162EF78E043
:102DB0000E945642CE0103960E948237682F89E511
:102DC00092E170E04AE050E00E941842DF91CF911A
:102DD000089589E592E16FEA78E00E945642D2CFE9
:102DE00005960E94B61608951F93CF93DF93EC01CA
:102DF000162F0E9497371B83112391F4CE0169E2AD
:102E000070E00E94AB3889E592E16BE179E00E94C5
:102E10005642CE010E941510DF91CF911F91089567
:102E2000CE016AE270E00E94AB3889E592E166E08B
:102E300079E00E945642CE010E941510DF91CF9199
:102E40001F9108950F931F93182F092F0E949737F2
:102E5000812F902F68E270E00E94AB38812F902F75
:102E60000E943A1089E592E160E379E00E945642BF
:102E70001F910F9108950F931F93182F092F0E94F0
:102E80009737812F902F67E270E00E94AB38812F37
:102E9000902F0E943F1089E592E164E479E00E945E
:102EA00056421F910F9108950F931F93182F092FCA
:102EB0000E949737812F902F66E270E00E94AB3816
:102EC000812F902F0E94491089E592E16AE579E00F
:102ED0000E9456421F910F9108950F931F938C01EA
:102EE0000E942217C80103960E943B17C80106964C
:102EF0000E945417F801158617861686C801409659
:102F000064E670E00E944F3689E592E169E679E077
:102F10000E9456421F910F9108950F931F93182FEF
:102F2000092F0E949737812F902F65E270E00E9451
:102F3000AB38812F902F0E94E11189E592E16CE777
:102F400079E00E9456421F910F910895EF92FF92EF
:102F50001F93CF93DF937C01162FEC012196CE01B6
:102F60000E949737F70110831123A1F4CE0160E28C
:102F700070E00E94AB3889E592E169EA79E00E944D
:102F80005642C7010E940A12DF91CF911F91FF9014
:102F9000EF900895CE0161E270E00E94AB3889E5C0
:102FA00092E16FE879E00E945642EBCFEF92FF92F8
:102FB0001F93CF93DF937C01162FEC012196CE0156
:102FC0000E949737F70110831123A1F4CE016EE11F
:102FD00070E00E94AB3889E592E16DED79E00E94E6
:102FE0005642C7010E944012DF91CF911F91FF907E
:102FF000EF900895CE016FE170E00E94AB3889E553
:1030000092E163EC79E00E945642EBCF0F931F935D
:10301000182F092F0E949737812F902F6FE070E0B3
:103020000E94AB38812F902F0E947B1589E592E199
:1030300067EF79E00E9456421F910F9108950F9318
:103040001F93182F092F0E949737812F902F64E22A
:1030500070E00E94AB38812F902F0E94851589E582
:1030600092E161E07AE00E9456421F910F9108952B
:10307000EF92FF920F931F938C010E94973793E07A
:10308000E92EF12CE00EF11EC7010E949737C7010F
:1030900063E270E00E94AB38C80162E270E00E9417
:1030A000AB38C8010E949A1589E592E16DE07AE09B
:1030B0000E9456421F910F91FF90EF900895EF925A
:1030C000FF921F93CF93DF937C01162FEC01219683
:1030D000CE010E949737F70110831123A1F4CE018E
:1030E00060E170E00E94AB3889E592E16BE27AE042
:1030F0000E945642C7010E94BC15DF91CF911F91DB
:10310000FF90EF900895CE0161E170E00E94AB382E
:1031100089E592E168E17AE00E945642EBCFBF92E6
:10312000CF92DF92EF92FF920F931F93CF93DF9393
:10313000EC01B62E8A0169010E94973733E0E32E35
:10314000F12CEC0EFD1EC701B8010E9477378E01ED
:103150000A5F1F4FC801B6010E947737BC86C701BE
:103160000E947C37C8010E947C378C85882309F532
:10317000CE0168E170E00E94AB3889E592E16FE42E
:103180007AE00E945642CE010E94F50F68EC70E092
:1031900080E090E00E943C46CE010E94F00FDF915B
:1031A000CF911F910F91FF90EF90DF90CF90BF9044
:1031B0000895CE0169E170E00E94AB3889E592E1A3
:1031C0006EE37AE00E945642DECFAF92BF92CF927A
:1031D000DF92FF920F931F938C01F62E6A01590123
:1031E00001960E94F416C80105966F2DA60195015F
:1031F0000E948F18C80142966F2D0E94A617C80121
:1032000046966F2D0E94D617C8014A966F2D0E94D0
:10321000CC0FC8018B9662E370E00E944F36F80134
:1032200014AA13AA17AA10AE15AE17AE16AE005CFC
:103230001F4FF801108200541040F801F08216AAC6
:1032400015AAFF2071F489E592E162E87AE00E9414
:1032500056421F910F91FF90DF90CF90BF90AF909B
:10326000089589E592E160E67AE00E9456421F9156
:103270000F91FF90DF90CF90BF90AF9008950F9384
:103280001F938C010E946D17C80148960E948D17EC
:10329000C8014B9660E00E945F18C8014F9661E03C
:1032A0000E945F18C801839660E04BE150E02AE17C
:1032B00030E00E94E518C8018C599F4F61E04DE154
:1032C00050E02CE130E00E94E518C8018B559F4F7B
:1032D0000E940618C80188559F4F0E941F18C801F8
:1032E00085559F4F0E9438180A541F4F81E0F801FE
:1032F0008193808389E592E164EA7AE00E945642F4
:103300001F910F910895CB0108958091980F90918E
:10331000990F0E94D5318091960F9091970F0E943E
:10332000481661E070E080E090E00E943C4608951D
:10333000EF92FF920F931F9380E060E47EE043E002
:1033400050E00E94B64381E063E17EE043E050E05C
:103350000E94B64385E066EE7DE043E050E00E94C7
:10336000B64384E069EB7DE043E050E00E94B64361
:1033700082E065EA7DE043E050E00E94B64383E0EE
:1033800061E97DE043E050E00E94B64309E512E1C7
:10339000C80140E855E260E070E00E94343EC80198
:1033A0006FED7AE00E945642C8016DEE7AE00E940D
:1033B000564288EB90E00E94B540F82EE92E0E941C
:1033C0003F19F092960FE092970FC80160E07BE002
:1033D0000E94564285E091E00E94B540F82EE92E09
:1033E0000E94AD09F0929A0FE0929B0FC80168E02D
:1033F0007BE00E9456428BE490E00E94B540F82E9C
:10340000E92E60919A0F70919B0F4091960F509109
:10341000970F0E944723F092980FE092990FC801EE
:1034200063E17BE00E9456420E94C708C80168E23F
:103430007BE00E945642C80169E27BE00E9456424E
:1034400082E090E090939D0F80939C0F10929E0FCE
:1034500010929F0F1092A00F1092A10FC80162E46A
:103460007BE00E9456421F910F91FF90EF900895CC
:10347000FC0189E29FE0918380830895FC01A08193
:10348000B18116978D919C918E0F9F1F0E94491AB2
:103490000895FC0187E19FE09183808389E29FE0AA
:1034A000978386830895DC0113968D919C911497E0
:1034B000892B91F01596ED91FC91169717968D91A9
:1034C0009C911897E817F90739F0819190E01696CA
:1034D000FC93EE9315970895ED91FC911197048854
:1034E000F589E02DCD0119950895FC0181E59FE056
:1034F000918380830895CF93DF93EC01E881F98174
:103500000288F389E02D19959C018FEF2F3F380732
:1035100029F08D819E8101969E838D83C901DF9163
:10352000CF910895CB010895DC0113968D919C9164
:103530001497892B71F01596ED91FC9116971796BB
:103540008D919C911897E817F90719F0808190E008
:103550000895ED91FC9111970288F389E02DCD013A
:10356000199508958FEF9FEF089580E090E00895FA
:1035700008950895DC01242FED91FC910084F185DC
:10358000E02D41E01995089580E090E00895FC0158
:103590002289338980899189281B390B86899789EB
:1035A000281B390BC9010895CF92DF92EF92FF9249
:1035B0000F931F93CF93DF93EC016B0179018A0185
:1035C000AE89BF89688979898A899B89861B970B0F
:1035D000A817B90778F020E030E040E050E0B901EA
:1035E000CA01DF91CF911F910F91FF90EF90DF9073
:1035F000CF900895121613061406150664F720E0FE
:1036000030E040E050E0F601E20FF31F6A0F7B1F4D
:10361000DB018C9180832F5F3F4F4F4F5F4FAE890F
:10362000BF891196BF8BAE8B688979898A899B89FE
:10363000861B970BA817B90790F62E153F05400774
:1036400051076CF6E0CFFC0126893789A089B18942
:10365000828993898A1B9B0B2817390738F4A20F9C
:10366000B31F8C91282F30E0C90108952FEF3FEF51
:10367000C9010895CF93DF93EC01E881F9810288B5
:10368000F389E02D19959C018FEF2F3F380729F022
:103690008E899F8901969F8B8E8BC901DF91CF9177
:1036A0000895CF93DF93DC0156964D915C91579727
:1036B0004115510511F15096CD91DC9151975296DB
:1036C0002D913C9153972C1B3D0B24173507B0F1DE
:1036D0008FEF6F3F7807B9F0FE01E40FF51F3197C8
:1036E00080818617E1F44150504057965C934E9389
:1036F0005697CB01DF91CF9108956FEF7FEFCB010C
:10370000DF91CF9108954150504057965C934E936E
:10371000569760E070E0CB01DF91CF9108951F963E
:103720008C911F9784FFE9CFCA01019757969C930C
:103730008E935697C80FD91F6883DBCF57963C935B
:103740002E9356976FEF7FEFD4CF80E090E00895EF
:1037500080E090E0089580E090E0089580E090E0BF
:10376000089560E070E080E090E008956F927F92AD
:103770009F92AF92BF92CF92DF92EF92FF920F9300
:103780001F93CF93DF93EC013B0159016A0112169D
:103790001306140615060CF050C0EE24FF24870112
:1037A00017C0EB85FC858D859E85E817F90748F5E0
:1037B00090828B859C8501969C878B870894E11C61
:1037C000F11C011D111DEA14FB040C051D05ACF5CF
:1037D000F301EE0DFF1D90808F8580FFE2CFE88121
:1037E000F9810084F185E02DCE0160E070E044E0D5
:1037F00020E11995EB85FC858D859E85E817F907F5
:10380000B8F2E881F981028CF38DE02DCE01692DAB
:1038100070E019958F5F9F4F89F6B701C801DF915E
:10382000CF911F910F91FF90EF90DF90CF90BF90BD
:10383000AF909F907F906F90089586017501EDCFB6
:10384000CB010895FC01208131818481958182170B
:10385000930719F0C9010E943D020895CF92DF92AB
:10386000FF920F931F93CF93DF936C01EB01F42E24
:10387000E881F98136970190F081E02DE60FF71F7E
:103880000189128901151105B9F0D801ED91FC915A
:1038900036970190F081E02DE00FF11FA389B489E4
:1038A000ED91FC9111970484F585E02DCD011995DA
:1038B0008F5F9F4F09F43FC0FF20A1F4E881F98199
:1038C00036970190F081E02DEC0FFD1F83899489DC
:1038D0000E94941ABFEF8F3F9B0779F00E94AD4B77
:1038E000892BE1F481E0F6018083DF91CF911F9174
:1038F0000F91FF90DF90CF900895E881F98136977E
:103900000190F081E02DEC0FFD1F2581322F3260F8
:1039100083899489892BE1F03583E4CFE881F981AB
:1039200036970190F081E02DEC0FFD1F838994897B
:103930000E94531AC3CFD801ED91FC9136970190A4
:10394000F081E02DE00FF11F858181608583B4CF88
:1039500023602583C7CFCF93DF93DC01EB01099070
:103960000020E9F72197C61BD70B2D913C911197A9
:1039700012968D919C911397821B930BC817D907B0
:1039800021F080E0DF91CF910895C901AE010E943E
:10399000B7029C0180E0232BA9F781E0F3CFFC0163
:1039A000A081B18116978D919C918E0F9F1F0E94CF
:1039B000DA1C0895FC0187E19FE09183808389E20E
:1039C0009FE097838683CF010E94B2400895FC0157
:1039D00089E29FE091838083CF010E94B2400895E5
:1039E000FC0181E59FE091838083CF010E94B2407A
:1039F0000895CF93DF93EC0181E39FE0998388835F
:103A0000288939898C899D898217930719F0C90102
:103A10000E943D0281E59FE099838883DF91CF91E9
:103A20000895CF93DF93EC0181E39FE0998388832E
:103A3000288939898C899D898217930719F0C901D2
:103A40000E943D0281E59FE099838883CE010E9418
:103A5000B240DF91CF910895FC01A081B18116970A
:103A60008D919C918E0F9F1F0E94371D0895CF93BB
:103A7000DF93EC018FEE9EE0998388830A9699A3E9
:103A800088A381E39FE09F838E832E893F898A8D5F
:103A90009B8D8217930719F0C9010E943D0281E5B1
:103AA0009FE09F838E83E091E30EF091E40EF98313
:103AB000E88336970190F081E02DEC0FFD1F809197
:103AC000E50E9091E60E9183808389E29FE099A3B1
:103AD00088A3CE010E94B240DF91CF910895FC01EE
:103AE000A081B18116978D919C918E0F9F1F0E948E
:103AF0007A1D0895CF93DF93EC018FEE9EE09983BA
:103B000088830A9699A388A381E39FE09F838E838D
:103B10002E893F898A8D9B8D8217930719F0C901E1
:103B20000E943D0281E59FE09F838E83E091E30E3A
:103B3000F091E40EF983E88336970190F081E02D4F
:103B4000EC0FFD1F8091E50E9091E60E918380832E
:103B500089E29FE099A388A3DF91CF9108950F9305
:103B60001F93CF93DF93EC01198218821B821A8274
:103B70001D821C8288E090E00E949301009701F171
:103B8000888399838A839B838881998108969D8302
:103B90008C830A811B8181E090E0B8010E94831927
:103BA000FC011082F8011082DF91CF911F910F91DB
:103BB0000895199588E090E00E949301009701F71D
:103BC000E091A20FF091A30F309799F780E090E079
:103BD0000E94EF4BAF92BF92CF92DF92EF92FF9293
:103BE0000F931F93CF93DF936C01DC011296ED913D
:103BF000FC9113974D915C91DF01A41BB50BCB0198
:103C00006A177B0708F4CD015C010894A11CB11C64
:103C1000A114B104C9F5EE24FF248F01041B150B78
:103C2000C701BA01A8010E94CD02E701C00FD11F50
:103C300081E090E0BE010E948319FC01108218828D
:103C4000F60120813181848195818217930719F0D3
:103C5000C9010E943D02D6011196FC92EE92139684
:103C6000DC93CE931297AE0CBF1C1596BC92AE920D
:103C70001497DF91CF911F910F91FF90EF90DF90FC
:103C8000CF90BF90AF900895C5010E949301009717
:103C900079F07C01D6011296ED91FC9113974D912C
:103CA0005C91BBCF1995C5010E949301009789F7DC
:103CB000E091A20FF091A30F3097A1F780E090E080
:103CC0000E94EF4BFF920F931F93CF93DF938C01D2
:103CD000F62EDC0112962D913C911397E901219665
:103CE00014968D919C911597C817D907E9F081E03A
:103CF00090E0BE010E948319FC0110821882D80155
:103D00001296ED91FC911397F08212968D919C91F1
:103D10001397019613969C938E931297DF91CF91F0
:103D20001F910F91FF9008958D919C91F901E81BCF
:103D3000F90BCF0171F461E070E0680F791FC801E1
:103D40000E94EA1DD8011296CD91DC91139721961D
:103D5000CECFBF01F2CF0F931F93CF93DF938C0190
:103D6000EB018FEF6F3F780741F4C0E0D0E0CE0168
:103D7000DF91CF911F910F910895D8011F968C91DB
:103D800084FF1AC0F801208D318D0088F189E02D63
:103D9000D80152968D919C9153978E1B9F0B28179B
:103DA000390768F4E20FF31F6083F801808D918D6D
:103DB0000196918F808FDBCFCFEFDFEFD8CFC80197
:103DC00040960E94621EF1CFDF92EF92FF920F9316
:103DD0001F93CF93DF93EC017B01D42E88819981CF
:103DE000EA81FB81E81BF90BAB014E0F5F1F2C81B1
:103DF0003D8121503040281B390B2417350740F4F2
:103E0000EE16FF06A0F16E0F7F1FCE010E94EA1D85
:103E1000E114F10419F12A813B81C90101962E0DAB
:103E20003F1D281B390B6D2D70E0A9010E94DF0298
:103E30000A811B810E0D1F1D81E090E0B8010E94D8
:103E40008319FC011082F8011082EA81FB81D08283
:103E50008A819B818E0D9F1D9B838A83CE01DF917A
:103E6000CF911F910F91FF90EF90DF900895BF01C8
:103E7000CACF0F931F93CF93DF93EC0130E0C901BA
:103E800088719070489709F486C0C9018870907055
:103E900020713070413009F455C04230B1F1AA8927
:103EA000BB89E889F989AD014E1B5F0B8B01040FBB
:103EB000151F40175107F0F1892B11F01F8B0E8B46
:103EC000232BE1F09D012E1B3F0B2017310708F03B
:103ED00042C0B801621B730BCE01409640E00E94C5
:103EE000E41E888999892A893B89281B390B8E8988
:103EF0009F892817390710F43F8B2E8BB801CB010F
:103F0000DF91CF911F910F91089521153105C9F5CA
:103F100000E010E0E889F989AA89BB89009721F0BF
:103F20000E891F89060F171FAD014E1B5F0B40172F
:103F3000510710F66FEF7FEFCB01DF91CF911F910B
:103F40000F9108958B01E889F989AA89BB89AD0190
:103F50004E1B5F0BAECFE00FF11FAE17BF0739F25C
:103F60008C918083EA1BFB0B8A899B898E0F9F1F94
:103F70009B8B8A8B28893989AC01421B530B9A0190
:103F8000B6CFAA89BB89E889F9898D010E1B1F0B61
:103F9000060F171FC3CF423009F077CFCBCFAF92B8
:103FA000BF92CF92DF92EF92FF920F931F93CF9326
:103FB000DF93B82EA92E6B01E82EF92ED7011196AA
:103FC0001C921E9213961C921E92129715961C928A
:103FD0001E92149788E090E00E949301009709F4E4
:103FE00044C0F70180839183828393838081918190
:103FF0000896958384830281138181E090E0B80163
:104000000E948319FC011082D8011C92D601ED9107
:10401000FC9136970190F081E02DEC0DFD1D838918
:1040200094890E94941AEC01BFEF8F3F9B0739F5EA
:10403000F701228133818081918128173907B9F1F5
:104040008B2D9A2DDF91CF911F910F91FF90EF90C3
:10405000DF90CF90BF90AF900895199588E090E0E1
:104060000E949301009709F0BCCFE091A20FF0915C
:10407000A30F309791F780E090E00E94EF4B0E94F1
:10408000AD4B892BA9F6D601ED91FC9136970190A5
:10409000F081E02DEC0DFD1D838994890E94531A57
:1040A000C70161E070E04C2F0E94E41EAFCFD60143
:1040B000ED91FC9136970190F081E02DEC0DFD1D06
:1040C0002581322F366083899489892B11F03583BD
:1040D000B7CF27602583B4CF8F929F92AF92BF92C4
:1040E000CF92DF92EF92FF920F931F93CF93DF93C4
:1040F0007C018B016A01DC014D915C911197129654
:104100002D913C911397241B350BE601C61BD70B51
:104110002C173D0708F075C0CA01A9010E94C4020E
:10412000D7011296ED91FC9113976D917C911197A7
:10413000AF01461B570B5801A40EB51ECA14DB0471
:1041400009F451C0E601CA19DB099E01240F351F8D
:1041500014968D919C9115970197861B970B82174A
:10416000930708F081C09A012F5F3F4FCE01C43101
:10417000D10508F463C04901880E991E8114910489
:1041800009F065C0CC24DD248F01061B170BC60186
:10419000A8010E94CD020C0D1D1DC801B501AE0184
:1041A0000E94CD02C00FD11F81E090E0BE010E94AD
:1041B0008319FC0110821882D7012D913C9111972F
:1041C00014968D919C9115978217930719F0C90148
:1041D0000E943D02F701D182C082D383C2838C0C3E
:1041E0009D1C95828482C701DF91CF911F910F9111
:1041F000FF90EF90DF90CF90BF90AF909F908F9007
:104200000895CA01AE010E94C402D701ED91FC914C
:104210001197EC0FFD1F12960D90BC91A02DEA177F
:10422000FB0709F38C918083EA1BFB0BE7018A8172
:104230009B818E0F9F1F9B838A83D5CF84E190E063
:104240004901880E991E8114910409F49BCFC40181
:104250000E9493010097C1F16C01F70160817181A7
:104260000280F381E02D90CFB5016F5F7F4FC61ABA
:10427000D70ACF010196A6010E94CD02D70112965E
:104280000D911C9113970C0F1D1F81E090E0B80158
:104290000E948319FC011082F8011082D701129646
:1042A000ED91FC911397D5018C918083F701828168
:1042B00093818C0F9D1F9383828395CF1995C401A1
:1042C0000E949301009741F6E091A20FF091A30F95
:1042D0003097A1F780E090E00E94EF4BCF93DF93FF
:1042E000EC01FB016817790731F06081718142812F
:1042F00053810E946C20CE01DF91CF9108953F92AF
:104300004F925F926F927F928F929F92AF92BF92E5
:10431000CF92DF92EF92FF920F931F93DF93CF9391
:10432000CDB7DEB728970FB6F894DEBF0FBECDBF6E
:104330003C018AE0482E512C460C571CCE010196B8
:1043400098878F8389E592E10E94C33E181619066B
:104350002CF4F301808591854C97C4F028960FB614
:10436000F894DEBF0FBECDBFCF91DF911F910F91AB
:10437000FF90EF90DF90CF90BF90AF909F908F9085
:104380007F906F905F904F903F90089589E592E104
:104390000E94F53E382EFAE08F1709F445C1D3018B
:1043A0001C960D911C911D971A968D919C911B97AF
:1043B000081B190B0E5F1F4F1A8219821C821B8269
:1043C0001E821D82BFEF0F3F1B0771F00115110503
:1043D00009F00BC180E090E09A8389839C838B83F2
:1043E000080F191F1E830D830B811C8181E090E053
:1043F000B8010E948319FC011082F8011082D301D8
:104400001A968D909C901B971C96ED91FC911D9790
:104410008E169F0609F403C14B815C8169817A8104
:10442000DA01A61BB70B6F01C818D90896012A0F2D
:104430003B1F8D819E810197861B970B82179307E7
:1044400008F079C09D012F5F3F4FC601B4E1CB1644
:10445000D10410F484E190E05901A80EB91EA11412
:10446000B10409F0A7C0EE24FF248A01061B170B34
:10447000C701A8010E94CD020E0D1F1DC801B40185
:10448000A6010E94CD020C0D1D1D81E090E0B80137
:104490000E948319FC011082F801108229813A815F
:1044A0008D819E818217930719F0C9010E943D02F8
:1044B000FA82E9821C830B83AE0CBF1CBE82AD82E4
:1044C000A8018A010F5F1F4F8D819E810817190770
:1044D00009F45CC081E090E0B8010E948319FC01FE
:1044E0001082F8011082EB81FC8130824B815C816B
:1044F0004F5F5F4F5C834B838F8198858415950553
:1045000029F069817A81C2010E946C2029813A8157
:104510008D819E818217930719F0C9010E943D0287
:10452000D30118968D919C911997019619969C9399
:104530008E93189707CFB4016F5F7F4FE61BF70B81
:10454000CA010196AF010E94CD020B811C810C0DA6
:104550001D1D81E090E0B8010E948319FC011082CA
:10456000D8011C92EB81FC81D4018C9180834B811A
:104570005C814C0D5D1D5C834B838A010F5F1F4F77
:104580008D819E810817190709F0A4CF89819A812E
:104590008A01081B190B09F045C061E070E0600F4B
:1045A000711FCE0101960E94EA1D0B811C810F5FD5
:1045B0001F4F90CFC5010E949301009761F07C01CD
:1045C0004B815C8169817A8150CF1995C5010E9428
:1045D00093010097A1F7E091A20FF091A30F3097FC
:1045E000A1F780E090E00E94EF4BC8010E94930188
:1045F000009709F0F1CEE091A20FF091A30F309750
:1046000081F31995C8010E949301009709F0E4CE47
:10461000E091A20FF091A30F309799F7E2CF4B8171
:104620005C814FCFB801BBCF89E592E16CE47BE0C0
:104630000E945642D30118968D919C911997181695
:1046400019060CF5F301108A89E592E169E57BE032
:104650000E943742D3011A966D917C911B9789E590
:1046600092E10E94374289E592E167E67BE00E9491
:104670003742F3016085718589E592E14AE050E0B7
:104680000E9418426BCE81E050968C93DDCFCF9282
:10469000DF92EF92FF920F931F93CF93DF93EC0182
:1046A0007B016A0164E670E00E944F361986188625
:1046B0001B861A861D861C861F861E8688E090E053
:1046C0000E949301009709F4BDC08A879B878C875D
:1046D0009D878A859B8508969F878E870C851D857B
:1046E00081E090E0B8010E948319FC011082F8017A
:1046F0001082BE01695E7F4F41E250E01FAA18AEF2
:1047000086E090E0A0E0B0E089AF9AAFABAFBCAF7D
:10471000ED96199219921992199280E28993198251
:104720001882C254D0405DAB4CABCC5BDF4F798379
:104730006883C454D0401EAACA5BDF4F1882C65497
:10474000D040E091E30EF091E40EFA8BE98B9E01EC
:104750002F5E3F4F36970190F081E02DE20FF31F5F
:104760008091E50E9091E60E918380831B8A1C8ACE
:104770001D8A1E8AE989FA8936970190F081E02D19
:10478000E20FF31F54834383748B638B1582158A66
:104790008FEE9EE09A8B898B0A969AAB89AB1B8E23
:1047A0001A8E1D8E1C8E1F8E1E8E19A218A21BA281
:1047B0001AA21DA21CA21EA281E39FE0988F8F8BDC
:1047C00018A61FA21AA619A61CA61BA688E090E090
:1047D0000E949301009709F447C08FA398A789A767
:1047E0009AA78FA198A508969CA78BA709A51AA59B
:1047F00081E090E0B8010E948319FC011082F80169
:1048000010821EA61DA618AA1FA688E08EA3C95B4B
:10481000DF4FE992F992D982C882C954D04081E031
:10482000888BDF91CF911F910F91FF90EF90DF90D8
:10483000CF900895199588E090E00E949301009729
:1048400009F043CFE091A20FF091A30F309791F7B9
:1048500080E090E00E94EF4B199588E090E00E9484
:104860009301009709F0B9CFE091A20FF091A30F47
:10487000309791F7EDCF8F929F92BF92CF92DF92B8
:10488000EF92FF920F931F93CF93DF936C017B0105
:10489000DC01ED91FC9136970190F081E02DE80F5D
:1048A000F91FC189D2892097F9F0E881F9813697FB
:1048B0000190F081E02DEC0FFD1FA389B489ED91EB
:1048C000FC9111970484F585E02DCD0119958F5F3A
:1048D0009F4F09F4BFC0D601ED91FC91369701902E
:1048E000F081E02DEC0DFD1D838994890E94941ABE
:1048F000BFEF8F3F9B0709F48CC00E94AD4B892B03
:1049000009F09AC0D601ED91FC9136972081318152
:10491000F601E20FF31F83889488D701ED91FC9193
:10492000119712968D919C911397E817F90771F0E2
:1049300010828D919C91119713969C938E93129750
:10494000D601ED91FC91369720813181F9013296A3
:10495000EC0DFD1D22853385448555851286138611
:1049600014861586E9012115310509F0C6C00EEF40
:104970001FEF1EC081E090E0BE010E948319FC0180
:1049800010821882D7011296ED91FC911397B08294
:1049900012962D913C9113972F5F3F4F13963C93A6
:1049A0002E9312970115110509F492C00150104081
:1049B000C4010E94531ABFEF8F3F9B0709F4A3C0A5
:1049C000B82E992787FD90950E94AD4B892B09F051
:1049D0004DC0F70122813381E901219684819581BF
:1049E000C817D90739F680819181A901481B590B55
:1049F000CA0109F080C061E070E0680F791FC7014B
:104A00000E94EA1DD7011296CD91DC911397219651
:104A1000B1CFD601ED91FC9136970190F081E02D58
:104A2000EC0DFD1D2581322F326083899489892BFD
:104A300009F490C0358366CFD601ED91FC9136978D
:104A40000190F081E02DEC0DFD1D838994890E9479
:104A5000531A41CFE881F98136970190F081E02D1A
:104A6000EC0FFD1F25812160258335CFF4012381C3
:104A700034812115310551F0858196812817390738
:104A800029F0FC018291B81609F46FC0D401ED91B0
:104A9000FC910688F789E02DC4016B2D70E0199513
:104AA0008F5F9F4F91F4D601ED91FC913697019065
:104AB000F081E02DEC0DFD1D2581322F34608389BE
:104AC0009489892B09F449C03583F7012281338108
:104AD000F701808191812817390751F1C601DF91D3
:104AE000CF911F910F91FF90EF90DF90CF90BF90EB
:104AF0009F908F900895BA0180CFC701B9010E949D
:104B0000EA1D8E0153CFD601ED91FC9136970190AD
:104B1000F081E02DEC0DFD1D2581322F326083895F
:104B20009489892B59F13583F70122813381D0CFC4
:104B3000D601ED91FC9136970190F081E02DEC0DBE
:104B4000FD1D2581322F346083899489892BF1F0F2
:104B50003583C4CF23602583D5CE25602583D70137
:104B600012962D913C911397B3CFD4011696FC93D6
:104B7000EE931597F70122813381AACF2360258315
:104B8000D70112962D913C911397A2CF25602583D2
:104B9000A5CFAF92BF92CF92DF92EF92FF920F9389
:104BA0001F93DF93CF93CDB7DEB762970FB6F8941C
:104BB000DEBF0FBECDBF7C015B01DC01ED91FC913E
:104BC00036970190F081E02DE80FF91F01891289D5
:104BD0000115110501F1D801ED91FC913697019075
:104BE000F081E02DE00FF11FA389B489ED91FC91D4
:104BF00011970484F585E02DCD0119958F5F9F4FA6
:104C000009F457C1D701ED91FC9136970190F081DD
:104C1000E02DEE0DFF1D838994890E94941ABFEF49
:104C20008F3F9B0709F4DDC00E94AD4B892B09F033
:104C3000EBC01A8219821C821B821E821D8288E0B0
:104C400090E00E9493018C01009709F4C0C01A8380
:104C500009831C830B83085F1F4F1E830D8308503D
:104C6000104081E090E0B8010E948319FC0110829D
:104C7000F8011082D701ED91FC9136970190F081F7
:104C8000E02DEE0DFF1D838185FFCCC018861F82AD
:104C90001A8619861C861B8688E090E00E94930184
:104CA0008C01009709F4FEC018870F831A870987C3
:104CB000085F1F4F1C870B870850104081E090E071
:104CC000B8010E948319FC011082F801108297E05C
:104CD000C92ED12CCC0EDD1ED701ED91FC9136975B
:104CE0000190F081E02DEE0DFF1D838994890E94D3
:104CF000941A8C01BFEF8F3F9B0789F00E94AD4B48
:104D0000892B69F4C801C0970A9708F4DFC00E32F6
:104D1000110509F4DBC00C32110509F4D7C049852F
:104D20005A856F8178854617570709F413C1CE015C
:104D300001960E946C202F8138858B859C85821777
:104D4000930719F0C9010E943D0200D000D0EDB7D1
:104D5000FEB7319689819A81ADB7BEB712969C9302
:104D60008E93119788E79BE093838283B582A48218
:104D70000E94EE02EDB7FEB736960FB6F894FEBF6E
:104D80000FBEEDBF29813A818D819E8182179307E5
:104D900019F0C9010E943D02C70162960FB6F8944E
:104DA000DEBF0FBECDBFCF91DF911F910F91FF905E
:104DB000EF90DF90CF90BF90AF900895199588E065
:104DC00090E00E9493018C01009709F040CFE091A0
:104DD000A20FF091A30F309789F780E090E00E9436
:104DE000EF4BD701ED91FC9136970190F081E02DCA
:104DF000EE0DFF1D2581322F326083899489892B26
:104E000009F4BAC0358315CFD701ED91FC913697DF
:104E10000190F081E02DEE0DFF1D838994890E94A1
:104E2000531AF0CECE010D96B7010E94CF1F0D850B
:104E30001E854F855889CE010196B8010E946C20CD
:104E400089899A890817190719F0C8010E943D023B
:104E5000D701ED91FC9136970190F081E02DEE0D98
:104E6000FF1D8381948186FD55C087FF63C095FF38
:104E700041C000D000D0EDB7FEB7319689819A814C
:104E8000ADB7BEB712969C938E9311978EE79BE0B9
:104E90006BCF199588E090E00E9493018C010097F8
:104EA00009F002CFE091A20FF091A30F309789F79C
:104EB00094CFD801ED91FC9136970190F081E02DCF
:104EC000E00FF11F2581216025839CCED701ED9154
:104ED000FC9136970190F081E02DEE0DFF1D838946
:104EE00094890E94531AC60161E070E0402F0E942D
:104EF000E41EF2CE00D000D0EDB7FEB73196898126
:104F00009A81ADB7BEB712969C938E93119781E8A4
:104F10009BE02ACF00D000D0EDB7FEB73196898153
:104F20009A81ADB7BEB712969C938E9311978BE77B
:104F30009BE01ACF00D000D0EDB7FEB73196898143
:104F40009A81ADB7BEB712969C938E93119784E861
:104F50009BE00ACFD701ED91FC9136970190F0814B
:104F6000E02DEE0DFF1D2581322F36608389948957
:104F7000892B29F03583DBCE236025835ACE276029
:104F80002583D5CE2F923F924F925F926F927F9260
:104F90008F929F92AF92BF92CF92DF92EF92FF9249
:104FA0000F931F93DF93CF93CDB7DEB7C657D04093
:104FB0000FB6F894DEBF0FBECDBFE3969FAF8EAFA6
:104FC000E397DC011A966D917C911B971C964D918D
:104FD0005C911D9787960E946C20E396EEADFFAD25
:104FE000E39716A615A686A181FF3FC281A592A5CB
:104FF00027A130A5821B930B90AB87A7E396AEAC9D
:10500000BFACE397E1E1F0E0AE0EBF1EE396AEADBC
:10501000BFADE3975196ED91FC9152973697019071
:10502000F081E02DEA0DFB1D83899489892B09F419
:10503000C7C215821A8619861C861B861E861D8687
:1050400088E090E00E949301009709F4B5C1898738
:105050009A878B879C8789859A8508969E878D87F6
:105060000B851C8581E090E0B8010E948319FC014A
:105070001082F8011082C501BE01675F7F4F0E9458
:105080003B24E985FA85D08089E592E167E87BE0F9
:105090000E943742E985FA858181E82EFF24E7FCEA
:1050A000F09420ED3FEFE20EF31E89E592E16D2DC5
:1050B0000E94E44089E592E164E97BE00E94374286
:1050C00089E592E1B7014AE050E00E94184288E089
:1050D00090E00E949301E1969FAF8EAFE197892BFC
:1050E00009F480C181E090E0E1966EAD7FADE1977B
:1050F0000E948319FC011082E196AEADBFADE1972D
:105100001C92188A1F861A8A198A1C8A1B8A88E0B0
:1051100090E00E949301009709F473C18F87988BE8
:10512000898B9A8B8F85988908969C8B8B8B0989A4
:105130001A8981E090E0B8010E948319FC01108275
:10514000F80110821E8A1D8A188E1F8A1A8E198EE7
:1051500088E090E00E949301009709F461C18D8B73
:105160009E8B8F8B988F8D899E8908969A8F898FB9
:105170000F89188D81E090E0B8010E948319FC012D
:105180001082D8011C921C8E1B8E1E8E1D8E18A2A2
:105190001F8E88E090E00E949301009709F44FC1B0
:1051A0008B8F9C8F8D8F9E8F8B8D9C8D089698A357
:1051B0008F8F0D8D1E8D81E090E0B8010E948319C4
:1051C000FC011082F80110821AA219A21CA21BA2D3
:1051D0001EA21DA288E090E00E949301009709F4AE
:1051E0003DC189A39AA38BA39CA389A19AA10896E8
:1051F0009EA38DA30BA11CA181E090E0B8010E94A9
:105200008319FC011082D8011C921C821B821E8211
:105210001D8218861F82CE01C3960E948D34B7E48A
:10522000DB1609F46EC2BD150CF028C13FE4D3169D
:1052300009F4F0C13D150CF07FC190E5D91609F4D1
:1052400039C2A3E5DA1609F025C1B4E0EB16F10482
:1052500009F485C6E5E0EE16F1040CF01FC3F1E099
:10526000EF16F10409F404C622E0E216F1040CF48E
:10527000D8C632E0E316F10409F45DC683E0E8160F
:10528000F10409F007C1C501BE01615F7F4F0E94B3
:105290003B246C01CE010196B60140E00E942E1C19
:1052A00047E2E42EF12CEC0EFD1EC701BE016E5F3D
:1052B0007F4F0E94AF1D8E01035D1F4FC801B601D5
:1052C0000E94CF1FC701B8010E946E21C8010E9431
:1052D000221CC70164E17EE00E94AB1C882309F414
:1052E000AEC7C7010E94221CD601ED91FC913697F2
:1052F0000190F081E02DEC0DFD1D8581857031F070
:1053000089E592E165E27EE00E9437428F859889C7
:105310000E9499023BE4A32EB12CAC0EBD1EAA271D
:1053200097FDA095BA2FBC01CD010E94354923EC11
:1053300035EF48E450E40E94504A20E030E044E376
:1053400053E40E949A486B017C01C50140E050E0A3
:1053500060E070E08A019B010E949F34DE01D396D9
:10536000F5018CE001900D928150E1F789E592E121
:105370006AE27EE00E9437428F8598890E949902F6
:10538000BC0189E592E14AE050E00E941842E396B0
:10539000EEADFFADE397E95BFF4F808191810E9405
:1053A0007C0762E070E02CC3199588E090E00E94D1
:1053B0009301009709F04BCEE091A20FF091A30F5B
:1053C000309791F780E090E00E94EF4B199588E0CC
:1053D00090E00E949301E1969FAF8EAFE197892BF9
:1053E00009F080CEE091A20FF091A30F309771F7F2
:1053F000E9CF199588E090E00E949301009709F0A9
:105400008DCEE091A20FF091A30F309791F7DACFF4
:10541000199588E090E00E949301009709F09FCED3
:10542000E091A20FF091A30F309791F7CBCF199590
:1054300088E090E00E949301009709F0B1CEE091DE
:10544000A20FF091A30F309791F7BCCF199588E088
:1054500090E00E949301009709F0C3CEE091A20F63
:10546000F091A30F309791F7ADCFE396AEADBFADFE
:10547000E397D0961C921E929F97C0CDE3E4DE1670
:1054800009F4A1C0F4E4DF1609F471C022E4D216D5
:1054900009F4E8C029A13AA18DA19EA18217930722
:1054A00019F0C9010E943D022B8D3C8D8F8D98A172
:1054B0008217930719F0C9010E943D022D893E8988
:1054C000898D9A8D8217930719F0C9010E943D02B8
:1054D0002F8538898B899C898217930719F0C90118
:1054E0000E943D02E1968EAD9FADE1970E943D0284
:1054F00029853A858D859E858217930719F0C90104
:105500000E943D02CA58DF4F0FB6F894DEBF0FBEAF
:10551000CDBFCF91DF911F910F91FF90EF90DF9062
:10552000CF90BF90AF909F908F907F906F905F9043
:105530004F903F902F90089589E4D81609F0AACF94
:10554000E114F10409F006C189E592E166E97BE026
:105550000E943742E396EEADFFADE397E75BFF4F66
:10556000808191810E94810E0E947B1593CFB3E0D0
:10557000EB16F10409F425C4E4E0EE16F1040CF492
:105580006EC135E0E316F10409F4EFC385E0E816D7
:10559000F1040CF01DC389E592E162E97DE00E940F
:1055A0005642E396EEADFFADE397E75BFF4F808198
:1055B00091810E947C0E64E070E00E94E2136ACF49
:1055C00081E0858337CDB1E0EB16F10409F481C2A7
:1055D000E2E0EE16F1040CF4CDC2F2E0EF16F104B5
:1055E00009F450C223E0E216F10409F053CF89E533
:1055F00092E169E07CE00E943742E396EEADFFADB8
:10560000E397E75BFF4F808191810E94720E0E94B9
:10561000BC1540CF89E592E161EF7CE00E945642E3
:10562000E3960EAD1FADE397095B1F4FD8018D9137
:105630009C910E947C070E943D0AE114F10409F04C
:10564000A2C089E592E167EF7CE00E945642F80132
:10565000808191810E948107D8018D919C910E9447
:10566000B10718CFF2E0EF16F10409F46DC223E0A0
:10567000E216F1040CF4D7C083E0E816F10409F453
:105680004EC294E0E916F10409F004CF89E592E1F5
:105690006CE77CE00E943742E3962EAD3FADE39786
:1056A000275B3F4FD9018D919C910E94900E0E94E3
:1056B000960EF0CEB1E0EB16F10409F4F7C1E2E08A
:1056C000EE16F1040CF46DC2F2E0EF16F10409F4E9
:1056D000C5C123E0E216F10409F0DCCE89E592E1D0
:1056E00066ED7CE00E943742E396EEADFFADE397B6
:1056F000E75BFF4F808191810E94860E0E94851595
:10570000C9CEB3E0EB16F10409F471C3E4E0EE1680
:10571000F1040CF484C135E0E316F10409F4FAC293
:1057200085E0E816F1040CF0D8C289E592E162E95F
:105730007DE00E945642E396EEADFFADE397E75B56
:10574000FF4F808191810E94770E64E070E00E949B
:10575000E213A0CEB1E0EB16F10409F09BCE89E58F
:1057600092E160EB7BE00E943742E3962EAD3FADC5
:10577000E397275B3F4FD9018D919C910E94810E49
:105780000E94761587CEB1E0EB16F10409F082CEC7
:1057900089E592E16EEF7CE00E943742F80180815A
:1057A00091810E949107AB01BC0189E592E122E061
:1057B00030E00E94A34389E592E166E17DE00E942A
:1057C0003742D8018D919C910E949B07AB01BC018F
:1057D00089E592E122E030E00E94A34389E592E16D
:1057E0006DE27DE00E943742F801808191810E9444
:1057F000AB07BC0189E592E14AE050E00E94184203
:1058000089E592E160E47DE00E943742D8018D9104
:105810009C910E94A507BC0189E592E14AE050E015
:105820000E94184237CEE114F10409F465C131E059
:10583000E316F10409F02ECE89E592E167E37CE0FE
:105840000E943742E396EEADFFADE397E75BFF4F73
:10585000808191810E94910E0E94DC111BCEF1E0AB
:10586000EF16F10409F497C222E0E216F1040CF4F9
:10587000B2C489E592E16CE77DE00E945642E3966E
:10588000EEADFFADE397E75BFF4F808191810E9412
:105890007C0E62E070E00E94E213FCCD96E0E91617
:1058A000F10409F4F8C2A6E0EA16F1040CF0AEC166
:1058B000C501BE016B5E7F4F0E943B24BE01655E49
:1058C0007F4F0E943B24BE01615F7F4F0E943B24BB
:1058D000BE016B5F7F4F0E94C92589E592E16AE3B3
:1058E0007EE00E9437428D899E890E949902BC0108
:1058F00089E592E14AE050E00E94054289E592E1A3
:105900006BEF7DE00E9437428B8D9C8D0E94990247
:10591000BC0189E592E14AE050E00E94054289E538
:1059200092E16BEF7DE00E9437428F8598890E945B
:105930009902BC0189E592E14AE050E00E941842D8
:105940008D899E890E9499027C018B8D9C8D0E947D
:1059500099025C018F8598890E9499023C01002779
:10596000F7FC0095102FC801B7010E943549E79652
:105970006CAF7DAF8EAF9FAFE797CC24B7FCC094E0
:10598000DC2CC601B5010E9435491B012C0188247D
:1059900077FC8094982CC401B3010E94354923EC14
:1059A00035EF48E450E40E94504A20E030E044E300
:1059B00053E40E949A486B017C01CE018D599F4FA0
:1059C000E7964CAD5DAD6EAD7FADE797920181017D
:1059D0000E949F34DE01D396FE01ED59FF4F8CE00B
:1059E00001900D928150E1F7E396EEADFFADE397A4
:1059F000E95BFF4F808191810E947C0763E070E04A
:105A0000ABA8BCA8CDA8DEA8EFA8F8AC09AD1AAD2C
:105A10002BAD3CAD4DAD5EAD0E94EB0A3BCDF1E050
:105A2000EF16F10409F4F9C122E0E216F1040CF4D6
:105A3000EAC389E592E16CE77DE00E945642E39675
:105A4000EEADFFADE397E75BFF4F808191810E9450
:105A5000770E62E070E00E94E2131CCD89E592E1CE
:105A60006BEB7CE00E943742E3962EAD3FADE397AF
:105A7000275B3F4FD9018D919C910E94860E0E9419
:105A8000801508CD89E592E163EF7BE00E94374203
:105A9000E3962EAD3FADE397275B3F4FD9018D9144
:105AA0009C910E94720E0E94AA15F4CC89E592E1A5
:105AB0006FE97CE00E943742E396EEADFFADE397DD
:105AC000E75BFF4F808191810E948B0E0E949A15A7
:105AD000E1CC89E592E16EED7BE00E943742E396EE
