:100000000C947B010C94DF500C9410510C944151D2
:100010000C9472510C94A3510C94D4510C9405522D
:100020000C9436520C94A6010C94A6010C94A601D3
:100030000C94A6010C94A6010C94A6010C94A601A4
:100040000C94A6010C945A450C94A6010C94A6019C
:100050000C94A6010C94A6010C94A6010C94675272
:100060000C94A6010C9494480C94E0490C94A601BD
:100070000C94A6010C94A6010C94A6010C94A60164
:100080000C94C3470C94A6010C94A6010C94A601F1
:100090000C94D4480C941F4A0C94A6010C94A6010D
:1000A0000C94A6010C94A6010C94F3460C94A601A2
:1000B0000C94A6010C94A6010C94A6010C942A465B
:1000C0000C94A6010C94A6010C94A6010C9414495E
:1000D0000C945E4A0C94A6010C9454490C949D4ACD
:1000E0000C94A601431B2F1B1B1B0F1B031BF31A96
:1000F000DF1AD41AC41AB71AA31A971A831A6B1ADA
:10010000601A501A431A371A271A161A021AEA19CD
:10011000D3193C1C2F1C271CAC1C961CD51BC71CC0
:10012000BE1CB51C7B1CD51B561C521C491C841CB8
:10013000E01C0A1C8D1CD01CE91CD51B721C0A1C5F
:10014000084AD73B3BCE016E84BCBFFDC12F3D6C3E
:1001500074319ABD56833DDA3D00C77F11BED9E4A4
:10016000BB4C3E916BAAAABE000000803F05A84C84
:10017000CDB2D44EB93836A9020C50B99186880850
:100180003CA6AAAA2ABE000000803F00002100244D
:100190000027002A002D0030003300010100000478
:1001A0000107010A0100002200250028002B002E73
:1001B000003100340002010000050108010B0100BC
:1001C0000020002300260029002C002F0032000010
:1001D00001000003010601090105050505070508E1
:1001E000080808020202020A0A08080404040401BA
:1001F00001010101010101030303030303030304DC
:100200000707070C0C0C0C0C0C0C0C02020202066B
:10021000060606060606060B0B0B0B0B0B0B0B015B
:100220000210202008081020401020408002010207
:1002300001080402010102040810204080804020CF
:10024000100804020180040201804020100804020A
:100250000108040201010204081020408001020488
:1002600008102040800000090A02080B0C0D070648
:100270000304010000000000000000000000000076
:10028000000000000000000000000000000000006E
:100290000011100F0000000000000000000000002E
:1002A00000000000000000000000006364696E6F41
:1002B00070737578585B00494E46494E4954594E03
:1002C000414ECDCCCC3D0AD7233C17B7D13877CCA3
:1002D0002B329595E6241FB14F0A00002041000003
:1002E000C84200401C4620BCBE4CCA1B0E5AAEC5BC
:1002F0009D742B21104C11241FBECFEFD1E2DEBF25
:10030000CDBF10E1A0E0B2E0E8E4F1EB00E00BBF0C
:1003100002C007900D92A238B107D9F71BBE14E1B5
:10032000A2E8B0E101C01D92A831B107E1F712E0E7
:10033000C6EFD2E004C02297FE010E945C58C23F83
:10034000D107C9F70E94464D0C94A2580C940000A6
:10035000CF93DF93BC018230910510F462E070E02E
:10036000A0911414B0911514ED01E0E0F0E040E02C
:1003700050E021C0888199818617970769F48A81A6
:100380009B81309719F09383828304C09093151456
:1003900080931414FE0134C06817790738F44115AE
:1003A000510519F08417950708F4AC01FE018A8104
:1003B0009B819C01E9012097E9F641155105A9F1BE
:1003C000CA01861B970B049708F4BA01E0E0F0E03D
:1003D0002AC08D919C91119784179507F9F46417A1
:1003E000750781F412968D919C911397309719F0AF
:1003F0009383828304C09093151480931414FD0199
:1004000032964CC0CA01861B970BFD01E80FF91FFD
:100410006193719302978D939C9340C0FD018281FB
:1004200093819C01D9011097A1F6809112149091AB
:100430001314892B41F48091E00F9091E10F909378
:100440001314809312144091E20F5091E30F411561
:10045000510541F44DB75EB78091DE0F9091DF0FEB
:10046000481B590B2091121430911314CA01821B9E
:10047000930B8617970780F0AB014E5F5F4F841791
:10048000950750F0420F531F5093131440931214CA
:10049000F9016193719302C0E0E0F0E0CF01DF91D8
:1004A000CF910895CF93DF93009709F450C0EC01EA
:1004B00022971B821A82A0911414B09115141097E0
:1004C00009F140E050E0AC17BD0708F1BB83AA83F7
:1004D000FE0121913191E20FF31FAE17BF0779F4AE
:1004E0008D919C911197280F391F2E5F3F4F3983B3
:1004F000288312968D919C9113979B838A83411533
:10050000510571F4D0931514C093141420C01296A1
:100510008D919C911397AD01009711F0DC01D3CF21
:10052000FA01D383C28321913191E20FF31FCE17D9
:10053000DF0769F488819981280F391F2E5F3F4FAB
:10054000FA01318320838A819B8193838283DF91A7
:10055000CF910895662777270C94A505FC0188277D
:100560009927E89421912032E9F3293010F02E30B8
:10057000C8F32B3241F02D3239F4689404C00E9444
:10058000EE02820F911D219120532A30C0F31EF4F8
:10059000909581959F4F0895FB01DC0102C0019069
:1005A0000D9241505040D8F708956817790768F4C4
:1005B000FB01DC01E40FF51FA40FB51F02C0029080
:1005C0000E9241505040D8F708950C94CC02DC01B3
:1005D00001C06D9341505040E0F708957AE0979F35
:1005E000902D879F802D910D11240895AEE0B0E0ED
:1005F000ECEFF2E00C947B5885E08C838B899C892E
:100600009A8389839E01295E3F4FCE0101966D89B1
:100610007E89A9010E9494042E96E2E00C949758DA
:10062000FC0120FD08C023FD05C022FF02C073832A
:100630006283518340830895EF92FF920F931F933B
:1006400044FF02C033E011C046FF02C034E00DC0D9
:10065000DB01FC01AA0FBB1FEE1FFF1F1094D1F797
:100660006A0F7B1F8E1F9F1F31E0660F771F881F49
:10067000991F3150D1F77B018C01E20EF11C011D55
:10068000111DA8019701B701CA011F910F91FF9099
:10069000EF9008950F931F93CF93DF938C01C801C0
:1006A0000E942807EC0197FD08C00E946058892B22
:1006B000B1F7CE01B8010E946A07CE01DF91CF9158
:1006C0001F910F910895A0E0B0E0E9E6F3E00C94EB
:1006D0007358EC01C62E5A01122F0E942807AC0154
:1006E0008B3219F08D3251F41068CA9409F46DC040
:1006F000CE010E942807AC0197FD67C06DEFD62E92
:10070000D1228D2D807301F54033F1F4CA9409F4A0
:1007100047C0CE010E942807AC0197FD41C082E08E
:10072000D82A483711F0483559F480E4D82ACA94B9
:10073000B9F1CE010E942807AC0199232CF430C0F6
:10074000D6FC02C080E1D82AEE24FF248701242FA2
:100750002053283088F0D4FC09C02A3068F0D6FE37
:1007600005C02F7D822F8151863028F0CA01BE013D
:100770000E946A0712C02750C801B7014D2D0E9480
:100780001C037B018C0182E0D82ACA9461F0CE015F
:100790000E942807AC0197FFDACFD1FC04C015C036
:1007A000EE24FF248701D7FE08C010950095F09431
:1007B000E094E11CF11C011D111DC501B801A70148
:1007C0002D2D0E94100381E001C080E0CDB7DEB77F
:1007D000EAE00C948F58A0E2B0E0E1EFF3E00C9473
:1007E0006F586C01A62E8A017901FE01319680E2D4
:1007F000DF011D928A95E9F770E030E060E040E0AB
:1008000050E04F01A1E0B0E0F6018381F70183FDE4
:10081000259183FF21917F01222309F47EC02E358B
:1008200019F44115510569F1872F90E08417950758
:1008300044F42D3551F12D3221F4332329F431E0E4
:1008400021C0332309F4622F322F832F869586959A
:100850008695F401E80FF11D832F87703D0102C0DA
:10086000660C771C8A95E2F72081262920833617AB
:1008700011F430E007C0361710F43F5FE6CF315077
:10088000E4CF71E04F5F5F4FBFCF332319F08E810C
:1008900080628E83772359F0FE0131969E012F5D91
:1008A0003F4F808180958193E217F307D1F7BB24F6
:1008B000B3944E010894811C911CC6010E94280724
:1008C000AC0197FD22C0869586958695F401E80FC8
:1008D000F11D808190E09A012770307002C09595DB
:1008E00087952A95E2F780FD05C0CA01B6010E94EE
:1008F0006A070BC00115110519F0D8014D938D0140
:10090000AA94BB24AA20C9F602C0BB2031F4011569
:10091000110529F0F801108202C0EE24FF24C7015E
:10092000A096EEE00C948B58A0E0B0E0EAE9F4E089
:100930000C946F585C016B013A01FC01178216821E
:100940008824EAC0812F90E00E946058892B21F012
:10095000C5010E944A03E0C0153249F4F601F3FCD8
:100960006591F3FE61916F01653269F415E2C5018D
:100970000E94280797FDDCC0181709F4CDC0B50107
:100980000E946A07DAC06A3219F0162F00E006C02A
:10099000F3FC1591F3FE11916F0101E099240FC052
:1009A0000260692D70E080E090E040E20E941C034C
:1009B000962EF601F3FC1591F3FE11916F01212F94
:1009C00020532A3068F301FD03C099249A9403C090
:1009D000992009F4B2C0183621F01C3699F4F601BA
:1009E0000BC0F601F3FC6591F3FE6191683619F0D6
:1009F0006F01162F07C008600460F3FC1591F3FE29
:100A000011916F01112309F498C08BEA92E0612FD4
:100A100070E00E940507892B09F48FC0802F00FF2A
:100A200003C0EE24FF2407C0F301E080F18022E040
:100A300030E0620E731E1E3651F4F5014681578177
:100A400060E070E0C701202F0E94100365C01336DC
:100A500091F481FD02C099249394C5010E94280756
:100A600097FD66C0E114F10419F0F70181937F014D
:100A70009A9499F74FC01B3559F4C501692DA70108
:100A800096010E94EB036C01009709F043C03DC042
:100A9000C5010E944A0397FD4BC01F3659F110371C
:100AA00028F4143629F1193639F527C0133719F00F
:100AB000153711F51DC0C5010E942807EC0197FDEF
:100AC00011C00E946058892B29F0CE01B5010E9407
:100AD0006A0708C0E114F10419F0F701C1937F011E
:100AE0009A9449F7E114F104A9F0F701108212C0B9
:100AF000006203C0006101C00064C501692DA70147
:100B0000202F0E946303882329F4F50183818073D9
:100B100079F413C000FF8394F501F380F601F3FC30
:100B20001591F3FE11916F01112309F00BCF05C050
:100B3000882019F42FEF3FEF02C0282D30E0C901C3
:100B4000CDB7DEB7EEE00C948B58A0E0B0E0EBEA56
:100B5000F5E00C947158EC015B016115710519F019
:100B6000FB0191838083F9908F2D90E00E94605863
:100B7000892BC9F7FDE2FF1621F4F990EE24E394E6
:100B800005C02BE2F21609F4F990EE248E01015013
:100B90001040C80167EB72E043E050E00E9410078C
:100BA000892B01F58E010E5F1F4FC8016AEB72E0C1
:100BB00045E050E00E941007892B19F48E01095F6F
:100BC0001F4FA114B10419F0F50111830083E0FC5B
:100BD00004C070E090E080E814C070E090E080E82D
:100BE0006FEF08C1C8016FEB72E043E050E00E9474
:100BF0001007892B69F4A114B10429F470E090E086
:100C000080EC6FE7F7C02296F501D183C083F6CF61
:100C10008824992440E050E060E070E0EF2DE0533C
:100C2000EA30A0F5F2E0EF2A8E2D90E09C012870CA
:100C30003070E2FE06C0232B79F50894811C911CCC
:100C40002BC0232B19F0089481089108DB01CA01FD
:100C500012E0880F991FAA1FBB1F1A95D1F7480FE2
:100C6000591F6A1F7B1F440F551F661F771F4E0FAA
:100C7000511D611D711D483929E9520729E9620793
:100C800029E1720748F084E0E82A06C0EE3F31F41B
:100C9000E3FC39C098E0E92AF990C0CFE53311F0C0
:100CA000E53189F529912D3219F4E0E1EE2A05C0EC
:100CB0002B3219F081E090E003C0299182E090E0AE
:100CC000E22FE053EA3018F0C81BD90B1CC020E01B
:100CD00030E0FCE020383F075CF4C901880F991F21
:100CE000880F991F280F391F220F331F2E0F311D18
:100CF000E991E053EA3068F3E4FE03C030952195B2
:100D00003F4F820E931ECE2CDD24E1FE07C0A114BE
:100D1000B10421F02197F501D183C083CB01BA0141
:100D20000E9403567B018C01F3E0CF22DD2423E0F7
:100D3000C216D10421F417FB109517F9109557012D
:100D40006801C801B70120E030E040E050E00E94B7
:100D50006355882309F44AC097FE0DC026EDE22EA4
:100D600022E0F22E9094819491089394C0E2D0E016
:100D700000E010E012C09EEEE92E92E0F92EF6CFD0
:100D8000F7012591359145915491C601B5010E9415
:100D900027575B016C018C1A9D0A8C169D0684F7FF
:100DA000D595C7950F5F1F4F0630110529F08CEFC1
:100DB0009FEFE80EF91EF1CFC501D6017C018D0130
:100DC0008C2D880F8D2D881F8F3F51F0C601B501E6
:100DD00020E030E040E050E00E946355882331F489
:100DE00082E290E090931714809316147E2D9F2D2D
:100DF000802F612F272F392F482F562FB901CA0175
:100E0000CDB7DEB7ECE00C948D58FC0105900616CA
:100E100021F00020D9F7C00108953197CF0108953E
:100E2000FB01DC014150504088F08D9181341CF071
:100E30008B350CF4805E659161341CF06B350CF4DD
:100E4000605E861B611171F3990B0895881BFCCFBE
:100E5000CF93DF93EC014B8140FF1AC046FF0AC0DD
:100E60004F7B4B838E819F8101969F838E838A81E6
:100E7000282F2BC042FF13C0E881F9818081282FE1
:100E8000332727FD30952115310529F440624B8326
:100E90002FEF3FEF1BC03196F983E88311C0EA853D
:100EA000FB85CE0109959C0197FF0AC09B812F5FAE
:100EB0003F4F11F080E201C080E1892B8B83E8CFA6
:100EC0008E819F8101969F838E8330E0C901DF91DF
:100ED000CF9108959C01FB01838180FF11C086FDA5
:100EE0000FC09FEF2F3F390759F0228380648F7D19
:100EF00083838681978101979783868330E002C040
:100F00002FEF3FEFC90108959C01245F3F4FC901B6
:100F10000895FC01E350FF4F80E090E0A0E0B0E0D6
:100F200081939193A193B19380839183A283B3839F
:100F30000895FC01E350FF4F2081318142815381AC
:100F4000B901CA010895FC01EF5FFE4F2081318194
:100F500042815381B901CA010895FC01E750FF4F56
:100F6000808191810895FC01E550FF4F808191813E
:100F70000895FC01E550FF4F1182108212921292E7
:100F800008950C960E94240C08950C960E94200C43
:100F900008952F923F924F925F926F927F928F921D
:100FA0009F92AF92BF92CF92DF92EF92FF920F93F8
:100FB0001F93DF93CF93CDB7DEB72C970FB6F8947E
:100FC000DEBF0FBECDBF1C014B0169017A010E943B
:100FD000AC3B2B013C01AA2497FCA094BA2CC50180
:100FE000B4010E940556AB01BC015E010894A11C2E
:100FF000B11CC501930182010E94593CD101F50148
:101000008CE001900D928150E1F7C1010C96F10145
:10101000C080D180E280F3800481158126813781F0
:1010200040855185628573850E94770C2C960FB69A
:10103000F894DEBF0FBECDBFCF91DF911F910F910E
:10104000FF90EF90DF90CF90BF90AF909F908F90E8
:101050007F906F905F904F903F902F900895CF9228
:10106000DF92EF92FF920F931F93DF93CF93CDB751
:10107000DEB72C970FB6F894DEBF0FBECDBFC98286
:10108000DA82EB82FC820D831E832F8338874987A7
:101090005A876B877C87DC01FE0131962CE001903A
:1010A0000D922150E1F70C96C980DA80EB80FC802C
:1010B0000D811E812F81388549855A856B857C85F8
:1010C0000E94770C2C960FB6F894DEBF0FBECDBFF2
:1010D000CF91DF911F910F91FF90EF90DF90CF9014
:1010E00008952F923F924F925F926F927F928F92CC
:1010F0009F92AF92BF92CF92DF92EF92FF920F93A7
:101100001F93DF93CF93CDB7DEB72C970FB6F8942C
:10111000DEBF0FBECDBF1C014B0169017A010E94E9
:10112000A43B2B013C01AA2497FCA094BA2CC50136
:10113000B4010E9405568B019C015E010894A11C1C
:10114000B11CC501B301A2010E94593CD101F501B6
:101150008CE001900D928150E1F7C1010C96F101F4
:10116000C080D180E280F38004811581268137819F
:1011700040855185628573850E94770C2C960FB649
:10118000F894DEBF0FBECDBFCF91DF911F910F91BD
:10119000FF90EF90DF90CF90BF90AF909F908F9097
:1011A0007F906F905F904F903F902F9008950F9396
:1011B0001F938C018A509F4F6CED75E00E9459443B
:1011C000C8018D509F4F6CED75E00E9459441F91EE
:1011D0000F9108959F92AF92BF92CF92DF92EF92BC
:1011E000FF920F931F93CF93DF93EC018C01045F69
:1011F0001F4FC8010E940A0C6C01C8010E94150C07
:101200005C01C8010E94100CF82EC8010E941B0C42
:10121000982EFF2009F450C0B601882777FD8095ED
:10122000982F0E94055620E030E04AEF53E40E94D8
:101230006A5520E030E04AEF53E40E9427577B01D3
:101240008C01992009F050C0B501882777FD809561
:10125000982F0E94055620E030E04AEF53E40E94A8
:101260006A5520E030E04AEF53EC0E942757CA50FD
:10127000DF4F0E94D2559B01AC0124523A4FCE0160
:10128000B9010E9459442397C801B7010E94D25561
:101290009B01AC0124523A4FCE01B9010E9459443E
:1012A000DF91CF911F910F91FF90EF90DF90CF9042
:1012B000BF90AF909F900895B601882777FD8095E5
:1012C000982F0E94055620E030E04AEF53E40E9438
:1012D0006A5520E030E04AEF53EC0E9427577B012B
:1012E0008C01992009F4B0CFB501882777FD80954E
:1012F000982F0E94055620E030E04AEF53E40E9408
:101300006A5520E030E04AEF53E40E942757AFCF00
:10131000CF92DF92EF92FF920F931F938C01609117
:1013200086107091871080918810909189100E948A
:101330000556F801E951FF4F2081318142815381E7
:101340000E9427576B017C0160918210709183107D
:1013500080918410909185100E940556F801ED51FE
:10136000FF4F20813181428153810E9427579B0189
:10137000AC01C701B6010E94D654F801E551FF4FF8
:1013800020813181428153810E9427576B017C016A
:10139000C8010E94B43BA70196010E94D754AB013B
:1013A000BC01C8010E94BC3B1F910F91FF90EF90C0
:1013B000DF90CF9008952F923F924F925F926F925D
:1013C0007F928F929F92AF92BF92CF92DF92EF92D5
:1013D000FF920F931F93DF93CF9300D000D0CDB730
:1013E000DEB76C010E9488096090821070908310B3
:1013F00040908610509087101092821010928310A7
:1014000010928410109285101092861010928710FE
:101410001092881010928910B301882777FD80956B
:10142000982F0E94055669837A838B839C83B2012F
:10143000882777FD8095982F0E9405564B015C0107
:10144000C6018D519F4F9E838D8369817A818B81E7
:101450009C81ED81FE8120813181428153810E94F6
:1014600027577B018C0197EE292E312C2C0C3D1C2B
:10147000C501B401F10120813181428153810E9473
:1014800027579B01AC01C801B7010E94D75420E047
:1014900030E040E05FE30E942757AB01BC01C6018A
:1014A0000E94BA3E86010F5F1E4FC501B401F101D3
:1014B00020813181428153810E9427579B01AC01D9
:1014C000F80160817181828193810E94D754F80173
:1014D0006083718382839383860103501F4F6981E8
:1014E0007A818B819C81ED81FE81208131814281D5
:1014F00053810E9427579B01AC01F80160817181E3
:10150000828193810E94D754F80160837183828322
:101510009383F601E750FF4F80819181680E791E19
:1015200071826082F601E550FF4F80819181480E03
:10153000591E5182408281EF90E0C80ED91E8091E1
:10154000861090918710F60191838083809182109C
:10155000909183109293829326960FB6F894DEBFF3
:101560000FBECDBFCF91DF911F910F91FF90EF90F4
:10157000DF90CF90BF90AF909F908F907F906F90B3
:101580005F904F903F902F900895CF92DF92EF920F
:10159000FF920F931F93CF93DF93EC018C010D52B9
:1015A0001F4FC8010E94B03F882339F58E010552B4
:1015B0001F4FC8010E94B03F8823B1F0C8010E94AC
:1015C000CF3FCE010C96C880D980EA80FB800C8189
:1015D0001D812E813F81488559856A857B850E94C2
:1015E0007713CE010E94EA08DF91CF911F910F91EE
:1015F000FF90EF90DF90CF900895C8010E94CF3FF9
:10160000CE010E94DB09D2CFCF92DF92EF92FF9200
:101610000F931F938C010E94473CC8010C960E94B7
:101620004E14C8018D529F4F6AE070E00E94DC3F6B
:10163000C80185529F4F68E270E00E94DC3F0D5167
:101640001F4F8DEC9BE2A1ECBEE3F80181939193D7
:10165000A193B1938CE89FE1A2ECBEE381939193B7
:10166000A193B1938DEF99E6A3EABBE381939193A4
:10167000A193B193119211928F0111821082015F97
:10168000104033EFC32ED12CC00ED11EC6010E94D4
:101690003F4426EFE22EF12CE00EF11EC7010E941E
:1016A0003F4407501F4FF80111921192119211926D
:1016B00080E090E0A0E0B0E081939193A193B1939A
:1016C0008F0180839183A283B383015011401092D4
:1016D0008210109283101092841010928510109234
:1016E0008610109287101092881010928910C801ED
:1016F0000E94EA08C70166E070E00E945345C601F7
:1017000067E070E00E945345C8010E94D7081F910E
:101710000F91FF90EF90DF90CF900895CF93DF93DC
:10172000DC01BC0167587F4FFC01E158FF4FA35813
:10173000BF4F208131818D919C911197AD57B04061
:10174000A901480F591FEB0159834883FD01E55852
:10175000FF4F821B930B91838083CD018F579F4F47
:1017600020E0141615060CF053C0EC012883AE5788
:10177000BF4F20E080819181181619060CF046C0F9
:101780002C93DB012D913C91119737FD2EC02081C8
:10179000318137FD34C0EB01888199818B3F910500
:1017A00024F08AEF90E099838883808191818B3F38
:1017B000910524F08AEF90E091838083DB018D9185
:1017C0009C9186509F4F2CF486E09FEFEB0199830C
:1017D00088838081918186509F4F24F486E09FEF1B
:1017E00091838083DF91CF91089588279927821B69
:1017F000930B8D939C932081318137FFCCCF882729
:101800009927821B930B91838083C5CF21E0B8CFAA
:1018100021E0ABCFFC01E758FF4F80819181089513
:10182000FC01EF57FF4F80810895FC01E558FF4F01
:10183000808191810895FC01EE57FF4F80810895CA
:1018400021E0FC0120A30895FC0110A20895EF926D
:10185000FF920F931F937C0101E713E1C80160E041
:1018600072E00E94FE4EC70185960E947340C80137
:1018700069E072E00E94FE4EC701815B9F4F0E94AB
:101880007340C80162E172E00E94DF4EC7018F56CB
:101890009F4F0E94B142C80169E172E00E94DF4E91
:1018A000C70184559F4F0E94B1421F910F91FF9035
:1018B000EF900895EF92FF920F931F937C0101E741
:1018C00013E1C80160E272E00E94DF4EC7010E948E
:1018D0005E3FC80169E272E00E94DF4EC7010C96CC
:1018E0000E945E3F1F910F91FF90EF900895CF925D
:1018F000DF92EF92FF920F931F93DF93CF93CDB7B9
:10190000DEB72C970FB6F894DEBF0FBECDBFC982ED
:10191000DA82EB82FC820D831E832F83388749870E
:101920005A876B877C87DC01FE0131962CE00190A1
:101930000D922150E1F7DC011C96FC012CE0019096
:101940000D922150E1F70E945A0C2C960FB6F89494
:10195000DEBF0FBECDBFCF91DF911F910F91FF90E2
:10196000EF90DF90CF900895CF93DF93EC018BA1A0
:101970009CA18130910591F0029769F481E090E09B
:101980009CA38BA3CE010E945A0C81E793E163E3F1
:1019900072E00E94FE4EDF91CF91089583E090E0C7
:1019A0009CA38BA3CE010E945A0C81E793E16AE3CA
:1019B00072E00E94FE4E1AA219A2DF91CF91089503
:1019C000CF92DF92EF92FF920F931F93815B9F4F15
:1019D0000E9451401F910F91FF90EF90DF90CF90A8
:1019E0000895CF92DF92EF92FF920F931F93859607
:1019F0000E9451401F910F91FF90EF90DF90CF9088
:101A000008952F923F924F925F926F927F928F92A2
:101A10009F92AF92BF92CF92DF92EF92FF920F937D
:101A20001F93DF93CF93CDB7DEB7A4970FB6F8948B
:101A3000DEBF0FBECDBF4C011E010894211C311C1E
:101A4000C1010E94273D2DB73EB72C5030400FB644
:101A5000F8943EBF0FBE2DBF29E0622E712C6C0E94
:101A60007D1EADB7BEB71196C4010C969CA38BA387
:101A7000FC018CE001900D928150E1F7C301F4016B
:101A8000C080D180E280F380048115812681378176
:101A900040855185628573850E94353DD101F301F2
:101AA00088E001900D928150E1F72DB73EB7245F99
:101AB0003F4F0FB6F8943EBF0FBE2DBFF40181A17A
:101AC00092A18130910521F1823091050CF447C239
:101AD0008230910509F49AC1039709F4BEC0A49617
:101AE0000FB6F894DEBF0FBECDBFCF91DF911F912F
:101AF0000F91FF90EF90DF90CF90BF90AF909F90AD
:101B00008F907F906F905F904F903F902F900895AF
:101B10009FE4692E712C680C791CCE014196F4016A
:101B2000C080D180E280F3800481158126813781D5
:101B300040855185628573850E94803EC101098977
:101B40001A892B893C894D895E896F89788D0E941D
:101B50009B3DAB01BC01C3010E9444412DE730E035
:101B6000820E931E0E94D255F4017183608323E894
:101B70003FEF820E931EF40183A194A1019709F413
:101B8000AEC1C1010E941D3E7B018C018BA19CA1B5
:101B90000E94B43B9B01AC01C801B7010E94E13D2A
:101BA00020E030E040E050E00E941C5718160CF096
:101BB00049C1C1010E941D3E7B018C018BA19CA1EA
:101BC0000E94B43B9B01AC01C801B7010E94E13DFA
:101BD0002BED3FE049EC5FE30E941C5718160CF018
:101BE00049C1C1010E941D3E84010B5D1F4F2BEDB9
:101BF0003FE049E450E40E94D754AB01BC01C80166
:101C00000E944B40C4010E94B43BAB01BC01C8011F
:101C10000E9444412FE730E0820E931E0E94D2556D
:101C2000F4017183608321E83FEF820E931EF4017B
:101C300063A174A1C3010E942E41882309F44FCFF0
:101C4000F40163A174A1C8010E942E41882309F404
:101C500046CFC4010E94B40C42CFC1010E94033F91
:101C600020E030E040E050E00E941C5718160CF0D5
:101C70003BC1C1010E94033F20E030E048E452E450
:101C80000E946A5520E030E040E050E40E941C577A
:101C900018160CF0FBC0C1010E94033F20E030E0A9
:101CA00040E050E00E941C5718160CF03CC1C101E6
:101CB0000E94033F20E030E048E452E40E946A556D
:101CC00020E030E040E050E40E941C5718160CF071
:101CD00013C10F2EF0E04F2EF0E05F2EF0E06F2EDC
:101CE000F0E47F2EF02D23E830E0820E931EF40105
:101CF000808191812DE73FEF820E931E059754F06E
:101D00000F2EF0E04F2EF0E05F2EF0E06F2EF0E0AF
:101D10007F2EF02DC40185969AA389A3C4010E9449
:101D2000B43B5B016C01C1010E941D3E7B018C0133
:101D30008BA19CA10E94B43B9B01AC01C801B701DF
:101D40000E94E13DA30192010E9427579B01AC0133
:101D5000C601B5010E94D654AB01BC0189A19AA16C
:101D60000E944441EFE7F0E08E0E9F1E0E94D25584
:101D7000F4017183608321E83FEF820E931E8FE4AC
:101D8000A82EB12CA80CB91CCE014996F401C08034
:101D9000D180E280F38004811581268137814085DE
:101DA0005185628573850E94803EC101098D1A8D1F
:101DB0002B8D3C8D4D8D5E8D6F8D78A10E949B3D4E
:101DC000AB01BC01C5010E9444412DE730E0820E09
:101DD000931E0E94D255F4017183608323E83FEF84
:101DE000820E931EF40163A174A1C5010E942E41CD
:101DF000882309F474CEF40163A174A189A19AA186
:101E00000E942E41882309F46ACE23CF84010B5D02
:101E10001F4FC4010E94B43BAB01BC01C8010E942A
:101E200044412FE730E0820E931E0E94D255F40108
:101E300071836083129212924F0123E83FEF820E6A
:101E4000931EFECEC1010E941D3E7B018C018BA121
:101E50009CA10E94B43B9B01AC01C801B7010E9448
:101E6000E13D2BED3FE049EC5FEB0E946355882399
:101E70000CF4B7CEC1010E941D3EAB01BC01840130
:101E80000B5D1F4FC8010E944B40BCCEC1010E9498
:101E9000033F20E030E040E050E00E941C5718165D
:101EA0000CF049C0C1010E94033F20E030E048E44B
:101EB00052E40E946A552DEC3CEC4CEC5DE30E9430
:101EC0001C5718160CF4E7CE0F2EFDEC4F2EFCEC31
:101ED0005F2EFCEC6F2EFDE37F2EF02D04CF8BA147
:101EE0009CA10E94B43BC9CFC1010E94033F20E0E6
:101EF00030E048E452ECC4CEC1010E94033F20E030
:101F000030E040E050E00E941C571816E4F4C10194
:101F10000E94033F20E030E048E452E40E946A550A
:101F20002B013C01E0CEC1010E94033F20E030E0E4
:101F300048E452ECC3CEC1010E94033F20E030E0F0
:101F400048E452ECB6CFC1010E94033F20E030E0EC
:101F500048E452EC0E946A552B013C01C4CE892B07
:101F600009F0BDCD2FE730E0820E931EF4011182FF
:101F7000108212921292B3CD2F923F924F925F92A3
:101F80006F927F928F929F92AF92BF92CF92DF9289
:101F9000EF92FF920F931F93DF93CF93CDB7DEB7EE
:101FA00064970FB6F894DEBF0FBECDBF4C01A98673
:101FB000BA86CB86DC86ED86FE860F87188B298B4A
:101FC0003A8B4B8B5C8B83E890E0880E991EF40172
:101FD000118210828DE79FEF880E991EF40172A383
:101FE00061A382E090E094A383A355E2452E512C97
:101FF000480C591CC2010E946B404FE4642E712CA6
:10200000680C791CC3010E946B40F40181A192A16C
:102010008130910509F44AC0823091050CF4ADC0BD
:1020200082309105D9F0039771F164960FB6F89458
:10203000DEBF0FBECDBFCF91DF911F910F91FF90FB
:10204000EF90DF90CF90BF90AF909F908F907F9058
:102050006F905F904F903F902F9008958401045FA0
:102060001F4FCE0109960E94B43BAB01BC01C801D1
:102070000E94BC3BC8010E94B43BAB01BC01C20141
:102080000E944B40D2CF8401045F1F4FD801FE0154
:1020900039968CE001900D928150E1F7C30140E048
:1020A00050E060E070E00E944B40E4CF3CE0232E23
:1020B000312C280C391CCE0109960E94A43BAB019F
:1020C000BC01C1010E94BA3E8DB79EB70C970FB6F6
:1020D000F8949EBF0FBE8DBFADB7BEB71196F1018C
:1020E0008CE001900D928150E1F75E010894A11CF3
:1020F000B11CC501F401C080D180E280F38004816D
:1021000015812681378140855185628573850E94BE
:10211000353D8401085E1F4FD801F50188E001902C
:102120000D928150E1F78DB79EB70C960FB6F894DB
:102130009EBF0FBE8DBFCE0109960E94A43B20E03A
:1021400030E040E050E00E94635588231CF4C80151
:102150000E94873DC8010E94313FC30140E050E02A
:1021600060E070E00E944B40C1010E94B43BAB01B3
:10217000BC01C2010E944B4058CF892B09F055CFBA
:1021800081E793E162E472E00E94FE4E4ECF6F92CF
:102190007F928F929F92AF92BF92CF92DF92EF92F7
:1021A000FF920F931F93DF93CF93CDB7DEB7EC97DA
:1021B0000FB6F894DEBF0FBECDBF5C014E01089490
:1021C000811C911CC4010E94273D8DB79EB70C97BE
:1021D0000FB6F8949EBF0FBE8DBFF9E06F2E712C25
:1021E0006C0E7D1EADB7BEB71196F5013C968CE026
:1021F00001900D928150E1F7C301F501C080D180BB
:10220000E280F380048115812681378140855185E4
:10221000628573850E94353DD401F30188E0019009
:102220000D928150E1F78DB79EB70C960FB6F894DA
:102230009EBF0FBE8DBFCE014196F501C080D180FB
:10224000E280F380048115812681378140855185A4
:10225000628573850E94803EC40109891A892B8991
:102260003C894D895E896F89788D0E949B3D20E075
:1022700030E040E050E00E94635587FD64C0E1E932
:102280008E2E912C8A0C9B1CC401F501C080D1803C
:10229000E280F38004811581268137814085518554
:1022A000628573850E94BD42882309F461C07CEA7F
:1022B000672E712C6A0C7B1CC301F501C080D18094
:1022C000E280F38004811581268137814085518524
:1022D000628573850E94BD428823A1F0CE01499694
:1022E000B3010E940D42C401C98CDA8CEB8CFC8CCA
:1022F0000D8D1E8D2F8D38A149A15AA16BA17CA1F6
:102300000E941842C5010E945A0CC4010E946C42EE
:10231000CE0185960E94473CC50160E070E0ADA00B
:10232000BEA0CFA0D8A4E9A4FAA40BA51CA52DA5F6
:102330003EA54FA558A90E94BC0F81E793E167E431
:1023400072E00E94FE4EEC960FB6F894DEBF0FBE10
:10235000CDBFCF91DF911F910F91FF90EF90DF9054
:10236000CF90BF90AF909F908F907F906F90089587
:102370006CEA862E912C8A0C9B1CC401F501C0804E
:10238000D180E280F38004811581268137814085E8
:102390005185628573850E94BD428823A1F2C501E3
:1023A0000E945A0CC4010E946C42CE01C1960E9448
:1023B000473CC50160E070E0A9A8BAA8CBA8DCA89A
:1023C000EDA8FEA80FA918AD29AD3AAD4BAD5CAD97
:1023D0000E94BC0F81E793E167E572E00E94FE4E28
:1023E000B2CF4F925F926F927F928F929F92AF92F5
:1023F000BF92CF92DF92EF92FF920F931F93DF93E2
:10240000CF93CDB7DEB764970FB6F894DEBF0FBE9B
:10241000CDBF3C01B5E84B2E512C480E591EC201D0
:10242000F301C080D180E280F38004811581268190
:10243000378140855185628573850F2EFAE98F2E8D
:10244000F9E99F2EF9E9AF2EFEE3BF2EF02D0E9491
:10245000733C4DB75EB74C5050400FB6F8945EBF1A
:102460000FBE4DBFADB7BEB71196F2018CE0019023
:102470000D928150E1F75E010894A11CB11CC501C9
:10248000F301C080D180E280F38004811581268130
:10249000378140855185628573850E94353D4FE7C0
:1024A00050E0640E751EF3012081318141E85FEF39
:1024B000640E751E37FD17C18DE790E0680E791E1A
:1024C000F3018081918143E85FEF640E751E97FDF3
:1024D00006C1280F391F8DB79EB70C960FB6F8941A
:1024E0009EBF0FBE8DBF2233310594F0C5010E94FF
:1024F000033F20E030E040E251E40E94635588232E
:10250000F4F043E850E0640E751EF301118210826E
:1025100064960FB6F894DEBF0FBECDBFCF91DF91AA
:102520001F910F91FF90EF90DF90CF90BF90AF90F1
:102530009F908F907F906F905F904F900895D62CD2
:10254000C72CC3010E94B43B7B018C01C2010E94D5
:10255000B43B9B01AC01C801B7010E94D65420E0F6
:1025600030E040E050E00E941C5718160CF08BC081
:10257000C3010E94B43B7B018C01C2010E94B43BA9
:102580009B01AC01C801B7010E94D6542DEC3CEC74
:102590004CE45DE30E94635587FFB3CFA3E88A2E26
:1025A000912C860C971CF401808191810196918376
:1025B000808381E793E167E672E00E94DF4E8D2D14
:1025C0009C2D0E94B43B7B018C01C2010E94B43B54
:1025D0009B01AC01C801B7010E94D65420E030E055
:1025E00040E050E00E941C5718160CF064C08D2D7E
:1025F0009C2D0E94B43B7B018C01C2010E94B43B24
:102600009B01AC01C801B7010E94D65420E030E024
:1026100048EC52E40E942757A62F482F692F81E7E4
:1026200093E12A2F372FE42FF62FA901BF0122E0D3
:1026300030E00E944B50F401808191810B970CF4A3
:1026400067CFC3010E945A0C81E793E167E772E00C
:102650000E94FE4ECE0109960E94473CC30160E0F5
:1026600070E0A984BA84CB84DC84ED84FE840F8579
:10267000188929893A894B895C890E94BC0FF40129
:102680001182108245CFC3010E94B43B7B018C01B3
:10269000C2010E94B43B9B01AC01C801B7010E947A
:1026A000D6542DEC3CEC4CE45DEB0E941C57181604
:1026B0000CF027CF73CF8D2D9C2D0E94B43B7B0156
:1026C0008C01C2010E94B43B9B01AC01C801B7015F
:1026D0000E94D65420E030E048EC52EC9BCF90951D
:1026E00081959F4FF6CE309521953F4FE5CEAF9225
:1026F000BF92CF92DF92EF92FF920F931F93DF93DF
:10270000CF93CDB7DEB72C970FB6F894DEBF0FBED0
:10271000CDBF5C01C982DA82EB82FC820D831E830D
:102720002F83388749875A876B877C87DC01FE01B6
:1027300031968CE001900D928150E1F7C5010E9425
:10274000010DC5010E948E0BF50181A192A181307E
:102750009105B9F0892B89F42C960FB6F894DEBF59
:102760000FBECDBFCF91DF911F910F91FF90EF90E2
:10277000DF90CF90BF90AF900895C5010E94F111F6
:10278000EBCF80A18823C9F3C5010E94C710F501D2
:1027900081A192A1DFCFCF93DF93EC01613071056E
:1027A00089F162307105C1F0672B99F481E793E1FB
:1027B0006EE772E00E94FE4ECE01815B9F4F66E99C
:1027C00070E00E944140CE01859666E970E00E946B
:1027D0004140DF91CF91089581E793E16CE972E088
:1027E0000E94FE4ECE01815B9F4F6AEF70E00E9417
:1027F0004140CE0185966AEF70E00E944140DF9132
:10280000CF91089581E793E16CE872E0E9CFAF9250
:10281000BF92CF92DF92EF92FF920F931F93DF93BD
:10282000CF93CDB7DEB72C970FB6F894DEBF0FBEAF
:10283000CDBF5C0160E070E00E94CB13CE01019639
:1028400040E050E06AE774EC00E010E020E030E0A7
:10285000680179010E94593CC50161E070E0A980DE
:10286000BA80CB80DC80ED80FE800F8118852985C1
:102870003A854B855C850E94BC0F2C960FB6F89468
:10288000DEBF0FBECDBFCF91DF911F910F91FF90A3
:10289000EF90DF90CF90BF90AF9008958F929F926E
:1028A000AF92BF92CF92DF92EF92FF920F931F935E
:1028B000DF93CF93CDB7DEB768970FB6F894DEBF3E
:1028C0000FBECDBF4C010E94473CC4010C960E9434
:1028D000473CC40148960E94273DF40110A212A271
:1028E00011A283E090E094A383A38DB79EB70897CD
:1028F0000FB6F8949EBF0FBE8DBF87EA97EEAEE08D
:10290000BEE3EDB7FEB781839283A383B48387EAE6
:1029100097EEAEE8BDE385839683A783B087C401B5
:10292000859661E020E030E040E253E40F2EF0E0D5
:10293000EF2EF0E0FF2EF0E00F2FF0E01F2FF02D34
:10294000570168010E94F23F80E090E0ACE8B2E4F9
:10295000EDB7FEB781839283A383B48380E090E0D8
:10296000A0EAB1E485839683A783B087C401815B25
:102970009F4F60E020E030E040E450E40E94F23FEE
:1029800089E790E0880E991EF401119211924F018F
:102990001182108286E090E0880E991E81E0F40199
:1029A000819381934F01118210828DE79FEF880EF2
:1029B000991EEDB7FEB738960FB6F894FEBF0FBE5E
:1029C000EDBFC4018B579F4F0E94473CCE0101963B
:1029D00040E050E068EC72E400E010E02FE133ECFE
:1029E000760165010E94593CC4018F569F4F6CE3EC
:1029F00070E0A980BA80CB80DC80ED80FE800F8102
:102A0000188529853A854B855C850E94D943CE017E
:102A10000D9640E050E068EC72E400E010E02FE139
:102A200033E40F2EF0E0CF2EF0E0DF2EF0E0EF2EBB
:102A3000F0E0FF2EF02D0E94593CC40184559F4FB9
:102A40006DE370E0AD84BE84CF84D888E988FA88CD
:102A50000B891C892D893E894F89588D0E94D94345
:102A6000C40160E070E00E94CB1368960FB6F89442
:102A7000DEBF0FBECDBFCF91DF911F910F91FF90B1
:102A8000EF90DF90CF90BF90AF909F908F90089580
:102A900087E10E949E54019739F1809186109091B0
:102AA0008710A0918810B09189100197A109B109F0
:102AB0008093861090938710A0938810B09389100C
:102AC0008091961090919710A0919810B0919910C4
:102AD0000197A109B1098093961090939710A09344
:102AE0009810B09399100895809186109091871056
:102AF000A0918810B09189100196A11DB11D8093FD
:102B0000861090938710A0938810B09389108091BD
:102B1000961090919710A0919810B09199100196ED
:102B2000A11DB11D8093961090939710A0939810BB
:102B3000B0939910089586E10E949E54019739F14F
:102B40008091821090918310A0918410B091851093
:102B50000196A11DB11D8093821090938310A093C4
:102B60008410B09385108091921090919310A09151
:102B70009410B09195100196A11DB11D80939210F3
:102B800090939310A0939410B09395100895809112
:102B9000821090918310A0918410B09185100197BC
:102BA000A109B1098093821090938310A09384109F
:102BB000B09385108091921090919310A0919410F1
:102BC000B09195100197A109B1098093921090934B
:102BD0009310A0939410B093951008959C01215EDA
:102BE0003F4FC90108959C01255E3F4FC9010895DB
:102BF0009C012D5D3F4FC90108959C012B593F4F0A
:102C0000C90108959C0129553F4FC90108959C01B0
:102C100026553F4FC90108959C0123553F4FC901D7
:102C2000089508959C01285E3F4FC9010895EF92D1
:102C3000FF920F931F938C0181E7E82E83E1F82E1A
:102C4000C7016AEA72E00E94FE4EC70161EC72E0C1
:102C50000E94DF4EF80166857785C7014AE050E0A3
:102C60000E94C04E1F910F91FF90EF900895EF9238
:102C7000FF920F931F93CF93DF93EC018EAD8823C8
:102C800041F480E0DF91CF911F910F91FF90EF9081
:102C90000895EAACFBAC0CAD1DAD0E94AF52E61638
:102CA000F7060807190768F71EAE81E0DF91CF919C
:102CB0001F910F91FF90EF900895CF92DF92EF92C6
:102CC000FF920F931F936C017B010E94AF5200276C
:102CD000F7FC0095102FE60EF71E081F191FF601CE
:102CE000E2AEF3AE04AF15AF81E086AF1F910F9156
:102CF000FF90EF90DF90CF900895EF92FF920F93A7
:102D00001F93CF93DF93EC018D85882341F480E0FE
:102D1000DF91CF911F910F91FF90EF900895E9847B
:102D2000FA840B851C850E94AF52E616F706080749
:102D3000190768F71D8681E0DF91CF911F910F91F0
:102D4000FF90EF900895CF92DF92EF92FF920F9352
:102D50001F936C017B010E94AF520027F7FC009586
:102D6000102FE60EF71E081F191FF601E186F286E6
:102D70000387148781E0858781E793E160ED72E046
:102D80000E94DF4E1F910F91FF90EF90DF90CF9048
:102D90000895AF92BF92CF92DF92EF92FF920F937E
:102DA0001F93CF93DF93EC010E94AF525B016C0144
:102DB000EC84FD840E851F85CE010E94B03F8823E0
:102DC00059F4DF91CF911F910F91FF90EF90DF9019
:102DD000CF90BF90AF900895CE010E94CF3FB50134
:102DE0006E197F09882777FD8095982F0E940556D8
:102DF0007B018C0120E030E040E050E00E941C5755
:102E00001816FCF68889882339F560919E10709118
:102E10009F108091A0109091A1100E94055620E073
:102E200030E048EC52E40E942757A80197010E9425
:102E30006A55688779878A879B8710929E101092BF
:102E40009F101092A0101092A1100E94AF526C8798
:102E50007D878E879F87B5CF60919A1070919B1068
:102E600080919C1090919D100E94055620E030E0CA
:102E700048EC52E40E942757A80197010E946A5526
:102E8000688779878A879B8710929A1010929B1087
:102E900010929C1010929D10D8CFFF920F931F9309
:102EA0008C01F62E64E670E00E94DC3FF801F08AA7
:102EB0001F910F91FF9008956CED75E00E945944A9
:102EC0000895FC018485882331F4CF0168E077E020
:102ED0000E9459440895CF0168EE73E00E9459445E
:102EE00008956CED75E00E9459440895FC018485B5
:102EF000882331F4CF0160EB74E00E9459440895B7
:102F0000CF0160ED77E00E9459440895FC01838170
:102F1000882331F4CF016AEF75E00E945944089587
:102F2000CF0166EF74E00E9459440895FC0183814B
:102F3000882331F4CF0168EB76E00E94594408956C
:102F4000CF0160E274E00E9459440895FC0183813E
:102F5000882331F4CF016CE974E00E94594408954C
:102F6000CF0160E476E00E94594408956CE474E077
:102F70000E945944089562ED75E00E9459440895F5
:102F80006FE077E00E945944089564E276E00E9481
:102F9000594408956EED73E00E945944089567EE18
:102FA00077E00E9459440895CF93DF93EC018E851A
:102FB0009F858330910509F486C084309105CCF05B
:102FC0008530910509F457C08530910554F5CE013F
:102FD00060E273E00E94A316CE0103960E94C01720
:102FE00081E793E16CE473E00E94FE4EDF91CF91A4
:102FF00008958130910509F450C0823091052CF17B
:10300000CE0160E273E00E94A316CE010E94B617C3
:1030100081E793E16BE173E00E94FE4EDF91CF9177
:1030200008950697D9F7CE0160E273E00E94A316D7
:10303000CE0103960E94C51781E793E160E873E033
:103040000E94FE4EDF91CF910895892B39F7CE0172
:1030500003960E94C017CE010E94BB17CE010696B0
:103060000E94CA1781E793E16EED72E00E94FE4E66
:10307000DF91CF910895CE0160E273E00E94A31624
:10308000CE0106960E94CA1781E793E166E673E0D7
:103090000E94FE4EDF91CF910895CE0160E273E071
:1030A0000E94A316CE0103960E94C517CE01069674
:1030B0000E94CF1781E793E16DEF72E00E94FE4E10
:1030C000DF91CF910895CE0160E273E00E94A316D4
:1030D000CE010E94BB1781E793E163E373E00E9496
:1030E000FE4EDF91CF9108950F931F93CF93DF93FF
:1030F0008C01EB0181E793E16CE973E00E94FE4EE5
:1031000081E793E16DE973E00E94DF4E81E793E18F
:10311000BE014AE050E00E94C04ECE0101970297E6
:1031200008F479C0209709F450C081E793E164E086
:1031300074E00E94DF4EF8016685778581E793E1B0
:103140004AE050E00E94C04EF801868597858330A2
:10315000910509F474C08430910584F0853091059F
:1031600009F476C0853091050CF044C0CD2B41F5B3
:1031700085E090E0F801978786870EC08130910541
:1031800009F46FC082309105ECF1CD2BC9F483E0D6
:1031900090E0F8019787868781E793E164E274E025
:1031A0000E94DF4EF8016685778581E793E14AE06A
:1031B00050E00E94C04EF8011586C8010E94D41745
:1031C000DF91CF911F910F91089581E793E16BEB10
:1031D00073E00E94FE4E81E793E162EE73E00E948D
:1031E000DF4E81E793E160E070E04AE050E00E944A
:1031F000C04E9BCF069721F7CD2B11F7F80117860C
:103200001686CACF892BE1F6C130D105C9F6F8017F
:10321000D787C687C1CF81E793E16BEB73E00E944C
:10322000FE4E81E793E16DEB73E00E94DF4E81E794
:1032300093E1BE014AE050E00E94C04E73CFCD2B17
:1032400009F0BECF84E090E0F80197878687A4CF8D
:10325000229709F0B5CF86E090E0F801978786873E
:103260009BCFCD2B09F0ACCF82E090E0F80197879F
:10327000868792CF0F931F93CF93DF938C01EC013E
:103280006096CE010E94B03F882329F4DF91CF9150
:103290001F910F910895CE010E94CF3FC8010E9457
:1032A0007D16882399F3C80160E070E00E947418CD
:1032B000DF91CF911F910F9108956AE377E00E940B
:1032C0005944089564E276E00E9459440895FC014F
:1032D0008081882339F4CF0101966AE678E00E9464
:1032E00059440895CF0101966DE574E00E94594458
:1032F0000895FC018081882339F4CF01019665E9A6
:1033000077E00E9459440895CF01019661EE74E080
:103310000E9459440895FC018081882339F4CF012B
:10332000019661EA75E00E9459440895CF01019623
:1033300068E677E00E9459440895FC018081882363
:1033400039F4CF01019663E974E00E94594408956D
:10335000CF0101966AE177E00E9459440895FC018B
:103360008081882339F4CF01019669E477E00E94D7
:1033700059440895CF0101966DE674E00E945944C6
:103380000895CF93DF93EC01EF96E881F981EF97F1
:10339000E731F105E0F4EE58FF4FEE0FFF1F059007
:1033A000F491E02D1994CF5BDF4F8881C154D04058
:1033B000882309F481C184E690E0988B8F8781E0AF
:1033C0008E8781E793E162E976E00E94FE4EDF910D
:1033D000CF910895CE0168EC70E00E945D16CE0199
:1033E00001960E949617CE0143960E946719CE015E
:1033F00047960E949D1981E793E164E776E00E9479
:10340000FE4EE5CFCE0168EC70E00E945D16CE0165
:1034100043960E948B19CE0147960E94AF1981E70F
:1034200093E163E576E00E94FE4ED1CFCE01019696
:103430000E9496178FEF9FEF988B8F8781E08E8782
:1034400081E793E162E376E00E94FE4EC0CFCE01B9
:1034500068EC70E00E945D16CE0101960E94A617EE
:1034600081E793E163E176E00E94FE4EB0CFCE01AA
:1034700068EC70E00E945D1681E793E164EF75E00F
:103480000E94FE4EA4CF84E690E0988B8F8781E067
:103490008E8781E793E163ED75E00E94FE4E97CF42
:1034A000CE0168EC70E00E945D16CE0101960E948C
:1034B000961781E793E162EB75E00E94FE4E87CF9D
:1034C000188A1F8681E08E8781E793E161E975E0C4
:1034D0000E94FE4E7CCFCE0168EC70E00E945D162B
:1034E000CE0143960E946719CE0147960E949D190E
:1034F000CE0101960E94861781E793E160E775E0AF
:103500000E94FE4E64CFCE0168EC70E00E945D1612
:10351000CE0143960E946719CE0147960E949D19DD
:1035200081E793E163E575E00E94FE4E50CFCE0146
:1035300068EC70E00E945D1681E793E168E375E056
:103540000E94FE4E44CFCE0168EC70E00E945D16F2
:10355000CE0143960E948B19CE0147960E94AF1967
:1035600081E793E161E275E00E94FE4E30CF8FEF7C
:103570009FEF988B8F8781E08E8781E793E168E0EA
:1035800075E00E94FE4E23CFCE0168EC70E00E94F1
:103590005D16CE0101960E94961781E793E16FEECA
:1035A00074E00E94FE4E13CF188A1F8681E08E873A
:1035B00081E793E16AED74E00E94FE4E08CFCE01F0
:1035C00068EC70E00E945D16CE0101960E9486179D
:1035D000CE0143960E94791981E793E163EC74E090
:1035E0000E94FE4EF4CECE0168EC70E00E945D16A3
:1035F000CE0101960E94861781E793E16BEA74E0A1
:103600000E94FE4EE4CECE0168EC70E00E945D1692
:1036100081E793E161E974E00E94FE4ED8CECE01CD
:1036200068EC70E00E945D1681E793E16DE774E05D
:103630000E94FE4ECCCECE0168EC70E00E945D167A
:10364000CE0143960E948B19CE0147960E94AF1976
:1036500081E793E16BE674E00E94FE4EB8CECE01A6
:1036600068EC70E00E945D16CE0143960E946719D7
:10367000CE0147960E949D1981E793E163E574E0CE
:103680000E94FE4EA4CECE0101960E9496178FEFA7
:103690009FEF988B8F8781E08E87CE0143960E94A3
:1036A0008B19CE0147960E94AF1981E793E160E440
:1036B00074E00E94FE4E8BCE188A1F8681E08E87B2
:1036C00080CEEF92FF920F931F93CF93DF937C01F5
:1036D000EB0181E793E16CE973E00E94FE4E81E724
:1036E00093E160EB76E00E94DF4E81E793E1BE015B
:1036F0004AE050E00E94C04EC130D10561F0C330B5
:10370000D10549F0C430D10531F0C530D10519F0EB
:10371000C630D10599F481E793E16BEB73E00E9429
:10372000FE4E81E793E163ED76E00E94DF4E81E794
:1037300093E1BE014AE050E00E94C04E209709F498
:1037400054C0C730D10509F46DC081E793E161E64B
:1037500077E00E94DF4E8701015C1F4FF801608116
:10376000718181E793E14AE050E00E94C04E81E719
:1037700093E166E877E00E94DF4EF70164A975A93E
:1037800081E793E14AE050E00E94C04EF8012081B9
:103790003181F9012731310508F5E757FF4FEE0F69
:1037A000FF1F0590F491E02D1994CD2BB9F4F80189
:1037B0001182108281E793E169E977E00E94DF4E90
:1037C000F8016081718181E793E14AE050E00E9455
:1037D000C04EF70116AEC7010E94C119DF91CF910B
:1037E0001F910F91FF90EF90089581E793E16BEBAC
:1037F00073E00E94FE4E81E793E16DEF76E00E9458
:10380000DF4E81E793E160E070E04AE050E00E9423
:10381000C04E9BCF279711F781E190E0F80191838B
:103820008083C8CF81E793E16BEB73E00E94FE4E8B
:1038300081E793E16FE277E00E94DF4E81E793E159
:1038400067E070E04AE050E00E94C04E7ECFCD2B92
:1038500029F683E090E0F80191838083ABCFC230FA
:10386000D10509F4A4CF239709F0B8CF82E090E006
:10387000F801918380839ECFC130D10509F4B2C095
:10388000249709F0ABCF8BE090E0F801918380831F
:1038900091CFCD2B09F0A2CF8EE090E0F80191837B
:1038A000808388CFCD2B09F099CFB6CFCD2B09F0EF
:1038B00095CFF70184A995A904970CF497C021E44A
:1038C00030E0E20EF31EF70180812FEB3FEFE20EB6
:1038D000F31E882309F490C08DE090E0F8019183F5
:1038E000808368CFCD2B09F079CF86E190E0F80195
:1038F000918380835FCF279709F070CF8AE090E0B3
:10390000F8019183808356CF279709F067CF8FE026
:1039100090E0F801918380834DCF259709F05ECF29
:1039200082E190E0F8019183808344CFCD2B09F0B0
:1039300055CFF70184A995A9019695AB84AB26E0F4
:1039400030E0F8013183208304970CF433CF85E015
:1039500090E0918380832ECFCD2B09F03FCF84E080
:1039600090E0F8019183808325CFCD2B09F036CFED
:1039700089E090E0F801918380831CCF279709F0BC
:103980002DCF88E090E0F8019183808313CFCD2B79
:1039900009F024CF87E090E0F801918380830ACF7B
:1039A000269709F01BCF83E190E0F8019183808393
:1039B000F70115AA14AA2331310509F0FBCE0ECF69
:1039C000CD2B09F00BCF80E190E0F801918380834B
:1039D000F1CE279709F002CF84E190E0F8019183BE
:1039E0008083E8CEF801D183C083E4CE85E190E006
:1039F000F80191838083DECE8CE090E0F801918322
:103A00008083D8CE6CED75E00E94594408956CED2A
:103A100075E00E945944089564ED74E00E94594491
:103A2000089563E875E00E94594408950F931F9329
:103A30008C01039660ED77E00E945944C80160ED67
:103A400077E00E9459441F910F9108950F931F939F
:103A50008C01039668EE73E00E945944C80168EE39
:103A600073E00E9459441F910F910895FC018081D9
:103A7000882339F4CF01019664EC77E00E94594421
:103A80000895CF0101966CE875E00E9459440895AD
:103A9000FC018081882339F4CF0101966DE674E042
:103AA0000E9459440895CF01019661E478E00E9494
:103AB00059440895CF93DF93EC018985882341F021
:103AC0008A859B852FEF8F3F920781F0892B19F014
:103AD000DF91CF910895CE0103960E942A44882356
:103AE000E9F4CE010E9461171D86F2CFCE01069641
:103AF0000E942A448823F9F0CE010E945C1719869F
:103B000081E08D878C858823D9F010928E101092D9
:103B10008F101092901010929110DACFCE010E9467
:103B20005C1781E793E16AE078E00E94FE4E198617
:103B300081E08D87CDCFCE010E9476171D86C8CF3C
:103B400010928A1010928B1010928C1010928D107F
:103B5000BFCF0F931F93CF93DF93EC018C01055ED2
:103B60001F4FC8010E94C916CE0105960E945A1D1A
:103B7000C8010E94C9168E01045D1F4FC8010E9432
:103B8000B03F882329F4DF91CF911F910F910895C1
:103B9000C8010E94CF3FCE010E943716882371F4DE
:103BA0008A89882381F31A8ACE0167E070E00E9437
:103BB000611BDF91CF911F910F910895CE0160E0BD
:103BC00070E00E94611BECCF0F931F93CF93DF93A4
:103BD000EC0183960E94A91DCE018B599F4F0E9434
:103BE000A91DCE010E943A198E0107561F4FF801F8
:103BF000808191811816190634F4FE01E754FF4FB5
:103C00008081882399F58E01095A1F4FF801808120
:103C100091811816190634F4FE01E854FF4F808193
:103C2000882329F4DF91CF911F910F91089510827D
:103C3000CE0148960E945D1981E793E161E678E044
:103C40000E94DF4EF8016081718181E793E14AE0D3
:103C500050E00E94C04E81E793E169E878E00E945D
:103C6000FE4EDF91CF911F910F9108951082CE01EA
:103C700062E070E00E94741881E793E163E178E00C
:103C80000E94DF4EF8016081718181E793E14AE093
:103C900050E00E94C04E81E793E16BE378E00E9420
:103CA000FE4EB1CFCF93DF93EC018C85882369F56D
:103CB00081E793E169E479E00E94FE4E81E793E1B8
:103CC0006AE679E00E94DF4ECE0106960E942A4401
:103CD000682F81E793E170E04AE050E00E94C04E17
:103CE00081E793E169E879E00E94DF4ECE01039617
:103CF0000E942A44682F81E793E170E04AE050E097
:103D00000E94C04EDF91CF91089581E793E16FEA61
:103D100078E00E94FE4E81E793E164EE78E00E9435
:103D2000DF4ECE0106960E942A44682F81E793E178
:103D300070E04AE050E00E94C04E81E793E167E105
:103D400079E0D2CF05960E94521E08951F93CF931B
:103D5000DF93EC01162F0E943F441B83112391F443
:103D6000CE0169E270E00E94534581E793E16CEB7C
:103D700079E00E94FE4ECE010E949617DF91CF910E
:103D80001F910895CE016AE270E00E94534581E7D9
:103D900093E167EA79E00E94FE4ECE010E949617F9
:103DA000DF91CF911F9108950F931F93182F092F23
:103DB0000E943F44812F902F68E270E00E9453459B
:103DC000812F902F0E94BB1781E793E161ED79E08D
:103DD0000E94FE4E1F910F9108950F931F93182F6D
:103DE000092F0E943F44812F902F67E270E00E94CC
:103DF0005345812F902F0E94C01781E793E165EE14
:103E000079E00E94FE4E1F910F9108950F931F932A
:103E1000182F092F0E943F44812F902F66E270E0F7
:103E20000E945345812F902F0E94CA1781E793E18A
:103E30006BEF79E00E94FE4E1F910F9108950F9352
:103E40001F938C010E94D41EC80103960E94ED1E90
:103E5000C80106960E94061FF80115861786168669
:103E6000C801409664E670E00E94DC3F81E793E180
:103E70006AE07AE00E94FE4E1F910F9108950F9321
:103E80001F93182F092F0E943F44812F902F65E226
:103E900070E00E945345812F902F0E94621981E7A4
:103EA00093E16DE17AE00E94FE4E1F910F9108951B
:103EB000EF92FF921F93CF93DF937C01162FEC01BB
:103EC0002196CE010E943F44F70110831123A1F4F3
:103ED000CE0160E270E00E94534581E793E16AE41D
:103EE0007AE00E94FE4EC7010E948B19DF91CF91AC
:103EF0001F91FF90EF900895CE0161E270E00E9463
:103F0000534581E793E160E37AE00E94FE4EEBCFF8
:103F1000EF92FF921F93CF93DF937C01162FEC015A
:103F20002196CE010E943F44F70110831123A1F492
:103F3000CE016EE170E00E94534581E793E16EE7A8
:103F40007AE00E94FE4EC7010E94AF19DF91CF9127
:103F50001F91FF90EF900895CE016FE170E00E94F5
:103F6000534581E793E164E67AE00E94FE4EEBCF91
:103F70000F931F93182F092F0E943F44812F902FDA
:103F80006FE070E00E945345812F902F0E94071D23
:103F900081E793E168E97AE00E94FE4E1F910F915C
:103FA00008950F931F93182F092F0E943F44812FCC
:103FB000902F64E270E00E945345812F902F0E9461
:103FC000111D81E793E162EA7AE00E94FE4E1F91A3
:103FD0000F910895EF92FF920F931F938C010E940F
:103FE0003F4493E0E92EF12CE00EF11EC7010E9440
:103FF0003F44C70163E270E00E945345C80162E29A
:1040000070E00E945345C8010E94261D81E793E19C
:104010006EEA7AE00E94FE4E1F910F91FF90EF90A2
:104020000895EF92FF921F93CF93DF937C01162F99
:10403000EC012196CE010E943F44F7011083112329
:10404000A1F4CE0160E170E00E94534581E793E165
:104050006CEC7AE00E94FE4EC7010E94481DDF9181
:10406000CF911F91FF90EF900895CE0161E170E034
:104070000E94534581E793E169EB7AE00E94FE4E8E
:10408000EBCFCF92DF92EF92FF921F93CF93DF930C
:10409000EC01162F7A0169010E943F44CE0103967C
:1040A000B7010E941F44CE010696B6010E941F442C
:1040B0001D861C87112341F5CE0168E170E00E9446
:1040C000534581E793E160EF7AE00E94FE4ECE0116
:1040D0000E94761768EC70E080E090E00E94E45265
:1040E000CE010E94611764E670E080E090E00E94DB
:1040F000E452CE010E947117DF91CF911F91FF9082
:10410000EF90DF90CF900895CE0169E170E00E94BA
:10411000534581E793E16FED7AE00E94FE4ED7CFE1
:10412000CF92DF92EF92FF921F93CF93DF93EC0138
:10413000162F7A01690101960E94A61ECE010596EE
:10414000612FA70196010E944120CE014396612F65
:104150000E94581FCE014796612F0E94881FCE01F2
:104160004B96612F0E944D17CE018C9662E370E052
:104170000E94DC3F1DAA1CAA18AE19AE1EAEEF9617
:10418000199219921882C154D04018831FAA1EAAEE
:104190001123A1F481E793E163E27BE00E94FE4EEC
:1041A0008FEF9FEF988B8F8781E08E87DF91CF9184
:1041B0001F91FF90EF90DF90CF90089581E793E1FA
:1041C00061E07BE00E94FE4EEBCF0F931F938C01CA
:1041D0000E941F1FC80148960E943F1FC8014B96AE
:1041E00060E00E941120C8014F9661E00E941120FA
:1041F000C801839660E04BE150E029E030E00E9486
:104200009020C8018B599F4F61E04DE150E02CE1B7
:1042100030E00E949020C80189559F4F0E94B81F2E
:10422000C80186559F4F0E94D11FC80183559F4FDB
:104230000E94EA1F08541F4F81E0F8018193808398
:1042400081E793E165E47BE00E94FE4E1F910F91B0
:104250000895CB0108958EEA90E16AE070E00E9433
:104260001F4481EB90E16EE070E00E941F4484EBFC
:1042700090E16BE070E00E941F4487EB90E16CE0FE
:1042800070E00E941F4408958091A4109091A510A1
:104290000E9448398091A6109091A7100E94C50AEB
:1042A0008091A2109091A3100E94E41D61E070E043
:1042B00080E090E00E94E45208958F929F92AF9226
:1042C000BF92CF92DF92EF92FF920F931F9321EB59
:1042D000C22E20E1D22EC6010E94244494EBA92EC6
:1042E00090E1B92EC5010E94244487EB882E80E11D
:1042F000982EC4010E94244483E160E00E94A653EA
:1043000082E160E00E94A65383E161E00E9468546C
:1043100082E161E00E94685486E160E00E94A65359
:1043200087E160E00E94A65386E161E00E94685444
:1043300086E161E00E94685485E06BE975E143E045
:1043400050E00E945E5084E068E475E143E050E094
:104350000E945E5082E061E00E94A65383E061E02B
:104360000E94A65382E060E00E94685483E060E00F
:104370000E94685484E061E00E94A65385E061E0F9
:104380000E94A65384E060E00E94685484E060E0EC
:104390000E94685401E713E1C80140E855E260E07B
:1043A00070E00E94DC4AC80160E87BE00E94FE4E9B
:1043B000C8016EE87BE00E94FE4E8AEB90E00E940E
:1043C0005D4DF82EE92E0E94E520F092A210E092B9
:1043D000A310C80161EA7BE00E94FE4E85E091E0F7
:1043E0000E945D4DF82EE92E0E94040BF092A6105B
:1043F000E092A710C80169EA7BE00E94FE4E8BE4C0
:1044000090E00E945D4DF82EE92E6091A61070910B
:10441000A7104091A2105091A3100E94BA28F092C8
:10442000A410E092A510C80164EB7BE00E94FE4E50
:10443000C80169EC7BE00E94FE4EC8016AEC7BE09B
:104440000E94FE4E82E090E09093A9108093A81005
:104450001092AA101092AB101092AC101092AD10E6
:10446000C80163EE7BE00E94FE4EC8016DEE7BE06A
:104470000E94DF4E8EEA90E10E942A44682FC80114
:1044800070E04AE050E00E94C04EC80168EF7BE057
:104490000E94DF4EC6010E942A44682FC80170E0C6
:1044A0004AE050E00E94C04EC80165E07CE00E94F6
:1044B000DF4EC5010E942A44682FC80170E04AE01F
:1044C00050E00E94C04EC80162E17CE00E94DF4ED5
:1044D000C4010E942A44682FC80170E04AE050E0FD
:1044E0000E94C04E1F910F91FF90EF90DF90CF90F0
:1044F000BF90AF909F908F900895FC018DE290E166
:10450000918380830895FC01A081B18116978D91DC
:104510009C918E0F9F1F0E948E220895FC018BE1BB
:1045200090E1918380838DE290E197838683089563
:10453000DC0113968D919C911497892B91F015961F
:10454000ED91FC91169717968D919C911897E8170D
:10455000F90739F0819190E01696FC93EE93159748
:104560000895ED91FC9111970488F589E02DCD0116
:1045700019950895FC0185E590E191838083089564
:10458000CF93DF93EC01E881F9810288F389E02D74
:1045900019959C018FEF2F3F380729F08D819E815F
:1045A00001969E838D83C901DF91CF910895CB0140
:1045B0000895DC0113968D919C911497892B71F0CD
:1045C0001596ED91FC91169717968D919C911897E1
:1045D000E817F90719F0808190E00895ED91FC91BA
:1045E00011970288F389E02DCD01199508958FEF79
:1045F0009FEF089580E090E0089508950895DC010C
:10460000242FED91FC910084F185E02D41E0199576
:10461000089580E090E00895FC0122893389808923
:104620009189281B390B86899789281B390BC90169
:104630000895CF92DF92EF92FF920F931F93CF9343
:10464000DF93EC016B0179018A01AE89BF8968892A
:1046500079898A899B89861B970BA817B90778F0F7
:1046600020E030E040E050E0B901CA01DF91CF9195
:104670001F910F91FF90EF90DF90CF900895121649
:1046800013061406150664F720E030E040E050E021
:10469000F601E20FF31F6A0F7B1FDB018C91808311
:1046A0002F5F3F4F4F4F5F4FAE89BF891196BF8B32
:1046B000AE8B688979898A899B89861B970BA81795
:1046C000B90790F62E153F05400751076CF6E0CF6D
:1046D000FC0126893789A089B189828993898A1B3F
:1046E0009B0B2817390738F4A20FB31F8C91282F82
:1046F00030E0C90108952FEF3FEFC9010895CF932E
:10470000DF93EC01E881F9810288F389E02D1995A6
:104710009C018FEF2F3F380729F08E899F890196E2
:104720009F8B8E8BC901DF91CF910895CF93DF933B
:10473000DC0156964D915C9157974115510511F149
:104740005096CD91DC91519752962D913C91539773
:104750002C1B3D0B24173507B0F18FEF6F3F780707
:10476000B9F0FE01E40FF51F319780818617E1F45F
:104770004150504057965C934E935697CB01DF9132
:10478000CF9108956FEF7FEFCB01DF91CF91089527
:104790004150504057965C934E93569760E070E0BE
:1047A000CB01DF91CF9108951F968C911F9784FFC5
:1047B000E9CFCA01019757969C938E935697C80FDD
:1047C000D91F6883DBCF57963C932E9356976FEF94
:1047D0007FEFD4CF80E090E0089580E090E00895EE
:1047E00080E090E0089580E090E0089560E070E05F
:1047F00080E090E008956F927F929F92AF92BF9277
:10480000CF92DF92EF92FF920F931F93CF93DF939C
:10481000EC013B0159016A01121613061406150634
:104820000CF050C0EE24FF24870117C0EB85FC85F7
:104830008D859E85E817F90748F590828B859C85C4
:1048400001969C878B870894E11CF11C011D111DAA
:10485000EA14FB040C051D05ACF5F301EE0DFF1D7C
:1048600090808F8580FFE2CFE881F9810084F18517
:10487000E02DCE0160E070E044E020E11995EB8589
:10488000FC858D859E85E817F907B8F2E881F981E6
:10489000028CF38DE02DCE01692D70E019958F5FAC
:1048A0009F4F89F6B701C801DF91CF911F910F91FA
:1048B000FF90EF90DF90CF90BF90AF909F907F9050
:1048C0006F90089586017501EDCFCB010895FC012D
:1048D000A081B18116978D919C918E0F9F1F0E9490
:1048E00072240895FC018BE190E1918380838DE235
:1048F00090E197838683CF010E945A4D0895FC0171
:104900008DE290E191838083CF010E945A4D0895FA
:10491000FC0185E590E191838083CF010E945A4D8F
:104920000895CF93DF93EC0185E390E19983888329
:10493000288939898C899D898217930719F0C901C3
:104940000E94520285E590E199838883CE010E94FE
:104950005A4DDF91CF910895CF93DF93EC0185E31A
:1049600090E199838883288939898C899D89821768
:10497000930719F0C9010E94520285E590E19983DD
:104980008883DF91CF910895FC01A081B1811697B2
:104990008D919C918E0F9F1F0E94CF240895CF93DD
:1049A000DF93EC0183EF9FE0998388830A9699A3B4
:1049B00088A385E390E19F838E832E893F898A8D2A
:1049C0009B8D8217930719F0C9010E94520285E559
:1049D00090E19F838E83E091E70FF091E80FF983D8
:1049E000E88336970190F081E02DEC0FFD1F809158
:1049F000E90F9091EA0F918380838DE290E199A372
:104A000088A3CE010E945A4DDF91CF910895FC01F9
:104A1000A081B18116978D919C918E0F9F1F0E944E
:104A200012250895CF93DF93EC0183EF9FE09983E4
:104A300088830A9699A388A385E390E19F838E8358
:104A40002E893F898A8D9B8D8217930719F0C901A2
:104A50000E94520285E590E19F838E83E091E70FEB
:104A6000F091E80FF983E88336970190F081E02D0B
:104A7000EC0FFD1F8091E90F9091EA0F91838083E5
:104A80008DE290E199A388A3DF91CF910895AF9231
:104A9000BF92CF92DF92EF92FF920F931F93CF932B
:104AA000DF936C01DC011296ED91FC9113974D910F
:104AB0005C91DF01A41BB50BCB016A177B0708F4DF
:104AC000CD015C010894A11CB11CA114B104C9F56D
:104AD000EE24FF248F01041B150BC701BA01A801A6
:104AE0000E94D502E701C00FD11F81E090E0BE0116
:104AF0000E942921FC0110821882F6012081318157
:104B0000848195818217930719F0C9010E9452028E
:104B1000D6011196FC92EE921396DC93CE931297E7
:104B2000AE0CBF1C1596BC92AE921497DF91CF913C
:104B30001F910F91FF90EF90DF90CF90BF90AF90BB
:104B40000895C5010E94A801009779F07C01D60163
:104B50001296ED91FC9113974D915C91BBCF1995F5
:104B6000C5010E94A801009789F7E091BA10F09161
:104B7000BB103097A1F780E090E00E94A258FF920E
:104B80000F931F93CF93DF938C01F62EDC011296C7
:104B90002D913C911397E901219614968D919C914A
:104BA0001597C817D907E9F081E090E0BE010E948F
:104BB0002921FC0110821882D8011296ED91FC91F6
:104BC0001397F08212968D919C91139701961396EC
:104BD0009C938E931297DF91CF911F910F91FF902D
:104BE00008958D919C91F901E81BF90BCF0171F4A7
:104BF00061E070E0680F791FC8010E944725D80165
:104C00001296CD91DC9113972196CECFBF01F2CFB2
:104C10000F931F93CF93DF938C01EB018FEF6F3FC7
:104C2000780741F4C0E0D0E0CE01DF91CF911F9131
:104C30000F910895D8011F968C9184FF1AC0F80136
:104C4000208D318D0088F189E02DD80152968D910B
:104C50009C9153978E1B9F0B2817390768F4E20F1E
:104C6000F31F6083F801808D918D0196918F808F65
:104C7000DBCFCFEFDFEFD8CFC80140960E94BF2532
:104C8000F1CFDF92EF92FF920F931F93CF93DF93B9
:104C9000EC017B01D42E88819981EA81FB81E81B9C
:104CA000F90BAB014E0F5F1F2C813D81215030402D
:104CB000281B390B2417350740F4EE16FF06A0F128
:104CC0006E0F7F1FCE010E944725E114F10419F1F8
:104CD0002A813B81C90101962E0D3F1D281B390BEE
:104CE0006D2D70E0A9010E94E7020A811B810E0D63
:104CF0001F1D81E090E0B8010E942921FC01108273
:104D0000F8011082EA81FB81D0828A819B818E0D1D
:104D10009F1D9B838A83CE01DF91CF911F910F91BD
:104D2000FF90EF90DF900895BF01CACF0F931F93BC
:104D3000CF93DF93EC0130E0C90188719070489700
:104D400009F486C0C90188709070207130704130BC
:104D500009F455C04230B1F1AA89BB89E889F989C3
:104D6000AD014E1B5F0B8B01040F151F4017510740
:104D7000F0F1892B11F01F8B0E8B232BE1F09D019D
:104D80002E1B3F0B2017310708F042C0B801621BF1
:104D9000730BCE01409640E00E9441268889998994
:104DA0002A893B89281B390B8E899F892817390747
:104DB00010F43F8B2E8BB801CB01DF91CF911F9167
:104DC0000F91089521153105C9F500E010E0E8893B
:104DD000F989AA89BB89009721F00E891F89060FDE
:104DE000171FAD014E1B5F0B4017510710F66FEFF9
:104DF0007FEFCB01DF91CF911F910F9108958B0130
:104E0000E889F989AA89BB89AD014E1B5F0BAECF3A
:104E1000E00FF11FAE17BF0739F28C918083EA1BB8
:104E2000FB0B8A899B898E0F9F1F9B8B8A8B2889FE
:104E30003989AC01421B530B9A01B6CFAA89BB89B1
:104E4000E889F9898D010E1B1F0B060F171FC3CFB1
:104E5000423009F077CFCBCF8F929F92BF92CF9203
:104E6000DF92EF92FF920F931F93CF93DF936C012A
:104E70007B01DC01ED91FC9136970190F081E02DF2
:104E8000E80FF91FC189D2892097F9F0E881F981EB
:104E900036970190F081E02DEC0FFD1FA389B489B6
:104EA000ED91FC9111970484F585E02DCD011995C4
:104EB0008F5F9F4F09F4BFC0D601ED91FC913697EB
:104EC0000190F081E02DEC0DFD1D838994890E94F5
:104ED000D922BFEF8F3F9B0709F48CC00E94605816
:104EE000892B09F09AC0D601ED91FC91369720816B
:104EF0003181F601E20FF31F83889488D701ED9189
:104F0000FC91119712968D919C911397E817F907D0
:104F100071F010828D919C91119713969C938E93B2
:104F20001297D601ED91FC91369720813181F901DC
:104F30003296EC0DFD1D22853385448555851286FC
:104F4000138614861586E9012115310509F0C6C0BE
:104F50000EEF1FEF1EC081E090E0BE010E942921EC
:104F6000FC0110821882D7011296ED91FC911397E3
:104F7000B08212962D913C9113972F5F3F4F13965D
:104F80003C932E9312970115110509F492C001501C
:104F90001040C4010E949822BFEF8F3F9B0709F485
:104FA000A3C0B82E992787FD90950E946058892B41
:104FB00009F04DC0F70122813381E90121968481F6
:104FC0009581C817D90739F680819181A901481BBD
:104FD000590BCA0109F080C061E070E0680F791FC9
:104FE000C7010E944725D7011296CD91DC911397F6
:104FF0002196B1CFD601ED91FC9136970190F081C9
:10500000E02DEC0DFD1D2581322F326083899489BE
:10501000892B09F490C0358366CFD601ED91FC91C0
:1050200036970190F081E02DEC0DFD1D8389948968
:105030000E94982241CFE881F98136970190F08152
:10504000E02DEC0FFD1F25812160258335CFF40174
:10505000238134812115310551F0858196812817EE
:10506000390729F0FC018291B81609F46FC0D40108
:10507000ED91FC910688F789E02DC4016B2D70E05D
:1050800019958F5F9F4F91F4D601ED91FC91369762
:105090000190F081E02DEC0DFD1D2581322F346053
:1050A00083899489892B09F449C03583F7012281CA
:1050B0003381F701808191812817390751F1C601A9
:1050C000DF91CF911F910F91FF90EF90DF90CF90E4
:1050D000BF909F908F900895BA0180CFC701B9010A
:1050E0000E9447258E0153CFD601ED91FC91369752
:1050F0000190F081E02DEC0DFD1D2581322F3260F5
:1051000083899489892B59F13583F7012281338171
:10511000D0CFD601ED91FC9136970190F081E02D32
:10512000EC0DFD1D2581322F346083899489892BF4
:10513000F1F03583C4CF23602583D5CE2560258348
:10514000D70112962D913C911397B3CFD4011696A7
:10515000FC93EE931597F70122813381AACF236048
:105160002583D70112962D913C911397A2CF2560EC
:105170002583A5CFCF92DF92EF92FF920F931F93DB
:10518000CF93DF93EC017B016A0162E370E00E9440
:10519000DC3F198618861B861A861D861C861F868C
:1051A0001E8688E090E00E94A801009709F4BDC027
:1051B0008A879B878C879D878A859B8508969F8792
:1051C0008E870C851D8581E090E0B8010E94292121
:1051D000FC011082F8011082BE01695E7F4F41E23E
:1051E00050E01FAA18AE86E090E0A0E0B0E089AFE2
:1051F0009AAFABAFBCAFED96199219921992199272
:1052000080E2899319821882C254D0405DAB4CABC6
:10521000CC5BDF4F79836883C454D0401EAACA5B3D
:10522000DF4F1882C654D040E091E70FF091E80FAD
:10523000FA8BE98B9E012F5E3F4F36970190F081EC
:10524000E02DE20FF31F8091E90F9091EA0F918317
:1052500080831B8A1C8A1D8A1E8AE989FA893697EF
:105260000190F081E02DE20FF31F54834383748B90
:10527000638B1582158A83EF9FE09A8B898B0A9640
:105280009AAB89AB1B8E1A8E1D8E1C8E1F8E1E8EA6
:1052900019A218A21BA21AA21DA21CA21EA285E37B
:1052A00090E1988F8F8B18A61FA21AA619A61CA68C
:1052B0001BA688E090E00E94A801009709F447C06F
:1052C0008FA398A789A79AA78FA198A508969CA7AE
:1052D0008BA709A51AA581E090E0B8010E942921B9
:1052E000FC011082F80110821EA61DA618AA1FA696
:1052F00088E08EA3C95BDF4FE992F992D982C88218
:10530000C954D04081E0888BDF91CF911F910F91DC
:10531000FF90EF90DF90CF900895199588E090E08E
:105320000E94A801009709F043CFE091BA10F091D4
:10533000BB10309791F780E090E00E94A258199539
:1053400088E090E00E94A801009709F0B9CFE091B1
:10535000BA10F091BB10309791F7EDCF8F929F92DA
:10536000AF92BF92CF92DF92EF92FF920F931F9373
:10537000CF93DF937C018B016A01DC014D915C913D
:10538000119712962D913C911397241B350BE60132
:10539000C61BD70B2C173D0708F075C0CA01A90121
:1053A0000E94CC02D7011296ED91FC9113976D915A
:1053B0007C911197AF01461B570B5801A40EB51EE7
:1053C000CA14DB0409F451C0E601CA19DB099E01C5
:1053D000240F351F14968D919C9115970197861B6C
:1053E000970B8217930708F081C09A012F5F3F4FF8
:1053F000CE01C431D10508F463C04901880E991E5D
:105400008114910409F065C0CC24DD248F01061BB2
:10541000170BC601A8010E94D5020C0D1D1DC80165
:10542000B501AE010E94D502C00FD11F81E090E00E
:10543000BE010E942921FC0110821882D7012D9102
:105440003C91119714968D919C9115978217930713
:1054500019F0C9010E945202F701D182C082D383A0
:10546000C2838C0C9D1C95828482C701DF91CF91F1
:105470001F910F91FF90EF90DF90CF90BF90AF9072
:105480009F908F900895CA01AE010E94CC02D7016F
:10549000ED91FC911197EC0FFD1F12960D90BC91B0
:1054A000A02DEA17FB0709F38C918083EA1BFB0B05
:1054B000E7018A819B818E0F9F1F9B838A83D5CFB3
:1054C00084E190E04901880E991E8114910409F449
:1054D0009BCFC4010E94A8010097C1F16C01F701A4
:1054E000608171810280F381E02D90CFB5016F5F03
:1054F0007F4FC61AD70ACF010196A6010E94D50296
:10550000D70112960D911C9113970C0F1D1F81E06E
:1055100090E0B8010E942921FC011082F80110825C
:10552000D7011296ED91FC911397D5018C91808350
:10553000F701828193818C0F9D1F9383828395CF86
:105540001995C4010E94A801009741F6E091BA1094
:10555000F091BB103097A1F780E090E00E94A25834
:105560003F924F925F926F927F928F929F92AF92F3
:10557000BF92CF92DF92EF92FF920F931F93DF9330
:10558000CF93CDB7DEB728970FB6F894DEBF0FBE26
:10559000CDBF3C018AE0482E512C460C571CCE0151
:1055A000019698878F8381E793E10E946B4B1816D1
:1055B00019062CF4F301808591854C97C4F0289648
:1055C0000FB6F894DEBF0FBECDBFCF91DF911F9114
:1055D0000F91FF90EF90DF90CF90BF90AF909F9092
:1055E0008F907F906F905F904F903F90089581E7EC
:1055F00093E10E949D4B382EFAE08F1709F445C1C4
:10560000D3011C960D911C911D971A968D919C911A
:105610001B97081B190B0E5F1F4F1A8219821C82E1
:105620001B821E821D82BFEF0F3F1B0771F0011509
:10563000110509F00BC180E090E09A8389839C8377
:105640008B83080F191F1E830D830B811C8181E042
:1056500090E0B8010E942921FC011082F80110821B
:10566000D3011A968D909C901B971C96ED91FC91FE
:105670001D978E169F0609F403C14B815C816981D9
:105680007A81DA01A61BB70B6F01C818D9089601F9
:105690002A0F3B1F8D819E810197861B970B8217D6
:1056A000930708F079C09D012F5F3F4FC601B4E119
:1056B000CB16D10410F484E190E05901A80EB91E74
:1056C000A114B10409F0A7C0EE24FF248A01061B2F
:1056D000170BC701A8010E94D5020E0D1F1DC8019E
:1056E000B401A6010E94D5020C0D1D1D81E090E0C1
:1056F000B8010E942921FC011082F8011082298141
:105700003A818D819E818217930719F0C9010E9409
:105710005202FA82E9821C830B83AE0CBF1CBE824C
:10572000AD82A8018A010F5F1F4F8D819E810817EE
:10573000190709F45CC081E090E0B8010E942921BA
:10574000FC011082F8011082EB81FC8130824B81D8
:105750005C814F5F5F4F5C834B838F81988584159D
:10576000950529F069817A81C2010E94AE292981BB
:105770003A818D819E818217930719F0C9010E9499
:105780005202D30118968D919C9119970196199602
:105790009C938E93189707CFB4016F5F7F4FE61BE2
:1057A000F70BCA010196AF010E94D5020B811C8143
:1057B0000C0D1D1D81E090E0B8010E942921FC0123
:1057C0001082D8011C92EB81FC81D4018C918083E2
:1057D0004B815C814C0D5D1D5C834B838A010F5FA7
:1057E0001F4F8D819E810817190709F0A4CF898169
:1057F0009A818A01081B190B09F045C061E070E02D
:10580000600F711FCE0101960E9447250B811C81FC
:105810000F5F1F4F90CFC5010E94A801009761F054
:105820007C014B815C8169817A8150CF1995C501DA
:105830000E94A8010097A1F7E091BA10F091BB1067
:105840003097A1F780E090E00E94A258C8010E9422
:10585000A801009709F0F1CEE091BA10F091BB10C9
:10586000309781F31995C8010E94A801009709F0AB
:10587000E4CEE091BA10F091BB10309799F7E2CFE7
:105880004B815C814FCFB801BBCF81E793E16FE1E2
:105890007CE00E94FE4ED30118968D919C91199741
:1058A000181619060CF5F301108A81E793E16CE2F2
:1058B0007CE00E94DF4ED3011A966D917C911B977C
:1058C00081E793E10E94DF4E81E793E16AE37CE0A8
:1058D0000E94DF4EF3016085718581E793E14AE024
:1058E00050E00E94C04E6BCE81E050968C93DDCF8D
:1058F000AF92BF92CF92DF92EF92FF920F931F93DE
:10590000DF93CF93CDB7DEB762970FB6F894DEBFC3
:105910000FBECDBF7C015B01DC01ED91FC913697A0
:105920000190F081E02DE80FF91F0189128901151E
:10593000110501F1D801ED91FC9136970190F081AC
:10594000E02DE00FF11FA389B489ED91FC9111972F
:105950000484F585E02DCD0119958F5F9F4F09F4E3
:1059600080C1D701ED91FC9136970190F081E02D37
:10597000EE0DFF1D838994890E94D922BFEF8F3FCE
:105980009B0709F4DDC00E946058892B09F0EBC029
:105990001A8219821C821B821E821D8288E090E07E
:1059A0000E94A8018C01009709F4C0C01A830983E2
:1059B0001C830B83085F1F4F1E830D83085010400C
:1059C00081E090E0B8010E942921FC011082F801D9
:1059D0001082D701ED91FC9136970190F081E02D76
:1059E000EE0DFF1D838185FFCCC018861F821A86AD
:1059F00019861C861B8688E090E00E94A80100970B
:105A000009F419C18F83988789879A878F81988530
:105A100008969C878B8709851A8581E090E0B801FC
:105A20000E942921FC011082F801108227E0C22E79
:105A3000D12CCC0EDD1ED701ED91FC913697019053
:105A4000F081E02DEE0DFF1D838994890E94D922FB
:105A50008C01BFEF8F3F9B0789F00E946058892B14
:105A600069F4C801C0970A9708F43FC10E321105C6
:105A700009F43BC10C32110509F437C149855A8537
:105A80006F8178854617570709F473C1CE010196D7
:105A90000E94AE292F8138858B859C8582179307BC
:105AA00019F0C9010E94520200D000D0EDB7FEB734
:105AB000319689819A81ADB7BEB712969C938E9329
:105AC00011978BE49CE093838283B582A4820E9429
:105AD000F602EDB7FEB736960FB6F894FEBF0FBECE
