:100000000C94F0010C941D020C941D020C941D0222
:100010000C941D020C941D020C941D020C941D02E4
:100020000C941D020C941D020C941D020C941D02D4
:100030000C941D020C94610E0C941D020C941D0274
:100040000C941D020C941B210C941D020C941D0297
:100050000C941D020C941D020C941D020C94062E8F
:100060000C941D020C94A4270C94F0280C941D02EF
:100070000C941D020C941D020C941D020C941D0284
:100080000C9484230C941D020C941D020C941D02EC
:100090000C94E4270C942F290C941D020C943E26FA
:1000A0000C941D020C941D020C94B4220C941D029D
:1000B0000C941D020C941D020C941D020C94EB2157
:1000C0000C941D020C941D020C941D020C94242807
:1000D0000C946E290C941D020C9464280C94AD2988
:1000E0000C941D0243086308750888089B08AE0835
:1000F000BC08C608D508DF08F50808091B09290946
:10010000330942092C08EF09F609000A090A140A02
:100110001D0A280A310A3C0A450A500A590A640A8B
:100120006D0A780A9C09E909F72690269026902600
:10013000902690269026902601279026902690269D
:10014000902690269026902601279026902690268D
:100150009026902690269026092790269026902675
:1001600090269026902690261D2790269026902651
:100170009026902690269026092790269026902655
:100180009026902690269026BF2690269026902690
:100190009026902690269026CC2690269026902673
:1001A0009026902690269026B82690269026902677
:1001B00090269026902690264D27902690269026D1
:1001C0009026902690269026AC2690269026902663
:1001D0009026902690269026D5269026902690262A
:1001E0009026902690269026EE2690269026902601
:1001F0009026902690269026EE26902690269026F1
:100200009026902690269026EE26902690269026E0
:100210009026902690269026EE26902690269026D0
:100220009026902690269026A3269026902690260B
:100230009026902690269026A826902690269026F6
:100240009026902690269026A326902690269026EB
:100250009026902690269026A826902690269026D6
:100260009026902690269026282790269026902645
:1002700090269026902690266626902690269026F8
:1002800090269026902690266626902690269026E8
:1002900090269026902690267B26902690269026C3
:1002A00090269026902690264727902690269026E6
:1002B00090269026902690264727000021002400B3
:1002C00027002A002D003000330001010000040146
:1002D00007010A0100002200250028002B002E0043
:1002E0003100340002010000050108010B0100008B
:1002F00020002300260029002C002F0032000001DE
:1003000000000301060109010505050507050808A8
:100310000808020202020A0A08080404040401018F
:1003200001010101010103030303030303030407A4
:1003300007070C0C0C0C0C0C0C0C0202020206063B
:100340000606060606060B0B0B0B0B0B0B0B01022E
:1003500010202008081020401020408002010201D7
:10036000080402010102040810204080804020108F
:1003700008040201800402018040201008040201E8
:100380000804020101020408102040800102040850
:10039000102040800000090A02080B0C0D0706031C
:1003A0000401000000000000000000000000000048
:1003B000000000000000000000000000000000003D
:1003C00011100F00000000000000000000000000FD
:1003D000000000000000000000006B03BE24202B82
:1003E00011241FBECFEFD1E2DEBFCDBF00E00CBFB6
:1003F00017E0A0E0B2E0E0EFF1E600E00BBF02C0E2
:1004000007900D92A838B107D9F71BBE1BE0A8E8EA
:10041000B7E001C01D92AE3BB107E1F713E0C0EEBB
:10042000D3E004C02297FE010E94E730CA3DD10705
:10043000C9F70E94562C0C94F6300C940000CF9310
:10044000DF93BC018230910510F462E070E0A0916E
:10045000BC0BB091BD0BED01E0E0F0E040E050E0FE
:1004600021C0888199818617970769F48A819B81C9
:10047000309719F09383828304C09093BD0B8093CF
:10048000BC0BFE0134C06817790738F441155105DB
:1004900019F08417950708F4AC01FE018A819B814D
:1004A0009C01E9012097E9F641155105A9F1CA011E
:1004B000861B970B049708F4BA01E0E0F0E02AC02D
:1004C0008D919C91119784179507F9F4641775071E
:1004D00081F412968D919C911397309719F0938324
:1004E000828304C09093BD0B8093BC0BFD013296B8
:1004F0004CC0CA01861B970BFD01E80FF91F6193E1
:10050000719302978D939C9340C0FD0182819381EA
:100510009C01D9011097A1F68091BA0B9091BB0B69
:10052000892B41F48091D5069091D6069093BB0B10
:100530008093BA0B4091D7065091D80641155105CA
:1005400041F44DB75EB78091D3069091D406481B15
:10055000590B2091BA0B3091BB0BCA01821B930B34
:100560008617970780F0AB014E5F5F4F84179507A2
:1005700050F0420F531F5093BB0B4093BA0BF9013D
:100580006193719302C0E0E0F0E0CF01DF91CF9181
:100590000895CF93DF93009709F450C0EC012297A0
:1005A0001B821A82A091BC0BB091BD0B109709F170
:1005B00040E050E0AC17BD0708F1BB83AA83FE0101
:1005C00021913191E20FF31FAE17BF0779F48D919E
:1005D0009C911197280F391F2E5F3F4F3983288335
:1005E00012968D919C9113979B838A834115510597
:1005F00071F4D093BD0BC093BC0B20C012968D91AB
:100600009C911397AD01009711F0DC01D3CFFA0153
:10061000D383C28321913191E20FF31FCE17DF07FD
:1006200069F488819981280F391F2E5F3F4FFA01A5
:10063000318320838A819B8193838283DF91CF9151
:100640000895FC0188279927E89421912032E9F345
:10065000293010F02E30C8F32B3241F02D3239F40E
:10066000689404C00E946103820F911D2191205360
:100670002A30C0F31EF4909581959F4F0895FB0199
:10068000DC0102C001900D9241505040D8F708950E
:100690006817790768F4FB01DC01E40FF51FA40F6C
:1006A000B51F02C002900E9241505040D8F70895F5
:1006B0000C943F03DC0101C06D9341505040E0F7C2
:1006C00008957AE0979F902D879F802D910D11249A
:1006D0000895CB0108958CE897E00E94EA0C8BE91D
:1006E00097E06BE370E048E552E00E94542480EA12
:1006F00097E06AE370E048E552E00E94542485EAFE
:1007000097E069E370E048E552E00E9454240895C0
:1007100080918A0790918B070E94191E809188070B
:10072000909189070E94A40A61E070E080E090E067
:100730000E94832E08950F931F9380EA97E00E94F2
:100740005B2485EA97E00E945B248FE898E00E9492
:100750006A2589E29BE040E855E260E070E00E9493
:10076000EC2989E29BE060E072E00E94E02D89E2E2
:100770009BE06EE072E00E94E02D8CEC90E00E9425
:100780006D2C182F092F0E94D50C10938807009309
:10079000890789E29BE061E272E00E94E02D89E432
:1007A00090E00E946D2C182F092F6091880770919E
:1007B00089070E94D11E10938A0700938B0789E254
:1007C0009BE069E272E00E94E02D8CE897E00E94D5
:1007D000D10D89E29BE06EE372E00E94E02D8CE88F
:1007E00097E00E94040E882309F0DDC069E572E0FD
:1007F00089E29BE00E94E02D8CE897E00E94890D41
:10080000BC0189E29BE04AE050E00E948F2D89E222
:100810009BE061E972E00E94C12D8CE897E00E94A4
:100820006A0DBC0189E29BE04AE050E00E948F2DF6
:1008300089E29BE061E972E00E94C12D8CE897E0BB
:100840000E944B0DBC0189E29BE04AE050E00E940F
:100850008F2D89E29BE061E972E00E94C12D8CE856
:1008600097E00E942C0DBC0189E29BE04AE050E039
:100870000E948F2D89E29BE061E972E00E94C12D08
:100880008CE897E00E940D0DBC0189E29BE04AE0F4
:1008900050E00E948F2D89E29BE061E972E00E94A6
:1008A000C12D8CE897E00E94EE0CBC0189E29BE030
:1008B0004AE050E00E948F2D89E29BE061E972E0FE
:1008C0000E94C12D89E29BE063E972E00E94C12D84
:1008D0001092AB071092AA071092AC071092AD07C6
:1008E0001092AE071092AF0789E29BE065E972E0D3
:1008F0000E94E02D89E29BE066E972E00E94E02D13
:100900001092AC071092AD071092AE071092AF078D
:1009100089E29BE06FEA72E00E94E02D89E29BE0B1
:1009200069EB72E00E94C12D8BE997E00E9461247F
:10093000682F89E29BE070E04AE050E00E94A22D1F
:1009400089E29BE064EC72E00E94C12D80EA97E0AE
:100950000E946124682F89E29BE070E04AE050E049
:100960000E94A22D89E29BE061ED72E00E94C12D00
:1009700085EA97E00E946124682F89E29BE070E09D
:100980004AE050E00E94A22D89E29BE065E972E016
:100990000E94E02D89E29BE066E972E00E94E02D72
:1009A0001F910F91089563E772E022CFEF92FF92BB
:1009B0000F931F93CF93DF93582F162FF42E022FF0
:1009C000E32E8FE898E0652F0E9482248FE898E05C
:1009D000612F0E940825FF2069F0802F9E2D9C0129
:1009E000E9018FE898E069910E9408259E01201B8B
:1009F0002F15B8F38FE898E00E94552590E08823E2
:100A000009F491E0892FDF91CF911F910F91FF9011
:100A1000EF900895DF93CF930F92CDB7DEB7498360
:100A200041E09E012F5F3F4F0E94D6040F90CF916F
:100A3000DF9108952F923F924F925F926F927F9233
:100A40008F929F92AF92BF92CF92DF92EF92FF92DE
:100A50000F931F93DF93CF9300D000D0CDB7DEB7B5
:100A6000382E262ED42E3C832B8378010E944E2EC6
:100A70002B013C01DD2009F4A0C02D2D30E03A838C
:100A800029830D2D30E23D1508F47BC0CC2410E005
:100A90004701AA24BB248FE898E0632D0E9482249A
:100AA0008FE898E0622D0E9408258FE898E00E9468
:100AB00055258FE898E0632D0E94822449815A8150
:100AC000411B51094132510514F040E250E08FE8DA
:100AD00098E0632D0E9466258C2D992787FD9095BF
:100AE000EB81FC818E0F9F1F9E838D838FE898E0A2
:100AF0000E948C24892B99F0E114F10491F58FE880
:100B000098E00E949524ED81FE818193FE83ED8320
:100B1000C3948FE898E00E948C24892B69F7100F0A
:100B20001D1508F4B8CF1C2DE114F10461F5812FD7
:100B300026960FB6F894DEBF0FBECDBFCF91DF91E2
:100B40001F910F91FF90EF90DF90CF90BF90AF90EB
:100B50009F908F907F906F905F904F903F902F90DD
:100B600008950E944E2E6419750986099709681523
:100B700079058A059B0518F2100F1D1508F48BCF17
:100B8000D2CF00E283CF0E944E2E641975098609E8
:100B90009709970140E050E06217730784079507B3
:100BA00030F22C2D332727FD30958D2D90E028171E
:100BB00039070CF0BCCF1FEFBACFCC2410E0B4CF74
:100BC0000F931F93FA01890141E09F010E941A05CA
:100BD0001F910F910895DF92EF92FF920F931F9351
:100BE000DF93CF930F92CDB7DEB7E82ED62EF42E3B
:100BF000122F2091D9063091DA06AE014F5F5F4F78
:100C00000E94E005882341F1212F30E04F2D50E074
:100C10004F5F5F4F421B530B81E090E002C0880F93
:100C2000991F1A95E2F70197042E02C0880F991FA9
:100C30000A94E2F7202F30E002C0220F331F4A95BA
:100C4000E2F7482F4095598145238223482B498359
:100C50008E2D6D2D0E940A050F90CF91DF911F916F
:100C60000F91FF90EF90DF900895EF92FF920F9316
:100C70001F93DF93CF930F92CDB7DEB7F82EE62EFA
:100C8000042F122F2091D9063091DA06AE014F5F62
:100C90005F4F0E94E0051123C1F481E090E002C0A3
:100CA000880F991F0A95E2F7482F409589814823BC
:100CB00049838F2D6E2D0E940A050F90CF91DF91F1
:100CC0001F910F91FF90EF90089581E090E002C096
:100CD000880F991F0A95E2F74981482BE9CFCF92F7
:100CE000DF92EF92FF920F931F93DF93CF930F92B8
:100CF000CDB7DEB7C42ED22E9701AE014F5F5F4F46
:100D00000E94E005682F882309F18D2D90E04C2D7D
:100D100050E04F5F5F4F481B590B21E030E002C0AD
:100D2000220F331FDA94E2F721503040042E02C024
:100D3000220F331F0A94E2F78981822390E002C0D8
:100D4000959587954A95E2F7F8018083862F0F9055
:100D5000CF91DF911F910F91FF90EF90DF90CF9097
:100D60000895089508959C012D5D3F4FC901089590
:100D70009C01255D3F4FC9010895FC01EE5BFF4FCB
:100D8000808191810197889710F080E0089589E231
:100D90009BE06EED72E00E94E02D81E00895FC0181
:100DA00086AD97AD01974E9710F080E0089589E2E7
:100DB0009BE069EE72E00E94E02D81E00895FC0165
:100DC000E05CFF4F8081918101974E9710F080E0A9
:100DD000089589E29BE066EF72E00E94E02D81E0D9
:100DE00008950F931F938C010E94CF06C8010E94A3
:100DF000DF06C8010E94BD061F910F910895CF9391
:100E0000DF93EC01C35BDF4FCE010E94BE1F88233E
:100E100019F0CE010E94DD1FDF91CF910895CF938D
:100E2000DF93EC010E94BE1F882301F1CE010E94D6
:100E3000DD1FCE014A960E943D0F9FAF8EAFCE01BF
:100E400008960E943D0FC05CDF4F99838883C05491
:100E5000D040CE018C960E943D0FCE5BDF4F998330
:100E60008883C254D040CE010E94F106DF91CF9119
:100E700008950F931F938C0161E270E00E94EA1FB6
:100E8000C80108966DE04CE224E630E00E940E0EA8
:100E9000C8014A966FE240E324E630E00E940E0E5D
:100EA000C8018C966DE24EE224E630E00E940E0E00
:100EB00084E690E0F80197AF86AF005C1F4FF80121
:100EC00081939193918380831F910F910895EF9265
:100ED000FF920F931F93CF93DF93EC018C898823AC
:100EE00041F480E0DF91CF911F910F91FF90EF903F
:100EF0000895EF88F88C098D1A8D0E944E2EE61603
:100F0000F7060807190768F71C8A81E0DF91CF917F
:100F10001F910F91FF90EF900895CF92DF92EF9283
:100F2000FF920F931F936C017B010E944E2E0027AE
:100F3000F7FC0095102FE60EF71E081F191FF6018B
:100F4000E78AF08E018F128F81E0848B89E29BE02B
:100F500067E373E00E94C12D1F910F91FF90EF9006
:100F6000DF90CF900895FC018081882339F4CF0170
:100F7000019663EE76E00E941A200895CF01019653
:100F80006AEE77E00E941A200895FC018081882390
:100F900039F4CF01019661E078E00E941A200895AB
:100FA000CF0101966AE976E00E941A200895FC01BB
:100FB0008081882339F4CF01049668E774E00E94A9
:100FC0001A200895CF01049665E077E00E941A2068
:100FD000089504966CED75E00E941A200895FC01B6
:100FE0008081882339F4CF0104966FE777E00E946F
:100FF0001A200895CF01049667E074E00E941A2039
:1010000008956BEF74E00E941A20089563EC75E078
:101010000E941A20089564E676E00E941A2008953E
:1010200060ED77E00E941A20089568EE73E00E9458
:101030001A2008950F931F93CF93DF93EC01ED894E
:10104000FE89E131F105D0F4EE58FF4FEE0FFF1F9E
:101050000590F491E02D199468EE73E00E948D07DD
:10106000CE010D960E94EF07CE0103960E9406085E
:1010700089E29BE068E574E00E94E02DDF91CF916A
:101080001F910F9108958C010A5F1F4FC8010E94A4
:10109000EF07C8010E94C5078E01035F1F4FC801FB
:1010A0000E94EF07C8010E94C507CE010E941508E3
:1010B000CE0103960E94060889E29BE065E473E096
:1010C0000E94E02DDBCF64EF71E00E948D07CE011E
:1010D0000E941008CE0103960E940B0889E29BE053
:1010E00065E573E00E94E02DC9CF68EE73E00E94D1
:1010F0008D07CE010D960E94E907CE0103960E944E
:10110000060889E29BE063E673E00E94E02DB6CF1B
:1011100060ED77E00E948D07CE010D960E94E907F1
:10112000CE0103960E94010889E29BE064E773E028
:101130000E94E02DA3CF68EE73E00E948D07CE01E0
:101140000D960E94D707CE0103960E94010889E2FE
:101150009BE065E873E00E94E02D90CF64E670E0CC
:101160000E948D07CE010E94150889E29BE065E987
:1011700073E00E94E02D82CF0D960E94B30789E2B2
:101180009BE067EA73E00E94E02D78CF68EE73E0A1
:101190000E948D07CE010D960E94E90789E29BE02F
:1011A00069EB73E00E94E02D69CF0D960E94C507A0
:1011B00089E29BE06AEC73E00E94E02D5FCF68EE6D
:1011C00073E00E948D07CE010D960E94D707CE01D5
:1011D0000E941008CE0103960E940B0889E29BE052
:1011E0006BED73E00E94E02D49CF68EE73E00E9442
:1011F0008D07CE0106960E94E907CE0103960E9454
:10120000060889E29BE06CEE73E00E94E02D36CF89
:1012100068EE73E00E948D07CE0106960E94D70704
:10122000CE0103960E94010889E29BE06DEF73E016
:101230000E94E02D23CF68EE73E00E948D07CE015F
:101240000E94150889E29BE06EE074E00E94E02DA8
:1012500015CF06960E94B30789E29BE061E274E035
:101260000E94E02D0BCF68EE73E00E948D07CE0147
:1012700006960E94E90789E29BE064E374E00E941D
:10128000E02DFCCE68EE73E00E948D078E010A5FB0
:101290001F4FC8010E94C507C8010E94EF07CE0179
:1012A0000D960E94E90789E29BE066E474E00E94E3
:1012B000E02DE4CE0F931F93CF93DF938C01EB01CE
:1012C00089E29BE06AE674E00E94E02D89E29BE0FF
:1012D0006BE674E00E94C12D89E29BE0BE014AE00A
:1012E00050E00E94A22DCE010197049708F45DC042
:1012F000209709F445C089E29BE062ED74E00E940A
:10130000C12DD80155966D917C91569789E29BE04D
:101310004AE050E00E94A22DD8015596ED91FC9133
:101320005697E131F10538F5ED57FF4FEE0FFF1FEE
:101330000590F491E02D1994CD2BE9F480E190E033
:10134000D80156969C938E93559789E29BE062EF65
:1013500074E00E94C12DD80155966D917C915697ED
:1013600089E29BE04AE050E00E94A22DF801148A35
:10137000C8010E941A08DF91CF911F910F91089523
:1013800089E29BE069E874E00E94E02D89E29BE03D
:1013900060EB74E00E94C12D89E29BE060E070E0A8
:1013A0004AE050E00E94A22DA6CF89E29BE069E8C6
:1013B00074E00E94E02D89E29BE06BE874E00E94FB
:1013C000C12D89E29BE0BE014AE050E00E94A22DBF
:1013D0008FCFCD2B81F6F801168A158AB6CFC13092
:1013E000D10549F6F801D68BC58BAFCFCD2B19F6B9
:1013F00082E090E0D80156969C938E935597A5CFA6
:10140000CD2B09F0B8CF83E090E0F801968B858B67
:101410009CCFCD2B09F0AFCF84E090E0D801569659
:101420009C938E93559791CFCD2B09F0A4CF85E057
:1014300090E0F801968B858B88CFCD2B09F09BCF60
:1014400086E090E0D80156969C938E9355977DCF79
:10145000229709F090CF87E090E0F801968B858B7A
:1014600074CFCD2B09F087CF88E090E0D801569655
:101470009C938E93559769CF239709F07CCF89E091
:1014800090E0F801968B858B60CFCD2B09F073CF60
:101490008AE090E0D80156969C938E93559755CF4D
:1014A000CD2B09F068CF8BE090E0F801968B858B0F
:1014B0004CCFCD2B09F05FCF8CE090E0D801569651
:1014C0009C938E93559741CFCD2B09F054CF8DE04F
:1014D00090E0F801968B858B38CF249709F04BCF9D
:1014E0008EE090E0D80156969C938E9355972DCF21
:1014F000CD2B09F040CF8FE090E0F801968B858BE3
:1015000024CF0F931F93CF93DF938C01EC016B9645
:10151000CE010E94BE1F882329F4DF91CF911F9135
:101520000F910895CE010E94DD1FC8010E94670738
:10153000882399F3C80160E070E00E945A09DF91A6
:10154000CF911F910F9108950F931F938C010E94CB
:10155000810AC8018B960E94FF06C80188579F4FD9
:101560000E940F071F910F91089564E070E00E94A0
:101570005A09089563E070E00E945A09089562E0F4
:1015800070E00E945A09089561E070E00E945A09D3
:10159000089504966CED75E00E941A200895049653
:1015A0006CED75E00E941A20089504966CED75E0CC
:1015B0000E941A2008950A966CED75E00E941A2088
:1015C00008950A966CED75E00E941A20089507961A
:1015D0006CED75E00E941A20089507966CED75E099
:1015E0000E941A2008950F931F938C010E94C90A2C
:1015F000C8010E94E10AC8010E94ED0A1F910F91E3
:10160000089567E377E00E941A20089560E476E089
:101610000E941A20089565EE73E00E941A20089532
:10162000039664EA76E00E941A20089503966CED12
:1016300075E00E941A200895CF92DF92EF92FF92F8
:101640001F93CF93DF937C01162FEC012196CE01DF
:101650000E94002024E0C22ED12CCE0CDF1CC6013B
:101660000E940020F70110831123C1F4CE0169E02C
:1016700070E00E941421C60167E070E00E9414210E
:10168000C7010E94EF07C7010E94C507DF91CF91F4
:101690001F91FF90EF90DF90CF900895CE016AE008
:1016A00070E00E941421C60168E070E00E941421DD
:1016B000E7CF0F931F93182F092F0E940020812F2F
:1016C000902F6CE070E00E941421812F902F0E94D7
:1016D00006081F910F9108950F931F93182F092F3C
:1016E0000E940020812F902F6BE070E00E94142157
:1016F000812F902F0E9415081F910F9108950F932D
:101700001F938C010E946C0BC80103960E94590B19
:10171000C801069661E00E941C0BC8010D9660E0AE
:101720000E941C0BF801148A168A158AC8014B9670
:1017300062E370E00E94EA1F1F910F910895EF92FB
:10174000FF920F931F938C010E94002043E0E42E30
:10175000F12CE00EF11EC7010E940020C70165E0D8
:1017600070E00E941421C80164E070E00E9414211E
:10177000C8010E94160BC8010E940B0B1F910F910C
:10178000FF90EF900895EF92FF920F931F93CF93E6
:10179000DF93EC018C01095E1F4FC8010E94612498
:1017A000882371F57CE1E72EF12CEC0EFD1EC801BB
:1017B0000E946124882391F4CE010E94E70AC701A8
:1017C0000E946124882391F4CE010E94DB0ADF91FC
:1017D000CF911F910F91FF90EF900895CE010E943D
:1017E000ED0AC7010E946124882371F3CE010E9493
:1017F000E10ADF91CF911F910F91FF90EF90089533
:101800006CE1E62EF12CEC0EFD1EC7010E94612456
:10181000882369F2CE010E94E10ACE010E94ED0AFE
:10182000DF91CF911F910F91FF90EF900895CF938B
:10183000DF93EC01C0960E946124882331F4CE012D
:101840000E94CF0ADF91CF910895CE018B960E941E
:1018500061248823A1F3CE010E94C90ADF91CF91B0
:101860000895CF93DF93EC0186960E94612488232C
:1018700031F4CE010E94D50ADF91CF910895CE01B7
:1018800081960E9461248823A1F3CE010E94C90A97
:10189000DF91CF910895AF92BF92CF92DF92EF92F6
:1018A000FF920F931F938C01A4E0EA2EF12CE80E17
:1018B000F91EC7010E940020F7E0CF2ED12CC00EE8
:1018C000D11EC6010E940020EAE0AE2EB12CA00E6F
:1018D000B11EC5010E940020C8010D9663E470E0AE
:1018E00048E552E00E945424C801429662E470E048
:1018F00048E552E00E945424C80147966EE370E028
:1019000048E552E00E945424C8014C966FE370E011
:1019100048E552E00E945424C80181966CE370E0CF
:1019200048E552E00E945424C801869660E470E0C5
:1019300048E552E00E945424C8018B966DE370E0A4
:1019400048E552E00E945424C801C09661E470E06A
:1019500048E552E00E945424C801835B9F4F62E334
:1019600070E00E94EA1FC8018B5A9F4F64E670E046
:101970000E94EA1FC70166E070E00E941421C601C0
:1019800062E070E00E941421C50163E070E00E94F3
:101990001421C8010E94F30A1F910F91FF90EF904C
:1019A000DF90CF90BF90AF9008950F931F938C015D
:1019B0000E947F0BC80183960E949F0BC8018B96E3
:1019C0000E944B0CC80188579F4F0E9439071F91F6
:1019D0000F910895FC0188E680830895EF92FF92AD
:1019E0000F931F937C019C012F5F3F4F0091D906FD
:1019F0001091DA06FC01808167E142E00E941A053D
:101A0000F701918180E0228130E0282B392BC90138
:101A10001F910F91FF90EF900895EF92FF920F9317
:101A20001F937C019C012F5F3F4F0091D9061091BD
:101A3000DA06FC01808165E142E00E941A05F701A7
:101A4000918180E0228130E0282B392BC9011F9140
:101A50000F91FF90EF900895EF92FF920F931F93D5
:101A60007C019C012F5F3F4F0091D9061091DA064F
:101A7000FC01808163E142E00E941A05F701918137
:101A800080E0228130E0282B392BC9011F910F9172
:101A9000FF90EF900895EF92FF920F931F937C01B8
:101AA0009C012F5F3F4F0091D9061091DA06FC018F
:101AB00080816AE042E00E941A05F701918180E08E
:101AC000228130E0282B392BC9011F910F91FF9003
:101AD000EF900895EF92FF920F931F937C019C016A
:101AE0002F5F3F4F0091D9061091DA06FC018081EB
:101AF00068E042E00E941A05F701918180E02281AE
:101B000030E0282B392BC9011F910F91FF90EF90E6
:101B10000895EF92FF920F931F937C019C012F5F1A
:101B20003F4F0091D9061091DA06FC01808166E0F2
:101B300042E00E941A05F701918180E0228130E0A5
:101B4000282B392BC9011F910F91FF90EF90089519
:101B5000FC01262F80816BE646E00E943506089541
:101B60000F93FC01062F80816BE642E023E00E9488
:101B7000EB050F9108950F93FC01062F80816CE116
:101B800044E022E00E94EB050F9108950F93FC01C1
:101B9000062F80816BE144E022E00E94EB050F916B
:101BA00008950F931F938C0161E00E94B00DC8014E
:101BB00060E00E94C60DC80160E00E94BB0DC80134
:101BC00060E00E94A80D1F910F910895CF92DF92BF
:101BD000EF92FF920F931F936C018C010F5F1F4FC9
:101BE000E090D906F090DA06FC01808165E746E0D6
:101BF00026E00E946F06F60181811F910F91FF90F0
:101C0000EF90DF90CF9008950E94E60D90E084332E
:101C100011F0892F089591E0892F0895CF93DF93D4
:101C2000EC01862F90E0FC01E25BFC4FE491EC8339
:101C3000A42FB0E0FD01E25BFC4FE491ED83885FEF
:101C40009C4FFC01449150E0440F551FFA01EC52A7
:101C5000FD4F859194919F838E83A85FBC4FFD01BA
:101C60008491E82FF0E0EE0FFF1FE251FD4F8591C8
:101C700094919B878A87FA01E654FD4F8591949150
:101C800099878887A901F1E0253F3F0714F044EFC9
:101C900051E09A01220F331F220F331F220F331FEF
:101CA000C901880F991F880F991F880F991F821BE0
:101CB000930B840F951F4C969D878C87DF91CF9156
:101CC00008951F920F920FB60F920BB60F92112428
:101CD0002F933F934F935F936F937F938F939F9334
:101CE000AF93BF93EF93FF93E091B007F091B107EB
:101CF000309709F01995FF91EF91BF91AF919F91A6
:101D00008F917F916F915F914F913F912F910F90A4
:101D10000BBE0F900FBE0F901F901895CF93DF93BF
:101D2000EC01E885F98580819C81892B8083EE8197
:101D3000FF8190818C8180958923808384E090E06D
:101D40000E94AE2EEE81FF8180819C81892B808351
:101D50008AE090E00E94AE2EEE81FF8190818C811E
:101D6000809589238083E885F98590818C81809591
:101D7000892380830E945C2E605B794B8F4F9F4F3D
:101D80006E877F87888B998BEA85FB85808190E0C1
:101D90004D81242F30E082239323892BD9F4242FE3
:101DA00003C02D81EA85FB85808130E090E0282307
:101DB0003923232BF1F40E945C2E2E853F85488920
:101DC0005989261737074807590758F780E0DF91E8
:101DD000CF9108950E945C2E2E853F8548895989B0
:101DE000261737074807590778F6EA85FB854D819E
:101DF000D6CF0E945C2E2C853D8540E050E0260F1A
:101E0000371F481F591F2E873F87488B598B81E00A
:101E1000DF91CF910895CF93DF93EC010E948E0E56
:101E20008823A9F0EA85FB85208130E08D8190E050
:101E300028233923232B89F00E945C2E2E853F8591
:101E400048895989261737074807590758F740E046
:101E500050E0CA01DF91CF9108950E945C2E4C851D
:101E60005D85455050402E853F85421B530B460FE4
:101E7000571FCA01DF91CF9108950E940B0F9C015B
:101E80004C9669E370E00E94AF3040E050E0232BB5
:101E900011F041E050E09B016417750708F49A01C6
:101EA000C9010895FC0184E297E09183808308953D
:101EB000FC01A081B18116978D919C918E0F9F1F7F
:101EC0000E94630F0895FC0182E197E09183808373
:101ED00084E297E0978386830895DC0113968D91C1
:101EE0009C911497892B91F01596ED91FC91169782
:101EF00017968D919C911897E817F90739F0819101
:101F000090E01696FC93EE9315970895ED91FC9151
:101F100011970488F589E02DCD0119950895FC01EC
:101F20008CE497E0918380830895CF93DF93EC0155
:101F3000E881F9810288F389E02D19959C018FEFE2
:101F40002F3F380729F08D819E8101969E838D83D6
:101F5000C901DF91CF910895CB0108958FEF9FEFD5
:101F6000089580E090E0089508950895DC01242FFD
:101F7000ED91FC910084F185E02D41E019950895E3
:101F800080E090E00895FC0122893389808991895D
:101F9000281B390B86899789281B390BC90108959D
:101FA000CF92DF92EF92FF920F931F93CF93DF9325
:101FB000EC016B0179018A01AE89BF896889798951
:101FC0008A899B89861B970BA817B90778F020E0B0
:101FD00030E040E050E0B901CA01DF91CF911F919C
:101FE0000F91FF90EF90DF90CF9008951216130697
:101FF0001406150664F720E030E040E050E0F601FA
:10200000E20FF31F6A0F7B1FDB018C9180832F5F30
:102010003F4F4F4F5F4FAE89BF891196BF8BAE8B3D
:10202000688979898A899B89861B970BA817B907C4
:1020300090F62E153F05400751076CF6E0CFFC01E6
:1020400026893789A089B189828993898A1B9B0B4C
:102050002817390738F4A20FB31F8C91282F30E0CE
:10206000C90108952FEF3FEFC9010895CF93DF9382
:10207000EC01E881F9810288F389E02D19959C0132
:102080008FEF2F3F380729F08E899F8901969F8B0C
:102090008E8BC901DF91CF910895CF93DF93DC013F
:1020A00056964D915C9157974115510511F15096F7
:1020B000CD91DC91519752962D913C9153972C1BC9
:1020C0003D0B24173507B0F18FEF6F3F7807B9F05C
:1020D000FE01E40FF51F319780818617E1F441502E
:1020E000504057965C934E935697CB01DF91CF911A
:1020F00008956FEF7FEFCB01DF91CF9108954150AD
:10210000504057965C934E93569760E070E0CB0139
:10211000DF91CF9108951F968C911F9784FFE9CF8F
:10212000CA01019757969C938E935697C80FD91F53
:102130006883DBCF57963C932E9356976FEF7FEFD4
:10214000D4CF80E090E0089580E090E0089580E0B2
:1021500090E0089580E090E0089560E070E080E015
:1021600090E008956F927F929F92AF92BF92CF922C
:10217000DF92EF92FF920F931F93CF93DF93EC01C7
:102180003B0159016A0112161306140615060CF0DC
:1021900050C0EE24FF24870117C0EB85FC858D8598
:1021A0009E85E817F90748F590828B859C850196F6
:1021B0009C878B870894E11CF11C011D111DEA14FA
:1021C000FB040C051D05ACF5F301EE0DFF1D908021
:1021D0008F8580FFE2CFE881F9810084F185E02DD1
:1021E000CE0160E070E044E020E11995EB85FC85CC
:1021F0008D859E85E817F907B8F2E881F981028C90
:10220000F38DE02DCE01692D70E019958F5F9F4F02
:1022100089F6B701C801DF91CF911F910F91FF900F
:10222000EF90DF90CF90BF90AF909F907F906F9096
:10223000089586017501EDCFCB010895EF92FF92CD
:102240000F931F93CF93DF937C018B01EA016417F7
:102250007507A9F0FC01428153814F5F5F4F4C1B12
:102260005D0BCB01BE010E94480398012C1B3D0B66
:10227000F70182819381820F931F93838283C80128
:10228000DF91CF911F910F91FF90EF9008950F93E1
:102290001F938B0181E090E00E946903FC01108292
:1022A000F80110821F910F910895FC01A081B18166
:1022B00016978D919C918E0F9F1F0E94601108951B
:1022C000FC0182E197E09183808384E297E0978329
:1022D0008683CF010E946A2C0895FC0184E297E076
:1022E00091838083CF010E946A2C0895FC018CE4C5
:1022F00097E091838083CF010E946A2C0895CF9349
:10230000DF93EC018CE297E09983888328893989EF
:102310008C899D898217930719F0C9010E94C9020F
:102320008CE497E099838883DF91CF910895CF93D0
:10233000DF93EC018CE297E09983888328893989BF
:102340008C899D898217930719F0C9010E94C902DF
:102350008CE497E099838883CE010E946A2CDF91F8
:10236000CF910895FC01A081B18116978D919C9128
:102370008E0F9F1F0E94BD110895CF93DF93EC0134
:102380008AEE96E0998388830A9699A388A38CE2C3
:1023900097E09F838E832E893F898A8D9B8D82173C
:1023A000930719F0C9010E94C9028CE497E09F834A
:1023B0008E83E091DE06F091DF06F983E88336979D
:1023C0000190F081E02DEC0FFD1F8091E0069091CF
:1023D000E1069183808384E297E099A388A3CE01EC
:1023E0000E946A2CDF91CF910895FC01A081B181F8
:1023F00016978D919C918E0F9F1F0E940012089539
:10240000CF93DF93EC018AEE96E0998388830A9656
:1024100099A388A38CE297E09F838E832E893F89BE
:102420008A8D9B8D8217930719F0C9010E94C902FA
:102430008CE497E09F838E83E091DE06F091DF06C7
:10244000F983E88336970190F081E02DEC0FFD1FB2
:102450008091E0069091E1069183808384E297E089
:1024600099A388A3DF91CF910895AF92BF92CF92A5
:10247000DF92EF92FF920F931F93CF93DF936C0144
:10248000DC011296ED91FC9113974D915C91DF0167
:10249000A41BB50BCB016A177B0708F4CD015C01C7
:1024A0000894A11CB11CA114B104C9F5EE24FF24A9
:1024B0008F01041B150BC701BA01A8010E94480334
:1024C000E701C00FD11F81E090E0BE010E946903C7
:1024D000FC0110821882F60120813181848195816E
:1024E0008217930719F0C9010E94C902D6011196FB
:1024F000FC92EE921396DC93CE931297AE0CBF1C17
:102500001596BC92AE921497DF91CF911F910F91C7
:10251000FF90EF90DF90CF90BF90AF900895C501EE
:102520000E941F02009779F07C01D6011296ED916E
:10253000FC9113974D915C91BBCF1995C5010E94F9
:102540001F02009789F7E091B207F091B307309727
:10255000A1F780E090E00E94F630FF920F931F9366
:10256000CF93DF938C01F62EDC0112962D913C91D6
:102570001397E901219614968D919C911597C81790
:10258000D907E9F081E090E0BE010E946903FC01F7
:1025900010821882D8011296ED91FC911397F08267
:1025A00012968D919C911397019613969C938E93FE
:1025B0001297DF91CF911F910F91FF9008958D9108
:1025C0009C91F901E81BF90BCF0171F461E070E017
:1025D000680F791FC8010E943512D8011296CD915B
:1025E000DC9113972196CECFBF01F2CF0F931F93AB
:1025F000CF93DF938C01EB018FEF6F3F780741F4AE
:10260000C0E0D0E0CE01DF91CF911F910F910895EE
:10261000D8011F968C9184FF1AC0F801208D318D4E
:102620000088F189E02DD80152968D919C915397A5
:102630008E1B9F0B2817390768F4E20FF31F608386
:10264000F801808D918D0196918F808FDBCFCFEF38
:10265000DFEFD8CFC80140960E94AD12F1CFCF92E4
:10266000DF92EF92FF920F931F93CF93DF938C0132
:10267000FB0130E0C90188719070489709F4DBC014
:10268000C9018870907020713070413009F4B4C075
:10269000423009F46DC0D80152964D915C91539728
:1026A00050966D917C915197DA01A61BB70BEF0103
:1026B000CA0FDB1FAC17BD0708F479C0892B19F0CE
:1026C000F801D78BC68B232B09F48BC080E1C82E71
:1026D000D12CC00ED11E9A01261B370B2C173D079B
:1026E00008F068C07E01E21AF30AF801848995892E
:1026F0000197861B970B8C179D0778F4B701E2169C
:10270000F30608F496C0620F731FC6010E943512CB
:10271000D80152964D915C915397E114F10409F45C
:1027200053C09A012F5F3F4FFA01EE0DFF1DE21BD0
:10273000F30BC90160E070E0AF010E945A03F80199
:10274000628973896E0D7F1DC6010E944711D801F1
:102750005296ED91FC915397108252964D915C9157
:1027600053974E0D5F1D53965C934E9352972CC01A
:102770002115310509F04EC0C0E0D0E0D8015096D7
:102780006D917C91519752964D915C915397009722
:1027900039F0D8015696CD91DC915797CE0FDF1FB7
:1027A000DA01A61BB70BAC17BD0708F087CF2FEFD8
:1027B0003FEF18C06C0F7D1FC6010E941E11D8018B
:1027C00052964D915C915397F801808991899A01B5
:1027D000281B390B868997892817390710F4378BFE
:1027E000268B9E01C901DF91CF911F910F91FF9020
:1027F000EF90DF90CF900895EF01D80150966D9142
:102800007C91519752964D915C915397DA01A61B9A
:10281000B70B50CFD80152964D915C91539750967B
:102820006D917C915197EA01C61BD70BCE0FDF1F2C
:10283000AECFB90168CF423009F022CFB8CF8F9226
:102840009F92AF92BF92DF92EF92FF920F931F93EE
:10285000CF93DF935C017B01DC01CD91DC91269766
:10286000E881F9812696E80FF91F0189128901157F
:10287000110501F1D801ED91FC9136970190F0819D
:10288000E02DE00FF11FA389B489ED91FC91119720
:102890000484F585E02DCD0119958F5F9F4F09F4D4
:1028A000E7C0F501C081D1812697E881F98126969C
:1028B000EA0DFB1DA389B48913968D919C91149701
:1028C000892B09F4B2C01596ED91FC9116971796D5
:1028D0008D919C911897E817F90709F4A6C080819B
:1028E00090E00E94EB30892B09F084C02697288164
:1028F0003981F501E20FF31F83889488D701ED91A8
:10290000FC91119712968D919C911397E817F907F6
:1029100071F010828D919C91119713969C938E93D8
:102920001297D501ED91FC91369720813181F90103
:102930003296EA0DFB1D2285338544855585128626
:10294000138614861586E9012115310509F0E9C0C1
:102950000EEF1FEF1EC081E090E0BE010E946903F0
:10296000FC0110821882D7011296ED91FC91139709
:10297000D08212962D913C9113972F5F3F4F139663
:102980003C932E9312970115110509F4B5C001501F
:102990001040C4010E946D0FBFEF8F3F9B0709F4E9
:1029A000C6C0D82E992787FD90950E94EB30892BC1
:1029B00009F070C0F70122813381E90121968481F9
:1029C0009581C817D90739F680819181A901481BE3
:1029D000590BCA0109F0A3C061E070E0680F791FCC
:1029E000C7010E943512D7011296CD91DC91139741
:1029F0002196B1CF2697E881F981EA0DFB1D8389E5
:102A000094890E946D0FD501CD91DC912697E881C4
:102A1000F9812696EA0DFB1DA389B48913968D9141
:102A20009C911497892B09F04ECFED91FC91119751
:102A30000288F389E02DCD011995BFEF8F3F9B07E9
:102A400009F0C0C0D501ED91FC9111973697019026
:102A5000F081E02DEA0DFB1D2581322F3260838944
:102A60009489892B09F48AC03583CD91DC913ECFBE
:102A7000D801ED91FC9136970190F081E02DE00FA7
:102A8000F11F2581216083899489892B09F47CC0F9
:102A9000258307CFF401238134812115310551F0BD
:102AA000858196812817390729F0FC018291D81673
:102AB00009F474C0D401ED91FC910688F789E02DEA
:102AC000C4016D2D70E019958F5F9F4F91F4D50172
:102AD000ED91FC9136970190F081E02DEA0DFB1D00
:102AE0002581322F346083899489892B09F44EC063
:102AF0003583F70122813381F70180819181281785
:102B0000390751F1C501DF91CF911F910F91FF90CE
:102B1000EF90DF90BF90AF909F908F900895BA0193
:102B20005DCFC701B9010E9435128E0130CFD501AA
:102B3000ED91FC9136970190F081E02DEA0DFB1D9F
:102B40002581322F326083899489892B81F13583E5
:102B5000F70122813381D0CFD501ED91FC913697D9
:102B60000190F081E02DEA0DFB1D2581322F3460AC
:102B700083899489892B19F13583C4CF23602583F8
:102B8000F501C081D181B2CE25833DCF256025835B
:102B9000D70112962D913C911397AECFD401169682
:102BA000FC93EE931597F70122813381A5CF236023
:102BB0002583D70112962D913C9113979DCF2560C7
:102BC0002583A0CFF501C081D1818BCE8F929F92BA
:102BD000AF92BF92CF92DF92EF92FF920F931F932B
:102BE000CF93DF937C018B016A01DC014D915C91F5
:102BF000119712962D913C911397241B350BE601EA
:102C0000C61BD70B2C173D0708F075C0CA01A901D8
:102C10000E943F03D7011296ED91FC9113976D919D
:102C20007C911197AF01461B570B5801A40EB51E9E
:102C3000CA14DB0409F451C0E601CA19DB099E017C
:102C4000240F351F14968D919C9115970197861B23
:102C5000970B8217930708F081C09A012F5F3F4FAF
:102C6000CE01C431D10508F463C04901880E991E14
:102C70008114910409F065C0CC24DD248F01061B6A
:102C8000170BC601A8010E9448030C0D1D1DC801A9
:102C9000B501AE010E944803C00FD11F81E090E052
:102CA000BE010E946903FC0110821882D7012D9198
:102CB0003C91119714968D919C91159782179307CB
:102CC00019F0C9010E94C902F701D182C082D383E1
:102CD000C2838C0C9D1C95828482C701DF91CF91A9
:102CE0001F910F91FF90EF90DF90CF90BF90AF902A
:102CF0009F908F900895CA01AE010E943F03D701B3
:102D0000ED91FC911197EC0FFD1F12960D90BC9167
:102D1000A02DEA17FB0709F38C918083EA1BFB0BBC
:102D2000E7018A819B818E0F9F1F9B838A83D5CF6A
:102D300084E190E04901880E991E8114910409F400
:102D40009BCFC4010E941F020097C1F16C01F701E3
:102D5000608171810280F381E02D90CFB5016F5FBA
:102D60007F4FC61AD70ACF010196A6010E944803D9
:102D7000D70112960D911C9113970C0F1D1F81E026
:102D800090E0B8010E946903FC011082F8011082F2
:102D9000D7011296ED91FC911397D5018C91808308
:102DA000F701828193818C0F9D1F9383828395CF3E
:102DB0001995C4010E941F02009741F6E091B207E5
:102DC000F091B3073097A1F780E090E00E94F630D1
:102DD0003F924F925F926F927F928F929F92AF92AB
:102DE000BF92CF92DF92EF92FF920F931F93DF93E8
:102DF000CF93CDB7DEB728970FB6F894DEBF0FBEDE
:102E0000CDBF3C019AE0492E512C460C571CCE01F7
:102E1000019698878F8389E29BE00E947B2A18168F
:102E200019062CF4F301808591854C97C4F02896FF
:102E30000FB6F894DEBF0FBECDBFCF91DF911F91CB
:102E40000F91FF90EF90DF90CF90BF90AF909F9049
:102E50008F907F906F905F904F903F90089589E2A0
:102E60009BE00E94AD2A382EFAE08F1709F445C185
:102E7000D3011C960D911C911D971A968D919C91D2
:102E80001B97081B190B0E5F1F4F1A8219821C8299
:102E90001B821E821D82BFEF0F3F1B0771F00115C1
:102EA000110509F00BC180E090E09A8389839C832F
:102EB0008B83080F191F1E830D830B811C8181E0FA
:102EC00090E0B8010E946903FC011082F8011082B1
:102ED000D3011A968D909C901B971C96ED91FC91B6
:102EE0001D978E169F0609F403C14B815C81698191
:102EF0007A81DA01A61BB70B6F01C818D9089601B1
:102F00002A0F3B1F8D819E810197861B970B82178D
:102F1000930708F079C09D012F5F3F4FC601B4E1D0
:102F2000CB16D10410F484E190E05901A80EB91E2B
:102F3000A114B10409F0A7C0EE24FF248A01061BE6
:102F4000170BC701A8010E9448030E0D1F1DC801E1
:102F5000B401A6010E9448030C0D1D1D81E090E004
:102F6000B8010E946903FC011082F80110822981D6
:102F70003A818D819E818217930719F0C9010E94C1
:102F8000C902FA82E9821C830B83AE0CBF1CBE828D
:102F9000AD82A8018A010F5F1F4F8D819E810817A6
:102FA000190709F45CC081E090E0B8010E94690350
:102FB000FC011082F8011082EB81FC8130824B8190
:102FC0005C814F5F5F4F5C834B838F819885841555
:102FD000950529F069817A81C2010E94E61529814F
:102FE0003A818D819E818217930719F0C9010E9451
:102FF000C902D30118968D919C9119970196199643
:103000009C938E93189707CFB4016F5F7F4FE61B99
:10301000F70BCA010196AF010E9448030B811C8186
:103020000C0D1D1D81E090E0B8010E946903FC01B8
:103030001082D8011C92EB81FC81D4018C91808399
:103040004B815C814C0D5D1D5C834B838A010F5F5E
:103050001F4F8D819E810817190709F0A4CF898120
:103060009A818A01081B190B09F045C061E070E0E4
:10307000600F711FCE0101960E9435120B811C81D9
:103080000F5F1F4F90CFC5010E941F02009761F094
:103090007C014B815C8169817A8150CF1995C50192
:1030A0000E941F020097A1F7E091B207F091B307C9
:1030B0003097A1F780E090E00E94F630C8010E94AE
:1030C0001F02009709F0F1CEE091B207F091B3072B
:1030D000309781F31995C8010E941F02009709F0EB
:1030E000E4CEE091B207F091B307309799F7E2CFC1
:1030F0004B815C814FCFB801BBCF89E29BE06EE092
:1031000075E00E94E02DD30118968D919C9119973E
:10311000181619060CF5F301108A89E29BE06BE1A1
:1031200075E00E94C12DD3011A966D917C911B9779
:1031300089E29BE00E94C12D89E29BE069E275E093
:103140000E94C12DF3016085718589E29BE04AE010
:1031500050E00E94A22D6BCE81E050968C93DDCF83
:103160002F923F924F925F926F927F928F929F9297
:10317000AF92BF92CF92DF92EF92FF920F931F9385
:10318000CF93DF935C013B014A014217530709F4D7
:103190006CC06901C41AD50ADC011296ED91FC914C
:1031A000139714968D919C9115978E1B9F0BC816A3
:1031B000D9060CF46DC0D5012D913C91BF01621B65
:1031C000730B6F5F7F4FC601B4E1CB16D10410F4CF
:1031D00084E190E01B01280E391E2114310409F00E
:1031E000B1C0442455248301021B130BC201B90151
:1031F000A8010E9448037201E00EF11EC701B4014C
:10320000A6010E944803EC0CFD1CD50112960D91FD
:103210001C91139706191709C701B301A8010E9451
:103220004803E701C00FD11F81E090E0BE010E947A
:103230006903FC0110821882F501208131818481AB
:1032400095818217930719F0C9010E94C902D5011F
:1032500011965C924E921396DC93CE931297240CA7
:10326000351C15963C922E921497DF91CF911F91A9
:103270000F91FF90EF90DF90CF90BF90AF909F9015
:103280008F907F906F905F904F903F902F90089518
:10329000EF01C61BD70BCC15DD051CF1BF016C1966
:1032A0007D096F5F7F4FCF010196AC01461B570B25
:1032B0000E944803F501828193818C0D9D1D9383AB
:1032C00082832196CC19DD09C3018C0D9D1DB301AC
:1032D000AE010E944803C301B401A6010E943F034E
:1032E000C4CF21967A01EC0EFD1E21978F010F5F4E
:1032F0001F4F2E193F09C801B701A9010E944803B9
:10330000CC1ADD0AD50112968D919C9113978C0DE4
:103310009D1D13969C938E93129706191709B3015E
:10332000A8010E944803F501828193818C0F9D1FA3
:1033300093838283E818F908C301B401A7010E94AE
:103340003F0393CFC1010E941F02009759F02C0147
:10335000F5012081318147CF1995C1010E941F02DB
:103360000097A9F7E091B207F091B3073097A1F762
:1033700080E090E00E94F6302F923F924F925F9251
:103380006F927F928F929F92AF92BF92CF92DF9275
:10339000EF92FF920F931F93CF93DF935C01FB019A
:1033A000522E432E342E252EDC0158966D917C91A1
:1033B0005997C22ED32E50962D913C915197490189
:1033C000860E971E52968D919C915397821B930B5C
:1033D000861B970BA6018C159D0508F4AC017A019C
:1033E000E60EF71EE20EF31E3F016C0C7D1CE3019E
:1033F000CE1BDF0BC701881999098C179D078CF527
:103400008F01080F191F98012E1B3F0BC401BF012C
:10341000A9010E943F03C5014096B701A80193018D
:1034200000E00E94B018F501808D918D8C0D9D1DDE
:10343000918F808F652D742D832D922DDF91CF91EB
:103440001F910F91FF90EF90DF90CF90BF90AF90C2
:103450009F908F907F906F905F904F903F902F90B4
:103460000895C401BF01AE010E943F03C80DD91DDC
:10347000EC16FD06C1F2F501428953894F5F5F4F9B
:103480004E195F09CE01B7010E944803CE19DF092A
:10349000D50152968D919C9153978C0F9D1F5396F9
:1034A0009C938E935297BFCF3F924F925F926F92B1
:1034B0007F928F929F92AF92BF92CF92DF92EF92C4
:1034C000FF920F931F93DF93CF93CDB7DEB7609733
:1034D0000FB6F894DEBF0FBECDBF7C01DC011A969B
:1034E0006D917C911B971C964D915C911D978796D1
:1034F0000E94E615F70116A615A686A181FFA8C1B0
:1035000081A592A527A130A5821B930B90AB87A71D
:10351000F7017196F88BEF87D7015196ED91FC91E9
:10352000529736970190F081E02D8F859889E80FAA
:10353000F91F83899489892B09F4F1C115821A82B4
:1035400019821C821B821E821D8288E090E00E94EC
:103550001F028C01009709F411C11A8309831C838F
:103560000B83085F1F4F1E830D830850104081E0BE
:1035700090E0B8010E946903FC011082D8011C92FE
:103580008F859889BE016F5F7F4F0E941F14E9816C
:10359000FA81308089E29BE06AE375E00E94C12DE8
:1035A000E981FA818181C82EDD24C7FCD094E0ED49
:1035B000FFEFCE0EDF1E89E29BE0632D0E949C2C64
:1035C00089E29BE067E475E00E94C12D89E29BE0FF
:1035D000B6014AE050E00E94A22D88E090E00E94EF
:1035E0001F029E878D87892B09F4DCC081E090E063
:1035F0006D857E850E946903FC011082AD85BE85C4
:103600001C9288E090E00E941F022C01009709F4B0
:10361000D9C081E090E0B2010E946903FC011082F0
:10362000F201108288E090E00E941F023C010097A6
:1036300009F4D8C081E090E0B3010E946903FC0165
:103640001082D3011C9288E090E00E941F024C017E
:10365000009709F4D7C081E090E0B4010E946903AB
:10366000FC011082F401108288E090E00E941F02A9
:103670005C01009709F4D6C081E090E0B5010E949A
:103680006903FC011082D5011C9218861F821A86DC
:1036900019861C861B8688E090E00E941F02009716
:1036A00009F4CFC08F83988789879A878F819885FF
:1036B00008969C878B8709851A8581E090E0B80180
:1036C0000E946903FC011082F8011082F5E43F16A4
:1036D00009F48FC1F3150CF0C1C0A3E53A1609F443
:1036E00021C1B4E53B1609F4D5C0E2E53E1609F464
:1036F000F7C02F8138858B859C858217930719F039
:10370000C9010E94C902C5010E94C902C4010E94E8
:10371000C902C3010E94C902C2010E94C9028D856B
:103720009E850E94C90229813A818D819E818217DE
:10373000930719F0C9010E94C90260960FB6F89468
:10374000DEBF0FBECDBFCF91DF911F910F91FF90D4
:10375000EF90DF90CF90BF90AF909F908F907F9031
:103760006F905F904F903F900895199588E090E09A
:103770000E941F028C01009709F0EFCEE091B20782
:10378000F091B307309789F780E090E00E94F6301F
:10379000199588E090E00E941F029E878D87892BF3
:1037A00009F024CFE091B207F091B307309781F789
:1037B000EBCF199588E090E00E941F022C01009742
:1037C00009F027CFE091B207F091B307309789F75E
:1037D000DBCF199588E090E00E941F023C01009722
:1037E00009F028CFE091B207F091B307309789F73D
:1037F000CBCF199588E090E00E941F024C01009702
:1038000009F029CFE091B207F091B307309789F71B
:10381000BBCF199588E090E00E941F025C010097E1
:1038200009F02ACFE091B207F091B307309789F7FA
:10383000ABCF199588E090E00E941F02009709F035
:1038400031CFE091B207F091B307309791F79CCF59
:10385000D701D0961C921E929F975ACE81E43816BB
:1038600009F486C094E4391609F043CFB1E0CB16D1
:10387000D10409F41AC1E2E0CE16D10409F40EC154
:10388000CD2809F036CF89E29BE06CE676E00E9415
:10389000C12D2FCFB1E0CB16D10409F46DC1E2E008
:1038A000CE16D1040CF4B0C1F2E0CF16D10409F465
:1038B00051C183E0C816D10409F01BCF89E29BE017
:1038C0006BE176E00E94C12DE7E4F0E0EE0EFF1E12
:1038D000D7018D919C910E94B2060E94B50A09CF32
:1038E000B1E0CB16D10409F4B5C0E2E0CE16D104A4
:1038F00009F4C2C0CD2809F0FCCE89E29BE062E366
:1039000076E00E94C12D87E490E0E80EF91ED70111
:103910008D919C910E94B8060E94C30BEACE81E073
:1039200085830DCEF2E0CF16D10409F449C183E0BE
:10393000C816D1040CF473C0A3E0CA16D10409F46C
:103940002DC1B4E0CB16D10409F0D3CE89E29BE0BF
:103950006AEB75E00E94C12DE7E4F0E0EE0EFF1E79
:10396000D7018D919C910E94B3060E94010BC1CE9C
:10397000B1E0CB16D10409F4C6C0E2E0CE16D10402
:1039800009F49AC0CD2809F0B4CE89E29BE060E644
:1039900076E00E94C12D8F859889BE01695F7F4FB7
:1039A0000E941F148F8198850E942103BC0189E227
:1039B0009BE04AE050E00E94A22D87E490E0E80EF0
:1039C000F91ED7018D919C910E94B8068C018F81C0
:1039D00098850E942103AA2797FDA095BA2FBC01C4
:1039E000CD010E944930AB01BC01C8010E94B10663
:1039F00080CEC114D10439F489E29BE06CE876E012
:103A00000E94C12D76CEF1E0CF16D10409F071CE1F
:103A100089E29BE069EA76E00E94C12D6ACEC1147A
:103A2000D10409F4DFC091E0C916D10409F061CED8
:103A300089E29BE063E675E00E94C12DE7E4F0E0D7
:103A4000EE0EFF1ED7018D919C910E94B3060E943D
:103A5000100B4FCE89E29BE060E476E00E94C12D1E
:103A6000E7E4F0E0EE0EFF1ED7018D919C910E94DD
:103A7000B8060E94310C3DCE89E29BE060E576E01D
:103A80000E94C12DE7E4F0E0EE0EFF1ED7018D91FC
:103A90009C910E94B8060E94170C2BCE89E29BE0F5
:103AA00063E876E00E94C12D24CE89E29BE066E7C0
:103AB00076E00E94C12D1DCE89E29BE060E676E0B3
:103AC0000E94C12D8F859889BE01695F7F4F0E943A
:103AD0001F148F8198850E942103BC0189E29BE01D
:103AE0004AE050E00E94A22DE7E4F0E0EE0EFF1E57
:103AF000D7018D919C910E94B8068C018F81988589
:103B00000E94210368CF89E29BE060E676E00E9494
:103B1000C12D8F859889BE01695F7F4F0E941F1458
:103B20008F8198850E942103BC0189E29BE04AE0D5
:103B300050E00E94A22DE7E4F0E0EE0EFF1ED70158
:103B40008D919C910E94B8068C018F8198850E946E
:103B5000210341CF89E29BE064E076E00E94C12D21
:103B6000E7E4F0E0EE0EFF1ED7018D919C910E94DC
:103B7000B2060E94BA0ABDCD89E29BE06CEE75E008
:103B80000E94C12D87E490E0E80EF91ED7018D91C7
:103B90009C910E94B2060E94BF0AABCD89E29BE0D5
:103BA00069E975E00E94C12DE7E4F0E0EE0EFF1E2A
:103BB000D7018D919C910E94B3060E94060B99CD6E
:103BC00089E29BE06CE775E00E94C12DE7E4F0E03C
:103BD000EE0EFF1ED7018D919C910E94B3060E94AC
:103BE0000B0B87CD89E29BE069E475E00E94C12D53
:103BF000E7E4F0E0EE0EFF1ED7018D919C910E944C
:103C0000B3060E94160B75CDCD2809F072CD89E25E
:103C10009BE064ED75E00E94C12DA7E4B0E0EA0EE0
:103C2000FB1EF701808191810E94B2060E94C40AA6
:103C300060CDEF92FF920F931F93DF93CF9300D04D
:103C400000D0CDB7DEB78C010E94BE1F882369F477
:103C500026960FB6F894DEBF0FBECDBFCF91DF9191
:103C60001F910F91FF90EF900895C8010E94DD1FF2
:103C7000C8010E94E816D80150968C91882341F71C
:103C800089E29BE063EC76E00E94E02DC8010E948F
:103C9000541A81E0F801808B1A8219821C821B82DF
:103CA0001E821D8281E090E00E941F027C0100972D
:103CB00009F46AC0FA82E9820894E11CF11CFE82D0
:103CC000ED820894E108F108FC82EB8281E090E04B
:103CD000B7010E946903FC011082D7011C92980170
:103CE000295D3F4FCE0101968217930739F0698114
:103CF0007A814B815C81C9010E94E615F80116A604
:103D000015A686A181FF31C081A592A527A130A566
:103D1000821B930B90AB87A7D8015196ED91FC9134
:103D2000529736970190F081E02D0F5E1F4FE00F04
:103D3000F11F0151104083899489892B79F11582F3
:103D400029813A818D819E818217930719F0C901DB
:103D50000E94C902F80111861086C8010A9662ED18
:103D600076E0AB010E94E61573CFD801D0961C9285
:103D70001E929F97D1CF199581E090E00E941F027B
:103D80007C01009709F096CFE091B207F091B3075C
:103D9000309789F780E090E00E94F63081E08583DB
:103DA000CFCFEF92FF920F931F93CF93DF93EC014E
:103DB0007B0164E670E00E94EA1F198618861B8664
:103DC0001A861D861C861F861E8688E090E00E944B
:103DD0001F02009709F4B9C08A879B878C879D874B
:103DE0008A859B8508969F878E870C851D8581E037
:103DF00090E0B8010E946903FC011082F801108272
:103E0000BE01695E7F4F41E250E01FAA18AE86E016
:103E100090E0A0E0B0E089AF9AAFABAFBCAFED9659
:103E2000199219921992199280E289931982188233
:103E3000C254D0405DAB4CABCC5BDF4F7983688321
:103E4000C454D0401EAACA5BDF4F1882C654D0406B
:103E5000E091DE06F091DF06FA8BE98B9E012F5E82
:103E60003F4F36970190F081E02DE20FF31F8091D4
:103E7000E0069091E106918380831B8A1C8A1D8A4B
:103E80001E8AE989FA8936970190F081E02DE20FC8
:103E9000F31F54834383748B638B1582158A8AEED8
:103EA00096E09A8B898B0A969AAB89AB1B8E1A8EF9
:103EB0001D8E1C8E1F8E1E8E19A218A21BA21AA266
:103EC0001DA21CA21EA28CE297E0988F8F8B18A6D1
:103ED0001FA21AA619A61CA61BA688E090E00E94A5
:103EE0001F02009709F443C08FA398A789A79AA738
:103EF0008FA198A508969CA78BA709A51AA581E074
:103F000090E0B8010E946903FC011082F801108260
:103F10001EA61DA618AA1FA688E08EA3C95BDF4FA8
:103F2000F982E882C754D04081E0888BDF91CF913D
:103F30001F910F91FF90EF900895199588E090E000
:103F40000E941F02009709F047CFE091B207F0915D
:103F5000B307309791F780E090E00E94F630199512
:103F600088E090E00E941F02009709F0BDCFE09129
:103F7000B207F091B307309791F7EDCF0F931F93EE
:103F80008C010E944E2EE0E0D80114962D913D91B7
:103F90004D915C911797621B730B840B950B2D91C0
:103FA0003D914D915C9126173707480759070CF44E
:103FB000E1E08E2F1F910F9108950F931F938C01B5
:103FC0000E944E2EF80164837583868397831F9128
:103FD0000F9108950F931F938C01882777FD80958B
:103FE000982FF80160837183828393830E944E2E01
:103FF000F80164837583868397831F910F910895D9
:10400000FC018091B407803318F08FEF808308950E
:1040100080838F5F8093B407815090E0FC01EE0FA6
:10402000FF1FE80FF91FEB54F84F88EB9BE09283DA
:1040300081830895FC012081203338F581819927FF
:1040400087FD909548E850E0481B590B440F551FD9
:10405000440F551F64177507CCF442505040CA01F5
:10406000AA2797FDA095BA2F880F991FAA1FBB1FDB
:104070004FB7F89430E0F901EE0FFF1FE20FF31F86
:10408000EB54F84F928381834FBF08958281992723
:1040900087FD909548E552E0481B590B440F551F8A
:1040A000440F551F64177507C4F6AB01D6CFCF92E6
:1040B000DF92EF92FF921F93CF93DF93EC01162FC5
:1040C0007A0169018881803340F0DF91CF911F919F
:1040D000FF90EF90DF90CF900895862F61E00E94CF
:1040E0004F2F888190E0FC01EE0FFF1FE80FF91FB2
:1040F000EB54F84F1F738081807C812B808380E29A
:1041000092E08E199F0997FD71C0959587959595B9
:104110008795898380E699E08C199D0997FD64C095
:1041200095958795959587958A83A8818A2F6CE0C8
:104130000E94A330682F70E0AB01440F551F460F5B
:10414000571F440F551F440F551F20E030E0C90191
:10415000840F951FFC01EE0FFF1FE80FF91FEB54B2
:10416000F84F808186FD1BC02F5F3F4F2C303105FB
:1041700071F76130710541F162307105C9F1633049
:10418000710509F042C01092A00082E08093A10066
:104190001092A5001092A40089BB809372008A2F10
:1041A00090E0FC01EE0FFF1FE80FF91FEB54F84FF2
:1041B0008081806480838881DF91CF911F91FF90FF
:1041C000EF90DF90CF9008951092800082E080936E
:1041D00081001092850010928400B19A80916F0046
:1041E000826080936F00DBCF03969ACF03968DCFCA
:1041F0001092900082E080939100109295001092AE
:10420000940088BB80937100CACF672B41F610924F
:10421000200182E080932101109225011092240157
:104220008ABB80937300BBCF40E252E020E639E0C6
:104230000E94572008951F920F920FB60F920BB64F
:104240000F9211242F933F934F935F936F937F931C
:104250008F939F93AF93BF93EF93FF938091460803
:1042600087FDB2C080914608992787FD90950C96EE
:104270004091B407242F30E0821793070CF443C019
:10428000809146088F5F8093460880914608992761
:1042900087FD90950C96242F30E0821793072CF41D
:1042A000809146088C300CF453C08091840090912A
:1042B0008500049680549C49F8F080918400909188
:1042C0008500049690938900809388008FEF8093F7
:1042D0004608FF91EF91BF91AF919F918F917F9190
:1042E0006F915F914F913F912F910F900BBE0F9067
:1042F0000FBE0F901F90189580E49CE99093890061
:1043000080938800E3CF80914608992787FD909598
:104310000C96FC01EE0FFF1FE80FF91FEB54F84F4E
:10432000808186FFADCF80914608992787FD9095C3
:104330000C96FC01EE0FFF1FE80FF91FEB54F84F2E
:1043400080818F7360E00E9411304091B40798CF54
:10435000209184003091850080914608992787FD3F
:1043600090950C96FC01EE0FFF1FE80FF91FEB5420
:10437000F84F81819281280F391F30938900209353
:10438000880080914608992787FD90950C96FC013E
:10439000EE0FFF1FE80FF91FEB54F84F808186FFE7
:1043A00098CF80914608992787FD90950C96FC013F
:1043B000EE0FFF1FE80FF91FEB54F84F80818F734A
:1043C00061E00E94113085CF109285001092840028
:1043D0004091B40755CF1F920F920FB60F920BB6B4
:1043E0000F9211242F933F934F935F936F937F937B
:1043F0008F939F93AF93BF93EF93FF938091450863
:1044000087FDABC080914508992787FD9095409125
:10441000B407242F30E0821793070CF442C0809138
:1044200045088F5F8093450880914508992787FD4F
:104430009095242F30E0821793072CF48091450843
:104440008C300CF451C08091240190912501049688
:1044500080549C49F8F080912401909125010496A4
:1044600090932901809328018FEF80934508FF9155
:10447000EF91BF91AF919F918F917F916F915F91DC
:104480004F913F912F910F900BBE0F900FBE0F9049
:104490001F90189580E49CE990932901809328014E
:1044A000E3CF80914508992787FD9095FC01EE0F99
:1044B000FF1FE80FF91FEB54F84F808186FFAFCF45
:1044C00080914508992787FD9095FC01EE0FFF1F0D
:1044D000E80FF91FEB54F84F80818F7360E00E9462
:1044E00011304091B4079BCF2091240130912501D8
:1044F00080914508992787FD9095FC01EE0FFF1FDD
:10450000E80FF91FEB54F84F81819281280F391F72
:10451000309329012093280180914508992787FD30
:104520009095FC01EE0FFF1FE80FF91FEB54F84FB9
:10453000808186FF9CCF80914508992787FD9095C3
:10454000FC01EE0FFF1FE80FF91FEB54F84F8081BD
:104550008F7361E00E9411308ACF10922501109272
:1045600024014091B4075BCF1F920F920FB60F92B8
:104570000BB60F9211242F933F934F935F936F933A
:104580007F938F939F93AF93BF93EF93FF9380910C
:10459000480887FDB2C080914808992787FD90950B
:1045A00084964091B407242F30E0821793070CF4CF
:1045B00043C0809148088F5F8093480880914808E5
:1045C000992787FD90958496242F30E082179307D2
:1045D0002CF4809148088C300CF453C08091A400D6
:1045E0009091A500049680549C49F8F08091A40015
:1045F0009091A50004969093A9008093A8008FEF56
:1046000080934808FF91EF91BF91AF919F918F9157
:104610007F916F915F914F913F912F910F900BBEC2
:104620000F900FBE0F901F90189580E49CE9909317
:10463000A9008093A800E3CF80914808992787FDBF
:1046400090958496FC01EE0FFF1FE80FF91FEB54C5
:10465000F84F808186FFADCF80914808992787FD6C
:1046600090958496FC01EE0FFF1FE80FF91FEB54A5
:10467000F84F80818F7360E00E9411304091B40741
:1046800098CF2091A4003091A500809148089927E7
:1046900087FD90958496FC01EE0FFF1FE80FF91F30
:1046A000EB54F84F81819281280F391F3093A90074
:1046B0002093A80080914808992787FD90958496BB
:1046C000FC01EE0FFF1FE80FF91FEB54F84F80813C
:1046D00086FF98CF80914808992787FD909584960A
:1046E000FC01EE0FFF1FE80FF91FEB54F84F80811C
:1046F0008F7361E00E94113085CF1092A500109257
:10470000A4004091B40755CF1F920F920FB60F929D
:104710000BB60F9211242F933F934F935F936F9398
:104720007F938F939F93AF93BF93EF93FF9380916A
:10473000470887FDB2C080914708992787FD90956B
:1047400048964091B407242F30E0821793070CF469
:1047500043C0809147088F5F809347088091470846
:10476000992787FD90954896242F30E0821793076C
:104770002CF4809147088C300CF453C08091940045
:1047800090919500049680549C49F8F08091940093
:1047900090919500049690939900809398008FEFE4
:1047A00080934708FF91EF91BF91AF919F918F91B7
:1047B0007F916F915F914F913F912F910F900BBE21
:1047C0000F900FBE0F901F90189580E49CE9909376
:1047D000990080939800E3CF80914708992787FD3F
:1047E00090954896FC01EE0FFF1FE80FF91FEB5460
:1047F000F84F808186FFADCF80914708992787FDCC
:1048000090954896FC01EE0FFF1FE80FF91FEB543F
:10481000F84F80818F7360E00E9411304091B4079F
:1048200098CF209194003091950080914708992766
:1048300087FD90954896FC01EE0FFF1FE80FF91FCA
:10484000EB54F84F81819281280F391F30939900E2
:104850002093980080914708992787FD9095489666
:10486000FC01EE0FFF1FE80FF91FEB54F84F80819A
:1048700086FF98CF80914708992787FD90954896A5
:10488000FC01EE0FFF1FE80FF91FEB54F84F80817A
:104890008F7361E00E94113085CF109295001092C5
:1048A00094004091B40755CFFC017183608312825C
:1048B000548343830895FC01828191E08927828398
:1048C0000895CF93DF93EC018A81882369F488816E
:1048D0000E941A2F40E02B813C81281739076CF485
:1048E000842FDF91CF91089588810E941A2F40E094
:1048F0002B813C81281739079CF741E0842FDF91F9
:10490000CF91089581E080938E0860936B08109298
:104910008C0810928D08089520916A0830E08091EB
:104920006908281B3109C9010895409169088091DF
:104930006A08481760F4E42FF0E0E75BF74F8081E6
:10494000282F30E04F5F40936908C90108952FEF89
:104950003FEFC9010895E091690880916A08E8175E
:1049600040F4F0E0E75BF74F8081E82FF0E0CF0103
:104970000895EFEFFFEFCF01089508951092920888
:104980001092910888EE93E0A0E0B0E08093930845
:1049900090939408A0939508B09396088CE697E0BE
:1049A0009093900880938F080895CF92DF92EF92B2
:1049B000FF920F931F93CF93DF937C016B018A01CA
:1049C00080918E088823F9F04115510591F0C0E0DF
:1049D000D0E0D701ED91FC91D601AC0FBD1F019045
:1049E000F081E02DC7016C9119952196C017D10770
:1049F00080F3C801DF91CF911F910F91FF90EF904D
:104A0000DF90CF900895CB01642F0E941F26F1CF35
:104A1000DF93CF930F92CDB7DEB7FC01698380910E
:104A20008E08882319F180918D088032A0F480913E
:104A30008C08E82FF0E0E459F74F998190838F5F5D
:104A400080938C0880938D0821E030E0C9010F909D
:104A5000CF91DF91089581E090E09383828320E0FD
:104A600030E0C9010F90CF91DF910895CE010196FA
:104A700061E00E941F2621E030E0C9010F90CF9134
:104A8000DF9108950F93062F80916B086CE678E014
:104A900040918D0821E00E94C22510928C0810924E
:104AA0008D0810928E080F91089561E00E944225B2
:104AB0000895413208F040E2862F69E478E00E94D0
:104AC00075251092690880936A08089521E00E9474
:104AD000592508951092690810926A0810928C085E
:104AE00010928D080E9485270895382F4132E8F5ED
:104AF00080919B088823E1F791E090939B08209395
:104B00009D088FEF809308091092C308415040938D
:104B1000C4084F5F90939C0880919C08330F832BAF
:104B200080939C0880919E08813011F185EE8093DE
:104B3000BC0080919B088130E1F38091C308841709
:104B400010F44091C308442371F020E030E0FB01F1
:104B5000E20FF31FD901AD55B74F8C9180832F5FC2
:104B60003F4F2417A0F3842F089540E0842F089529
:104B700010929E0880919C088093BB0085EC8093E6
:104B8000BC00D7CF0F93982F522F413208F044C06A
:104B900080919B088823E1F782E080939B08009333
:104BA0009D088FEF809308091092C3084093C408B2
:104BB000442371F020E030E0F901ED55F74FDB01BF
:104BC000A20FB31F8C9180832F5F3F4F2417A0F358
:104BD00010929C0880919C08990F892B80939C08C7
:104BE00080919E088130D9F085EE8093BC005523DA
:104BF00021F080919B088230E1F3809108098F3F7A
:104C0000C1F0809108098032B1F0809108098033A9
:104C1000A1F084E00F91089581E00F910895109222
:104C20009E0880919C088093BB0085EC8093BC001B
:104C3000DECF80E0EFCF82E0EDCF83E0EBCFAC01C1
:104C40006132D0F480919B08843011F082E00895A5
:104C50006093E608662371F020E030E0F901EB5341
:104C6000F74FDA01A20FB31F8C9180832F5F3F4F64
:104C70002617A0F380E0089581E008951F920F9217
:104C80000FB60F920BB60F9211242F933F934F93B1
:104C90005F936F937F938F939F93AF93BF93EF93A4
:104CA000FF938091B90090E0A0E0B0E0887F907021
:104CB000A070B070FC01893C910590F5EC56FF4F57
:104CC000EE0FFF1F0590F491E02D199484E080937E
:104CD0009B081092E5081092E608E0919F08F09179
:104CE000A00819958091E608882329F481E0809333
:104CF000E6081092C5089091E508E92FF0E0EB5323
:104D0000F74F80818093BB009F5F9093E50890915F
:104D1000E5088091E6089817D8F485EC8093BC00EC
:104D2000FF91EF91BF91AF919F918F917F916F9183
:104D30005F914F913F912F910F900BBE0F900FBE3F
:104D40000F901F90189580910709803208F4ADC02C
:104D500085E88093BC00E4CF8091C3089091BB00AC
:104D6000E82FF0E0ED55F74F90838F5F8093C308F5
:104D70009091C3088091C408981750F7CECF80E374
:104D80008093080985ED8093BC008091BC0084FD70
:104D9000FCCF10929B08C4CF88E38093080985EC70
:104DA0008093BC0010929B08BBCF8091C308909168
:104DB000BB00E82FF0E0ED55F74F90838F5F8093B5
:104DC000C30880919D08882309F486C085ED8093EF
:104DD000BC008091BC0084FDFCCFDBCF83E08093DE
:104DE0009B081092070985EC8093BC0099CF109224
:104DF000080985ED8093BC008091BC0084FDFCCF48
:104E0000C8CF80919C088093BB0085EC8093BC0048
:104E100087CF9091C3088091C408981708F465C0A3
:104E200080919D08882309F457C085ED8093BC00CC
:104E30008091BC0084FDFCCFACCF80E28093080958
:104E400085ED8093BC008091BC0084FDFCCFA1CF98
:104E5000809107098032C8F185ED8093BC00809174
:104E6000BC0084FDFCCF10929B0860910709E09183
:104E7000A108F091A20887EE98E070E019951092D1
:104E8000070985EC8093BC0010929B0849CF85EC04
:104E90008093BC0010929B0843CF85ED8093BC00AB
:104EA0008091BC0084FDFCCF74CF80910709909164
:104EB000BB00E82FF0E0E951F74F90838F5F8093BC
:104EC000070985EC8093BC002BCFE0910709F0E047
:104ED000E951F74F1082C0CF81E080939E0884EAA9
:104EE0008093BC0010929B081BCF9091C308E92FC0
:104EF000F0E0ED55F74F80818093BB009F5F90936A
:104F0000C30885EC8093BC000BCF10929B0881E016
:104F100080939D0810929E0884E161E00E94113008
:104F200085E161E00E941130E9EBF0E080818E7F45
:104F3000808380818D7F808388E48093B80085E4BE
:104F40008093BC00089508951F920F920FB60F92A0
:104F50000BB60F9211242F933F934F938F939F93F0
:104F6000EF93FF938091C00082FD2AC04091C6005C
:104F70002091490930914A092F5F3F4F2F733070BC
:104F800080914B0990914C092817390759F0E0910D
:104F90004909F0914A09E75FF64F408330934A0987
:104FA00020934909FF91EF919F918F914F913F91EC
:104FB0002F910F900BBE0F900FBE0F901F90189562
:104FC0008091C600EFCF08951F920F920FB60F92F7
:104FD0000BB60F9211242F933F934F938F939F9370
:104FE000EF93FF938091C80082FD2AC04091CE00CC
:104FF0002091D1093091D2092F5F3F4F2F7330702C
:105000008091D3099091D4092817390759F0E0917C
:10501000D109F091D209EF56F64F40833093D2096F
:105020002093D109FF91EF919F918F914F913F91E3
:105030002F910F900BBE0F900FBE0F901F901895E1
:105040008091CE00EFCF08951F920F920FB60F926E
:105050000BB60F9211242F933F934F938F939F93EF
:10506000EF93FF938091D00082FD2AC04091D6003B
:105070002091590A30915A0A2F5F3F4F2F73307099
:1050800080915B0A90915C0A2817390759F0E091EA
:10509000590AF0915A0AE75EF54F408330935A0A55
:1050A0002093590AFF91EF919F918F914F913F91DA
:1050B0002F910F900BBE0F900FBE0F901F90189561
:1050C0008091D600EFCF08951F920F920FB60F92E6
:1050D0000BB60F9211242F933F934F938F939F936F
:1050E000EF93FF938091300182FD2AC040913601F9
:1050F0002091E10A3091E20A2F5F3F4F2F73307009
:105100008091E30A9091E40A2817390759F0E09159
:10511000E10AF091E20AEF55F54F40833093E20A3D
:105120002093E10AFF91EF919F918F914F913F91D1
:105130002F910F900BBE0F900FBE0F901F901895E0
:1051400080913601EFCFE091350BF091360BE05CAA
:10515000FF4F8191919120813181821B930B8F733D
:105160009070892BD1F5E091570BF091580BE05CD2
:10517000FF4F8191919120813181821B930B8F731D
:105180009070892B39F5E091790BF0917A0BE05C06
:10519000FF4F8191919120813181821B930B8F73FD
:1051A0009070892BA1F4E0919B0BF0919C0BE05C3B
:1051B000FF4F8191919120813181821B930B8F73DD
:1051C0009070892B09F408950E94632808950E9425
:1051D0002328E9CF0E94E327D6CF0E94A327C3CF7D
:1051E0001F920F920FB60F920BB60F9211242F93AE
:1051F0003F938F939F93EF93FF9320918D0930916D
:105200008E0980918F09909190092817390709F12B
:10521000E0918F09F0919009E35BF64F2081809136
:105220008F099091900901968F73907090939009D7
:1052300080938F092093C600FF91EF919F918F91EA
:105240003F912F910F900BBE0F900FBE0F901F90AC
:1052500018958091C1008F7D8093C100EDCF1F9282
:105260000F920FB60F920BB60F9211242F933F930C
:105270008F939F93EF93FF932091150A3091160A15
:105280008091170A9091180A2817390709F1E091BF
:10529000170AF091180AEB52F64F20818091170AF5
:1052A0009091180A01968F7390709093180A8093CA
:1052B000170A2093CE00FF91EF919F918F913F911C
:1052C0002F910F900BBE0F900FBE0F901F9018954F
:1052D0008091C9008F7D8093C900EDCF1F920F92FE
:1052E0000FB60F920BB60F9211242F933F938F930B
:1052F0009F93EF93FF9320919D0A30919E0A809196
:105300009F0A9091A00A2817390709F1E0919F0A96
:10531000F091A00AE35AF54F208180919F0A909165
:10532000A00A01968F7390709093A00A80939F0AB1
:105330002093D600FF91EF919F918F913F912F91F4
:105340000F900BBE0F900FBE0F901F90189580917D
:10535000D1008F7D8093D100EDCF1F920F920FB6B9
:105360000F920BB60F9211242F933F938F939F931D
:10537000EF93FF932091250B3091260B8091270B03
:105380009091280B2817390709F1E091270BF0912C
:10539000280BEB51F54F20818091270B9091280B22
:1053A00001968F7390709093280B8093270B209316
:1053B0003601FF91EF919F918F913F912F910F9027
:1053C0000BBE0F900FBE0F901F901895809131016A
:1053D0008F7D80933101EDCFDF92EF92FF920F939B
:1053E0001F93CF93DF93EC017A018B01DD244030D2
:1053F00081EE580780E0680780E0780721F1DD241E
:10540000D394EC89FD8981E090E008A002C0880F68
:10541000991F0A94E2F7808360E079E08DE390E0E1
:10542000A80197010E94C3302150304040405040B5
:10543000569547953795279580E120303807D0F06D
:10544000DD20C1F0DD24EC89FD89108260E874E87C
:105450008EE190E0A80197010E94C33021503040B6
:1054600040405040569547953795279580E120302C
:10547000380730F7E889F9893083EA89FB89208386
:1054800019A2EE89FF89408121E030E0C9010C8C2E
:1054900002C0880F991F0A94E2F7482B4083EE89D7
:1054A000FF894081C9010D8C02C0880F991F0A94A1
:1054B000E2F7482B4083EE89FF894081C9010E8CB9
:1054C00002C0880F991F0A94E2F7482B4083EE89A7
:1054D000FF8980810F8C02C0220F331F0A94E2F7EC
:1054E000209528232083DF91CF911F910F91FF906A
:1054F000EF90DF900895DC011C96ED91FC911D97D3
:10550000E05CFF4F2191319180819181281B390B03
:105510002F733070C9010895DC011C96ED91FC9148
:105520001D97E05CFF4F20813181E054F040DF01A6
:10553000AE5BBF4F8D919C9111972817390749F0A9
:105540008D919C91E80FF91F8081282F30E0C901CF
:1055500008952FEF3FEFC9010895DC011C96ED91EE
:10556000FC911D97E05CFF4F20813181E054F040B9
:10557000DF01AE5BBF4F8D919C91119728173907C2
:1055800091F08D919C911197E80FF91F20818D91D9
:105590009C91119701968F73907011969C938E93A6
:1055A00030E0C90108952FEF3FEFC9010895FC01D4
:1055B00081A1882311F411A20895A489B5898C9141
:1055C00086FFFDCF11A20895CF93DF93EC01AE8546
:1055D000BF85AD01405C5F4FFA01208131812F5FB3
:1055E0003F4F2F733070FD01EE5BFF4F8081918143
:1055F00028173907D9F3FA0180819181A80FB91FC3
:105600006C93EE85FF85E05CFF4F31832083EE894C
:10561000FF89208181E090E00F8C02C0880F991FE4
:105620000A94E2F7282B208381E089A3EC89FD8985
:1056300080818064808381E090E0DF91CF91089544
:105640001F9310922C0B10922B0B28EE33E040E0AE
:1056500050E020932D0B30932E0B40932F0B509343
:10566000300B6CE777E070932A0B6093290B89E08D
:1056700099E09093360B8093350B8DE499E09093ED
:10568000380B8093370B85EC90E090933A0B809326
:10569000390B84EC90E090933C0B80933B0B80ECB7
:1056A00090E090933E0B80933D0B81EC90E09093C3
:1056B000400B80933F0B82EC90E09093420B8093E1
:1056C000410B86EC90E09093440B8093430B14E0E5
:1056D0001093450BB3E0B093460BA7E0A093470BA4
:1056E000F5E0F093480BE1E0E093490B10924E0B8C
:1056F00010924D0B20934F0B3093500B4093510B56
:105700005093520B70934C0B60934B0B81E999E0D3
:105710009093580B8093570B85ED99E090935A0B1B
:105720008093590B8DEC90E090935C0B80935B0B16
:105730008CEC90E090935E0B80935D0B88EC90E096
:105740009093600B80935F0B89EC90E09093620BD9
:105750008093610B8AEC90E09093640B8093630BD1
:105760008EEC90E09093660B8093650B1093670B23
:10577000B093680BA093690BF0936A0BE0936B0BEB
:105780001092700B10926F0B2093710B3093720B71
:105790004093730B5093740B70936E0B60936D0B6F
:1057A00089E19AE090937A0B8093790B8DE59AE0EA
:1057B00090937C0B80937B0B85ED90E090937E0B18
:1057C00080937D0B84ED90E09093800B80937F0B12
:1057D00080ED90E09093820B8093810B81ED90E0BF
:1057E0009093840B8093830B82ED90E09093860BD3
:1057F0008093850B86ED90E09093880B8093870BC8
:105800001093890BB0938A0BA0938B0BF0938C0BA6
:10581000E0938D0B1092920B1092910B2093930BAF
:105820003093940B4093950B5093960B7093900B81
:1058300060938F0B81EA9AE090939C0B80939B0B73
:1058400085EE9AE090939E0B80939D0B85E391E00B
:105850009093A00B80939F0B84E391E09093A20B15
:105860008093A10B80E391E09093A40B8093A30B12
:1058700081E391E09093A60B8093A50B82E391E0E6
:105880009093A80B8093A70B86E391E09093AA0BCB
:105890008093A90B1093AB0BB093AC0BA093AD0B03
:1058A000F093AE0BE093AF0B1F9108950E94B82EBA
:1058B0000E949B030E94880383EA98E2892B29F0C7
:1058C0000E94A3280E948803FBCF0E9488030E94A5
:1058D0008803FBCF0E94C90208950E941F02089509
:1058E000CF92DF92EF92FF920F931F93CF93DF93AC
:1058F0007C016B01EA0141155105D9F000E010E08F
:10590000D6016D916D01D701ED91FC910190F0816F
:10591000E02DC7011995080F191F219789F7C801B4
:10592000DF91CF911F910F91FF90EF90DF90CF907B
:10593000089500E010E0F3CFDC01ED91FC910190BF
:10594000F081E02D19950895EF92FF920F931F9328
:105950008C01DC01ED91FC910190F081E02D6DE076
:1059600019957C01D801ED91FC910190F081E02D19
:10597000C8016AE019959C012E0D3F1DC9011F91B8
:105980000F91FF90EF9008954F925F927F928F92C8
:105990009F92AF92BF92CF92DF92EF92FF920F93BE
:1059A0001F93DF93CF93CDB7DEB7A1970FB6F894CF
:1059B000DEBF0FBECDBF2C01742ECB01223008F408
:1059C00060C0822E9924AA24BB2419A221E2C22EEF
:1059D000D12CCC0EDD1E0BC0405DF6014083E114DE
:1059E000F1040105110501F17E2C5F2DC801672D21
:1059F000752FA50194010E94C33079018A01C80165
:105A0000B701A50194010E948430472D461B0894DC
:105A1000C108D1084A3004F3495CF6014083E1141F
:105A2000F1040105110501F7C114D10481F1D6017A
:105A30000D900020E9F71197AC19BD09F2018081A2
:105A40009181FC0122813381C201B601AD01F901CE
:105A500019959C01C901A1960FB6F894DEBF0FBE3F
:105A6000CDBFCF91DF911F910F91FF90EF90DF900D
:105A7000CF90BF90AF909F908F907F905F904F900E
:105A800008953AE0832E912CA12CB12C9ECF20E0DA
:105A900030E0E0CFCF92DF92EF92FF920F931F930F
:105AA000CF93DF93EC016A017B0121153105B9F039
:105AB0002A30310539F477FD1BC02AE00E94C42C3E
:105AC0009C0103C00E94C42C9C01C901DF91CF91AD
:105AD0001F910F91FF90EF90DF90CF900895E88194
