:100000000C94F0010C941D020C941D020C941D0222
:100010000C941D020C941D020C941D020C941D02E4
:100020000C941D020C941D020C941D020C941D02D4
:100030000C941D020C94A01C0C941D020C941D0227
:100040000C941D020C94DE310C941D020C941D02C4
:100050000C941D020C941D020C941D020C9445403E
:100060000C941D020C9467380C94B3390C941D0247
:100070000C941D020C941D020C941D020C941D0284
:100080000C9447340C941D020C941D020C941D0218
:100090000C94A7380C94F2390C941D020C9401377F
:1000A0000C941D020C941D020C9477330C941D02C9
:1000B0000C941D020C941D020C941D020C94AE3283
:1000C0000C941D020C941D020C941D020C94E73834
:1000D0000C94313A0C941D020C9427390C94703A0C
:1000E0000C941D02770E970EA90EBC0ECF0EE20ED9
:1000F000F00EFA0E090F130F290F3C0F4F0F5D0F73
:10010000670F760F600E23102A1034103D10481030
:1001100051105C1065107010791084108D109810BB
:10012000A110AC10D00F1D10BA37533753375337C7
:100130005337533753375337C437533753375337FE
:100140005337533753375337C437533753375337EE
:100150005337533753375337CC37533753375337D6
:100160005337533753375337E037533753375337B2
:100170005337533753375337CC37533753375337B6
:1001800053375337533753378237533753375337F0
:1001900053375337533753378F37533753375337D3
:1001A00053375337533753377B37533753375337D7
:1001B0005337533753375337103853375337533731
:1001C00053375337533753376F37533753375337C3
:1001D000533753375337533798375337533753378A
:1001E0005337533753375337B13753375337533761
:1001F0005337533753375337B13753375337533751
:100200005337533753375337B13753375337533740
:100210005337533753375337B13753375337533730
:10022000533753375337533766375337533753376B
:1002300053375337533753376B3753375337533756
:10024000533753375337533766375337533753374B
:1002500053375337533753376B3753375337533736
:100260005337533753375337EB37533753375337A6
:100270005337533753375337293753375337533758
:100280005337533753375337293753375337533748
:1002900053375337533753373E3753375337533723
:1002A00053375337533753370A3853375337533746
:1002B00053375337533753370A380000210024008F
:1002C00027002A002D003000330001010000040146
:1002D00007010A0100002200250028002B002E0043
:1002E0003100340002010000050108010B0100008B
:1002F00020002300260029002C002F0032000001DE
:1003000000000301060109010505050507050808A8
:100310000808020202020A0A08080404040401018F
:1003200001010101010103030303030303030407A4
:1003300007070C0C0C0C0C0C0C0C0202020206063B
:100340000606060606060B0B0B0B0B0B0B0B01022E
:1003500010202008081020401020408002010201D7
:10036000080402010102040810204080804020108F
:1003700008040201800402018040201008040201E8
:100380000804020101020408102040800102040850
:10039000102040800000090A02080B0C0D0706031C
:1003A0000401000000000000000000000000000048
:1003B000000000000000000000000000000000003D
:1003C00011100F00000000000000000000000000FD
:1003D000000000000000000000006B038135E33BDB
:1003E00011241FBECFEFD1E2DEBFCDBF00E00CBFB6
:1003F00011E1A0E0B2E0E2E3FAE800E00BBF02C0E6
:1004000007900D92AA36B107D9F71BBE15E1AAE6EF
:10041000B1E101C01D92A139B107E1F713E0C0EECF
:10042000D3E004C02297FE010E940845CA3DD107CF
:10043000C9F70E94193D0C9417450C940000CF9306
:10044000DF93BC018230910510F462E070E0A0916E
:100450008F15B0919015ED01E0E0F0E040E050E044
:1004600021C0888199818617970769F48A819B81C9
:10047000309719F09383828304C0909390158093F2
:100480008F15FE0134C06817790738F441155105FE
:1004900019F08417950708F4AC01FE018A819B814D
:1004A0009C01E9012097E9F641155105A9F1CA011E
:1004B000861B970B049708F4BA01E0E0F0E02AC02D
:1004C0008D919C91119784179507F9F4641775071E
:1004D00081F412968D919C911397309719F0938324
:1004E000828304C09093901580938F15FD013296FE
:1004F0004CC0CA01861B970BFD01E80FF91F6193E1
:10050000719302978D939C9340C0FD0182819381EA
:100510009C01D9011097A1F680918D1590918E15AF
:10052000892B41F48091B6109091B71090938E155D
:1005300080938D154091B8105091B9104115510517
:1005400041F44DB75EB78091B4109091B510481B3F
:10055000590B20918D1530918E15CA01821B930B7A
:100560008617970780F0AB014E5F5F4F84179507A2
:1005700050F0420F531F50938E1540938D15F90183
:100580006193719302C0E0E0F0E0CF01DF91CF9181
:100590000895CF93DF93009709F450C0EC012297A0
:1005A0001B821A82A0918F15B0919015109709F1B6
:1005B00040E050E0AC17BD0708F1BB83AA83FE0101
:1005C00021913191E20FF31FAE17BF0779F48D919E
:1005D0009C911197280F391F2E5F3F4F3983288335
:1005E00012968D919C9113979B838A834115510597
:1005F00071F4D0939015C0938F1520C012968D91F1
:100600009C911397AD01009711F0DC01D3CFFA0153
:10061000D383C28321913191E20FF31FCE17DF07FD
:1006200069F488819981280F391F2E5F3F4FFA01A5
:10063000318320838A819B8193838283DF91CF9151
:100640000895FC0188279927E89421912032E9F345
:10065000293010F02E30C8F32B3241F02D3239F40E
:10066000689404C00E946103820F911D2191205360
:100670002A30C0F31EF4909581959F4F0895FB0199
:10068000DC0102C001900D9241505040D8F708950E
:100690006817790768F4FB01DC01E40FF51FA40F6C
:1006A000B51F02C002900E9241505040D8F70895F5
:1006B0000C943F03DC0101C06D9341505040E0F7C2
:1006C00008957AE0979F902D879F802D910D11249A
:1006D0000895CB0108958EE691E16BE370E048E563
:1006E00052E00E94173583E791E16AE370E048E544
:1006F00052E00E94173588E791E169E370E048E530
:1007000052E00E941735089580916C1190916D11FF
:100710000E94DC2E80916A1190916B110E94391B0E
:1007200061E070E080E090E00E94C24008958F9206
:100730009F92AF92BF92CF92DF92EF92FF920F9370
:100740001F9333E7A32E31E1B32EC5010E941E355E
:1007500028E7822E21E1922EC4010E941E3582E6F6
:1007600092E10E942D360CEF14E1C80140E855E2F9
:1007700060E070E00E94AF3AC80160E072E00E9461
:10078000E53EC8016EE072E00E94E53E8EE491E035
:100790000E94303DF82EE92E0E94A719F0926A11AE
:1007A000E0926B11C80161E272E00E94E53E89E4CB
:1007B00090E00E94303DF82EE92E60916A11709110
:1007C0006B110E94942FF0926C11E0926D11C80190
:1007D00069E272E00E94E53E10927E1110927D1156
:1007E00010927F111092801110928111109282113B
:1007F0009EE3C92E92E0D92EC801B6010E94E53EC3
:100800008FE3E82E82E0F82EC801B7010E94E53E92
:1008100010927F111092801110928111109282110A
:10082000C80168E572E00E94E53EC80162E672E038
:100830000E94C63E8EE691E10E942435682FC801D1
:1008400070E04AE050E00E94A73EC8016DE672E009
:100850000E94C63EC5010E942435682FC80170E081
:100860004AE050E00E94A73EC8016AE772E00E9499
:10087000C63EC4010E942435682FC80170E04AE0DA
:1008800050E00E94A73EC801B6010E94E53EC801A3
:10089000B7010E94E53E1F910F91FF90EF90DF900E
:1008A000CF90BF90AF909F908F900895CF92DF929E
:1008B000FF920F931F93CF93DF93582F162F042F80
:1008C000690182E692E1652F0E94453582E692E158
:1008D000612F0E94CB35C02FD0E0CC0FDD1F2097B9
:1008E000D1F0FF2400E010E0000F111F0C0D1D1DC2
:1008F000F801618182E692E10E94CB3582E692E1C5
:10090000F80160810E94CB35F2E0FF0E0F2D10E060
:100910000C171D074CF382E692E10E94183690E016
:10092000882309F491E0892FDF91CF911F910F91D6
:10093000FF90DF90CF900895DF93CF930F920F92A7
:10094000CDB7DEB75A83498341E09E012F5F3F4F09
:100950000E9456040F900F90CF91DF910895EF926F
:10096000FF920F931F93CF93DF93582F162FF42EE0
:10097000022FE32E82E692E1652F0E94453582E642
:1009800092E1612F0E94CB35FF2069F0802F9E2DD0
:100990009C01E90182E692E169910E94CB359E01BA
:1009A000201B2F15B8F382E692E10E94183690E0E2
:1009B000882309F491E0892FDF91CF911F910F9146
:1009C000FF90EF900895DF93CF930F92CDB7DEB7EE
:1009D000498341E09E012F5F3F4F0E94AF040F907B
:1009E000CF91DF9108952F923F924F925F926F9235
:1009F0007F928F929F92AF92BF92CF92DF92EF92AF
:100A0000FF920F931F93DF93CF9300D000D0CDB709
:100A1000DEB7382E262ED42E3C832B8378010E94FD
:100A20008D402B013C01DD2009F4A0C02D2D30E0CC
:100A30003A8329830D2D30E23D1508F47BC0CC2488
:100A400010E04701AA24BB2482E692E1632D0E94B4
:100A5000453582E692E1622D0E94CB3582E692E135
:100A60000E94183682E692E1632D0E944535498145
:100A70005A81411B51094132510514F040E250E0C6
:100A800082E692E1632D0E9429368C2D992787FDFD
:100A90009095EB81FC818E0F9F1F9E838D8382E654
:100AA00092E10E944F35892B99F0E114F10491F500
:100AB00082E692E10E945835ED81FE818193FE83AA
:100AC000ED83C39482E692E10E944F35892B69F74A
:100AD000100F1D1508F4B8CF1C2DE114F10461F5B9
:100AE000812F26960FB6F894DEBF0FBECDBFCF91F3
:100AF000DF911F910F91FF90EF90DF90CF90BF900B
:100B0000AF909F908F907F906F905F904F903F90AD
:100B10002F9008950E948D406419750986099709E0
:100B2000681579058A059B0518F2100F1D1508F444
:100B30008BCFD2CF00E283CF0E948D40641975091C
:100B400086099709970140E050E062177307840710
:100B5000950730F22C2D332727FD30958D2D90E011
:100B6000281739070CF0BCCF1FEFBACFCC2410E008
:100B7000B4CF0F931F93FA01890141E09F010E94B6
:100B8000F3041F910F910895DF92EF92FF920F935C
:100B90001F93DF93CF930F92CDB7DEB7E82ED62EFB
:100BA000F42E122F2091BA103091BB10AE014F5F7E
:100BB0005F4F0E94B905882341F1212F30E04F2D6E
:100BC00050E04F5F5F4F421B530B81E090E002C04B
:100BD000880F991F1A95E2F70197042E02C0880F1B
:100BE000991F0A94E2F7202F30E002C0220F331F32
:100BF0004A95E2F7482F4095598145238223482B97
:100C000049838E2D6D2D0E94E3040F90CF91DF91CB
:100C10001F910F91FF90EF90DF900895EF92FF9258
:100C20000F931F93DF93CF930F92CDB7DEB7F82EBC
:100C3000E62E042F122F2091BA103091BB10AE0176
:100C40004F5F5F4F0E94B9051123C1F481E090E02E
:100C500002C0880F991F0A95E2F7482F40958981B5
:100C6000482349838F2D6E2D0E94E3040F90CF916E
:100C7000DF911F910F91FF90EF90089581E090E038
:100C800002C0880F991F0A95E2F74981482BE9CFE6
:100C9000CF92DF92EF92FF920F931F93DF93CF9348
:100CA0000F92CDB7DEB7C42ED22E9701AE014F5FA3
:100CB0005F4F0E94B905682F882309F18D2D90E0C0
:100CC0004C2D50E04F5F5F4F481B590B21E030E047
:100CD00002C0220F331FDA94E2F721503040042E75
:100CE00002C0220F331F0A94E2F78981822390E029
:100CF00002C0959587954A95E2F7F8018083862F83
:100D00000F90CF91DF911F910F91FF90EF90DF90A7
:100D1000CF90089521E0FC01218B0895FC01118AF8
:100D200008959C012A5F3F4FC90108959C01295DE8
:100D30003F4FC9010895FC01E156FF4F108208950D
:100D4000FC01E156FF4F81E0808308959C01245906
:100D50003F4FC9010895FC01EC5BFF4F81E08083A8
:100D60000895FC01EC5BFF4F10820895FC01E159EE
:100D7000FF4F81E080830895FC01E159FF4F10820D
:100D80000895FC01E059FF4F81E080830895FC0144
:100D9000E059FF4F10820895FC0180E090E0A0E050
:100DA000B0E0878B908FA18FB28F838F948FA58FA8
:100DB000B68F878F90A3A1A3B2A30895FC01E95B2E
:100DC000FF4F80E090E0A0E0B0E081939193A19389
:100DD000B19381939193A193B19380839183A283E3
:100DE000B383089508959C012D5D3F4FC901089577
:100DF0009C0123553F4FC9010895FC01EE5BFF4F55
:100E0000808191810197889710F080E008958CEFA0
:100E100094E16EEA72E00E94E53E81E00895FC01F3
:100E200086AD97AD01974E9710F080E008958CEF56
:100E300094E169EB72E00E94E53E81E00895FC01D7
:100E4000E05CFF4F8081918101974E9710F080E028
:100E500008958CEF94E166EC72E00E94E53E81E03B
:100E600008950F931F938C010E940F07C8010E94E1
:100E70001F07C8010E94FD061F910F9108952F9230
:100E80003F924F925F926F927F928F929F92AF921A
:100E9000BF92CF92DF92EF92FF920F931F93DF9357
:100EA000CF93CDB7DEB764970FB6F894DEBF0FBE11
:100EB000CDBF9A8B898B89899A890E94813088233A
:100EC000C9F464960FB6F894DEBF0FBECDBFCF91C4
:100ED000DF911F910F91FF90EF90DF90CF90BF9027
:100EE000AF909F908F907F906F905F904F903F90CA
:100EF0002F90089589899A890E94A03029893A897A
:100F00002D5A3F4F38872F8389899A898B5A9F4F53
:100F10009A878987A989BA89A95ABF4FBC87AB87A5
:100F200059E5452E512CE989FA894E0E5F1E4BE595
:100F3000242E312C2E0E3F1EE35AFF4FFE87ED87E5
:100F400089899A890896B90149855A859D01820146
:100F500071016F010E944E1B29893A892B593F4F1D
:100F600083E29FEFD9018D939D9382EC90E08D9366
:100F70009D938FE790E011969C938E93A956B04075
:100F8000BA8BA98BF2016081718163527F4F8827F0
:100F900077FD8095982F0E948A437B018C01D101B7
:100FA0006D917C91625C7040882777FD8095982FC9
:100FB0000E948A435B016C01ED85FE856081718131
:100FC0006F577040882777FD8095982F0E948A433D
:100FD0003B014C01C801B70120E030E040E050E0A7
:100FE0000E943A4418160CF0D1C2C801B70120E0A3
:100FF00030E040EF51E40E94EB4288230CF4D1C270
:10100000C601B50120E030E040E050E00E943A44E3
:1010100018160CF0A5C2C601B50120E030E040EF83
:1010200051E40E94EB4288230CF4A5C2C401B30131
:1010300020E030E040E050E00E943A4418160CF006
:1010400079C2C401B30120E030E040EF51E40E94D6
:10105000EB4288230CF479C229893A8925593F4FFC
:10106000388B2F87C801B701D9012D913D914D9142
:101070005C910E943E4420E030E543EC57E40E943E
:10108000EF429B01AC01E989FA896789708D818DF6
:10109000928D0E948742A989BA8957966D937D9354
:1010A0008D939C935A97C601B501EF85F8892081ED
:1010B0003181428153810E943E4420E030E543EC7F
:1010C00057E40E94EF429B01AC01A989BA895B9663
:1010D0006D917D918D919C915E970E948742E989E7
:1010E000FA89638F748F858F968FC401B301AF85A2
:1010F000B8892D913D914D915C910E943E4420E034
:1011000030E543EC57E40E94EF429B01AC01E989D2
:10111000FA89678D70A181A192A10E948742A98955
:10112000BA895F966D937D938D939C939297A15905
:10113000BF4F8C91AF56B040BA8BA98B882309F072
:101140006FC2E989FA89E15AFF4F8CE695EF8193E6
:1011500091938EE994EB8193919383EC9BEC918333
:101160008083E356F040FA8BE98BAF81B8856D91AF
:101170007C916C56754F882777FD8095982F0E943B
:101180008A437B018C01E985FA85608171816E5902
:10119000744B882777FD8095982F0E948A435B01C6
:1011A0006C01AB85BC856D917C91635C7B4C882721
:1011B00077FD8095982F0E948A433B014C01C8011E
:1011C000B70120E030E040E050E00E943A441816B9
:1011D0000CF096C1C801B70120E030E048EC52E4C1
:1011E0000E94EB4288230CF496C1C801B70120E0AD
:1011F00030E048EC52E40E94EF426B837C838D83A5
:101200009E83C601B50120E030E040E050E00E943E
:101210003A4418160CF0EAC1C601B50120E030E0EE
:1012200048EC52E40E94EB4288230CF4EAC1C60168
:10123000B50120E030E048EC52E40E94EF421B018F
:101240002C01C401B30120E030E040E050E00E94F6
:101250003A4418160CF0B0C1C401B30120E030E0EC
:1012600048EC52E40E94EB4288230CF4B0C1C40164
:10127000B30120E030E048EC52E40E94EF426B8B77
:101280007C8B782F692F2B813C814D815E81C90138
:10129000DA01E989FA8983AF94AFA5AFB6AFFF96BB
:1012A000C101D20181939193A193B1932B893C8980
:1012B000472F562FC901DA0180839183A283B3831C
:1012C000E354F040FA8BE98BE95BFF4FFA83E98343
:1012D000C801B701AF85B8892D913D914D915C91C1
:1012E0000E943E4420E030E543EC57E40E94EF4288
:1012F000E981FA8120813181428153810E948742B4
:10130000A981BA816D937D938D939C9313972BE460
:10131000222E312CE989FA892E0E3F1EC601B50115
:10132000AF85B8892D913D914D915C910E943E44CD
:1013300020E030E543EC57E40E94EF42F1012081C8
:101340003181428153810E948742D1016D937D9307
:101350008D939C9313979FE4492E512CE989FA8928
:101360004E0E5F1EC401B301AF85B8892D913D912A
:101370004D915C910E943E4420E030E543EC57E4FF
:101380000E94EF42F20120813181428153810E940B
:101390008742D2016D937D938D939C931397E98936
:1013A000FA89E059FF4F8081882309F48ACD8CEFB8
:1013B00094E163ED72E00E94C63EAF81B8856D9105
:1013C0007C918CEF94E14AE050E00E94943E8CEFD7
:1013D00094E167ED72E00E94C63EE985FA8560817E
:1013E00071818CEF94E14AE050E00E94943E8CEFD2
:1013F00094E167ED72E00E94C63EAB85BC856D91BD
:101400007C918CEF94E14AE050E00E94943E8CEF96
:1014100094E167ED72E00E94C63E8CEF94E166EEC7
:1014200072E00E94C63E8CEF94E1B801A70122E071
:1014300030E00E942F408CEF94E167ED72E00E9453
:10144000C63E8CEF94E1B601A50122E030E00E9497
:101450002F408CEF94E167ED72E00E94C63E8CEF66
:1014600094E1B401A30122E030E00E942F408CEF10
:1014700094E167ED72E00E94C63E8CEF94E16BEE62
:1014800072E00E94C63EE981FA8140815181628109
:1014900073818CEF94E122E030E00E942F408CEFCA
:1014A00094E167ED72E00E94C63ED1014D915D91DD
:1014B0006D917C918CEF94E122E030E00E942F400E
:1014C0008CEF94E167ED72E00E94C63EF20140812C
:1014D0005181628173818CEF94E122E030E00E94BF
:1014E0002F408CEF94E167ED72E00E94C63E8CEFD6
:1014F00094E10E94673D8CEF94E10E94673DE1CC4E
:10150000C801B70120E030E048EC52EC0E943A44B8
:1015100018160CF06ACE0F2EF0E0EF2EF0E0FF2E42
:10152000F0E00F2FF0E01F2FF02D1B821C821D8298
:101530001E8267CEC401B30120E030E040EF51ECE1
:101540000E943A4418160CF087CD0F2EF0E06F2E53
:10155000F0E07F2EF0E08F2EF0E09F2EF02D7CCD7E
:10156000C601B50120E030E040EF51EC0E943A4462
:1015700018160CF05BCD0F2EF0E0AF2EF0E0BF2E72
:10158000F0E0CF2EF0E0DF2EF02D50CDC801B701F6
:1015900020E030E040EF51EC0E943A4418160CF085
:1015A0002FCD0F2EF0E0EF2EF0E0FF2EF0E00F2F0A
:1015B000F0E01F2FF02D24CDC401B30120E030E076
:1015C00048EC52EC0E943A4418160CF050CE0F2E04
:1015D000F0E06F2EF0E07F2EF0E08F2EF0E09F2EF7
:1015E000F02D1B8A1C8A70E060E04DCEC601B5016B
:1015F00020E030E048EC52EC0E943A4418160CF01F
:1016000016CE0F2EF0E0AF2EF0E0BF2EF0E0CF2E82
:10161000F0E0DF2EF02D222433244424552411CE73
:101620008CEF94E163ED72E00E94C63EF2016081AE
:1016300071818CEF94E14AE050E00E94943E8CEF7F
:1016400094E167ED72E00E94C63ED1016D917C91FC
:101650008CEF94E14AE050E00E94943E8CEF94E1DC
:1016600067ED72E00E94C63EED85FE856081718166
:101670008CEF94E14AE050E00E94943E8CEF94E1BC
:1016800067ED72E00E94C63E8CEF94E169ED72E076
:101690000E94C63E8CEF94E1B801A70122E030E041
:1016A0000E942F408CEF94E167ED72E00E94C63EED
:1016B0008CEF94E1B601A50122E030E00E942F40BA
:1016C0008CEF94E167ED72E00E94C63E8CEF94E1EE
:1016D000B401A30122E030E00E942F408CEF94E19E
:1016E00067ED72E00E94C63E8CEF94E16DED72E012
:1016F0000E94C63EA989BA8957964D915D916D9118
:101700007C915A978CEF94E122E030E00E942F40C8
:101710008CEF94E167ED72E00E94C63EE989FA8998
:10172000438D548D658D768D8CEF94E122E030E011
:101730000E942F408CEF94E167ED72E00E94C63E5C
:10174000A989BA895F964D915D916D917C9192972F
:101750008CEF94E122E030E00E942F408CEF94E186
:1017600067ED72E00E94C63E8CEF94E10E94673DF7
:101770008CEF94E10E94673DE4CCAF92BF92CF9290
:10178000DF92EF92FF920F931F93CF93DF93EC01C1
:1017900062E370E00E94AD3068E0A62EB12CAC0E82
:1017A000BD1EC5010E944A1B80E090E0A0E0B0E0B1
:1017B0008F8B988FA98FBA8F8B8F9C8FAD8FBE8F99
:1017C0008F8F98A3A9A3BAA38BA39CA3ADA3BEA3F9
:1017D0008FA398A7A9A7BAA78BA79CA7ADA7BEA7B9
:1017E0008FA798ABA9ABBAAB8BAB9CABADABBEAB89
:1017F0008FAB98AFA9AFBAAF8BAF9CAFADAFBEAF59
:10180000EF9689939993A993B99389939993A993FF
:10181000B99389939993A993B99389939993A99328
:10182000B99389939993A993B9931992199219929B
:101830001992199219921992199219921992198260
:1018400018822E9680E090E0A8E4B2E48883998321
:10185000AA83BB83CB56D040C5010E94101C8CEFDD
:1018600094E165EF72E00E94E53EC5010E94431CD1
:10187000882309F054C060E173E08CEF94E10E948A
:10188000E53E64E670E080E090E00E94C240BE0168
:10189000615A7F4FAE014F595F4F9E012D593F4F07
:1018A0008E010B591F4FFE01E959FF4FC759DF4FFA
:1018B000C5017F016E010E944E1BC50160E070E012
:1018C0000E94D31BC50160E070E00E94CC1BC501E3
:1018D00060E070E00E94C51BC50160E070E00E94FE
:1018E000E81BC50160E070E00E94E11BC50160E0FB
:1018F00070E00E94DA1B64E670E080E090E00E94F5
:10190000C240269619921882DF91CF911F910F91B4
:10191000FF90EF90DF90CF90BF90AF9008956AE274
:1019200073E0ABCFCF93DF93EC010E94813088232B
:1019300019F4DF91CF910895CE010E94A030CE011D
:101940004A960E947C1D9FAF8EAFCE0108960E94E2
:101950007C1DC05CDF4F99838883C054D040CE018A
:101960008C960E947C1DCE5BDF4F89939993888172
:10197000C454D0408823E9F2CE010E943107DF91A0
:10198000CF9108950F931F938C0161E270E00E9444
:10199000AD30C80108966DE04CE224E630E00E94CC
:1019A0004D1CC8014A966FE240E324E630E00E94F5
:1019B0004D1CC8018C966DE24EE224E630E00E9498
:1019C0004D1C84E690E0F80197AF86AF005C1F4F96
:1019D000F801819391938193919310821F910F91BC
:1019E0000895EF92FF920F931F93CF93DF93EC0133
:1019F0008C89882341F480E0DF91CF911F910F9172
:101A0000FF90EF900895EF88F88C098D1A8D0E9451
:101A10008D40E616F7060807190768F71C8A81E06B
:101A2000DF91CF911F910F91FF90EF900895CF928A
:101A3000DF92EF92FF920F931F936C017B010E9444
:101A40008D400027F7FC0095102FE60EF71E081FAB
:101A5000191FF601E78AF08E018F128F81E0848BC7
:101A60008CEF94E16CE773E00E94C63E1F910F91EA
:101A7000FF90EF90DF90CF900895EF92FF920F9339
:101A80001F93CF93DF93FC01EC01C656DF4F888193
:101A9000882341F480E0DF91CF911F910F91FF9057
:101AA000EF900895E556FF4FE080F18002811381A9
:101AB0000E948D40E616F7060807190758F71882A6
:101AC00081E0DF91CF911F910F91FF90EF900895EA
:101AD000CF92DF92EF92FF920F931F936C017B01E5
:101AE0000E948D402BE930E0C20ED31E0027F7FC88
:101AF0000095102FE60EF71E081F191FF601E08251
:101B0000F1820283138381E082938CEF94E16CE78E
:101B100073E00E94C63E1F910F91FF90EF90DF90FF
:101B2000CF900895EF92FF920F931F93CF93DF937F
:101B3000FC01EC01CF57DF4F8881882341F480E01E
:101B4000DF91CF911F910F91FF90EF900895EE5785
:101B5000FF4FE080F180028113810E948D40E616E4
:101B6000F7060807190758F7188281E0DF91CF912F
:101B70001F910F91FF90EF900895CF92DF92EF9217
:101B8000FF920F931F936C017B010E948D4022E80E
:101B900030E0C20ED31E0027F7FC0095102FE60E92
:101BA000F71E081F191FF601E082F18202831383DA
:101BB00081E082938CEF94E16CE773E00E94C63E73
:101BC0001F910F91FF90EF90DF90CF900895FC014F
:101BD0008081882339F4CF01019663EE76E00E947C
:101BE000DD300895CF0101966AEE77E00E94DD3086
:101BF0000895FC018081882339F4CF01019661E0CA
:101C000078E00E94DD300895CF0101966AE976E020
:101C10000E94DD300895FC018081882339F4CF01D2
:101C2000049668E774E00E94DD300895CF010496C1
:101C300065E077E00E94DD30089504966CED75E074
:101C40000E94DD300895FC018081882339F4CF01A2
:101C500004966FE777E00E94DD300895CF01049687
:101C600067E074E00E94DD3008956BEF74E00E943D
:101C7000DD30089563EC75E00E94DD30089564E680
:101C800076E00E94DD30089560ED77E00E94DD305F
:101C9000089568EE73E00E94DD3008950F931F935E
:101CA000CF93DF93EC01ED89FE89E131F105D0F4AA
:101CB000EE58FF4FEE0FFF1F0590F491E02D1994A1
:101CC00068EE73E00E94170DCE010D960E94230E60
:101CD000CE0103960E943A0E8CEF94E16DE974E018
:101CE0000E94E53EDF91CF911F910F9108958C01E5
:101CF0000A5F1F4FC8010E94230EC8010E94F90D00
:101D00008E01035F1F4FC8010E94230EC8010E946D
:101D1000F90DCE010E94490ECE0103960E943A0EA3
:101D20008CEF94E16AE873E00E94E53EDBCF64EF5C
:101D300071E00E94170DCE010E94440ECE01039661
:101D40000E943F0E8CEF94E16AE973E00E94E53E49
:101D5000C9CF68EE73E00E94170DCE010D960E9468
:101D60001D0ECE0103960E943A0E8CEF94E168EAB4
:101D700073E00E94E53EB6CF60ED77E00E94170D5C
:101D8000CE010D960E941D0ECE0103960E94350EC7
:101D90008CEF94E169EB73E00E94E53EA3CF68EE1F
:101DA00073E00E94170DCE010D960E940B0ECE011E
:101DB00003960E94350E8CEF94E16AEC73E00E946A
:101DC000E53E90CF64E670E00E94170DCE010E94C0
:101DD000490E8CEF94E16AED73E00E94E53E82CFFC
:101DE0000D960E94E70D8CEF94E16CEE73E00E947B
:101DF000E53E78CF68EE73E00E94170DCE010D9698
:101E00000E941D0E8CEF94E16EEF73E00E94E53EA0
:101E100069CF0D960E94F90D8CEF94E16FE074E0AC
:101E20000E94E53E5FCF68EE73E00E94170DCE0181
:101E30000D960E940B0ECE010E94440ECE01039619
:101E40000E943F0E8CEF94E160E274E00E94E53E58
:101E500049CF68EE73E00E94170DCE0106960E94EE
:101E60001D0ECE0103960E943A0E8CEF94E161E3C1
:101E700074E00E94E53E36CF68EE73E00E94170DD5
:101E8000CE0106960E940B0ECE0103960E94350EDF
:101E90008CEF94E162E474E00E94E53E23CF68EEAB
:101EA00073E00E94170DCE010E94490E8CEF94E161
:101EB00063E574E00E94E53E15CF06960E94E70DAB
:101EC0008CEF94E166E674E00E94E53E0BCF68EE8D
:101ED00073E00E94170DCE0106960E941D0E8CEF36
:101EE00094E169E774E00E94E53EFCCE68EE73E0A1
:101EF0000E94170D8E010A5F1F4FC8010E94F90D45
:101F0000C8010E94230ECE010D960E941D0E8CEF7B
:101F100094E16BE874E00E94E53EE4CE0F931F93DA
:101F2000CF93DF938C01EB018CEF94E16DEA72E0CB
:101F30000E94E53E8CEF94E16FEA74E00E94C63E99
:101F40008CEF94E1BE014AE050E00E94A73ECE0132
:101F50000197049708F45DC0209709F445C08CEF01
:101F600094E166E175E00E94C63ED80155966D91F8
:101F70007C9156978CEF94E14AE050E00E94A73E96
:101F8000D8015596ED91FC915697E131F10538F560
:101F9000ED57FF4FEE0FFF1F0590F491E02D1994C0
:101FA000CD2BE9F480E190E0D80156969C938E9376
:101FB00055978CEF94E166E375E00E94C63ED80128
:101FC00055966D917C9156978CEF94E14AE050E0E4
:101FD0000E94A73EF801148AC8010E944E0EDF91AC
:101FE000CF911F910F9108958CEF94E16DEC74E007
:101FF0000E94E53E8CEF94E164EF74E00E94C63EDF
:102000008CEF94E160E070E04AE050E00E94A73E6F
:10201000A6CF8CEF94E16DEC74E00E94E53E8CEF6E
:1020200094E16FEC74E00E94C63E8CEF94E1BE0137
:102030004AE050E00E94A73E8FCFCD2B81F6F801F9
:10204000168A158AB6CFC130D10549F6F801D68B6C
:10205000C58BAFCFCD2B19F682E090E0D801569614
:102060009C938E935597A5CFCD2B09F0B8CF83E0E5
:1020700090E0F801968B858B9CCFCD2B09F0AFCFEC
:1020800084E090E0D80156969C938E93559791CF1B
:10209000CD2B09F0A4CF85E090E0F801968B858BDD
:1020A00088CFCD2B09F09BCF86E090E0D8015696E3
:1020B0009C938E9355977DCF229709F090CF87E020
:1020C00090E0F801968B858B74CFCD2B09F087CFEC
:1020D00088E090E0D80156969C938E93559769CFEF
:1020E000239709F07CCF89E090E0F801968B858BEF
:1020F00060CFCD2B09F073CF8AE090E0D8015696DF
:102100009C938E93559755CFCD2B09F068CF8BE0DC
:1021100090E0F801968B858B4CCFCD2B09F05FCFEB
:102120008CE090E0D80156969C938E93559741CFC2
:10213000CD2B09F054CF8DE090E0F801968B858B84
:1021400038CF249709F04BCF8EE090E0D801569617
:102150009C938E9355972DCFCD2B09F040CF8FE0D8
:1021600090E0F801968B858B24CF0F931F93CF932C
:10217000DF938C01EC016B96CE010E9481308823A5
:1021800029F4DF91CF911F910F910895CE010E9404
:10219000A030C8010E94F10C882399F3C80160E0C7
:1021A00070E00E948E0FDF91CF911F910F910895E3
:1021B00064E070E00E948E0F089563E070E00E947A
:1021C0008E0F089562E070E00E948E0F089561E026
:1021D00070E00E948E0F08956CED75E00E94DD3076
:1021E000089560ED77E00E94DD30089568EE73E0B9
:1021F0000E94DD300895069664E175E00E94DD30AE
:102200000895069664EA76E00E94DD300895069609
:102210006CED75E00E94DD300895039664E175E091
:102220000E94DD300895039664EA76E00E94DD3076
:10223000089503966CED75E00E94DD3008950F93CC
:102240001F938C010E94EC10C8010E940711C80165
:102250000E9419111F910F91089567E377E00E9482
:10226000DD30089560E476E00E94DD30089565EE8B
:1022700073E00E94DD300895039660ED77E00E94E0
:10228000DD30089503966CED75E00E94DD30089511
:10229000CF93DF93EC01C158DF4F88819981CF57ED
:1022A000D0408230910509F478C083309105B4F0B4
:1022B0008430910509F463C0843091050CF043C06B
:1022C0008CEF94E160EA75E00E94E53ECE0160E1AA
:1022D00077E20E94BD0DDF91CF910895009721F123
:1022E0000197F9F48CEF94E167E675E00E94E53E12
:1022F0008CEF94E160E875E00E94E53E80E090E0BC
:10230000A0E0B0E08D8F9E8FAF8FB8A389A39AA372
:10231000ABA3BCA38DA39EA3AFA3B8A7CE010E947D
:102320002D11DF91CF9108958CEF94E162E575E076
:102330000E94E53ECE010E943711CE010E9442115B
:10234000DF91CF910895059761F78CEF94E162EDED
:1023500075E00E94E53ECE0160ED77E00E94BD0D84
:102360008CEF94E16FEE75E00E94E53ECE010E9495
:102370003211CE010E944211DF91CF9108958CEF6E
:1023800094E16AEB75E00E94E53ECE0168EB7BE0EC
:102390000E94BD0DDF91CF9108958CEF94E16CE820
:1023A00075E00E94E53ECE0168E873E10E94BD0D34
:1023B000CE010E943C11DF91CF910895CF92DF9220
:1023C000EF92FF920F931F93CF93DF936C01EB017A
:1023D0008CEF94E16DEA72E00E94E53E8CEF94E1AF
:1023E0006CEF75E00E94C63E8CEF94E1BE014AE0BE
:1023F00050E00E94A73EC330D10509F48BC0CE0146
:102400000197029708F49BC02097A1F48CEF94E108
:102410006DEC74E00E94E53E8CEF94E160E676E0BE
:102420000E94C63E8CEF94E160E070E04AE050E02C
:102430000E94A73E8CEF94E169E876E00E94C63ED8
:10244000860101581F4FF801608171818CEF94E182
:102450004AE050E00E94A73EF801E080F180F2E0FF
:10246000EF16F10409F47FC083E0E816F104F4F0FC
:10247000E4E0EE16F10409F499C0F4E0EF16F1047B
:10248000B4F5C330D10509F4C3C0CD2BB9F484E051
:1024900090E0F801918380838CEF94E16BEF76E01C
:1024A0000E94E53EF8018081918191C0E114F10420
:1024B00071F091E0E916F10409F467C0DF91CF9162
:1024C0001F910F91FF90EF90DF90CF900895C13052
:1024D000D105A1F7F801D183C0838CEF94E162EAC2
:1024E00076E00E94E53EF8018081918170C085E030
:1024F000E816F10419F7CD2B09F7F80111821082C3
:102500008CEF94E164E377E00E94E53EF80180817E
:1025100091815DC08CEF94E16DEC74E00E94E53E2A
:102520008CEF94E163E176E00E94C63E8CEF94E18B
:1025300063E070E04AE050E00E94A73E7BCF8CEF62
:1025400094E16DEC74E00E94E53E8CEF94E166E46A
:1025500076E00E94C63E8CEF94E1BE014AE050E076
:102560000E94A73E51CFCD2B09F0A8CF83E090E089
:10257000F801918380838CEF94E163EC76E00E9414
:10258000E53EF8018081918122C0C230D10509F079
:1025900095CFF801D183C0838CEF94E165EB76E0B1
:1025A0000E94E53EF8018081918111C0CD2B09F098
:1025B00085CF85E090E0F801918380838CEF94E1F2
:1025C0006AE177E00E94E53EF80180819181E8169A
:1025D000F90609F473CF8CEF94E16CE477E00E9484
:1025E000C63EF801608171818CEF94E14AE050E0D1
:1025F0000E94A73E81E890E0C80ED91EF601108225
:102600008FE79FEFC80ED91EC6010E94481156CF12
:1026100084E090E0F801918380838CEF94E167ED92
:1026200076E00E94E53EF80180819181D0CF62E0A2
:1026300070E00E94DE11089561E070E00E94DE11FA
:102640000895CF92DF92EF92FF921F93CF93DF9383
:102650007C01162FEC012196CE010E94C330A4E02C
:10266000CA2ED12CCE0CDF1CC6010E94C330F7014C
:1026700010831123C1F4CE0169E070E00E94D731CC
:10268000C60167E070E00E94D731C7010E94230EA7
:10269000C7010E94F90DDF91CF911F91FF90EF903C
:1026A000DF90CF900895CE016AE070E00E94D731AC
:1026B000C60168E070E00E94D731E7CF0F931F9307
:1026C000182F092F0E94C330812F902F6CE070E0EB
:1026D0000E94D731812F902F0E943A0E1F910F91A7
:1026E00008950F931F93182F092F0E94C330812F35
:1026F000902F6BE070E00E94D731812F902F0E94C5
:10270000490E1F910F9108950F931F938C010E9402
:102710007113C80103960E945E13C801069661E01A
:102720000E942113C8010D9660E00E942113F80158
:10273000148A168A158AC8014B9662E370E00E94DB
:10274000AD301F910F910895EF92FF920F931F9359
:102750008C010E94C33083E0E82EF12CE00EF11EC4
:10276000C7010E94C330C80106960E94BD0BC80174
:1027700089589F4F62E370E00E94AD3001581F4FAF
:10278000F8011192119211921192119211921192DB
:102790008F0180E090E0A0E0B0E080839183A2838D
:1027A000B38306581040C70166E070E00E94D7313D
:1027B000C80164E070E00E94D731C8010E94421154
:1027C000C8010E943711C8010E9448111F910F9142
:1027D000FF90EF9008950F931F93CF93DF93EC0139
:1027E000C856DF4F88819981C859D0408330910500
:1027F00009F4D3C084309105CCF18530910509F4FA
:1028000068C0853091050CF446C08630910509F406
:102810008BC00797D9F58CEF94E168E978E00E94C6
:10282000E53E8E0104571F4FF80160817181CE0192
:102830000E94680D8CEF94E168EA77E00E94C63E42
:10284000F80140815181628173818CEF94E12AE02B
:1028500030E00E94803ECE010E94FB10CE010E941B
:102860000D11DF91CF911F910F9108958130910546
:1028700009F46BC082309105E4F08CEF94E16DEBCC
:1028800077E00E94E53ECE010E94EC10DF91CF91EF
:102890001F910F9108958CEF94E16CE178E00E9414
:1028A000E53ECE010E94EC10DF91CF911F910F9178
:1028B0000895892B59F78CEF94E163E677E00E9445
:1028C000E53ECE010E941F11DF91CF911F910F9124
:1028D00008958CEF94E16BE478E00E94E53E8CEF84
:1028E00094E168EA77E00E94C63E8E0104571F4FCC
:1028F000F80140815181628173818CEF94E12AE07B
:1029000030E00E94803EF80160817181CE010E941A
:10291000680DCE010E940111CE010E941311DF91BA
:10292000CF911F910F9108958CEF94E162E778E0C9
:102930000E94E53ECE010E940711CE010E941911AE
:10294000DF91CF911F910F9108958CEF94E168E78B
:1029500077E00E94E53E8CEF94E168EA77E00E9420
:10296000C63E8E0104571F4FF8014081518162819C
:1029700073818CEF94E12AE030E00E94803EF80100
:1029800060817181CE010E94680DCE010E94F61017
:10299000DF91CF911F910F9108958CEF94E16CEE30
:1029A00077E00E94E53E8CEF94E168EA77E00E94D0
:1029B000C63E8E0104571F4FF8014081518162814C
:1029C00073818CEF94E12AE030E00E94803EF801B0
:1029D00060817181CE010E94680DCE010E94F110CC
:1029E000DF91CF911F910F9108954F925F926F9257
:1029F0007F928F929F92AF92BF92CF92DF92EF928F
:102A0000FF920F931F93CF93DF934C01EB018CEF59
:102A100094E16DEA72E00E94E53E8CEF94E16CEF88
:102A200075E00E94C63E8CEF94E1BE014AE050E0A2
:102A30000E94A73ECE010897039708F4A4C0C330B4
:102A4000D10549F0C130D10531F0C530D10519F0BB
:102A5000C430D10599F48CEF94E16DEC74E00E94E0
:102A6000E53E8CEF94E16FEE78E00E94C63E8CEF7D
:102A700094E1BE014AE050E00E94A73ECE010697D5
:102A8000029708F401C1C730D10509F4E8C02097C6
:102A9000A1F48CEF94E16DEC74E00E94E53E8CEFC4
:102AA00094E16DE579E00E94C63E8CEF94E160E030
:102AB00070E04AE050E00E94A73E8CEF94E166E8A7
:102AC00079E00E94C63E28E9622E712C680C791CC0
:102AD000D3016D917C918CEF94E14AE050E00E942B
:102AE000A73EF30140805180F3E04F16510409F4F2
:102AF000B0C124E04216510444F195E04916510456
:102B000009F4D6C0A5E04A1651040CF450C0B6E052
:102B10004B16510409F423C1E7E04E16510411F598
:102B2000CD2B01F5F301118210828CEF94E163E06B
:102B30007CE00E94E53E8CEF94E165E37AE00E9440
:102B4000E53ED3018D919C9169C031E0431651045B
:102B500009F427C182E0481651040CF449C02797B4
:102B600009F472C2DF91CF911F910F91FF90EF9006
:102B7000DF90CF90BF90AF909F908F907F906F909D
:102B80005F904F9008958CEF94E16DEC74E00E949B
:102B9000E53E8CEF94E161EC78E00E94C63E8CEF5C
:102BA00094E1BE014AE050E00E94A73E48CF27973B
:102BB000C9F683E090E0F301918380830E948D4009
:102BC00028E830E0820E931ED4016D937D938D939F
:102BD0009C931397E8E7FFEF8E0E9F1E8CEF94E116
:102BE00061E47BE00E94E53ED3018D919C9116C08B
:102BF0004114510409F0B6CFC130D10509F4EBC13D
:102C0000C330D10509F4CAC1C430D10509F4FDC1EE
:102C1000259709F481C1F3018081918148165906F5
:102C200009F4A0CF8CEF94E16CE477E00E94C63EFB
:102C3000F301608171818CEF94E14AE050E00E94E1
:102C4000A73E2AE930E0820E931ED4011C92E6E6EC
:102C5000FFEF8E0E9F1EC4010E94EB1383CF8CEFFB
:102C600094E16DEC74E00E94E53E8CEF94E169E341
:102C700079E00E94C63E8CEF94E167E070E04AE0A4
:102C800050E00E94A73E19CF8CEF94E16DEC74E008
:102C90000E94E53E8CEF94E167E179E00E94C63E38
:102CA0008CEF94E1BE014AE050E00E94A73EEBCEDB
:102CB000209709F440C1CA30D10509F4ECC1C630EF
:102CC000D10509F04FCFF301D183C083E401C4578C
:102CD000DF4FE880F9800A811B8128E830E0820E0E
:102CE000931ED401AD90BD90CD90DC90E8E7FFEF4E
:102CF0008E0E9F1E0E948D40AE0CBF1CC01ED11EAA
:102D0000A61AB70AC80AD90AF401E057FF4FA082F1
:102D1000B182C282D3821A141B041C041D040CF05D
:102D2000C2C124E930E0820E931ED401ED90FD90E3
:102D30000D911C912CE63FEF820E931E2081318174
:102D400042815381E20EF31E041F151FE882F982AF
:102D50000A831B838CEF94E16AEB7BE0D1C0279759
:102D600009F000CF85E090E0F301918380830E9419
:102D70008D4028E830E0820E931ED4016D937D9340
:102D80008D939C931397E8E7FFEF8E0E9F1E8CEFB9
:102D900094E161EE7BE00E94E53ED3018D919C9130
:102DA0003DCF209709F4CFC0C830D10509F4E6C063
:102DB000269709F0D7CE82E090E0D3018D939C93C3
:102DC000E401C457DF4FA880B980CA80DB80E8E8FF
:102DD000F0E08E0E9F1ED401ED90FD900D911C91A0
:102DE000E8E7FFEF8E0E9F1E0E948D40EA0CFB1C51
:102DF0000C1D1D1DE61AF70A080B190BF401E0570C
:102E0000FF4FE082F182028313831E141F04100619
:102E100011060CF052C124E930E0820E931ED40159
:102E2000ED90FD900D911C912CE63FEF820E931ECC
:102E30002081318142815381E20EF31E041F151F50
:102E4000E882F9820A831B838CEF94E16EE67AE0D4
:102E500057C0209709F48AC0C930D10509F413C1BD
:102E6000269709F07FCE84E090E0F3019183808380
:102E7000E401C457DF4FA880B980CA80DB8028E80E
:102E800030E0820E931ED401ED90FD900D911C91C7
:102E9000E8E7FFEF8E0E9F1E0E948D40EA0CFB1CA0
:102EA0000C1D1D1DE61AF70A080B190BF401E0575B
:102EB000FF4FE082F182028313831E141F04100669
:102EC00011060CF0F5C024E930E0820E931ED40107
:102ED000ED90FD900D911C912CE63FEF820E931E1C
:102EE0002081318142815381E20EF31E041F151FA0
:102EF000E882F9820A831B838CEF94E169E17BE02D
:102F00000E94E53E8CEF94E166E97AE00E94E53E9E
:102F1000D3018D919C9182CE87E090E0D3018D9377
:102F20009C938CEF94E160EF79E00E94E53EF30121
:102F30008081918173CEF301118210828CEF94E134
:102F400064E67BE0F6CDD3011D921C928CEF94E1F8
:102F50006CE07AE00E94E53E8CEF94E165E37AE074
:102F60000E94E53EF3018081918158CEF3011182E8
:102F700010828CEF94E161EC7AE0DBCDD3011D92FD
:102F80001C928CEF94E16FE37AE00E94E53E8CEFB7
:102F900094E165E37AE00E94E53E3DCED301CD9316
:102FA000DC930E948D40E8E8F0E08E0E9F1ED40175
:102FB0006D937D938D939C931397E8E7FFEF8E0EAF
:102FC0009F1E8CEF94E16BEB79E00E94E53ED3010C
:102FD0008D919C9123CED301CD93DC930E948D40A3
:102FE000E8E8F0E08E0E9F1ED4016D937D938D93E3
:102FF0009C931397E8E7FFEF8E0E9F1E8CEF94E1F2
:1030000060EA79E00E94E53E06CE85E090E0F301BB
:10301000918380830E948D4028E830E0820E931EC9
:10302000D4016D937D938D939C931397E8E7FFEF05
:103030008E0E9F1E8CEF94E166ED79E00E94E53ED6
:10304000D3018D919C91EACD81E090E0F3019183D1
:1030500080830E948D4028E830E0820E931ED401C8
:103060006D937D938D939C931397E8E7FFEF8E0EFE
:103070009F1E8CEF94E16EE97AE00E94E53ED30159
:103080008D919C91CBCDF301118210828CEF94E154
:103090006AEE7AE04ECDF301118210828CEF94E15A
:1030A0006CE87BE046CD108211821282138239CE09
:1030B000108211821282138206CF10821182128234
:1030C0001382A9CE67E070E00E94F514089566E0CF
:1030D00070E00E94F5140895FC01E457FF4F40830F
:1030E000518362837383EC58F040CF0163E070E05A
:1030F0000E94F5140895FC01E457FF4F408351836B
:1031000062837383EC58F040CF0164E070E00E946A
:10311000F5140895FC01E457FF4F40835183628307
:103120007383EC58F040CF0161E070E00E94F51429
:103130000895FC01E457FF4F4083518362837383FA
:10314000EC58F040CF0163E070E00E94F514089560
:10315000FC01E457FF4F88E99AE3A0E0B0E08083E8
:103160009183A283B383EC58F040CF0164E070E018
:103170000E94F5140895FC01E457FF4F88E99AE393
:10318000A0E0B0E080839183A283B383EC58F04049
:10319000CF0163E070E00E94F5140895FC01E4574C
:1031A000FF4F88E99AE3A0E0B0E080839183A28397
:1031B000B383EC58F040CF0161E070E00E94F51459
:1031C00008950F931F938C0162E370E00E94AD306D
:1031D000C801089663E470E048E552E00E941735A4
:1031E000F80115861686108A17861F910F9108958B
:1031F000AF92BF92CF92DF92EF92FF920F931F9305
:103200008C010E94C33053E0C52ED12CC00ED11EBC
:10321000C6010E94C33046E0A42EB12CA00EB11E00
:10322000C5010E94C330C80109966EE370E048E50D
:1032300052E00E941735C8010E966FE370E048E532
:1032400052E00E941735C80143966CE370E048E5F0
:1032500052E00E941735C801489660E470E048E5E6
:1032600052E00E941735C8014D966DE370E048E5C5
:1032700052E00E941735C801829661E470E048E58B
:1032800052E00E941735C80187960E94C20CC801FF
:1032900084599F4F0E94E118C80180589F4F62E3F4
:1032A00070E00E94AD3008571F4FF8011192119243
:1032B00011921192119211921192119211921192F6
:1032C0001192119288EE93E0A0E0B0E08193919387
:1032D000A193B1931192119211928F0110821182D8
:1032E000128213820B5910403FE9E32EF12CE00EBD
:1032F000F11EF701108200561F4FF8011082005A8C
:103300001040C80165E070E00E94D731C60162E05C
:1033100070E00E94D731C50163E070E00E94D731B0
:103320008CEF94E16DE27CE00E94E53EC8010E94D2
:103330001F11F7011082C8010E94EB131F910F911A
:10334000FF90EF90DF90CF90BF90AF9008950F93D4
:103350001F938C010E948413C80183960E94A413BA
:10336000C80183559F4F0E94F8181F910F9108952F
:10337000EF92FF920F931F93CF93DF93EC0106968A
:103380000E943F07F6E8EF2EF12CEC0EFD1E8D8D0E
:103390009E8DAF8DB8A1F70180839183A283B38303
:1033A0008E0109581F4FC8010E948130882339F4CB
:1033B000DF91CF911F910F91FF90EF900895C80179
:1033C0000E94A030CE010E94920D8823C9F5C158F9
:1033D000DF4F88819981CF57D040039749F78CEF11
:1033E00094E167E47CE00E94C63EF7014081518190
:1033F000628173818CEF94E122E030E00E943240E0
:10340000F701E080F18002811381C801B70120E05B
:1034100030E040E050E00E943A441816BCF4C80185
:10342000B70120E030E040E850E40E94EB428823FE
:103430000CF0BECFCE0163E070E00E94DE11B8CF89
:10344000CE0160E070E00E94DE11C1CFC801B7017B
:1034500020E030E040E850EC0E943A44181654F363
:10346000A7CF0F931F930CEF14E1C80168E57CE030
:103470000E94C63E83E40E945941BC01C8014AE053
:1034800050E00E94A73E1F910F910895CF93DF93C4
:10349000EC010E948130882319F4DF91CF910895C7
:1034A000CE010E94A0308989882329F41D861E86BA
:1034B000DF91CF910895CE010E94311AF7CFEF929C
:1034C000FF920F931F93CF93DF938C01A7E2EA2E15
:1034D000F12CE80EF91EC7010E94920CC801845914
:1034E0009F4F0E94461AE801C058DF4FCE010E944C
:1034F0008130882339F4DF91CF911F910F91FF9094
:10350000EF900895CE010E94A030C8010E943D0DA9
:10351000882309F080C0C8010E960E9424358823B4
:1035200009F062C0C80148960E942435882309F03A
:1035300044C0C80182960E942435882349F501566B
:103540001F4FF80180810F5910408823A1F2E80134
:10355000C856DF4F888199818530910509F469C08B
:103560008130910509F45DC0039729F6C7010E94D7
:103570000F07882309F4BFCFC80166E070E00E94FE
:10358000F5148CEF94E16FE87CE00E94E53EB3CF48
:10359000C8014D960E942435882389F208561F4F92
:1035A000F8018081918108591040039741F6C801C4
:1035B00069E070E00E94F514C2CFC80143960E94F2
:1035C0002435882309F4B5CF08561F4FF8018081B0
:1035D000918108591040019709F0ABCFC80168E00C
:1035E00070E00E94F514A5CFC80109960E94243509
:1035F000882309F497CF08561F4FF80180819181E5
:1036000008591040059709F08DCFC8016AE070E0B5
:103610000E94F51487CFC80160E070E00E94F514A5
:103620007ACFC7010E941F07882359F488819981A6
:103630009BCFC7010E94FD06882379F48881998178
:103640008FCFC80166E070E00E94F5148CEF94E122
:1036500069E77CE00E94E53EE9CFC80166E070E0E2
:103660000E94F5148CEF94E165E67CE00E94E53E53
:10367000E5CF0F931F938C010E94B510C8018355AD
:103680009F4F0E945F1AC80183960E94B8191F912C
:103690000F910895FC0188E6808308952F923F9250
:1036A0004F925F926F927F928F929F92AF92BF9252
:1036B000CF92DF92EF92FF920F931F935C014B0129
:1036C0003A01290118019C012F5F3F4F0091BA1068
:1036D0001091BB10FC0180816BE34EE00E94F3046B
:1036E000F501918180E0228130E0822B932BF4015F
:1036F00091838083F501938180E0248130E0822BE7
:10370000932BF30191838083F501958180E02681DD
:1037100030E0822B932BF20191838083F501918518
:1037200080E0228530E0822B932BF101918380830E
:10373000F501938580E0248530E0822B932BF701FF
:1037400091838083F501958580E0268530E0822B8A
:10375000932BF601918380831F910F91FF90EF903F
:10376000DF90CF90BF90AF909F908F907F906F90A1
:103770005F904F903F902F900895FC01262F8081FD
:103780006BE646E00E940E060895FC01AB018081C5
:1037900067E10E949C040895FC01AB01808165E112
:1037A0000E949C040895FC01AB01808163E10E94AA
:1037B0009C040895FC01AB0180816AE00E949C0496
:1037C0000895FC01AB01808168E00E949C0408958B
:1037D000FC01AB01808166E00E949C0408950F9378
:1037E000FC01062F80816BE642E023E00E94C405C5
:1037F0000F9108950F93FC01062F80816CE144E046
:1038000022E00E94C4050F9108950F93FC01062F3A
:1038100080816BE144E022E00E94C4050F9108958D
:103820000F931F938C0161E00E94EF1BC80160E0C1
:103830000E94051CC80160E00E94FA1BC80160E0FC
:103840000E94BD1B1F910F910895CF92DF92EF92BE
:10385000FF920F931F936C018C010F5F1F4FE0903D
:10386000BA10F090BB10FC01808165E746E026E0CD
:103870000E944806F60181811F910F91FF90EF9001
:10388000DF90CF9008950E94251C90E0843311F0C2
:10389000892F089591E0892F0895CF93DF93EC014C
:1038A000862F90E0FC01E25BFC4FE491EC83A42FB7
:1038B000B0E0FD01E25BFC4FE491ED83885F9C4F3B
:1038C000FC01449150E0440F551FFA01EC52FD4FAA
:1038D000859194919F838E83A85FBC4FFD01849155
:1038E000E82FF0E0EE0FFF1FE251FD4F859194911C
:1038F0009B878A87FA01E654FD4F859194919987B9
:103900008887A901F1E0253F3F0714F044EF51E01B
:103910009A01220F331F220F331F220F331FC901B9
:10392000880F991F880F991F880F991F821B930B6F
:10393000840F951F4C969D878C87DF91CF910895BA
:103940001F920F920FB60F920BB60F9211242F9366
:103950003F934F935F936F937F938F939F93AF9317
:10396000BF93EF93FF93E0918311F091841130970F
:1039700009F01995FF91EF91BF91AF919F918F91B0
:103980007F916F915F914F913F912F910F900BBE5F
:103990000F900FBE0F901F901895CF93DF93EC01FF
:1039A000E885F98580819C81892B8083EE81FF8168
:1039B00090818C8180958923808384E090E00E94AF
:1039C000ED40EE81FF8180819C81892B80838AE09C
:1039D00090E00E94ED40EE81FF8190818C81809586
:1039E00089238083E885F98590818C81809589235E
:1039F00080830E949B40605B794B8F4F9F4F6E8707
:103A00007F87888B998BEA85FB85808190E04D814B
:103A1000242F30E082239323892BD9F4242F03C051
:103A20002D81EA85FB85808130E090E028233923D1
:103A3000232BF1F40E949B402E853F8548895989AC
:103A4000261737074807590758F780E0DF91CF91CD
:103A500008950E949B402E853F85488959892617E5
:103A600037074807590778F6EA85FB854D81D6CF99
:103A70000E949B402C853D8540E050E0260F371F7B
:103A8000481F591F2E873F87488B598B81E0DF9154
:103A9000CF910895CF93DF93EC010E94CD1C882332
:103AA000A9F0EA85FB85208130E08D8190E0282314
:103AB0003923232B89F00E949B402E853F8548891E
:103AC0005989261737074807590758F740E050E04B
:103AD000CA01DF91CF9108950E949B404C855D857E
:103AE000455050402E853F85421B530B460F571FB4
:103AF000CA01DF91CF9108950E944A1D9C014C9606
:103B000069E370E00E94D04440E050E0232B11F0C4
:103B100041E050E09B016417750708F49A01C90160
:103B20000895FC0185E091E1918380830895FC0173
:103B3000A081B18116978D919C918E0F9F1F0E943D
:103B4000A21D0895FC0183EF90E19183808385E0BD
:103B500091E1978386830895DC0113968D919C9162
:103B60001497892B91F01596ED91FC911697179665
:103B70008D919C911897E817F90739F0819190E0A1
:103B80001696FC93EE9315970895ED91FC9111977D
:103B90000488F589E02DCD0119950895FC018DE289
:103BA00091E1918380830895CF93DF93EC01E881C5
:103BB000F9810288F389E02D19959C018FEF2F3F41
:103BC000380729F08D819E8101969E838D83C901DE
:103BD000DF91CF910895CB0108958FEF9FEF089566
:103BE00080E090E0089508950895DC01242FED9180
:103BF000FC910084F185E02D41E01995089580E065
:103C000090E00895FC012289338980899189281BDD
:103C1000390B86899789281B390BC9010895CF92E2
:103C2000DF92EF92FF920F931F93CF93DF93EC01FC
:103C30006B0179018A01AE89BF89688979898A898E
:103C40009B89861B970BA817B90778F020E030E016
:103C500040E050E0B901CA01DF91CF911F910F916F
:103C6000FF90EF90DF90CF90089512161306140680
:103C7000150664F720E030E040E050E0F601E20F86
:103C8000F31F6A0F7B1FDB018C9180832F5F3F4FF7
:103C90004F4F5F4FAE89BF891196BF8BAE8B68893E
:103CA00079898A899B89861B970BA817B90790F693
:103CB0002E153F05400751076CF6E0CFFC01268921
:103CC0003789A089B189828993898A1B9B0B281720
:103CD000390738F4A20FB31F8C91282F30E0C901A7
:103CE00008952FEF3FEFC9010895CF93DF93EC01C3
:103CF000E881F9810288F389E02D19959C018FEF05
:103D00002F3F380729F08E899F8901969F8B8E8BD4
:103D1000C901DF91CF910895CF93DF93DC015696CF
:103D20004D915C9157974115510511F15096CD91E8
:103D3000DC91519752962D913C9153972C1B3D0B42
:103D400024173507B0F18FEF6F3F7807B9F0FE0108
:103D5000E40FF51F319780818617E1F44150504000
:103D600057965C934E935697CB01DF91CF91089570
:103D70006FEF7FEFCB01DF91CF910895415050401D
:103D800057965C934E93569760E070E0CB01DF91BD
:103D9000CF9108951F968C911F9784FFE9CFCA0198
:103DA000019757969C938E935697C80FD91F688397
:103DB000DBCF57963C932E9356976FEF7FEFD4CF80
:103DC00080E090E0089580E090E0089580E090E049
:103DD000089580E090E0089560E070E080E090E079
:103DE00008956F927F929F92AF92BF92CF92DF928F
:103DF000EF92FF920F931F93CF93DF93EC013B0160
:103E000059016A0112161306140615060CF050C06B
:103E1000EE24FF24870117C0EB85FC858D859E85E8
:103E2000E817F90748F590828B859C8501969C8759
:103E30008B870894E11CF11C011D111DEA14FB0481
:103E40000C051D05ACF5F301EE0DFF1D90808F856F
:103E500080FFE2CFE881F9810084F185E02DCE0179
:103E600060E070E044E020E11995EB85FC858D85EC
:103E70009E85E817F907B8F2E881F981028CF38D85
:103E8000E02DCE01692D70E019958F5F9F4F89F667
:103E9000B701C801DF91CF911F910F91FF90EF9073
:103EA000DF90CF90BF90AF909F907F906F900895DC
:103EB00086017501EDCFCB010895EF92FF920F932C
:103EC0001F93CF93DF937C018B01EA016417750781
:103ED000A9F0FC01428153814F5F5F4F4C1B5D0B8A
:103EE000CB01BE010E94480398012C1B3D0BF7013A
:103EF00082819381820F931F93838283C801DF9114
:103F0000CF911F910F91FF90EF9008950F931F9302
:103F10008B0181E090E00E946903FC011082F801AE
:103F200010821F910F910895FC01A081B181169715
:103F30008D919C918E0F9F1F0E949F1F0895FC01E1
:103F400083EF90E19183808385E091E1978386837D
:103F5000CF010E942D3D0895FC0185E091E1918300
:103F60008083CF010E942D3D0895FC018DE291E1F7
:103F700091838083CF010E942D3D0895CF93DF93DD
:103F8000EC018DE091E199838883288939898C89B6
:103F90009D898217930719F0C9010E94C9028DE219
:103FA00091E199838883DF91CF910895CF93DF9337
:103FB000EC018DE091E199838883288939898C8986
:103FC0009D898217930719F0C9010E94C9028DE2E9
:103FD00091E199838883CE010E942D3DDF91CF919D
:103FE0000895FC01A081B18116978D919C918E0F4F
:103FF0009F1F0E94FC1F0895CF93DF93EC018BEC71
:1040000090E1998388830A9699A388A38DE091E132
:104010009F838E832E893F898A8D9B8D821793077C
:1040200019F0C9010E94C9028DE291E19F838E833C
:10403000E091BF10F091C010F983E88336970190AA
:10404000F081E02DEC0FFD1F8091C1109091C21006
:104050009183808385E091E199A388A3CE010E949A
:104060002D3DDF91CF910895FC01A081B18116977C
:104070008D919C918E0F9F1F0E943F200895CF939A
:10408000DF93EC018BEC90E1998388830A9699A3E6
:1040900088A38DE091E19F838E832E893F898A8D4D
:1040A0009B8D8217930719F0C9010E94C9028DE206
:1040B00091E19F838E83E091BF10F091C010F9834E
:1040C000E88336970190F081E02DEC0FFD1F809181
:1040D000C1109091C2109183808385E091E199A3F2
:1040E00088A3DF91CF910895AF92BF92CF92DF92D4
:1040F000EF92FF920F931F93CF93DF936C01DC013C
:104100001296ED91FC9113974D915C91DF01A41BE8
:10411000B50BCB016A177B0708F4CD015C0108944D
:10412000A11CB11CA114B104C9F5EE24FF248F0118
:10413000041B150BC701BA01A8010E944803E7013F
:10414000C00FD11F81E090E0BE010E946903FC0115
:1041500010821882F6012081318184819581821735
:10416000930719F0C9010E94C902D6011196FC9269
:10417000EE921396DC93CE931297AE0CBF1C15965D
:10418000BC92AE921497DF91CF911F910F91FF9047
:10419000EF90DF90CF90BF90AF900895C5010E943F
:1041A0001F02009779F07C01D6011296ED91FC91E7
:1041B00013974D915C91BBCF1995C5010E941F02C9
:1041C000009789F7E0918511F09186113097A1F75A
:1041D00080E090E00E941745FF920F931F93CF93CA
:1041E000DF938C01F62EDC0112962D913C911397F2
:1041F000E901219614968D919C911597C817D907BE
:10420000E9F081E090E0BE010E946903FC011082A8
:104210001882D8011296ED91FC911397F0821296B4
:104220008D919C911397019613969C938E93129760
:10423000DF91CF911F910F91FF9008958D919C91E7
:10424000F901E81BF90BCF0171F461E070E0680F30
:10425000791FC8010E947420D8011296CD91DC917B
:1042600013972196CECFBF01F2CF0F931F93CF9319
:10427000DF938C01EB018FEF6F3F780741F4C0E0D3
:10428000D0E0CE01DF91CF911F910F910895D80119
:104290001F968C9184FF1AC0F801208D318D008803
:1042A000F189E02DD80152968D919C9153978E1BE8
:1042B0009F0B2817390768F4E20FF31F6083F8019A
:1042C000808D918D0196918F808FDBCFCFEFDFEFC7
:1042D000D8CFC80140960E94EC20F1CFCF92DF9258
:1042E000EF92FF920F931F93CF93DF938C01FB010B
:1042F00030E0C90188719070489709F4DBC0C901AA
:104300008870907020713070413009F4B4C0423030
:1043100009F46DC0D80152964D915C915397509617
:104320006D917C915197DA01A61BB70BEF01CA0F73
:10433000DB1FAC17BD0708F479C0892B19F0F80111
:10434000D78BC68B232B09F48BC080E1C82ED12CD0
:10435000C00ED11E9A01261B370B2C173D0708F003
:1043600068C07E01E21AF30AF801848995890197F1
:10437000861B970B8C179D0778F4B701E216F3069E
:1043800008F496C0620F731FC6010E947420D80102
:1043900052964D915C915397E114F10409F453C086
:1043A0009A012F5F3F4FFA01EE0DFF1DE21BF30B49
:1043B000C90160E070E0AF010E945A03F801628910
:1043C00073896E0D7F1DC6010E94861FD80152960B
:1043D000ED91FC915397108252964D915C915397B9
:1043E0004E0D5F1D53965C934E9352972CC0211532
:1043F000310509F04EC0C0E0D0E0D80150966D9173
:104400007C91519752964D915C915397009739F05A
:10441000D8015696CD91DC915797CE0FDF1FDA0168
:10442000A61BB70BAC17BD0708F087CF2FEF3FEFE8
:1044300018C06C0F7D1FC6010E945D1FD8015296E7
:104440004D915C915397F801808991899A01281BBD
:10445000390B868997892817390710F4378B268BF3
:104460009E01C901DF91CF911F910F91FF90EF90B5
:10447000DF90CF900895EF01D80150966D917C9117
:10448000519752964D915C915397DA01A61BB70B49
:1044900050CFD80152964D915C91539750966D91A3
:1044A0007C915197EA01C61BD70BCE0FDF1FAECF11
:1044B000B90168CF423009F022CFB8CF8F929F92D6
:1044C000AF92BF92DF92EF92FF920F931F93CF9321
:1044D000DF935C017B01DC01CD91DC912697E881C3
:1044E000F9812696E80FF91F018912890115110536
:1044F00001F1D801ED91FC9136970190F081E02D0A
:10450000E00FF11FA389B489ED91FC911197048408
:10451000F585E02DCD0119958F5F9F4F09F4E7C018
:10452000F501C081D1812697E881F9812696EA0DAF
:10453000FB1DA389B48913968D919C911497892BA7
:1045400009F4B2C01596ED91FC91169717968D91CE
:104550009C911897E817F90709F4A6C0808190E0AC
:104560000E940C45892B09F084C026972881398147
:10457000F501E20FF31F83889488D701ED91FC9138
:10458000119712968D919C911397E817F90771F086
:1045900010828D919C91119713969C938E931297F4
:1045A000D501ED91FC91369720813181F901329648
:1045B000EA0DFB1D228533854485558512861386B9
:1045C00014861586E9012115310509F0E9C00EEFC1
:1045D0001FEF1EC081E090E0BE010E946903FC0154
:1045E00010821882D7011296ED91FC911397D08218
:1045F00012962D913C9113972F5F3F4F13963C934A
:104600002E9312970115110509F4B5C00150104001
:10461000C4010E94AC1DBFEF8F3F9B0709F4C6C0C9
:10462000D82E992787FD90950E940C45892B09F07B
:1046300070C0F70122813381E9012196848195813F
:10464000C817D90739F680819181A901481B590BF8
:10465000CA0109F0A3C061E070E0680F791FC701CB
:104660000E947420D7011296CD91DC911397219668
:10467000B1CF2697E881F981EA0DFB1D83899489E2
:104680000E94AC1DD501CD91DC912697E881F9817E
:104690002696EA0DFB1DA389B48913968D919C91F2
:1046A0001497892B09F04ECFED91FC911197028858
:1046B000F389E02DCD011995BFEF8F3F9B0709F0DE
:1046C000C0C0D501ED91FC91119736970190F08112
:1046D000E02DEA0DFB1D2581322F326083899489FC
:1046E000892B09F48AC03583CD91DC913ECFD80166
:1046F000ED91FC9136970190F081E02DE00FF11FD4
:104700002581216083899489892B09F47CC02583C4
:1047100007CFF401238134812115310551F08581C2
:1047200096812817390729F0FC018291D81609F4DF
:1047300074C0D401ED91FC910688F789E02DC40185
:104740006D2D70E019958F5F9F4F91F4D501ED911C
:10475000FC9136970190F081E02DEA0DFB1D25813B
:10476000322F346083899489892B09F44EC03583B4
:10477000F70122813381F701808191812817390760
:1047800051F1C501DF91CF911F910F91FF90EF90F3
:10479000DF90BF90AF909F908F900895BA015DCF4A
:1047A000C701B9010E9474208E0130CFD501ED916F
:1047B000FC9136970190F081E02DEA0DFB1D2581DB
:1047C000322F326083899489892B81F13583F701F7
:1047D00022813381D0CFD501ED91FC9136970190A4
:1047E000F081E02DEA0DFB1D2581322F3460838995
:1047F0009489892B19F13583C4CF23602583F50172
:10480000C081D181B2CE25833DCF25602583D701DC
:1048100012962D913C911397AECFD4011696FC932E
:10482000EE931597F70122813381A5CF236025836D
:10483000D70112962D913C9113979DCF256025832A
:10484000A0CFF501C081D1818BCE8F929F92AF9284
:10485000BF92CF92DF92EF92FF920F931F93CF936D
:10486000DF937C018B016A01DC014D915C91119712
:1048700012962D913C911397241B350BE601C61B14
:10488000D70B2C173D0708F075C0CA01A9010E947B
:104890003F03D7011296ED91FC9113976D917C9196
:1048A0001197AF01461B570B5801A40EB51ECA1431
:1048B000DB0409F451C0E601CA19DB099E01240F8B
:1048C000351F14968D919C9115970197861B970B18
:1048D0008217930708F081C09A012F5F3F4FCE01E6
:1048E000C431D10508F463C04901880E991E8114B2
:1048F000910409F065C0CC24DD248F01061B170B41
:10490000C601A8010E9448030C0D1D1DC801B50178
:10491000AE010E944803C00FD11F81E090E0BE01AC
:104920000E946903FC0110821882D7012D913C91ED
:10493000119714968D919C9115978217930719F0F2
:10494000C9010E94C902F701D182C082D383C28308
:104950008C0C9D1C95828482C701DF91CF911F91A1
:104960000F91FF90EF90DF90CF90BF90AF909F900E
:104970008F900895CA01AE010E943F03D701ED91C7
:10498000FC911197EC0FFD1F12960D90BC91A02D7C
:10499000EA17FB0709F38C918083EA1BFB0BE70105
:1049A0008A819B818E0F9F1F9B838A83D5CF84E151
:1049B00090E04901880E991E8114910409F49BCF5F
:1049C000C4010E941F020097C1F16C01F7016081D0
:1049D00071810280F381E02D90CFB5016F5F7F4F31
:1049E000C61AD70ACF010196A6010E944803D70133
:1049F00012960D911C9113970C0F1D1F81E090E0F2
:104A0000B8010E946903FC011082F8011082D701ED
:104A10001296ED91FC911397D5018C918083F7014B
:104A2000828193818C0F9D1F9383828395CF1995EB
:104A3000C4010E941F02009741F6E0918511F09198
:104A400086113097A1F780E090E00E9417453F92D1
:104A50004F925F926F927F928F929F92AF92BF928E
:104A6000CF92DF92EF92FF920F931F93DF93CF933A
:104A7000CDB7DEB728970FB6F894DEBF0FBECDBF17
:104A80003C019AE0492E512C460C571CCE01019650
:104A900098878F838CEF94E10E943E3B181619068D
:104AA0002CF4F301808591854C97C4F028960FB6BD
:104AB000F894DEBF0FBECDBFCF91DF911F910F9154
:104AC000FF90EF90DF90CF90BF90AF909F908F902E
:104AD0007F906F905F904F903F9008958CEF94E19E
:104AE0000E94703B382EFAE08F1709F445C1D301BC
:104AF0001C960D911C911D971A968D919C911B9758
:104B0000081B190B0E5F1F4F1A8219821C821B8211
:104B10001E821D82BFEF0F3F1B0771F001151105AB
:104B200009F00BC180E090E09A8389839C838B839A
:104B3000080F191F1E830D830B811C8181E090E0FB
:104B4000B8010E946903FC011082F8011082D301B0
:104B50001A968D909C901B971C96ED91FC911D9739
:104B60008E169F0609F403C14B815C8169817A81AD
:104B7000DA01A61BB70B6F01C818D90896012A0FD6
:104B80003B1F8D819E810197861B970B8217930790
:104B900008F079C09D012F5F3F4FC601B4E1CB16ED
:104BA000D10410F484E190E05901A80EB91EA114BB
:104BB000B10409F0A7C0EE24FF248A01061B170BDD
:104BC000C701A8010E9448030E0D1F1DC801B401B2
:104BD000A6010E9448030C0D1D1D81E090E0B80164
:104BE0000E946903FC011082F801108229813A8138
:104BF0008D819E818217930719F0C9010E94C90215
:104C0000FA82E9821C830B83AE0CBF1CBE82AD828C
:104C1000A8018A010F5F1F4F8D819E810817190718
:104C200009F45CC081E090E0B8010E946903FC01D6
:104C30001082F8011082EB81FC8130824B815C8113
:104C40004F5F5F4F5C834B838F81988584159505FB
:104C500029F069817A81C2010E94252429813A8143
:104C60008D819E818217930719F0C9010E94C902A4
:104C7000D30118968D919C911997019619969C9342
:104C80008E93189707CFB4016F5F7F4FE61BF70B2A
:104C9000CA010196AF010E9448030B811C810C0DD3
:104CA0001D1D81E090E0B8010E946903FC011082A3
:104CB000D8011C92EB81FC81D4018C9180834B81C3
:104CC0005C814C0D5D1D5C834B838A010F5F1F4F20
:104CD0008D819E810817190709F0A4CF89819A81D7
:104CE0008A01081B190B09F045C061E070E0600FF4
:104CF000711FCE0101960E9474200B811C810F5FF1
:104D00001F4F90CFC5010E941F02009761F07C01E8
:104D10004B815C8169817A8150CF1995C5010E94D0
:104D20001F020097A1F7E0918511F091861130974D
:104D3000A1F780E090E00E941745C8010E941F0281
:104D4000009709F0F1CEE0918511F091861130972E
:104D500081F31995C8010E941F02009709F0E4CE63
:104D6000E0918511F0918611309799F7E2CF4B8150
:104D70005C814FCFB801BBCF8CEF94E165EA7CE05A
:104D80000E94E53ED30118968D919C9119971816B3
:104D900019060CF5F301108A8CEF94E162EB7CE0CC
:104DA0000E94C63ED3011A966D917C911B978CEFA1
:104DB00094E10E94C63E8CEF94E160EC7CE00E949E
:104DC000C63EF301608571858CEF94E14AE050E0C6
:104DD0000E94A73E6BCE81E050968C93DDCF2F9240
:104DE0003F924F925F926F927F928F929F92AF927B
:104DF000BF92CF92DF92EF92FF920F931F93CF93C8
:104E0000DF935C013B014A014217530709F46CC070
:104E10006901C41AD50ADC011296ED91FC91139731
:104E200014968D919C9115978E1B9F0BC816D906D1
:104E30000CF46DC0D5012D913C91BF01621B730B29
:104E40006F5F7F4FC601B4E1CB16D10410F484E14B
:104E500090E01B01280E391E2114310409F0B1C065
:104E6000442455248301021B130BC201B901A8017C
:104E70000E9448037201E00EF11EC701B401A601B1
:104E80000E944803EC0CFD1CD50112960D911C915B
:104E9000139706191709C701B301A8010E94480317
:104EA000E701C00FD11F81E090E0BE010E946903BD
:104EB000FC0110821882F501208131818481958165
:104EC0008217930719F0C9010E94C902D5011196F2
:104ED0005C924E921396DC93CE931297240C351C61
:104EE00015963C922E921497DF91CF911F910F91BE
:104EF000FF90EF90DF90CF90BF90AF909F908F90FA
:104F00007F906F905F904F903F902F900895EF01AA
:104F1000C61BD70BCC15DD051CF1BF016C197D0933
:104F20006F5F7F4FCF010196AC01461B570B0E946C
:104F30004803F501828193818C0D9D1D93838283AB
:104F40002196CC19DD09C3018C0D9D1DB301AE0165
:104F50000E944803C301B401A6010E943F03C4CFCD
:104F600021967A01EC0EFD1E21978F010F5F1F4FD6
:104F70002E193F09C801B701A9010E944803CC1AA4
:104F8000DD0AD50112968D919C9113978C0D9D1D74
:104F900013969C938E93129706191709B301A801D3
:104FA0000E944803F501828193818C0F9D1F93839A
:104FB0008283E818F908C301B401A7010E943F03E6
:104FC00093CFC1010E941F02009759F02C01F501F7
:104FD0002081318147CF1995C1010E941F0200979E
:104FE000A9F7E0918511F09186113097A1F780E043
:104FF00090E00E9417452F923F924F925F926F92DE
:105000007F928F929F92AF92BF92CF92DF92EF9258
:10501000FF920F931F93CF93DF935C01FB01522EFE
:10502000432E342E252EDC0158966D917C91599794
:10503000C22ED32E50962D913C9151974901860E48
:10504000971E52968D919C915397821B930B861BB2
:10505000970BA6018C159D0508F4AC017A01E60EAC
:10506000F71EE20EF31E3F016C0C7D1CE301CE1B0C
:10507000DF0BC701881999098C179D078CF58F01E3
:10508000080F191F98012E1B3F0BC401BF01A90176
:105090000E943F03C5014096B701A801930100E0BB
:1050A0000E94EF26F501808D918D8C0D9D1D918FB5
:1050B000808F652D742D832D922DDF91CF911F91BF
:1050C0000F91FF90EF90DF90CF90BF90AF909F90A7
:1050D0008F907F906F905F904F903F902F900895AA
:1050E000C401BF01AE010E943F03C80DD91DEC16DB
:1050F000FD06C1F2F501428953894F5F5F4F4E199A
:105100005F09CE01B7010E944803CE19DF09D5011E
:1051100052968D919C9153978C0F9D1F53969C9303
:105120008E935297BFCF2F923F924F925F926F9282
:105130007F928F929F92BF92CF92DF92EF92FF92D7
:105140000F931F93DF93CF93CDB7DEB760970FB662
:10515000F894DEBF0FBECDBF7C01DC011A966D91C5
:105160007C911B971C964D915C911D9787960E9490
:105170002524F70116A615A686A181FFA7C181A542
:1051800092A527A130A5821B930B90AB87A7F701AF
:105190007196F88BEF87D7015196ED91FC9152975C
:1051A00036970190F081E02D8F859889E80FF91FDF
:1051B00083899489892B09F41FC215821A82198266
:1051C0001C821B821E821D8288E090E00E941F02CA
:1051D000009709F411C189839A838B839C83898109
:1051E0009A8108969E838D830B811C8181E090E0DB
:1051F000B8010E946903FC011082D8011C928F85BE
:105200009889BE016F5F7F4F0E945E22E981FA811B
:10521000B0808CEF94E161ED7CE00E94C63EE981B4
:10522000FA818181C82EDD24C7FCD094E0EDFFEF28
:10523000CE0EDF1E8CEF94E16B2D0E945F3D8CEF54
:1052400094E16EED7CE00E94C63E8CEF94E1B601E5
:105250004AE050E00E94A73E88E090E00E941F02D2
:105260009E878D87892B09F4DBC081E090E06D85F6
:105270007E850E946903FC011082AD85BE851C926B
:1052800088E090E00E941F021C01009709F4D8C03A
:1052900081E090E0B1010E946903FC011082F101FC
:1052A000108288E090E00E941F022C01009709F410
:1052B000D7C081E090E0B2010E946903FC01108236
:1052C000D2011C9288E090E00E941F023C010097EE
:1052D00009F4D6C081E090E0B3010E946903FC01AB
:1052E0001082F301108288E090E00E941F024C01BE
:1052F000009709F4D5C081E090E0B4010E946903F1
:10530000FC011082D4011C9218861F821A8619860D
:105310001C861B8688E090E00E941F02009709F41B
:10532000CEC08F83988789879A878F8198850896C2
:105330009C878B8709851A8581E090E0B8010E94DF
:105340006903FC011082F8011082F5E4BF1609F42C
:10535000DBC1FB150CF0C0C0A3E5BA1609F44FC1C0
:10536000B4E5BB1609F4F2C0E1E5BE1609F414C1B8
:105370002F8138858B859C858217930719F0C90189
:105380000E94C902C4010E94C902C3010E94C9024D
:10539000C2010E94C902C1010E94C9028D859E8579
:1053A0000E94C90229813A818D819E8182179307CB
:1053B00019F0C9010E94C90260960FB6F894DEBFC9
:1053C0000FBECDBFCF91DF911F910F91FF90EF9056
:1053D000DF90CF90BF909F908F907F906F905F9065
:1053E0004F903F902F900895199588E090E00E948B
:1053F0001F02009709F0EFCEE0918511F091861120
:10540000309791F780E090E00E941745199588E069
:1054100090E00E941F029E878D87892B09F025CF7F
:10542000E0918511F0918611309781F7EBCF1995B6
:1054300088E090E00E941F021C01009709F028CF2D
:10544000E0918511F0918611309789F7DBCF19959E
:1054500088E090E00E941F022C01009709F029CFFC
:10546000E0918511F0918611309789F7CBCF19958E
:1054700088E090E00E941F023C01009709F02ACFCB
:10548000E0918511F0918611309789F7BBCF19957E
:1054900088E090E00E941F024C01009709F02BCF9A
:1054A000E0918511F0918611309789F7ABCF19956E
:1054B00088E090E00E941F02009709F032CFE0914F
:1054C0008511F0918611309791F79CCFD701D09636
:1054D0001C921E929F975BCE81E4B81609F4C7C058
:1054E00094E4B91609F044CFB4E0CB16D10409F422
:1054F000B4C3E5E0CE16D1040CF46AC1B7E0CB1614
:10550000D10409F482C3E8E0CE16D1040CF015C230
:10551000F5E0CF16D10409F48CC386E0C816D10497
:1055200009F026CF8CEF94E165EA7FE00E94C63E49
:10553000E7E4F0E0EE0EFF1ED7018D919C910E94F2
:10554000F8060E9496060E94AB0612CFF1E0CF1635
:10555000D10409F481C182E0C816D1040CF4A0C1C1
:1055600092E0C916D10409F489C1A3E0CA16D10496
:1055700009F0FECE8CEF94E169EF7DE00E94C63E1B
:10558000E7E4F0E0EE0EFF1ED7018D919C910E94A2
:10559000F2060E94D810ECCEB4E0CB16D10409F488
:1055A00032C2E5E0CE16D1040CF03AC1F1E0CF16DC
:1055B000D10409F44CC282E0C816D1040CF489C3AA
:1055C00092E0C916D10409F430C2A3E0CA16D1048E
:1055D00009F0CECE8CEF94E16FE070E10E94C63E00
:1055E000E7E4F0E0EE0EFF1ED7018D919C910E9442
:1055F000F8060E940111BCCE81E08583DFCDF3E087
:10560000CF16D10409F4EDC184E0C816D1040CF41E
:10561000C3C0B5E0CB16D10409F4D1C1E5E0CE1684
:10562000D1040CF4BAC1F6E0CF16D10409F0A0CE33
:105630008CEF94E161E97DE00E94C63E8701095B41
:105640001F4FF801808191810E94F8060E949B06FD
:10565000D8018D919C910E94F8060E94A818F8012B
:10566000808191810E94F3060E94171381CEB4E0DD
:10567000CB16D10409F421C2E5E0CE16D1040CF01A
:105680006FC0F1E0CF16D10409F458C282E0C81609
:10569000D1040CF45FC392E0C916D10409F41FC20F
:1056A000A3E0CA16D10409F063CE8CEF94E163E75E
:1056B0007EE00E94C63E8F859889BE01695F7F4F5C
:1056C0000E945E228F8198850E942103BC018CEF8D
:1056D00094E14AE050E00E94A73EE7E4F0E0EE0EDD
:1056E000FF1ED7018D919C910E94F8068C018F813D
:1056F00098850E942103AC01662757FD6095762F9F
:10570000C8010E948A1834CEC114D10491F48CEFE0
:1057100094E16FE570E10E94C63EE7E4F0E0EE0E32
:10572000FF1ED7018D919C910E94F8060E949B0656
:105730001FCEB1E0CB16D10409F01ACE8CEF94E164
:105740006CE770E10E94C63EE7E4F0E0EE0EFF1E5B
:10575000D7018D919C910E94F8060E94A00608CE68
:10576000B6E0CB16D10409F484C1E6E0CE16D1042C
:105770000CF0ABC08CEF94E16BEA7EE00E94C63E79
:10578000E7E4F0E0EE0EFF1ED7018D919C910E94A0
:10579000F8060E946218ECCD91E0C916D10409F414
:1057A000EAC0A2E0CA16D1040CF4BFC28CEF94E1A7
:1057B00063E17DE00E94C63EE7E4F0E0EE0EFF1EEE
:1057C000D7018D919C910E94F3060E943711D0CD94
:1057D000F1E0CF16D10409F468C282E0C816D10402
:1057E0000CF48CC292E0C916D10409F44AC2A3E0B9
:1057F000CA16D10409F0BCCD8CEF94E16DE57FE0D1
:105800000E94C63EE7E4F0E0EE0EFF1ED7018D9148
:105810009C910E94F3060E9491060E94C706A8CDA3
:10582000B6E0CB16D10409F4B8C1E6E0CE16D10437
:105830000CF067C08CEF94E16BE270E10E94C63E11
:10584000E7E4F0E0EE0EFF1ED7018D919C910E94DF
:10585000F8060E9407118CCD8CEF94E16AEC7DE094
:105860000E94C63EE7E4F0E0EE0EFF1ED7018D91E8
:105870009C910E94F2060E94E2107ACD8CEF94E196
:1058800062EE7DE00E94C63EE7E4F0E0EE0EFF1E11
:10589000D7018D919C910E94F2060E94DD1068CD87
:1058A000CD2809F065CD8CEF94E162EB7DE00E949C
:1058B000C63EE7E4F0E0EE0EFF1ED7018D919C910D
:1058C0000E94F2060E94E71053CDF7E0CF16D104F4
:1058D00009F475C188E0C816D10409F049CD8CEFF0
:1058E00094E160E07FE00E94C63EE7E4F0E0EE0E67
:1058F000FF1ED7018D919C910E94F8060E94BB1853
:1059000037CDF7E0CF16D10409F4C5C088E0C8163A
:10591000D10409F02DCD8CEF94E163E570E10E9494
:10592000C63EE7E4F0E0EE0EFF1ED7018D919C919C
:105930000E94F8060E9419111BCD98E0C916D104E7
:1059400009F44FC1A9E0CA16D10409F011CD8CEFBA
:1059500094E163ED7FE00E94C63EE7E4F0E0EE0EE6
:10596000FF1ED7018D919C910E94F8060E94A60609
:105970000E948E06FDCC8CEF94E16AEF7CE00E94E1
:10598000C63EE7E4F0E0EE0EFF1ED7018D919C913C
:105990000E94F3060E943C11EBCC8CEF94E161E590
:1059A0007DE00E94C63EE7E4F0E0EE0EFF1ED70168
:1059B0008D919C910E94F3060E942D11D9CC8CEF01
:1059C00094E16BE67DE00E94C63EE7E4F0E0EE0E77
:1059D000FF1ED7018D919C910E94F3060E941C131B
:1059E000C7CC8CEF94E160E37DE00E94C63EE7E423
:1059F000F0E0EE0EFF1ED7018D919C910E94F30600
:105A00000E943211B5CC8CEF94E16DE170E10E94FF
:105A1000C63EE7E4F0E0EE0EFF1ED7018D919C91AB
:105A20000E94F8060E94FB10A3CC8CEF94E161E089
:105A300070E10E94C63EE7E4F0E0EE0EFF1ED701E3
:105A40008D919C910E94F8060E94EC1091CC8CEFF5
:105A500094E161EF7FE00E94C63E87E490E0E80EAB
:105A6000F91ED7018D919C910E94F8060E94F110B9
:105A70007FCC8CEF94E164EC7EE00E94C63EE7E4CC
:105A8000F0E0EE0EFF1ED7018D919C910E94F8066A
:105A90000E94A8186DCC8CEF94E165E470E10E943F
:105AA000C63EE7E4F0E0EE0EFF1ED7018D919C911B
:105AB0000E94F8060E940D115BCC8CEF94E164E922
:105AC0007EE00E94C63EE7E4F0E0EE0EFF1ED70146
:105AD0008D919C910E94F8060E94671849CC8CEF2A
