:100000000C94F0010C941D020C941D020C941D0222
:100010000C941D020C941D020C941D020C941D02E4
:100020000C941D020C941D020C941D020C941D02D4
:100030000C941D020C94B2210C941D020C941D0210
:100040000C941D020C94D6360C941D020C941D02C7
:100050000C941D020C941D020C941D020C9442453C
:100060000C941D020C94643D0C94B03E0C941D0243
:100070000C941D020C941D020C941D020C941D0284
:100080000C943F390C941D020C941D020C941D021B
:100090000C94A43D0C94EF3E0C941D020C94FE3B7A
:1000A0000C941D020C941D020C946F380C941D02CC
:1000B0000C941D020C941D020C941D020C94A63786
:1000C0000C941D020C941D020C941D020C94E43D32
:1000D0000C942E3F0C941D020C94243E0C946D3F06
:1000E0000C941D02A010C010D210E210F1100111EA
:1000F0000F111F112B113B114E115E116E117C114E
:100100008C119811861043124A1254125D12681213
:100110006D12781281128C129512A012A912F2118E
:10012000B412BF12C8123D12B73C503C503C503C78
:10013000503C503C503C503CC13C503C503C503CEE
:10014000503C503C503C503CC13C503C503C503CDE
:10015000503C503C503C503CC93C503C503C503CC6
:10016000503C503C503C503CDD3C503C503C503CA2
:10017000503C503C503C503CC93C503C503C503CA6
:10018000503C503C503C503C7F3C503C503C503CE0
:10019000503C503C503C503C8C3C503C503C503CC3
:1001A000503C503C503C503C783C503C503C503CC7
:1001B000503C503C503C503C0D3D503C503C503C21
:1001C000503C503C503C503C6C3C503C503C503CB3
:1001D000503C503C503C503C953C503C503C503C7A
:1001E000503C503C503C503CAE3C503C503C503C51
:1001F000503C503C503C503CAE3C503C503C503C41
:10020000503C503C503C503CAE3C503C503C503C30
:10021000503C503C503C503CAE3C503C503C503C20
:10022000503C503C503C503C633C503C503C503C5B
:10023000503C503C503C503C683C503C503C503C46
:10024000503C503C503C503C633C503C503C503C3B
:10025000503C503C503C503C683C503C503C503C26
:10026000503C503C503C503CE83C503C503C503C96
:10027000503C503C503C503C263C503C503C503C48
:10028000503C503C503C503C263C503C503C503C38
:10029000503C503C503C503C3B3C503C503C503C13
:1002A000503C503C503C503C073D503C503C503C36
:1002B000503C503C503C503C073D00002100240085
:1002C00027002A002D003000330001010000040146
:1002D00007010A0100002200250028002B002E0043
:1002E0003100340002010000050108010B0100008B
:1002F00020002300260029002C002F0032000001DE
:1003000000000301060109010505050507050808A8
:100310000808020202020A0A08080404040401018F
:1003200001010101010103030303030303030407A4
:1003300007070C0C0C0C0C0C0C0C0202020206063B
:100340000606060606060B0B0B0B0B0B0B0B01022E
:1003500010202008081020401020408002010201D7
:10036000080402010102040810204080804020108F
:1003700008040201800402018040201008040201E8
:100380000804020101020408102040800102040850
:10039000102040800000090A02080B0C0D0706031C
:1003A0000401000000000000000000000000000048
:1003B000000000000000000000000000000000003D
:1003C00011100F00000000000000000000000000FD
:1003D000000000000000000000006B037E3AE040D7
:1003E00011241FBECFEFD1E2DEBFCDBF00E00CBFB6
:1003F00016E1A0E0B2E0E0E1F6E900E00BBF02C0E8
:1004000007900D92AE3EB107D9F71BBE1BE1AEEED1
:10041000B6E101C01D92A731B107E1F713E0C0EECC
:10042000D3E004C02297FE010E94F74ACA3DD107DB
:10043000C9F70E9416420C94064B0C940000CF930F
:10044000DF93BC018230910510F462E070E0A0916E
:10045000151BB091161BED01E0E0F0E040E050E02C
:1004600021C0888199818617970769F48A819B81C9
:10047000309719F09383828304C09093161B809366
:10048000151BFE0134C06817790738F44115510572
:1004900019F08417950708F4AC01FE018A819B814D
:1004A0009C01E9012097E9F641155105A9F1CA011E
:1004B000861B970B049708F4BA01E0E0F0E02AC02D
:1004C0008D919C91119784179507F9F4641775071E
:1004D00081F412968D919C911397309719F0938324
:1004E000828304C09093161B8093151BFD013296E6
:1004F0004CC0CA01861B970BFD01E80FF91F6193E1
:10050000719302978D939C9340C0FD0182819381EA
:100510009C01D9011097A1F68091131B9091141B97
:10052000892B41F480913616909137169093141BC5
:100530008093131B4091381650913916411551057F
:1005400041F44DB75EB78091341690913516481B33
:10055000590B2091131B3091141BCA01821B930B62
:100560008617970780F0AB014E5F5F4F84179507A2
:1005700050F0420F531F5093141B4093131BF9016B
:100580006193719302C0E0E0F0E0CF01DF91CF9181
:100590000895CF93DF93009709F450C0EC012297A0
:1005A0001B821A82A091151BB091161B109709F19E
:1005B00040E050E0AC17BD0708F1BB83AA83FE0101
:1005C00021913191E20FF31FAE17BF0779F48D919E
:1005D0009C911197280F391F2E5F3F4F3983288335
:1005E00012968D919C9113979B838A834115510597
:1005F00071F4D093161BC093151B20C012968D91D9
:100600009C911397AD01009711F0DC01D3CFFA0153
:10061000D383C28321913191E20FF31FCE17DF07FD
:1006200069F488819981280F391F2E5F3F4FFA01A5
:10063000318320838A819B8193838283DF91CF9151
:100640000895FC0188279927E89421912032E9F345
:10065000293010F02E30C8F32B3241F02D3239F40E
:10066000689404C00E946103820F911D2191205360
:100670002A30C0F31EF4909581959F4F0895FB0199
:10068000DC0102C001900D9241505040D8F708950E
:100690006817790768F4FB01DC01E40FF51FA40F6C
:1006A000B51F02C002900E9241505040D8F70895F5
:1006B0000C943F03DC0101C06D9341505040E0F7C2
:1006C00008957AE0979F902D879F802D910D11249A
:1006D0000895CB01089582EF96E16BE370E048E561
:1006E00052E00E940F3A87EF96E16AE370E048E536
:1006F00052E00E940F3A8CEF96E169E370E048E522
:1007000052E00E940F3A08958091011790910217CC
:100710000097E9F08130910539F18330910509F4B2
:1007200071C0029709F452C08091F0169091F116B1
:100730000E94DA338091EE169091EF160E949F1F6F
:1007400061E070E080E090E00E94BF45089582EF94
:1007500096E10E941C3A882341F5809101179091FF
:10076000021781309105C9F682EF96E10E943D3A69
:100770008823B1F082E090E09093021780930117F4
:1007800082E89AE16BE072E00E94E2430E948A45AF
:1007900060930317709304178093051790930617BF
:1007A0008091011790910217B8CF81E090E090936B
:1007B00002178093011782E89AE160E072E00E94DC
:1007C000E2438091011790910217CBCF0E948A4596
:1007D0002091031730910417409105175091061787
:1007E000621B730B840B950B20913A1630913B16CC
:1007F00040913C1650913D16261737074807590778
:1008000008F092CF82E89AE167E172E00E94E24349
:1008100083E090E090930217809301178091EE1689
:100820009091EF160E9497178BCF8F929F92AF9265
:10083000BF92CF92DF92EF92FF920F931F9383E0CC
:1008400061E00E946A4782E061E00E946A4783E1BA
:1008500061E00E946A4782E161E00E946A4781E1AB
:1008600061E00E946A4780E161E00E946A4737EFD9
:10087000E32E36E1F32EC7010E94163A2CEF822EAA
:1008800026E1922EC4010E94163A88EE97E10E945A
:100890002A3B02E81AE1C80140E855E260E070E056
:1008A0000E94AC3FC80161E272E00E94E243C801CD
:1008B0006EE272E00E94E24364EF71E080E090E05B
:1008C0000E94BF4510920217109201171092031751
:1008D00010920417109205171092061790E4A92E93
:1008E00092E0B92EC801B5010E94E24381E4C82E0E
:1008F00082E0D82EC801B6010E94E243109203178D
:10090000109204171092051710920617C8016AE595
:1009100072E00E94E243C80164E672E00E94C343B1
:1009200082EF96E10E941C3A682FC80170E04AE00D
:1009300050E00E94A443C8016FE672E00E94C343E6
:10094000C7010E941C3A682F80930717109208175E
:10095000C80170E04AE050E00E94A443C8016CE77F
:1009600072E00E94C343C4010E941C3A682FC80170
:1009700070E04AE050E00E94A443C801B5010E9423
:10098000E243C801B6010E94E2438FE591E00E9474
:100990002D42F82EE92E0E947320F092EE16E0927E
:1009A000EF16C80169E872E00E94E24389E490E032
:1009B0000E942D42F82EE92E6091EE167091EF16EE
:1009C0000E948C34F092F016E092F116C80161E9B1
:1009D00072E00E94E243C801B5010E94E243C801EF
:1009E000B6010E94E2431F910F91FF90EF90DF90BC
:1009F000CF90BF90AF909F908F900895CF92DF924D
:100A0000FF920F931F93CF93DF93582F162F042F2E
:100A1000690188EE97E1652F0E94423A88EE97E1DE
:100A2000612F0E94C83AC02FD0E0CC0FDD1F209765
:100A3000D1F0FF2400E010E0000F111F0C0D1D1D70
:100A4000F801618188EE97E10E94C83A88EE97E14B
:100A5000F80160810E94C83AF2E0FF0E0F2D10E00D
:100A60000C171D074CF388EE97E10E94153B90E0B0
:100A7000882309F491E0892FDF91CF911F910F9185
:100A8000FF90DF90CF900895DF93CF930F920F9256
:100A9000CDB7DEB75A83498341E09E012F5F3F4FB8
:100AA0000E94FE040F900F90CF91DF910895EF9276
:100AB000FF920F931F93CF93DF93582F162FF42E8F
:100AC000022FE32E88EE97E1652F0E94423A88EECE
:100AD00097E1612F0E94C83AFF2069F0802F9E2D78
:100AE0009C01E90188EE97E169910E94C83A9E0154
:100AF000201B2F15B8F388EE97E10E94153B90E07C
:100B0000882309F491E0892FDF91CF911F910F91F4
:100B1000FF90EF900895DF93CF930F92CDB7DEB79C
:100B2000498341E09E012F5F3F4F0E9457050F9080
:100B3000CF91DF9108952F923F924F925F926F92E3
:100B40007F928F929F92AF92BF92CF92DF92EF925D
:100B5000FF920F931F93DF93CF9300D000D0CDB7B8
:100B6000DEB7382E262ED42E3C832B8378010E94AC
:100B70008A452B013C01DD2009F4A0C02D2D30E079
:100B80003A8329830D2D30E23D1508F47BC0CC2437
:100B900010E04701AA24BB2488EE97E1632D0E9450
:100BA000423A88EE97E1622D0E94C83A88EE97E1BA
:100BB0000E94153B88EE97E1632D0E94423A4981DD
:100BC0005A81411B51094132510514F040E250E075
:100BD00088EE97E1632D0E94263B8C2D992787FD97
:100BE0009095EB81FC818E0F9F1F9E838D8388EEF5
:100BF00097E10E944C3A892B99F0E114F10491F5A8
:100C000088EE97E10E94553AED81FE818193FE8343
:100C1000ED83C39488EE97E10E944C3A892B69F7E3
:100C2000100F1D1508F4B8CF1C2DE114F10461F567
:100C3000812F26960FB6F894DEBF0FBECDBFCF91A1
:100C4000DF911F910F91FF90EF90DF90CF90BF90B9
:100C5000AF909F908F907F906F905F904F903F905C
:100C60002F9008950E948A4564197509860997098D
:100C7000681579058A059B0518F2100F1D1508F4F3
:100C80008BCFD2CF00E283CF0E948A4564197509C9
:100C900086099709970140E050E0621773078407BF
:100CA000950730F22C2D332727FD30958D2D90E0C0
:100CB000281739070CF0BCCF1FEFBACFCC2410E0B7
:100CC000B4CF0F931F93FA01890141E09F010E9465
:100CD0009B051F910F910895DF92EF92FF920F9362
:100CE0001F93DF93CF930F92CDB7DEB7E82ED62EAA
:100CF000F42E122F20913E1630913F16AE014F5F19
:100D00005F4F0E946106882341F1212F30E04F2D73
:100D100050E04F5F5F4F421B530B81E090E002C0F9
:100D2000880F991F1A95E2F70197042E02C0880FC9
:100D3000991F0A94E2F7202F30E002C0220F331FE0
:100D40004A95E2F7482F4095598145238223482B45
:100D500049838E2D6D2D0E948B050F90CF91DF91D1
:100D60001F910F91FF90EF90DF900895EF92FF9207
:100D70000F931F93DF93CF930F92CDB7DEB7F82E6B
:100D8000E62E042F122F20913E1630913F16AE0111
:100D90004F5F5F4F0E9461061123C1F481E090E034
:100DA00002C0880F991F0A95E2F7482F4095898164
:100DB000482349838F2D6E2D0E948B050F90CF9174
:100DC000DF911F910F91FF90EF90089581E090E0E7
:100DD00002C0880F991F0A95E2F74981482BE9CF95
:100DE00021E0FC01218B0895FC01118A08959C01EA
:100DF0002A5F3F4FC90108959C01285D3F4FC901FB
:100E00000895FC01EC55FF4F10820895FC01EC554C
:100E1000FF4F81E0808308959C0123593F4FC90112
:100E20000895FC0117A2089521E0FC0127A308956D
:100E3000FC018081882361F06115710509F587E067
:100E400094E090878783838594859287818708952E
:100E50006115710549F48FE797E090878783838553
:100E6000948592878187089561307105C1F48CED76
:100E700095E09087878383859485928781870895FD
:100E800061307105A1F36230710549F785E097E0A3
:100E900090878783838594859287818708956230C0
:100EA0007105E9F688E794E09087878383859485C8
:100EB000928781870895FC01EC5BFF4F81E080837E
:100EC0000895FC01EC5BFF4F10820895FC01E1598D
:100ED000FF4F81E080830895FC01E159FF4F1082AC
:100EE0000895FC0180E090E0A0E0B0E0878B908F57
:100EF000A18FB28F838F948FA58FB68F878F90A38A
:100F0000A1A3B2A3089508959C01215D3F4FC9019B
:100F100008959C0127543F4FC9010895FC01EE5BE1
:100F2000FF4F808191810197889710F080E00895AC
:100F300082E89AE16DEC72E00E94E24381E008955C
:100F4000FC0186AD97AD01974E9710F080E00895B3
:100F500082E89AE168ED72E00E94E24381E0089540
:100F6000FC01E05CFF4F8081918101974E9710F06A
:100F700080E0089582E89AE165EE72E00E94E24323
:100F800081E008950F931F938C010E94A007C80170
:100F90000E94B007C8010E948E071F910F9108950B
:100FA0002F923F924F925F926F927F928F929F9279
:100FB000AF92BF92CF92DF92EF92FF920F931F9367
:100FC000DF93CF93CDB7DEB764970FB6F894DEBF4B
:100FD0000FBECDBF9A8B898B89899A890E947935FA
:100FE0008823C9F464960FB6F894DEBF0FBECDBF58
:100FF000CF91DF911F910F91FF90EF90DF90CF90F5
:10100000BF90AF909F908F907F906F905F904F9028
:101010003F902F90089589899A890E94983529894F
:101020003A892D5A3F4F38872F8389899A898B5A5D
:101030009F4F9A878987A989BA89A95ABF4FBC87C8
:10104000AB8759E5452E512CE989FA894E0E5F1E72
:101050004BE5242E312C2E0E3F1EE35AFF4FFE8708
:10106000ED8789899A890896B90149855A859D0134
:10107000820171016F010E94882029893A892B59C8
:101080003F4F3A8B298BD2016D917C91F9012191CF
:101090003191FA8BE98B621B730B882777FD809562
:1010A000982F0E9466493B014C01D1016D917C91C2
:1010B000E989FA8921913191FA8BE98B621B730BD3
:1010C000882777FD8095982F0E9466495B016C0107
:1010D000AD85BE856D917C91E989FA892081318148
:1010E000E956F040FA8BE98B621B730B882777FD7A
:1010F0008095982F0E9466497B018C01C401B30141
:1011000020E030E040E050E00E94164A18160CF053
:10111000D1C2C401B30120E030E040EF51E40E94AD
:10112000C74888230CF4D1C2C601B50120E030E0E5
:1011300040E050E00E94164A18160CF0A5C2C60105
:10114000B50120E030E040EF51E40E94C748882319
:101150000CF4A5C2C801B70120E030E040E050E047
:101160000E94164A18160CF079C2C801B70120E097
:1011700030E040EF51E40E94C74888230CF479C264
:1011800029893A8925593F4F388B2F87C401B301EC
:10119000D9012D913D914D915C910E941A4A20E018
:1011A00030E543EC57E40E94CB489B01AC01E98950
:1011B000FA896789708D818D928D0E946348A98913
:1011C000BA8957966D937D938D939C935A97C601D8
:1011D000B501EF85F88920813181428153810E94D8
:1011E0001A4A20E030E543EC57E40E94CB489B01CB
:1011F000AC01A989BA895B966D917D918D919C9185
:101200005E970E946348E989FA89638F748F858F9E
:10121000968FC801B701AF85B8892D913D914D9149
:101220005C910E941A4A20E030E543EC57E40E94AA
:10123000CB489B01AC01E989FA89678D70A181A136
:1012400092A10E946348A989BA895F966D937D93A4
:101250008D939C939297A159BF4F8C91AF56B040FC
:10126000BA8BA98B882309F06FC2E989FA89E15A00
:10127000FF4F8CE695EF819391938EE994EB8193E8
:10128000919383EC9BEC91838083E356F040FA8B3F
:10129000E98BAF81B8856D917C916C56754F88272D
:1012A00077FD8095982F0E9466497B018C01E98526
:1012B000FA85608171816E59744B882777FD80951E
:1012C000982F0E9466495B016C01AB85BC856D91CE
:1012D0007C91635C7B4C882777FD8095982F0E94DA
:1012E00066493B014C01C801B70120E030E040E015
:1012F00050E00E94164A18160CF096C1C801B701BA
:1013000020E030E048EC52E40E94C74888230CF407
:1013100096C1C801B70120E030E048EC52E40E94D9
:10132000CB486B837C838D839E83C601B50120E00F
:1013300030E040E050E00E94164A18160CF0EAC176
:10134000C601B50120E030E048EC52E40E94C748F5
:1013500088230CF4EAC1C601B50120E030E048EC76
:1013600052E40E94CB481B012C01C401B30120E0D0
:1013700030E040E050E00E94164A18160CF0B0C170
:10138000C401B30120E030E048EC52E40E94C748B9
:1013900088230CF4B0C1C401B30120E030E048EC74
:1013A00052E40E94CB486B8B7C8B782F692F2B816A
:1013B0003C814D815E81C901DA01E989FA8983AFF7
:1013C00094AFA5AFB6AFFF96C101D20181939193BF
:1013D000A193B1932B893C89472F562FC901DA017C
:1013E00080839183A283B383E354F040FA8BE98B2B
:1013F000E95BFF4FFA83E983C801B701AF85B8897C
:101400002D913D914D915C910E941A4A20E030E56A
:1014100043EC57E40E94CB48E981FA812081318175
:10142000428153810E946348A981BA816D937D9363
:101430008D939C9313972BE4222E312CE989FA8902
:101440002E0E3F1EC601B501AF85B8892D913D9185
:101450004D915C910E941A4A20E030E543EC57E43C
:101460000E94CB48F10120813181428153810E9449
:101470006348D1016D937D938D939C9313979FE463
:10148000492E512CE989FA894E0E5F1EC401B30121
:10149000AF85B8892D913D914D915C910E941A4A7A
:1014A00020E030E543EC57E40E94CB48F201208174
:1014B0003181428153810E946348D2016D937D93B3
:1014C0008D939C931397E989FA89E059FF4F8081A6
:1014D000882309F487CD82E89AE162EF72E00E94E6
:1014E000C343AF81B8856D917C9182E89AE14AE06F
:1014F00050E00E94914382E89AE166EF72E00E9418
:10150000C343E985FA856081718182E89AE14AE006
:1015100050E00E94914382E89AE166EF72E00E94F7
:10152000C343AB85BC856D917C9182E89AE14AE02A
:1015300050E00E94914382E89AE166EF72E00E94D7
:10154000C34382E89AE165E073E00E94C34382E806
:101550009AE1B801A70122E030E00E942C4582E820
:101560009AE166EF72E00E94C34382E89AE1B60115
:10157000A50122E030E00E942C4582E89AE166EF66
:1015800072E00E94C34382E89AE1B401A30122E021
:1015900030E00E942C4582E89AE166EF72E00E94FA
:1015A000C34382E89AE16AE073E00E94C343E981A1
:1015B000FA81408151816281738182E89AE122E05F
:1015C00030E00E942C4582E89AE166EF72E00E94CA
:1015D000C343D1014D915D916D917C9182E89AE177
:1015E00022E030E00E942C4582E89AE166EF72E04A
:1015F0000E94C343F201408151816281738182E87C
:101600009AE122E030E00E942C4582E89AE166EF00
:1016100072E00E94C34382E89AE10E94644282E839
:101620009AE10E946442DECCC801B70120E030E0BC
:1016300048EC52EC0E94164A18160CF06ACE0F2E97
:10164000F0E0EF2EF0E0FF2EF0E00F2FF0E01F2F84
:10165000F02D1B821C821D821E8267CEC801B7013D
:1016600020E030E040EF51EC0E94164A18160CF0D2
:1016700087CD0F2EF0E0EF2EF0E0FF2EF0E00F2FE1
:10168000F0E01F2FF02D7CCDC601B50120E030E049
:1016900040EF51EC0E94164A18160CF05BCD0F2E4D
:1016A000F0E0AF2EF0E0BF2EF0E0CF2EF0E0DF2E26
:1016B000F02D50CDC401B30120E030E040EF51ECFB
:1016C0000E94164A18160CF02FCD0F2EF0E06F2E48
:1016D000F0E07F2EF0E08F2EF0E09F2EF02D24CD55
:1016E000C401B30120E030E048EC52EC0E94164AFD
:1016F00018160CF050CE0F2EF0E06F2EF0E07F2E7B
:10170000F0E08F2EF0E09F2EF02D1B8A1C8A70E0F7
:1017100060E04DCEC601B50120E030E048EC52EC6F
:101720000E94164A18160CF016CE0F2EF0E0AF2EBF
:10173000F0E0BF2EF0E0CF2EF0E0DF2EF02D2224DF
:1017400033244424552411CE82E89AE162EF72E0FA
:101750000E94C343F2016081718182E89AE14AE00C
:1017600050E00E94914382E89AE166EF72E00E94A5
:10177000C343D1016D917C9182E89AE14AE050E047
:101780000E94914382E89AE166EF72E00E94C343AF
:10179000ED85FE856081718182E89AE14AE050E042
:1017A0000E94914382E89AE166EF72E00E94C3438F
:1017B00082E89AE168EF72E00E94C34382E89AE10E
:1017C000B401A30122E030E00E942C4582E89AE1B6
:1017D00066EF72E00E94C34382E89AE1B601A50178
:1017E00022E030E00E942C4582E89AE166EF72E048
:1017F0000E94C34382E89AE1B801A70122E030E0E9
:101800000E942C4582E89AE166EF72E00E94C34391
:1018100082E89AE16CEF72E00E94C343A989BA8919
:1018200057964D915D916D917C915A9782E89AE11E
:1018300022E030E00E942C4582E89AE166EF72E0F7
:101840000E94C343E989FA89438D548D658D768D55
:1018500082E89AE122E030E00E942C4582E89AE199
:1018600066EF72E00E94C343A989BA895F964D91E1
:101870005D916D917C91929782E89AE122E030E04F
:101880000E942C4582E89AE166EF72E00E94C34311
:1018900082E89AE10E94644282E89AE10E946442EE
:1018A000E4CC2F923F924F925F926F927F928F92F1
:1018B0009F92AF92BF92CF92DF92EF92FF920F93DF
:1018C0001F93DF93CF93CDB7DEB768970FB6F89429
:1018D000DEBF0FBECDBF8C0182E89AE164E173E008
:1018E0000E94E243C8018B599F4F9A8B898B83E2F8
:1018F0009FEFA989BA898D939C93F801E959FF4F0D
:10190000FC8BEB8B82EC90E091838083C80187593C
:101910009F4F9E8B8D8B8FE790E0AD89BE898D9315
:101920009C93F8013896FC87EB87C8018D5A9F4F2E
:101930009A878987D801AB5ABF4FB887AF83F80120
:10194000E95AFF4FFE83ED83C801875A9F4F9E8758
:101950008D87D801A55ABF4FB88BAF876DE5262E6E
:10196000312C200E311E0F2EF0E08F2EF0E09F2E36
:10197000F0E0AF2EF0E0BF2EF02D2401350189827A
:101980009A82AB82BC82188E1F8A8B859C85698562
:101990007A854F8158852D813E810D851E85EF8486
:1019A000F88861010E948820ED85FE856081718143
:1019B000882777FD8095982F0E94664920E030E0C7
:1019C00046E953E40E94CB489B01AC01C501B40138
:1019D0000E9463484B015C01AF85B8896D917C9191
:1019E000882777FD8095982F0E94664920E030E097
:1019F00046E953E40E94CB489B01AC01C301B2010C
:101A00000E9463482B013C01F101608171818827AC
:101A100077FD8095982F0E94664920E030E046E9E6
:101A200053E40E94CB489B01AC0169817A818B8190
:101A30009C810E94634869837A838B839C8365E0E1
:101A400070E080E090E00E94BF458F89988D0196FC
:101A5000988F8F8B8C52914009F097CFC501B401BC
:101A60000E943349E989FA8971836083C301B20115
:101A70000E943349AB89BC896D937C9369817A81DB
:101A80008B819C810E943349ED89FE89718360833B
:101A900082E89AE163E373E00E94E24368960FB63E
:101AA000F894DEBF0FBECDBFCF91DF911F910F9194
:101AB000FF90EF90DF90CF90BF90AF909F908F906E
:101AC0007F906F905F904F903F902F9008958F92EE
:101AD0009F92AF92BF92CF92DF92EF92FF920F93BD
:101AE0001F935C0162E370E00E94A53578E0872EC9
:101AF000912C8A0C9B1CC4010E94842080E090E001
:101B0000A0E0B0E0F501878B908FA18FB28F838F1B
:101B1000948FA58FB68F878F90A3A1A3B2A383A321
:101B200094A3A5A3B6A387A390A7A1A7B2A783A7B1
:101B300094A7A5A7B6A787A790ABA1ABB2AB83AB81
:101B400094ABA5ABB6AB87AB90AFA1AFB2AF83AF51
:101B500094AFA5AFB6AF2FE330E0A20EB31EF501F0
:101B600081939193A193B19381939193A193B19315
:101B700081939193A193B19381939193A193B19305
:101B800081939193A193B193119211921192119219
:101B90001192119211921192119211925F01118280
:101BA00010822EE030E0A20EB31E80E090E0A8E4A8
:101BB000B2E4F50180839183A283B38325E93FEFEB
:101BC000A20EB31EC4010E944A2182E89AE160E598
:101BD00073E00E94E24364E670E080E090E00E94DF
:101BE000BF45B501615A7F4FA5014F595F4F950120
:101BF0002D593F4F85010B591F4FF501E959FF4FF3
:101C000089E690E0A80EB91EC4017F0165010E941B
:101C10008820C40160E070E00E940D21C40160E0F2
:101C200070E00E940621C40160E070E00E94FF2085
:101C3000C40160E070E00E942221C40160E070E015
:101C40000E941B21C40160E070E00E94142164E640
:101C500070E080E090E00E94BF45E6E0F0E0AE0E6C
:101C6000BF1EF50111925F01108220E93FEFA20E25
:101C7000B31EC5010E94510C1F910F91FF90EF9070
:101C8000DF90CF90BF90AF909F908F900895CF93AB
:101C9000DF93EC010E947935882319F4DF91CF910D
:101CA0000895CE010E949835CE014A960E948E2258
:101CB0009FAF8EAFCE0108960E948E22C05CDF4F90
:101CC00099838883C054D040CE018C960E948E2286
:101CD000CE5BDF4F899399938881C454D040882389
:101CE000E9F2CE010E94C207DF91CF9108950F93D0
:101CF0001F938C0161E270E00E94A535C80108962F
:101D00006DE04CE224E630E00E945F21C8014A9673
:101D10006FE240E324E630E00E945F21C8018C9628
:101D20006DE24EE224E630E00E945F2184E690E01E
:101D3000F80197AF86AF005C1F4FF8018193919334
:101D40008193919310821F910F910895EF92FF92CA
:101D50000F931F93CF93DF93EC0188A1882341F465
:101D600080E0DF91CF911F910F91FF90EF90089548
:101D7000EBA0FCA00DA11EA10E948A45E616F70665
:101D80000807190768F718A281E0DF91CF911F912A
:101D90000F91FF90EF900895CF92DF92EF92FF9214
:101DA0000F931F936C017B010E948A450027F7FC6B
:101DB0000095102FE60EF71E081F191FF601E3A26B
:101DC000F4A205A316A381E080A382E89AE16FE95B
:101DD00073E00E94C3431F910F91FF90EF90DF903B
:101DE000CF900895EF92FF920F931F93CF93DF93BD
:101DF000FC01EC01C156DF4F8881882341F480E06B
:101E0000DF91CF911F910F91FF90EF900895E056D1
:101E1000FF4FE080F180028113810E948A45E6161F
:101E2000F7060807190758F7188281E0DF91CF916C
:101E30001F910F91FF90EF900895CF92DF92EF9254
:101E4000FF920F931F936C017B010E948A4520EA49
:101E500030E0C20ED31E0027F7FC0095102FE60ECF
:101E6000F71E081F191FF601E082F1820283138317
:101E700081E0829382E89AE16FE973E00E94C343B4
:101E80001F910F91FF90EF90DF90CF900895EF9208
:101E9000FF920F931F93CF93DF93FC01EC01CF5779
:101EA000DF4F8881882341F480E0DF91CF911F913B
:101EB0000F91FF90EF900895EE57FF4FE080F18073
:101EC000028113810E948A45E616F7060807190762
:101ED00058F7188281E0DF91CF911F910F91FF9009
:101EE000EF900895CF92DF92EF92FF920F931F939E
:101EF0006C017B010E948A4522E830E0C20ED31EAD
:101F00000027F7FC0095102FE60EF71E081F191F7B
:101F1000F601E082F1820283138381E0829382E8FA
:101F20009AE16FE973E00E94C3431F910F91FF9004
:101F3000EF90DF90CF900895CF93DF93EC0182E88C
:101F40009AE16DEA73E00E94C3436F81788582E86D
:101F50009AE14AE050E00E94914382E89AE167EBFF
:101F600073E00E94C34369857A8582E89AE14AE07A
:101F700050E00E94A443EF81F8858B859C859F01EA
:101F8000281B390BC901B90137FD19C00E94C04A8D
:101F9000CB01880F991F860F971F29853A85820FDD
:101FA000931F9A8789878E1B9F0B05960B9720F4AA
:101FB000FA87E987FC87EB87DF91CF910895662741
:101FC0007727621B730BE2CFEF92FF920F931F9361
:101FD0007C01FC01878590890196908B878702E8B8
:101FE0001AE1C80163EC73E00E94C343F7016785FF
:101FF0007089C8014AE050E00E94A443C8016BEC1C
:1020000073E00E94C343F70167857089C8014AE005
:1020100050E00E94A4431F910F91FF90EF9008950C
:10202000FC018081882339F4CF01019663EE76E0CC
:102030000E94D5350895CF0101966AEE77E00E949F
:10204000D5350895FC016185728504960E94D535C9
:102050000895FC018081882339F4CF01019661E065
:1020600078E00E94D5350895CF0101966AE976E0BF
:102070000E94D5350895CF93DF93EC0188818823A2
:1020800069F4CE0104966FE777E00E94D5358FE7BB
:1020900097E09C878B87DF91CF910895CE010496BE
:1020A00067E074E00E94D53587E094E09C878B87D9
:1020B000DF91CF9108956BEF74E00E94D5350895BC
:1020C00063EC75E00E94D535089564E676E00E94E1
:1020D000D535089568E775E00E94D535089568EE16
:1020E00073E00E94D53508950F931F93CF93DF932C
:1020F000EC01E9A1FAA1E131F105E8F4EE58FF4F56
:10210000EE0FFF1F0590F491E02D1994439660E0C7
:1021100070E00E941807CE0103960E94601082E8CA
:102120009AE16DEC76E00E94E24382E89AE164EF86
:1021300076E00E94E243DF91CF911F910F910895C5
:102140008C010A5F1F4FC8010E943B10C8010E940A
:1021500029108E010D5E1F4FC8010E943B10C8015F
:102160000E942910CE010E946F10CE0103960E949A
:10217000601082E89AE166ED73E00E94E243DBCFF3
:1021800068EC70E00E94CC0ECE010E946A10CE0175
:1021900003960E94651082E89AE164EF73E00E9462
:1021A000E243C9CF439661E070E00E941807CE0178
:1021B00003960E94601082E89AE164E174E00E9454
:1021C000E243B9CF60ED77E00E94CC0ECE010396DA
:1021D0000E945B1082E89AE162E574E00E94E243AB
:1021E000AACF439662E070E00E941807CE010396E2
:1021F0000E945B1082E89AE164E774E00E94E24387
:102200009ACF64E670E00E94CC0ECE010E946F105F
:1022100082E89AE16AE974E00E94E2438CCF439637
:102220000E94101082E89AE16BEB74E00E94E24396
:1022300082E89AE162EE74E00E94E2437CCF43962A
:1022400061E070E00E94180782E89AE167EF74E0AD
:102250000E94E24370CF43960E94291082E89AE1DF
:1022600066E275E00E94E24382E89AE16EE475E07E
:102270000E94E24360CF439662E070E00E9418073C
:10228000CE010E946A10CE0103960E94651082E87A
:102290009AE166E675E00E94E2434DCF069661E062
:1022A00070E00E941807CE0103960E94601082E839
:1022B0009AE168EA75E00E94E2433DCF069662E04B
:1022C00070E00E941807CE0103960E945B1082E81E
:1022D0009AE163EE75E00E94E2432DCF64E670E080
:1022E0000E94CC0ECE010E946F1082E89AE16AE053
:1022F00076E00E94E2431FCF06960E94101082E80B
:102300009AE16CE276E00E94E24382E89AE164E5B9
:1023100076E00E94E2430FCF069661E070E00E94F3
:10232000180782E89AE169E676E00E94E24303CF6B
:102330008C010A5F1F4FC8010E942910C80160E08C
:1023400070E00E941807CE01439661E070E00E94A1
:10235000180782E89AE160E976E00E94E243EBCE5A
:102360000F931F93CF93DF938C01EB0182E89AE1E7
:102370006CEC72E00E94E24382E89AE16CE077E064
:102380000E94C34382E89AE1BE014AE050E00E9405
:10239000A443CE010197049708F45BC0209709F489
:1023A00043C082E89AE163E777E00E94C343D80123
:1023B00091966D917C91929782E89AE14AE050E083
:1023C0000E94A443D8019196ED91FC919297E1313E
:1023D000F10528F5ED57FF4FEE0FFF1F0590F49123
:1023E000E02D1994CD2BD9F48DE090E0F80192A363
:1023F00081A382E89AE163E977E00E94C343D801B0
:1024000091966D917C91929782E89AE14AE050E032
:102410000E94A443F80110A2C8010E947410DF9129
:10242000CF911F910F91089582E89AE16AE277E0D7
:102430000E94E24382E89AE161E577E00E94C343AB
:1024400082E89AE160E070E04AE050E00E94A44334
:10245000A8CF82E89AE16AE277E00E94E24382E84C
:102460009AE16CE277E00E94C34382E89AE1BE0100
:102470004AE050E00E94A44391CF259781F6F801ED
:1024800012A211A2B6CFC130D10549F6F801D2A3EC
:10249000C1A3AFCFCD2B19F682E090E0D801929680
:1024A0009C938E939197A5CF259709F0B8CF83E0A1
:1024B00090E0F80192A381A39CCFCD2B09F0AFCF80
:1024C00084E090E0D80192969C938E93919791CF5F
:1024D000C530D10509F0A3CFD9CFCD2B09F09FCFBF
:1024E00086E090E0D80192969C938E93919781CF4D
:1024F000229709F094CF87E090E0F80192A381A39E
:1025000078CF259709F08BCF88E090E0D80192969C
:102510009C938E9391976DCF239709F080CF89E09C
:1025200090E0F80192A381A364CF259709F077CFBB
:102530008AE090E0D80192969C938E93919759CF20
:10254000259709F06CCF8BE090E0F80192A381A36E
:1025500050CF259709F063CF8CE090E0D801929698
:102560009C938E93919745CF249709F058CF8EE096
:1025700090E0D80192969C938E9391973ACF2597AD
:1025800009F04DCF8FE090E0F80192A381A331CF05
:10259000259709F044CF80E190E0D80192969C9372
:1025A0008E93919726CFEF92FF920F931F93CF9325
:1025B000DF937C01EC01A796CE010E947935882338
:1025C00039F4DF91CF911F910F91FF90EF90089513
:1025D000CE010E949835C7010E94A60E882309F0FB
:1025E00040C0F701278530898585968528173907EA
:1025F00031F187010A5F1F4FC8010E949C0FC8017B
:102600000E942210F701248D358D828D938D28171D
:102610003907E9F4F70127853089858596852817DC
:10262000390779F6248D358D828D938D28173907DA
:1026300041F6C70165E070E00E94B011C2CF248D61
:10264000358D828D938D2817390709F4BACF87010C
:102650000D5E1F4FC8010E949C0FC8010E942210EE
:10266000D9CFC70160E070E00E94B011BACF64E03A
:1026700070E00E94B011089563E070E00E94B01114
:10268000089562E070E00E94B011089561E070E08A
:102690000E94B01108956CED75E00E94D535089543
:1026A00060ED77E00E94D535089568EE73E00E94F2
:1026B000D535089567E377E00E94D535089560E445
:1026C00076E00E94D535089565EE73E00E94D53519
:1026D0000895039660E476E00E94D5350895039648
:1026E0006CED75E00E94D5350895CF93DF93EC0132
:1026F000C158DF4F88819981CF57D04082309105F2
:1027000009F478C083309105B4F08430910509F460
:1027100063C0843091050CF043C082E89AE16DEF0C
:1027200077E00E94E243CE0160E177E20E94720FFF
:10273000DF91CF910895009721F10197F9F482E894
:102740009AE164EC77E00E94E24382E89AE16DED61
:1027500077E00E94E24380E090E0A0E0B0E08D8F5F
:102760009E8FAF8FB8A389A39AA3ABA3BCA38DA35D
:102770009EA3AFA3B8A7CE010E945A13DF91CF91B9
:10278000089582E89AE16FEA77E00E94E243CE0181
:102790000E946413CE010E946F13DF91CF910895C0
:1027A000059761F782E89AE16FE278E00E94E243E0
:1027B000CE0160ED77E00E94720F82E89AE16CE44E
:1027C00078E00E94E243CE010E945F13CE010E9496
:1027D0006F13DF91CF91089582E89AE167E178E085
:1027E0000E94E243CE0168EB7BE00E94720FDF9112
:1027F000CF91089582E89AE169EE77E00E94E24382
:10280000CE0168E873E10E94720FCE010E94691345
:10281000DF91CF910895CF92DF92EF92FF920F93C5
:102820001F93CF93DF936C01EB0182E89AE16CEC8C
:1028300072E00E94E24382E89AE169E578E00E9452
:10284000C34382E89AE1BE014AE050E00E94A443FB
:10285000C330D10509F48BC0CE010197029708F46B
:102860009BC02097A1F482E89AE16AE277E00E9497
:10287000E24382E89AE16DEB78E00E94C34382E88C
:102880009AE160E070E04AE050E00E94A44382E8F0
:102890009AE166EE78E00E94C343860101581F4F1B
:1028A000F8016081718182E89AE14AE050E00E947B
:1028B000A443F801E080F180F2E0EF16F10409F49E
:1028C0007FC083E0E816F104F4F0E4E0EE16F104D2
:1028D00009F499C0F4E0EF16F104B4F5C330D10562
:1028E00009F4C3C0CD2BB9F484E090E0F8019183E2
:1028F000808382E89AE168E579E00E94E243F8018A
:102900008081918191C0E114F10471F091E0E916A8
:10291000F10409F467C0DF91CF911F910F91FF90EF
:10292000EF90DF90CF900895C130D105A1F7F80165
:10293000D183C08382E89AE16FEF78E00E94E2439E
:10294000F8018081918170C085E0E816F10419F7E3
:10295000CD2B09F7F8011182108282E89AE161E932
:1029600079E00E94E243F801808191815DC082E8B4
:102970009AE16AE277E00E94E24382E89AE160E746
:1029800078E00E94C34382E89AE163E070E04AE0A5
:1029900050E00E94A4437BCF82E89AE16AE277E0AC
:1029A0000E94E24382E89AE163EA78E00E94C3432E
:1029B00082E89AE1BE014AE050E00E94A44351CF70
:1029C000CD2B09F0A8CF83E090E0F80191838083BC
:1029D00082E89AE160E279E00E94E243F8018081B6
:1029E000918122C0C230D10509F095CFF801D18381
:1029F000C08382E89AE162E179E00E94E243F80153
:102A00008081918111C0CD2B09F085CF85E090E0C8
:102A1000F8019183808382E89AE167E779E00E9478
:102A2000E243F80180819181E816F90609F473CF39
:102A300082E89AE169EA79E00E94C343F801608183
:102A4000718182E89AE14AE050E00E94A44381E863
:102A500090E0C80ED91EF60110828FE79FEFC80ED6
:102A6000D91EC6010E94751356CF84E090E0F8018C
:102A70009183808382E89AE164E379E00E94E243F3
:102A8000F80180819181D0CF62E070E00E940B1448
:102A9000089561E070E00E940B140895CF92DF92D8
:102AA000EF92FF921F93CF93DF93EC01162F7C01DF
:102AB0000894E11CF11CC7010E94BB3584E0C82EBC
:102AC000D12CCC0EDD1EC6010E94BB35188311230C
:102AD00001F5C70169E070E00E94CF36C60167E0EA
:102AE00070E00E94CF368FE797E09C878B879A87AC
:102AF000898798878F83CE010E943B10CE010E9468
:102B00002910DF91CF911F91FF90EF90DF90CF9030
:102B10000895C7016AE070E00E94CF36C60168E000
:102B200070E00E94CF3687E094E09C878B879A877D
:102B3000898798878F83DFCF0F931F93182F092FD3
:102B40000E94BB35812F902F6CE070E00E94CF3641
:102B5000812F902F0E9460101F910F9108950F9365
:102B60001F93182F092F0E94BB35812F902F6BE0E8
:102B700070E00E94CF36812F902F0E946F101F911E
:102B80000F9108950F931F938C010E94AF15C801F8
:102B900003960E949C15C801069661E00E944E159E
:102BA000C801439660E00E944E15F80110A212A2DF
:102BB00011A2C80187966EE170E00E94A5351F91B1
:102BC0000F910895EF92FF920F931F938C010E9433
:102BD000BB3523E0E22EF12CE00EF11EC7010E946E
:102BE000BB35C80106960E94670DC80189589F4FE2
:102BF00062E370E00E94A53501581F4FF801119261
:102C00001192119211921192119211928F0180E002
:102C100090E0A0E0B0E080839183A283B383065864
:102C20001040C70166E070E00E94CF36C80164E042
:102C300070E00E94CF36C8010E946F13C8010E9445
:102C40006413C8010E9475131F910F91FF90EF90BC
:102C50000895AF92BF92CF92DF92EF92FF920F93BF
:102C60001F937C0102E81AE1C80160EC79E00E9440
:102C7000C343C70148960E941C3A682FC80170E000
:102C80004AE050E00E9491435AE2C52E57E0D52E0B
:102C9000C801B6010E94C343C70143960E941C3A73
:102CA000682FC80170E04AE050E00E94914346EF6F
:102CB000A42E42E0B42EC801B5010E94C343C7014F
:102CC00009960E941C3A682FC80170E04AE050E063
:102CD0000E949143C801B6010E94C343C7010E96EA
:102CE0000E941C3A682FC80170E04AE050E00E9440
:102CF0009143C801B5010E94C343C7014D960E948C
:102D00001C3A682FC80170E04AE050E00E949143ED
:102D1000C801B6010E94C343C70182960E941C3AB3
:102D2000682FC80170E04AE050E00E949143C8015A
:102D30000E9464421F910F91FF90EF90DF90CF901F
:102D4000BF90AF900895EF92FF920F931F93CF9390
:102D5000DF937C0182E89AE16AEC79E00E94E24329
:102D600082E89AE162EF79E00E94C34380910717FD
:102D700090910817009709F44FC0019709F459C0C2
:102D800082E89AE16CE07AE00E94C3436091071701
:102D90007091081782E89AE14AE050E00E94A4434B
:102DA00087010B581F4FC0E0D0E00DC0019701F123
:102DB00065E070E080E090E00E94BF4581E0C53FA3
:102DC000D80709F43DC0C8010E941C3A8823A1F429
:102DD00021968091071790910817009739F7C7013E
:102DE0000E9450138091071790910817019701F7DF
:102DF000C7010E945513DCCFC7010E944B1382E824
:102E00009AE16BE27AE00E94E243DF91CF911F9159
:102E10000F91FF90EF90089582E89AE16EEF79E0CC
:102E20000E94E2438091071790910817019709F0DB
:102E3000A7CF82E89AE165E07AE00E94E243A0CF62
:102E400082E89AE167E17AE00E94E243C7010E94CA
:102E50004B13DF91CF911F910F91FF90EF90089549
:102E600082E064E670E00E948B4681E160E00E94AF
:102E70002C4880E161E00E942C48089582E064E6DD
:102E800070E00E948B4681E161E00E942C4880E165
:102E900060E00E942C48089506966CED75E00E9453
:102EA000D53582E060E070E00E948B4681E160E011
:102EB0000E942C4880E160E00E942C48089583E045
:102EC00064E670E00E948B4683E161E00E942C483A
:102ED00082E160E00E942C48089583E064E670E09F
:102EE0000E948B4683E160E00E942C4882E161E011
:102EF0000E942C48089583E060E070E00E948B46B9
:102F000083E160E00E942C4882E160E00E942C484E
:102F100008950F931F938C010E944B13C8010E94C8
:102F20004C17C8010E947B171F910F910895875479
:102F30009F4F0E94891708950F931F93CF93DF939C
:102F4000EC01C356DF4F88819981CD59D040843040
:102F5000910509F4E8C0853091057CF18730910531
:102F600009F407C1883091050CF466C08B309105D7
:102F700009F4A7C0819709F05AC082E89AE165E791
:102F80007BE00E94E243CE0168E873E10E941D0FDE
:102F900082E89AE161E07BE00E94C343C458DF4FBE
:102FA0006881798182E89AE14AE050E00E94A44376
:102FB000DF91CF911F910F9108958130910509F410
:102FC00085C0823091050CF449C08230910509F426
:102FD000B4C0039761F582E89AE165E47BE00E9462
:102FE000E24382E89AE166E87AE00E94C34382E81D
:102FF0009AE16BE97AE00E94E24382E89AE16FEAA3
:103000007AE00E94C343C756DF4F68817981C9596E
:10301000D04082E89AE14AE050E00E94A443CE0109
:1030200060E177E20E941D0FCE010E945013DF91F4
:10303000CF911F910F91089585309105D9F0069792
:10304000B1F782E89AE165E07CE00E94E243CE01BC
:103050000E944C17CE010E947B17E9CF892B39F7CC
:1030600082E89AE161E47AE00E94E243CE010E94A4
:103070008917DDCF82E89AE16EED7BE00E94E243A2
:1030800082E89AE166E87AE00E94C3438E01035722
:103090001F4FF801408151816281738182E89AE17A
:1030A0002AE030E00E947D43F80160817181CE0109
:1030B0000E941D0FCE010E943E17CE010E946D1787
:1030C000B6CF82E89AE167EC7AE05BCF82E89AE1DA
:1030D00066E57AE00E94E24382E89AE166E87AE0F7
:1030E0000E94C34382E89AE16BE97AE00E94E243DE
:1030F00082E89AE16FEA7AE00E94C343C756DF4F45
:1031000068817981C959D04082E89AE14AE050E06B
:103110000E94A443CE0160E177E20E941D0FCE0120
:103120000E94551384CF82E89AE16FEA7BE00E9407
:10313000E243CE010E944B137ACF82E89AE166E126
:103140007BE00E94E24382E89AE161E07BE00E943A
:10315000C343C458DF4F68817981CC57D04082E89F
:103160009AE14AE050E00E94A443CE010E944B1332
:103170005ECF82E89AE16BE27CE00E94E2438E013E
:1031800003571F4FF80160817181CE010E941D0F0E
:1031900082E89AE166E87AE00E94C343F801408140
:1031A00051816281738182E89AE12AE030E00E94D5
:1031B0007D43CE010E943017CE010E945F1737CFAA
:1031C0002F923F924F925F926F927F928F929F9237
:1031D000AF92BF92CF92DF92EF92FF920F931F9325
:1031E000CF93DF933C01EB0182E89AE16CEC72E053
:1031F0000E94E24382E89AE169E578E00E94C343D5
:1032000082E89AE1BE014AE050E00E94A443CE0168
:103210000897039708F4E8C0C330D10549F0C130DE
:10322000D10531F0C530D10519F0C430D10599F47C
:1032300082E89AE16AE277E00E94E24382E89AE15A
:1032400062E87CE00E94C34382E89AE1BE014AE062
:1032500050E00E94A443CE010697029708F46EC086
:10326000CB30D10509F46AC0C730D10509F47DC05F
:10327000CC30D10509F415C1CD30D10509F4C8C051
:103280002097A1F482E89AE16AE277E00E94E243A3
:1032900082E89AE16CE67DE00E94C34382E89AE10D
:1032A00060E070E04AE050E00E94A44382E89AE1C6
:1032B00065E97DE00E94C3437DE9872E912C860C51
:1032C000971CD4016D917C9182E89AE14AE050E02C
:1032D0000E94A443F40140805180F4E04F16510451
:1032E00009F4F4C025E0421651040CF053C031E05B
:1032F0004316510409F424C182E0481651040CF429
:10330000B9C092E04916510409F4D5C1A3E04A16A8
:10331000510409F49EC1DF91CF911F910F91FF904D
:10332000EF90DF90CF90BF90AF909F908F907F9065
:103330006F905F904F903F902F90089582E89AE1B0
:103340006AE277E00E94E24382E89AE16AEA7CE07E
:103350000E94C34382E89AE1BE014AE050E00E9425
:10336000A443C730D10509F083CF82E89AE16AE22D
:1033700077E00E94E24382E89AE169ED7CE00E94F6
:10338000C34382E89AE167E070E04AE050E00E94BF
:10339000A4438CCFB7E04B16510409F4BEC0E8E05B
:1033A0004E1651040CF449C03BE04316510409F495
:1033B0009EC081E24816510409F0ADCFCC30D10552
:1033C00009F4DAC2CD2B09F0A6CF84E090E0F40135
:1033D0009183808382E89AE16AE770E10E94E24388
:1033E000D4018D919C9146C182E89AE16AE277E02E
:1033F0000E94E24382E89AE164E57CE00E94C343D4
:1034000082E89AE1BE014AE050E00E94A44304CF62
:1034100082E89AE16AE277E00E94E24382E89AE178
:1034200064E37DE00E94C34382E89AE16DE070E0CE
:103430004AE050E00E94A44339CFF5E04F16510412
:1034400009F4A1C026E04216510409F064CFC73048
:10345000D10509F44BC22B9709F05DCFE401198225
:10346000188282E89AE163EA7FE00E94E243888161
:10347000998100C14114510409F04DCFC130D105EB
:1034800009F41BC2C330D10509F4FBC1C430D10516
:1034900009F44FC1259709F461C2D4018D919C9123
:1034A000E9C082E89AE16AE277E00E94E24382E8BA
:1034B0009AE16DEF7CE00E94C34382E89AE16CE000
:1034C00070E04AE050E00E94A443F0CEC730D1053E
:1034D00009F49DC12B9709F01ECFD4011D921C92B7
:1034E00082E89AE163EA7FE00E94E243C0C0CC3008
:1034F000D10509F4B8C1CD2B09F00DCF82E090E0E1
:10350000F4019183808382E89AE16FE27FE00E9478
:10351000E243D4018D919C91ADC0CD2B09F0FBCE3F
:10352000F4011182108282E89AE16DE871E10E9453
:10353000E24382E89AE160E57EE00E94E243ADCF9B
:10354000CD30D10509F414C1209709F4D8C0C83092
:10355000D10509F4E9C1269709F089C08BE090E014
:10356000F4019183808382E89AE162EB7EE00E941D
:10357000E24382E89AE164EF7EE00E94E243D401F4
:103580008D919C9177C0209709F402C1CA30D10572
:1035900009F4BDC0C630D10509F0BDCEF401D18318
:1035A000C0836DE8262E312C260C371CD101ED90FE
:1035B000FD900D911C91C9E8D0E06C0E7D1EF301C9
:1035C000A080B180C280D38027E73FEF620E731ED8
:1035D0000E948A45AE0CBF1CC01ED11EA61AB70A97
:1035E000C80AD90AF301EF56FF4FA082B182C28206
:1035F000D3821A141B041C041D040CF0D1C185E9EC
:1036000090E0680E791EE30188819981AA81BB81CF
:103610002BE63FEF620E731E208131814281538180
:10362000820F931FA41FB51FE10188839983AA838A
:10363000BB8382E89AE164E471E10E94E24382E89C
:103640009AE164EF7EE00E94E243F401808191817F
:1036500011C0CD30D10509F48BC0209709F43FC0CB
:10366000C930D10509F472C1269709F465C1E40196
:10367000888199814816590609F44DCE82E89AE16D
:1036800069EA79E00E94C343E4016881798182E8B4
:103690009AE14AE050E00E94A443EFE9F0E06E0EA8
:1036A0007F1ED3011C92C1E6DFEF6C0E7D1EC301AD
:1036B0000E949C1730CEC730D10509F47CC02B97EF
:1036C00009F029CED4011D921C9282E89AE163EAA6
:1036D0007FE00E94E243E40188819981CBCFD4014D
:1036E0001D921C9282E89AE160EB7FE00E94E24327
:1036F00082E89AE160E57EE00E94E243B8CFD4011F
:103700001D921C9282E89AE16AE57EE0EFCFE40127
:103710001982188282E89AE166E171E10E94E2432F
:1037200082E89AE160E57EE00E94E2438881998127
:10373000A1CF85E090E0E401998388830E948A45C7
:10374000E9E8F0E06E0E7F1ED3016D937D938D93BB
:103750009C931397C7E7DFEF6C0E7D1E82E89AE11A
:1037600065EE7DE00E94E243F4018081918182CF89
:10377000F4011182108282E89AE16BE17EE00E94FE
:10378000E24382E89AE160E57EE00E94E2436FCF87
:10379000F4011182108282E89AE16EEE70E10E94DB
:1037A000E24382E89AE160E57EE00E94E243D401D0
:1037B0008D919C915FCF81E090E0E40199838883B3
:1037C000F301E458FF4F208131818BE990E0680ECE
:1037D000791ED3012D933C93C5E6DFEF6C0E7D1E61
:1037E00011821082F301E756FF4F80819181821B85
:1037F000930B9183808397FDCDC082E89AE160E8C6
:103800007FE00E94E243F4018081918133CF83E025
:1038100090E0E40199838883F301E458FF4F20810D
:1038200031818BE990E0680E791ED3012D933C9392
:10383000C5E6DFEF6C0E7D1E11821082F301E756A4
:10384000FF4F80819181821B930B9183808397FD31
:10385000A4C082E89AE16BEC70E10E94E243F401BB
:103860008081918107CF82E090E0E4019983888391
:1038700082E89AE16CEF7EE00E94E24388819981C0
:10388000F9CED401CD93DC930E948A45C9E8D0E0FB
:103890006C0E7D1EF301608371838283938327E71F
:1038A0003FEF620E731E82E89AE16AEC7DE00E94AF
:1038B000E243D4018D919C91DDCED401CD93DC9374
:1038C0000E948A45C9E8D0E06C0E7D1EF30160833A
:1038D00071838283938327E73FEF620E731E82E832
:1038E0009AE16FEA7DE00E94E243D7CD85E090E067
:1038F000D4018D939C930E948A45C9E8D0E06C0E58
:103900007D1EF301608371838283938327E73FEFFA
:10391000620E731E82E89AE16BE671E10E94E24357
:10392000D4018D919C91A6CEF4011182108282E87F
:103930009AE163E87EE033CF81E290E0F401918385
:10394000808382E89AE168E070E111CEF40111828F
:10395000108282E89AE169ED7FE021CF87E090E074
:10396000E4019983888382E89AE16FEF7DE00E9409
:10397000E243888199817ECE84E090E0E4019983DE
:10398000888382E89AE167E470E10E94E2438881DB
:10399000998170CE1182108230CF1182108259CF5E
:1039A00010821182128213822ACE67E070E00E9498
:1039B000E018089566E070E00E94E01808956BE05A
:1039C00070E00E94E0180895FC01E357FF4F408328
:1039D000518362837383ED58F040CF0163E070E060
:1039E0000E94E0180895FC01E357FF4F4083518384
:1039F00062837383ED58F040CF0164E070E00E9471
:103A0000E0180895FC01E357FF4F80E29EE4A0E038
:103A1000B0E080839183A283B3833C9671836083FB
:103A20007D9711821082EC57F040CF0161E070E089
:103A30000E94E0180895FC01E357FF4F80E29EE4E6
:103A4000A0E0B0E080839183A283B3833C9671832E
:103A500060837D9711821082EC57F040CF0163E0C4
:103A600070E00E94E0180895FC01E357FF4F88E9D9
:103A70009AE3A0E0B0E080839183A283B383ED5802
:103A8000F040CF0164E070E00E94E0180895FC016E
:103A9000E458FF4F118210827D9686E090E091837A
:103AA00080833C9788E99AE3A0E0B0E0808391832B
:103AB000A283B383ED58F040CF0163E070E00E9431
:103AC000E0180895FC01E458FF4F118210827D96A2
:103AD00086E090E0918380833C9788E99AE3A0E0B8
:103AE000B0E080839183A283B383ED58F040CF018F
:103AF00061E070E00E94E0180895EF92FF920F934A
:103B00001F93CF93DF93EC0106960E94D007E6E85F
:103B1000EE2EF12CEC0EFD1E8D8D9E8DAF8DB8A17D
:103B2000F70180839183A283B3838E0109581F4FCD
:103B3000C8010E947935882339F4DF91CF911F9114
:103B40000F91FF90EF900895C8010E949835CE0123
:103B50000E94470F8823C9F5C158DF4F888199819A
:103B6000CF57D040039749F782E89AE167EB71E1BC
:103B70000E94C343F701408151816281738182E8D1
:103B80009AE122E030E00E942F45F701E080F180C9
:103B900002811381C801B70120E030E040E050E02D
:103BA0000E94164A1816BCF4C801B70120E030E0A4
:103BB00040E850E40E94C74888230CF0BECFCE01F5
:103BC00063E070E00E940B14B8CFCE0160E070E0BB
:103BD0000E940B14C1CFC801B70120E030E040E8DB
:103BE00050EC0E94164A181654F3A7CFEF92FF929A
:103BF0000F931F937C0102E81AE1C80168EC71E1A0
:103C00000E94C34383E40E945646BC01C8014AE0B7
:103C100050E00E949143C80165ED71E10E94C343E9
:103C2000C70108960E941C3A682FC80170E04AE05C
:103C300050E00E949143C80164EE71E10E94C343C9
:103C4000F70167857089C8014AE050E00E94A443EB
:103C50001F910F91FF90EF9008951F93CF93DF93E3
:103C6000EC010E947935882321F4DF91CF911F91D7
:103C70000895CE010E94983589898823B1F4CE0138
:103C800008960E941C3A882351F011E01D878E850A
:103C9000882359F7CE010E94E40F1E87E6CF1D86C8
:103CA0001E86DF91CF911F910895CE010E94F61DCF
:103CB000E6CFEF92FF920F931F93CF93DF938C0188
:103CC000F8E2EF2EF12CE80EF91EC7010E94470E14
:103CD000C80183599F4F0E942D1EE801CF57DF4F27
:103CE000CE010E947935882339F4DF91CF911F915D
:103CF0000F91FF90EF900895CE010E949835F80142
:103D000087A1882309F086C0C8010E94F20E88238B
:103D100009F07AC0E801C356DF4F88819981853068
:103D2000910509F45EC081309105C1F18B30910598
:103D300009F47EC08132910509F470C00397A9F699
:103D40000C551F4FF8018081045A1040882309F058
:103D500093C0C80182960E941C3A882309F0C6C00D
:103D6000F801E756FF4F04581F4F20813181F801B9
:103D7000808191810C571040821793070CF4B5CFC6
:103D8000C8018B589F4F0E941C3A882309F4ADCF7D
:103D9000C8016DE070E00E94E018A7CF0C551F4FDE
:103DA000F8018081045A1040882309F077C0C801C7
:103DB00048960E941C3A882309F0B2C0F801E756E1
:103DC000FF4F04581F4F20813181F801808191817C
:103DD0000C571040821793070CF040C088819981DE
:103DE000A5CF0C551F4FF8018081045A104088233D
:103DF00009F068C0C8010E960E941C3A882309F099
:103E000082C0888199818FCFC80160E070E00E94F4
:103E1000E01880CFC8010E94291676CFC8018B58C0
:103E20009F4F0E941C3A882399F48881998186CFFC
:103E3000C8018B589F4F0E941C3A882319F488812F
:103E4000998178CFC8016CE070E00E94E018F7CF4C
:103E5000C8016CE070E00E94E018E7CFC8018B5801
:103E60009F4F0E941C3A882309F4B8CFC8016DE027
:103E700070E00E94E018B2CFC7010E94A00788231B
:103E800009F467CFC80166E070E00E94E01882E89C
:103E90009AE16BE172E10E94E24327CFC7010E94E1
:103EA000B007882309F483CFC80166E070E00E9460
:103EB000E01882E89AE165E072E10E94E2438881BD
:103EC000998134CFC7010E948E07882309F492CFCD
:103ED000C80166E070E00E94E01882E89AE161EFB4
:103EE00071E10E94E243888199811DCFC8014D96FE
:103EF0000E941C3A882309F433CFC80169E070E0BE
:103F00000E94E018F2CEC80109960E941C3A88234C
:103F100009F477CFC8016AE070E00E94E01871CF21
:103F2000C80143960E941C3A882309F447CFC80170
:103F300068E070E00E94E01888819981F7CE0F93C5
:103F40001F938C010E94D312C80187549F4F0E9477
:103F5000591EC8018F960E947D1D1F910F910895D3
:103F6000EF92FF920F931F938C016AE070E00E9422
:103F7000A535A8E0EA2EF12CE00EF11EC70163E49E
:103F800070E04AEE51E00E940F3AF801158616865D
:103F9000118A108A1786C7010E94163A1F910F9145
:103FA000FF90EF900895EF92FF920F931F938C0173
:103FB0000E94BB35C80103960E94BB35C801069616
:103FC0000E94BB35C80109966EE370E048E552E0F7
:103FD0000E940F3AC8010E966FE370E048E552E088
:103FE0000E940F3AC80143966CE370E048E552E046
:103FF0000E940F3AC801489660E470E048E552E03C
:104000000E940F3AC8014D966DE370E048E552E01A
:104010000E940F3AC801829661E470E048E552E0E0
:104020000E940F3AF80117A2C80188960E94770EE5
:10403000C80183599F4F0E94B01FC8018F579F4FDF
:1040400064E170E00E94A53507571F4FF8011192F7
:104050001192119211921192119211921192119248
:1040600011921192119288EE93E0A0E0B0E081935A
:104070009193A193B1931192119211921192119275
:10408000119211928F011082118212821382005AB2
:104090001040B4EAEB2EF12CE00EF11EF701108275
:1040A0000B551F4FF8011082055A1040C80165E0FA
:1040B00070E00E94CF36C8010E94A316F80117A233
:1040C000C8010E948917F7011082C8010E949C173D
:1040D00082E89AE161E372E10E94E2431F910F914D
:1040E000FF90EF9008950F931F938C010E94C215CB
:1040F000C8018F960E94E215C80187549F4F0E9405
:10410000D31F1F910F910895FC0188E680830895C5
:104110002F923F924F925F926F927F928F929F92D7
:10412000AF92BF92CF92DF92EF92FF920F931F93C5
:104130005C014B013A01290118019C012F5F3F4F9F
:1041400000913E1610913F16FC0180816BE34EE01A
:104150000E949B05F501918180E0228130E0822B55
:10416000932BF40191838083F501938180E0248176
:1041700030E0822B932BF30191838083F5019581AD
:1041800080E0268130E0822B932BF20191838083A3
:10419000F501918580E0228530E0822B932BF1019F
:1041A00091838083F501938580E0248530E0822B24
:1041B000932BF70191838083F501958580E0268517
:1041C00030E0822B932BF601918380831F910F9116
:1041D000FF90EF90DF90CF90BF90AF909F908F9027
:1041E0007F906F905F904F903F902F900895FC01CB
:1041F000262F80816BE646E00E94B6060895FC01FA
:10420000AB01808167E10E9444050895FC01AB0188
:10421000808165E10E9444050895FC01AB01808125
:1042200063E10E9444050895FC01AB0180816AE0CE
:104230000E9444050895FC01AB01808168E00E9462
:1042400044050895FC01AB01808166E00E944405AD
:1042500008950F93FC01062F80816BE642E023E076
:104260000E946C060F9108950F93FC01062F808128
:104270006CE144E022E00E946C060F9108950F93D8
:10428000FC01062F80816BE144E022E00E946C0675
:104290000F9108950F931F938C0161E00E942921D3
:1042A000C80160E00E943F21C80160E00E94342103
:1042B000C80160E00E94F7201F910F910895CF93ED
:1042C000DF93EC01862F90E0FC01E25BFC4FE49170
:1042D000EC83A42FB0E0FD01E25BFC4FE491ED83A1
:1042E000885F9C4FFC01449150E0440F551FFA0138
:1042F000EC52FD4F859194919F838E83A85FBC4FB4
:10430000FD018491E82FF0E0EE0FFF1FE251FD4F19
:10431000859194919B878A87FA01E654FD4F859198
:10432000949199878887A901F1E0253F3F0714F010
:1043300044EF51E09A01220F331F220F331F220F47
:10434000331FC901880F991F880F991F880F991F64
:10435000821B930B840F951F4C969D878C87DF9152
:10436000CF9108951F920F920FB60F920BB60F9236
:1043700011242F933F934F935F936F937F938F936A
:104380009F93AF93BF93EF93FF93E0910917F09141
:104390000A17309709F01995FF91EF91BF91AF91EE
:1043A0009F918F917F916F915F914F913F912F914D
:1043B0000F900BBE0F900FBE0F901F901895CF93CC
:1043C000DF93EC01E885F98580819C81892B8083CE
:1043D000EE81FF8190818C8180958923808384E0A8
:1043E00090E00E94EA45EE81FF8180819C81892BCB
:1043F00080838AE090E00E94EA45EE81FF8190810F
:104400008C81809589238083E885F98590818C81D2
:104410008095892380830E949845605B794B8F4FFC
:104420009F4F6E877F87888B998BEA85FB8580817C
:1044300090E04D81242F30E082239323892BD9F4FF
:10444000242F03C02D81EA85FB85808130E090E038
:1044500028233923232BF1F40E9498452E853F858C
:1044600048895989261737074807590758F780E0C0
:10447000DF91CF9108950E9498452E853F85488908
:104480005989261737074807590778F6EA85FB85C3
:104490004D81D6CF0E9498452C853D8540E050E067
:1044A000260F371F481F591F2E873F87488B598B70
:1044B00081E0DF91CF910895CF93DF93EC010E94CB
:1044C000DF218823A9F0EA85FB85208130E08D81FA
:1044D00090E028233923232B89F00E9498452E85CC
:1044E0003F8548895989261737074807590758F7DC
:1044F00040E050E0CA01DF91CF9108950E949845B5
:104500004C855D85455050402E853F85421B530BA1
:10451000460F571FCA01DF91CF9108950E945C2278
:104520009C014C9669E370E00E94AC4A40E050E088
:10453000232B11F041E050E09B016417750708F44C
:104540009A01C9010895FC0189E896E1918380836D
:104550000895FC01A081B18116978D919C918E0FD9
:104560009F1F0E94B4220895FC0187E796E1918382
:10457000808389E896E1978386830895DC0113960A
:104580008D919C911497892B91F01596ED91FC914A
:10459000169717968D919C911897E817F90739F09F
:1045A000819190E01696FC93EE9315970895ED9106
:1045B000FC9111970488F589E02DCD011995089596
:1045C000FC0181EB96E1918380830895CF93DF9383
:1045D000EC01E881F9810288F389E02D19959C01AD
:1045E0008FEF2F3F380729F08D819E8101969E83A2
:1045F0008D83C901DF91CF910895CB0108958FEF8D
:104600009FEF089580E090E0089508950895DC01FB
:10461000242FED91FC910084F185E02D41E0199566
:10462000089580E090E00895FC0122893389808913
:104630009189281B390B86899789281B390BC90159
:104640000895CF92DF92EF92FF920F931F93CF9333
:10465000DF93EC016B0179018A01AE89BF8968891A
:1046600079898A899B89861B970BA817B90778F0E7
:1046700020E030E040E050E0B901CA01DF91CF9185
:104680001F910F91FF90EF90DF90CF900895121639
:1046900013061406150664F720E030E040E050E011
:1046A000F601E20FF31F6A0F7B1FDB018C91808301
:1046B0002F5F3F4F4F4F5F4FAE89BF891196BF8B22
:1046C000AE8B688979898A899B89861B970BA81785
:1046D000B90790F62E153F05400751076CF6E0CF5D
:1046E000FC0126893789A089B189828993898A1B2F
:1046F0009B0B2817390738F4A20FB31F8C91282F72
:1047000030E0C90108952FEF3FEFC9010895CF931D
:10471000DF93EC01E881F9810288F389E02D199596
:104720009C018FEF2F3F380729F08E899F890196D2
:104730009F8B8E8BC901DF91CF910895CF93DF932B
:10474000DC0156964D915C9157974115510511F139
:104750005096CD91DC91519752962D913C91539763
:104760002C1B3D0B24173507B0F18FEF6F3F7807F7
:10477000B9F0FE01E40FF51F319780818617E1F44F
:104780004150504057965C934E935697CB01DF9122
:10479000CF9108956FEF7FEFCB01DF91CF91089517
:1047A0004150504057965C934E93569760E070E0AE
:1047B000CB01DF91CF9108951F968C911F9784FFB5
:1047C000E9CFCA01019757969C938E935697C80FCD
:1047D000D91F6883DBCF57963C932E9356976FEF84
:1047E0007FEFD4CF80E090E0089580E090E00895DE
:1047F00080E090E0089580E090E0089560E070E04F
:1048000080E090E008956F927F929F92AF92BF9266
:10481000CF92DF92EF92FF920F931F93CF93DF938C
:10482000EC013B0159016A01121613061406150624
:104830000CF050C0EE24FF24870117C0EB85FC85E7
:104840008D859E85E817F90748F590828B859C85B4
:1048500001969C878B870894E11CF11C011D111D9A
:10486000EA14FB040C051D05ACF5F301EE0DFF1D6C
:1048700090808F8580FFE2CFE881F9810084F18507
:10488000E02DCE0160E070E044E020E11995EB8579
:10489000FC858D859E85E817F907B8F2E881F981D6
:1048A000028CF38DE02DCE01692D70E019958F5F9C
:1048B0009F4F89F6B701C801DF91CF911F910F91EA
:1048C000FF90EF90DF90CF90BF90AF909F907F9040
:1048D0006F90089586017501EDCFCB010895EF9299
:1048E000FF920F931F93CF93DF937C018B01EA011B
:1048F00064177507A9F0FC01428153814F5F5F4F38
:104900004C1B5D0BCB01BE010E94480398012C1B80
:104910003D0BF70182819381820F931F93838283E2
:10492000C801DF91CF911F910F91FF90EF900895F3
:104930000F931F938B0181E090E00E946903FC01BB
:104940001082F80110821F910F910895FC01A0813F
:10495000B18116978D919C918E0F9F1F0E94B1245B
:104960000895FC0187E796E19183808389E896E1C9
:1049700097838683CF010E942A420895FC0189E82B
:1049800096E191838083CF010E942A420895FC0121
:1049900081EB96E191838083CF010E942A420895A2
:1049A000CF93DF93EC0181E996E19983888328898D
:1049B00039898C899D898217930719F0C9010E9452
:1049C000C90281EB96E199838883DF91CF910895A5
:1049D000CF93DF93EC0181E996E19983888328895D
:1049E00039898C899D898217930719F0C9010E9422
:1049F000C90281EB96E199838883CE010E942A4205
:104A0000DF91CF910895FC01A081B18116978D911E
:104A10009C918E0F9F1F0E940E250895CF93DF93C8
:104A2000EC018FE496E1998388830A9699A388A381
:104A300081E996E19F838E832E893F898A8D9B8DA4
:104A40008217930719F0C9010E94C90281EB96E110
:104A50009F838E83E0914316F0914416F983E88397
:104A600036970190F081E02DEC0FFD1F80914516E7
:104A7000909146169183808389E896E199A388A353
:104A8000CE010E942A42DF91CF910895FC01A081BE
:104A9000B18116978D919C918E0F9F1F0E94512579
:104AA0000895CF93DF93EC018FE496E19983888397
:104AB0000A9699A388A381E996E19F838E832E8924
:104AC0003F898A8D9B8D8217930719F0C9010E9437
:104AD000C90281EB96E19F838E83E0914316F091AA
:104AE0004416F983E88336970190F081E02DEC0FAE
:104AF000FD1F80914516909146169183808389E829
:104B000096E199A388A3DF91CF910895AF92BF92C8
:104B1000CF92DF92EF92FF920F931F93CF93DF9389
:104B20006C01DC011296ED91FC9113974D915C9113
:104B3000DF01A41BB50BCB016A177B0708F4CD017D
:104B40005C010894A11CB11CA114B104C9F5EE24A8
:104B5000FF248F01041B150BC701BA01A8010E9495
:104B60004803E701C00FD11F81E090E0BE010E9421
:104B70006903FC0110821882F60120813181848151
:104B800095818217930719F0C9010E94C902D601C5
:104B90001196FC92EE921396DC93CE931297AE0C84
:104BA000BF1C1596BC92AE921497DF91CF911F91C6
:104BB0000F91FF90EF90DF90CF90BF90AF9008954E
:104BC000C5010E941F02009779F07C01D601129660
:104BD000ED91FC9113974D915C91BBCF1995C50157
:104BE0000E941F02009789F7E0910B17F0910C17B4
:104BF0003097A1F780E090E00E94064BFF920F9360
:104C00001F93CF93DF938C01F62EDC0112962D912A
:104C10003C911397E901219614968D919C911597DB
:104C2000C817D907E9F081E090E0BE010E9469034E
:104C3000FC0110821882D8011296ED91FC91139715
:104C4000F08212968D919C911397019613969C93E6
:104C50008E931297DF91CF911F910F91FF9008953E
:104C60008D919C91F901E81BF90BCF0171F461E082
:104C700070E0680F791FC8010E948625D80112963E
:104C8000CD91DC9113972196CECFBF01F2CF0F9338
:104C90001F93CF93DF938C01EB018FEF6F3F78076A
:104CA00041F4C0E0D0E0CE01DF91CF911F910F9190
:104CB0000895D8011F968C9184FF1AC0F801208DA9
:104CC000318D0088F189E02DD80152968D919C910B
:104CD00053978E1B9F0B2817390768F4E20FF31FB9
:104CE0006083F801808D918D0196918F808FDBCF4D
:104CF000CFEFDFEFD8CFC80140960E94FE25F1CF5D
:104D0000CF92DF92EF92FF920F931F93CF93DF9397
:104D10008C01FB0130E0C90188719070489709F45B
:104D2000DBC0C9018870907020713070413009F487
:104D3000B4C0423009F46DC0D80152964D915C91D7
:104D4000539750966D917C915197DA01A61BB70B42
:104D5000EF01CA0FDB1FAC17BD0708F479C0892B20
:104D600019F0F801D78BC68B232B09F48BC080E197
:104D7000C82ED12CC00ED11E9A01261B370B2C1722
:104D80003D0708F068C07E01E21AF30AF801848941
:104D900095890197861B970B8C179D0778F4B701AF
:104DA000E216F30608F496C0620F731FC6010E9454
:104DB0008625D80152964D915C915397E114F104E8
:104DC00009F453C09A012F5F3F4FFA01EE0DFF1D0A
:104DD000E21BF30BC90160E070E0AF010E945A03CF
:104DE000F801628973896E0D7F1DC6010E949824A7
:104DF000D8015296ED91FC915397108252964D91A5
:104E00005C9153974E0D5F1D53965C934E93529752
:104E10002CC02115310509F04EC0C0E0D0E0D8010A
:104E200050966D917C91519752964D915C9153970C
:104E3000009739F0D8015696CD91DC915797CE0F57
:104E4000DF1FDA01A61BB70BAC17BD0708F087CF31
:104E50002FEF3FEF18C06C0F7D1FC6010E946F241B
:104E6000D80152964D915C915397F80180899189B0
:104E70009A01281B390B868997892817390710F45E
:104E8000378B268B9E01C901DF91CF911F910F9126
:104E9000FF90EF90DF90CF900895EF01D8015096EA
:104EA0006D917C91519752964D915C915397DA0197
:104EB000A61BB70B50CFD80152964D915C915397DA
:104EC00050966D917C915197EA01C61BD70BCE0F7E
:104ED000DF1FAECFB90168CF423009F022CFB8CF83
:104EE0008F929F92AF92BF92DF92EF92FF920F93B9
:104EF0001F93CF93DF935C017B01DC01CD91DC91AB
:104F00002697E881F9812696E80FF91F0189128911
:104F10000115110501F1D801ED91FC913697019031
:104F2000F081E02DE00FF11FA389B489ED91FC9190
:104F300011970484F585E02DCD0119958F5F9F4F62
:104F400009F4E7C0F501C081D1812697E881F98194
:104F50002696EA0DFB1DA389B48913968D919C9129
:104F60001497892B09F4B2C01596ED91FC91169710
:104F700017968D919C911897E817F90709F4A6C028
:104F8000808190E00E94FB4A892B09F084C026971B
:104F900028813981F501E20FF31F83889488D701B6
:104FA000ED91FC91119712968D919C911397E817B2
:104FB000F90771F010828D919C91119713969C9333
:104FC0008E931297D501ED91FC9136972081318116
:104FD000F9013296EA0DFB1D2285338544855585FE
:104FE0001286138614861586E9012115310509F00C
:104FF000E9C00EEF1FEF1EC081E090E0BE010E94ED
:105000006903FC0110821882D7011296ED91FC9180
:105010001397D08212962D913C9113972F5F3F4F9B
:1050200013963C932E9312970115110509F4B5C000
:1050300001501040C4010E94BE22BFEF8F3F9B076A
:1050400009F4C6C0D82E992787FD90950E94FB4A87
:10505000892B09F070C0F70122813381E901219683
:1050600084819581C817D90739F680819181A9017A
:10507000481B590BCA0109F0A3C061E070E0680F3A
:10508000791FC7010E948625D7011296CD91DC9128
:1050900013972196B1CF2697E881F981EA0DFB1D80
:1050A000838994890E94BE22D501CD91DC912697F7
:1050B000E881F9812696EA0DFB1DA389B489139630
:1050C0008D919C911497892B09F04ECFED91FC9115
:1050D00011970288F389E02DCD011995BFEF8F3F1D
:1050E0009B0709F0C0C0D501ED91FC91119736974F
:1050F0000190F081E02DEA0DFB1D2581322F3260F9
:1051000083899489892B09F48AC03583CD91DC91F8
:105110003ECFD801ED91FC9136970190F081E02DC2
:10512000E00FF11F2581216083899489892B09F47F
:105130007CC0258307CFF4012381348121153105FB
:1051400051F0858196812817390729F0FC01829159
:10515000D81609F474C0D401ED91FC910688F78942
:10516000E02DC4016D2D70E019958F5F9F4F91F474
:10517000D501ED91FC9136970190F081E02DEA0D7B
:10518000FB1D2581322F346083899489892B09F492
:105190004EC03583F70122813381F70180819181EF
:1051A0002817390751F1C501DF91CF911F910F9158
:1051B000FF90EF90DF90BF90AF909F908F900895F9
:1051C000BA015DCFC701B9010E9486258E0130CF9B
:1051D000D501ED91FC9136970190F081E02DEA0D1B
:1051E000FB1D2581322F326083899489892B81F1BF
:1051F0003583F70122813381D0CFD501ED91FC9128
:1052000036970190F081E02DEA0DFB1D2581322FAC
:10521000346083899489892B19F13583C4CF236045
:105220002583F501C081D181B2CE25833DCF256094
:105230002583D70112962D913C911397AECFD401BF
:105240001696FC93EE931597F70122813381A5CF33
:1052500023602583D70112962D913C9113979DCF02
:1052600025602583A0CFF501C081D1818BCE8F929F
:105270009F92AF92BF92CF92DF92EF92FF920F93E5
:105280001F93CF93DF937C018B016A01DC014D9169
:105290005C91119712962D913C911397241B350B1D
:1052A000E601C61BD70B2C173D0708F075C0CA01D5
:1052B000A9010E943F03D7011296ED91FC9113972B
:1052C0006D917C911197AF01461B570B5801A40EAD
:1052D000B51ECA14DB0409F451C0E601CA19DB0982
:1052E0009E01240F351F14968D919C91159701975F
:1052F000861B970B8217930708F081C09A012F5FD6
:105300003F4FCE01C431D10508F463C04901880E76
:10531000991E8114910409F065C0CC24DD248F010D
:10532000061B170BC601A8010E9448030C0D1D1D8A
:10533000C801B501AE010E944803C00FD11F81E032
:1053400090E0BE010E946903FC0110821882D7011F
:105350002D913C91119714968D919C9115978217E0
:10536000930719F0C9010E94C902F701D182C082D6
:10537000D383C2838C0C9D1C95828482C701DF91EC
:10538000CF911F910F91FF90EF90DF90CF90BF9042
:10539000AF909F908F900895CA01AE010E943F0385
:1053A000D701ED91FC911197EC0FFD1F12960D9016
:1053B000BC91A02DEA17FB0709F38C918083EA1BAF
:1053C000FB0BE7018A819B818E0F9F1F9B838A8342
:1053D000D5CF84E190E04901880E991E8114910493
:1053E00009F49BCFC4010E941F020097C1F16C0118
:1053F000F701608171810280F381E02D90CFB501CA
:105400006F5F7F4FC61AD70ACF010196A6010E948F
:105410004803D70112960D911C9113970C0F1D1F75
:1054200081E090E0B8010E946903FC011082F8015C
:105430001082D7011296ED91FC911397D5018C91B2
:105440008083F701828193818C0F9D1F93838283D8
:1054500095CF1995C4010E941F02009741F6E09173
:105460000B17F0910C173097A1F780E090E00E94A5
:10547000064B3F924F925F926F927F928F929F92D4
:10548000AF92BF92CF92DF92EF92FF920F931F9352
:10549000DF93CF93CDB7DEB728970FB6F894DEBF72
:1054A0000FBECDBF3C019AE0492E512C460C571C33
:1054B000CE01019698878F8382E89AE10E943B4053
:1054C000181619062CF4F301808591854C97C4F0C9
:1054D00028960FB6F894DEBF0FBECDBFCF91DF91F7
:1054E0001F910F91FF90EF90DF90CF90BF90AF9002
:1054F0009F908F907F906F905F904F903F90089516
:1055000082E89AE10E946D40382EFAE08F1709F484
:1055100045C1D3011C960D911C911D971A968D9132
:105520009C911B97081B190B0E5F1F4F1A82198243
:105530001C821B821E821D82BFEF0F3F1B0771F072
:105540000115110509F00BC180E090E09A83898371
:105550009C838B83080F191F1E830D830B811C8175
:1055600081E090E0B8010E946903FC011082F8011B
:105570001082D3011A968D909C901B971C96ED91EA
:10558000FC911D978E169F0609F403C14B815C8127
:1055900069817A81DA01A61BB70B6F01C818D90897
:1055A00096012A0F3B1F8D819E810197861B970BC9
:1055B0008217930708F079C09D012F5F3F4FC60106
:1055C000B4E1CB16D10410F484E190E05901A80EA7
:1055D000B91EA114B10409F0A7C0EE24FF248A016A
:1055E000061B170BC701A8010E9448030E0D1F1DC3
:1055F000C801B401A6010E9448030C0D1D1D81E0E5
:1056000090E0B8010E946903FC011082F801108249
:1056100029813A818D819E818217930719F0C901F2
:105620000E94C902FA82E9821C830B83AE0CBF1C64
:10563000BE82AD82A8018A010F5F1F4F8D819E81BE
:105640000817190709F45CC081E090E0B8010E94D6
:105650006903FC011082F8011082EB81FC81308229
:105660004B815C814F5F5F4F5C834B838F8198855B
:105670008415950529F069817A81C2010E94372934
:1056800029813A818D819E818217930719F0C90182
:105690000E94C902D30118968D919C911997019689
:1056A00019969C938E93189707CFB4016F5F7F4F25
:1056B000E61BF70BCA010196AF010E9448030B815C
:1056C0001C810C0D1D1D81E090E0B8010E94690352
:1056D000FC011082D8011C92EB81FC81D4018C91D9
:1056E00080834B815C814C0D5D1D5C834B838A0103
:1056F0000F5F1F4F8D819E810817190709F0A4CFF6
:1057000089819A818A01081B190B09F045C061E063
:1057100070E0600F711FCE0101960E9486250B81FB
:105720001C810F5F1F4F90CFC5010E941F02009781
:1057300061F07C014B815C8169817A8150CF199540
:10574000C5010E941F020097A1F7E0910B17F0918D
:105750000C173097A1F780E090E00E94064BC8013B
:105760000E941F02009709F0F1CEE0910B17F09113
:105770000C17309781F31995C8010E941F020097FA
:1057800009F0E4CEE0910B17F0910C17309799F7E0
:10579000E2CF4B815C814FCFB801BBCFD3011896CC
:1057A0008D919C911997181619061CF4F301108A13
:1057B0008FCE81E050968C938BCE2F923F924F925A
:1057C0005F926F927F928F929F92AF92BF92CF9291
:1057D000DF92EF92FF920F931F93CF93DF935C01C1
:1057E0003B014A014217530709F46CC06901C41A0E
:1057F000D50ADC011296ED91FC91139714968D91C8
:105800009C9115978E1B9F0BC816D9060CF46DC082
:10581000D5012D913C91BF01621B730B6F5F7F4FD0
:10582000C601B4E1CB16D10410F484E190E01B0171
:10583000280E391E2114310409F0B1C04424552426
:105840008301021B130BC201B901A8010E94480386
:105850007201E00EF11EC701B401A6010E944803C7
:10586000EC0CFD1CD50112960D911C911397061995
:105870001709C701B301A8010E944803E701C00F3F
:10588000D11F81E090E0BE010E946903FC011082FB
:105890001882F501208131818481958182179307D7
:1058A00019F0C9010E94C902D50111965C924E926D
:1058B0001396DC93CE931297240C351C15963C92CC
:1058C0002E921497DF91CF911F910F91FF90EF903F
:1058D000DF90CF90BF90AF909F908F907F906F9010
:1058E0005F904F903F902F900895EF01C61BD70B0C
:1058F000CC15DD051CF1BF016C197D096F5F7F4F71
:10590000CF010196AC01461B570B0E944803F501DD
:10591000828193818C0D9D1D938382832196CC1966
:10592000DD09C3018C0D9D1DB301AE010E9448032A
:10593000C301B401A6010E943F03C4CF21967A019E
:10594000EC0EFD1E21978F010F5F1F4F2E193F098F
:10595000C801B701A9010E944803CC1ADD0AD5018C
:1059600012968D919C9113978C0D9D1D13969C936F
:105970008E93129706191709B301A8010E944803D4
:10598000F501828193818C0F9D1F93838283E81898
:10599000F908C301B401A7010E943F0393CFC101DD
:1059A0000E941F02009759F02C01F50120813181DE
:1059B00047CF1995C1010E941F020097A9F7E091F6
:1059C0000B17F0910C173097A1F780E090E00E9440
:1059D000064B2F923F924F925F926F927F928F92DF
:1059E0009F92AF92BF92CF92DF92EF92FF920F936E
:1059F0001F93CF93DF935C01FB01522E432E342E75
:105A0000252EDC0158966D917C915997C22ED32E8C
:105A100050962D913C9151974901860E971E5296B2
:105A20008D919C915397821B930B861B970BA6011C
:105A30008C159D0508F4AC017A01E60EF71EE20E06
:105A4000F31E3F016C0C7D1CE301CE1BDF0BC70175
:105A5000881999098C179D078CF58F01080F191F5C
:105A600098012E1B3F0BC401BF01A9010E943F03F7
:105A7000C5014096B701A801930100E00E94DD2B0B
:105A8000F501808D918D8C0D9D1D918F808F652DE1
:105A9000742D832D922DDF91CF911F910F91FF9047
:105AA000EF90DF90CF90BF90AF909F908F907F90BE
:105AB0006F905F904F903F902F900895C401BF0169
:105AC000AE010E943F03C80DD91DEC16FD06C1F2C0
:105AD000F501428953894F5F5F4F4E195F09CE012F
