:100000000C94F0010C941D020C941D020C941D0222
:100010000C941D020C941D020C941D020C941D02E4
:100020000C941D020C941D020C941D020C941D02D4
:100030000C941D020C94F7200C941D020C941D02CC
:100040000C941D020C941B360C941D020C941D0282
:100050000C941D020C941D020C941D020C948744F8
:100060000C941D020C94A93C0C94F53D0C941D02BB
:100070000C941D020C941D020C941D020C941D0284
:100080000C9484380C941D020C941D020C941D02D7
:100090000C94E93C0C94343E0C941D020C94433BAC
:1000A0000C941D020C941D020C94B4370C941D0288
:1000B0000C941D020C941D020C941D020C94EB3642
:1000C0000C941D020C941D020C941D020C94293DED
:1000D0000C94733E0C941D020C94693D0C94B23E3A
:1000E0000C941D02281048105A106D1080109310A7
:1000F000A110B110C010D010E610F9100C111A1197
:100100002A1139110B10E611ED11F71100120B1223
:1001100014121F12281233123C12471250125B1293
:1001200064126F129311E011FC3B953B953B953B9C
:10013000953B953B953B953B063C953B953B953BCD
:10014000953B953B953B953B063C953B953B953BBD
:10015000953B953B953B953B0E3C953B953B953BA5
:10016000953B953B953B953B223C953B953B953B81
:10017000953B953B953B953B0E3C953B953B953B85
:10018000953B953B953B953BC43B953B953B953BC0
:10019000953B953B953B953BD13B953B953B953BA3
:1001A000953B953B953B953BBD3B953B953B953BA7
:1001B000953B953B953B953B523C953B953B953B01
:1001C000953B953B953B953BB13B953B953B953B93
:1001D000953B953B953B953BDA3B953B953B953B5A
:1001E000953B953B953B953BF33B953B953B953B31
:1001F000953B953B953B953BF33B953B953B953B21
:10020000953B953B953B953BF33B953B953B953B10
:10021000953B953B953B953BF33B953B953B953B00
:10022000953B953B953B953BA83B953B953B953B3B
:10023000953B953B953B953BAD3B953B953B953B26
:10024000953B953B953B953BA83B953B953B953B1B
:10025000953B953B953B953BAD3B953B953B953B06
:10026000953B953B953B953B2D3C953B953B953B75
:10027000953B953B953B953B6B3B953B953B953B28
:10028000953B953B953B953B6B3B953B953B953B18
:10029000953B953B953B953B803B953B953B953BF3
:1002A000953B953B953B953B4C3C953B953B953B16
:1002B000953B953B953B953B4C3C00002100240031
:1002C00027002A002D003000330001010000040146
:1002D00007010A0100002200250028002B002E0043
:1002E0003100340002010000050108010B0100008B
:1002F00020002300260029002C002F0032000001DE
:1003000000000301060109010505050507050808A8
:100310000808020202020A0A08080404040401018F
:1003200001010101010103030303030303030407A4
:1003300007070C0C0C0C0C0C0C0C0202020206063B
:100340000606060606060B0B0B0B0B0B0B0B01022E
:1003500010202008081020401020408002010201D7
:10036000080402010102040810204080804020108F
:1003700008040201800402018040201008040201E8
:100380000804020101020408102040800102040850
:10039000102040800000090A02080B0C0D0706031C
:1003A0000401000000000000000000000000000048
:1003B000000000000000000000000000000000003D
:1003C00011100F00000000000000000000000000FD
:1003D000000000000000000000006B03C33925404E
:1003E00011241FBECFEFD1E2DEBFCDBF00E00CBFB6
:1003F00015E1A0E0B2E0E6EBF2E900E00BBF02C0DD
:1004000007900D92A032B107D9F71BBE19E1A0E207
:10041000B5E101C01D92A934B107E1F713E0C0EEC8
:10042000D3E004C02297FE010E944A49CA3DD10789
:10043000C9F70E945B410C9459490C940000CF937A
:10044000DF93BC018230910510F462E070E0A0916E
:100450004719B0914819ED01E0E0F0E040E050E0CC
:1004600021C0888199818617970769F48A819B81C9
:10047000309719F09383828304C090934819809336
:100480004719FE0134C06817790738F44115510542
:1004900019F08417950708F4AC01FE018A819B814D
:1004A0009C01E9012097E9F641155105A9F1CA011E
:1004B000861B970B049708F4BA01E0E0F0E02AC02D
:1004C0008D919C91119784179507F9F4641775071E
:1004D00081F412968D919C911397309719F0938324
:1004E000828304C09093481980934719FD01329686
:1004F0004CC0CA01861B970BFD01E80FF91F6193E1
:10050000719302978D939C9340C0FD0182819381EA
:100510009C01D9011097A1F6809145199091461937
:10052000892B41F48091691490916A149093461933
:100530008093451940916B1450916C1441155105ED
:1005400041F44DB75EB78091671490916814481BD1
:10055000590B2091451930914619CA01821B930B02
:100560008617970780F0AB014E5F5F4F84179507A2
:1005700050F0420F531F5093461940934519F9010B
:100580006193719302C0E0E0F0E0CF01DF91CF9181
:100590000895CF93DF93009709F450C0EC012297A0
:1005A0001B821A82A0914719B0914819109709F13E
:1005B00040E050E0AC17BD0708F1BB83AA83FE0101
:1005C00021913191E20FF31FAE17BF0779F48D919E
:1005D0009C911197280F391F2E5F3F4F3983288335
:1005E00012968D919C9113979B838A834115510597
:1005F00071F4D0934819C093471920C012968D9179
:100600009C911397AD01009711F0DC01D3CFFA0153
:10061000D383C28321913191E20FF31FCE17DF07FD
:1006200069F488819981280F391F2E5F3F4FFA01A5
:10063000318320838A819B8193838283DF91CF9151
:100640000895FC0188279927E89421912032E9F345
:10065000293010F02E30C8F32B3241F02D3239F40E
:10066000689404C00E946103820F911D2191205360
:100670002A30C0F31EF4909581959F4F0895FB0199
:10068000DC0102C001900D9241505040D8F708950E
:100690006817790768F4FB01DC01E40FF51FA40F6C
:1006A000B51F02C002900E9241505040D8F70895F5
:1006B0000C943F03DC0101C06D9341505040E0F7C2
:1006C00008957AE0979F902D879F802D910D11249A
:1006D0000895CB01089584E295E16BE370E048E56D
:1006E00052E00E94543989E295E16AE370E048E5FE
:1006F00052E00E9454398EE295E169E370E048E5EA
:1007000052E00E9454390895809133159091341528
:100710000097E9F08130910539F18330910509F4B2
:1007200071C0029709F452C080912215909123154F
:100730000E941F3380912015909121150E94CA1E9E
:1007400061E070E080E090E00E940445089584E25A
:1007500095E10E946139882341F58091331590918C
:10076000341581309105C9F684E295E10E94823901
:100770008823B1F082E090E0909334158093331594
:1007800084EB98E16BE072E00E9427430E94CF4423
:1007900060933515709336158093371590933815FF
:1007A0008091331590913415B8CF81E090E090930B
:1007B00034158093331584EB98E160E072E00E9479
:1007C00027438091331590913415CBCF0E94CF44AD
:1007D00020913515309136154091371550913815C7
:1007E000621B730B840B950B20916D1430916E146A
:1007F00040916F1450917014261737074807590716
:1008000008F092CF84EB98E167E172E00E94274301
:1008100083E090E0909334158093331580912015F8
:10082000909121150E94F0128BCF8F929F92AF92E0
:10083000BF92CF92DF92EF92FF920F931F9339E214
:10084000E32E35E1F32EC7010E945B392EE2822EA2
:1008500025E1922EC4010E945B398AE196E10E9453
:100860006F3A04EB18E1C80140E855E260E070E03F
:100870000E94F13EC80161E272E00E942743C80174
:100880006EE272E00E94274368EE73E080E090E041
:100890000E940445109234151092331510923515AC
:1008A00010923615109237151092381590E4A92E33
:1008B00092E0B92EC801B5010E94274381E4C82EF9
:1008C00082E0D82EC801B6010E9427431092351548
:1008D000109236151092371510923815C8016AE536
:1008E00072E00E942743C80164E672E00E94084358
:1008F00084E295E10E946139682FC80170E04AE006
:1009000050E00E94E942C8016FE672E00E9408438D
:10091000C7010E946139682F8093391510923A15EA
:10092000C80170E04AE050E00E94E942C8016CE76B
:1009300072E00E940843C4010E946139682FC80117
:1009400070E04AE050E00E94E942C801B5010E940F
:100950002743C801B6010E9427438FE591E00E941A
:100960007241F82EE92E0E94B81FF0922015E092F5
:100970002115C80169E872E00E94274389E490E0EC
:100980000E947241F82EE92E609120157091211578
:100990000E94D133F0922215E0922315C80161E93B
:1009A00072E00E942743C801B5010E942743C80195
:1009B000B6010E9427431F910F91FF90EF90DF90A7
:1009C000CF90BF90AF909F908F900895CF92DF927D
:1009D000FF920F931F93CF93DF93582F162F042F5F
:1009E00069018AE196E1652F0E9487398AE196E1E3
:1009F000612F0E940D3AC02FD0E0CC0FDD1F209751
:100A0000D1F0FF2400E010E0000F111F0C0D1D1DA0
:100A1000F80161818AE196E10E940D3A8AE196E14E
:100A2000F80160810E940D3AF2E0FF0E0F2D10E0F8
:100A30000C171D074CF38AE196E10E945A3A90E0A8
:100A4000882309F491E0892FDF91CF911F910F91B5
:100A5000FF90DF90CF900895DF93CF930F920F9286
:100A6000CDB7DEB75A83498341E09E012F5F3F4FE8
:100A70000E94E6040F900F90CF91DF910895EF92BE
:100A8000FF920F931F93CF93DF93582F162FF42EBF
:100A9000022FE32E8AE196E1652F0E9487398AE1D1
:100AA00096E1612F0E940D3AFF2069F0802F9E2D64
:100AB0009C01E9018AE196E169910E940D3A9E014B
:100AC000201B2F15B8F38AE196E10E945A3A90E074
:100AD000882309F491E0892FDF91CF911F910F9125
:100AE000FF90EF900895DF93CF930F92CDB7DEB7CD
:100AF000498341E09E012F5F3F4F0E943F050F90C9
:100B0000CF91DF9108952F923F924F925F926F9213
:100B10007F928F929F92AF92BF92CF92DF92EF928D
:100B2000FF920F931F93DF93CF9300D000D0CDB7E8
:100B3000DEB7382E262ED42E3C832B8378010E94DC
:100B4000CF442B013C01DD2009F4A0C02D2D30E065
:100B50003A8329830D2D30E23D1508F47BC0CC2467
:100B600010E04701AA24BB248AE196E1632D0E948C
:100B700087398AE196E1622D0E940D3A8AE196E179
:100B80000E945A3A8AE196E1632D0E948739498191
:100B90005A81411B51094132510514F040E250E0A5
:100BA0008AE196E1632D0E946B3A8C2D992787FD8F
:100BB0009095EB81FC818E0F9F1F9E838D838AE130
:100BC00096E10E949139892B99F0E114F10491F595
:100BD0008AE196E10E949A39ED81FE818193FE833C
:100BE000ED83C3948AE196E10E949139892B69F7DC
:100BF000100F1D1508F4B8CF1C2DE114F10461F598
:100C0000812F26960FB6F894DEBF0FBECDBFCF91D1
:100C1000DF911F910F91FF90EF90DF90CF90BF90E9
:100C2000AF909F908F907F906F905F904F903F908C
:100C30002F9008950E94CF44641975098609970979
:100C4000681579058A059B0518F2100F1D1508F423
:100C50008BCFD2CF00E283CF0E94CF4464197509B5
:100C600086099709970140E050E0621773078407EF
:100C7000950730F22C2D332727FD30958D2D90E0F0
:100C8000281739070CF0BCCF1FEFBACFCC2410E0E7
:100C9000B4CF0F931F93FA01890141E09F010E9495
:100CA00083051F910F910895DF92EF92FF920F93AA
:100CB0001F93DF93CF930F92CDB7DEB7E82ED62EDA
:100CC000F42E122F2091711430917214AE014F5FE7
:100CD0005F4F0E944906882341F1212F30E04F2DBC
:100CE00050E04F5F5F4F421B530B81E090E002C02A
:100CF000880F991F1A95E2F70197042E02C0880FFA
:100D0000991F0A94E2F7202F30E002C0220F331F10
:100D10004A95E2F7482F4095598145238223482B75
:100D200049838E2D6D2D0E9473050F90CF91DF9119
:100D30001F910F91FF90EF90DF900895EF92FF9237
:100D40000F931F93DF93CF930F92CDB7DEB7F82E9B
:100D5000E62E042F122F2091711430917214AE01DF
:100D60004F5F5F4F0E9449061123C1F481E090E07C
:100D700002C0880F991F0A95E2F7482F4095898194
:100D8000482349838F2D6E2D0E9473050F90CF91BC
:100D9000DF911F910F91FF90EF90089581E090E017
:100DA00002C0880F991F0A95E2F74981482BE9CFC5
:100DB00021E0FC01218B0895FC01118A08959C011A
:100DC0002A5F3F4FC90108959C01285D3F4FC9012B
:100DD0000895FC01EC55FF4F10820895FC01EC557D
:100DE000FF4F81E0808308959C0123593F4FC90143
:100DF0000895FC0117A2089521E0FC0127A308959E
:100E0000FC01EC5BFF4F81E080830895FC01EC5B0B
:100E1000FF4F10820895FC01E159FF4F81E080836C
:100E20000895FC01E159FF4F10820895FC0180E014
:100E300090E0A0E0B0E0878B908FA18FB28F838F7E
:100E4000948FA58FB68F878F90A3A1A3B2A3089587
:100E500008959C01215D3F4FC90108959C012754CD
:100E60003F4FC9010895FC01EE5BFF4F80819181E6
:100E70000197889710F080E0089584EB98E16DEC7D
:100E800072E00E94274381E00895FC0186AD97AD92
:100E900001974E9710F080E0089584EB98E168ED9B
:100EA00072E00E94274381E00895FC01E05CFF4F5F
:100EB0008081918101974E9710F080E0089584EB36
:100EC00098E165EE72E00E94274381E008950F9358
:100ED0001F938C010E944507C8010E945507C80155
:100EE0000E9433071F910F9108952F923F924F92C6
:100EF0005F926F927F928F929F92AF92BF92CF92AA
:100F0000DF92EF92FF920F931F93DF93CF93CDB7B2
:100F1000DEB764970FB6F894DEBF0FBECDBF9A8BD5
:100F2000898B89899A890E94BE348823C9F4649682
:100F30000FB6F894DEBF0FBECDBFCF91DF911F91EA
:100F40000F91FF90EF90DF90CF90BF90AF909F9068
:100F50008F907F906F905F904F903F902F9008956B
:100F600089899A890E94DD3429893A892D5A3F4F0F
:100F700038872F8389899A898B5A9F4F9A878987C7
:100F8000A989BA89A95ABF4FBC87AB8779E5472E93
:100F9000512CE989FA894E0E5F1E6BE5262E312C05
:100FA0002E0E3F1EE35AFF4FFE87ED8789899A89EF
:100FB0000896B90149855A859D01820171016F0129
:100FC0000E94CD1F29893A892B593F4F3A8B298B93
:100FD000D2016D917C91F90121913191FA8BE98BCC
:100FE000621B730B882777FD8095982F0E94CC4752
:100FF0003B014C01D1016D917C91E989FA892191E4
:101000003191FA8BE98B621B730B882777FD8095F2
:10101000982F0E94CC475B016C01AD85BE856D9118
:101020007C91E989FA8920813181E956F040FA8B77
:10103000E98B621B730B882777FD8095982F0E94A0
:10104000CC477B018C01C401B30120E030E040E0DB
:1010500050E00E947C4818160CF0D1C2C401B301C4
:1010600020E030E040EF51E40E942D4788230CF44B
:10107000D1C2C601B50120E030E040E050E00E945E
:101080007C4818160CF0A5C2C601B50120E030E07E
:1010900040EF51E40E942D4788230CF4A5C2C801FB
:1010A000B70120E030E040E050E00E947C48181694
:1010B0000CF079C2C801B70120E030E040EF51E404
:1010C0000E942D4788230CF479C229893A89255931
:1010D0003F4F388B2F87C401B301D9012D913D912A
:1010E0004D915C910E94804820E030E543EC57E44C
:1010F0000E9431479B01AC01E989FA896789708DAB
:10110000818D928D0E94C946A989BA8957966D939F
:101110007D938D939C935A97C601B501EF85F8890D
:1011200020813181428153810E94804820E030E556
:1011300043EC57E40E9431479B01AC01A989BA896D
:101140005B966D917D918D919C915E970E94C946B1
:10115000E989FA89638F748F858F968FC801B701EB
:10116000AF85B8892D913D914D915C910E94804849
:1011700020E030E543EC57E40E9431479B01AC018D
:10118000E989FA89678D70A181A192A10E94C9465F
:10119000A989BA895F966D937D938D939C9392975D
:1011A000A159BF4F8C91AF56B040BA8BA98B882301
:1011B00009F06FC2E989FA89E15AFF4F8CE695EF91
:1011C000819391938EE994EB8193919383EC9BECC3
:1011D00091838083E356F040FA8BE98BAF81B88529
:1011E0006D917C916C56754F882777FD8095982F6F
:1011F0000E94CC477B018C01E985FA856081718171
:101200006E59744B882777FD8095982F0E94CC47A4
:101210005B016C01AB85BC856D917C91635C7B4C03
:10122000882777FD8095982F0E94CC473B014C0181
:10123000C801B70120E030E040E050E00E947C4867
:1012400018160CF096C1C801B70120E030E048EC58
:1012500052E40E942D4788230CF496C1C801B701BF
:1012600020E030E048EC52E40E9431476B837C83FD
:101270008D839E83C601B50120E030E040E050E060
:101280000E947C4818160CF0EAC1C601B50120E0A6
:1012900030E048EC52E40E942D4788230CF4EAC168
:1012A000C601B50120E030E048EC52E40E9431472D
:1012B0001B012C01C401B30120E030E040E050E00C
:1012C0000E947C4818160CF0B0C1C401B30120E0A4
:1012D00030E048EC52E40E942D4788230CF4B0C162
:1012E000C401B30120E030E048EC52E40E943147F1
:1012F0006B8B7C8B782F692F2B813C814D815E819C
:10130000C901DA01E989FA8983AF94AFA5AFB6AF15
:10131000FF96C101D20181939193A193B1932B893F
:101320003C89472F562FC901DA0180839183A2831C
:10133000B383E354F040FA8BE98BE95BFF4FFA8308
:10134000E983C801B701AF85B8892D913D914D91D1
:101350005C910E94804820E030E543EC57E40E9415
:101360003147E981FA8120813181428153810E9494
:10137000C946A981BA816D937D938D939C931397F0
:101380005BE4252E312CE989FA892E0E3F1EC60119
:10139000B501AF85B8892D913D914D915C910E9429
:1013A000804820E030E543EC57E40E943147F101EA
:1013B00020813181428153810E94C946D1016D93C0
:1013C0007D938D939C9313974FE4442E512CE98980
:1013D000FA894E0E5F1EC401B301AF85B8892D9105
:1013E0003D914D915C910E94804820E030E543ECB6
:1013F00057E40E943147F2012081318142815381BB
:101400000E94C946D2016D937D938D939C9313974F
:10141000E989FA89E059FF4F8081882309F487CD53
:1014200084EB98E162EF72E00E940843AF81B885D7
:101430006D917C9184EB98E14AE050E00E94D642A5
:1014400084EB98E166EF72E00E940843E985FA8533
:101450006081718184EB98E14AE050E00E94D642BD
:1014600084EB98E166EF72E00E940843AB85BC858F
:101470006D917C9184EB98E14AE050E00E94D64265
:1014800084EB98E166EF72E00E94084384EB98E1F8
:1014900065E073E00E94084384EB98E1B801A7017E
:1014A00022E030E00E94714484EB98E166EF72E044
:1014B0000E94084384EB98E1B601A50122E030E0E8
:1014C0000E94714484EB98E166EF72E00E94084349
:1014D00084EB98E1B401A30122E030E00E94714462
:1014E00084EB98E166EF72E00E94084384EB98E198
:1014F0006AE073E00E940843E981FA8140815181EA
:101500006281738184EB98E122E030E00E947144B3
:1015100084EB98E166EF72E00E940843D1014D919F
:101520005D916D917C9184EB98E122E030E00E9426
:10153000714484EB98E166EF72E00E940843F20187
:10154000408151816281738184EB98E122E030E037
:101550000E94714484EB98E166EF72E00E940843B8
:1015600084EB98E10E94A94184EB98E10E94A94193
:10157000DECCC801B70120E030E048EC52EC0E941C
:101580007C4818160CF06ACE0F2EF0E0EF2EF0E03B
:10159000FF2EF0E00F2FF0E01F2FF02D1B821C829A
:1015A0001D821E8267CEC801B70120E030E040EF07
:1015B00051EC0E947C4818160CF087CD0F2EF0E0FD
:1015C000EF2EF0E0FF2EF0E00F2FF0E01F2FF02DB8
:1015D0007CCDC601B50120E030E040EF51EC0E9427
:1015E0007C4818160CF05BCD0F2EF0E0AF2EF0E02B
:1015F000BF2EF0E0CF2EF0E0DF2EF02D50CDC40155
:10160000B30120E030E040EF51EC0E947C48181616
:101610000CF02FCD0F2EF0E06F2EF0E07F2EF0E0DB
:101620008F2EF0E09F2EF02D24CDC401B30120E0D9
:1016300030E048EC52EC0E947C4818160CF050CE7A
:101640000F2EF0E06F2EF0E07F2EF0E08F2EF0E016
:101650009F2EF02D1B8A1C8A70E060E04DCEC601E3
:10166000B50120E030E048EC52EC0E947C481816AE
:101670000CF016CE0F2EF0E0AF2EF0E0BF2EF0E013
:10168000CF2EF0E0DF2EF02D2224332444245524E5
:1016900011CE84EB98E162EF72E00E940843F20100
:1016A0006081718184EB98E14AE050E00E94D6426B
:1016B00084EB98E166EF72E00E940843D1016D91DE
:1016C0007C9184EB98E14AE050E00E94D64284EBA2
:1016D00098E166EF72E00E940843ED85FE85608127
:1016E000718184EB98E14AE050E00E94D64284EB9D
:1016F00098E166EF72E00E94084384EB98E168EF9E
:1017000072E00E94084384EB98E1B401A30122E057
:1017100030E00E94714484EB98E166EF72E00E9431
:10172000084384EB98E1B601A50122E030E00E9475
:10173000714484EB98E166EF72E00E94084384EB09
:1017400098E1B801A70122E030E00E94714484EBE7
:1017500098E166EF72E00E94084384EB98E16CEF39
:1017600072E00E940843A989BA8957964D915D910C
:101770006D917C915A9784EB98E122E030E00E94D1
:10178000714484EB98E166EF72E00E940843E989B6
:10179000FA89438D548D658D768D84EB98E122E036
:1017A00030E00E94714484EB98E166EF72E00E94A1
:1017B0000843A989BA895F964D915D916D917C919D
:1017C000929784EB98E122E030E00E94714484EB30
:1017D00098E166EF72E00E94084384EB98E10E9472
:1017E000A94184EB98E10E94A941E4CC2F923F9259
:1017F0004F925F926F927F928F929F92AF92BF9221
:10180000CF92DF92EF92FF920F931F93DF93CF93CC
:10181000CDB7DEB768970FB6F894DEBF0FBECDBF69
:101820008C0184EB98E164E173E00E942743C801D6
:101830008B599F4F9A8B898B83E29FEFA989BA8935
:101840008D939C93F801E959FF4FFC8BEB8B82EC55
:1018500090E091838083C80187599F4F9E8B8D8B29
:101860008FE790E0AD89BE898D939C93F8013896FF
:10187000FC87EB87C8018D5A9F4F9A878987D801CB
:10188000AB5ABF4FB887AF83F801E95AFF4FFE83C9
:10189000ED83C801875A9F4F9E878D87D801A55A2F
:1018A000BF4FB88BAF87EDE52E2E312C200E311EA9
:1018B0000F2EF0E08F2EF0E09F2EF0E0AF2EF0E044
:1018C000BF2EF02D2401350189829A82AB82BC8221
:1018D000188E1F8A8B859C8569857A854F815885EE
:1018E0002D813E810D851E85EF84F88861010E945F
:1018F000CD1FED85FE8560817181882777FD8095FC
:10190000982F0E94CC4720E030E046E953E40E9443
:1019100031479B01AC01C501B4010E94C9464B018E
:101920005C01AF85B8896D917C91882777FD8095A2
:10193000982F0E94CC4720E030E046E953E40E9413
:1019400031479B01AC01C301B2010E94C9462B0182
:101950003C01F10160817181882777FD8095982F86
:101960000E94CC4720E030E046E953E40E94314732
:101970009B01AC0169817A818B819C810E94C9465F
:1019800069837A838B839C8365E070E080E090E0DC
:101990000E9404458F89988D0196988F8F8B8C5269
:1019A000914009F097CFC501B4010E949947E98998
:1019B000FA8971836083C301B2010E949947AB89A0
:1019C000BC896D937C9369817A818B819C810E9413
:1019D0009947ED89FE897183608384EB98E163E325
:1019E00073E00E94274368960FB6F894DEBF0FBEDF
:1019F000CDBFCF91DF911F910F91FF90EF90DF90BE
:101A0000CF90BF90AF909F908F907F906F905F909E
:101A10004F903F902F9008958F929F92AF92BF92D8
:101A2000CF92DF92EF92FF920F931F935C0162E3DC
:101A300070E00E94EA34F8E08F2E912C8A0C9B1CF7
:101A4000C4010E94C91F80E090E0A0E0B0E0F50171
:101A5000878B908FA18FB28F838F948FA58FB68F36
:101A6000878F90A3A1A3B2A383A394A3A5A3B6A396
:101A700087A390A7A1A7B2A783A794A7A5A7B6A756
:101A800087A790ABA1ABB2AB83AB94ABA5ABB6AB26
:101A900087AB90AFA1AFB2AF83AF94AFA5AFB6AFF6
:101AA0002FE330E0A20EB31EF50181939193A19331
:101AB000B19381939193A193B19381939193A193C6
:101AC000B19381939193A193B19381939193A193B6
:101AD000B19311921192119211921192119211924D
:101AE0001192119211925F01118210822EE030E06A
:101AF000A20EB31E80E090E0A8E4B2E4F50180837A
:101B00009183A283B38325E93FEFA20EB31EC401E4
:101B10000E948F2084EB98E160E573E00E942743E8
:101B200064E670E080E090E00E940445B501615AEF
:101B30007F4FA5014F595F4F95012D593F4F8501AB
:101B40000B591F4FF501E959FF4F89E690E0A80EA8
:101B5000B91EC4017F0165010E94CD1FC40160E070
:101B600070E00E945220C40160E070E00E944B20AF
:101B7000C40160E070E00E944420C40160E070E0B5
:101B80000E946720C40160E070E00E946020C401F0
:101B900060E070E00E94592064E670E080E090E030
:101BA0000E940445E6E0F0E0AE0EBF1EF501119282
:101BB0005F01108220E93FEFA20EB31EC5010E9413
:101BC000F60B1F910F91FF90EF90DF90CF90BF9099
:101BD000AF909F908F900895CF93DF93EC010E9478
:101BE000BE34882319F4DF91CF910895CE010E946D
:101BF000DD34CE014A960E94D3219FAF8EAFCE0135
:101C000008960E94D321C05CDF4F99838883C0541B
:101C1000D040CE018C960E94D321CE5BDF4F8993BA
:101C200099938881C454D0408823E9F2CE010E9460
:101C30006707DF91CF9108950F931F938C0161E2A5
:101C400070E00E94EA34C80108966DE04CE224E698
:101C500030E00E94A420C8014A966FE240E324E6E7
:101C600030E00E94A420C8018C966DE24EE224E68A
:101C700030E00E94A42084E690E0F80197AF86AFA0
:101C8000005C1F4FF801819391938193919310828F
:101C90001F910F910895EF92FF920F931F93CF938F
:101CA000DF93EC0188A1882341F480E0DF91CF919C
:101CB0001F910F91FF90EF900895EBA0FCA00DA154
:101CC0001EA10E94CF44E616F7060807190768F719
:101CD00018A281E0DF91CF911F910F91FF90EF90BB
:101CE0000895CF92DF92EF92FF920F931F936C01B2
:101CF0007B010E94CF440027F7FC0095102FE60ED1
:101D0000F71E081F191FF601E3A2F4A205A316A3EC
:101D100081E080A384EB98E16FE973E00E940843BF
:101D20001F910F91FF90EF90DF90CF900895EF9269
:101D3000FF920F931F93CF93DF93FC01EC01C156E9
:101D4000DF4F8881882341F480E0DF91CF911F919C
:101D50000F91FF90EF900895E056FF4FE080F180E3
:101D6000028113810E94CF44E616F706080719077F
:101D700058F7188281E0DF91CF911F910F91FF906A
:101D8000EF900895CF92DF92EF92FF920F931F93FF
:101D90006C017B010E94CF4420EA30E0C20ED31ECA
:101DA0000027F7FC0095102FE60EF71E081F191FDD
:101DB000F601E082F1820283138381E0829384EB57
:101DC00098E16FE973E00E9408431F910F91FF9023
:101DD000EF90DF90CF900895EF92FF920F931F93B3
:101DE000CF93DF93FC01EC01CF57DF4F888188232D
:101DF00041F480E0DF91CF911F910F91FF90EF9020
:101E00000895EE57FF4FE080F180028113810E9418
:101E1000CF44E616F7060807190758F7188281E03D
:101E2000DF91CF911F910F91FF90EF900895CF9286
:101E3000DF92EF92FF920F931F936C017B010E9440
:101E4000CF4422E830E0C20ED31E0027F7FC0095F5
:101E5000102FE60EF71E081F191FF601E082F1820F
:101E60000283138381E0829384EB98E16FE973E04E
:101E70000E9408431F910F91FF90EF90DF90CF9049
:101E80000895EF92FF920F931F937C01FC018785C9
:101E900090890196908B878704EB18E1C8016DEA61
:101EA00073E00E940843F70167857089C8014AE022
:101EB00050E00E94E942C80165EB73E00E940843CC
:101EC000F70167857089C8014AE050E00E94E94245
:101ED0001F910F91FF90EF900895FC01808188235E
:101EE00039F4CF01019663EE76E00E941A35089529
:101EF000CF0101966AEE77E00E941A350895FC0141
:101F00008081882339F4CF01019661E078E00E9456
:101F10001A350895CF0101966AE976E00E941A35D4
:101F20000895CF93DF93EC018881882369F4CE0173
:101F3000049668E774E00E941A3588E794E09C876D
:101F40008B87DF91CF910895CE01049665E077E00D
:101F50000E941A3585E097E09C878B87DF91CF91AF
:101F60000895CF93DF93EC0104966CED75E00E9429
:101F70001A358CED95E09C878B87DF91CF91089582
:101F8000CF93DF93EC018881882369F4CE01049616
:101F90006FE777E00E941A358FE797E09C878B8781
:101FA000DF91CF910895CE01049667E074E00E941E
:101FB0001A3587E094E09C878B87DF91CF91089555
:101FC0006BEF74E00E941A35089563EC75E00E948F
:101FD0001A35089564E676E00E941A35089568E798
:101FE00075E00E941A35089568EE73E00E941A3574
:101FF00008950F931F93CF93DF93EC01E9A1FAA10A
:10200000E131F10500F5EE58FF4FEE0FFF1F05908F
:10201000F491E02D199468EE73E00E94710ECE01E8
:1020200043960E94C00FCE0103960E94E50F84EBF9
:1020300098E165E175E00E94274384EB98E167E24F
:1020400075E00E942743DF91CF911F910F91089572
:102050008C010A5F1F4FC8010E94C00FC8010E9477
:102060007F0F8E010D5E1F4FC8010E94C00FC80177
:102070000E947F0FCE010E94F40FCE0103960E94B2
:10208000E50F84EB98E160EC73E00E942743DBCF1F
:1020900064EF71E00E94710ECE010E94EF0FCE013D
:1020A00003960E94EA0F84EB98E160ED73E00E94D2
:1020B0002743C9CF68EE73E00E94710ECE014396AC
:1020C0000E94B10FCE0103960E94E50F84EB98E1C8
:1020D0006EED73E00E942743B6CF60ED77E00E947B
:1020E000710ECE0143960E94B10FCE0103960E945D
:1020F000E00F84EB98E16FEE73E00E942743A3CFDB
:1021000068EE73E00E94710ECE0143960E94910F1B
:10211000CE0103960E94E00F84EB98E160E074E04A
:102120000E94274390CF64E670E00E94710ECE01BA
:102130000E94F40F84EB98E160E174E00E94274371
:1021400082CF43960E946D0F84EB98E162E274E0C7
:102150000E94274384EB98E164E374E00E942743E4
:1021600072CF68EE73E00E94710ECE0143960E941A
:10217000B10F84EB98E169E474E00E94274363CFD8
:1021800043960E947F0F84EB98E16AE574E00E9419
:10219000274384EB98E16BE674E00E94274353CF1A
:1021A00068EE73E00E94710ECE0143960E94910F7B
:1021B000CE010E94EF0FCE0103960E94EA0F84EB3E
:1021C00098E163E874E00E9427433DCF68EE73E036
:1021D0000E94710ECE0106960E94B10FCE010396A9
:1021E0000E94E50F84EB98E164E974E00E942743C4
:1021F0002ACF68EE73E00E94710ECE0106960E940F
:10220000910FCE0103960E94E00F84EB98E165EAFE
:1022100074E00E94274317CF68EE73E00E94710EAE
:10222000CE010E94F40F84EB98E166EB74E00E940B
:10223000274309CF06960E946D0F84EB98E169EC65
:1022400074E00E94274384EB98E16CED74E00E94F7
:102250002743F9CE68EE73E00E94710ECE01069618
:102260000E94B10F84EB98E161EF74E00E94274374
:10227000EACE68EE73E00E94710E8E010A5F1F4F76
:10228000C8010E947F0FC8010E94C00FCE01439673
:102290000E94B10F84EB98E163E075E00E94274350
:1022A000D2CE0F931F93CF93DF938C01EB0184EB7E
:1022B00098E16CEC72E00E94274384EB98E16FE3B5
:1022C00075E00E94084384EB98E1BE014AE050E0CB
:1022D0000E94E942CE010197049708F45DC020975F
:1022E00009F445C084EB98E166EA75E00E94084372
:1022F000D80191966D917C91929784EB98E14AE098
:1023000050E00E94E942D8019196ED91FC9192979C
:10231000E131F10538F5ED57FF4FEE0FFF1F059046
:10232000F491E02D1994CD2BE9F480E190E0D801EF
:1023300092969C938E93919784EB98E166EC75E06E
:102340000E940843D80191966D917C91929784EBFD
:1023500098E14AE050E00E94E942F80110A2C80169
:102360000E94F90FDF91CF911F910F91089584EB97
:1023700098E16DE575E00E94274384EB98E164E8FD
:1023800075E00E94084384EB98E160E070E04AE069
:1023900050E00E94E942A6CF84EB98E16DE575E03C
:1023A0000E94274384EB98E16FE575E00E940843A3
:1023B00084EB98E1BE014AE050E00E94E9428FCFF1
:1023C000CD2B81F6F80112A211A2B6CFC130D105F2
:1023D00049F6F801D2A3C1A3AFCFCD2B19F682E005
:1023E00090E0D80192969C938E939197A5CFCD2B98
:1023F00009F0B8CF83E090E0F80192A381A39CCFCD
:10240000CD2B09F0AFCF84E090E0D80192969C9359
:102410008E93919791CFCD2B09F0A4CF85E090E0DA
:10242000F80192A381A388CFCD2B09F09BCF86E042
:1024300090E0D80192969C938E9391977DCF2297AE
:1024400009F090CF87E090E0F80192A381A374CFC8
:10245000CD2B09F087CF88E090E0D80192969C932D
:102460008E93919769CF239709F07CCF89E090E014
:10247000F80192A381A360CFCD2B09F073CF8AE03E
:1024800090E0D80192969C938E93919755CFCD2B47
:1024900009F068CF8BE090E0F80192A381A34CCFC4
:1024A000CD2B09F05FCF8CE090E0D80192969C9301
:1024B0008E93919741CFCD2B09F054CF8DE090E0D2
:1024C000F80192A381A338CF249709F04BCF8EE077
:1024D00090E0D80192969C938E9391972DCFCD2B1F
:1024E00009F040CF8FE090E0F80192A381A324CFC0
:1024F0000F931F93CF93DF938C01EC01A796CE012E
:102500000E94BE34882329F4DF91CF911F910F914F
:102510000895CE010E94DD34C8010E944B0E88232D
:1025200099F3C80160E070E00E945111DF91CF91F2
:102530001F910F91089564E070E00E945111089579
:1025400063E070E00E945111089562E070E00E9423
:102550005111089561E070E00E94511108956CEDF1
:1025600075E00E941A35089564EA76E00E941A35F3
:10257000089564E175E00E941A350895069664E1B5
:1025800075E00E941A350895069664EA76E00E9486
:102590001A35089506966CED75E00E941A35089577
:1025A000039664EA76E00E941A350895039662EE77
:1025B00074E00E941A35089503966DEC75E00E9450
:1025C0001A3508950F931F938C010E94AF12C80112
:1025D0000E94CA12C8010E94DC121F910F91089537
:1025E00087549F4F0E94E212089567E377E00E94AC
:1025F0001A35089560E476E00E941A35089565EE74
:1026000073E00E941A350895039660E476E00E9414
:102610001A35089503966CED75E00E941A350895F9
:10262000CF93DF93EC01C158DF4F88819981CF5759
:10263000D0408230910509F478C083309105B4F020
:102640008430910509F463C0843091050CF043C0D7
:1026500084EB98E160E376E00E942743CE0160E1DD
:1026600077E20E94170FDF91CF910895009721F133
:102670000197F9F484EB98E167EF75E00E94274336
:1026800084EB98E160E176E00E94274380E090E0EF
:10269000A0E0B0E08D8F9E8FAF8FB8A389A39AA3DF
:1026A000ABA3BCA38DA39EA3AFA3B8A7CE010E94EA
:1026B000F512DF91CF91089584EB98E162EE75E019
:1026C0000E942743CE010E94FF12CE010E940A13EE
:1026D000DF91CF910895059761F784EB98E162E669
:1026E00076E00E942743CE0160ED77E00E94170F4D
:1026F00084EB98E16FE776E00E942743CE010E94C9
:10270000FA12CE010E940A13DF91CF91089584EB53
:1027100098E16AE476E00E942743CE0168EB7BE013
:102720000E94170FDF91CF91089584EB98E16CE13F
:1027300076E00E942743CE0168E873E10E94170FFC
:10274000CE010E940413DF91CF910895CF92DF92C2
:10275000EF92FF920F931F93CF93DF936C01EB01E6
:1027600084EB98E16CEC72E00E94274384EB98E1E3
:102770006CE876E00E94084384EB98E1BE014AE0F1
:1027800050E00E94E942C330D10509F48BC0CE016C
:102790000197029708F49BC02097A1F484EB98E17D
:1027A0006DE575E00E94274384EB98E160EF76E0E9
:1027B0000E94084384EB98E160E070E04AE050E05A
:1027C0000E94E94284EB98E169E177E00E940843C6
:1027D000860101581F4FF8016081718184EB98E1F7
:1027E0004AE050E00E94E942F801E080F180F2E026
:1027F000EF16F10409F47FC083E0E816F104F4F069
:10280000E4E0EE16F10409F499C0F4E0EF16F104E7
:10281000B4F5C330D10509F4C3C0CD2BB9F484E0BD
:1028200090E0F8019183808384EB98E16BE877E096
:102830000E942743F8018081918191C0E114F10445
:1028400071F091E0E916F10409F467C0DF91CF91CE
:102850001F910F91FF90EF90DF90CF900895C130BE
:10286000D105A1F7F801D183C08384EB98E162E33D
:1028700077E00E942743F8018081918170C085E054
:10288000E816F10419F7CD2B09F7F801118210822F
:1028900084EB98E164EC77E00E942743F8018081A3
:1028A00091815DC084EB98E16DE575E00E9427435E
:1028B00084EB98E163EA76E00E94084384EB98E1B8
:1028C00063E070E04AE050E00E94E9427BCF84EB95
:1028D00098E16DE575E00E94274384EB98E166ED91
:1028E00076E00E94084384EB98E1BE014AE050E0A4
:1028F0000E94E94251CFCD2B09F0A8CF83E090E0B0
:10290000F8019183808384EB98E163E577E00E948E
:102910002743F8018081918122C0C230D10509F09E
:1029200095CFF801D183C08384EB98E165E477E02B
:102930000E942743F8018081918111C0CD2B09F0BD
:1029400085CF85E090E0F8019183808384EB98E166
:102950006AEA77E00E942743F80180819181E816B6
:10296000F90609F473CF84EB98E16CED77E00E94EF
:102970000843F8016081718184EB98E14AE050E0FE
:102980000E94E94281E890E0C80ED91EF60110824B
:102990008FE79FEFC80ED91EC6010E94101356CFB5
:1029A00084E090E0F8019183808384EB98E167E60E
:1029B00077E00E942743F80180819181D0CF62E0C7
:1029C00070E00E94A613089561E070E00E94A613D3
:1029D0000895CF92DF92EF92FF921F93CF93DF93F0
:1029E0007C01162FEC012196CE010E94003594E067
:1029F000C92ED12CCE0CDF1CC6010E940035F70178
:102A000010831123C1F4CE0169E070E00E941436F6
:102A1000C60167E070E00E941436C7010E94C00F33
:102A2000C7010E947F0FDF91CF911F91FF90EF9020
:102A3000DF90CF900895CE016AE070E00E941436D6
:102A4000C60168E070E00E941436E7CF0F931F9331
:102A5000182F092F0E940035812F902F6CE070E015
:102A60000E941436812F902F0E94E50F1F910F9125
:102A700008950F931F93182F092F0E940035812F5F
:102A8000902F6BE070E00E941436812F902F0E94EF
:102A9000F40F1F910F9108950F931F938C010E94C3
:102AA0003915C80103960E942615C801069661E0F3
:102AB0000E94E914C801439660E00E94E914F801FD
:102AC00010A212A211A2C801879662E370E00E94D0
:102AD000EA341F910F910895EF92FF920F931F9385
:102AE0008C010E94003533E0E32EF12CE00EF11E44
:102AF000C7010E940035C80106960E940C0DC8014E
:102B000089589F4F62E370E00E94EA3401581F4FDA
:102B1000F801119211921192119211921192119247
:102B20008F0180E090E0A0E0B0E080839183A283F9
:102B3000B38306581040C70166E070E00E94143667
:102B4000C80164E070E00E941436C8010E940A13B4
:102B5000C8010E94FF12C8010E9410131F910F911B
:102B6000FF90EF9008950F931F93CF93DF93EC01A5
:102B7000C356DF4F88819981CD59D040843091056B
:102B800009F4E8C0853091057CF18730910509F49E
:102B900007C1883091050CF466C08B30910509F4AB
:102BA000A7C0819709F05AC084EB98E167E279E009
:102BB0000E942743CE0168E873E10E94C20E84EBB5
:102BC00098E163EB78E00E940843C458DF4F6881C6
:102BD000798184EB98E14AE050E00E94E942DF917C
:102BE000CF911F910F9108958130910509F485C00F
:102BF000823091050CF449C08230910509F4B4C0CB
:102C0000039761F584EB98E167EF78E00E94274332
:102C100084EB98E168E378E00E94084384EB98E154
:102C20006DE478E00E94274384EB98E161E678E068
:102C30000E940843C756DF4F68817981C959D04047
:102C400084EB98E14AE050E00E94E942CE0160E165
:102C500077E20E94C20ECE010E94B412DF91CF91A2
:102C60001F910F91089585309105D9F00697B1F71E
:102C700084EB98E167EB79E00E942743CE010E9444
:102C8000CA12CE010E94DC12E9CF892B39F784EBFE
:102C900098E163EF77E00E942743CE010E94E212A1
:102CA000DDCF84EB98E160E979E00E94274384EB73
:102CB00098E168E378E00E9408438E0103571F4FB4
:102CC000F801408151816281738184EB98E12AE0AF
:102CD00030E00E94C242F80160817181CE010E9401
:102CE000C20ECE010E94C412CE010E94D612B6CFEF
:102CF00084EB98E169E778E05BCF84EB98E168E0EA
:102D000078E00E94274384EB98E168E378E00E9432
:102D1000084384EB98E16DE478E00E94274384EB5C
:102D200098E161E678E00E940843C756DF4F68816A
:102D30007981C959D04084EB98E14AE050E00E9483
:102D4000E942CE0160E177E20E94C20ECE010E940C
:102D5000B91284CF84EB98E161E679E00E942743C1
:102D6000CE010E94AF127ACF84EB98E168EC78E054
:102D70000E94274384EB98E163EB78E00E940843CC
:102D8000C458DF4F68817981CC57D04084EB98E1FB
:102D90004AE050E00E94E942CE010E94AF125ECFAD
:102DA00084EB98E16DED79E00E9427438E01035793
:102DB0001F4FF80160817181CE010E94C20E84EB29
:102DC00098E168E378E00E940843F801408151816E
:102DD0006281738184EB98E12AE030E00E94C24274
:102DE000CE010E94BE12CE010E94D01237CF2F9288
:102DF0003F924F925F926F927F928F929F92AF928B
:102E0000BF92CF92DF92EF92FF920F931F93CF93D7
:102E1000DF933C01EB0184EB98E16CEC72E00E94E3
:102E2000274384EB98E16CE876E00E94084384EB4A
:102E300098E1BE014AE050E00E94E942CE010897C5
:102E4000039708F4E8C0C330D10549F0C130D1057B
:102E500031F0C530D10519F0C430D10599F484EBB7
:102E600098E16DE575E00E94274384EB98E164E307
:102E70007AE00E94084384EB98E1BE014AE050E00A
:102E80000E94E942CE010697029708F46EC0CB304B
:102E9000D10509F46AC0C730D10509F47DC0CC3032
:102EA000D10509F415C1CD30D10509F4C8C020976A
:102EB000A1F484EB98E16DE575E00E94274384EB73
:102EC00098E16EE17BE00E94084384EB98E160E0CA
:102ED00070E04AE050E00E94E94284EB98E167E448
:102EE0007BE00E9408436DE9862E912C860C971C8E
:102EF000D4016D917C9184EB98E14AE050E00E940E
:102F0000E942F40140805180F4E04F16510409F485
:102F1000F4C025E0421651040CF053C031E04316D2
:102F2000510409F424C182E0481651040CF4B9C0DC
:102F300092E04916510409F4D5C1A3E04A165104A0
:102F400009F49EC1DF91CF911F910F91FF90EF90F7
:102F5000DF90CF90BF90AF909F908F907F906F90B9
:102F60005F904F903F902F90089584EB98E16DE52E
:102F700075E00E94274384EB98E16CE57AE00E94BB
:102F8000084384EB98E1BE014AE050E00E94E94228
:102F9000C730D10509F083CF84EB98E16DE575E08A
:102FA0000E94274384EB98E16BE87AE00E94084393
:102FB00084EB98E167E070E04AE050E00E94E9426B
:102FC0008CCFB7E04B16510409F4BEC0E8E04E16B2
:102FD00051040CF449C03BE04316510409F49EC06F
:102FE00081E24816510409F0ADCFCC30D10509F487
:102FF000DAC2CD2B09F0A6CF84E090E0F4019183F2
:10300000808384EB98E16CE27EE00E942743D40148
:103010008D919C9146C184EB98E16DE575E00E942D
:10302000274384EB98E166E07AE00E94084384EB52
:1030300098E1BE014AE050E00E94E94204CF84EBEF
:1030400098E16DE575E00E94274384EB98E166EE18
:103050007AE00E94084384EB98E16DE070E04AE07A
:1030600050E00E94E94239CFF5E04F16510409F4CF
:10307000A1C026E04216510409F064CFC730D10543
:1030800009F44BC22B9709F05DCFE4011982188235
:1030900084EB98E165E57DE00E9427438881998172
:1030A00000C14114510409F04DCFC130D10509F4DC
:1030B0001BC2C330D10509F4FBC1C430D10509F4EA
:1030C0004FC1259709F461C2D4018D919C91E9C04B
:1030D00084EB98E16DE575E00E94274384EB98E16D
:1030E0006FEA7AE00E94084384EB98E16CE070E0BC
:1030F0004AE050E00E94E942F0CEC730D10509F421
:103100009DC12B9709F01ECFD4011D921C9284EB18
:1031100098E165E57DE00E942743C0C0CC30D10531
:1031200009F4B8C1CD2B09F00DCF82E090E0F40195
:103130009183808384EB98E161EE7CE00E942743D9
:10314000D4018D919C91ADC0CD2B09F0FBCEF40143
:103150001182108284EB98E16FE37FE00E942743A5
:1031600084EB98E162E07CE00E942743ADCFCD3054
:10317000D10509F414C1209709F4D8C0C830D1058D
:1031800009F4E9C1269709F089C08BE090E0F401C9
:103190009183808384EB98E164E67CE00E9427437E
:1031A00084EB98E166EA7CE00E942743D4018D918C
:1031B0009C9177C0209709F402C1CA30D10509F467
:1031C000BDC0C630D10509F0BDCEF401D183C083A6
:1031D0005DE8252E312C260C371CD101ED90FD9099
:1031E0000D911C91C9E8D0E06C0E7D1EF301A0800A
:1031F000B180C280D38027E73FEF620E731E0E942A
:10320000CF44AE0CBF1CC01ED11EA61AB70AC80AF6
:10321000D90AF301EF56FF4FA082B182C282D38256
:103220001A141B041C041D040CF0D1C185E990E0A4
:10323000680E791EE30188819981AA81BB812BE602
:103240003FEF620E731E2081318142815381820FD4
:10325000931FA41FB51FE10188839983AA83BB83B1
:1032600084EB98E166EF7EE00E94274384EB98E1CF
:1032700066EA7CE00E942743F4018081918111C0BD
:10328000CD30D10509F48BC0209709F43FC0C93077
:10329000D10509F472C1269709F465C1E40188815A
:1032A00099814816590609F44DCE84EB98E16CEDEE
:1032B00077E00E940843E4016881798184EB98E11A
:1032C0004AE050E00E94E942EFE9F0E06E0E7F1E16
:1032D000D3011C92C1E6DFEF6C0E7D1EC3010E947C
:1032E000B31530CEC730D10509F47CC02B9709F057
:1032F00029CED4011D921C9284EB98E165E57DE016
:103300000E942743E40188819981CBCFD4011D928B
:103310001C9284EB98E162E67DE00E94274384EBF7
:1033200098E162E07CE00E942743B8CFD4011D926F
:103330001C9284EB98E16CE07CE0EFCFE401198211
:10334000188284EB98E168EC7EE00E94274384EBCE
:1033500098E162E07CE00E94274388819981A1CFB7
:1033600085E090E0E401998388830E94CF44E9E8F6
:10337000F0E06E0E7F1ED3016D937D938D939C9331
:103380001397C7E7DFEF6C0E7D1E84EB98E167E9CA
:103390007BE00E942743F4018081918182CFF40178
:1033A0001182108284EB98E16DEC7BE00E94274350
:1033B00084EB98E162E07CE00E9427436FCFF40148
:1033C0001182108284EB98E160EA7EE00E9427433C
:1033D00084EB98E162E07CE00E942743D4018D9168
:1033E0009C915FCF81E090E0E40199838883F301B1
:1033F000E458FF4F208131818BE990E0680E791EFF
:10340000D3012D933C93C5E6DFEF6C0E7D1E118238
:103410001082F301E756FF4F80819181821B930B4D
:103420009183808397FDCDC084EB98E162E37DE0DA
:103430000E942743F4018081918133CF83E090E0A3
:10344000E40199838883F301E458FF4F208131819F
:103450008BE990E0680E791ED3012D933C93C5E66D
:10346000DFEF6C0E7D1E11821082F301E756FF4FD5
:1034700080819181821B930B9183808397FDA4C0EF
:1034800084EB98E16DE77EE00E942743F4018081A0
:10349000918107CF82E090E0E4019983888384EBF7
:1034A00098E16EEA7CE00E94274388819981F9CEF9
:1034B000D401CD93DC930E94CF44C9E8D0E06C0ED8
:1034C0007D1EF301608371838283938327E73FEF3F
:1034D000620E731E84EB98E16CE77BE00E94274349
:1034E000D4018D919C91DDCED401CD93DC930E94CB
:1034F000CF44C9E8D0E06C0E7D1EF3016083718378
:103500008283938327E73FEF620E731E84EB98E17B
:1035100061E67BE00E942743D7CD85E090E0D401AF
:103520008D939C930E94CF44C9E8D0E06C0E7D1E21
:10353000F301608371838283938327E73FEF620EF9
:10354000731E84EB98E16DE17FE00E942743D40174
:103550008D919C91A6CEF4011182108284EB98E1AA
:1035600065E37CE033CF81E290E0F40191838083D6
:1035700084EB98E16AEB7DE011CEF40111821082B8
:1035800084EB98E16BE87DE021CF87E090E0E401F7
:103590009983888384EB98E161EB7BE00E94274369
:1035A000888199817ECE84E090E0E40199838883CC
:1035B00084EB98E169EF7DE00E942743888199813F
:1035C00070CE1182108230CF1182108259CF1082BA
:1035D0001182128213822ACE67E070E00E94F716F1
:1035E000089566E070E00E94F71608956BE070E0C1
:1035F0000E94F7160895FC01E357FF4F4083518363
:1036000062837383ED58F040CF0163E070E00E9465
:10361000F7160895FC01E357FF4F408351836283FF
:103620007383ED58F040CF0164E070E00E94F7161C
:103630000895FC01E357FF4F80E29EE4A0E0B0E074
:1036400080839183A283B3833C96718360837D974B
:1036500011821082EC57F040CF0161E070E00E94CF
:10366000F7160895FC01E357FF4F80E29EE4A0E0C7
:10367000B0E080839183A283B3833C96718360839F
:103680007D9711821082EC57F040CF0163E070E02B
:103690000E94F7160895FC01E357FF4F88E99AE36B
:1036A000A0E0B0E080839183A283B383ED58F04023
:1036B000CF0164E070E00E94F7160895FC01E45821
:1036C000FF4F118210827D9686E090E09183808387
:1036D0003C9788E99AE3A0E0B0E080839183A283DD
:1036E000B383ED58F040CF0163E070E00E94F7161D
:1036F0000895FC01E458FF4F118210827D9686E008
:1037000090E0918380833C9788E99AE3A0E0B0E061
:1037100080839183A283B383ED58F040CF0161E0B1
:1037200070E00E94F7160895AF92BF92CF92DF9299
:10373000EF92FF920F931F937C0104EB18E1C801F5
:1037400069E67FE00E940843C70148960E946139FC
:10375000682FC80170E04AE050E00E94D642EDE5D3
:10376000CE2EE5E0DE2EC801B6010E940843C70157
:1037700043960E946139682FC80170E04AE050E02A
:103780000E94D64276EFA72E72E0B72EC801B5018F
:103790000E940843C70109960E946139682FC80139
:1037A00070E04AE050E00E94D642C801B6010E9493
:1037B0000843C7010E960E946139682FC80170E066
:1037C0004AE050E00E94D642C801B5010E94084379
:1037D000C7014D960E946139682FC80170E04AE028
:1037E00050E00E94D642C801B6010E940843C701BA
:1037F00082960E946139682FC80170E04AE050E06B
:103800000E94D642C8010E94A9411F910F91FF90CA
:10381000EF90DF90CF90BF90AF900895EF92FF921E
:103820000F931F93CF93DF937C0184EB98E163E7C1
:103830007FE00E94274384EB98E16BE97FE00E94E0
:1038400008438091391590913A15009709F45CC0AE
:10385000019709F466C084EB98E165EB7FE00E9474
:1038600008436091391570913A1584EB98E14AE06C
:1038700050E00E94E94287010B581F4FC0E0D0E0A2
:103880000DC0019769F165E070E080E090E00E9472
:10389000044581E0C53FD80709F44AC0C8010E9429
:1038A0006139882309F5219684EB98E1BE014AE04D
:1038B00050E00E94D64284EB98E16DE575E00E94ED
:1038C00008438091391590913A150097D1F6C701B8
:1038D0000E94B4128091391590913A15019799F68A
:1038E000C7010E94B912CFCFC7010E94AF1284EB6B
:1038F00098E164ED7FE00E942743DF91CF911F9113
:103900000F91FF90EF90089584EB98E167EA7FE0D4
:103910000E9427438091391590913A15019709F03B
:103920009ACF84EB98E16EEA7FE00E94274393CF21
:1039300084EB98E160EC7FE00E942743C7010E947E
:10394000AF12DF91CF911F910F91FF90EF900895EB
:10395000EF92FF920F931F93CF93DF93EC010696A4
:103960000E947507F6E8EF2EF12CEC0EFD1E8D8DF2
:103970009E8DAF8DB8A1F70180839183A283B3831D
:103980008E0109581F4FC8010E94BE34882339F4A4
:10399000DF91CF911F910F91FF90EF900895C80193
:1039A0000E94DD34CE010E94EC0E8823C9F5C15877
:1039B000DF4F88819981CF57D040039749F784EB37
:1039C00098E16AEE7FE00E940843F701408151814F
:1039D0006281738184EB98E122E030E00E947444BC
:1039E000F701E080F18002811381C801B70120E076
:1039F00030E040E050E00E947C481816BCF4C8015A
:103A0000B70120E030E040E850E40E942D478823D1
:103A10000CF0BECFCE0163E070E00E94A613B8CFD9
:103A2000CE0160E070E00E94A613C1CFC801B701CB
:103A300020E030E040E850EC0E947C48181654F337
:103A4000A7CFEF92FF920F931F937C0104EB18E135
:103A5000C8016BEF7FE00E94084383E40E949B450E
:103A6000BC01C8014AE050E00E94D642C80168E0AB
:103A700070E10E940843C70108960E946139682FCF
:103A8000C80170E04AE050E00E94D642C80167E1F8
:103A900070E10E940843F70167857089C8014AE018
:103AA00050E00E94E9421F910F91FF90EF9008951E
:103AB0001F93CF93DF93EC010E94BE34882321F43F
:103AC000DF91CF911F910895CE010E94DD34898945
:103AD0008823B1F4CE0108960E946139882351F001
:103AE00011E01D878E85882359F7CE010E94410F72
:103AF0001E87E6CF1D861E86DF91CF911F91089508
:103B0000CE010E94211DE6CFEF92FF920F931F93EB
:103B1000CF93DF938C01A8E2EA2EF12CE80EF91E78
:103B2000C7010E94EC0DC80183599F4F0E94581D88
:103B3000E801CF57DF4FCE010E94BE34882339F40D
:103B4000DF91CF911F910F91FF90EF900895CE01DB
:103B50000E94DD34F80187A1882309F086C0C801DE
:103B60000E94970E882309F07AC0E801C356DF4F00
:103B7000888199818530910509F45EC08130910575
:103B8000C1F18B30910509F47EC08132910509F4B1
:103B900070C00397A9F60C551F4FF8018081045A95
:103BA0001040882309F093C0C80182960E946139B1
:103BB000882309F0C6C0F801E756FF4F04581F4F8D
:103BC00020813181F801808191810C57104082174A
:103BD00093070CF4B5CFC8018B589F4F0E946139F1
:103BE000882309F4ADCFC8016DE070E00E94F7169C
:103BF000A7CF0C551F4FF8018081045A104088232D
:103C000009F077C0C80148960E946139882309F0FD
:103C1000B2C0F801E756FF4F04581F4F2081318191
:103C2000F801808191810C571040821793070CF0A6
:103C300040C088819981A5CF0C551F4FF801808124
:103C4000045A1040882309F068C0C8010E960E94EB
:103C50006139882309F082C0888199818FCFC8019A
:103C600060E070E00E94F71680CFC8010E94941BAC
:103C700076CFC8018B589F4F0E946139882399F4F1
:103C80008881998186CFC8018B589F4F0E946139E6
:103C9000882319F48881998178CFC8016CE070E09D
:103CA0000E94F716F7CFC8016CE070E00E94F7168B
:103CB000E7CFC8018B589F4F0E946139882309F4D0
:103CC000B8CFC8016DE070E00E94F716B2CFC7010F
:103CD0000E944507882309F467CFC80166E070E0B9
:103CE0000E94F71684EB98E16EE470E10E9427438E
:103CF00027CFC7010E945507882309F483CFC80145
:103D000066E070E00E94F71684EB98E168E370E1EA
:103D10000E9427438881998134CFC7010E943307CD
:103D2000882309F492CFC80166E070E00E94F7167C
:103D300084EB98E164E270E10E94274388819981D5
:103D40001DCFC8014D960E946139882309F433CFF5
:103D5000C80169E070E00E94F716F2CEC80109962A
:103D60000E946139882309F477CFC8016AE070E0C6
:103D70000E94F71671CFC80143960E9461398823CB
:103D800009F447CFC80168E070E00E94F716888107
:103D90009981F7CE0F931F938C010E947812C8016E
:103DA00087549F4F0E94841DC8018F960E94A81CB3
:103DB0001F910F910895EF92FF920F931F938C0123
:103DC0006AE070E00E94EA34B8E0EB2EF12CE00EDD
:103DD000F11EC70163E470E042E152E00E945439F1
:103DE000F80115861686118A108A1786C7010E9467
:103DF0005B391F910F91FF90EF900895AF92BF92A2
:103E0000CF92DF92EF92FF920F931F938C010E944B
:103E1000003523E0C22ED12CC00ED11EC6010E9457
:103E2000003596E0A92EB12CA00EB11EC5010E944E
:103E30000035C80109966EE370E048E552E00E9443
:103E40005439C8010E966FE370E048E552E00E94D5
:103E50005439C80143966CE370E048E552E00E9493
:103E60005439C801489660E470E048E552E00E9489
:103E70005439C8014D966DE370E048E552E00E9468
:103E80005439C801829661E470E048E552E00E942E
:103E90005439F80117A2C80188960E941C0EC80167
:103EA00083599F4F0E94DB1EC8018F579F4F64E1CB
:103EB00070E00E94EA3407571F4FF80111921192E7
:103EC00011921192119211921192119211921192DA
:103ED0001192119288EE93E0A0E0B0E0819391936B
:103EE000A193B19311921192119211921192119288
:103EF00011928F011082118212821382005A104097
:103F000084EAE82EF12CE00EF11EF70110820B5529
:103F10001F4FF8011082055A1040C80165E070E09B
:103F20000E941436C60162E070E00E941436C5019A
:103F300063E070E00E941436C8010E940E1CF80174
:103F400017A2C8010E94E212F7011082C8010E9464
:103F5000B31584EB98E164E670E10E9427431F915A
:103F60000F91FF90EF90DF90CF90BF90AF900895AA
:103F70000F931F938C010E944C15C8018F960E94CD
:103F80006C15C80187549F4F0E94FE1E1F910F9110
:103F90000895FC0188E6808308952F923F924F9206
:103FA0005F926F927F928F929F92AF92BF92CF92C9
:103FB000DF92EF92FF920F931F935C014B013A0146
:103FC000290118019C012F5F3F4F0091711410913E
:103FD0007214FC0180816BE34EE00E948305F501C1
:103FE000918180E0228130E0822B932BF401918338
:103FF0008083F501938180E0248130E0822B932B34
:10400000F30191838083F501958180E0268130E082
:10401000822B932BF20191838083F501918580E0BF
:10402000228530E0822B932BF10191838083F5016F
:10403000938580E0248530E0822B932BF7019183D8
:104040008083F501958580E0268530E0822B932BD7
:10405000F601918380831F910F91FF90EF90DF9085
:10406000CF90BF90AF909F908F907F906F905F9018
:104070004F903F902F900895FC01262F80816BE692
:1040800046E00E949E060895FC01AB01808167E135
:104090000E942C050895FC01AB01808165E10E941E
:1040A0002C050895FC01AB01808163E10E942C0581
:1040B0000895FC01AB0180816AE00E942C050895FF
:1040C000FC01AB01808168E00E942C050895FC0191
:1040D000AB01808166E00E942C0508950F93FC01DE
:1040E000062F80816BE642E023E00E9454060F9188
:1040F00008950F93FC01062F80816CE144E022E0DB
:104100000E9454060F9108950F93FC01062F8081A1
:104110006BE144E022E00E9454060F9108950F9352
:104120001F938C0161E00E946E20C80160E00E9434
:104130008420C80160E00E947920C80160E00E94EC
:104140003C201F910F910895CF93DF93EC01862FB0
:1041500090E0FC01E25BFC4FE491EC83A42FB0E023
:10416000FD01E25BFC4FE491ED83885F9C4FFC0115
:10417000449150E0440F551FFA01EC52FD4F8591D8
:1041800094919F838E83A85FBC4FFD018491E82F9B
:10419000F0E0EE0FFF1FE251FD4F859194919B8758
:1041A0008A87FA01E654FD4F859194919987888713
:1041B000A901F1E0253F3F0714F044EF51E09A01D7
:1041C000220F331F220F331F220F331FC901880F05
:1041D000991F880F991F880F991F821B930B840FBB
:1041E000951F4C969D878C87DF91CF9108951F92E4
:1041F0000F920FB60F920BB60F9211242F933F938D
:104200004F935F936F937F938F939F93AF93BF93DE
:10421000EF93FF93E0913B15F0913C15309709F037
:104220001995FF91EF91BF91AF919F918F917F91E0
:104230006F915F914F913F912F910F900BBE0F9017
:104240000FBE0F901F901895CF93DF93EC01E88578
:10425000F98580819C81892B8083EE81FF8190810B
:104260008C8180958923808384E090E00E942F4593
:10427000EE81FF8180819C81892B80838AE090E0A0
:104280000E942F45EE81FF8190818C81809589234A
:104290008083E885F98590818C818095892380834E
:1042A0000E94DD44605B794B8F4F9F4F6E877F8705
:1042B000888B998BEA85FB85808190E04D81242F46
:1042C00030E082239323892BD9F4242F03C02D813E
:1042D000EA85FB85808130E090E028233923232B79
:1042E000F1F40E94DD442E853F85488959892617BF
:1042F00037074807590758F780E0DF91CF910895B5
:104300000E94DD442E853F85488959892617370745
:104310004807590778F6EA85FB854D81D6CF0E947C
:10432000DD442C853D8540E050E0260F371F481FB7
:10433000591F2E873F87488B598B81E0DF91CF91A2
:104340000895CF93DF93EC010E9424218823A9F0E4
:10435000EA85FB85208130E08D8190E02823392398
:10436000232B89F00E94DD442E853F854889598999
:10437000261737074807590758F740E050E0CA01A9
:10438000DF91CF9108950E94DD444C855D854550B5
:1043900050402E853F85421B530B460F571FCA01C5
:1043A000DF91CF9108950E94A1219C014C9669E371
:1043B00070E00E94124940E050E0232B11F041E0F0
:1043C00050E09B016417750708F49A01C90108952C
:1043D000FC018CEB94E1918380830895FC01A08122
:1043E000B18116978D919C918E0F9F1F0E94F9218C
:1043F0000895FC018AEA94E1918380838CEB94E137
:10440000978386830895DC0113968D919C91149770
:10441000892B91F01596ED91FC91169717968D9139
:104420009C911897E817F90739F0819190E016965A
:10443000FC93EE9315970895ED91FC9111970488E4
:10444000F589E02DCD0119950895FC0184EE94E1E4
:10445000918380830895CF93DF93EC01E881F98104
:104460000288F389E02D19959C018FEF2F3F3807C3
:1044700029F08D819E8101969E838D83C901DF91F4
:10448000CF910895CB0108958FEF9FEF089580E0BD
:1044900090E0089508950895DC01242FED91FC919A
:1044A0000084F185E02D41E01995089580E090E0C9
:1044B0000895FC012289338980899189281B390B51
:1044C00086899789281B390BC9010895CF92DF92FD
:1044D000EF92FF920F931F93CF93DF93EC016B0149
:1044E00079018A01AE89BF89688979898A899B891E
:1044F000861B970BA817B90778F020E030E040E062
:1045000050E0B901CA01DF91CF911F910F91FF9047
:10451000EF90DF90CF90089512161306140615063B
:1045200064F720E030E040E050E0F601E20FF31FD6
:104530006A0F7B1FDB018C9180832F5F3F4F4F4FB2
:104540005F4FAE89BF891196BF8BAE8B6889798921
:104550008A899B89861B970BA817B90790F62E1599
:104560003F05400751076CF6E0CFFC0126893789EB
:10457000A089B189828993898A1B9B0B28173907E7
:1045800038F4A20FB31F8C91282F30E0C901089591
:104590002FEF3FEFC9010895CF93DF93EC01E8813E
:1045A000F9810288F389E02D19959C018FEF2F3F47
:1045B000380729F08E899F8901969F8B8E8BC901C0
:1045C000DF91CF910895CF93DF93DC0156964D9103
:1045D0005C9157974115510511F15096CD91DC91A1
:1045E000519752962D913C9153972C1B3D0B2417BC
:1045F0003507B0F18FEF6F3F7807B9F0FE01E40F98
:10460000F51F319780818617E1F44150504057964D
:104610005C934E935697CB01DF91CF9108956FEF46
:104620007FEFCB01DF91CF910895415050405796D5
:104630005C934E93569760E070E0CB01DF91CF9191
:1046400008951F968C911F9784FFE9CFCA010197A7
:1046500057969C938E935697C80FD91F6883DBCFCC
:1046600057963C932E9356976FEF7FEFD4CF80E011
:1046700090E0089580E090E0089580E090E0089553
:1046800080E090E0089560E070E080E090E00895C0
:104690006F927F929F92AF92BF92CF92DF92EF92F2
:1046A000FF920F931F93CF93DF93EC013B015901CE
:1046B0006A0112161306140615060CF050C0EE24FB
:1046C000FF24870117C0EB85FC858D859E85E81743
:1046D000F90748F590828B859C8501969C878B878E
:1046E0000894E11CF11C011D111DEA14FB040C05CA
:1046F0001D05ACF5F301EE0DFF1D90808F8580FF49
:10470000E2CFE881F9810084F185E02DCE0160E0FF
:1047100070E044E020E11995EB85FC858D859E8550
:10472000E817F907B8F2E881F981028CF38DE02DE2
:10473000CE01692D70E019958F5F9F4F89F6B70103
:10474000C801DF91CF911F910F91FF90EF90DF9003
:10475000CF90BF90AF909F907F906F90089586010B
:104760007501EDCFCB010895EF92FF920F931F9348
:10477000CF93DF937C018B01EA0164177507A9F0E1
:10478000FC01428153814F5F5F4F4C1B5D0BCB019E
:10479000BE010E94480398012C1B3D0BF70182814A
:1047A0009381820F931F93838283C801DF91CF91FE
:1047B0001F910F91FF90EF9008950F931F938B011E
:1047C00081E090E00E946903FC011082F8011082F0
:1047D0001F910F910895FC01A081B18116978D91D1
:1047E0009C918E0F9F1F0E94F6230895FC018AEA78
:1047F00094E1918380838CEB94E197838683CF014E
:104800000E946F410895FC018CEB94E191838083B9
:10481000CF010E946F410895FC0184EE94E19183E1
:104820008083CF010E946F410895CF93DF93EC0105
:1048300084EC94E199838883288939898C899D89BE
:104840008217930719F0C9010E94C90284EE94E10E
:1048500099838883DF91CF910895CF93DF93EC0103
:1048600084EC94E199838883288939898C899D898E
:104870008217930719F0C9010E94C90284EE94E1DE
:1048800099838883CE010E946F41DF91CF91089573
:10489000FC01A081B18116978D919C918E0F9F1F75
:1048A0000E9453240895CF93DF93EC0182E894E1B2
:1048B000998388830A9699A388A384EC94E19F83C3
:1048C0008E832E893F898A8D9B8D8217930719F0DD
:1048D000C9010E94C90284EE94E19F838E83E09116
:1048E0007614F0917714F983E88336970190F0817C
:1048F000E02DEC0FFD1F8091781490917914918335
:1049000080838CEB94E199A388A3CE010E946F4130
:10491000DF91CF910895FC01A081B18116978D910F
:104920009C918E0F9F1F0E9496240895CF93DF9332
:10493000EC0182E894E1998388830A9699A388A37D
:1049400084EC94E19F838E832E893F898A8D9B8D91
:104950008217930719F0C9010E94C90284EE94E1FD
:104960009F838E83E0917614F0917714F983E88326
:1049700036970190F081E02DEC0FFD1F80917814A7
:1049800090917914918380838CEB94E199A388A30F
:10499000DF91CF910895AF92BF92CF92DF92EF92C5
:1049A000FF920F931F93CF93DF936C01DC0112965C
:1049B000ED91FC9113974D915C91DF01A41BB50B18
:1049C000CB016A177B0708F4CD015C010894A11C98
:1049D000B11CA114B104C9F5EE24FF248F01041BFE
:1049E000150BC701BA01A8010E944803E701C00FD7
:1049F000D11F81E090E0BE010E946903FC0110829A
:104A00001882F60120813181848195818217930774
:104A100019F0C9010E94C902D6011196FC92EE92CA
:104A20001396DC93CE931297AE0CBF1C1596BC92D6
:104A3000AE921497DF91CF911F910F91FF90EF905D
:104A4000DF90CF90BF90AF900895C5010E941F02E4
:104A5000009779F07C01D6011296ED91FC911397A5
:104A60004D915C91BBCF1995C5010E941F02009723
:104A700089F7E0913D15F0913E153097A1F780E060
:104A800090E00E945949FF920F931F93CF93DF93B9
:104A90008C01F62EDC0112962D913C911397E901C1
:104AA000219614968D919C911597C817D907E9F016
:104AB00081E090E0BE010E946903FC01108218822F
:104AC000D8011296ED91FC911397F08212968D9178
:104AD0009C911397019613969C938E931297DF9156
:104AE000CF911F910F91FF9008958D919C91F901A5
:104AF000E81BF90BCF0171F461E070E0680F791FDA
:104B0000C8010E94CB24D8011296CD91DC91139755
:104B10002196CECFBF01F2CF0F931F93CF93DF9398
:104B20008C01EB018FEF6F3F780741F4C0E0D0E0DC
:104B3000CE01DF91CF911F910F910895D8011F965B
:104B40008C9184FF1AC0F801208D318D0088F18985
:104B5000E02DD80152968D919C9153978E1B9F0BFF
:104B60002817390768F4E20FF31F6083F801808D7E
:104B7000918D0196918F808FDBCFCFEFDFEFD8CF74
:104B8000C80140960E944325F1CFCF92DF92EF9269
:104B9000FF920F931F93CF93DF938C01FB0130E0C3
:104BA000C90188719070489709F4DBC0C901887009
:104BB000907020713070413009F4B4C0423009F473
:104BC0006DC0D80152964D915C91539750966D915E
:104BD0007C915197DA01A61BB70BEF01CA0FDB1FBF
:104BE000AC17BD0708F479C0892B19F0F801D78BF1
:104BF000C68B232B09F48BC080E1C82ED12CC00EAC
:104C0000D11E9A01261B370B2C173D0708F068C0F0
:104C10007E01E21AF30AF801848995890197861BBF
:104C2000970B8C179D0778F4B701E216F30608F48A
:104C300096C0620F731FC6010E94CB24D801529602
:104C40004D915C915397E114F10409F453C09A011A
:104C50002F5F3F4FFA01EE0DFF1DE21BF30BC90161
:104C600060E070E0AF010E945A03F8016289738925
:104C70006E0D7F1DC6010E94DD23D8015296ED9175
:104C8000FC915397108252964D915C9153974E0D23
:104C90005F1D53965C934E9352972CC0211531059E
:104CA00009F04EC0C0E0D0E0D80150966D917C91E3
:104CB000519752964D915C915397009739F0D801D6
:104CC0005696CD91DC915797CE0FDF1FDA01A61BC8
:104CD000B70BAC17BD0708F087CF2FEF3FEF18C019
:104CE0006C0F7D1FC6010E94B423D80152964D91CE
:104CF0005C915397F801808991899A01281B390B9F
:104D0000868997892817390710F4378B268B9E01DF
:104D1000C901DF91CF911F910F91FF90EF90DF902C
:104D2000CF900895EF01D80150966D917C915197E5
:104D300052964D915C915397DA01A61BB70B50CF59
:104D4000D80152964D915C91539750966D917C91FC
:104D50005197EA01C61BD70BCE0FDF1FAECFB901AB
:104D600068CF423009F022CFB8CF8F929F92AF9296
:104D7000BF92DF92EF92FF920F931F93CF93DF9337
:104D80005C017B01DC01CD91DC912697E881F98102
:104D90002696E80FF91F018912890115110501F105
:104DA000D801ED91FC9136970190F081E02DE00F54
:104DB000F11FA389B489ED91FC9111970484F585C5
:104DC000E02DCD0119958F5F9F4F09F4E7C0F501E4
:104DD000C081D1812697E881F9812696EA0DFB1DD5
:104DE000A389B48913968D919C911497892B09F40A
:104DF000B2C01596ED91FC91169717968D919C91E6
:104E00001897E817F90709F4A6C0808190E00E947E
:104E10004E49892B09F084C0269728813981F501F4
:104E2000E20FF31F83889488D701ED91FC911197CD
:104E300012968D919C911397E817F90771F01082E3
:104E40008D919C91119713969C938E931297D501F7
:104E5000ED91FC91369720813181F9013296EA0D6E
:104E6000FB1D22853385448555851286138614865D
:104E70001586E9012115310509F0E9C00EEF1FEF94
:104E80001EC081E090E0BE010E946903FC01108217
:104E90001882D7011296ED91FC911397D082129649
:104EA0002D913C9113972F5F3F4F13963C932E9378
:104EB00012970115110509F4B5C001501040C40145
:104EC0000E940322BFEF8F3F9B0709F4C6C0D82E74
:104ED000992787FD90950E944E49892B09F070C053
:104EE000F70122813381E901219684819581C817D8
:104EF000D90739F680819181A901481B590BCA0154
:104F000009F0A3C061E070E0680F791FC7010E943B
:104F1000CB24D7011296CD91DC9113972196B1CF76
:104F20002697E881F981EA0DFB1D838994890E9407
:104F30000322D501CD91DC912697E881F98126964F
:104F4000EA0DFB1DA389B48913968D919C9114974A
:104F5000892B09F04ECFED91FC9111970288F389CE
:104F6000E02DCD011995BFEF8F3F9B0709F0C0C021
:104F7000D501ED91FC91119736970190F081E02DCC
:104F8000EA0DFB1D2581322F326083899489892B9C
:104F900009F48AC03583CD91DC913ECFD801ED91E3
:104FA000FC9136970190F081E02DE00FF11F2581F3
:104FB000216083899489892B09F47CC0258307CFDC
:104FC000F401238134812115310551F085819681C9
:104FD0002817390729F0FC018291D81609F474C00A
:104FE000D401ED91FC910688F789E02DC4016D2D67
:104FF00070E019958F5F9F4F91F4D501ED91FC9171
:1050000036970190F081E02DEA0DFB1D2581322FAE
:10501000346083899489892B09F44EC03583F70164
:1050200022813381F701808191812817390751F15D
:10503000C501DF91CF911F910F91FF90EF90DF900D
:10504000BF90AF909F908F900895BA015DCFC70138
:10505000B9010E94CB248E0130CFD501ED91FC9196
:1050600036970190F081E02DEA0DFB1D2581322F4E
:10507000326083899489892B81F13583F7012281FC
:105080003381D0CFD501ED91FC9136970190F0811D
:10509000E02DEA0DFB1D2581322F34608389948930
:1050A000892B19F13583C4CF23602583F501C08195
:1050B000D181B2CE25833DCF25602583D7011296BD
:1050C0002D913C911397AECFD4011696FC93EE939D
:1050D0001597F70122813381A5CF23602583D7015E
:1050E00012962D913C9113979DCF25602583A0CFDB
:1050F000F501C081D1818BCE8F929F92AF92BF92EA
:10510000CF92DF92EF92FF920F931F93CF93DF9393
:105110007C018B016A01DC014D915C911197129623
:105120002D913C911397241B350BE601C61BD70B21
:105130002C173D0708F075C0CA01A9010E943F0362
:10514000D7011296ED91FC9113976D917C91119777
:10515000AF01461B570B5801A40EB51ECA14DB0441
:1051600009F451C0E601CA19DB099E01240F351F5D
:1051700014968D919C9115970197861B970B82171A
:10518000930708F081C09A012F5F3F4FCE01C431D1
:10519000D10508F463C04901880E991E8114910459
:1051A00009F065C0CC24DD248F01061B170BC60156
:1051B000A8010E9448030C0D1D1DC801B501AE01D8
:1051C0000E944803C00FD11F81E090E0BE010E9401
:1051D0006903FC0110821882D7012D913C9111972F
:1051E00014968D919C9115978217930719F0C90118
:1051F0000E94C902F701D182C082D383C2838C0C82
:105200009D1C95828482C701DF91CF911F910F91E0
:10521000FF90EF90DF90CF90BF90AF909F908F90D6
:105220000895CA01AE010E943F03D701ED91FC91A0
:105230001197EC0FFD1F12960D90BC91A02DEA174F
:10524000FB0709F38C918083EA1BFB0BE7018A8142
:105250009B818E0F9F1F9B838A83D5CF84E190E033
:105260004901880E991E8114910409F49BCFC40151
:105270000E941F020097C1F16C01F70160817181EA
:105280000280F381E02D90CFB5016F5F7F4FC61A8A
:10529000D70ACF010196A6010E944803D7011296B2
:1052A0000D911C9113970C0F1D1F81E090E0B80128
:1052B0000E946903FC011082F8011082D701129646
:1052C000ED91FC911397D5018C918083F701828138
:1052D00093818C0F9D1F9383828395CF1995C40171
:1052E0000E941F02009741F6E0913D15F0913E1596
:1052F0003097A1F780E090E00E9459493F924F9289
:105300005F926F927F928F929F92AF92BF92CF9255
:10531000DF92EF92FF920F931F93DF93CF93CDB75E
:10532000DEB728970FB6F894DEBF0FBECDBF3C01A5
:105330009AE0492E512C460C571CCE0101969887B5
:105340008F8384EB98E10E94803F181619062CF495
:10535000F301808591854C97C4F028960FB6F89498
:10536000DEBF0FBECDBFCF91DF911F910F91FF9098
:10537000EF90DF90CF90BF90AF909F908F907F90F5
:105380006F905F904F903F90089584EB98E10E945A
:10539000B23F382EFAE08F1709F445C1D3011C96AD
:1053A0000D911C911D971A968D919C911B97081B2E
:1053B000190B0E5F1F4F1A8219821C821B821E82DC
:1053C0001D82BFEF0F3F1B0771F00115110509F09A
:1053D0000BC180E090E09A8389839C838B83080FC4
:1053E000191F1E830D830B811C8181E090E0B801A1
:1053F0000E946903FC011082F8011082D3011A9601
:105400008D909C901B971C96ED91FC911D978E168C
:105410009F0609F403C14B815C8169817A81DA01BD
:10542000A61BB70B6F01C818D90896012A0F3B1F9E
:105430008D819E810197861B970B8217930708F039
:1054400079C09D012F5F3F4FC601B4E1CB16D10457
:1054500010F484E190E05901A80EB91EA114B10422
:1054600009F0A7C0EE24FF248A01061B170BC70111
:10547000A8010E9448030E0D1F1DC801B401A6011A
:105480000E9448030C0D1D1D81E090E0B8010E94B0
:105490006903FC011082F801108229813A818D8113
:1054A0009E818217930719F0C9010E94C902FA82EE
:1054B000E9821C830B83AE0CBF1CBE82AD82A801A7
:1054C0008A010F5F1F4F8D819E810817190709F40C
:1054D0005CC081E090E0B8010E946903FC01108289
:1054E000F8011082EB81FC8130824B815C814F5F3F
:1054F0005F4F5C834B838F8198858415950529F0D8
:1055000069817A81C2010E947C2829813A818D813A
:105510009E818217930719F0C9010E94C902D30125
:1055200018968D919C911997019619969C938E933C
:10553000189707CFB4016F5F7F4FE61BF70BCA01C7
:105540000196AF010E9448030B811C810C0D1D1DAB
:1055500081E090E0B8010E946903FC011082D8014B
:105560001C92EB81FC81D4018C9180834B815C8106
:105570004C0D5D1D5C834B838A010F5F1F4F8D8136
:105580009E810817190709F0A4CF89819A818A01A1
:10559000081B190B09F045C061E070E0600F711F36
:1055A000CE0101960E94CB240B811C810F5F1F4FFF
:1055B00090CFC5010E941F02009761F07C014B81D2
:1055C0005C8169817A8150CF1995C5010E941F02C3
:1055D0000097A1F7E0913D15F0913E153097A1F7A6
:1055E00080E090E00E945949C8010E941F02009784
:1055F00009F0F1CEE0913D15F0913E15309781F321
:105600001995C8010E941F02009709F0E4CEE091AD
:105610003D15F0913E15309799F7E2CF4B815C81B3
:105620004FCFB801BBCFD30118968D919C9119979C
:10563000181619061CF4F301108A8FCE81E05096DB
:105640008C938BCE2F923F924F925F926F927F926C
:105650008F929F92AF92BF92CF92DF92EF92FF9282
:105660000F931F93CF93DF935C013B014A014217D5
:10567000530709F46CC06901C41AD50ADC011296FB
:10568000ED91FC91139714968D919C9115978E1B1B
:105690009F0BC816D9060CF46DC0D5012D913C9115
:1056A000BF01621B730B6F5F7F4FC601B4E1CB1666
:1056B000D10410F484E190E01B01280E391E21145E
:1056C000310409F0B1C0442455248301021B130B9B
:1056D000C201B901A8010E9448037201E00EF11E47
:1056E000C701B401A6010E944803EC0CFD1CD501C2
:1056F00012960D911C91139706191709C701B30152
:10570000A8010E944803E701C00FD11F81E090E08B
:10571000BE010E946903FC0110821882F5012081FC
:105720003181848195818217930719F0C9010E9404
:10573000C902D50111965C924E921396DC93CE93DA
:105740001297240C351C15963C922E921497DF91DB
:10575000CF911F910F91FF90EF90DF90CF90BF906E
:10576000AF909F908F907F906F905F904F903F9001
:105770002F900895EF01C61BD70BCC15DD051CF14A
:10578000BF016C197D096F5F7F4FCF010196AC019E
:10579000461B570B0E944803F501828193818C0DB3
:1057A0009D1D938382832196CC19DD09C3018C0D45
:1057B0009D1DB301AE010E944803C301B401A601BF
:1057C0000E943F03C4CF21967A01EC0EFD1E219763
:1057D0008F010F5F1F4F2E193F09C801B701A901A3
:1057E0000E944803CC1ADD0AD50112968D919C9136
:1057F00013978C0D9D1D13969C938E9312970619EB
:105800001709B301A8010E944803F5018281938121
:105810008C0F9D1F93838283E818F908C301B4019C
:10582000A7010E943F0393CFC1010E941F0200976E
:1058300059F02C01F5012081318147CF1995C10123
:105840000E941F020097A9F7E0913D15F0913E15C7
:105850003097A1F780E090E00E9459492F923F9243
:105860004F925F926F927F928F929F92AF92BF9270
:10587000CF92DF92EF92FF920F931F93CF93DF931C
:105880005C01FB01522E432E342E252EDC0158964E
:105890006D917C915997C22ED32E50962D913C91AB
:1058A00051974901860E971E52968D919C91539760
:1058B000821B930B861B970BA6018C159D0508F484
:1058C000AC017A01E60EF71EE20EF31E3F016C0CEE
:1058D0007D1CE301CE1BDF0BC701881999098C17CA
:1058E0009D078CF58F01080F191F98012E1B3F0B88
:1058F000C401BF01A9010E943F03C5014096B70141
:10590000A801930100E00E94222BF501808D918D6A
:105910008C0D9D1D918F808F652D742D832D922D63
:10592000DF91CF911F910F91FF90EF90DF90CF907B
:10593000BF90AF909F908F907F906F905F904F90AF
:105940003F902F900895C401BF01AE010E943F0314
:10595000C80DD91DEC16FD06C1F2F5014289538927
:105960004F5F5F4F4E195F09CE01B7010E94480398
:10597000CE19DF09D50152968D919C9153978C0FCA
:105980009D1F53969C938E935297BFCF2F923F9219
:105990004F925F926F927F928F929F92BF92CF921F
:1059A000DF92EF92FF920F931F93DF93CF93CDB7C8
:1059B000DEB760970FB6F894DEBF0FBECDBF7C0197
:1059C000DC011A966D917C911B971C964D915C9110
:1059D0001D9787960E947C28F70116A615A686A11A
:1059E00081FFA7C181A592A527A130A5821B930B9A
:1059F00090AB87A7F7017196F88BEF87D701519687
:105A0000ED91FC91529736970190F081E02D8F85B2
:105A10009889E80FF91F83899489892B09F41FC29B
:105A200015821A8219821C821B821E821D8288E0C6
:105A300090E00E941F02009709F411C189839A83A4
:105A40008B839C8389819A8108969E838D830B81A9
:105A50001C8181E090E0B8010E946903FC01108282
:105A6000D8011C928F859889BE016F5F7F4F0E947D
:105A7000B526E981FA81B08084EB98E16EE770E1A8
:105A80000E940843E981FA818181C82EDD24C7FC88
:105A9000D094E0EDFFEFCE0EDF1E84EB98E16B2D8E
:105AA0000E94A14184EB98E16BE870E10E940843F9
:105AB00084EB98E1B6014AE050E00E94E94288E0B8
:105AC00090E00E941F029E878D87892B09F4DBC01E
:105AD00081E090E06D857E850E946903FC01108263
