:100000000C94F0010C941D020C941D020C941D0222
:100010000C941D020C941D020C941D020C941D02E4
:100020000C941D020C941D020C941D020C941D02D4
:100030000C941D020C94940A0C941D020C941D0245
:100040000C941D020C94621D0C941D020C941D0254
:100050000C941D020C941D020C941D020C945E293C
:100060000C941D020C940F230C945B240C941D0221
:100070000C941D020C941D020C941D020C941D0284
:100080000C94CB1F0C941D020C941D020C941D02A9
:100090000C944F230C949A240C941D020C94A921C7
:1000A0000C941D020C941D020C94FB1E0C941D025A
:1000B0000C941D020C941D020C941D020C94321E13
:1000C0000C941D020C941D020C941D020C948F23A1
:1000D0000C94D9240C941D020C94CF230C94182555
:1000E0000C941D027C059C05AE05C105D405E705F1
:1000F000F505FF050E0618062E0641065406620693
:100100006C067B06650528072F07390742074D0750
:10011000560761076A0775077E07890792079D07DB
:10012000A607B107D50622076222FB21FB21FB218E
:10013000FB21FB21FB21FB216C22FB21FB21FB216D
:10014000FB21FB21FB21FB216C22FB21FB21FB215D
:10015000FB21FB21FB21FB217422FB21FB21FB2145
:10016000FB21FB21FB21FB218822FB21FB21FB2121
:10017000FB21FB21FB21FB217422FB21FB21FB2125
:10018000FB21FB21FB21FB212A22FB21FB21FB215F
:10019000FB21FB21FB21FB213722FB21FB21FB2142
:1001A000FB21FB21FB21FB212322FB21FB21FB2146
:1001B000FB21FB21FB21FB21B822FB21FB21FB21A1
:1001C000FB21FB21FB21FB211722FB21FB21FB2132
:1001D000FB21FB21FB21FB214022FB21FB21FB21F9
:1001E000FB21FB21FB21FB215922FB21FB21FB21D0
:1001F000FB21FB21FB21FB215922FB21FB21FB21C0
:10020000FB21FB21FB21FB215922FB21FB21FB21AF
:10021000FB21FB21FB21FB215922FB21FB21FB219F
:10022000FB21FB21FB21FB210E22FB21FB21FB21DA
:10023000FB21FB21FB21FB211322FB21FB21FB21C5
:10024000FB21FB21FB21FB210E22FB21FB21FB21BA
:10025000FB21FB21FB21FB211322FB21FB21FB21A5
:10026000FB21FB21FB21FB219322FB21FB21FB2115
:10027000FB21FB21FB21FB21D121FB21FB21FB21C8
:10028000FB21FB21FB21FB21D121FB21FB21FB21B8
:10029000FB21FB21FB21FB21E621FB21FB21FB2193
:1002A000FB21FB21FB21FB21B222FB21FB21FB21B6
:1002B000FB21FB21FB21FB21B222000021002400B5
:1002C00027002A002D003000330001010000040146
:1002D00007010A0100002200250028002B002E0043
:1002E0003100340002010000050108010B0100008B
:1002F00020002300260029002C002F0032000001DE
:1003000000000301060109010505050507050808A8
:100310000808020202020A0A08080404040401018F
:1003200001010101010103030303030303030407A4
:1003300007070C0C0C0C0C0C0C0C0202020206063B
:100340000606060606060B0B0B0B0B0B0B0B01022E
:1003500010202008081020401020408002010201D7
:10036000080402010102040810204080804020108F
:1003700008040201800402018040201008040201E8
:100380000804020101020408102040800102040850
:10039000102040800000090A02080B0C0D0706031C
:1003A0000401000000000000000000000000000048
:1003B000000000000000000000000000000000003D
:1003C00011100F00000000000000000000000000FD
:1003D000000000000000000000006B03FB208B26E3
:1003E00011241FBECFEFD1E2DEBFCDBF00E00CBFB6
:1003F00018E0A0E0B2E0E4E6F8E500E00BBF02C0E0
:1004000007900D92A233B107D9F71BBE1CE0A2E3FF
:10041000B8E001C01D92A835B107E1F713E0C0EEC6
:10042000D3E004C02297FE010E94212CCA3DD107CF
:10043000C9F70E94C1270C94302C0C940000CF9374
:10044000DF93BC018230910510F462E070E0A0916E
:10045000560CB091570CED01E0E0F0E040E050E0C8
:1004600021C0888199818617970769F48A819B81C9
:10047000309719F09383828304C09093570C809334
:10048000560CFE0134C06817790738F44115510540
:1004900019F08417950708F4AC01FE018A819B814D
:1004A0009C01E9012097E9F641155105A9F1CA011E
:1004B000861B970B049708F4BA01E0E0F0E02AC02D
:1004C0008D919C91119784179507F9F4641775071E
:1004D00081F412968D919C911397309719F0938324
:1004E000828304C09093570C8093560CFD01329682
:1004F0004CC0CA01861B970BFD01E80FF91F6193E1
:10050000719302978D939C9340C0FD0182819381EA
:100510009C01D9011097A1F68091540C9091550C33
:10052000892B41F480918107909182079093550C1B
:100530008093540C409183075091840741155105D5
:1005400041F44DB75EB780917F0790918007481BBB
:10055000590B2091540C3091550CCA01821B930BFE
:100560008617970780F0AB014E5F5F4F84179507A2
:1005700050F0420F531F5093550C4093540CF90107
:100580006193719302C0E0E0F0E0CF01DF91CF9181
:100590000895CF93DF93009709F450C0EC012297A0
:1005A0001B821A82A091560CB091570C109709F13A
:1005B00040E050E0AC17BD0708F1BB83AA83FE0101
:1005C00021913191E20FF31FAE17BF0779F48D919E
:1005D0009C911197280F391F2E5F3F4F3983288335
:1005E00012968D919C9113979B838A834115510597
:1005F00071F4D093570CC093560C20C012968D9175
:100600009C911397AD01009711F0DC01D3CFFA0153
:10061000D383C28321913191E20FF31FCE17DF07FD
:1006200069F488819981280F391F2E5F3F4FFA01A5
:10063000318320838A819B8193838283DF91CF9151
:100640000895FC0188279927E89421912032E9F345
:10065000293010F02E30C8F32B3241F02D3239F40E
:10066000689404C00E946103820F911D2191205360
:100670002A30C0F31EF4909581959F4F0895FB0199
:10068000DC0102C001900D9241505040D8F708950E
:100690006817790768F4FB01DC01E40FF51FA40F6C
:1006A000B51F02C002900E9241505040D8F70895F5
:1006B0000C943F03DC0101C06D9341505040E0F7C2
:1006C00008957AE0979F902D879F802D910D11249A
:1006D0000895CB01089586E398E06BE370E048E568
:1006E00052E00E949B208BE398E06AE370E048E5CB
:1006F00052E00E949B2080E498E069E370E048E5C6
:1007000052E00E949B200895809134089091350812
:100710000E94601A80913208909133080E94DD0790
:1007200061E070E080E090E00E94DB2908958F9204
:100730009F92AF92BF92CF92DF92EF92FF920F9370
:100740001F933BE3A32E38E0B32EC5010E94A220E5
:1007500020E4822E28E0922EC4010E94A22089E289
:1007600099E00E947F2103EC1BE0C80140E855E2BC
:1007700060E070E00E945725C80160E072E00E94CE
:100780003829C8016EE072E00E9438298CEC90E0B4
:100790000E94D827F82EE92E0E942C0AF0923208E7
:1007A000E0923308C80161E272E00E94382989E4CE
:1007B00090E00E94D827F82EE92E609132087091BF
:1007C00033080E94181BF0923408E0923508C801E3
:1007D00069E272E00E94382910924608109245089A
:1007E00010924708109248081092490810924A083F
:1007F0009EE3C92E92E0D92EC801B6010E94382985
:100800008FE3E82E82E0F82EC801B7010E94382954
:1008100010924708109248081092490810924A080E
:10082000C80168E572E00E943829C80162E672E0FA
:100830000E94192986E398E00E94A820682FC80129
:1008400070E04AE050E00E94FA28C8016DE672E0CC
:100850000E941929C5010E94A820682FC80170E0D4
:100860004AE050E00E94FA28C8016AE772E00E945C
:100870001929C4010E94A820682FC80170E04AE02D
:1008800050E00E94FA28C801B6010E943829C80128
:10089000B7010E9438291F910F91FF90EF90DF90D0
:1008A000CF90BF90AF909F908F9008950895089536
:1008B0009C012D5D3F4FC90108959C01255D3F4F6F
:1008C000C9010895CF93DF93EC01C35BDF4FCE01E5
:1008D0000E94051C882319F0CE010E94241CDF9180
:1008E000CF9108950F931F938C0161E270E00E94F5
:1008F000311CC80108966DE04CE224E630E00E940D
:10090000410AC8014A966FE240E324E630E00E94C3
:10091000410AC8018C966DE24EE224E630E00E9466
:10092000410A84E690E0F80197AF86AF005C1F4F64
:10093000F80181939193918380831F910F91089582
:10094000EF92FF920F931F93CF93DF93EC018C896B
:10095000882341F480E0DF91CF911F910F91FF90A8
:10096000EF900895EF88F88C098D1A8D0E94A629C2
:10097000E616F7060807190768F71C8A81E0DF9179
:10098000CF911F910F91FF90EF900895CF92DF923A
:10099000EF92FF920F931F936C017B010E94A62997
:1009A0000027F7FC0095102FE60EF71E081F191FF1
:1009B000F601E78AF08E018F128F81E0848B83EC41
:1009C0009BE066E673E00E9419291F910F91FF904A
:1009D000EF90DF90CF900895FC018081882339F457
:1009E000CF01019663EE76E00E94611C0895CF016D
:1009F00001966AEE77E00E94611C0895FC018081F7
:100A0000882339F4CF01019661E078E00E94611CEF
:100A10000895CF0101966AE976E00E94611C08956D
:100A2000FC018081882339F4CF01049668E774E0E3
:100A30000E94611C0895CF01049665E077E00E9452
:100A4000611C089504966CED75E00E94611C089588
:100A5000FC018081882339F4CF0104966FE777E0A9
:100A60000E94611C0895CF01049667E074E00E9423
:100A7000611C08956BEF74E00E94611C089563ECA3
:100A800075E00E94611C089564E676E00E94611C96
:100A9000089560ED77E00E94611C089568EE73E0B0
:100AA0000E94611C08950F931F93CF93DF93EC0175
:100AB000ED89FE89E131F105D0F4EE58FF4FEE0FDC
:100AC000FF1F0590F491E02D199468EE73E00E94E9
:100AD000C604CE010D960E942805CE0103960E9401
:100AE0003F0583EC9BE067E874E00E943829DF91C2
:100AF000CF911F910F9108958C010A5F1F4FC8017C
:100B00000E942805C8010E94FE048E01035F1F4F4A
:100B1000C8010E942805C8010E94FE04CE010E945F
:100B20004E05CE0103960E943F0583EC9BE064E7EF
:100B300073E00E943829DBCF64EF71E00E94C604A5
:100B4000CE010E944905CE0103960E94440583EC24
:100B50009BE064E873E00E943829C9CF68EE73E037
:100B60000E94C604CE010D960E942205CE01039676
:100B70000E943F0583EC9BE062E973E00E94382904
:100B8000B6CF60ED77E00E94C604CE010D960E94BC
:100B90002205CE0103960E943A0583EC9BE063EAAE
:100BA00073E00E943829A3CF68EE73E00E94C60468
:100BB000CE010D960E941005CE0103960E943A05C3
:100BC00083EC9BE064EB73E00E94382990CF64E6ED
:100BD00070E00E94C604CE010E944E0583EC9BE0AB
:100BE00064EC73E00E94382982CF0D960E94EC04D9
:100BF00083EC9BE066ED73E00E94382978CF68EEC5
:100C000073E00E94C604CE010D960E94220583EC7B
:100C10009BE068EE73E00E94382969CF0D960E9430
:100C2000FE0483EC9BE069EF73E00E9438295FCFFC
:100C300068EE73E00E94C604CE010D960E94100576
:100C4000CE010E944905CE0103960E94440583EC23
:100C50009BE06AE074E00E94382949CF68EE73E0B7
:100C60000E94C604CE0106960E942205CE0103967C
:100C70000E943F0583EC9BE06BE174E00E94382901
:100C800036CF68EE73E00E94C604CE0106960E943D
:100C90001005CE0103960E943A0583EC9BE06CE2BE
:100CA00074E00E94382923CF68EE73E00E94C604E6
:100CB000CE010E944E0583EC9BE06DE374E00E9440
:100CC000382915CF06960E94EC0483EC9BE060E582
:100CD00074E00E9438290BCF68EE73E00E94C604CE
:100CE000CE0106960E94220583EC9BE063E674E049
:100CF0000E943829FCCE68EE73E00E94C6048E0183
:100D00000A5F1F4FC8010E94FE04C8010E94280507
:100D1000CE010D960E94220583EC9BE065E774E00E
:100D20000E943829E4CE0F931F93CF93DF938C0159
:100D3000EB0183EC9BE06DEA72E00E94382983ECC2
:100D40009BE069E974E00E94192983EC9BE0BE01F5
:100D50004AE050E00E94FA28CE010197049708F477
:100D60005DC0209709F445C083EC9BE060E075E02E
:100D70000E941929D80155966D917C91569783EC64
:100D80009BE04AE050E00E94FA28D8015596ED9188
:100D9000FC915697E131F10538F5ED57FF4FEE0F15
:100DA000FF1F0590F491E02D1994CD2BE9F480E11B
:100DB00090E0D80156969C938E93559783EC9BE0D8
:100DC00060E275E00E941929D80155966D917C91D9
:100DD000569783EC9BE04AE050E00E94FA28F80125
:100DE000148AC8010E945305DF91CF911F910F9182
:100DF000089583EC9BE067EB74E00E94382983EC54
:100E00009BE06EED74E00E94192983EC9BE060E0AA
:100E100070E04AE050E00E94FA28A6CF83EC9BE005
:100E200067EB74E00E94382983EC9BE069EB74E087
:100E30000E94192983EC9BE0BE014AE050E00E9429
:100E4000FA288FCFCD2B81F6F801168A158AB6CFF6
:100E5000C130D10549F6F801D68BC58BAFCFCD2B6C
:100E600019F682E090E0D80156969C938E935597A0
:100E7000A5CFCD2B09F0B8CF83E090E0F801968B99
:100E8000858B9CCFCD2B09F0AFCF84E090E0D801CB
:100E900056969C938E93559791CFCD2B09F0A4CF66
:100EA00085E090E0F801968B858B88CFCD2B09F0FB
:100EB0009BCF86E090E0D80156969C938E935597F1
:100EC0007DCF229709F090CF87E090E0F801968BD4
:100ED000858B74CFCD2B09F087CF88E090E0D801C7
:100EE00056969C938E93559769CF239709F07CCFA4
:100EF00089E090E0F801968B858B60CFCD2B09F0CF
:100F000073CF8AE090E0D80156969C938E935597C4
:100F100055CFCD2B09F068CF8BE090E0F801968B90
:100F2000858B4CCFCD2B09F05FCF8CE090E0D801C2
:100F300056969C938E93559741CFCD2B09F054CF65
:100F40008DE090E0F801968B858B38CF249709F0DF
:100F50004BCF8EE090E0D80156969C938E93559798
:100F60002DCFCD2B09F040CF8FE090E0F801968B8C
:100F7000858B24CF0F931F93CF93DF938C01EC01CC
:100F80006B96CE010E94051C882329F4DF91CF9136
:100F90001F910F910895CE010E94241CC8010E9448
:100FA000A004882399F3C80160E070E00E949306D2
:100FB000DF91CF911F910F9108950F931F938C0193
:100FC0000E94BA07C8018B960E9462041F910F917C
:100FD000089564E070E00E949306089563E070E075
:100FE0000E949306089562E070E00E9493060895BF
:100FF00061E070E00E949306089504966CED75E040
:101000000E94611C0895049660ED77E00E94611CC7
:1010100008950E9403080895049668EE73E00E9404
:10102000611C08950E940C0808950A9664E175E019
:101030000E94611C08950A9664EA76E00E94611C91
:1010400008950A966CED75E00E94611C089507965C
:1010500064E175E00E94611C0895079664EA76E0F9
:101060000E94611C089507966CED75E00E94611C5A
:1010700008950F931F938C010E94FD07C8010E94E1
:101080002108C8010E9433081F910F91089567E35A
:1010900077E00E94611C089560E476E00E94611C84
:1010A000089565EE73E00E94611C0895039660ED5B
:1010B00077E00E94611C089503966CED75E00E9434
:1010C000611C0895CF92DF92EF92FF921F93CF930E
:1010D000DF937C01162FEC012196CE010E94471C64
:1010E000F4E0CF2ED12CCE0CDF1CC6010E94471C91
:1010F000F70110831123C1F4CE0169E070E00E9472
:101100005B1DC60167E070E00E945B1DC7010E9485
:101110002805C7010E94FE04DF91CF911F91FF9027
:10112000EF90DF90CF900895CE016AE070E00E94CA
:101130005B1DC60168E070E00E945B1DE7CF0F9366
:101140001F93182F092F0E94471C812F902F6CE0AE
:1011500070E00E945B1D812F902F0E943F051F9120
:101160000F9108950F931F93182F092F0E94471C6A
:10117000812F902F6BE070E00E945B1D812F902FDC
:101180000E944E051F910F9108950F931F938C019C
:101190000E94B208C80103960E949F08C8010696E3
:1011A00061E00E946208C8010D9660E00E9462083A
:1011B000F801148A168A158AC8014B9662E370E01A
:1011C0000E94311C1F910F910895EF92FF920F938F
:1011D0001F938C010E94471CB3E0EB2EF12CE00E14
:1011E000F11EC7010E94471CC70166E070E00E9423
:1011F0005B1DC80164E070E00E945B1DC8010E9495
:101200005C08C8010E9451081F910F91FF90EF9058
:101210000895EF92FF920F931F93CF93DF93EC010A
:101220008C01095E1F4FC8010E94A820882371F518
:101230002CE1E22EF12CEC0EFD1EC8010E94A8202C
:10124000882391F4CE010E942D08C7010E94A82096
:10125000882391F4CE010E941B08DF91CF911F914A
:101260000F91FF90EF900895CE010E943308C701BF
:101270000E94A820882371F3CE010E942108DF91EB
:10128000CF911F910F91FF90EF9008959CE1E92E6F
:10129000F12CEC0EFD1EC7010E94A820882369F2E4
:1012A000CE010E942108CE010E943308DF91CF9128
:1012B0001F910F91FF90EF9008952F923F924F92C0
:1012C0005F926F927F928F929F92AF92BF92CF92D6
:1012D000DF92EF92FF920F931F93DF93CF9300D093
:1012E0000F92CDB7DEB78C01F4E02F2E312C280EF3
:1012F000391EC1010E94471CC80107969A83898341
:101300000E94471CF8013A96FC83EB83CF010E94B0
:10131000471CC8010D9663E470E048E552E00E9466
:101320009B20C801429662E470E048E552E00E94CA
:101330009B20E7E14E2E512C400E511EC2016EE360
:1013400070E048E552E00E949B207CE1672E712C02
:10135000600E711EC3016FE370E048E552E00E9429
:101360009B2061E2862E912C800E911EC4016CE3BD
:1013700070E048E552E00E949B2056E2A52EB12C79
:10138000A00EB11EC50160E470E048E552E00E9485
:101390009B204BE2C42ED12CC00ED11EC6016DE3A2
:1013A00070E048E552E00E949B2030E3E32EF12CF0
:1013B000E00EF11EC70161E470E048E552E00E94D2
:1013C0009B20C801835B9F4F62E370E00E94311C49
:1013D000C8018B5A9F4F64E670E00E94311CC20125
:1013E0000E94A220C3010E94A220C4010E94A22048
:1013F000C5010E94A220C6010E94A220C7010E942E
:10140000A220C10165E070E00E945B1D89819A8184
:1014100062E070E00E945B1D8B819C8163E070E064
:101420000E945B1DC8010E9439080F900F900F9019
:101430000F90CF91DF911F910F91FF90EF90DF9070
:10144000CF90BF90AF909F908F907F906F905F9064
:101450004F903F902F9008950F931F938C010E94FF
:10146000C508C80183960E94E508C8018B960E94B2
:101470005D09C80188579F4F0E9472041F910F9108
:101480000895CF93DF93EC01862F90E0FC01E25B9F
:10149000FC4FE491EC83A42FB0E0FD01E25BFC4F34
:1014A000E491ED83885F9C4FFC01449150E0440F30
:1014B000551FFA01EC52FD4F859194919F838E83C5
:1014C000A85FBC4FFD018491E82FF0E0EE0FFF1FF5
:1014D000E251FD4F859194919B878A87FA01E654EA
:1014E000FD4F8591949199878887A901F1E0253F67
:1014F0003F0714F044EF51E09A01220F331F220FEF
:10150000331F220F331FC901880F991F880F991F9E
:10151000880F991F821B930B840F951F4C969D87F4
:101520008C87DF91CF9108951F920F920FB60F9283
:101530000BB60F9211242F933F934F935F936F93AA
:101540007F938F939F93AF93BF93EF93FF93E0911C
:101550004B08F0914C08309709F01995FF91EF91E5
:10156000BF91AF919F918F917F916F915F914F91BB
:101570003F912F910F900BBE0F900FBE0F901F90B9
:101580001895FC018EEC97E0918380830895FC010F
:10159000A081B18116978D919C918E0F9F1F0E9403
:1015A000D20A0895FC018CEB97E0918380838EEC46
:1015B00097E0978386830895DC0113968D919C9123
:1015C0001497892B91F01596ED91FC91169717962B
:1015D0008D919C911897E817F90739F0819190E067
:1015E0001696FC93EE9315970895ED91FC91119743
:1015F0000488F589E02DCD0119950895FC0186EF49
:1016000097E0918380830895CF93DF93EC01E88185
:10161000F9810288F389E02D19959C018FEF2F3F06
:10162000380729F08D819E8101969E838D83C901A3
:10163000DF91CF910895CB0108958FEF9FEF08952B
:1016400080E090E0089508950895DC01242FED9145
:10165000FC910084F185E02D41E01995089580E02A
:1016600090E00895FC012289338980899189281BA3
:10167000390B86899789281B390BC9010895CF92A8
:10168000DF92EF92FF920F931F93CF93DF93EC01C2
:101690006B0179018A01AE89BF89688979898A8954
:1016A0009B89861B970BA817B90778F020E030E0DC
:1016B00040E050E0B901CA01DF91CF911F910F9135
:1016C000FF90EF90DF90CF90089512161306140646
:1016D000150664F720E030E040E050E0F601E20F4C
:1016E000F31F6A0F7B1FDB018C9180832F5F3F4FBD
:1016F0004F4F5F4FAE89BF891196BF8BAE8B688904
:1017000079898A899B89861B970BA817B90790F658
:101710002E153F05400751076CF6E0CFFC012689E6
:101720003789A089B189828993898A1B9B0B2817E5
:10173000390738F4A20FB31F8C91282F30E0C9016C
:1017400008952FEF3FEFC9010895CF93DF93EC0188
:10175000E881F9810288F389E02D19959C018FEFCA
:101760002F3F380729F08E899F8901969F8B8E8B9A
:10177000C901DF91CF910895CF93DF93DC01569695
:101780004D915C9157974115510511F15096CD91AE
:10179000DC91519752962D913C9153972C1B3D0B08
:1017A00024173507B0F18FEF6F3F7807B9F0FE01CE
:1017B000E40FF51F319780818617E1F441505040C6
:1017C00057965C934E935697CB01DF91CF91089536
:1017D0006FEF7FEFCB01DF91CF91089541505040E3
:1017E00057965C934E93569760E070E0CB01DF9183
:1017F000CF9108951F968C911F9784FFE9CFCA015E
:10180000019757969C938E935697C80FD91F68835C
:10181000DBCF57963C932E9356976FEF7FEFD4CF45
:1018200080E090E0089580E090E0089580E090E00E
:10183000089580E090E0089560E070E080E090E03E
:1018400008956F927F929F92AF92BF92CF92DF9254
:10185000EF92FF920F931F93CF93DF93EC013B0125
:1018600059016A0112161306140615060CF050C031
:10187000EE24FF24870117C0EB85FC858D859E85AE
:10188000E817F90748F590828B859C8501969C871F
:101890008B870894E11CF11C011D111DEA14FB0447
:1018A0000C051D05ACF5F301EE0DFF1D90808F8535
:1018B00080FFE2CFE881F9810084F185E02DCE013F
:1018C00060E070E044E020E11995EB85FC858D85B2
:1018D0009E85E817F907B8F2E881F981028CF38D4B
:1018E000E02DCE01692D70E019958F5F9F4F89F62D
:1018F000B701C801DF91CF911F910F91FF90EF9039
:10190000DF90CF90BF90AF909F907F906F900895A1
:1019100086017501EDCFCB010895EF92FF920F93F1
:101920001F93CF93DF937C018B01EA016417750746
:10193000A9F0FC01428153814F5F5F4F4C1B5D0B4F
:10194000CB01BE010E94480398012C1B3D0BF701FF
:1019500082819381820F931F93838283C801DF91D9
:10196000CF911F910F91FF90EF9008950F931F93C8
:101970008B0181E090E00E946903FC011082F80174
:1019800010821F910F910895FC01A081B1811697DB
:101990008D919C918E0F9F1F0E94CF0C0895FC018A
:1019A0008CEB97E0918380838EEC97E0978386831E
:1019B000CF010E94D5270895FC018EEC97E091831A
:1019C0008083CF010E94D5270895FC0186EF97E020
:1019D00091838083CF010E94D5270895CF93DF9311
:1019E000EC0186ED97E099838883288939898C8971
:1019F0009D898217930719F0C9010E94C90286EFD9
:101A000097E099838883DF91CF910895CF93DF93F7
:101A1000EC0186ED97E099838883288939898C8940
:101A20009D898217930719F0C9010E94C90286EFA8
:101A300097E099838883CE010E94D527DF91CF91CB
:101A40000895FC01A081B18116978D919C918E0F14
:101A50009F1F0E942C0D0895CF93DF93EC0184E922
:101A600097E0998388830A9699A388A386ED97E0E7
:101A70009F838E832E893F898A8D9B8D8217930742
:101A800019F0C9010E94C90286EF97E09F838E83F7
:101A9000E0918807F0918907F983E88336970190F0
:101AA000F081E02DEC0FFD1F80918A0790918B074C
:101AB000918380838EEC97E099A388A3CE010E9446
:101AC000D527DF91CF910895FC01A081B1811697B0
:101AD0008D919C918E0F9F1F0E946F0D0895CF9343
:101AE000DF93EC0184E997E0998388830A9699A3B0
:101AF00088A386ED97E09F838E832E893F898A8D08
:101B00009B8D8217930719F0C9010E94C90286EFC5
:101B100097E09F838E83E0918807F0918907F9838E
:101B2000E88336970190F081E02DEC0FFD1F809146
:101B30008A0790918B07918380838EEC97E099A31D
:101B400088A3DF91CF910895AF92BF92CF92DF9299
:101B5000EF92FF920F931F93CF93DF936C01DC0101
:101B60001296ED91FC9113974D915C91DF01A41BAE
:101B7000B50BCB016A177B0708F4CD015C01089413
:101B8000A11CB11CA114B104C9F5EE24FF248F01DE
:101B9000041B150BC701BA01A8010E944803E70105
:101BA000C00FD11F81E090E0BE010E946903FC01DB
:101BB00010821882F60120813181848195818217FB
:101BC000930719F0C9010E94C902D6011196FC922F
:101BD000EE921396DC93CE931297AE0CBF1C159623
:101BE000BC92AE921497DF91CF911F910F91FF900D
:101BF000EF90DF90CF90BF90AF900895C5010E9405
:101C00001F02009779F07C01D6011296ED91FC91AC
:101C100013974D915C91BBCF1995C5010E941F028E
:101C2000009789F7E0914D08F0914E083097A1F7A1
:101C300080E090E00E94302CFF920F931F93CF938F
:101C4000DF938C01F62EDC0112962D913C911397B7
:101C5000E901219614968D919C911597C817D90783
:101C6000E9F081E090E0BE010E946903FC0110826E
:101C70001882D8011296ED91FC911397F08212967A
:101C80008D919C911397019613969C938E93129726
:101C9000DF91CF911F910F91FF9008958D919C91AD
:101CA000F901E81BF90BCF0171F461E070E0680FF6
:101CB000791FC8010E94A40DD8011296CD91DC9124
:101CC00013972196CECFBF01F2CF0F931F93CF93DF
:101CD000DF938C01EB018FEF6F3F780741F4C0E099
:101CE000D0E0CE01DF91CF911F910F910895D801DF
:101CF0001F968C9184FF1AC0F801208D318D0088C9
:101D0000F189E02DD80152968D919C9153978E1BAD
:101D10009F0B2817390768F4E20FF31F6083F8015F
:101D2000808D918D0196918F808FDBCFCFEFDFEF8C
:101D3000D8CFC80140960E941C0EF1CFCF92DF92FF
:101D4000EF92FF920F931F93CF93DF938C01FB01D0
:101D500030E0C90188719070489709F4DBC0C9016F
:101D60008870907020713070413009F4B4C04230F6
:101D700009F46DC0D80152964D915C9153975096DD
:101D80006D917C915197DA01A61BB70BEF01CA0F39
:101D9000DB1FAC17BD0708F479C0892B19F0F801D7
:101DA000D78BC68B232B09F48BC080E1C82ED12C96
:101DB000C00ED11E9A01261B370B2C173D0708F0C9
:101DC00068C07E01E21AF30AF801848995890197B7
:101DD000861B970B8C179D0778F4B701E216F30664
:101DE00008F496C0620F731FC6010E94A40DD801AB
:101DF00052964D915C915397E114F10409F453C04C
:101E00009A012F5F3F4FFA01EE0DFF1DE21BF30B0E
:101E1000C90160E070E0AF010E945A03F8016289D5
:101E200073896E0D7F1DC6010E94B60CD8015296B3
:101E3000ED91FC915397108252964D915C9153977E
:101E40004E0D5F1D53965C934E9352972CC02115F7
:101E5000310509F04EC0C0E0D0E0D80150966D9138
:101E60007C91519752964D915C915397009739F020
:101E7000D8015696CD91DC915797CE0FDF1FDA012E
:101E8000A61BB70BAC17BD0708F087CF2FEF3FEFAE
:101E900018C06C0F7D1FC6010E948D0CD801529690
:101EA0004D915C915397F801808991899A01281B83
:101EB000390B868997892817390710F4378B268BB9
:101EC0009E01C901DF91CF911F910F91FF90EF907B
:101ED000DF90CF900895EF01D80150966D917C91DD
:101EE000519752964D915C915397DA01A61BB70B0F
:101EF00050CFD80152964D915C91539750966D9169
:101F00007C915197EA01C61BD70BCE0FDF1FAECFD6
:101F1000B90168CF423009F022CFB8CF8F929F929B
:101F2000AF92BF92DF92EF92FF920F931F93CF93E6
:101F3000DF935C017B01DC01CD91DC912697E88188
:101F4000F9812696E80FF91F0189128901151105FB
:101F500001F1D801ED91FC9136970190F081E02DCF
:101F6000E00FF11FA389B489ED91FC9111970484CE
:101F7000F585E02DCD0119958F5F9F4F09F4E7C0DE
:101F8000F501C081D1812697E881F9812696EA0D75
:101F9000FB1DA389B48913968D919C911497892B6D
:101FA00009F4B2C01596ED91FC91169717968D9194
:101FB0009C911897E817F90709F4A6C0808190E072
:101FC0000E94252C892B09F084C02697288139810D
:101FD000F501E20FF31F83889488D701ED91FC91FE
:101FE000119712968D919C911397E817F90771F04C
:101FF00010828D919C91119713969C938E931297BA
:10200000D501ED91FC91369720813181F90132960D
:10201000EA0DFB1D2285338544855585128613867E
:1020200014861586E9012115310509F0E9C00EEF86
:102030001FEF1EC081E090E0BE010E946903FC0119
:1020400010821882D7011296ED91FC911397D082DD
:1020500012962D913C9113972F5F3F4F13963C930F
:102060002E9312970115110509F4B5C001501040C7
:10207000C4010E94DC0ABFEF8F3F9B0709F4C6C072
:10208000D82E992787FD90950E94252C892B09F041
:1020900070C0F70122813381E90121968481958105
:1020A000C817D90739F680819181A901481B590BBE
:1020B000CA0109F0A3C061E070E0680F791FC70191
:1020C0000E94A40DD7011296CD91DC911397219611
:1020D000B1CF2697E881F981EA0DFB1D83899489A8
:1020E0000E94DC0AD501CD91DC912697E881F98127
:1020F0002696EA0DFB1DA389B48913968D919C91B8
:102100001497892B09F04ECFED91FC91119702881D
:10211000F389E02DCD011995BFEF8F3F9B0709F0A3
:10212000C0C0D501ED91FC91119736970190F081D7
:10213000E02DEA0DFB1D2581322F326083899489C1
:10214000892B09F48AC03583CD91DC913ECFD8012B
:10215000ED91FC9136970190F081E02DE00FF11F99
:102160002581216083899489892B09F47CC025838A
:1021700007CFF401238134812115310551F0858188
:1021800096812817390729F0FC018291D81609F4A5
:1021900074C0D401ED91FC910688F789E02DC4014B
:1021A0006D2D70E019958F5F9F4F91F4D501ED91E2
:1021B000FC9136970190F081E02DEA0DFB1D258101
:1021C000322F346083899489892B09F44EC035837A
:1021D000F70122813381F701808191812817390726
:1021E00051F1C501DF91CF911F910F91FF90EF90B9
:1021F000DF90BF90AF909F908F900895BA015DCF10
:10220000C701B9010E94A40D8E0130CFD501ED9117
:10221000FC9136970190F081E02DEA0DFB1D2581A0
:10222000322F326083899489892B81F13583F701BC
:1022300022813381D0CFD501ED91FC913697019069
:10224000F081E02DEA0DFB1D2581322F346083895A
:102250009489892B19F13583C4CF23602583F50137
:10226000C081D181B2CE25833DCF25602583D701A2
:1022700012962D913C911397AECFD4011696FC93F4
:10228000EE931597F70122813381A5CF2360258333
:10229000D70112962D913C9113979DCF25602583F0
:1022A000A0CFF501C081D1818BCE8F929F92AF924A
:1022B000BF92CF92DF92EF92FF920F931F93CF9333
:1022C000DF937C018B016A01DC014D915C911197D8
:1022D00012962D913C911397241B350BE601C61BDA
:1022E000D70B2C173D0708F075C0CA01A9010E9441
:1022F0003F03D7011296ED91FC9113976D917C915C
:102300001197AF01461B570B5801A40EB51ECA14F6
:10231000DB0409F451C0E601CA19DB099E01240F50
:10232000351F14968D919C9115970197861B970BDD
:102330008217930708F081C09A012F5F3F4FCE01AB
:10234000C431D10508F463C04901880E991E811477
:10235000910409F065C0CC24DD248F01061B170B06
:10236000C601A8010E9448030C0D1D1DC801B5013E
:10237000AE010E944803C00FD11F81E090E0BE0172
:102380000E946903FC0110821882D7012D913C91B3
:10239000119714968D919C9115978217930719F0B8
:1023A000C9010E94C902F701D182C082D383C283CE
:1023B0008C0C9D1C95828482C701DF91CF911F9167
:1023C0000F91FF90EF90DF90CF90BF90AF909F90D4
:1023D0008F900895CA01AE010E943F03D701ED918D
:1023E000FC911197EC0FFD1F12960D90BC91A02D42
:1023F000EA17FB0709F38C918083EA1BFB0BE701CB
:102400008A819B818E0F9F1F9B838A83D5CF84E116
:1024100090E04901880E991E8114910409F49BCF24
:10242000C4010E941F020097C1F16C01F701608195
:1024300071810280F381E02D90CFB5016F5F7F4FF6
:10244000C61AD70ACF010196A6010E944803D701F8
:1024500012960D911C9113970C0F1D1F81E090E0B7
:10246000B8010E946903FC011082F8011082D701B3
:102470001296ED91FC911397D5018C918083F70111
:10248000828193818C0F9D1F9383828395CF1995B1
:10249000C4010E941F02009741F6E0914D08F0919F
:1024A0004E083097A1F780E090E00E94302C3F92D8
:1024B0004F925F926F927F928F929F92AF92BF9254
:1024C000CF92DF92EF92FF920F931F93DF93CF9300
:1024D000CDB7DEB728970FB6F894DEBF0FBECDBFDD
:1024E0003C019AE0492E512C460C571CCE01019616
:1024F00098878F8383EC9BE00E94E62518161906C7
:102500002CF4F301808591854C97C4F028960FB682
:10251000F894DEBF0FBECDBFCF91DF911F910F9119
:10252000FF90EF90DF90CF90BF90AF909F908F90F3
:102530007F906F905F904F903F90089583EC9BE069
:102540000E941826382EFAE08F1709F445C1D301EE
:102550001C960D911C911D971A968D919C911B971D
:10256000081B190B0E5F1F4F1A8219821C821B82D7
:102570001E821D82BFEF0F3F1B0771F00115110571
:1025800009F00BC180E090E09A8389839C838B8360
:10259000080F191F1E830D830B811C8181E090E0C1
:1025A000B8010E946903FC011082F8011082D30176
:1025B0001A968D909C901B971C96ED91FC911D97FF
:1025C0008E169F0609F403C14B815C8169817A8173
:1025D000DA01A61BB70B6F01C818D90896012A0F9C
:1025E0003B1F8D819E810197861B970B8217930756
:1025F00008F079C09D012F5F3F4FC601B4E1CB16B3
:10260000D10410F484E190E05901A80EB91EA11480
:10261000B10409F0A7C0EE24FF248A01061B170BA2
:10262000C701A8010E9448030E0D1F1DC801B40177
:10263000A6010E9448030C0D1D1D81E090E0B80129
:102640000E946903FC011082F801108229813A81FD
:102650008D819E818217930719F0C9010E94C902DA
:10266000FA82E9821C830B83AE0CBF1CBE82AD8252
:10267000A8018A010F5F1F4F8D819E8108171907DE
:1026800009F45CC081E090E0B8010E946903FC019C
:102690001082F8011082EB81FC8130824B815C81D9
:1026A0004F5F5F4F5C834B838F81988584159505C1
:1026B00029F069817A81C2010E94551129813A81EC
:1026C0008D819E818217930719F0C9010E94C9026A
:1026D000D30118968D919C911997019619969C9308
:1026E0008E93189707CFB4016F5F7F4FE61BF70BF0
:1026F000CA010196AF010E9448030B811C810C0D99
:102700001D1D81E090E0B8010E946903FC01108268
:10271000D8011C92EB81FC81D4018C9180834B8188
:102720005C814C0D5D1D5C834B838A010F5F1F4FE5
:102730008D819E810817190709F0A4CF89819A819C
:102740008A01081B190B09F045C061E070E0600FB9
:10275000711FCE0101960E94A40D0B811C810F5F99
:102760001F4F90CFC5010E941F02009761F07C01AE
:102770004B815C8169817A8150CF1995C5010E9496
:102780001F020097A1F7E0914D08F0914E08309795
:10279000A1F780E090E00E94302CC8010E941F0247
:1027A000009709F0F1CEE0914D08F0914E08309776
:1027B00081F31995C8010E941F02009709F0E4CE29
:1027C000E0914D08F0914E08309799F7E2CF4B8198
:1027D0005C814FCFB801BBCF83EC9BE06CE375E02D
:1027E0000E943829D30118968D919C91199718163B
:1027F00019060CF5F301108A83EC9BE069E475E09F
:102800000E941929D3011A966D917C911B9783EC34
:102810009BE00E94192983EC9BE067E575E00E942C
:102820001929F3016085718583EC9BE04AE050E053
:102830000E94FA286BCE81E050968C93DDCF2F92C8
:102840003F924F925F926F927F928F929F92AF9240
:10285000BF92CF92DF92EF92FF920F931F93CF938D
:10286000DF935C013B014A014217530709F46CC036
:102870006901C41AD50ADC011296ED91FC911397F7
:1028800014968D919C9115978E1B9F0BC816D90697
:102890000CF46DC0D5012D913C91BF01621B730BEF
:1028A0006F5F7F4FC601B4E1CB16D10410F484E111
:1028B00090E01B01280E391E2114310409F0B1C02B
:1028C000442455248301021B130BC201B901A80142
:1028D0000E9448037201E00EF11EC701B401A60177
:1028E0000E944803EC0CFD1CD50112960D911C9121
:1028F000139706191709C701B301A8010E944803DD
:10290000E701C00FD11F81E090E0BE010E94690382
:10291000FC0110821882F50120813181848195812A
:102920008217930719F0C9010E94C902D5011196B7
:102930005C924E921396DC93CE931297240C351C26
:1029400015963C922E921497DF91CF911F910F9183
:10295000FF90EF90DF90CF90BF90AF909F908F90BF
:102960007F906F905F904F903F902F900895EF0170
:10297000C61BD70BCC15DD051CF1BF016C197D09F9
:102980006F5F7F4FCF010196AC01461B570B0E9432
:102990004803F501828193818C0D9D1D9383828371
:1029A0002196CC19DD09C3018C0D9D1DB301AE012B
:1029B0000E944803C301B401A6010E943F03C4CF93
:1029C00021967A01EC0EFD1E21978F010F5F1F4F9C
:1029D0002E193F09C801B701A9010E944803CC1A6A
:1029E000DD0AD50112968D919C9113978C0D9D1D3A
:1029F00013969C938E93129706191709B301A80199
:102A00000E944803F501828193818C0F9D1F93835F
:102A10008283E818F908C301B401A7010E943F03AB
:102A200093CFC1010E941F02009759F02C01F501BC
:102A30002081318147CF1995C1010E941F02009763
:102A4000A9F7E0914D08F0914E083097A1F780E08A
:102A500090E00E94302C2F923F924F925F926F92A3
:102A60007F928F929F92AF92BF92CF92DF92EF921E
:102A7000FF920F931F93CF93DF935C01FB01522EC4
:102A8000432E342E252EDC0158966D917C9159975A
:102A9000C22ED32E50962D913C9151974901860E0E
:102AA000971E52968D919C915397821B930B861B78
:102AB000970BA6018C159D0508F4AC017A01E60E72
:102AC000F71EE20EF31E3F016C0C7D1CE301CE1BD2
:102AD000DF0BC701881999098C179D078CF58F01A9
:102AE000080F191F98012E1B3F0BC401BF01A9013C
:102AF0000E943F03C5014096B701A801930100E081
:102B00000E941F14F501808D918D8C0D9D1D918F5C
:102B1000808F652D742D832D922DDF91CF911F9184
:102B20000F91FF90EF90DF90CF90BF90AF909F906C
:102B30008F907F906F905F904F903F902F9008956F
:102B4000C401BF01AE010E943F03C80DD91DEC16A0
:102B5000FD06C1F2F501428953894F5F5F4F4E195F
:102B60005F09CE01B7010E944803CE19DF09D501E4
:102B700052968D919C9153978C0F9D1F53969C93C9
:102B80008E935297BFCF2F923F924F925F926F9248
:102B90007F929F92AF92BF92CF92DF92EF92FF927D
:102BA0000F931F93DF93CF93CDB7DEB760970FB628
:102BB000F894DEBF0FBECDBF7C01DC011A966D918B
:102BC0007C911B971C964D915C911D9787960E9456
:102BD0005511F70116A615A686A181FF86C181A50C
:102BE00092A527A130A5821B930B90AB87A7F70175
:102BF0007196F88BEF87D7015196ED91FC91529722
:102C000036970190F081E02D8F859889E80FF91FA4
:102C100083899489892B09F4EAC115821A82198261
:102C20001C821B821E821D8288E090E00E941F028F
:102C30008C01009709F4EFC01A8309831C830B836E
:102C4000085F1F4F1E830D830850104081E090E005
:102C5000B8010E946903FC011082D8011C928F8583
:102C60009889BE016F5F7F4F0E948E0FE981FA81C4
:102C7000908083EC9BE068E675E00E941929E98169
:102C8000FA818181C82EDD24C7FCD094E0EDFFEFEE
:102C9000CE0EDF1E83EC9BE0692D0E94072883EC9B
:102CA0009BE065E775E00E94192983EC9BE0B60183
:102CB0004AE050E00E94FA2888E090E00E941F025B
:102CC0009E878D87892B09F4BAC081E090E06D85DD
:102CD0007E850E946903FC011082AD85BE851C9231
:102CE00088E090E00E941F021C01009709F4B7C021
:102CF00081E090E0B1010E946903FC011082F101C2
:102D0000108288E090E00E941F022C01009709F4D5
:102D1000B6C081E090E0B2010E946903FC0110821C
:102D2000D2011C9288E090E00E941F023C010097B3
:102D300009F4B5C081E090E0B3010E946903FC0191
:102D40001082F301108288E090E00E941F025C0173
:102D5000009709F4B4C081E090E0B5010E946903D6
:102D6000FC011082D5011C9218861F821A861986D2
:102D70001C861B8688E090E00E941F02009709F4E1
:102D8000ADC08F83988789879A878F8198850896A9
:102D90009C878B8709851A8581E090E0B8010E94A5
:102DA0006903FC011082F8011082F1E59F1609F415
:102DB00021C1F9150CF09FC0B3E59B1609F49FC122
:102DC0009B160CF0E0C0B1E0CB16D10409F411C29F
:102DD000E2E0CE16D10409F425C2CD2809F097C04F
:102DE00083EC9BE060E676E00E94192987E490E09E
:102DF000E80EF91ED7018D919C910E945D040E94FE
:102E0000090985C0199588E090E00E941F028C0195
:102E1000009709F011CFE0914D08F0914E083097DE
:102E200089F780E090E00E94302C199588E090E0CE
:102E30000E941F029E878D87892B09F046CFE09163
:102E40004D08F0914E08309781F7EBCF199588E047
:102E500090E00E941F021C01009709F049CFE09109
:102E60004D08F0914E08309789F7DBCF199588E02F
:102E700090E00E941F022C01009709F04ACFE091D8
:102E80004D08F0914E08309789F7CBCF199588E01F
:102E900090E00E941F023C01009709F04BCFE091A7
:102EA0004D08F0914E08309789F7BBCF199588E00F
:102EB00090E00E941F025C01009709F04CCFE09166
:102EC0004D08F0914E08309789F7ABCF199588E0FF
:102ED00090E00E941F02009709F053CFE0914D0847
:102EE000F0914E08309791F79CCFD701D0961C9265
:102EF0001E929F977CCE84E4981609F4ABC095E4AB
:102F0000991609F469C0A1E49A1609F4B7C02F8193
:102F100038858B859C858217930719F0C9010E941B
:102F2000C902C5010E94C902C3010E94C902C201AF
:102F30000E94C902C1010E94C9028D859E850E941E
:102F4000C90229813A818D819E818217930719F0E8
:102F5000C9010E94C90260960FB6F894DEBF0FBE89
:102F6000CDBFCF91DF911F910F91FF90EF90DF9038
:102F7000CF90BF90AF909F907F906F905F904F9059
:102F80003F902F900895E4E59E1609F6B1E0CB1628
:102F9000D10409F4AEC1E2E0CE16D1040CF4F1C1C3
:102FA000F2E0CF16D10409F412C183E0C816D104AF
:102FB00009F0ADCF83EC9BE069E476E00E9419292B
:102FC000E7E4F0E0EE0EFF1ED7018D919C910E9488
:102FD00057040E94E9079BCFC114D10409F0B4C083
:102FE00083EC9BE068E377E00E94192990CF81E0B1
:102FF000858314CEF4E0CF16D10409F416C285E01F
:10300000C816D1040CF0C7C091E0C916D10409F468
:1030100030C2A2E0CA16D1040CF43DC2B2E0CB1615
:10302000D10409F414C2E3E0CE16D10409F06FCF45
:1030300083EC9BE068EE76E00E941929E7E4F0E07B
:10304000EE0EFF1ED7018D919C910E945D040E949F
:103050001B085DCFB1E0CB16D10409F4DCC0E2E07F
:10306000CE16D10409F4F0C0CD2809F050CF83EC7E
:103070009BE06AE976E00E94192949CFB1E0CB16BE
:10308000D10409F40FC1E2E0CE16D10409F4E3C083
:10309000CD2809F03CCF83EC9BE06EE876E00E94FF
:1030A00019298F859889BE01695F7F4F0E948E0F15
:1030B0008F8198850E942103BC0183EC9BE04AE04C
:1030C00050E00E94FA2887E490E0E80EF91ED7014C
:1030D0008D919C910E945D048C018F8198850E9446
:1030E0002103AA2797FDA095BA2FBC01CD010E940C
:1030F000972BAB01BC01C8010E94560408CFF2E037
:10310000CF16D10409F419C183E0C816D10444F1E3
:10311000A3E0CA16D10409F4FEC0B4E0CB16D10472
:1031200009F0F5CE83EC9BE068EE75E00E9419296A
:10313000E7E4F0E0EE0EFF1ED7018D919C910E9416
:1031400058040E944708E3CEB1E0CB16D10409F041
:10315000DECE83EC9BE065E577E00E941929D7CEAF
:10316000C114D10409F4FBC091E0C916D10409F0DF
:10317000CECE83EC9BE061E975E00E941929E7E47B
:10318000F0E0EE0EFF1ED7018D919C910E94580435
:103190000E945608BCCEF6E0CF16D10409F421C136
:1031A00086E0C816D1040CF001C183EC9BE064E01A
:1031B00077E00E941929E7E4F0E0EE0EFF1ED70148
:1031C0008D919C910E945D040E942108A0CE83EC09
:1031D0009BE062E376E00E941929E7E4F0E0EE0E5E
:1031E000FF1ED7018D919C910E9457040E94EE070B
:1031F0008ECE83EC9BE06EE676E00E941929E7E430
:10320000F0E0EE0EFF1ED7018D919C910E945D04AF
:103210000E9412087CCE83EC9BE064EA76E00E9478
:10322000192975CE83EC9BE06EE776E00E941929A0
:10323000E7E4F0E0EE0EFF1ED7018D919C910E9415
:103240005D040E94090863CE83EC9BE061EB76E0AD
:103250000E9419295CCE83EC9BE06EE876E00E9428
:1032600019298F859889BE01695F7F4F0E948E0F53
:103270008F8198850E942103BC0183EC9BE04AE08A
:1032800050E00E94FA28E7E4F0E0EE0EFF1ED701BE
:103290008D919C910E945D048C018F8198850E9484
:1032A00021031FCF83EC9BE06EE876E00E94192992
:1032B0008F859889BE01695F7F4F0E948E0F8F8135
:1032C00098850E942103BC0183EC9BE04AE050E01A
:1032D0000E94FA28E7E4F0E0EE0EFF1ED7018D9180
:1032E0009C910E945D048C018F8198850E9421032E
:1032F000F8CE83EC9BE06AE176E00E94192987E42E
:1033000090E0E80EF91ED7018D919C910E94570420
:103310000E94F307FCCD83EC9BE067EC75E00E9414
:103320001929E7E4F0E0EE0EFF1ED7018D919C9184
:103330000E9458040E944C08EACD83EC9BE06AEAA4
:1033400075E00E941929E7E4F0E0EE0EFF1ED701B8
:103350008D919C910E9458040E945108D8CD83EC15
:103360009BE067E775E00E941929E7E4F0E0EE0EC4
:10337000FF1ED7018D919C910E9458040E945C0809
:10338000C6CDCD2809F0C3CD83EC9BE062E076E0AA
:103390000E941929A7E4B0E0EA0EFB1EF701808124
:1033A00091810E9457040E94F807B1CD97E0C91699
:1033B000D10449F1A8E0CA16D10409F0A8CD83ECE4
:1033C0009BE06CE277E00E941929E7E4F0E0EE0E62
:1033D000FF1ED7018D919C910E945D040E943308CD
:1033E00096CD83EC9BE060E177E00E941929E7E449
:1033F000F0E0EE0EFF1ED7018D919C910E945D04BE
:103400000E942D0884CD83EC9BE06EE177E00E9462
:103410001929E7E4F0E0EE0EFF1ED7018D919C9193
:103420000E945D040E94270872CD83EC9BE066EF4A
:1034300076E00E941929E7E4F0E0EE0EFF1ED701C6
:103440008D919C910E945D040E94150860CD83ECD3
:103450009BE06AED76E00E941929E7E4F0E0EE0EC9
:10346000FF1ED7018D919C910E945D040E94FD0773
:103470004ECD83EC9BE06AEC76E00E941929E7E4EC
:10348000F0E0EE0EFF1ED7018D919C910E945D042D
:103490000E9403083CCDCD2809F039CD83EC9BE098
:1034A0006AEB76E00E941929E7E4F0E0EE0EFF1ED9
:1034B000D7018D919C910E945D040E940C0827CD3C
:1034C000EF92FF920F931F93DF93CF9300D000D022
:1034D000CDB7DEB78C010E94051C882369F42696BF
:1034E0000FB6F894DEBF0FBECDBFCF91DF911F9115
:1034F0000F91FF90EF900895C8010E94241CC8010D
:103500000E945712D80150968C91882341F783EC82
:103510009BE06FE677E00E943829C8010E94C3153E
:1035200081E0F801808B1A8219821C821B821E8224
:103530001D8281E090E00E941F027C01009709F447
:103540006AC0FA82E9820894E11CF11CFE82ED82D5
:103550000894E108F108FC82EB8281E090E0B70179
:103560000E946903FC011082D7011C929801295D19
:103570003F4FCE0101968217930739F069817A8116
:103580004B815C81C9010E945511F80116A615A650
:1035900086A181FF31C081A592A527A130A5821BFC
:1035A000930B90AB87A7D8015196ED91FC91529760
:1035B00036970190F081E02D0F5E1F4FE00FF11F55
:1035C0000151104083899489892B79F115822981D1
:1035D0003A818D819E818217930719F0C9010E945B
:1035E000C902F80111861086C8010A966EE777E0D5
:1035F000AB010E94551173CFD801D0961C921E9238
:103600009F97D1CF199581E090E00E941F027C0125
:10361000009709F096CFE0914D08F0914E08309751
:1036200089F780E090E00E94302C81E08583CFCF45
:10363000EF92FF920F931F93CF93DF93EC017B01E7
:1036400064E670E00E94311C198618861B861A8673
:103650001D861C861F861E8688E090E00E941F0241
:10366000009709F4B9C08A879B878C879D878A85D4
:103670009B8508969F878E870C851D8581E090E04D
:10368000B8010E946903FC011082F8011082BE019A
:10369000695E7F4F41E250E01FAA18AE86E090E0DD
:1036A000A0E0B0E089AF9AAFABAFBCAFED96199296
:1036B00019921992199280E2899319821882C25440
:1036C000D0405DAB4CABCC5BDF4F79836883C45497
:1036D000D0401EAACA5BDF4F1882C654D040E0918A
:1036E0008807F0918907FA8BE98B9E012F5E3F4F87
:1036F00036970190F081E02DE20FF31F80918A0749
:1037000090918B07918380831B8A1C8A1D8A1E8A55
:10371000E989FA8936970190F081E02DE20FF31FD5
:1037200054834383748B638B1582158A84E997E0F5
:103730009A8B898B0A969AAB89AB1B8E1A8E1D8E3B
:103740001C8E1F8E1E8E19A218A21BA21AA21DA2C9
:103750001CA21EA286ED97E0988F8F8B18A61FA241
:103760001AA619A61CA61BA688E090E00E941F02BC
:10377000009709F443C08FA398A789A79AA78FA1A0
:1037800098A508969CA78BA709A51AA581E090E0AB
:10379000B8010E946903FC011082F80110821EA684
:1037A0001DA618AA1FA688E08EA3C95BDF4FF98269
:1037B000E882C754D04081E0888BDF91CF911F9180
:1037C0000F91FF90EF900895199588E090E00E9486
:1037D0001F02009709F047CFE0914D08F0914E0885
:1037E000309791F780E090E00E94302C199588E0A6
:1037F00090E00E941F02009709F0BDCFE0914D08B4
:10380000F0914E08309791F7EDCF0F931F938C01F5
:103810000E94A629E0E0D80114962D913D914D918A
:103820005C911797621B730B840B950B2D913D9147
:103830004D915C9126173707480759070CF4E1E0D2
:103840008E2F1F910F9108950F931F938C010E944B
:10385000A629F80164837583868397831F910F914E
:1038600008950F931F938C01882777FD8095982FDB
:10387000F80160837183828393830E94A629F801F3
:1038800064837583868397831F910F910895FC014C
:1038900080914F08803318F08FEF808308958083E4
:1038A0008F5F80934F08815090E0FC01EE0FFF1F67
:1038B000E80FF91FE05BF74F88EB9BE09283818371
:1038C0000895FC012081203338F58181992787FDF7
:1038D000909548E850E0481B590B440F551F440F82
:1038E000551F64177507CCF442505040CA01AA27EF
:1038F00097FDA095BA2F880F991FAA1FBB1F4FB71E
:10390000F89430E0F901EE0FFF1FE20FF31FE05BC8
:10391000F74F928381834FBF08958281992787FD56
:10392000909548E552E0481B590B440F551F440F32
:10393000551F64177507C4F6AB01D6CFCF92DF923F
:10394000EF92FF921F93CF93DF93EC01162F7A0132
:1039500069018881803340F0DF91CF911F91FF9002
:10396000EF90DF90CF900895862F61E00E949D2A0E
:10397000888190E0FC01EE0FFF1FE80FF91FE05B6C
:10398000F74F1F738081807C812B808380E292E0DF
:103990008E199F0997FD71C0959587959595879587
:1039A000898380E699E08C199D0997FD64C09595FF
:1039B0008795959587958A83A8818A2F6CE00E94C8
:1039C000F12B682F70E0AB01440F551F460F571FB6
:1039D000440F551F440F551F20E030E0C901840FEC
:1039E000951FFC01EE0FFF1FE80FF91FE05BF74F7B
:1039F000808186FD1BC02F5F3F4F2C30310571F752
:103A00006130710541F162307105C9F163307105B2
:103A100009F042C01092A00082E08093A1001092B1
:103A2000A5001092A40089BB809372008A2F90E0B9
:103A3000FC01EE0FFF1FE80FF91FE05BF74F8081DD
:103A4000806480838881DF91CF911F91FF90EF90F8
:103A5000DF90CF9008951092800082E080938100E3
:103A60001092850010928400B19A80916F0082605C
:103A700080936F00DBCF03969ACF03968DCF109281
:103A8000900082E080939100109295001092940033
:103A900088BB80937100CACF672B41F6109220013A
:103AA00082E08093210110922501109224018ABBAB
:103AB00080937300BBCF40E252E020E639E00E94E1
:103AC0009E1C08951F920F920FB60F920BB60F9285
:103AD00011242F933F934F935F936F937F938F9313
:103AE0009F93AF93BF93EF93FF938091E10887FD7E
:103AF000B2C08091E108992787FD90950C9640917E
:103B00004F08242F30E0821793070CF443C08091B4
:103B1000E1088F5F8093E1088091E108992787FD94
:103B200090950C96242F30E0821793072CF4809107
:103B3000E1088C300CF453C0809184009091850092
:103B4000049680549C49F8F08091840090918500FF
:103B5000049690938900809388008FEF8093E1080A
:103B6000FF91EF91BF91AF919F918F917F916F9155
:103B70005F914F913F912F910F900BBE0F900FBE11
:103B80000F901F90189580E49CE990938900809392
:103B90008800E3CF8091E108992787FD90950C96E6
:103BA000FC01EE0FFF1FE80FF91FE05BF74F80816C
:103BB00086FFADCF8091E108992787FD90950C96FF
:103BC000FC01EE0FFF1FE80FF91FE05BF74F80814C
:103BD0008F7360E00E945F2B40914F0898CF209137
:103BE0008400309185008091E108992787FD9095A8
:103BF0000C96FC01EE0FFF1FE80FF91FE05BF74F7B
:103C000081819281280F391F309389002093880089
:103C10008091E108992787FD90950C96FC01EE0FA5
:103C2000FF1FE80FF91FE05BF74F808186FF98CFF9
:103C30008091E108992787FD90950C96FC01EE0F85
:103C4000FF1FE80FF91FE05BF74F80818F7361E082
:103C50000E945F2B85CF10928500109284004091C6
:103C60004F0855CF1F920F920FB60F920BB60F92BF
:103C700011242F933F934F935F936F937F938F9371
:103C80009F93AF93BF93EF93FF938091E00887FDDD
:103C9000ABC08091E008992787FD909540914F082F
:103CA000242F30E0821793070CF442C08091E00883
:103CB0008F5F8093E0088091E008992787FD9095B9
:103CC000242F30E0821793072CF48091E0088C3089
:103CD0000CF451C0809124019091250104968054E8
:103CE0009C49F8F0809124019091250104969093CD
:103CF0002901809328018FEF8093E008FF91EF91D5
:103D0000BF91AF919F918F917F916F915F914F91F3
:103D10003F912F910F900BBE0F900FBE0F901F90F1
:103D2000189580E49CE99093290180932801E3CFC2
:103D30008091E008992787FD9095FC01EE0FFF1F09
:103D4000E80FF91FE05BF74F808186FFAFCF8091CE
:103D5000E008992787FD9095FC01EE0FFF1FE80F03
:103D6000F91FE05BF74F80818F7360E00E945F2B4B
:103D700040914F089BCF20912401309125018091E3
:103D8000E008992787FD9095FC01EE0FFF1FE80FD3
:103D9000F91FE05BF74F81819281280F391F309323
:103DA0002901209328018091E008992787FD9095AB
:103DB000FC01EE0FFF1FE80FF91FE05BF74F80815A
:103DC00086FF9CCF8091E008992787FD9095FC01A4
:103DD000EE0FFF1FE80FF91FE05BF74F80818F7335
:103DE00061E00E945F2B8ACF10922501109224017E
:103DF00040914F085BCF1F920F920FB60F920BB6F8
:103E00000F9211242F933F934F935F936F937F9360
:103E10008F939F93AF93BF93EF93FF938091E308AA
:103E200087FDB2C08091E308992787FD909584961D
:103E300040914F08242F30E0821793070CF443C0C1
:103E40008091E3088F5F8093E3088091E3089927CE
:103E500087FD90958496242F30E0821793072CF4E9
:103E60008091E3088C300CF453C08091A4009091B1
:103E7000A500049680549C49F8F08091A40090918C
:103E8000A50004969093A9008093A8008FEF8093DB
:103E9000E308FF91EF91BF91AF919F918F917F9137
:103EA0006F915F914F913F912F910F900BBE0F90AB
:103EB0000FBE0F901F90189580E49CE99093A90085
:103EC0008093A800E3CF8091E308992787FD909520
:103ED0008496FC01EE0FFF1FE80FF91FE05BF74F20
:103EE000808186FFADCF8091E308992787FD90956B
:103EF0008496FC01EE0FFF1FE80FF91FE05BF74F00
:103F000080818F7360E00E945F2B40914F0898CFB3
:103F10002091A4003091A5008091E308992787FDA6
:103F200090958496FC01EE0FFF1FE80FF91FE05BF0
:103F3000F74F81819281280F391F3093A900209378
:103F4000A8008091E308992787FD90958496FC014D
:103F5000EE0FFF1FE80FF91FE05BF74F808186FF30
:103F600098CF8091E308992787FD90958496FC016E
:103F7000EE0FFF1FE80FF91FE05BF74F80818F7393
:103F800061E00E945F2B85CF1092A5001092A400E3
:103F900040914F0855CF1F920F920FB60F920BB65C
:103FA0000F9211242F933F934F935F936F937F93BF
:103FB0008F939F93AF93BF93EF93FF938091E2080A
:103FC00087FDB2C08091E208992787FD90954896B9
:103FD00040914F08242F30E0821793070CF443C020
:103FE0008091E2088F5F8093E2088091E208992730
:103FF00087FD90954896242F30E0821793072CF484
:104000008091E2088C300CF453C080919400909120
:104010009500049680549C49F8F08091940090910A
:104020009500049690939900809398008FEF809369
:10403000E208FF91EF91BF91AF919F918F917F9196
:104040006F915F914F913F912F910F900BBE0F9009
:104050000FBE0F901F90189580E49CE990939900F3
:1040600080939800E3CF8091E208992787FD90958F
:104070004896FC01EE0FFF1FE80FF91FE05BF74FBA
:10408000808186FFADCF8091E208992787FD9095CA
:104090004896FC01EE0FFF1FE80FF91FE05BF74F9A
:1040A00080818F7360E00E945F2B40914F0898CF12
:1040B00020919400309195008091E208992787FD26
:1040C00090954896FC01EE0FFF1FE80FF91FE05B8B
:1040D000F74F81819281280F391F309399002093E7
:1040E00098008091E208992787FD90954896FC01F9
:1040F000EE0FFF1FE80FF91FE05BF74F808186FF8F
:1041000098CF8091E208992787FD90954896FC0109
:10411000EE0FFF1FE80FF91FE05BF74F80818F73F1
:1041200061E00E945F2B85CF109295001092940061
:1041300040914F0855CFFC017183608312825483F4
:1041400043830895FC01828191E089278283089549
:10415000CF93DF93EC018A81882369F488810E94E0
:10416000682A40E02B813C81281739076CF4842FA2
:10417000DF91CF91089588810E94682A40E02B81C9
:104180003C81281739079CF741E0842FDF91CF91BC
:1041900008952091050930E080910409281B310918
:1041A000C90108954091040980910509481760F4F8
:1041B000E42FF0E0EC51F74F8081282F30E04F5F83
:1041C00040930409C90108952FEF3FEFC9010895F5
:1041D000E091040980910509E81740F4F0E0EC5102
:1041E000F74F8081E82FF0E0CF010895EFEFFFEF68
:1041F000CF010895089510922C0910922B0988EE92
:1042000093E0A0E0B0E080932D0990932E09A09355
:104210002F09B093300986E198E090932A098093A2
:1042200029090895CF92DF92EF92FF920F931F9387
:10423000CF93DF937C016B018A0180912809882349
:10424000F9F04115510591F0C0E0D0E0D701ED91B2
:10425000FC91D601AC0FBD1F0190F081E02DC7018C
:104260006C9119952196C017D10780F3C801DF9191
:10427000CF911F910F91FF90EF90DF90CF90089515
:10428000CB01642F0E948A21F1CFDF93CF930F924D
:10429000CDB7DEB7FC01698380912809882319F125
:1042A000809127098032A0F480912609E82FF0E060
:1042B000EA5FF64F998190838F5F80932609809300
:1042C000270921E030E0C9010F90CF91DF910895D7
:1042D00081E090E09383828320E030E0C9010F9079
:1042E000CF91DF910895CE01019661E00E948A216D
:1042F00021E030E0C9010F90CF91DF910895109235
:1043000004091092050910922609109227090E94AB
:10431000F0220895AC016132D0F4809135098430E7
:1043200011F082E0089560938009662371F020E027
:1043300030E0F901E15AF64FDA01A20FB31F8C9178
:1043400080832F5F3F4F2617A0F380E0089581E020
:1043500008951F920F920FB60F920BB60F92112471
:104360002F933F934F935F936F937F938F939F937D
:10437000AF93BF93EF93FF938091B90090E0A0E0DB
:10438000B0E0887F9070A070B070FC01893C91050E
:1043900090F5EC56FF4FEE0FFF1F0590F491E02DC6
:1043A000199484E08093350910927F091092800956
:1043B000E0913909F0913A09199580918009882393
:1043C00029F481E08093800910925F0990917F0920
:1043D000E92FF0E0E15AF64F80818093BB009F5FA8
:1043E00090937F0990917F09809180099817D8F464
:1043F00085EC8093BC00FF91EF91BF91AF919F91AD
:104400008F917F916F915F914F913F912F910F907D
:104410000BBE0F900FBE0F901F9018958091A109B1
:10442000803208F4ADC085E88093BC00E4CF809171
:104430005D099091BB00E82FF0E0E35CF64F9083BC
:104440008F5F80935D0990915D0980915E09981757
:1044500050F7CECF80E38093A20985ED8093BC0016
:104460008091BC0084FDFCCF10923509C4CF88E355
:104470008093A20985EC8093BC0010923509BBCFD4
:1044800080915D099091BB00E82FF0E0E35CF64F6E
:1044900090838F5F80935D0980913709882309F4A9
:1044A00086C085ED8093BC008091BC0084FDFCCF6C
:1044B000DBCF83E0809335091092A10985EC8093CE
:1044C000BC0099CF1092A20985ED8093BC00809129
:1044D000BC0084FDFCCFC8CF809136098093BB001F
:1044E00085EC8093BC0087CF90915D0980915E0937
:1044F000981708F465C080913709882309F457C0DC
:1045000085ED8093BC008091BC0084FDFCCFACCFD6
:1045100080E28093A20985ED8093BC008091BC006D
:1045200084FDFCCFA1CF8091A1098032C8F185ED37
:104530008093BC008091BC0084FDFCCF10923509B3
:104540006091A109E0913B09F0913C0981E899E073
:1045500070E019951092A10985EC8093BC0010922F
:10456000350949CF85EC8093BC001092350943CFC3
:1045700085ED8093BC008091BC0084FDFCCF74CF9E
:104580008091A1099091BB00E82FF0E0EF57F64F22
:1045900090838F5F8093A10985EC8093BC002BCF23
:1045A000E091A109F0E0EF57F64F1082C0CF81E013
:1045B0008093380984EA8093BC00109235091BCFA0
:1045C00090915D09E92FF0E0E35CF64F80818093E4
:1045D000BB009F5F90935D0985EC8093BC000BCF7F
:1045E0001092350981E0809337091092380984E1EF
:1045F00061E00E945F2B85E161E00E945F2BE9EBA7
:10460000F0E080818E7F808380818D7F808388E44D
:104610008093B80085E48093BC00089508951F92AC
:104620000F920FB60F920BB60F9211242F933F9358
:104630004F938F939F93EF93FF938091C00082FDE0
:104640002AC04091C6002091E3093091E4092F5F10
:104650003F4F2F7330708091E5099091E60928173C
:10466000390759F0E091E309F091E409ED55F64F6F
:1046700040833093E4092093E309FF91EF919F91E8
:104680008F914F913F912F910F900BBE0F900FBEC6
:104690000F901F9018958091C600EFCF08951F923C
:1046A0000F920FB60F920BB60F9211242F933F93D8
:1046B0004F938F939F93EF93FF938091C80082FD58
:1046C0002AC04091CE0020916B0A30916C0A2F5F76
:1046D0003F4F2F73307080916D0A90916E0A2817AA
:1046E000390759F0E0916B0AF0916C0AE55DF54FDE
:1046F000408330936C0A20936B0AFF91EF919F9156
:104700008F914F913F912F910F900BBE0F900FBE45
:104710000F901F9018958091CE00EFCF08951F92B3
:104720000F920FB60F920BB60F9211242F933F9357
:104730004F938F939F93EF93FF938091D00082FDCF
:104740002AC04091D6002091F30A3091F40A2F5FDD
:104750003F4F2F7330708091F50A9091F60A281719
:10476000390759F0E091F30AF091F40AED54F54F4E
:1047700040833093F40A2093F30AFF91EF919F91C5
:104780008F914F913F912F910F900BBE0F900FBEC5
:104790000F901F9018958091D600EFCF08951F922B
:1047A0000F920FB60F920BB60F9211242F933F93D7
:1047B0004F938F939F93EF93FF938091300182FDEE
:1047C0002AC04091360120917B0B30917C0B2F5FEA
:1047D0003F4F2F73307080917D0B90917E0B281787
:1047E000390759F0E0917B0BF0917C0BE55CF44FBD
:1047F000408330937C0B20937B0BFF91EF919F9133
:104800008F914F913F912F910F900BBE0F900FBE44
:104810000F901F90189580913601EFCFE091CF0B4C
:10482000F091D00BE05CFF4F81919191208131811B
:10483000821B930B8F739070892BD1F5E091F10B54
:10484000F091F20BE05CFF4F8191919120813181D9
:10485000821B930B8F739070892B39F5E091130CA9
:10486000F091140CE05CFF4F819191912081318196
:10487000821B930B8F739070892BA1F4E091350C00
:10488000F091360CE05CFF4F819191912081318154
:10489000821B930B8F739070892B09F408950E94EB
:1048A000CE2308950E948E23E9CF0E944E23D6CFB7
:1048B0000E940E23C3CF1F920F920FB60F920BB61A
:1048C0000F9211242F933F938F939F93EF93FF9316
:1048D0002091270A3091280A8091290A90912A0A6A
:1048E0002817390709F1E091290AF0912A0AE951BC
:1048F000F64F20818091290A90912A0A01968F73A0
:10490000907090932A0A8093290A2093C600FF9101
:10491000EF919F918F913F912F910F900BBE0F9030
:104920000FBE0F901F9018958091C1008F7D8093CE
:10493000C100EDCF1F920F920FB60F920BB60F92E0
:1049400011242F933F938F939F93EF93FF93209185
:10495000AF0A3091B00A8091B10A9091B20A28173B
:10496000390709F1E091B10AF091B20AE159F54F26
:1049700020818091B10A9091B20A01968F73907054
:104980009093B20A8093B10A2093CE00FF91EF91E9
:104990009F918F913F912F910F900BBE0F900FBE63
:1049A0000F901F9018958091C9008F7D8093C9004A
:1049B000EDCF1F920F920FB60F920BB60F921124EC
:1049C0002F933F938F939F93EF93FF932091370BF8
:1049D0003091380B8091390B90913A0B2817390799
:1049E00009F1E091390BF0913A0BE950F54F208134
:1049F0008091390B90913A0B01968F739070909340
:104A00003A0B8093390B2093D600FF91EF919F9141
:104A10008F913F912F910F900BBE0F900FBE0F9073
:104A20001F9018958091D1008F7D8093D100EDCF9C
:104A30001F920F920FB60F920BB60F9211242F9365
:104A40003F938F939F93EF93FF932091BF0B3091F0
:104A5000C00B8091C10B9091C20B2817390709F147
:104A6000E091C10BF091C20BE158F44F208180918D
:104A7000C10B9091C20B01968F7390709093C20BF3
:104A80008093C10B20933601FF91EF919F918F91FD
:104A90003F912F910F900BBE0F900FBE0F901F9064
:104AA0001895809131018F7D80933101EDCFDF9298
:104AB000EF92FF920F931F93CF93DF93EC017A0154
:104AC0008B01DD24403081EE580780E0680780E0EC
:104AD000780721F1DD24D394EC89FD8981E090E011
:104AE00008A002C0880F991F0A94E2F7808360E053
:104AF00079E08DE390E0A80197010E94FD2B215001
:104B0000304040405040569547953795279580E175
:104B100020303807D0F0DD20C1F0DD24EC89FD899C
:104B2000108260E874E88EE190E0A80197010E948D
:104B3000FD2B2150304040405040569547953795C9
:104B4000279580E12030380730F7E889F9893083EC
:104B5000EA89FB89208319A2EE89FF89408121E03F
:104B600030E0C9010C8C02C0880F991F0A94E2F74B
:104B7000482B4083EE89FF894081C9010D8C02C01A
:104B8000880F991F0A94E2F7482B4083EE89FF892A
:104B90004081C9010E8C02C0880F991F0A94E2F768
:104BA000482B4083EE89FF8980810F8C02C0220F41
:104BB000331F0A94E2F7209528232083DF91CF91B9
:104BC0001F910F91FF90EF90DF900895DC011C96EC
:104BD000ED91FC911D97E05CFF4F21913191808117
:104BE0009181281B390B2F733070C9010895DC01A6
:104BF0001C96ED91FC911D97E05CFF4F2081318167
:104C0000E054F040DF01AE5BBF4F8D919C91119756
:104C10002817390749F08D919C91E80FF91F808181
:104C2000282F30E0C90108952FEF3FEFC901089503
:104C3000DC011C96ED91FC911D97E05CFF4F2081FB
:104C40003181E054F040DF01AE5BBF4F8D919C910C
:104C500011972817390791F08D919C911197E80FC2
:104C6000F91F20818D919C91119701968F739070FF
:104C700011969C938E9330E0C90108952FEF3FEF7A
:104C8000C9010895FC0181A1882311F411A208959E
:104C9000A489B5898C9186FFFDCF11A20895CF9389
:104CA000DF93EC01AE85BF85AD01405C5F4FFA013B
:104CB000208131812F5F3F4F2F733070FD01EE5BFC
:104CC000FF4F8081918128173907D9F3FA0180813C
:104CD0009181A80FB91F6C93EE85FF85E05CFF4FB3
:104CE00031832083EE89FF89208181E090E00F8C61
:104CF00002C0880F991F0A94E2F7282B208381E0D5
:104D000089A3EC89FD8980818064808381E090E0C3
:104D1000DF91CF9108951F931092C60B1092C50B8F
:104D200028EE33E040E050E02093C70B3093C80BEF
:104D30004093C90B5093CA0B66E278E07093C40BA2
:104D40006093C30B83EA99E09093D00B8093CF0BD1
:104D500087EE99E09093D20B8093D10B85EC90E095
:104D60009093D40B8093D30B84EC90E09093D60B6C
:104D70008093D50B80EC90E09093D80B8093D70B69
:104D800081EC90E09093DA0B8093D90B82EC90E069
:104D90009093DC0B8093DB0B86EC90E09093DE0B22
:104DA0008093DD0B14E01093DF0BB3E0B093E00BC6
:104DB000A7E0A093E10BF5E0F093E20BE1E0E093D4
:104DC000E30B1092E80B1092E70B2093E90B309362
:104DD000EA0B4093EB0B5093EC0B7093E60B609354
:104DE000E50B8BE29AE09093F20B8093F10B8FE648
:104DF0009AE09093F40B8093F30B8DEC90E09093FA
:104E0000F60B8093F50B8CEC90E09093F80B80936D
:104E1000F70B88EC90E09093FA0B8093F90B89ECF8
:104E200090E09093FC0B8093FB0B8AEC90E09093C6
:104E3000FE0B8093FD0B8EEC90E09093000C809322
:104E4000FF0B1093010CB093020CA093030CF09392
:104E5000040CE093050C10920A0C1092090C20939C
:104E60000B0C30930C0C40930D0C50930E0C709364
:104E7000080C6093070C83EB9AE09093140C8093DA
:104E8000130C87EF9AE09093160C8093150C85ED28
:104E900090E09093180C8093170C84ED90E0909321
:104EA0001A0C8093190C80ED90E090931C0C809369
:104EB0001B0C81ED90E090931E0C80931D0C82EDF5
:104EC00090E09093200C80931F0C86ED90E09093DF
:104ED000220C8093210C1093230CB093240CA093EC
:104EE000250CF093260CE093270C10922C0C1092BA
:104EF0002B0C20932D0C30932E0C40932F0C5093A1
:104F0000300C70932A0C6093290C8BE39BE09093F8
:104F1000360C8093350C8FE79BE09093380C809390
:104F2000370C85E391E090933A0C8093390C84E33D
:104F300091E090933C0C80933B0C80E391E0909344
:104F40003E0C80933D0C81E391E09093400C809364
:104F50003F0C82E391E09093420C8093410C86E3F6
:104F600091E09093440C8093430C1093450CB093C4
:104F7000460CA093470CF093480CE093490C1F910A
:104F800008950E94062A0E9497030E9484038EE0DF
:104F900094E2892B29F00E940E240E948403FBCF07
:104FA0000E9484030E948403FBCF0E94C9020895DB
:104FB0000E941F020895CF92DF92EF92FF920F930B
:104FC0001F93CF93DF937C016B01EA0141155105DB
:104FD000D9F000E010E0D6016D916D01D701ED919F
:104FE000FC910190F081E02DC7011995080F191F60
:104FF000219789F7C801DF91CF911F910F91FF9001
:10500000EF90DF90CF90089500E010E0F3CFDC0147
:10501000ED91FC910190F081E02D19950895EF92AA
:10502000FF920F931F938C01DC01ED91FC91019095
:10503000F081E02D6DE019957C01D801ED91FC9196
:105040000190F081E02DC8016AE019959C012E0DB8
:105050003F1DC9011F910F91FF90EF9008954F924E
:105060005F927F928F929F92AF92BF92CF92DF9288
:10507000EF92FF920F931F93DF93CF93CDB7DEB7DD
:10508000A1970FB6F894DEBF0FBECDBF2C01742ED2
:10509000CB01223008F460C0822E9924AA24BB24BC
:1050A00019A221E2C22ED12CCC0EDD1E0BC0405D18
:1050B000F6014083E114F1040105110501F17E2C94
:1050C0005F2DC801672D752FA50194010E94FD2B4E
:1050D00079018A01C801B701A50194010E94D22B70
:1050E000472D461B0894C108D1084A3004F3495C97
:1050F000F6014083E114F1040105110501F7C11423
:10510000D10481F1D6010D900020E9F71197AC1977
:10511000BD09F20180819181FC0122813381C201AC
:10512000B601AD01F90119959C01C901A1960FB60F
:10513000F894DEBF0FBECDBFCF91DF911F910F91CD
:10514000FF90EF90DF90CF90BF90AF909F908F90A7
:105150007F905F904F9008953AE0832E912CA12C80
:10516000B12C9ECF20E030E0E0CFCF92DF92EF92E3
:10517000FF920F931F93CF93DF93EC016A017B01A2
:1051800021153105B9F02A30310539F477FD1BC0FE
:105190002AE00E942F289C0103C00E942F289C0116
:1051A000C901DF91CF911F910F91FF90EF90DF9098
:1051B000CF900895E881F9810190F081E02D642F6E
:1051C00019959C01EDCFE881F9810190F081E02DE6
:1051D0006DE219958C0144275527BA014C195D09D8
:1051E0006E097F09CE012AE00E942F289801280F1E
:1051F000391FD6CFCF92DF92EF92FF920F931F937A
:105200006C017B019A010027F7FC0095102FB80173
:10521000A7010E94B5288C01C6010E940F28080F23
:10522000191FC8011F910F91FF90EF90DF90CF9051
:105230000895CF93DF93EC016115710599F0DB01BF
:105240000D900020E9F71197A61BB70BE881F981B3
:105250000280F381E02DAD0119959C01C901DF9118
:10526000CF91089520E030E0C901DF91CF910895FA
:105270000F931F93CF93DF93EC0161157105D9F064
:10528000DB010D900020E9F71197A61BB70BE88111
:10529000F9810280F381E02DAD0119958C01CE01D9
:1052A0000E940F289801280F391FC901DF91CF9163
:1052B0001F910F91089500E010E0F1CF1F920F921F
:1052C0000FB60F9211242F933F938F939F93AF9319
:1052D000BF9380914F0C9091500CA091510CB091C4
:1052E000520C3091530C0196A11DB11D232F2D5F3F
:1052F0002D3720F02D570196A11DB11D2093530C81
:1053000080934F0C9093500CA093510CB093520C7F
:1053100080914B0C90914C0CA0914D0CB0914E0C87
:105320000196A11DB11D80934B0C90934C0CA09342
:105330004D0CB0934E0CBF91AF919F918F913F91C7
:105340002F910F900FBE0F901F9018958FB7F89464
:1053500020914F0C3091500C4091510C5091520CB7
:105360008FBFB901CA0108959FB7F89420914B0CE3
:1053700030914C0C40914D0C50914E0C86B5A89B31
:1053800006C08F3F21F02F5F3F4F4F4F5F4F9FBFB2
:10539000542F432F322F2227280F311D411D511D1D
:1053A000220F331F441F551F220F331F441F551F49
:1053B000B901CA010895EF92FF920F931F93CF9303
:1053C000DF937B018C010E94B429E114F1040105F3
:1053D0001105A9F0EB010E94B4296C1B7D0B685EDE
:1053E0007340C8F30894E108F10801091109E114B8
:1053F000F1040105110519F0C851DC4FECCFDF9124
:10540000CF911F910F91FF90EF900895789484B5FC
:10541000826084BD84B5816084BD85B5826085BDB0
:1054200085B5816085BDEEE6F0E080818160808396
:10543000E1E8F0E010828081826080838081816079
:105440008083E0E8F0E0808181608083E1EBF0E040
:10545000808184608083E0EBF0E0808181608083E4
:10546000E1E9F0E0808182608083808181608083D7
:10547000E0E9F0E0808181608083E1EAF0E0808112
:1054800082608083808181608083E0EAF0E08081B7
:1054900081608083E1E2F1E08081826080838081AD
:1054A00081608083E0E2F1E0808181608083EAE7CF
:1054B000F0E080818460808380818260808380814D
:1054C000816080838081806880831092C10008950C
:1054D000382F863308F0365320917B00832F869532
:1054E0008695869590E081709070880F991F880F3F
:1054F000991F880F991F277F282B20937B003770D7
:10550000809185078295880F880F807C832B8093FC
:105510007C0080917A00806480937A0080917A0088
:1055200086FDFCCF2091780040917900942F80E097
:1055300030E0282B392BC9010895CF93DF93482FF2
:1055400050E0CA01825B9C4FFC013491485F5C4F84
:10555000FA0184918823B9F090E0880F991FFC012B
:10556000E654FD4FA591B491FC01EC52FD4FC5915D
:10557000D491662359F06230B9F09FB7F8948C91BA
:10558000832B8C939FBFDF91CF9108952FB7F89411
:105590008C91932F909589238C938881892388837C
:1055A0002FBFDF91CF9108952FB7F8948C91932F4F
:1055B000909589238C938881832B88832FBFE3CF99
:1055C000893009F45EC08A3070F08D3009F45FC014
:1055D0008E30D0F0803109F46CC0813109F463C0A1
:1055E0008F30C9F10895843009F445C08530B8F092
:1055F0008730B9F1883048F58630A1F78091B00046
:105600008F778093B00008958B3009F446C08C30BA
:10561000B0F08091A0008F7D8093A000089582302B
:1056200031F1833030F48130E9F684B58F7784BD71
:105630000895809180008F778093800008958091F5
:105640009000877F809390000895809190008F77DD
:10565000809390000895809120018F77809320019E
:1056600008958091B0008F7D8093B000089584B537
:105670008F7D84BD0895809180008F7D8093800010
:105680000895809190008F7D80939000089580917F
:10569000A000877F8093A00008958091A0008F775D
:1056A0008093A000089580912001877F809320013E
:1056B0000895809120018F7D809320010895FF92AD
:1056C0000F931F93F62E482F50E0CA018C569C4F23
:1056D000FC012491CA01825B9C4FFC010491485F4C
:1056E0005C4FFA011491112399F02223D1F4E12F98
:1056F000F0E0EE0FFF1FEC52FD4FA591B4919FB764
:10570000F894FF2049F48C91009580238C939FBFDF
:105710001F910F91FF9008958C91802B8C939FBFC8
:10572000F7CF822F0E94E02AE2CFE89409C097FBCE
:105730003EF490958095709561957F4F8F4F9F4F68
:105740009923A9F0F92F96E9BB279395F6958795AC
:1057500077956795B795F111F8CFFAF4BB0F11F46F
:1057600060FF1BC06F5F7F4F8F4F9F4F16C0882316
:1057700011F096E911C0772321F09EE8872F762F4C
:1057800005C0662371F096E8862F70E060E02AF08D
:105790009A95660F771F881FDAF7880F9695879579
:1057A00097F90895629FD001739FF001829FE00DE9
:1057B000F11D649FE00DF11D929FF00D839FF00D90
:1057C000749FF00D659FF00D9927729FB00DE11D3C
:1057D000F91F639FB00DE11DF91FBD01CF01112419
:1057E0000895991B79E004C0991F961708F0961B3D
:1057F000881F7A95C9F780950895A1E21A2EAA1BF1
:10580000BB1BFD010DC0AA1FBB1FEE1FFF1FA21770
:10581000B307E407F50720F0A21BB30BE40BF50B6D
:10582000661F771F881F991F1A9469F760957095F6
:10583000809590959B01AC01BD01CF010895EE0FBD
:10584000FF1F0590F491E02D1994911106C080324C
:1058500019F089508550D0F7089599278827089521
:04586000F894FFCFEA
:105864002353455249414C20524541445900234257
:105874004153204E495645415520434F4F502752DE
:1058840000494E495420494F00494E4954204F7213
:105894006465727352617370626572727900005F3D
:1058A4005F5F5F5F5F5F5F5F5F5F5F5F5F5F5F5F04
:1058B4005F5F5F5F5F5F5F006574617420696E693D
:1058C40074002A205354415254203A20002A204381
:1058D4004F554C455552203A20002A2053545241EA
:1058E400542031203A2000616E676C652058203ABC
:1058F40020002064656700616E676C652059203A5A
:105904002000616E676C65205A203A200000232035
:1059140041445620464143450023204144562044F7
:10592400524F495445002320414456204741554392
:10593400484500673A09000900613A090054657353
:1059440074696E6720636F6E6E656374696F6E2031
:105954006779726F2E2E2E004D505536303530201B
:10596400636F6E6E656374696F6E206661696C65E2
:1059740064004D50553630353020636F6E6E65636C
:1059840074696F6E207375636365737366756C00F9
:105994000A00536F6E617220676175636865203A0F
:1059A400200020636D00536F6E61722064726F6912
:1059B4007465203A2000536F6E61722066616365DE
:1059C4002020203A200074696D655F6F7574207320
:1059D40065742000455441545F54415049535F4914
:1059E4004E495400455441545F54415049535F411A
:1059F4005400455441545F54415049535F44465FF9
:105A0400312000455441545F54415049535F44464A
:105A14005F322000455441545F54415049535F4420
:105A2400465F3300455441545F54415049535F44E9
:105A340046505F312000455441545F54415049530E
:105A44005F4446505F322000455441545F544150F6
:105A540049535F52465F312000455441545F5441DD
:105A64005049535F52465F322000455441545F54BD
:105A7400415049535F44535F312000455441545FC2
:105A840054415049535F44535F32200045544154BC
:105A94005F54415049535F44535F332000455441A0
:105AA400545F54415049535F4453505F31202000A8
:105AB400455441545F54415049535F4453505F32FD
:105AC400202000455441545F54415049535F525380
:105AD4005F31202000455441545F54415049535F85
